{
  "_format": "hh-sol-artifact-1",
  "contractName": "ATokensAndRatesHelper",
  "sourceName": "contracts/deployments/ATokensAndRatesHelper.sol",
  "abi": [
    {
      "inputs": [
        {
          "internalType": "address payable",
          "name": "_pool",
          "type": "address"
        },
        {
          "internalType": "address",
          "name": "_addressesProvider",
          "type": "address"
        },
        {
          "internalType": "address",
          "name": "_poolConfigurator",
          "type": "address"
        },
        {
          "internalType": "uint256",
          "name": "_DefaultVMEXReserveFactor",
          "type": "uint256"
        }
      ],
      "stateMutability": "nonpayable",
      "type": "constructor"
    },
    {
      "anonymous": false,
      "inputs": [
        {
          "indexed": true,
          "internalType": "address",
          "name": "previousOwner",
          "type": "address"
        },
        {
          "indexed": true,
          "internalType": "address",
          "name": "newOwner",
          "type": "address"
        }
      ],
      "name": "OwnershipTransferred",
      "type": "event"
    },
    {
      "anonymous": false,
      "inputs": [
        {
          "indexed": true,
          "internalType": "address",
          "name": "asset",
          "type": "address"
        },
        {
          "indexed": false,
          "internalType": "uint256",
          "name": "factor",
          "type": "uint256"
        }
      ],
      "name": "ReserveFactorChanged",
      "type": "event"
    },
    {
      "anonymous": false,
      "inputs": [
        {
          "indexed": true,
          "internalType": "address",
          "name": "asset",
          "type": "address"
        }
      ],
      "name": "ReserveFrozen",
      "type": "event"
    },
    {
      "anonymous": false,
      "inputs": [
        {
          "indexed": true,
          "internalType": "address",
          "name": "asset",
          "type": "address"
        }
      ],
      "name": "ReserveUnfrozen",
      "type": "event"
    },
    {
      "anonymous": false,
      "inputs": [
        {
          "indexed": false,
          "internalType": "address",
          "name": "aToken",
          "type": "address"
        },
        {
          "indexed": false,
          "internalType": "address",
          "name": "strategy",
          "type": "address"
        }
      ],
      "name": "deployedContracts",
      "type": "event"
    },
    {
      "inputs": [
        {
          "components": [
            {
              "internalType": "address",
              "name": "asset",
              "type": "address"
            },
            {
              "internalType": "uint256",
              "name": "baseLTV",
              "type": "uint256"
            },
            {
              "internalType": "uint256",
              "name": "liquidationThreshold",
              "type": "uint256"
            },
            {
              "internalType": "uint256",
              "name": "liquidationBonus",
              "type": "uint256"
            },
            {
              "internalType": "uint256",
              "name": "reserveFactor",
              "type": "uint256"
            },
            {
              "internalType": "bool",
              "name": "stableBorrowingEnabled",
              "type": "bool"
            },
            {
              "internalType": "bool",
              "name": "borrowingEnabled",
              "type": "bool"
            }
          ],
          "internalType": "struct ATokensAndRatesHelper.ConfigureReserveInput[]",
          "name": "inputParams",
          "type": "tuple[]"
        },
        {
          "internalType": "uint64",
          "name": "trancheId",
          "type": "uint64"
        }
      ],
      "name": "configureReserves",
      "outputs": [],
      "stateMutability": "nonpayable",
      "type": "function"
    },
    {
      "inputs": [
        {
          "internalType": "address",
          "name": "asset",
          "type": "address"
        },
        {
          "internalType": "uint64",
          "name": "trancheId",
          "type": "uint64"
        }
      ],
      "name": "freezeReserve",
      "outputs": [],
      "stateMutability": "nonpayable",
      "type": "function"
    },
    {
      "inputs": [
        {
          "components": [
            {
              "internalType": "address",
              "name": "asset",
              "type": "address"
            },
            {
              "internalType": "uint256[6]",
              "name": "rates",
              "type": "uint256[6]"
            }
          ],
          "internalType": "struct ATokensAndRatesHelper.InitDeploymentInput[]",
          "name": "inputParams",
          "type": "tuple[]"
        }
      ],
      "name": "initDeployment",
      "outputs": [],
      "stateMutability": "nonpayable",
      "type": "function"
    },
    {
      "inputs": [],
      "name": "owner",
      "outputs": [
        {
          "internalType": "address",
          "name": "",
          "type": "address"
        }
      ],
      "stateMutability": "view",
      "type": "function"
    },
    {
      "inputs": [],
      "name": "renounceOwnership",
      "outputs": [],
      "stateMutability": "nonpayable",
      "type": "function"
    },
    {
      "inputs": [
        {
          "internalType": "address",
          "name": "asset",
          "type": "address"
        },
        {
          "internalType": "uint64",
          "name": "trancheId",
          "type": "uint64"
        },
        {
          "internalType": "uint256",
          "name": "reserveFactor",
          "type": "uint256"
        }
      ],
      "name": "setReserveFactor",
      "outputs": [],
      "stateMutability": "nonpayable",
      "type": "function"
    },
    {
      "inputs": [
        {
          "internalType": "address",
          "name": "asset",
          "type": "address"
        },
        {
          "internalType": "uint64",
          "name": "trancheId",
          "type": "uint64"
        },
        {
          "internalType": "uint256",
          "name": "reserveFactor",
          "type": "uint256"
        }
      ],
      "name": "setVMEXReserveFactor",
      "outputs": [],
      "stateMutability": "nonpayable",
      "type": "function"
    },
    {
      "inputs": [
        {
          "internalType": "address",
          "name": "newOwner",
          "type": "address"
        }
      ],
      "name": "transferOwnership",
      "outputs": [],
      "stateMutability": "nonpayable",
      "type": "function"
    },
    {
      "inputs": [
        {
          "internalType": "address",
          "name": "asset",
          "type": "address"
        },
        {
          "internalType": "uint64",
          "name": "trancheId",
          "type": "uint64"
        }
      ],
      "name": "unfreezeReserve",
      "outputs": [],
      "stateMutability": "nonpayable",
      "type": "function"
    }
  ],
  "bytecode": "0x60806040523480156200001157600080fd5b5060405162005c9538038062005c958339810160408190526200003491620000d4565b600062000040620000d0565b600080546001600160a01b0319166001600160a01b0383169081178255604051929350917f8be0079c531659141344cd1fd0a4f28419497f9722a3daafe3b4186f6b6457e0908290a350600180546001600160a01b03199081166001600160a01b039687161790915560028054821694861694909417909355600380549093169190931617905560045562000146565b3390565b60008060008060808587031215620000ea578384fd5b8451620000f7816200012d565b60208601519094506200010a816200012d565b60408601519093506200011d816200012d565b6060959095015193969295505050565b6001600160a01b03811681146200014357600080fd5b50565b615b3f80620001566000396000f3fe60806040523480156200001157600080fd5b5060043610620000a05760003560e01c80638da5cb5b116200006f5780638da5cb5b14620000f6578063d37226391462000118578063eafbabd7146200012f578063f2fde38b1462000146578063fc123602146200015d57620000a0565b8063031c140f14620000a557806325e5a83814620000be578063715018a614620000d55780638644ae0f14620000df575b600080fd5b620000bc620000b63660046200164e565b62000174565b005b620000bc620000cf366004620015d3565b62000605565b620000bc620008a4565b620000bc620000f0366004620015d3565b62000928565b6200010062000bc7565b6040516200010f91906200175b565b60405180910390f35b620000bc620001293660046200160c565b62000bd6565b620000bc620001403660046200160c565b62000dc9565b620000bc620001573660046200158e565b62001077565b620000bc6200016e366004620016a6565b62001135565b600254604051630847b4a360e01b8152829133916001600160a01b0390911690630847b4a390620001aa90859060040162001988565b60206040518083038186803b158015620001c357600080fd5b505afa158015620001d8573d6000803e3d6000fd5b505050506040513d601f19601f82011682018060405250810190620001fe9190620015b4565b6001600160a01b031614806200029a57506002546040805163d60ed26760e01b8152905133926001600160a01b03169163d60ed267916004808301926020929190829003018186803b1580156200025457600080fd5b505afa15801562000269573d6000803e3d6000fd5b505050506040513d601f19601f820116820180604052508101906200028f9190620015b4565b6001600160a01b0316145b60405180604001604052806002815260200161333360f01b81525090620002df5760405162461bcd60e51b8152600401620002d6919062001877565b60405180910390fd5b506003546001600160a01b031660005b84811015620005fd57816001600160a01b031663c3935ce28787848181106200032857634e487b7160e01b600052603260045260246000fd5b6200034092602060e09092020190810191506200158e565b868989868181106200036257634e487b7160e01b600052603260045260246000fd5b905060e00201602001358a8a878181106200038d57634e487b7160e01b600052603260045260246000fd5b905060e00201604001358b8b88818110620003b857634e487b7160e01b600052603260045260246000fd5b905060e00201606001356040518663ffffffff1660e01b8152600401620003e495949392919062001804565b600060405180830381600087803b158015620003ff57600080fd5b505af115801562000414573d6000803e3d6000fd5b505050508585828181106200043957634e487b7160e01b600052603260045260246000fd5b905060e0020160c0016020810190620004539190620016ea565b156200053257816001600160a01b0316635210bc1f8787848181106200048957634e487b7160e01b600052603260045260246000fd5b620004a192602060e09092020190810191506200158e565b86898986818110620004c357634e487b7160e01b600052603260045260246000fd5b905060e0020160a0016020810190620004dd9190620016ea565b6040518463ffffffff1660e01b8152600401620004fd93929190620017ac565b600060405180830381600087803b1580156200051857600080fd5b505af11580156200052d573d6000803e3d6000fd5b505050505b620005a18686838181106200055757634e487b7160e01b600052603260045260246000fd5b6200056f92602060e09092020190810191506200158e565b858888858181106200059157634e487b7160e01b600052603260045260246000fd5b905060e002016080013562000dc9565b620005e8868683818110620005c657634e487b7160e01b600052603260045260246000fd5b620005de92602060e09092020190810191506200158e565b8560045462000bd6565b80620005f4816200199d565b915050620002ef565b505050505050565b600254604051630847b4a360e01b8152829133916001600160a01b0390911690630847b4a3906200063b90859060040162001988565b60206040518083038186803b1580156200065457600080fd5b505afa15801562000669573d6000803e3d6000fd5b505050506040513d601f19601f820116820180604052508101906200068f9190620015b4565b6001600160a01b031614806200072b57506002546040805163d60ed26760e01b8152905133926001600160a01b03169163d60ed267916004808301926020929190829003018186803b158015620006e557600080fd5b505afa158015620006fa573d6000803e3d6000fd5b505050506040513d601f19601f82011682018060405250810190620007209190620015b4565b6001600160a01b0316145b60405180604001604052806002815260200161333360f01b81525090620007675760405162461bcd60e51b8152600401620002d6919062001877565b5060015460405163064db86560e01b81526000916001600160a01b03169063064db865906200079d908790879060040162001789565b60206040518083038186803b158015620007b657600080fd5b505afa158015620007cb573d6000803e3d6000fd5b505050506040513d601f19601f82011682018060405250810190620007f191906200170c565b90506200080081600162001424565b60015481516040516315410f5960e31b81526001600160a01b039092169163aa087ac891620008369188918891600401620017d9565b600060405180830381600087803b1580156200085157600080fd5b505af115801562000866573d6000803e3d6000fd5b50506040516001600160a01b03871692507f85dc710add8a0914461a7dc5a63f6fc529a7700f8c6089a3faf5e93256ccf12a9150600090a250505050565b620008ae62001454565b6000546001600160a01b03908116911614620008de5760405162461bcd60e51b8152600401620002d6906200194a565b600080546040516001600160a01b03909116907f8be0079c531659141344cd1fd0a4f28419497f9722a3daafe3b4186f6b6457e0908390a3600080546001600160a01b0319169055565b600254604051630847b4a360e01b8152829133916001600160a01b0390911690630847b4a3906200095e90859060040162001988565b60206040518083038186803b1580156200097757600080fd5b505afa1580156200098c573d6000803e3d6000fd5b505050506040513d601f19601f82011682018060405250810190620009b29190620015b4565b6001600160a01b0316148062000a4e57506002546040805163d60ed26760e01b8152905133926001600160a01b03169163d60ed267916004808301926020929190829003018186803b15801562000a0857600080fd5b505afa15801562000a1d573d6000803e3d6000fd5b505050506040513d601f19601f8201168201806040525081019062000a439190620015b4565b6001600160a01b0316145b60405180604001604052806002815260200161333360f01b8152509062000a8a5760405162461bcd60e51b8152600401620002d6919062001877565b5060015460405163064db86560e01b81526000916001600160a01b03169063064db8659062000ac0908790879060040162001789565b60206040518083038186803b15801562000ad957600080fd5b505afa15801562000aee573d6000803e3d6000fd5b505050506040513d601f19601f8201168201806040525081019062000b1491906200170c565b905062000b2381600062001424565b60015481516040516315410f5960e31b81526001600160a01b039092169163aa087ac89162000b599188918891600401620017d9565b600060405180830381600087803b15801562000b7457600080fd5b505af115801562000b89573d6000803e3d6000fd5b50506040516001600160a01b03871692507f838ecdc4709a31a26db48b0c853212cedde3f725f07030079d793fb0719647609150600090a250505050565b6000546001600160a01b031690565b6002546040805163d60ed26760e01b8152905133926001600160a01b03169163d60ed267916004808301926020929190829003018186803b15801562000c1b57600080fd5b505afa15801562000c30573d6000803e3d6000fd5b505050506040513d601f19601f8201168201806040525081019062000c569190620015b4565b6001600160a01b03161462000c7f5760405162461bcd60e51b8152600401620002d690620018cd565b60015460405163064db86560e01b81526000916001600160a01b03169063064db8659062000cb4908790879060040162001789565b60206040518083038186803b15801562000ccd57600080fd5b505afa15801562000ce2573d6000803e3d6000fd5b505050506040513d601f19601f8201168201806040525081019062000d0891906200170c565b905062000d16818362001458565b60015481516040516315410f5960e31b81526001600160a01b039092169163aa087ac89162000d4c9188918891600401620017d9565b600060405180830381600087803b15801562000d6757600080fd5b505af115801562000d7c573d6000803e3d6000fd5b50505050836001600160a01b03167f2694ccb0b585b6a54b8d8b4a47aa874b05c257b43d34e98aee50838be00d34058360405162000dbb91906200197f565b60405180910390a250505050565b600254604051630847b4a360e01b8152839133916001600160a01b0390911690630847b4a39062000dff90859060040162001988565b60206040518083038186803b15801562000e1857600080fd5b505afa15801562000e2d573d6000803e3d6000fd5b505050506040513d601f19601f8201168201806040525081019062000e539190620015b4565b6001600160a01b0316148062000eef57506002546040805163d60ed26760e01b8152905133926001600160a01b03169163d60ed267916004808301926020929190829003018186803b15801562000ea957600080fd5b505afa15801562000ebe573d6000803e3d6000fd5b505050506040513d601f19601f8201168201806040525081019062000ee49190620015b4565b6001600160a01b0316145b60405180604001604052806002815260200161333360f01b8152509062000f2b5760405162461bcd60e51b8152600401620002d6919062001877565b5060015460405163064db86560e01b81526000916001600160a01b03169063064db8659062000f61908890889060040162001789565b60206040518083038186803b15801562000f7a57600080fd5b505afa15801562000f8f573d6000803e3d6000fd5b505050506040513d601f19601f8201168201806040525081019062000fb591906200170c565b905062000fc38184620014ad565b60015481516040516315410f5960e31b81526001600160a01b039092169163aa087ac89162000ff99189918991600401620017d9565b600060405180830381600087803b1580156200101457600080fd5b505af115801562001029573d6000803e3d6000fd5b50505050846001600160a01b03167f2694ccb0b585b6a54b8d8b4a47aa874b05c257b43d34e98aee50838be00d3405846040516200106891906200197f565b60405180910390a25050505050565b6200108162001454565b6000546001600160a01b03908116911614620010b15760405162461bcd60e51b8152600401620002d6906200194a565b6001600160a01b038116620010da5760405162461bcd60e51b8152600401620002d69062001904565b600080546040516001600160a01b03808516939216917f8be0079c531659141344cd1fd0a4f28419497f9722a3daafe3b4186f6b6457e091a3600080546001600160a01b0319166001600160a01b0392909216919091179055565b6200113f62001454565b6000546001600160a01b039081169116146200116f5760405162461bcd60e51b8152600401620002d6906200194a565b60005b818110156200141f577f1c1768aab1796270c7034dc781c2951065e6afb7a946269746521002443b8ea4604051620011aa9062001507565b604051809103906000f080158015620011c7573d6000803e3d6000fd5b506002546001600160a01b0316858585818110620011f557634e487b7160e01b600052603260045260246000fd5b905060e002016020016000600681106200121f57634e487b7160e01b600052603260045260246000fd5b60200201358686868181106200124557634e487b7160e01b600052603260045260246000fd5b905060e002016020016001600681106200126f57634e487b7160e01b600052603260045260246000fd5b60200201358787878181106200129557634e487b7160e01b600052603260045260246000fd5b905060e00201602001600260068110620012bf57634e487b7160e01b600052603260045260246000fd5b6020020135888888818110620012e557634e487b7160e01b600052603260045260246000fd5b905060e002016020016003600681106200130f57634e487b7160e01b600052603260045260246000fd5b60200201358989898181106200133557634e487b7160e01b600052603260045260246000fd5b905060e002016020016004600681106200135f57634e487b7160e01b600052603260045260246000fd5b60200201358a8a8a8181106200138557634e487b7160e01b600052603260045260246000fd5b905060e00201602001600560068110620013af57634e487b7160e01b600052603260045260246000fd5b6020020135604051620013c29062001515565b620013d497969594939291906200183c565b604051809103906000f080158015620013f1573d6000803e3d6000fd5b50604051620014029291906200176f565b60405180910390a18062001416816200199d565b91505062001172565b505050565b6039816200143457600062001437565b60015b8351670200000000000000191660ff9190911690911b1790915250565b3390565b604080518082019091526002815261373160f01b6020820152612710821115620014975760405162461bcd60e51b8152600401620002d6919062001877565b50815161ffff60501b191660509190911b179052565b604080518082019091526002815261373160f01b6020820152612710821115620014ec5760405162461bcd60e51b8152600401620002d6919062001877565b50815169ffff0000000000000000191660409190911b179052565b61308380620019df83390190565b6110a88062004a6283390190565b60008083601f84011262001535578182fd5b50813567ffffffffffffffff8111156200154d578182fd5b60208301915083602060e0830285010111156200156957600080fd5b9250929050565b803567ffffffffffffffff811681146200158957600080fd5b919050565b600060208284031215620015a0578081fd5b8135620015ad81620019c5565b9392505050565b600060208284031215620015c6578081fd5b8151620015ad81620019c5565b60008060408385031215620015e6578081fd5b8235620015f381620019c5565b9150620016036020840162001570565b90509250929050565b60008060006060848603121562001621578081fd5b83356200162e81620019c5565b92506200163e6020850162001570565b9150604084013590509250925092565b60008060006040848603121562001663578283fd5b833567ffffffffffffffff8111156200167a578384fd5b620016888682870162001523565b90945092506200169d90506020850162001570565b90509250925092565b60008060208385031215620016b9578182fd5b823567ffffffffffffffff811115620016d0578283fd5b620016de8582860162001523565b90969095509350505050565b600060208284031215620016fc578081fd5b81358015158114620015ad578182fd5b6000602082840312156200171e578081fd5b6040516020810181811067ffffffffffffffff821117156200174e57634e487b7160e01b83526041600452602483fd5b6040529151825250919050565b6001600160a01b0391909116815260200190565b6001600160a01b0392831681529116602082015260400190565b6001600160a01b0392909216825267ffffffffffffffff16602082015260400190565b6001600160a01b0393909316835267ffffffffffffffff9190911660208301521515604082015260600190565b6001600160a01b0393909316835267ffffffffffffffff919091166020830152604082015260600190565b6001600160a01b0395909516855267ffffffffffffffff93909316602085015260408401919091526060830152608082015260a00190565b6001600160a01b03979097168752602087019590955260408601939093526060850191909152608084015260a083015260c082015260e00190565b6000602080835283518082850152825b81811015620018a55785810183015185820160400152820162001887565b81811115620018b75783604083870101525b50601f01601f1916929092016040019392505050565b6020808252601c908201527f43616c6c6572206e6f7420676c6f62616c20564d45582061646d696e00000000604082015260600190565b60208082526026908201527f4f776e61626c653a206e6577206f776e657220697320746865207a65726f206160408201526564647265737360d01b606082015260800190565b6020808252818101527f4f776e61626c653a2063616c6c6572206973206e6f7420746865206f776e6572604082015260600190565b90815260200190565b67ffffffffffffffff91909116815260200190565b6000600019821415620019be57634e487b7160e01b81526011600452602481fd5b5060010190565b6001600160a01b0381168114620019db57600080fd5b5056fe6080604052600080553480156200001557600080fd5b50604080518082018252600b8082526a105513d2d15397d253541360aa1b60208084018281528551808701909652928552840152815191929160009162000060916037919062000094565b5081516200007690603890602085019062000094565b506039805460ff191660ff9290921691909117905550620001779050565b828054620000a2906200013a565b90600052602060002090601f016020900481019282620000c6576000855562000111565b82601f10620000e157805160ff191683800117855562000111565b8280016001018555821562000111579182015b8281111562000111578251825591602001919060010190620000f4565b506200011f92915062000123565b5090565b5b808211156200011f576000815560010162000124565b6002810460018216806200014f57607f821691505b602082108114156200017157634e487b7160e01b600052602260045260246000fd5b50919050565b612efc80620001876000396000f3fe608060405234801561001057600080fd5b506004361061023d5760003560e01c80637535d2461161013b578063ae167335116100b8578063d7020d0a1161007c578063d7020d0a14610472578063dd62ed3e14610485578063e2f024aa14610498578063f0f44260146104ab578063f866c319146104be5761023d565b8063ae16733514610434578063b16a19de1461043c578063b1bf962d14610444578063b9844d8d1461044c578063d505accf1461045f5761023d565b806395d89b41116100ff57806395d89b41146103e05780639be2a50c146103e8578063a457c2d7146103fb578063a9059cbb1461040e578063ad79802a146104215761023d565b80637535d246146103a257806375d26413146103aa57806378160376146103b25780637df5bd3b146103ba57806388dd91a1146103cd5761023d565b806323b872dd116101c9578063395093511161018d578063395093511461034e57806348b193351461036157806349ad75b5146103745780634efecaa51461037c57806370a082311461038f5761023d565b806323b872dd1461030e5780632f3e94ff1461032157806330adf81f14610329578063313ce567146103315780633644e515146103465761023d565b80630bd7ad3b116102105780630bd7ad3b146102b6578063156e29f6146102cb57806316942285146102de57806318160ddd146102f35780631da24f3e146102fb5761023d565b806306fdde031461024257806307da060314610260578063095ea7b3146102755780630afbcdc914610295575b600080fd5b61024a6104d1565b6040516102579190612987565b60405180910390f35b610268610564565b60405161025791906127ae565b6102886102833660046124d1565b610573565b60405161025791906128f5565b6102a86102a336600461238b565b610591565b604051610257929190612cf8565b6102be6105ae565b6040516102579190612900565b6102886102d93660046124fc565b6105b3565b6102f16102ec366004612550565b6106fc565b005b6102be610a2e565b6102be61030936600461238b565b610af1565b61028861031c3660046123df565b610b04565b6102be610bc4565b6102be610bc9565b610339610bed565b6040516102579190612d06565b6102be610bf6565b61028861035c3660046124d1565b610bfc565b6102f161036f3660046126c0565b610c4a565b6102be610d07565b6102be61038a3660046124d1565b610d0c565b6102be61039d36600461238b565b610d84565b610268610e32565b610268610e41565b61024a610e50565b6102f16103c83660046126f0565b610e6d565b6102f16103db3660046124d1565b610f71565b61024a610fcd565b6102f16103f636600461238b565b610fdc565b6102886104093660046124d1565b6110ee565b61028861041c3660046124d1565b611156565b6102f161042f36600461238b565b6111b3565b610268611255565b610268611264565b6102be611273565b6102be61045a36600461238b565b61127d565b6102f161046d366004612464565b61128f565b6102f161048036600461241f565b611427565b6102be6104933660046123a7565b6115e9565b6102f16104a63660046126f0565b611614565b6102f16104b936600461238b565b6116b5565b6102f16104cc3660046123df565b611757565b6060603780546104e090612dae565b80601f016020809104026020016040519081016040528092919081815260200182805461050c90612dae565b80156105595780601f1061052e57610100808354040283529160200191610559565b820191906000526020600020905b81548152906001019060200180831161053c57829003601f168201915b505050505090505b90565b6041546001600160a01b031690565b60006105876105806117fa565b84846117fe565b5060015b92915050565b60008061059d836118a5565b6105a56118c0565b91509150915091565b600181565b603c546000906001600160a01b03166105ca6117fa565b6001600160a01b03161460405180604001604052806002815260200161323960f01b815250906106165760405162461bcd60e51b815260040161060d9190612987565b60405180910390fd5b506000610622856118a5565b9050600061063085856118c6565b6040805180820190915260028152611a9b60f11b60208201529091508161066a5760405162461bcd60e51b815260040161060d9190612987565b5061067586826119a4565b856001600160a01b031660006001600160a01b0316600080516020612e82833981519152876040516106a79190612900565b60405180910390a3856001600160a01b03167f4c209b5fc8ad50758f13e2e1088ba56a560dff690a1c6fef26394f4c03821c4f86866040516106ea929190612cf8565b60405180910390a25015949350505050565b6000610706611aab565b60015490915060ff168061071d575061071d611ab0565b80610729575060005481115b6107455760405162461bcd60e51b815260040161060d90612a7f565b60015460ff16158015610764576001805460ff19168117905560008290555b60405146907f8b73c3c69bb8fe3d512ecc4cf759cc79239f7b179b0ffacaa9a75d522b39400f90610798908b908b90612767565b60408051918290038220828201825260018352603160f81b60209384015290516107e993927fc89efdaa54c0f20c7adf612882df0950f5a951637e0307cdcb4c672f298b8bc691869130910161293d565b60408051601f198184030181528282528051602091820120603b55601f8b0181900481028301810190915289825261083c91908b908b9081908401838280828437600092019190915250611ab692505050565b61087b87878080601f016020809104026020016040519081016040528093929190818152602001838380828437600092019190915250611ac992505050565b6108848a611adc565b8c603c60006101000a8154816001600160a01b0302191690836001600160a01b031602179055508b60000151603d60006101000a8154816001600160a01b0302191690836001600160a01b031602179055508b60200151603e60006101000a8154816001600160a01b0302191690836001600160a01b031602179055508b60400151603f60006101000a8154816001600160a01b0302191690836001600160a01b031602179055508b60600151604060006101000a8154816001600160a01b0302191690836001600160a01b031602179055508a604260006101000a8154816001600160a01b0302191690836001600160a01b031602179055508b60800151604060146101000a81548167ffffffffffffffff021916908367ffffffffffffffff1602179055508c6001600160a01b03168c606001516001600160a01b03167fb19e051f8af41150ccccb3fc2c2d8d15f4a4cf434f32a559ba75fe73d6eea20b8e602001518e8e8e8e8e8e8e8e604051610a06999897969594939291906127dc565b60405180910390a3508015610a20576001805460ff191690555b505050505050505050505050565b600080610a396118c0565b905080610a4a576000915050610561565b603c54604080549051632bc9433f60e21b8152610aeb926001600160a01b039081169263af250cfc92610a9492821691600160a01b900467ffffffffffffffff1690600401612884565b60206040518083038186803b158015610aac57600080fd5b505afa158015610ac0573d6000803e3d6000fd5b505050506040513d601f19601f82011682018060405250810190610ae491906126d8565b8290611af2565b91505090565b6000610afc826118a5565b90505b919050565b6000610b11848484611bb4565b610b8184610b1d6117fa565b610b7c85604051806060016040528060288152602001612e5a602891396001600160a01b038a16600090815260356020526040812090610b5b6117fa565b6001600160a01b031681526020810191909152604001600020549190611bc1565b6117fe565b826001600160a01b0316846001600160a01b0316600080516020612e8283398151915284604051610bb29190612900565b60405180910390a35060019392505050565b600a81565b7f6e71edae12b1b97f4d1f60370fef10105fa2faae0126114a169c64845d6126c981565b60395460ff1690565b603b5481565b6000610587610c096117fa565b84610b7c8560356000610c1a6117fa565b6001600160a01b03908116825260208083019390935260409182016000908120918c168152925290205490611bed565b603c546001600160a01b0316610c5e6117fa565b6001600160a01b03161460405180604001604052806002815260200161323960f01b81525090610ca15760405162461bcd60e51b815260040161060d9190612987565b50604154604051632e1a7d4d60e01b81526001600160a01b0390911690632e1a7d4d90610cd2908490600401612900565b600060405180830381600087803b158015610cec57600080fd5b505af1158015610d00573d6000803e3d6000fd5b5050505050565b601481565b603c546000906001600160a01b0316610d236117fa565b6001600160a01b03161460405180604001604052806002815260200161323960f01b81525090610d665760405162461bcd60e51b815260040161060d9190612987565b50604054610d7e906001600160a01b03168484611bf9565b50919050565b603c54604080549051632bc9433f60e21b8152600092610afc926001600160a01b039182169263af250cfc92610dd39290811691600160a01b90910467ffffffffffffffff1690600401612884565b60206040518083038186803b158015610deb57600080fd5b505afa158015610dff573d6000803e3d6000fd5b505050506040513d601f19601f82011682018060405250810190610e2391906126d8565b610e2c846118a5565b90611af2565b603c546001600160a01b031690565b6000610e4b611c4f565b905090565b604051806040016040528060018152602001603160f81b81525081565b603c546001600160a01b0316610e816117fa565b6001600160a01b03161460405180604001604052806002815260200161323960f01b81525090610ec45760405162461bcd60e51b815260040161060d9190612987565b5081610ecf57610f6d565b603e546001600160a01b0316610eee81610ee985856118c6565b6119a4565b806001600160a01b031660006001600160a01b0316600080516020612e8283398151915285604051610f209190612900565b60405180910390a3806001600160a01b03167f4c209b5fc8ad50758f13e2e1088ba56a560dff690a1c6fef26394f4c03821c4f8484604051610f63929190612cf8565b60405180910390a2505b5050565b603c546001600160a01b0316610f856117fa565b6001600160a01b03161460405180604001604052806002815260200161323960f01b81525090610fc85760405162461bcd60e51b815260040161060d9190612987565b505050565b6060603880546104e090612dae565b603c546001600160a01b0316610ff06117fa565b6001600160a01b03161460405180604001604052806002815260200161323960f01b815250906110335760405162461bcd60e51b815260040161060d9190612987565b50604180546001600160a01b0319166001600160a01b0383811691909117909155604080549051636eb1769f60e11b815291169060001990829063dd62ed3e9061108390309087906004016127c2565b60206040518083038186803b15801561109b57600080fd5b505afa1580156110af573d6000803e3d6000fd5b505050506040513d601f19601f820116820180604052508101906110d391906126d8565b14610f6d57610f6d6001600160a01b03821683600019611c5e565b60006105876110fb6117fa565b84610b7c85604051806060016040528060258152602001612ea260259139603560006111256117fa565b6001600160a01b03908116825260208083019390935260409182016000908120918d16815292529020549190611bc1565b600061116a6111636117fa565b8484611bb4565b826001600160a01b031661117c6117fa565b6001600160a01b0316600080516020612e82833981519152846040516111a29190612900565b60405180910390a350600192915050565b603d546001600160a01b03166111c76117fa565b6001600160a01b03161460405180604001604052806002815260200161323760f01b8152509061120a5760405162461bcd60e51b815260040161060d9190612987565b50603f80546001600160a01b0319166001600160a01b0383169081179091556040517f718196ac79d4f9d19ba78508c2beed39ab2aac0ae1cdb86a67d627983082d82590600090a250565b603e546001600160a01b031690565b6040546001600160a01b031690565b6000610e4b6118c0565b603a6020526000908152604090205481565b6001600160a01b0387166112b55760405162461bcd60e51b815260040161060d90612af9565b834211156112d55760405162461bcd60e51b815260040161060d90612acd565b6001600160a01b0387166000908152603a6020908152604080832054603b54915190939261132f917f6e71edae12b1b97f4d1f60370fef10105fa2faae0126114a169c64845d6126c9918d918d918d9189918e9101612909565b60405160208183030381529060405280519060200120604051602001611356929190612793565b604051602081830303815290604052805190602001209050600181868686604051600081526020016040526040516113919493929190612969565b6020604051602081039080840390855afa1580156113b3573d6000803e3d6000fd5b505050602060405103516001600160a01b0316896001600160a01b0316146113ed5760405162461bcd60e51b815260040161060d90612a54565b6113f8826001611bed565b6001600160a01b038a166000908152603a602052604090205561141c8989896117fe565b505050505050505050565b603c546001600160a01b031661143b6117fa565b6001600160a01b03161460405180604001604052806002815260200161323960f01b8152509061147e5760405162461bcd60e51b815260040161060d9190612987565b50600061148b83836118c6565b60408051808201909152600281526106a760f31b6020820152909150816114c55760405162461bcd60e51b815260040161060d9190612987565b506114d08582611d21565b6041546001600160a01b03161561154457604154604051632e1a7d4d60e01b81526001600160a01b0390911690632e1a7d4d90611511908690600401612900565b600060405180830381600087803b15801561152b57600080fd5b505af115801561153f573d6000803e3d6000fd5b505050505b60405461155b906001600160a01b03168585611bf9565b60006001600160a01b0316856001600160a01b0316600080516020612e828339815191528560405161158d9190612900565b60405180910390a3836001600160a01b0316856001600160a01b03167f5d624aa9c148153ab3446c1b154f660ee7701e549fe9b62dab7171b1c80e6fa285856040516115da929190612cf8565b60405180910390a35050505050565b6001600160a01b03918216600090815260356020908152604080832093909416825291909152205490565b603c546001600160a01b03166116286117fa565b6001600160a01b0316148061165757506041546001600160a01b031661164c6117fa565b6001600160a01b0316145b60405180604001604052806002815260200161323960f01b815250906116905760405162461bcd60e51b815260040161060d9190612987565b508161169b57610f6d565b603f546001600160a01b0316610eee81610ee985856118c6565b603d546001600160a01b03166116c96117fa565b6001600160a01b03161460405180604001604052806002815260200161323760f01b8152509061170c5760405162461bcd60e51b815260040161060d9190612987565b50603e80546001600160a01b0319166001600160a01b0383169081179091556040517fc714d22a2f08b695f81e7c707058db484aa5b4d6b4c9fd64beb10fe85832f60890600090a250565b603c546001600160a01b031661176b6117fa565b6001600160a01b03161460405180604001604052806002815260200161323960f01b815250906117ae5760405162461bcd60e51b815260040161060d9190612987565b506117bc8383836000611da6565b816001600160a01b0316836001600160a01b0316600080516020612e82833981519152836040516117ed9190612900565b60405180910390a3505050565b3390565b6001600160a01b0383166118245760405162461bcd60e51b815260040161060d90612ba6565b6001600160a01b03821661184a5760405162461bcd60e51b815260040161060d906129dd565b6001600160a01b0380841660008181526035602090815260408083209487168084529490915290819020849055517f8c5be1e5ebec7d5bd14f71427d1e84f3dd0314c0f7b2291e5b200ac8c7c3b925906117ed908590612900565b6001600160a01b031660009081526034602052604090205490565b60365490565b604080518082019091526002815261035360f41b6020820152600090826119005760405162461bcd60e51b815260040161060d9190612987565b50600061190e600284612d2c565b90506b033b2e3c9fd0803ce800000061192982600019612d6b565b6119339190612d2c565b84111560405180604001604052806002815260200161068760f31b8152509061196f5760405162461bcd60e51b815260040161060d9190612987565b5082816119886b033b2e3c9fd0803ce800000087612d4c565b6119929190612d14565b61199c9190612d2c565b949350505050565b6001600160a01b0382166119ca5760405162461bcd60e51b815260040161060d90612cc1565b6119d660008383610fc8565b6036546119e38183611bed565b6036556001600160a01b038316600090815260346020526040902054611a098184611bed565b6001600160a01b038516600090815260346020526040812091909155611a2d611c4f565b6001600160a01b031614611aa557611a43611c4f565b6001600160a01b03166331873e2e8584846040518463ffffffff1660e01b8152600401611a7293929190612863565b600060405180830381600087803b158015611a8c57600080fd5b505af1158015611aa0573d6000803e3d6000fd5b505050505b50505050565b600190565b303b1590565b8051610f6d906037906020840190612277565b8051610f6d906038906020840190612277565b6039805460ff191660ff92909216919091179055565b6000821580611aff575081155b15611b0c5750600061058b565b81611b2460026b033b2e3c9fd0803ce8000000612d2c565b611b3090600019612d6b565b611b3a9190612d2c565b83111560405180604001604052806002815260200161068760f31b81525090611b765760405162461bcd60e51b815260040161060d9190612987565b506b033b2e3c9fd0803ce8000000611b8f600282612d2c565b611b998486612d4c565b611ba39190612d14565b611bad9190612d2c565b9392505050565b610fc88383836001611da6565b60008184841115611be55760405162461bcd60e51b815260040161060d9190612987565b505050900390565b6000611bad8284612d14565b610fc88363a9059cbb60e01b8484604051602401611c1892919061284a565b60408051601f198184030181529190526020810180516001600160e01b03166001600160e01b031990931692909217909152611f58565b6042546001600160a01b031690565b801580611ce65750604051636eb1769f60e11b81526001600160a01b0384169063dd62ed3e90611c9490309086906004016127c2565b60206040518083038186803b158015611cac57600080fd5b505afa158015611cc0573d6000803e3d6000fd5b505050506040513d601f19601f82011682018060405250810190611ce491906126d8565b155b611d025760405162461bcd60e51b815260040161060d90612c34565b610fc88363095ea7b360e01b8484604051602401611c1892919061284a565b6001600160a01b038216611d475760405162461bcd60e51b815260040161060d90612b20565b611d5382600083610fc8565b603654611d60818361203c565b6036556001600160a01b0383166000908152603460209081526040918290205482516060810190935260228084529092611a0992869290612e1290830139839190611bc1565b60408054603c549151632bc9433f60e21b81526001600160a01b03808316931691600091839163af250cfc91611df3918791600160a01b90910467ffffffffffffffff1690600401612884565b60206040518083038186803b158015611e0b57600080fd5b505afa158015611e1f573d6000803e3d6000fd5b505050506040513d601f19601f82011682018060405250810190611e4391906126d8565b90506000611e5482610e2c8a6118a5565b90506000611e6583610e2c8a6118a5565b9050611e7b8989611e768a876118c6565b612048565b8515611f005760408054905163560e7e6360e01b81526001600160a01b0386169163560e7e6391611ecd918991600160a01b90910467ffffffffffffffff16908e908e908e908a908a906004016128a7565b600060405180830381600087803b158015611ee757600080fd5b505af1158015611efb573d6000803e3d6000fd5b505050505b876001600160a01b0316896001600160a01b03167f4beccb90f994c31aced7a23b5611020728a23d8ec5cddd1a3e9d97b96fda86668986604051611f45929190612cf8565b60405180910390a3505050505050505050565b611f6a826001600160a01b0316612246565b611f865760405162461bcd60e51b815260040161060d90612c8a565b600080836001600160a01b031683604051611fa19190612777565b6000604051808303816000865af19150503d8060008114611fde576040519150601f19603f3d011682016040523d82523d6000602084013e611fe3565b606091505b5091509150816120055760405162461bcd60e51b815260040161060d90612a1f565b805115611aa557808060200190518101906120209190612530565b611aa55760405162461bcd60e51b815260040161060d90612bea565b6000611bad8284612d6b565b6001600160a01b03831661206e5760405162461bcd60e51b815260040161060d90612b61565b6001600160a01b0382166120945760405162461bcd60e51b815260040161060d9061299a565b61209f838383610fc8565b600060346000856001600160a01b03166001600160a01b031681526020019081526020016000205490506120ee82604051806060016040528060268152602001612e3460269139839190611bc1565b6001600160a01b03808616600090815260346020526040808220939093559085168152205461211d8184611bed565b6001600160a01b038516600090815260346020526040812091909155612141611c4f565b6001600160a01b031614610d005760365461215a611c4f565b6001600160a01b03166331873e2e8783866040518463ffffffff1660e01b815260040161218993929190612863565b600060405180830381600087803b1580156121a357600080fd5b505af11580156121b7573d6000803e3d6000fd5b50505050846001600160a01b0316866001600160a01b03161461223e576121dc611c4f565b6001600160a01b03166331873e2e8683856040518463ffffffff1660e01b815260040161220b93929190612863565b600060405180830381600087803b15801561222557600080fd5b505af1158015612239573d6000803e3d6000fd5b505050505b505050505050565b600080826001600160a01b0316803b806020016040519081016040528181526000908060200190933c511192915050565b82805461228390612dae565b90600052602060002090601f0160209004810192826122a557600085556122eb565b82601f106122be57805160ff19168380011785556122eb565b828001600101855582156122eb579182015b828111156122eb5782518255916020019190600101906122d0565b506122f79291506122fb565b5090565b5b808211156122f757600081556001016122fc565b8035610aff81612df9565b60008083601f84011261232c578182fd5b50813567ffffffffffffffff811115612343578182fd5b60208301915083602082850101111561235b57600080fd5b9250929050565b803567ffffffffffffffff81168114610aff57600080fd5b803560ff81168114610aff57600080fd5b60006020828403121561239c578081fd5b8135611bad81612df9565b600080604083850312156123b9578081fd5b82356123c481612df9565b915060208301356123d481612df9565b809150509250929050565b6000806000606084860312156123f3578081fd5b83356123fe81612df9565b9250602084013561240e81612df9565b929592945050506040919091013590565b60008060008060808587031215612434578081fd5b843561243f81612df9565b9350602085013561244f81612df9565b93969395505050506040820135916060013590565b600080600080600080600060e0888a03121561247e578283fd5b873561248981612df9565b9650602088013561249981612df9565b955060408801359450606088013593506124b56080890161237a565b925060a0880135915060c0880135905092959891949750929550565b600080604083850312156124e3578182fd5b82356124ee81612df9565b946020939093013593505050565b600080600060608486031215612510578283fd5b833561251b81612df9565b95602085013595506040909401359392505050565b600060208284031215612541578081fd5b81518015158114611bad578182fd5b6000806000806000806000806000806101608b8d03121561256f578384fd5b6125798b35612df9565b8a35995060a08b8d03601f19011215612590578384fd5b60405167ffffffffffffffff8160a08301108160a084011117156125c257634e487b7160e01b86526041600452602486fd5b60a0820160405260208d01356125d781612df9565b82526125e560408e01612310565b60208301526125f660608e01612310565b604083015261260760808e01612310565b606083015261261860a08e01612362565b6080830152819a5061262c60c08e01612310565b995061263a60e08e0161237a565b98506101008d0135915080821115612650578586fd5b61265c8e838f0161231b565b90985096506101208d0135915080821115612675578586fd5b6126818e838f0161231b565b90965094506101408d013591508082111561269a578384fd5b506126a78d828e0161231b565b915080935050809150509295989b9194979a5092959850565b6000602082840312156126d1578081fd5b5035919050565b6000602082840312156126e9578081fd5b5051919050565b60008060408385031215612702578182fd5b50508035926020909101359150565b60008284528282602086013780602084860101526020601f19601f85011685010190509392505050565b60008151808452612753816020860160208601612d82565b601f01601f19169290920160200192915050565b6000828483379101908152919050565b60008251612789818460208701612d82565b9190910192915050565b61190160f01b81526002810192909252602282015260420190565b6001600160a01b0391909116815260200190565b6001600160a01b0392831681529116602082015260400190565b6001600160a01b038a811682528916602082015260ff8816604082015260c060608201819052600090612812908301888a612711565b8281036080840152612825818789612711565b905082810360a084015261283a818587612711565b9c9b505050505050505050505050565b6001600160a01b03929092168252602082015260400190565b6001600160a01b039390931683526020830191909152604082015260600190565b6001600160a01b0392909216825267ffffffffffffffff16602082015260400190565b6001600160a01b03978816815267ffffffffffffffff9690961660208701529386166040860152919094166060840152608083019390935260a082019290925260c081019190915260e00190565b901515815260200190565b90815260200190565b9586526001600160a01b0394851660208701529290931660408501526060840152608083019190915260a082015260c00190565b9485526020850193909352604084019190915260608301526001600160a01b0316608082015260a00190565b93845260ff9290921660208401526040830152606082015260800190565b600060208252611bad602083018461273b565b60208082526023908201527f45524332303a207472616e7366657220746f20746865207a65726f206164647260408201526265737360e81b606082015260800190565b60208082526022908201527f45524332303a20617070726f766520746f20746865207a65726f206164647265604082015261737360f01b606082015260800190565b6020808252818101527f5361666545524332303a206c6f772d6c6576656c2063616c6c206661696c6564604082015260600190565b602080825260119082015270494e56414c49445f5349474e415455524560781b604082015260600190565b6020808252602e908201527f436f6e747261637420696e7374616e63652068617320616c726561647920626560408201526d195b881a5b9a5d1a585b1a5e995960921b606082015260800190565b60208082526012908201527124a72b20a624a22fa2ac2824a920aa24a7a760711b604082015260600190565b6020808252600d908201526c24a72b20a624a22fa7aba722a960991b604082015260600190565b60208082526021908201527f45524332303a206275726e2066726f6d20746865207a65726f206164647265736040820152607360f81b606082015260800190565b60208082526025908201527f45524332303a207472616e736665722066726f6d20746865207a65726f206164604082015264647265737360d81b606082015260800190565b60208082526024908201527f45524332303a20617070726f76652066726f6d20746865207a65726f206164646040820152637265737360e01b606082015260800190565b6020808252602a908201527f5361666545524332303a204552433230206f7065726174696f6e20646964206e6040820152691bdd081cdd58d8d9595960b21b606082015260800190565b60208082526036908201527f5361666545524332303a20617070726f76652066726f6d206e6f6e2d7a65726f60408201527520746f206e6f6e2d7a65726f20616c6c6f77616e636560501b606082015260800190565b6020808252601f908201527f5361666545524332303a2063616c6c20746f206e6f6e2d636f6e747261637400604082015260600190565b6020808252601f908201527f45524332303a206d696e7420746f20746865207a65726f206164647265737300604082015260600190565b918252602082015260400190565b60ff91909116815260200190565b60008219821115612d2757612d27612de3565b500190565b600082612d4757634e487b7160e01b81526012600452602481fd5b500490565b6000816000190483118215151615612d6657612d66612de3565b500290565b600082821015612d7d57612d7d612de3565b500390565b60005b83811015612d9d578181015183820152602001612d85565b83811115611aa55750506000910152565b600281046001821680612dc257607f821691505b60208210811415610d7e57634e487b7160e01b600052602260045260246000fd5b634e487b7160e01b600052601160045260246000fd5b6001600160a01b0381168114612e0e57600080fd5b5056fe45524332303a206275726e20616d6f756e7420657863656564732062616c616e636545524332303a207472616e7366657220616d6f756e7420657863656564732062616c616e636545524332303a207472616e7366657220616d6f756e74206578636565647320616c6c6f77616e6365ddf252ad1be2c89b69c2b068fc378daa952ba7f163c4a11628f55a4df523b3ef45524332303a2064656372656173656420616c6c6f77616e63652062656c6f77207a65726fa26469706673582212204be0fc8d414bb0fb721535f633c4db8ad501368d55ee09b4375d87aed8d324ff64736f6c6343000800003361018060405234801561001157600080fd5b506040516110a83803806110a8833981016040819052610030916100b8565b85608081815250506100608661004e61009560201b6108de1760201c565b6100a560201b6108ee1790919060201c565b60a05260609690961b6001600160601b03191660c05260e0939093526101009190915261012052610140525061016052610142565b6b033b2e3c9fd0803ce800000090565b60006100b1828461011f565b9392505050565b600080600080600080600060e0888a0312156100d2578283fd5b87516001600160a01b03811681146100e8578384fd5b602089015160408a015160608b015160808c015160a08d015160c0909d0151949e939d50919b909a50909850965090945092505050565b60008282101561013d57634e487b7160e01b81526011600452602481fd5b500390565b60805160a05160c05160601c60e05161010051610120516101405161016051610e876102216000396000818161053801526108bc01526000818161013201528181610568015261065801526000818161059f0152818161079301526107e00152600081816105ea015281816106c2015281816107b701526108250152600081816105c9015281816106e801528181610804015261087401526000818161038d015261089801526000818161015601526104d20152600081816104a6015281816104f6015281816106240152818161069c01526108500152610e876000f3fe608060405234801561001057600080fd5b506004361061009e5760003560e01c806380031e371161006657806380031e37146100fb578063a15f30ac14610103578063b25895441461010b578063c72c4d1014610113578063ccab01a3146101285761009e565b80630bdf953f146100a357806317319873146100c157806345405848146100c957806365614f81146100eb5780637b832f58146100f3575b600080fd5b6100ab610130565b6040516100b89190610d96565b60405180910390f35b6100ab610154565b6100dc6100d7366004610c61565b610178565b6040516100b893929190610d9f565b6100ab610791565b6100ab6107b5565b6100ab6107d9565b6100ab61084e565b6100ab610872565b61011b610896565b6040516100b89190610d2f565b6100ab6108ba565b7f000000000000000000000000000000000000000000000000000000000000000090565b7f000000000000000000000000000000000000000000000000000000000000000081565b60008060008087600001516001600160a01b03166370a0823189602001516040518263ffffffff1660e01b81526004016101b29190610d2f565b60206040518083038186803b1580156101ca57600080fd5b505afa1580156101de573d6000803e3d6000fd5b505050506040513d601f19601f820116820180604052508101906102029190610d17565b9050600088602001516001600160a01b03166307da06036040518163ffffffff1660e01b815260040160206040518083038186803b15801561024357600080fd5b505afa158015610257573d6000803e3d6000fd5b505050506040513d601f19601f8201168201806040525081019061027b9190610c3e565b90506001600160a01b0381161561030a57610307816001600160a01b031663722713f76040518163ffffffff1660e01b815260040160206040518083038186803b1580156102c857600080fd5b505afa1580156102dc573d6000803e3d6000fd5b505050506040513d601f19601f820116820180604052508101906103009190610d17565b8390610903565b91505b61032f89606001516103298b604001518561090390919063ffffffff16565b906108ee565b91505061033a610c04565b6103448888610903565b8082526000602083018190526040830181905260608301521561037f57805161037a90610372908490610903565b82519061090f565b610382565b60005b8160800181815250507f00000000000000000000000000000000000000000000000000000000000000006001600160a01b0316633618abba6040518163ffffffff1660e01b815260040160206040518083038186803b1580156103e457600080fd5b505afa1580156103f8573d6000803e3d6000fd5b505050506040513d601f19601f8201168201806040525081019061041c9190610c3e565b895160405163bb85c0bb60e01b81526001600160a01b03929092169163bb85c0bb9161044a91600401610d2f565b60206040518083038186803b15801561046257600080fd5b505afa158015610476573d6000803e3d6000fd5b505050506040513d601f19601f8201168201806040525081019061049a9190610d17565b604082015260808101517f0000000000000000000000000000000000000000000000000000000000000000101561061957600061052e7f00000000000000000000000000000000000000000000000000000000000000006105287f000000000000000000000000000000000000000000000000000000000000000085608001516108ee90919063ffffffff16565b9061090f565b905061059261055d7f0000000000000000000000000000000000000000000000000000000000000000836109f6565b604084015161058c907f0000000000000000000000000000000000000000000000000000000000000000610903565b90610903565b604083015261060e6105c47f0000000000000000000000000000000000000000000000000000000000000000836109f6565b61058c7f00000000000000000000000000000000000000000000000000000000000000007f0000000000000000000000000000000000000000000000000000000000000000610903565b602083015250610713565b61068861067d6106567f0000000000000000000000000000000000000000000000000000000000000000846080015161090f90919063ffffffff16565b7f0000000000000000000000000000000000000000000000000000000000000000906109f6565b604083015190610903565b6040820152608081015161070d906106e6907f000000000000000000000000000000000000000000000000000000000000000090610528907f00000000000000000000000000000000000000000000000000000000000000006109f6565b7f000000000000000000000000000000000000000000000000000000000000000090610903565b60208201525b61076f61072f8a60a001516127106108ee90919063ffffffff16565b61076961074b8c608001516127106108ee90919063ffffffff16565b61076985608001516107638e8e89602001518f610ab1565b906109f6565b90610b16565b606082018190526040820151602090920151909a919950975095505050505050565b7f000000000000000000000000000000000000000000000000000000000000000090565b7f000000000000000000000000000000000000000000000000000000000000000090565b60006108497f000000000000000000000000000000000000000000000000000000000000000061058c7f00000000000000000000000000000000000000000000000000000000000000007f0000000000000000000000000000000000000000000000000000000000000000610903565b905090565b7f000000000000000000000000000000000000000000000000000000000000000081565b7f000000000000000000000000000000000000000000000000000000000000000090565b7f000000000000000000000000000000000000000000000000000000000000000081565b7f000000000000000000000000000000000000000000000000000000000000000090565b6b033b2e3c9fd0803ce800000090565b60006108fa8284610e0c565b90505b92915050565b60006108fa8284610db5565b604080518082019091526002815261035360f41b6020820152600090826109525760405162461bcd60e51b81526004016109499190610d43565b60405180910390fd5b506000610960600284610dcd565b90506b033b2e3c9fd0803ce800000061097b82600019610e0c565b6109859190610dcd565b84111560405180604001604052806002815260200161068760f31b815250906109c15760405162461bcd60e51b81526004016109499190610d43565b5082816109da6b033b2e3c9fd0803ce800000087610ded565b6109e49190610db5565b6109ee9190610dcd565b949350505050565b6000821580610a03575081155b15610a10575060006108fd565b81610a2860026b033b2e3c9fd0803ce8000000610dcd565b610a3490600019610e0c565b610a3e9190610dcd565b83111560405180604001604052806002815260200161068760f31b81525090610a7a5760405162461bcd60e51b81526004016109499190610d43565b506b033b2e3c9fd0803ce8000000610a93600282610dcd565b610a9d8486610ded565b610aa79190610db5565b6108fa9190610dcd565b600080610abe8686610903565b905080610acf5760009150506109ee565b6000610ade8561076388610b9f565b90506000610aef856107638a610b9f565b90506000610b09610aff85610b9f565b6105288585610903565b9998505050505050505050565b6000821580610b23575081155b15610b30575060006108fd565b81610b3e6002612710610dcd565b610b4a90600019610e0c565b610b549190610dcd565b83111560405180604001604052806002815260200161068760f31b81525090610b905760405162461bcd60e51b81526004016109499190610d43565b50612710610a93600282610dcd565b600080610bb0633b9aca0084610ded565b905082610bc1633b9aca0083610dcd565b1460405180604001604052806002815260200161068760f31b81525090610bfb5760405162461bcd60e51b81526004016109499190610d43565b5090505b919050565b6040518060a0016040528060008152602001600081526020016000815260200160008152602001600081525090565b8035610bff81610e39565b600060208284031215610c4f578081fd5b8151610c5a81610e39565b9392505050565b600080600080848603610120811215610c78578384fd5b60c0811215610c85578384fd5b5060405160c0810181811067ffffffffffffffff82111715610cb557634e487b7160e01b85526041600452602485fd5b604052610cc186610c33565b8152610ccf60208701610c33565b602082015260408681013590820152606080870135908201526080808701359082015260a080870135908201529660c0860135965060e0860135956101000135945092505050565b600060208284031215610d28578081fd5b5051919050565b6001600160a01b0391909116815260200190565b6000602080835283518082850152825b81811015610d6f57858101830151858201604001528201610d53565b81811115610d805783604083870101525b50601f01601f1916929092016040019392505050565b90815260200190565b9283526020830191909152604082015260600190565b60008219821115610dc857610dc8610e23565b500190565b600082610de857634e487b7160e01b81526012600452602481fd5b500490565b6000816000190483118215151615610e0757610e07610e23565b500290565b600082821015610e1e57610e1e610e23565b500390565b634e487b7160e01b600052601160045260246000fd5b6001600160a01b0381168114610e4e57600080fd5b5056fea2646970667358221220d3a7a7a94f6eca8fc04592c0260d32ffcad0d71f659ca73cb6ab41b0c93bac0664736f6c63430008000033a26469706673582212201cbf9068da382d6fc19f64a973ec002789522695c7b275a7f422f41bbed75eaf64736f6c63430008000033",
  "linkReferences": {},
  "deployedLinkReferences": {}
}