{
  "contracts/mocks/oracle/CLAggregators/MockAggregator.sol": {
    "MockAggregator": {
      "abi": [
        {
          "inputs": [
            {
              "internalType": "int256",
              "name": "_initialAnswer",
              "type": "int256"
            }
          ],
          "stateMutability": "nonpayable",
          "type": "constructor"
        },
        {
          "anonymous": false,
          "inputs": [
            {
              "indexed": true,
              "internalType": "int256",
              "name": "current",
              "type": "int256"
            },
            {
              "indexed": true,
              "internalType": "uint256",
              "name": "roundId",
              "type": "uint256"
            },
            {
              "indexed": false,
              "internalType": "uint256",
              "name": "timestamp",
              "type": "uint256"
            }
          ],
          "name": "AnswerUpdated",
          "type": "event"
        },
        {
          "inputs": [],
          "name": "getTokenType",
          "outputs": [
            {
              "internalType": "uint256",
              "name": "",
              "type": "uint256"
            }
          ],
          "stateMutability": "view",
          "type": "function"
        },
        {
          "inputs": [],
          "name": "latestAnswer",
          "outputs": [
            {
              "internalType": "int256",
              "name": "",
              "type": "int256"
            }
          ],
          "stateMutability": "view",
          "type": "function"
        }
      ],
      "devdoc": {
        "kind": "dev",
        "methods": {},
        "version": 1
      },
      "evm": {
        "bytecode": {
          "linkReferences": {},
          "object": "608060405234801561001057600080fd5b5060405161014438038061014483398101604081905261002f91610074565b600081815560405182907f0559884fd3a460db3073b7fc896cc77986f16e378210ded43186175bf646fc5f9061006690429061008c565b60405180910390a350610095565b600060208284031215610085578081fd5b5051919050565b90815260200190565b60a1806100a36000396000f3fe6080604052348015600f57600080fd5b506004361060325760003560e01c806350d25bcd146037578063fcab1819146051575b600080fd5b603d6057565b604051604891906062565b60405180910390f35b603d605d565b60005490565b600190565b9081526020019056fea26469706673582212207579509e296a862e73999f33170f25b4bb37fc07b87363f4f3c25e0a2ae2a0fd64736f6c63430008000033",
          "opcodes": "PUSH1 0x80 PUSH1 0x40 MSTORE CALLVALUE DUP1 ISZERO PUSH2 0x10 JUMPI PUSH1 0x0 DUP1 REVERT JUMPDEST POP PUSH1 0x40 MLOAD PUSH2 0x144 CODESIZE SUB DUP1 PUSH2 0x144 DUP4 CODECOPY DUP2 ADD PUSH1 0x40 DUP2 SWAP1 MSTORE PUSH2 0x2F SWAP2 PUSH2 0x74 JUMP JUMPDEST PUSH1 0x0 DUP2 DUP2 SSTORE PUSH1 0x40 MLOAD DUP3 SWAP1 PUSH32 0x559884FD3A460DB3073B7FC896CC77986F16E378210DED43186175BF646FC5F SWAP1 PUSH2 0x66 SWAP1 TIMESTAMP SWAP1 PUSH2 0x8C JUMP JUMPDEST PUSH1 0x40 MLOAD DUP1 SWAP2 SUB SWAP1 LOG3 POP PUSH2 0x95 JUMP JUMPDEST PUSH1 0x0 PUSH1 0x20 DUP3 DUP5 SUB SLT ISZERO PUSH2 0x85 JUMPI DUP1 DUP2 REVERT JUMPDEST POP MLOAD SWAP2 SWAP1 POP JUMP JUMPDEST SWAP1 DUP2 MSTORE PUSH1 0x20 ADD SWAP1 JUMP JUMPDEST PUSH1 0xA1 DUP1 PUSH2 0xA3 PUSH1 0x0 CODECOPY PUSH1 0x0 RETURN INVALID PUSH1 0x80 PUSH1 0x40 MSTORE CALLVALUE DUP1 ISZERO PUSH1 0xF JUMPI PUSH1 0x0 DUP1 REVERT JUMPDEST POP PUSH1 0x4 CALLDATASIZE LT PUSH1 0x32 JUMPI PUSH1 0x0 CALLDATALOAD PUSH1 0xE0 SHR DUP1 PUSH4 0x50D25BCD EQ PUSH1 0x37 JUMPI DUP1 PUSH4 0xFCAB1819 EQ PUSH1 0x51 JUMPI JUMPDEST PUSH1 0x0 DUP1 REVERT JUMPDEST PUSH1 0x3D PUSH1 0x57 JUMP JUMPDEST PUSH1 0x40 MLOAD PUSH1 0x48 SWAP2 SWAP1 PUSH1 0x62 JUMP JUMPDEST PUSH1 0x40 MLOAD DUP1 SWAP2 SUB SWAP1 RETURN JUMPDEST PUSH1 0x3D PUSH1 0x5D JUMP JUMPDEST PUSH1 0x0 SLOAD SWAP1 JUMP JUMPDEST PUSH1 0x1 SWAP1 JUMP JUMPDEST SWAP1 DUP2 MSTORE PUSH1 0x20 ADD SWAP1 JUMP INVALID LOG2 PUSH5 0x6970667358 0x22 SLT KECCAK256 PUSH22 0x79509E296A862E73999F33170F25B4BB37FC07B87363 DELEGATECALL RETURN 0xC2 0x5E EXP 0x2A 0xE2 LOG0 REVERT PUSH5 0x736F6C6343 STOP ADDMOD STOP STOP CALLER "
        },
        "gasEstimates": {
          "creation": {
            "codeDepositCost": "32200",
            "executionCost": "infinite",
            "totalCost": "infinite"
          },
          "external": {
            "getTokenType()": "228",
            "latestAnswer()": "1006"
          }
        },
        "methodIdentifiers": {
          "getTokenType()": "fcab1819",
          "latestAnswer()": "50d25bcd"
        }
      },
      "storageLayout": {
        "storage": [
          {
            "astId": 3,
            "contract": "contracts/mocks/oracle/CLAggregators/MockAggregator.sol:MockAggregator",
            "label": "_latestAnswer",
            "offset": 0,
            "slot": "0",
            "type": "t_int256"
          }
        ],
        "types": {
          "t_int256": {
            "encoding": "inplace",
            "label": "int256",
            "numberOfBytes": "32"
          }
        }
      },
      "userdoc": {
        "kind": "user",
        "methods": {},
        "version": 1
      }
    }
  }
}