{"contracts/mocks/tokens/CurvePoolMocked.sol":{"CurvePoolMocked":{"abi":[{"inputs":[{"internalType":"uint256","name":"_virtual_price","type":"uint256"}],"stateMutability":"nonpayable","type":"constructor"},{"inputs":[],"name":"get_virtual_price","outputs":[{"internalType":"uint256","name":"","type":"uint256"}],"stateMutability":"view","type":"function"}],"devdoc":{"details":"ERC20 minting logic","kind":"dev","methods":{},"title":"ERC20Mintable","version":1},"evm":{"bytecode":{"linkReferences":{},"object":"608060405234801561001057600080fd5b506040516100f93803806100f983398101604081905261002f91610047565b8061003f5750670e27c49886e600005b60005561005f565b600060208284031215610058578081fd5b5051919050565b608c8061006d6000396000f3fe6080604052348015600f57600080fd5b506004361060285760003560e01c8063bb7b8b8014602d575b600080fd5b60336047565b604051603e9190604d565b60405180910390f35b60005490565b9081526020019056fea2646970667358221220c08807f4702364180f62525bace87489781d23f85ce186bb8717c2465a3146a064736f6c63430008000033","opcodes":"PUSH1 0x80 PUSH1 0x40 MSTORE CALLVALUE DUP1 ISZERO PUSH2 0x10 JUMPI PUSH1 0x0 DUP1 REVERT JUMPDEST POP PUSH1 0x40 MLOAD PUSH2 0xF9 CODESIZE SUB DUP1 PUSH2 0xF9 DUP4 CODECOPY DUP2 ADD PUSH1 0x40 DUP2 SWAP1 MSTORE PUSH2 0x2F SWAP2 PUSH2 0x47 JUMP JUMPDEST DUP1 PUSH2 0x3F JUMPI POP PUSH8 0xE27C49886E60000 JUMPDEST PUSH1 0x0 SSTORE PUSH2 0x5F JUMP JUMPDEST PUSH1 0x0 PUSH1 0x20 DUP3 DUP5 SUB SLT ISZERO PUSH2 0x58 JUMPI DUP1 DUP2 REVERT JUMPDEST POP MLOAD SWAP2 SWAP1 POP JUMP JUMPDEST PUSH1 0x8C DUP1 PUSH2 0x6D PUSH1 0x0 CODECOPY PUSH1 0x0 RETURN INVALID PUSH1 0x80 PUSH1 0x40 MSTORE CALLVALUE DUP1 ISZERO PUSH1 0xF JUMPI PUSH1 0x0 DUP1 REVERT JUMPDEST POP PUSH1 0x4 CALLDATASIZE LT PUSH1 0x28 JUMPI PUSH1 0x0 CALLDATALOAD PUSH1 0xE0 SHR DUP1 PUSH4 0xBB7B8B80 EQ PUSH1 0x2D JUMPI JUMPDEST PUSH1 0x0 DUP1 REVERT JUMPDEST PUSH1 0x33 PUSH1 0x47 JUMP JUMPDEST PUSH1 0x40 MLOAD PUSH1 0x3E SWAP2 SWAP1 PUSH1 0x4D JUMP JUMPDEST PUSH1 0x40 MLOAD DUP1 SWAP2 SUB SWAP1 RETURN JUMPDEST PUSH1 0x0 SLOAD SWAP1 JUMP JUMPDEST SWAP1 DUP2 MSTORE PUSH1 0x20 ADD SWAP1 JUMP INVALID LOG2 PUSH5 0x6970667358 0x22 SLT KECCAK256 0xC0 DUP9 SMOD DELEGATECALL PUSH17 0x2364180F62525BACE87489781D23F85CE1 DUP7 0xBB DUP8 OR 0xC2 CHAINID GAS BALANCE CHAINID LOG0 PUSH5 0x736F6C6343 STOP ADDMOD STOP STOP CALLER "},"gasEstimates":{"creation":{"codeDepositCost":"28000","executionCost":"infinite","totalCost":"infinite"},"external":{"get_virtual_price()":"1006"}},"methodIdentifiers":{"get_virtual_price()":"bb7b8b80"}},"storageLayout":{"storage":[{"astId":8,"contract":"contracts/mocks/tokens/CurvePoolMocked.sol:CurvePoolMocked","label":"virtual_price","offset":0,"slot":"0","type":"t_uint256"}],"types":{"t_uint256":{"encoding":"inplace","label":"uint256","numberOfBytes":"32"}}},"userdoc":{"kind":"user","methods":{},"version":1}}}}