{
  "contracts/mocks/oracle/PriceOracle.sol": {
    "PriceOracle": {
      "abi": [
        {
          "anonymous": false,
          "inputs": [
            {
              "indexed": false,
              "internalType": "address",
              "name": "_asset",
              "type": "address"
            },
            {
              "indexed": false,
              "internalType": "uint256",
              "name": "_price",
              "type": "uint256"
            },
            {
              "indexed": false,
              "internalType": "uint256",
              "name": "timestamp",
              "type": "uint256"
            }
          ],
          "name": "AssetPriceUpdated",
          "type": "event"
        },
        {
          "anonymous": false,
          "inputs": [
            {
              "indexed": false,
              "internalType": "uint256",
              "name": "_price",
              "type": "uint256"
            },
            {
              "indexed": false,
              "internalType": "uint256",
              "name": "timestamp",
              "type": "uint256"
            }
          ],
          "name": "EthPriceUpdated",
          "type": "event"
        },
        {
          "inputs": [
            {
              "internalType": "address",
              "name": "_asset",
              "type": "address"
            }
          ],
          "name": "getAssetPrice",
          "outputs": [
            {
              "internalType": "uint256",
              "name": "",
              "type": "uint256"
            }
          ],
          "stateMutability": "view",
          "type": "function"
        },
        {
          "inputs": [],
          "name": "getEthUsdPrice",
          "outputs": [
            {
              "internalType": "uint256",
              "name": "",
              "type": "uint256"
            }
          ],
          "stateMutability": "view",
          "type": "function"
        },
        {
          "inputs": [
            {
              "internalType": "address",
              "name": "_asset",
              "type": "address"
            },
            {
              "internalType": "uint256",
              "name": "_price",
              "type": "uint256"
            }
          ],
          "name": "setAssetPrice",
          "outputs": [],
          "stateMutability": "nonpayable",
          "type": "function"
        },
        {
          "inputs": [
            {
              "internalType": "uint256",
              "name": "_price",
              "type": "uint256"
            }
          ],
          "name": "setEthUsdPrice",
          "outputs": [],
          "stateMutability": "nonpayable",
          "type": "function"
        }
      ],
      "devdoc": {
        "kind": "dev",
        "methods": {},
        "version": 1
      },
      "evm": {
        "bytecode": {
          "linkReferences": {},
          "object": "608060405234801561001057600080fd5b50610253806100206000396000f3fe608060405234801561001057600080fd5b506004361061004c5760003560e01c806351323f7214610051578063a0a8045e14610066578063b3596f0714610084578063b951883a14610097575b600080fd5b61006461005f3660046101a4565b6100aa565b005b61006e610105565b60405161007b9190610206565b60405180910390f35b61006e610092366004610183565b61010b565b6100646100a53660046101cd565b61012a565b6001600160a01b03821660009081526020819052604090819020829055517fce6e0b57367bae95ca7198e1172f653ea64a645c16ab586b4cefa9237bfc2d92906100f9908490849042906101e5565b60405180910390a15050565b60015490565b6001600160a01b0381166000908152602081905260409020545b919050565b60018190556040517fb4f35977939fa8b5ffe552d517a8ff5223046b1fdd3ee0068ae38d1e2b8d001690610161908390429061020f565b60405180910390a150565b80356001600160a01b038116811461012557600080fd5b600060208284031215610194578081fd5b61019d8261016c565b9392505050565b600080604083850312156101b6578081fd5b6101bf8361016c565b946020939093013593505050565b6000602082840312156101de578081fd5b5035919050565b6001600160a01b039390931683526020830191909152604082015260600190565b90815260200190565b91825260208201526040019056fea2646970667358221220bba8eda09530ae7d30310b8418701c44450829a7f0868a5c2c49f681bd2b0fe264736f6c63430008000033",
          "opcodes": "PUSH1 0x80 PUSH1 0x40 MSTORE CALLVALUE DUP1 ISZERO PUSH2 0x10 JUMPI PUSH1 0x0 DUP1 REVERT JUMPDEST POP PUSH2 0x253 DUP1 PUSH2 0x20 PUSH1 0x0 CODECOPY PUSH1 0x0 RETURN INVALID PUSH1 0x80 PUSH1 0x40 MSTORE CALLVALUE DUP1 ISZERO PUSH2 0x10 JUMPI PUSH1 0x0 DUP1 REVERT JUMPDEST POP PUSH1 0x4 CALLDATASIZE LT PUSH2 0x4C JUMPI PUSH1 0x0 CALLDATALOAD PUSH1 0xE0 SHR DUP1 PUSH4 0x51323F72 EQ PUSH2 0x51 JUMPI DUP1 PUSH4 0xA0A8045E EQ PUSH2 0x66 JUMPI DUP1 PUSH4 0xB3596F07 EQ PUSH2 0x84 JUMPI DUP1 PUSH4 0xB951883A EQ PUSH2 0x97 JUMPI JUMPDEST PUSH1 0x0 DUP1 REVERT JUMPDEST PUSH2 0x64 PUSH2 0x5F CALLDATASIZE PUSH1 0x4 PUSH2 0x1A4 JUMP JUMPDEST PUSH2 0xAA JUMP JUMPDEST STOP JUMPDEST PUSH2 0x6E PUSH2 0x105 JUMP JUMPDEST PUSH1 0x40 MLOAD PUSH2 0x7B SWAP2 SWAP1 PUSH2 0x206 JUMP JUMPDEST PUSH1 0x40 MLOAD DUP1 SWAP2 SUB SWAP1 RETURN JUMPDEST PUSH2 0x6E PUSH2 0x92 CALLDATASIZE PUSH1 0x4 PUSH2 0x183 JUMP JUMPDEST PUSH2 0x10B JUMP JUMPDEST PUSH2 0x64 PUSH2 0xA5 CALLDATASIZE PUSH1 0x4 PUSH2 0x1CD JUMP JUMPDEST PUSH2 0x12A JUMP JUMPDEST PUSH1 0x1 PUSH1 0x1 PUSH1 0xA0 SHL SUB DUP3 AND PUSH1 0x0 SWAP1 DUP2 MSTORE PUSH1 0x20 DUP2 SWAP1 MSTORE PUSH1 0x40 SWAP1 DUP2 SWAP1 KECCAK256 DUP3 SWAP1 SSTORE MLOAD PUSH32 0xCE6E0B57367BAE95CA7198E1172F653EA64A645C16AB586B4CEFA9237BFC2D92 SWAP1 PUSH2 0xF9 SWAP1 DUP5 SWAP1 DUP5 SWAP1 TIMESTAMP SWAP1 PUSH2 0x1E5 JUMP JUMPDEST PUSH1 0x40 MLOAD DUP1 SWAP2 SUB SWAP1 LOG1 POP POP JUMP JUMPDEST PUSH1 0x1 SLOAD SWAP1 JUMP JUMPDEST PUSH1 0x1 PUSH1 0x1 PUSH1 0xA0 SHL SUB DUP2 AND PUSH1 0x0 SWAP1 DUP2 MSTORE PUSH1 0x20 DUP2 SWAP1 MSTORE PUSH1 0x40 SWAP1 KECCAK256 SLOAD JUMPDEST SWAP2 SWAP1 POP JUMP JUMPDEST PUSH1 0x1 DUP2 SWAP1 SSTORE PUSH1 0x40 MLOAD PUSH32 0xB4F35977939FA8B5FFE552D517A8FF5223046B1FDD3EE0068AE38D1E2B8D0016 SWAP1 PUSH2 0x161 SWAP1 DUP4 SWAP1 TIMESTAMP SWAP1 PUSH2 0x20F JUMP JUMPDEST PUSH1 0x40 MLOAD DUP1 SWAP2 SUB SWAP1 LOG1 POP JUMP JUMPDEST DUP1 CALLDATALOAD PUSH1 0x1 PUSH1 0x1 PUSH1 0xA0 SHL SUB DUP2 AND DUP2 EQ PUSH2 0x125 JUMPI PUSH1 0x0 DUP1 REVERT JUMPDEST PUSH1 0x0 PUSH1 0x20 DUP3 DUP5 SUB SLT ISZERO PUSH2 0x194 JUMPI DUP1 DUP2 REVERT JUMPDEST PUSH2 0x19D DUP3 PUSH2 0x16C JUMP JUMPDEST SWAP4 SWAP3 POP POP POP JUMP JUMPDEST PUSH1 0x0 DUP1 PUSH1 0x40 DUP4 DUP6 SUB SLT ISZERO PUSH2 0x1B6 JUMPI DUP1 DUP2 REVERT JUMPDEST PUSH2 0x1BF DUP4 PUSH2 0x16C JUMP JUMPDEST SWAP5 PUSH1 0x20 SWAP4 SWAP1 SWAP4 ADD CALLDATALOAD SWAP4 POP POP POP JUMP JUMPDEST PUSH1 0x0 PUSH1 0x20 DUP3 DUP5 SUB SLT ISZERO PUSH2 0x1DE JUMPI DUP1 DUP2 REVERT JUMPDEST POP CALLDATALOAD SWAP2 SWAP1 POP JUMP JUMPDEST PUSH1 0x1 PUSH1 0x1 PUSH1 0xA0 SHL SUB SWAP4 SWAP1 SWAP4 AND DUP4 MSTORE PUSH1 0x20 DUP4 ADD SWAP2 SWAP1 SWAP2 MSTORE PUSH1 0x40 DUP3 ADD MSTORE PUSH1 0x60 ADD SWAP1 JUMP JUMPDEST SWAP1 DUP2 MSTORE PUSH1 0x20 ADD SWAP1 JUMP JUMPDEST SWAP2 DUP3 MSTORE PUSH1 0x20 DUP3 ADD MSTORE PUSH1 0x40 ADD SWAP1 JUMP INVALID LOG2 PUSH5 0x6970667358 0x22 SLT KECCAK256 0xBB 0xA8 0xED LOG0 SWAP6 ADDRESS 0xAE PUSH30 0x30310B8418701C44450829A7F0868A5C2C49F681BD2B0FE264736F6C6343 STOP ADDMOD STOP STOP CALLER "
        },
        "gasEstimates": {
          "creation": {
            "codeDepositCost": "119000",
            "executionCost": "165",
            "totalCost": "119165"
          },
          "external": {
            "getAssetPrice(address)": "infinite",
            "getEthUsdPrice()": "1028",
            "setAssetPrice(address,uint256)": "22086",
            "setEthUsdPrice(uint256)": "21645"
          }
        },
        "methodIdentifiers": {
          "getAssetPrice(address)": "b3596f07",
          "getEthUsdPrice()": "a0a8045e",
          "setAssetPrice(address,uint256)": "51323f72",
          "setEthUsdPrice(uint256)": "b951883a"
        }
      },
      "storageLayout": {
        "storage": [
          {
            "astId": 26,
            "contract": "contracts/mocks/oracle/PriceOracle.sol:PriceOracle",
            "label": "prices",
            "offset": 0,
            "slot": "0",
            "type": "t_mapping(t_address,t_uint256)"
          },
          {
            "astId": 28,
            "contract": "contracts/mocks/oracle/PriceOracle.sol:PriceOracle",
            "label": "ethPriceUsd",
            "offset": 0,
            "slot": "1",
            "type": "t_uint256"
          }
        ],
        "types": {
          "t_address": {
            "encoding": "inplace",
            "label": "address",
            "numberOfBytes": "20"
          },
          "t_mapping(t_address,t_uint256)": {
            "encoding": "mapping",
            "key": "t_address",
            "label": "mapping(address => uint256)",
            "numberOfBytes": "32",
            "value": "t_uint256"
          },
          "t_uint256": {
            "encoding": "inplace",
            "label": "uint256",
            "numberOfBytes": "32"
          }
        }
      },
      "userdoc": {
        "kind": "user",
        "methods": {},
        "version": 1
      }
    }
  }
}