{"contracts/misc/AaveOracle.sol":{"AaveOracle":{"abi":[{"inputs":[{"internalType":"address[]","name":"assets","type":"address[]"},{"internalType":"address[]","name":"sources","type":"address[]"},{"internalType":"address","name":"fallbackOracle","type":"address"},{"internalType":"address","name":"baseCurrency","type":"address"},{"internalType":"uint256","name":"baseCurrencyUnit","type":"uint256"}],"stateMutability":"nonpayable","type":"constructor"},{"anonymous":false,"inputs":[{"indexed":true,"internalType":"address","name":"asset","type":"address"},{"indexed":true,"internalType":"address","name":"source","type":"address"}],"name":"AssetSourceUpdated","type":"event"},{"anonymous":false,"inputs":[{"indexed":true,"internalType":"address","name":"baseCurrency","type":"address"},{"indexed":false,"internalType":"uint256","name":"baseCurrencyUnit","type":"uint256"}],"name":"BaseCurrencySet","type":"event"},{"anonymous":false,"inputs":[{"indexed":true,"internalType":"address","name":"fallbackOracle","type":"address"}],"name":"FallbackOracleUpdated","type":"event"},{"anonymous":false,"inputs":[{"indexed":true,"internalType":"address","name":"previousOwner","type":"address"},{"indexed":true,"internalType":"address","name":"newOwner","type":"address"}],"name":"OwnershipTransferred","type":"event"},{"inputs":[],"name":"BASE_CURRENCY","outputs":[{"internalType":"address","name":"","type":"address"}],"stateMutability":"view","type":"function"},{"inputs":[],"name":"BASE_CURRENCY_UNIT","outputs":[{"internalType":"uint256","name":"","type":"uint256"}],"stateMutability":"view","type":"function"},{"inputs":[{"internalType":"address","name":"asset","type":"address"}],"name":"getAssetPrice","outputs":[{"internalType":"uint256","name":"","type":"uint256"}],"stateMutability":"view","type":"function"},{"inputs":[{"internalType":"address[]","name":"assets","type":"address[]"}],"name":"getAssetsPrices","outputs":[{"internalType":"uint256[]","name":"","type":"uint256[]"}],"stateMutability":"view","type":"function"},{"inputs":[],"name":"getFallbackOracle","outputs":[{"internalType":"address","name":"","type":"address"}],"stateMutability":"view","type":"function"},{"inputs":[{"internalType":"address","name":"asset","type":"address"}],"name":"getSourceOfAsset","outputs":[{"internalType":"address","name":"","type":"address"}],"stateMutability":"view","type":"function"},{"inputs":[],"name":"owner","outputs":[{"internalType":"address","name":"","type":"address"}],"stateMutability":"view","type":"function"},{"inputs":[],"name":"renounceOwnership","outputs":[],"stateMutability":"nonpayable","type":"function"},{"inputs":[{"internalType":"address[]","name":"assets","type":"address[]"},{"internalType":"address[]","name":"sources","type":"address[]"}],"name":"setAssetSources","outputs":[],"stateMutability":"nonpayable","type":"function"},{"inputs":[{"internalType":"address","name":"fallbackOracle","type":"address"}],"name":"setFallbackOracle","outputs":[],"stateMutability":"nonpayable","type":"function"},{"inputs":[{"internalType":"address","name":"newOwner","type":"address"}],"name":"transferOwnership","outputs":[],"stateMutability":"nonpayable","type":"function"}],"devdoc":{"author":"Aave","kind":"dev","methods":{"constructor":{"params":{"assets":"The addresses of the assets","baseCurrency":"the base currency used for the price quotes. If USD is used, base currency is 0x0","baseCurrencyUnit":"the unit of the base currency","fallbackOracle":"The address of the fallback oracle to use if the data of an        aggregator is not consistent","sources":"The address of the source of each asset"}},"getAssetPrice(address)":{"params":{"asset":"The asset address"}},"getAssetsPrices(address[])":{"params":{"assets":"The list of assets addresses"}},"getFallbackOracle()":{"returns":{"_0":"address The addres of the fallback oracle"}},"getSourceOfAsset(address)":{"params":{"asset":"The address of the asset"},"returns":{"_0":"address The address of the source"}},"owner()":{"details":"Returns the address of the current owner."},"renounceOwnership()":{"details":"Leaves the contract without owner. It will not be possible to call `onlyOwner` functions anymore. Can only be called by the current owner. NOTE: Renouncing ownership will leave the contract without an owner, thereby removing any functionality that is only available to the owner."},"setAssetSources(address[],address[])":{"params":{"assets":"The addresses of the assets","sources":"The address of the source of each asset"}},"setFallbackOracle(address)":{"params":{"fallbackOracle":"The address of the fallbackOracle"}},"transferOwnership(address)":{"details":"Transfers ownership of the contract to a new account (`newOwner`). Can only be called by the current owner."}},"title":"AaveOracle","version":1},"evm":{"bytecode":{"linkReferences":{},"object":"60c06040523480156200001157600080fd5b50604051620010663803806200106683398101604081905262000034916200039b565b60006200004062000108565b600080546001600160a01b0319166001600160a01b0383169081178255604051929350917f8be0079c531659141344cd1fd0a4f28419497f9722a3daafe3b4186f6b6457e0908290a35062000095836200010c565b620000a1858562000156565b6001600160601b0319606083901b1660805260a08190526040516001600160a01b038316907fe27c4c1372396a3d15a9922f74f9dfc7c72b1ad6d63868470787249c356454c190620000f590849062000468565b60405180910390a25050505050620004af565b3390565b600280546001600160a01b0319166001600160a01b0383169081179091556040517fce7a780d33665b1ea097af5f155e3821b809ecbaa839d3b33aa83ba28168cefb90600090a250565b8051825114620001835760405162461bcd60e51b81526004016200017a9062000431565b60405180910390fd5b60005b8251811015620002cf57818181518110620001b157634e487b7160e01b600052603260045260246000fd5b602002602001015160016000858481518110620001de57634e487b7160e01b600052603260045260246000fd5b60200260200101516001600160a01b03166001600160a01b0316815260200190815260200160002060006101000a8154816001600160a01b0302191690836001600160a01b031602179055508181815181106200024b57634e487b7160e01b600052603260045260246000fd5b60200260200101516001600160a01b03168382815181106200027d57634e487b7160e01b600052603260045260246000fd5b60200260200101516001600160a01b03167f22c5b7b2d8561d39f7f210b6b326a1aa69f15311163082308ac4877db6339dc160405160405180910390a380620002c68162000471565b91505062000186565b505050565b80516001600160a01b0381168114620002ec57600080fd5b919050565b600082601f83011262000302578081fd5b815160206001600160401b038083111562000321576200032162000499565b8183026040518382820101818110848211171562000343576200034362000499565b6040528481528381019250868401828801850189101562000362578687fd5b8692505b858310156200038f576200037a81620002d4565b84529284019260019290920191840162000366565b50979650505050505050565b600080600080600060a08688031215620003b3578081fd5b85516001600160401b0380821115620003ca578283fd5b620003d889838a01620002f1565b96506020880151915080821115620003ee578283fd5b50620003fd88828901620002f1565b9450506200040e60408701620002d4565b92506200041e60608701620002d4565b9150608086015190509295509295909350565b6020808252601a908201527f494e434f4e53495354454e545f504152414d535f4c454e475448000000000000604082015260600190565b90815260200190565b60006000198214156200049257634e487b7160e01b81526011600452602481fd5b5060010190565b634e487b7160e01b600052604160045260246000fd5b60805160601c60a051610b80620004e660003960008181610254015261047901526000818161044f01526106480152610b806000f3fe608060405234801561001057600080fd5b50600436106100a95760003560e01c806392bf2be01161007157806392bf2be0146101065780639d23d9f214610119578063abfd531014610139578063b3596f071461014c578063e19f47001461015f578063f2fde38b14610167576100a9565b8063170aee73146100ae5780636210308c146100c3578063715018a6146100e15780638c89b64f146100e95780638da5cb5b146100fe575b600080fd5b6100c16100bc366004610921565b61017a565b005b6100cb6101c4565b6040516100d89190610a10565b60405180910390f35b6100c16101d3565b6100f1610252565b6040516100d89190610b1a565b6100cb610276565b6100cb610114366004610921565b610285565b61012c61012736600461094f565b6102a6565b6040516100d89190610a24565b6100c161014736600461098f565b610385565b6100f161015a366004610921565b61042d565b6100cb610646565b6100c1610175366004610921565b61066a565b610182610720565b6000546001600160a01b039081169116146101b85760405162461bcd60e51b81526004016101af90610aae565b60405180910390fd5b6101c181610724565b50565b6002546001600160a01b031690565b6101db610720565b6000546001600160a01b039081169116146102085760405162461bcd60e51b81526004016101af90610aae565b600080546040516001600160a01b03909116907f8be0079c531659141344cd1fd0a4f28419497f9722a3daafe3b4186f6b6457e0908390a3600080546001600160a01b0319169055565b7f000000000000000000000000000000000000000000000000000000000000000081565b6000546001600160a01b031690565b6001600160a01b03808216600090815260016020526040902054165b919050565b606060008267ffffffffffffffff8111156102d157634e487b7160e01b600052604160045260246000fd5b6040519080825280602002602001820160405280156102fa578160200160208202803683370190505b50905060005b8381101561037d5761034085858381811061032b57634e487b7160e01b600052603260045260246000fd5b905060200201602081019061015a9190610921565b82828151811061036057634e487b7160e01b600052603260045260246000fd5b60209081029190910101528061037581610b23565b915050610300565b509392505050565b61038d610720565b6000546001600160a01b039081169116146103ba5760405162461bcd60e51b81526004016101af90610aae565b6104278484808060200260200160405190810160405280939291908181526020018383602002808284376000920191909152505060408051602080880282810182019093528782529093508792508691829185019084908082843760009201919091525061076e92505050565b50505050565b6001600160a01b038082166000818152600160205260408120549092908116917f000000000000000000000000000000000000000000000000000000000000000090911614156104a0577f00000000000000000000000000000000000000000000000000000000000000009150506102a1565b6001600160a01b0381166105365760025460405163b3596f0760e01b81526001600160a01b039091169063b3596f07906104de908690600401610a10565b60206040518083038186803b1580156104f657600080fd5b505afa15801561050a573d6000803e3d6000fd5b505050506040513d601f19601f8201168201806040525081019061052e91906109f8565b9150506102a1565b6000816001600160a01b03166350d25bcd6040518163ffffffff1660e01b815260040160206040518083038186803b15801561057157600080fd5b505afa158015610585573d6000803e3d6000fd5b505050506040513d601f19601f820116820180604052508101906105a991906109f8565b905060008113156105bd5791506102a19050565b60025460405163b3596f0760e01b81526001600160a01b039091169063b3596f07906105ed908790600401610a10565b60206040518083038186803b15801561060557600080fd5b505afa158015610619573d6000803e3d6000fd5b505050506040513d601f19601f8201168201806040525081019061063d91906109f8565b925050506102a1565b7f000000000000000000000000000000000000000000000000000000000000000081565b610672610720565b6000546001600160a01b0390811691161461069f5760405162461bcd60e51b81526004016101af90610aae565b6001600160a01b0381166106c55760405162461bcd60e51b81526004016101af90610a68565b600080546040516001600160a01b03808516939216917f8be0079c531659141344cd1fd0a4f28419497f9722a3daafe3b4186f6b6457e091a3600080546001600160a01b0319166001600160a01b0392909216919091179055565b3390565b600280546001600160a01b0319166001600160a01b0383169081179091556040517fce7a780d33665b1ea097af5f155e3821b809ecbaa839d3b33aa83ba28168cefb90600090a250565b805182511461078f5760405162461bcd60e51b81526004016101af90610ae3565b60005b82518110156108d3578181815181106107bb57634e487b7160e01b600052603260045260246000fd5b6020026020010151600160008584815181106107e757634e487b7160e01b600052603260045260246000fd5b60200260200101516001600160a01b03166001600160a01b0316815260200190815260200160002060006101000a8154816001600160a01b0302191690836001600160a01b0316021790555081818151811061085357634e487b7160e01b600052603260045260246000fd5b60200260200101516001600160a01b031683828151811061088457634e487b7160e01b600052603260045260246000fd5b60200260200101516001600160a01b03167f22c5b7b2d8561d39f7f210b6b326a1aa69f15311163082308ac4877db6339dc160405160405180910390a3806108cb81610b23565b915050610792565b505050565b60008083601f8401126108e9578182fd5b50813567ffffffffffffffff811115610900578182fd5b602083019150836020808302850101111561091a57600080fd5b9250929050565b600060208284031215610932578081fd5b81356001600160a01b0381168114610948578182fd5b9392505050565b60008060208385031215610961578081fd5b823567ffffffffffffffff811115610977578182fd5b610983858286016108d8565b90969095509350505050565b600080600080604085870312156109a4578182fd5b843567ffffffffffffffff808211156109bb578384fd5b6109c7888389016108d8565b909650945060208701359150808211156109df578384fd5b506109ec878288016108d8565b95989497509550505050565b600060208284031215610a09578081fd5b5051919050565b6001600160a01b0391909116815260200190565b6020808252825182820181905260009190848201906040850190845b81811015610a5c57835183529284019291840191600101610a40565b50909695505050505050565b60208082526026908201527f4f776e61626c653a206e6577206f776e657220697320746865207a65726f206160408201526564647265737360d01b606082015260800190565b6020808252818101527f4f776e61626c653a2063616c6c6572206973206e6f7420746865206f776e6572604082015260600190565b6020808252601a908201527f494e434f4e53495354454e545f504152414d535f4c454e475448000000000000604082015260600190565b90815260200190565b6000600019821415610b4357634e487b7160e01b81526011600452602481fd5b506001019056fea26469706673582212208a0990bfedc825c8ec9f474683d99d002d3c25d6ac9e726924f2951f72b889f364736f6c63430008000033","opcodes":"PUSH1 0xC0 PUSH1 0x40 MSTORE CALLVALUE DUP1 ISZERO PUSH3 0x11 JUMPI PUSH1 0x0 DUP1 REVERT JUMPDEST POP PUSH1 0x40 MLOAD PUSH3 0x1066 CODESIZE SUB DUP1 PUSH3 0x1066 DUP4 CODECOPY DUP2 ADD PUSH1 0x40 DUP2 SWAP1 MSTORE PUSH3 0x34 SWAP2 PUSH3 0x39B JUMP JUMPDEST PUSH1 0x0 PUSH3 0x40 PUSH3 0x108 JUMP JUMPDEST PUSH1 0x0 DUP1 SLOAD PUSH1 0x1 PUSH1 0x1 PUSH1 0xA0 SHL SUB NOT AND PUSH1 0x1 PUSH1 0x1 PUSH1 0xA0 SHL SUB DUP4 AND SWAP1 DUP2 OR DUP3 SSTORE PUSH1 0x40 MLOAD SWAP3 SWAP4 POP SWAP2 PUSH32 0x8BE0079C531659141344CD1FD0A4F28419497F9722A3DAAFE3B4186F6B6457E0 SWAP1 DUP3 SWAP1 LOG3 POP PUSH3 0x95 DUP4 PUSH3 0x10C JUMP JUMPDEST PUSH3 0xA1 DUP6 DUP6 PUSH3 0x156 JUMP JUMPDEST PUSH1 0x1 PUSH1 0x1 PUSH1 0x60 SHL SUB NOT PUSH1 0x60 DUP4 SWAP1 SHL AND PUSH1 0x80 MSTORE PUSH1 0xA0 DUP2 SWAP1 MSTORE PUSH1 0x40 MLOAD PUSH1 0x1 PUSH1 0x1 PUSH1 0xA0 SHL SUB DUP4 AND SWAP1 PUSH32 0xE27C4C1372396A3D15A9922F74F9DFC7C72B1AD6D63868470787249C356454C1 SWAP1 PUSH3 0xF5 SWAP1 DUP5 SWAP1 PUSH3 0x468 JUMP JUMPDEST PUSH1 0x40 MLOAD DUP1 SWAP2 SUB SWAP1 LOG2 POP POP POP POP POP PUSH3 0x4AF JUMP JUMPDEST CALLER SWAP1 JUMP JUMPDEST PUSH1 0x2 DUP1 SLOAD PUSH1 0x1 PUSH1 0x1 PUSH1 0xA0 SHL SUB NOT AND PUSH1 0x1 PUSH1 0x1 PUSH1 0xA0 SHL SUB DUP4 AND SWAP1 DUP2 OR SWAP1 SWAP2 SSTORE PUSH1 0x40 MLOAD PUSH32 0xCE7A780D33665B1EA097AF5F155E3821B809ECBAA839D3B33AA83BA28168CEFB SWAP1 PUSH1 0x0 SWAP1 LOG2 POP JUMP JUMPDEST DUP1 MLOAD DUP3 MLOAD EQ PUSH3 0x183 JUMPI PUSH1 0x40 MLOAD PUSH3 0x461BCD PUSH1 0xE5 SHL DUP2 MSTORE PUSH1 0x4 ADD PUSH3 0x17A SWAP1 PUSH3 0x431 JUMP JUMPDEST PUSH1 0x40 MLOAD DUP1 SWAP2 SUB SWAP1 REVERT JUMPDEST PUSH1 0x0 JUMPDEST DUP3 MLOAD DUP2 LT ISZERO PUSH3 0x2CF JUMPI DUP2 DUP2 DUP2 MLOAD DUP2 LT PUSH3 0x1B1 JUMPI PUSH4 0x4E487B71 PUSH1 0xE0 SHL PUSH1 0x0 MSTORE PUSH1 0x32 PUSH1 0x4 MSTORE PUSH1 0x24 PUSH1 0x0 REVERT JUMPDEST PUSH1 0x20 MUL PUSH1 0x20 ADD ADD MLOAD PUSH1 0x1 PUSH1 0x0 DUP6 DUP5 DUP2 MLOAD DUP2 LT PUSH3 0x1DE JUMPI PUSH4 0x4E487B71 PUSH1 0xE0 SHL PUSH1 0x0 MSTORE PUSH1 0x32 PUSH1 0x4 MSTORE PUSH1 0x24 PUSH1 0x0 REVERT JUMPDEST PUSH1 0x20 MUL PUSH1 0x20 ADD ADD MLOAD PUSH1 0x1 PUSH1 0x1 PUSH1 0xA0 SHL SUB AND PUSH1 0x1 PUSH1 0x1 PUSH1 0xA0 SHL SUB AND DUP2 MSTORE PUSH1 0x20 ADD SWAP1 DUP2 MSTORE PUSH1 0x20 ADD PUSH1 0x0 KECCAK256 PUSH1 0x0 PUSH2 0x100 EXP DUP2 SLOAD DUP2 PUSH1 0x1 PUSH1 0x1 PUSH1 0xA0 SHL SUB MUL NOT AND SWAP1 DUP4 PUSH1 0x1 PUSH1 0x1 PUSH1 0xA0 SHL SUB AND MUL OR SWAP1 SSTORE POP DUP2 DUP2 DUP2 MLOAD DUP2 LT PUSH3 0x24B JUMPI PUSH4 0x4E487B71 PUSH1 0xE0 SHL PUSH1 0x0 MSTORE PUSH1 0x32 PUSH1 0x4 MSTORE PUSH1 0x24 PUSH1 0x0 REVERT JUMPDEST PUSH1 0x20 MUL PUSH1 0x20 ADD ADD MLOAD PUSH1 0x1 PUSH1 0x1 PUSH1 0xA0 SHL SUB AND DUP4 DUP3 DUP2 MLOAD DUP2 LT PUSH3 0x27D JUMPI PUSH4 0x4E487B71 PUSH1 0xE0 SHL PUSH1 0x0 MSTORE PUSH1 0x32 PUSH1 0x4 MSTORE PUSH1 0x24 PUSH1 0x0 REVERT JUMPDEST PUSH1 0x20 MUL PUSH1 0x20 ADD ADD MLOAD PUSH1 0x1 PUSH1 0x1 PUSH1 0xA0 SHL SUB AND PUSH32 0x22C5B7B2D8561D39F7F210B6B326A1AA69F15311163082308AC4877DB6339DC1 PUSH1 0x40 MLOAD PUSH1 0x40 MLOAD DUP1 SWAP2 SUB SWAP1 LOG3 DUP1 PUSH3 0x2C6 DUP2 PUSH3 0x471 JUMP JUMPDEST SWAP2 POP POP PUSH3 0x186 JUMP JUMPDEST POP POP POP JUMP JUMPDEST DUP1 MLOAD PUSH1 0x1 PUSH1 0x1 PUSH1 0xA0 SHL SUB DUP2 AND DUP2 EQ PUSH3 0x2EC JUMPI PUSH1 0x0 DUP1 REVERT JUMPDEST SWAP2 SWAP1 POP JUMP JUMPDEST PUSH1 0x0 DUP3 PUSH1 0x1F DUP4 ADD SLT PUSH3 0x302 JUMPI DUP1 DUP2 REVERT JUMPDEST DUP2 MLOAD PUSH1 0x20 PUSH1 0x1 PUSH1 0x1 PUSH1 0x40 SHL SUB DUP1 DUP4 GT ISZERO PUSH3 0x321 JUMPI PUSH3 0x321 PUSH3 0x499 JUMP JUMPDEST DUP2 DUP4 MUL PUSH1 0x40 MLOAD DUP4 DUP3 DUP3 ADD ADD DUP2 DUP2 LT DUP5 DUP3 GT OR ISZERO PUSH3 0x343 JUMPI PUSH3 0x343 PUSH3 0x499 JUMP JUMPDEST PUSH1 0x40 MSTORE DUP5 DUP2 MSTORE DUP4 DUP2 ADD SWAP3 POP DUP7 DUP5 ADD DUP3 DUP9 ADD DUP6 ADD DUP10 LT ISZERO PUSH3 0x362 JUMPI DUP7 DUP8 REVERT JUMPDEST DUP7 SWAP3 POP JUMPDEST DUP6 DUP4 LT ISZERO PUSH3 0x38F JUMPI PUSH3 0x37A DUP2 PUSH3 0x2D4 JUMP JUMPDEST DUP5 MSTORE SWAP3 DUP5 ADD SWAP3 PUSH1 0x1 SWAP3 SWAP1 SWAP3 ADD SWAP2 DUP5 ADD PUSH3 0x366 JUMP JUMPDEST POP SWAP8 SWAP7 POP POP POP POP POP POP POP JUMP JUMPDEST PUSH1 0x0 DUP1 PUSH1 0x0 DUP1 PUSH1 0x0 PUSH1 0xA0 DUP7 DUP9 SUB SLT ISZERO PUSH3 0x3B3 JUMPI DUP1 DUP2 REVERT JUMPDEST DUP6 MLOAD PUSH1 0x1 PUSH1 0x1 PUSH1 0x40 SHL SUB DUP1 DUP3 GT ISZERO PUSH3 0x3CA JUMPI DUP3 DUP4 REVERT JUMPDEST PUSH3 0x3D8 DUP10 DUP4 DUP11 ADD PUSH3 0x2F1 JUMP JUMPDEST SWAP7 POP PUSH1 0x20 DUP9 ADD MLOAD SWAP2 POP DUP1 DUP3 GT ISZERO PUSH3 0x3EE JUMPI DUP3 DUP4 REVERT JUMPDEST POP PUSH3 0x3FD DUP9 DUP3 DUP10 ADD PUSH3 0x2F1 JUMP JUMPDEST SWAP5 POP POP PUSH3 0x40E PUSH1 0x40 DUP8 ADD PUSH3 0x2D4 JUMP JUMPDEST SWAP3 POP PUSH3 0x41E PUSH1 0x60 DUP8 ADD PUSH3 0x2D4 JUMP JUMPDEST SWAP2 POP PUSH1 0x80 DUP7 ADD MLOAD SWAP1 POP SWAP3 SWAP6 POP SWAP3 SWAP6 SWAP1 SWAP4 POP JUMP JUMPDEST PUSH1 0x20 DUP1 DUP3 MSTORE PUSH1 0x1A SWAP1 DUP3 ADD MSTORE PUSH32 0x494E434F4E53495354454E545F504152414D535F4C454E475448000000000000 PUSH1 0x40 DUP3 ADD MSTORE PUSH1 0x60 ADD SWAP1 JUMP JUMPDEST SWAP1 DUP2 MSTORE PUSH1 0x20 ADD SWAP1 JUMP JUMPDEST PUSH1 0x0 PUSH1 0x0 NOT DUP3 EQ ISZERO PUSH3 0x492 JUMPI PUSH4 0x4E487B71 PUSH1 0xE0 SHL DUP2 MSTORE PUSH1 0x11 PUSH1 0x4 MSTORE PUSH1 0x24 DUP2 REVERT JUMPDEST POP PUSH1 0x1 ADD SWAP1 JUMP JUMPDEST PUSH4 0x4E487B71 PUSH1 0xE0 SHL PUSH1 0x0 MSTORE PUSH1 0x41 PUSH1 0x4 MSTORE PUSH1 0x24 PUSH1 0x0 REVERT JUMPDEST PUSH1 0x80 MLOAD PUSH1 0x60 SHR PUSH1 0xA0 MLOAD PUSH2 0xB80 PUSH3 0x4E6 PUSH1 0x0 CODECOPY PUSH1 0x0 DUP2 DUP2 PUSH2 0x254 ADD MSTORE PUSH2 0x479 ADD MSTORE PUSH1 0x0 DUP2 DUP2 PUSH2 0x44F ADD MSTORE PUSH2 0x648 ADD MSTORE PUSH2 0xB80 PUSH1 0x0 RETURN INVALID PUSH1 0x80 PUSH1 0x40 MSTORE CALLVALUE DUP1 ISZERO PUSH2 0x10 JUMPI PUSH1 0x0 DUP1 REVERT JUMPDEST POP PUSH1 0x4 CALLDATASIZE LT PUSH2 0xA9 JUMPI PUSH1 0x0 CALLDATALOAD PUSH1 0xE0 SHR DUP1 PUSH4 0x92BF2BE0 GT PUSH2 0x71 JUMPI DUP1 PUSH4 0x92BF2BE0 EQ PUSH2 0x106 JUMPI DUP1 PUSH4 0x9D23D9F2 EQ PUSH2 0x119 JUMPI DUP1 PUSH4 0xABFD5310 EQ PUSH2 0x139 JUMPI DUP1 PUSH4 0xB3596F07 EQ PUSH2 0x14C JUMPI DUP1 PUSH4 0xE19F4700 EQ PUSH2 0x15F JUMPI DUP1 PUSH4 0xF2FDE38B EQ PUSH2 0x167 JUMPI PUSH2 0xA9 JUMP JUMPDEST DUP1 PUSH4 0x170AEE73 EQ PUSH2 0xAE JUMPI DUP1 PUSH4 0x6210308C EQ PUSH2 0xC3 JUMPI DUP1 PUSH4 0x715018A6 EQ PUSH2 0xE1 JUMPI DUP1 PUSH4 0x8C89B64F EQ PUSH2 0xE9 JUMPI DUP1 PUSH4 0x8DA5CB5B EQ PUSH2 0xFE JUMPI JUMPDEST PUSH1 0x0 DUP1 REVERT JUMPDEST PUSH2 0xC1 PUSH2 0xBC CALLDATASIZE PUSH1 0x4 PUSH2 0x921 JUMP JUMPDEST PUSH2 0x17A JUMP JUMPDEST STOP JUMPDEST PUSH2 0xCB PUSH2 0x1C4 JUMP JUMPDEST PUSH1 0x40 MLOAD PUSH2 0xD8 SWAP2 SWAP1 PUSH2 0xA10 JUMP JUMPDEST PUSH1 0x40 MLOAD DUP1 SWAP2 SUB SWAP1 RETURN JUMPDEST PUSH2 0xC1 PUSH2 0x1D3 JUMP JUMPDEST PUSH2 0xF1 PUSH2 0x252 JUMP JUMPDEST PUSH1 0x40 MLOAD PUSH2 0xD8 SWAP2 SWAP1 PUSH2 0xB1A JUMP JUMPDEST PUSH2 0xCB PUSH2 0x276 JUMP JUMPDEST PUSH2 0xCB PUSH2 0x114 CALLDATASIZE PUSH1 0x4 PUSH2 0x921 JUMP JUMPDEST PUSH2 0x285 JUMP JUMPDEST PUSH2 0x12C PUSH2 0x127 CALLDATASIZE PUSH1 0x4 PUSH2 0x94F JUMP JUMPDEST PUSH2 0x2A6 JUMP JUMPDEST PUSH1 0x40 MLOAD PUSH2 0xD8 SWAP2 SWAP1 PUSH2 0xA24 JUMP JUMPDEST PUSH2 0xC1 PUSH2 0x147 CALLDATASIZE PUSH1 0x4 PUSH2 0x98F JUMP JUMPDEST PUSH2 0x385 JUMP JUMPDEST PUSH2 0xF1 PUSH2 0x15A CALLDATASIZE PUSH1 0x4 PUSH2 0x921 JUMP JUMPDEST PUSH2 0x42D JUMP JUMPDEST PUSH2 0xCB PUSH2 0x646 JUMP JUMPDEST PUSH2 0xC1 PUSH2 0x175 CALLDATASIZE PUSH1 0x4 PUSH2 0x921 JUMP JUMPDEST PUSH2 0x66A JUMP JUMPDEST PUSH2 0x182 PUSH2 0x720 JUMP JUMPDEST PUSH1 0x0 SLOAD PUSH1 0x1 PUSH1 0x1 PUSH1 0xA0 SHL SUB SWAP1 DUP2 AND SWAP2 AND EQ PUSH2 0x1B8 JUMPI PUSH1 0x40 MLOAD PUSH3 0x461BCD PUSH1 0xE5 SHL DUP2 MSTORE PUSH1 0x4 ADD PUSH2 0x1AF SWAP1 PUSH2 0xAAE JUMP JUMPDEST PUSH1 0x40 MLOAD DUP1 SWAP2 SUB SWAP1 REVERT JUMPDEST PUSH2 0x1C1 DUP2 PUSH2 0x724 JUMP JUMPDEST POP JUMP JUMPDEST PUSH1 0x2 SLOAD PUSH1 0x1 PUSH1 0x1 PUSH1 0xA0 SHL SUB AND SWAP1 JUMP JUMPDEST PUSH2 0x1DB PUSH2 0x720 JUMP JUMPDEST PUSH1 0x0 SLOAD PUSH1 0x1 PUSH1 0x1 PUSH1 0xA0 SHL SUB SWAP1 DUP2 AND SWAP2 AND EQ PUSH2 0x208 JUMPI PUSH1 0x40 MLOAD PUSH3 0x461BCD PUSH1 0xE5 SHL DUP2 MSTORE PUSH1 0x4 ADD PUSH2 0x1AF SWAP1 PUSH2 0xAAE JUMP JUMPDEST PUSH1 0x0 DUP1 SLOAD PUSH1 0x40 MLOAD PUSH1 0x1 PUSH1 0x1 PUSH1 0xA0 SHL SUB SWAP1 SWAP2 AND SWAP1 PUSH32 0x8BE0079C531659141344CD1FD0A4F28419497F9722A3DAAFE3B4186F6B6457E0 SWAP1 DUP4 SWAP1 LOG3 PUSH1 0x0 DUP1 SLOAD PUSH1 0x1 PUSH1 0x1 PUSH1 0xA0 SHL SUB NOT AND SWAP1 SSTORE JUMP JUMPDEST PUSH32 0x0 DUP2 JUMP JUMPDEST PUSH1 0x0 SLOAD PUSH1 0x1 PUSH1 0x1 PUSH1 0xA0 SHL SUB AND SWAP1 JUMP JUMPDEST PUSH1 0x1 PUSH1 0x1 PUSH1 0xA0 SHL SUB DUP1 DUP3 AND PUSH1 0x0 SWAP1 DUP2 MSTORE PUSH1 0x1 PUSH1 0x20 MSTORE PUSH1 0x40 SWAP1 KECCAK256 SLOAD AND JUMPDEST SWAP2 SWAP1 POP JUMP JUMPDEST PUSH1 0x60 PUSH1 0x0 DUP3 PUSH8 0xFFFFFFFFFFFFFFFF DUP2 GT ISZERO PUSH2 0x2D1 JUMPI PUSH4 0x4E487B71 PUSH1 0xE0 SHL PUSH1 0x0 MSTORE PUSH1 0x41 PUSH1 0x4 MSTORE PUSH1 0x24 PUSH1 0x0 REVERT JUMPDEST PUSH1 0x40 MLOAD SWAP1 DUP1 DUP3 MSTORE DUP1 PUSH1 0x20 MUL PUSH1 0x20 ADD DUP3 ADD PUSH1 0x40 MSTORE DUP1 ISZERO PUSH2 0x2FA JUMPI DUP2 PUSH1 0x20 ADD PUSH1 0x20 DUP3 MUL DUP1 CALLDATASIZE DUP4 CALLDATACOPY ADD SWAP1 POP JUMPDEST POP SWAP1 POP PUSH1 0x0 JUMPDEST DUP4 DUP2 LT ISZERO PUSH2 0x37D JUMPI PUSH2 0x340 DUP6 DUP6 DUP4 DUP2 DUP2 LT PUSH2 0x32B JUMPI PUSH4 0x4E487B71 PUSH1 0xE0 SHL PUSH1 0x0 MSTORE PUSH1 0x32 PUSH1 0x4 MSTORE PUSH1 0x24 PUSH1 0x0 REVERT JUMPDEST SWAP1 POP PUSH1 0x20 MUL ADD PUSH1 0x20 DUP2 ADD SWAP1 PUSH2 0x15A SWAP2 SWAP1 PUSH2 0x921 JUMP JUMPDEST DUP3 DUP3 DUP2 MLOAD DUP2 LT PUSH2 0x360 JUMPI PUSH4 0x4E487B71 PUSH1 0xE0 SHL PUSH1 0x0 MSTORE PUSH1 0x32 PUSH1 0x4 MSTORE PUSH1 0x24 PUSH1 0x0 REVERT JUMPDEST PUSH1 0x20 SWAP1 DUP2 MUL SWAP2 SWAP1 SWAP2 ADD ADD MSTORE DUP1 PUSH2 0x375 DUP2 PUSH2 0xB23 JUMP JUMPDEST SWAP2 POP POP PUSH2 0x300 JUMP JUMPDEST POP SWAP4 SWAP3 POP POP POP JUMP JUMPDEST PUSH2 0x38D PUSH2 0x720 JUMP JUMPDEST PUSH1 0x0 SLOAD PUSH1 0x1 PUSH1 0x1 PUSH1 0xA0 SHL SUB SWAP1 DUP2 AND SWAP2 AND EQ PUSH2 0x3BA JUMPI PUSH1 0x40 MLOAD PUSH3 0x461BCD PUSH1 0xE5 SHL DUP2 MSTORE PUSH1 0x4 ADD PUSH2 0x1AF SWAP1 PUSH2 0xAAE JUMP JUMPDEST PUSH2 0x427 DUP5 DUP5 DUP1 DUP1 PUSH1 0x20 MUL PUSH1 0x20 ADD PUSH1 0x40 MLOAD SWAP1 DUP2 ADD PUSH1 0x40 MSTORE DUP1 SWAP4 SWAP3 SWAP2 SWAP1 DUP2 DUP2 MSTORE PUSH1 0x20 ADD DUP4 DUP4 PUSH1 0x20 MUL DUP1 DUP3 DUP5 CALLDATACOPY PUSH1 0x0 SWAP3 ADD SWAP2 SWAP1 SWAP2 MSTORE POP POP PUSH1 0x40 DUP1 MLOAD PUSH1 0x20 DUP1 DUP9 MUL DUP3 DUP2 ADD DUP3 ADD SWAP1 SWAP4 MSTORE DUP8 DUP3 MSTORE SWAP1 SWAP4 POP DUP8 SWAP3 POP DUP7 SWAP2 DUP3 SWAP2 DUP6 ADD SWAP1 DUP5 SWAP1 DUP1 DUP3 DUP5 CALLDATACOPY PUSH1 0x0 SWAP3 ADD SWAP2 SWAP1 SWAP2 MSTORE POP PUSH2 0x76E SWAP3 POP POP POP JUMP JUMPDEST POP POP POP POP JUMP JUMPDEST PUSH1 0x1 PUSH1 0x1 PUSH1 0xA0 SHL SUB DUP1 DUP3 AND PUSH1 0x0 DUP2 DUP2 MSTORE PUSH1 0x1 PUSH1 0x20 MSTORE PUSH1 0x40 DUP2 KECCAK256 SLOAD SWAP1 SWAP3 SWAP1 DUP2 AND SWAP2 PUSH32 0x0 SWAP1 SWAP2 AND EQ ISZERO PUSH2 0x4A0 JUMPI PUSH32 0x0 SWAP2 POP POP PUSH2 0x2A1 JUMP JUMPDEST PUSH1 0x1 PUSH1 0x1 PUSH1 0xA0 SHL SUB DUP2 AND PUSH2 0x536 JUMPI PUSH1 0x2 SLOAD PUSH1 0x40 MLOAD PUSH4 0xB3596F07 PUSH1 0xE0 SHL DUP2 MSTORE PUSH1 0x1 PUSH1 0x1 PUSH1 0xA0 SHL SUB SWAP1 SWAP2 AND SWAP1 PUSH4 0xB3596F07 SWAP1 PUSH2 0x4DE SWAP1 DUP7 SWAP1 PUSH1 0x4 ADD PUSH2 0xA10 JUMP JUMPDEST PUSH1 0x20 PUSH1 0x40 MLOAD DUP1 DUP4 SUB DUP2 DUP7 DUP1 EXTCODESIZE ISZERO DUP1 ISZERO PUSH2 0x4F6 JUMPI PUSH1 0x0 DUP1 REVERT JUMPDEST POP GAS STATICCALL ISZERO DUP1 ISZERO PUSH2 0x50A JUMPI RETURNDATASIZE PUSH1 0x0 DUP1 RETURNDATACOPY RETURNDATASIZE PUSH1 0x0 REVERT JUMPDEST POP POP POP POP PUSH1 0x40 MLOAD RETURNDATASIZE PUSH1 0x1F NOT PUSH1 0x1F DUP3 ADD AND DUP3 ADD DUP1 PUSH1 0x40 MSTORE POP DUP2 ADD SWAP1 PUSH2 0x52E SWAP2 SWAP1 PUSH2 0x9F8 JUMP JUMPDEST SWAP2 POP POP PUSH2 0x2A1 JUMP JUMPDEST PUSH1 0x0 DUP2 PUSH1 0x1 PUSH1 0x1 PUSH1 0xA0 SHL SUB AND PUSH4 0x50D25BCD PUSH1 0x40 MLOAD DUP2 PUSH4 0xFFFFFFFF AND PUSH1 0xE0 SHL DUP2 MSTORE PUSH1 0x4 ADD PUSH1 0x20 PUSH1 0x40 MLOAD DUP1 DUP4 SUB DUP2 DUP7 DUP1 EXTCODESIZE ISZERO DUP1 ISZERO PUSH2 0x571 JUMPI PUSH1 0x0 DUP1 REVERT JUMPDEST POP GAS STATICCALL ISZERO DUP1 ISZERO PUSH2 0x585 JUMPI RETURNDATASIZE PUSH1 0x0 DUP1 RETURNDATACOPY RETURNDATASIZE PUSH1 0x0 REVERT JUMPDEST POP POP POP POP PUSH1 0x40 MLOAD RETURNDATASIZE PUSH1 0x1F NOT PUSH1 0x1F DUP3 ADD AND DUP3 ADD DUP1 PUSH1 0x40 MSTORE POP DUP2 ADD SWAP1 PUSH2 0x5A9 SWAP2 SWAP1 PUSH2 0x9F8 JUMP JUMPDEST SWAP1 POP PUSH1 0x0 DUP2 SGT ISZERO PUSH2 0x5BD JUMPI SWAP2 POP PUSH2 0x2A1 SWAP1 POP JUMP JUMPDEST PUSH1 0x2 SLOAD PUSH1 0x40 MLOAD PUSH4 0xB3596F07 PUSH1 0xE0 SHL DUP2 MSTORE PUSH1 0x1 PUSH1 0x1 PUSH1 0xA0 SHL SUB SWAP1 SWAP2 AND SWAP1 PUSH4 0xB3596F07 SWAP1 PUSH2 0x5ED SWAP1 DUP8 SWAP1 PUSH1 0x4 ADD PUSH2 0xA10 JUMP JUMPDEST PUSH1 0x20 PUSH1 0x40 MLOAD DUP1 DUP4 SUB DUP2 DUP7 DUP1 EXTCODESIZE ISZERO DUP1 ISZERO PUSH2 0x605 JUMPI PUSH1 0x0 DUP1 REVERT JUMPDEST POP GAS STATICCALL ISZERO DUP1 ISZERO PUSH2 0x619 JUMPI RETURNDATASIZE PUSH1 0x0 DUP1 RETURNDATACOPY RETURNDATASIZE PUSH1 0x0 REVERT JUMPDEST POP POP POP POP PUSH1 0x40 MLOAD RETURNDATASIZE PUSH1 0x1F NOT PUSH1 0x1F DUP3 ADD AND DUP3 ADD DUP1 PUSH1 0x40 MSTORE POP DUP2 ADD SWAP1 PUSH2 0x63D SWAP2 SWAP1 PUSH2 0x9F8 JUMP JUMPDEST SWAP3 POP POP POP PUSH2 0x2A1 JUMP JUMPDEST PUSH32 0x0 DUP2 JUMP JUMPDEST PUSH2 0x672 PUSH2 0x720 JUMP JUMPDEST PUSH1 0x0 SLOAD PUSH1 0x1 PUSH1 0x1 PUSH1 0xA0 SHL SUB SWAP1 DUP2 AND SWAP2 AND EQ PUSH2 0x69F JUMPI PUSH1 0x40 MLOAD PUSH3 0x461BCD PUSH1 0xE5 SHL DUP2 MSTORE PUSH1 0x4 ADD PUSH2 0x1AF SWAP1 PUSH2 0xAAE JUMP JUMPDEST PUSH1 0x1 PUSH1 0x1 PUSH1 0xA0 SHL SUB DUP2 AND PUSH2 0x6C5 JUMPI PUSH1 0x40 MLOAD PUSH3 0x461BCD PUSH1 0xE5 SHL DUP2 MSTORE PUSH1 0x4 ADD PUSH2 0x1AF SWAP1 PUSH2 0xA68 JUMP JUMPDEST PUSH1 0x0 DUP1 SLOAD PUSH1 0x40 MLOAD PUSH1 0x1 PUSH1 0x1 PUSH1 0xA0 SHL SUB DUP1 DUP6 AND SWAP4 SWAP3 AND SWAP2 PUSH32 0x8BE0079C531659141344CD1FD0A4F28419497F9722A3DAAFE3B4186F6B6457E0 SWAP2 LOG3 PUSH1 0x0 DUP1 SLOAD PUSH1 0x1 PUSH1 0x1 PUSH1 0xA0 SHL SUB NOT AND PUSH1 0x1 PUSH1 0x1 PUSH1 0xA0 SHL SUB SWAP3 SWAP1 SWAP3 AND SWAP2 SWAP1 SWAP2 OR SWAP1 SSTORE JUMP JUMPDEST CALLER SWAP1 JUMP JUMPDEST PUSH1 0x2 DUP1 SLOAD PUSH1 0x1 PUSH1 0x1 PUSH1 0xA0 SHL SUB NOT AND PUSH1 0x1 PUSH1 0x1 PUSH1 0xA0 SHL SUB DUP4 AND SWAP1 DUP2 OR SWAP1 SWAP2 SSTORE PUSH1 0x40 MLOAD PUSH32 0xCE7A780D33665B1EA097AF5F155E3821B809ECBAA839D3B33AA83BA28168CEFB SWAP1 PUSH1 0x0 SWAP1 LOG2 POP JUMP JUMPDEST DUP1 MLOAD DUP3 MLOAD EQ PUSH2 0x78F JUMPI PUSH1 0x40 MLOAD PUSH3 0x461BCD PUSH1 0xE5 SHL DUP2 MSTORE PUSH1 0x4 ADD PUSH2 0x1AF SWAP1 PUSH2 0xAE3 JUMP JUMPDEST PUSH1 0x0 JUMPDEST DUP3 MLOAD DUP2 LT ISZERO PUSH2 0x8D3 JUMPI DUP2 DUP2 DUP2 MLOAD DUP2 LT PUSH2 0x7BB JUMPI PUSH4 0x4E487B71 PUSH1 0xE0 SHL PUSH1 0x0 MSTORE PUSH1 0x32 PUSH1 0x4 MSTORE PUSH1 0x24 PUSH1 0x0 REVERT JUMPDEST PUSH1 0x20 MUL PUSH1 0x20 ADD ADD MLOAD PUSH1 0x1 PUSH1 0x0 DUP6 DUP5 DUP2 MLOAD DUP2 LT PUSH2 0x7E7 JUMPI PUSH4 0x4E487B71 PUSH1 0xE0 SHL PUSH1 0x0 MSTORE PUSH1 0x32 PUSH1 0x4 MSTORE PUSH1 0x24 PUSH1 0x0 REVERT JUMPDEST PUSH1 0x20 MUL PUSH1 0x20 ADD ADD MLOAD PUSH1 0x1 PUSH1 0x1 PUSH1 0xA0 SHL SUB AND PUSH1 0x1 PUSH1 0x1 PUSH1 0xA0 SHL SUB AND DUP2 MSTORE PUSH1 0x20 ADD SWAP1 DUP2 MSTORE PUSH1 0x20 ADD PUSH1 0x0 KECCAK256 PUSH1 0x0 PUSH2 0x100 EXP DUP2 SLOAD DUP2 PUSH1 0x1 PUSH1 0x1 PUSH1 0xA0 SHL SUB MUL NOT AND SWAP1 DUP4 PUSH1 0x1 PUSH1 0x1 PUSH1 0xA0 SHL SUB AND MUL OR SWAP1 SSTORE POP DUP2 DUP2 DUP2 MLOAD DUP2 LT PUSH2 0x853 JUMPI PUSH4 0x4E487B71 PUSH1 0xE0 SHL PUSH1 0x0 MSTORE PUSH1 0x32 PUSH1 0x4 MSTORE PUSH1 0x24 PUSH1 0x0 REVERT JUMPDEST PUSH1 0x20 MUL PUSH1 0x20 ADD ADD MLOAD PUSH1 0x1 PUSH1 0x1 PUSH1 0xA0 SHL SUB AND DUP4 DUP3 DUP2 MLOAD DUP2 LT PUSH2 0x884 JUMPI PUSH4 0x4E487B71 PUSH1 0xE0 SHL PUSH1 0x0 MSTORE PUSH1 0x32 PUSH1 0x4 MSTORE PUSH1 0x24 PUSH1 0x0 REVERT JUMPDEST PUSH1 0x20 MUL PUSH1 0x20 ADD ADD MLOAD PUSH1 0x1 PUSH1 0x1 PUSH1 0xA0 SHL SUB AND PUSH32 0x22C5B7B2D8561D39F7F210B6B326A1AA69F15311163082308AC4877DB6339DC1 PUSH1 0x40 MLOAD PUSH1 0x40 MLOAD DUP1 SWAP2 SUB SWAP1 LOG3 DUP1 PUSH2 0x8CB DUP2 PUSH2 0xB23 JUMP JUMPDEST SWAP2 POP POP PUSH2 0x792 JUMP JUMPDEST POP POP POP JUMP JUMPDEST PUSH1 0x0 DUP1 DUP4 PUSH1 0x1F DUP5 ADD SLT PUSH2 0x8E9 JUMPI DUP2 DUP3 REVERT JUMPDEST POP DUP2 CALLDATALOAD PUSH8 0xFFFFFFFFFFFFFFFF DUP2 GT ISZERO PUSH2 0x900 JUMPI DUP2 DUP3 REVERT JUMPDEST PUSH1 0x20 DUP4 ADD SWAP2 POP DUP4 PUSH1 0x20 DUP1 DUP4 MUL DUP6 ADD ADD GT ISZERO PUSH2 0x91A JUMPI PUSH1 0x0 DUP1 REVERT JUMPDEST SWAP3 POP SWAP3 SWAP1 POP JUMP JUMPDEST PUSH1 0x0 PUSH1 0x20 DUP3 DUP5 SUB SLT ISZERO PUSH2 0x932 JUMPI DUP1 DUP2 REVERT JUMPDEST DUP2 CALLDATALOAD PUSH1 0x1 PUSH1 0x1 PUSH1 0xA0 SHL SUB DUP2 AND DUP2 EQ PUSH2 0x948 JUMPI DUP2 DUP3 REVERT JUMPDEST SWAP4 SWAP3 POP POP POP JUMP JUMPDEST PUSH1 0x0 DUP1 PUSH1 0x20 DUP4 DUP6 SUB SLT ISZERO PUSH2 0x961 JUMPI DUP1 DUP2 REVERT JUMPDEST DUP3 CALLDATALOAD PUSH8 0xFFFFFFFFFFFFFFFF DUP2 GT ISZERO PUSH2 0x977 JUMPI DUP2 DUP3 REVERT JUMPDEST PUSH2 0x983 DUP6 DUP3 DUP7 ADD PUSH2 0x8D8 JUMP JUMPDEST SWAP1 SWAP7 SWAP1 SWAP6 POP SWAP4 POP POP POP POP JUMP JUMPDEST PUSH1 0x0 DUP1 PUSH1 0x0 DUP1 PUSH1 0x40 DUP6 DUP8 SUB SLT ISZERO PUSH2 0x9A4 JUMPI DUP2 DUP3 REVERT JUMPDEST DUP5 CALLDATALOAD PUSH8 0xFFFFFFFFFFFFFFFF DUP1 DUP3 GT ISZERO PUSH2 0x9BB JUMPI DUP4 DUP5 REVERT JUMPDEST PUSH2 0x9C7 DUP9 DUP4 DUP10 ADD PUSH2 0x8D8 JUMP JUMPDEST SWAP1 SWAP7 POP SWAP5 POP PUSH1 0x20 DUP8 ADD CALLDATALOAD SWAP2 POP DUP1 DUP3 GT ISZERO PUSH2 0x9DF JUMPI DUP4 DUP5 REVERT JUMPDEST POP PUSH2 0x9EC DUP8 DUP3 DUP9 ADD PUSH2 0x8D8 JUMP JUMPDEST SWAP6 SWAP9 SWAP5 SWAP8 POP SWAP6 POP POP POP POP JUMP JUMPDEST PUSH1 0x0 PUSH1 0x20 DUP3 DUP5 SUB SLT ISZERO PUSH2 0xA09 JUMPI DUP1 DUP2 REVERT JUMPDEST POP MLOAD SWAP2 SWAP1 POP JUMP JUMPDEST PUSH1 0x1 PUSH1 0x1 PUSH1 0xA0 SHL SUB SWAP2 SWAP1 SWAP2 AND DUP2 MSTORE PUSH1 0x20 ADD SWAP1 JUMP JUMPDEST PUSH1 0x20 DUP1 DUP3 MSTORE DUP3 MLOAD DUP3 DUP3 ADD DUP2 SWAP1 MSTORE PUSH1 0x0 SWAP2 SWAP1 DUP5 DUP3 ADD SWAP1 PUSH1 0x40 DUP6 ADD SWAP1 DUP5 JUMPDEST DUP2 DUP2 LT ISZERO PUSH2 0xA5C JUMPI DUP4 MLOAD DUP4 MSTORE SWAP3 DUP5 ADD SWAP3 SWAP2 DUP5 ADD SWAP2 PUSH1 0x1 ADD PUSH2 0xA40 JUMP JUMPDEST POP SWAP1 SWAP7 SWAP6 POP POP POP POP POP POP JUMP JUMPDEST PUSH1 0x20 DUP1 DUP3 MSTORE PUSH1 0x26 SWAP1 DUP3 ADD MSTORE PUSH32 0x4F776E61626C653A206E6577206F776E657220697320746865207A65726F2061 PUSH1 0x40 DUP3 ADD MSTORE PUSH6 0x646472657373 PUSH1 0xD0 SHL PUSH1 0x60 DUP3 ADD MSTORE PUSH1 0x80 ADD SWAP1 JUMP JUMPDEST PUSH1 0x20 DUP1 DUP3 MSTORE DUP2 DUP2 ADD MSTORE PUSH32 0x4F776E61626C653A2063616C6C6572206973206E6F7420746865206F776E6572 PUSH1 0x40 DUP3 ADD MSTORE PUSH1 0x60 ADD SWAP1 JUMP JUMPDEST PUSH1 0x20 DUP1 DUP3 MSTORE PUSH1 0x1A SWAP1 DUP3 ADD MSTORE PUSH32 0x494E434F4E53495354454E545F504152414D535F4C454E475448000000000000 PUSH1 0x40 DUP3 ADD MSTORE PUSH1 0x60 ADD SWAP1 JUMP JUMPDEST SWAP1 DUP2 MSTORE PUSH1 0x20 ADD SWAP1 JUMP JUMPDEST PUSH1 0x0 PUSH1 0x0 NOT DUP3 EQ ISZERO PUSH2 0xB43 JUMPI PUSH4 0x4E487B71 PUSH1 0xE0 SHL DUP2 MSTORE PUSH1 0x11 PUSH1 0x4 MSTORE PUSH1 0x24 DUP2 REVERT JUMPDEST POP PUSH1 0x1 ADD SWAP1 JUMP INVALID LOG2 PUSH5 0x6970667358 0x22 SLT KECCAK256 DUP11 MULMOD SWAP1 0xBF 0xED 0xC8 0x25 0xC8 0xEC SWAP16 SELFBALANCE CHAINID DUP4 0xD9 SWAP14 STOP 0x2D EXTCODECOPY 0x25 0xD6 0xAC SWAP15 PUSH19 0x6924F2951F72B889F364736F6C634300080000 CALLER "},"gasEstimates":{"creation":{"codeDepositCost":"588800","executionCost":"infinite","totalCost":"infinite"},"external":{"BASE_CURRENCY()":"infinite","BASE_CURRENCY_UNIT()":"infinite","getAssetPrice(address)":"infinite","getAssetsPrices(address[])":"infinite","getFallbackOracle()":"1093","getSourceOfAsset(address)":"1274","owner()":"1159","renounceOwnership()":"24249","setAssetSources(address[],address[])":"infinite","setFallbackOracle(address)":"23184","transferOwnership(address)":"24514"},"internal":{"_setAssetsSources(address[] memory,address[] memory)":"infinite","_setFallbackOracle(address)":"22026"}},"methodIdentifiers":{"BASE_CURRENCY()":"e19f4700","BASE_CURRENCY_UNIT()":"8c89b64f","getAssetPrice(address)":"b3596f07","getAssetsPrices(address[])":"9d23d9f2","getFallbackOracle()":"6210308c","getSourceOfAsset(address)":"92bf2be0","owner()":"8da5cb5b","renounceOwnership()":"715018a6","setAssetSources(address[],address[])":"abfd5310","setFallbackOracle(address)":"170aee73","transferOwnership(address)":"f2fde38b"}},"storageLayout":{"storage":[{"astId":732,"contract":"contracts/misc/AaveOracle.sol:AaveOracle","label":"_owner","offset":0,"slot":"0","type":"t_address"},{"astId":2055,"contract":"contracts/misc/AaveOracle.sol:AaveOracle","label":"assetsSources","offset":0,"slot":"1","type":"t_mapping(t_address,t_contract(IChainlinkAggregator)1357)"},{"astId":2058,"contract":"contracts/misc/AaveOracle.sol:AaveOracle","label":"_fallbackOracle","offset":0,"slot":"2","type":"t_contract(IPriceOracleGetter)2013"}],"types":{"t_address":{"encoding":"inplace","label":"address","numberOfBytes":"20"},"t_contract(IChainlinkAggregator)1357":{"encoding":"inplace","label":"contract IChainlinkAggregator","numberOfBytes":"20"},"t_contract(IPriceOracleGetter)2013":{"encoding":"inplace","label":"contract IPriceOracleGetter","numberOfBytes":"20"},"t_mapping(t_address,t_contract(IChainlinkAggregator)1357)":{"encoding":"mapping","key":"t_address","label":"mapping(address => contract IChainlinkAggregator)","numberOfBytes":"32","value":"t_contract(IChainlinkAggregator)1357"}}},"userdoc":{"kind":"user","methods":{"constructor":{"notice":"Constructor"},"getAssetPrice(address)":{"notice":"Gets an asset price by address"},"getAssetsPrices(address[])":{"notice":"Gets a list of prices from a list of assets addresses"},"getFallbackOracle()":{"notice":"Gets the address of the fallback oracle"},"getSourceOfAsset(address)":{"notice":"Gets the address of the source for an asset address"},"setAssetSources(address[],address[])":{"notice":"External function called by the Aave governance to set or replace sources of assets"},"setFallbackOracle(address)":{"notice":"Sets the fallbackOracle - Callable only by the Aave governance"}},"notice":"Proxy smart contract to get the price of an asset from a price source, with Chainlink Aggregator         smart contracts as primary option - If the returned price by a Chainlink aggregator is <= 0, the call is forwarded to a fallbackOracle - Owned by the Aave governance system, allowed to add sources for assets, replace them   and change the fallbackOracle","version":1}}}}