{"contracts/oracles/libs/vMath.sol":{"vMath":{"abi":[{"inputs":[{"internalType":"uint8","name":"n","type":"uint8"},{"internalType":"uint256","name":"product","type":"uint256"}],"name":"geometric_mean","outputs":[{"internalType":"uint256","name":"","type":"uint256"}],"stateMutability":"pure","type":"function"},{"inputs":[{"internalType":"uint256[]","name":"array","type":"uint256[]"}],"name":"min","outputs":[{"internalType":"uint256","name":"","type":"uint256"}],"stateMutability":"pure","type":"function"},{"inputs":[{"internalType":"uint256[]","name":"nums","type":"uint256[]"}],"name":"product","outputs":[{"internalType":"uint256","name":"","type":"uint256"}],"stateMutability":"pure","type":"function"}],"devdoc":{"kind":"dev","methods":{},"version":1},"evm":{"bytecode":{"linkReferences":{},"object":"61048861003a600b82828239805160001a60731461002d57634e487b7160e01b600052600060045260246000fd5b30600052607381538281f3fe730000000000000000000000000000000000000000301460806040526004361061004b5760003560e01c80638e5fede814610050578063d834e61914610079578063f43b9abe1461008c575b600080fd5b61006361005e36600461033a565b61009f565b60405161007091906103d9565b60405180910390f35b61006361008736600461033a565b61012b565b61006361009a3660046103a9565b6101da565b600080838360008181106100c357634e487b7160e01b600052603260045260246000fd5b9050602002013590506000600190505b83811015610121578484828181106100fb57634e487b7160e01b600052603260045260246000fd5b905060200201358261010d91906103e2565b91508061011981610401565b9150506100d3565b5090505b92915050565b6000808383600081811061014f57634e487b7160e01b600052603260045260246000fd5b9050602002013590506000600190505b60ff81168411156101215784848260ff1681811061018d57634e487b7160e01b600052603260045260246000fd5b905060200201358211156101c85784848260ff168181106101be57634e487b7160e01b600052603260045260246000fd5b9050602002013591505b806101d28161041c565b91505061015f565b60008260ff16600214156101f8576101f182610201565b9050610125565b6101f1826102da565b600181600160801b811061021a5760409190911b9060801c5b6801000000000000000081106102355760209190911b9060401c5b640100000000811061024c5760109190911b9060201c5b6201000081106102615760089190911b9060101c5b61010081106102755760049190911b9060081c5b601081106102885760029190911b9060041c5b60088110610297578160011b91505b5080820401600190811c80830401811c80830401811c80830401811c80830401811c80830401811c80830401901c808204818110156102d4578091505b50919050565b600080600160ff1b5b801561033357600191821b918281018302600302018082868161031657634e487b7160e01b600052601260045260246000fd5b041061032a57808202850394506001830192505b5060031c6102e3565b5092915050565b6000806020838503121561034c578182fd5b823567ffffffffffffffff80821115610363578384fd5b818501915085601f830112610376578384fd5b813581811115610384578485fd5b8660208083028501011115610397578485fd5b60209290920196919550909350505050565b600080604083850312156103bb578081fd5b823560ff811681146103cb578182fd5b946020939093013593505050565b90815260200190565b60008160001904831182151516156103fc576103fc61043c565b500290565b60006000198214156104155761041561043c565b5060010190565b600060ff821660ff8114156104335761043361043c565b60010192915050565b634e487b7160e01b600052601160045260246000fdfea2646970667358221220546a8d78aae6409dd6fb516754d5b05b208459d12e15e1c22a8c186b030bc55764736f6c63430008000033","opcodes":"PUSH2 0x488 PUSH2 0x3A PUSH1 0xB DUP3 DUP3 DUP3 CODECOPY DUP1 MLOAD PUSH1 0x0 BYTE PUSH1 0x73 EQ PUSH2 0x2D JUMPI PUSH4 0x4E487B71 PUSH1 0xE0 SHL PUSH1 0x0 MSTORE PUSH1 0x0 PUSH1 0x4 MSTORE PUSH1 0x24 PUSH1 0x0 REVERT JUMPDEST ADDRESS PUSH1 0x0 MSTORE PUSH1 0x73 DUP2 MSTORE8 DUP3 DUP2 RETURN INVALID PUSH20 0x0 ADDRESS EQ PUSH1 0x80 PUSH1 0x40 MSTORE PUSH1 0x4 CALLDATASIZE LT PUSH2 0x4B JUMPI PUSH1 0x0 CALLDATALOAD PUSH1 0xE0 SHR DUP1 PUSH4 0x8E5FEDE8 EQ PUSH2 0x50 JUMPI DUP1 PUSH4 0xD834E619 EQ PUSH2 0x79 JUMPI DUP1 PUSH4 0xF43B9ABE EQ PUSH2 0x8C JUMPI JUMPDEST PUSH1 0x0 DUP1 REVERT JUMPDEST PUSH2 0x63 PUSH2 0x5E CALLDATASIZE PUSH1 0x4 PUSH2 0x33A JUMP JUMPDEST PUSH2 0x9F JUMP JUMPDEST PUSH1 0x40 MLOAD PUSH2 0x70 SWAP2 SWAP1 PUSH2 0x3D9 JUMP JUMPDEST PUSH1 0x40 MLOAD DUP1 SWAP2 SUB SWAP1 RETURN JUMPDEST PUSH2 0x63 PUSH2 0x87 CALLDATASIZE PUSH1 0x4 PUSH2 0x33A JUMP JUMPDEST PUSH2 0x12B JUMP JUMPDEST PUSH2 0x63 PUSH2 0x9A CALLDATASIZE PUSH1 0x4 PUSH2 0x3A9 JUMP JUMPDEST PUSH2 0x1DA JUMP JUMPDEST PUSH1 0x0 DUP1 DUP4 DUP4 PUSH1 0x0 DUP2 DUP2 LT PUSH2 0xC3 JUMPI PUSH4 0x4E487B71 PUSH1 0xE0 SHL PUSH1 0x0 MSTORE PUSH1 0x32 PUSH1 0x4 MSTORE PUSH1 0x24 PUSH1 0x0 REVERT JUMPDEST SWAP1 POP PUSH1 0x20 MUL ADD CALLDATALOAD SWAP1 POP PUSH1 0x0 PUSH1 0x1 SWAP1 POP JUMPDEST DUP4 DUP2 LT ISZERO PUSH2 0x121 JUMPI DUP5 DUP5 DUP3 DUP2 DUP2 LT PUSH2 0xFB JUMPI PUSH4 0x4E487B71 PUSH1 0xE0 SHL PUSH1 0x0 MSTORE PUSH1 0x32 PUSH1 0x4 MSTORE PUSH1 0x24 PUSH1 0x0 REVERT JUMPDEST SWAP1 POP PUSH1 0x20 MUL ADD CALLDATALOAD DUP3 PUSH2 0x10D SWAP2 SWAP1 PUSH2 0x3E2 JUMP JUMPDEST SWAP2 POP DUP1 PUSH2 0x119 DUP2 PUSH2 0x401 JUMP JUMPDEST SWAP2 POP POP PUSH2 0xD3 JUMP JUMPDEST POP SWAP1 POP JUMPDEST SWAP3 SWAP2 POP POP JUMP JUMPDEST PUSH1 0x0 DUP1 DUP4 DUP4 PUSH1 0x0 DUP2 DUP2 LT PUSH2 0x14F JUMPI PUSH4 0x4E487B71 PUSH1 0xE0 SHL PUSH1 0x0 MSTORE PUSH1 0x32 PUSH1 0x4 MSTORE PUSH1 0x24 PUSH1 0x0 REVERT JUMPDEST SWAP1 POP PUSH1 0x20 MUL ADD CALLDATALOAD SWAP1 POP PUSH1 0x0 PUSH1 0x1 SWAP1 POP JUMPDEST PUSH1 0xFF DUP2 AND DUP5 GT ISZERO PUSH2 0x121 JUMPI DUP5 DUP5 DUP3 PUSH1 0xFF AND DUP2 DUP2 LT PUSH2 0x18D JUMPI PUSH4 0x4E487B71 PUSH1 0xE0 SHL PUSH1 0x0 MSTORE PUSH1 0x32 PUSH1 0x4 MSTORE PUSH1 0x24 PUSH1 0x0 REVERT JUMPDEST SWAP1 POP PUSH1 0x20 MUL ADD CALLDATALOAD DUP3 GT ISZERO PUSH2 0x1C8 JUMPI DUP5 DUP5 DUP3 PUSH1 0xFF AND DUP2 DUP2 LT PUSH2 0x1BE JUMPI PUSH4 0x4E487B71 PUSH1 0xE0 SHL PUSH1 0x0 MSTORE PUSH1 0x32 PUSH1 0x4 MSTORE PUSH1 0x24 PUSH1 0x0 REVERT JUMPDEST SWAP1 POP PUSH1 0x20 MUL ADD CALLDATALOAD SWAP2 POP JUMPDEST DUP1 PUSH2 0x1D2 DUP2 PUSH2 0x41C JUMP JUMPDEST SWAP2 POP POP PUSH2 0x15F JUMP JUMPDEST PUSH1 0x0 DUP3 PUSH1 0xFF AND PUSH1 0x2 EQ ISZERO PUSH2 0x1F8 JUMPI PUSH2 0x1F1 DUP3 PUSH2 0x201 JUMP JUMPDEST SWAP1 POP PUSH2 0x125 JUMP JUMPDEST PUSH2 0x1F1 DUP3 PUSH2 0x2DA JUMP JUMPDEST PUSH1 0x1 DUP2 PUSH1 0x1 PUSH1 0x80 SHL DUP2 LT PUSH2 0x21A JUMPI PUSH1 0x40 SWAP2 SWAP1 SWAP2 SHL SWAP1 PUSH1 0x80 SHR JUMPDEST PUSH9 0x10000000000000000 DUP2 LT PUSH2 0x235 JUMPI PUSH1 0x20 SWAP2 SWAP1 SWAP2 SHL SWAP1 PUSH1 0x40 SHR JUMPDEST PUSH5 0x100000000 DUP2 LT PUSH2 0x24C JUMPI PUSH1 0x10 SWAP2 SWAP1 SWAP2 SHL SWAP1 PUSH1 0x20 SHR JUMPDEST PUSH3 0x10000 DUP2 LT PUSH2 0x261 JUMPI PUSH1 0x8 SWAP2 SWAP1 SWAP2 SHL SWAP1 PUSH1 0x10 SHR JUMPDEST PUSH2 0x100 DUP2 LT PUSH2 0x275 JUMPI PUSH1 0x4 SWAP2 SWAP1 SWAP2 SHL SWAP1 PUSH1 0x8 SHR JUMPDEST PUSH1 0x10 DUP2 LT PUSH2 0x288 JUMPI PUSH1 0x2 SWAP2 SWAP1 SWAP2 SHL SWAP1 PUSH1 0x4 SHR JUMPDEST PUSH1 0x8 DUP2 LT PUSH2 0x297 JUMPI DUP2 PUSH1 0x1 SHL SWAP2 POP JUMPDEST POP DUP1 DUP3 DIV ADD PUSH1 0x1 SWAP1 DUP2 SHR DUP1 DUP4 DIV ADD DUP2 SHR DUP1 DUP4 DIV ADD DUP2 SHR DUP1 DUP4 DIV ADD DUP2 SHR DUP1 DUP4 DIV ADD DUP2 SHR DUP1 DUP4 DIV ADD DUP2 SHR DUP1 DUP4 DIV ADD SWAP1 SHR DUP1 DUP3 DIV DUP2 DUP2 LT ISZERO PUSH2 0x2D4 JUMPI DUP1 SWAP2 POP JUMPDEST POP SWAP2 SWAP1 POP JUMP JUMPDEST PUSH1 0x0 DUP1 PUSH1 0x1 PUSH1 0xFF SHL JUMPDEST DUP1 ISZERO PUSH2 0x333 JUMPI PUSH1 0x1 SWAP2 DUP3 SHL SWAP2 DUP3 DUP2 ADD DUP4 MUL PUSH1 0x3 MUL ADD DUP1 DUP3 DUP7 DUP2 PUSH2 0x316 JUMPI PUSH4 0x4E487B71 PUSH1 0xE0 SHL PUSH1 0x0 MSTORE PUSH1 0x12 PUSH1 0x4 MSTORE PUSH1 0x24 PUSH1 0x0 REVERT JUMPDEST DIV LT PUSH2 0x32A JUMPI DUP1 DUP3 MUL DUP6 SUB SWAP5 POP PUSH1 0x1 DUP4 ADD SWAP3 POP JUMPDEST POP PUSH1 0x3 SHR PUSH2 0x2E3 JUMP JUMPDEST POP SWAP3 SWAP2 POP POP JUMP JUMPDEST PUSH1 0x0 DUP1 PUSH1 0x20 DUP4 DUP6 SUB SLT ISZERO PUSH2 0x34C JUMPI DUP2 DUP3 REVERT JUMPDEST DUP3 CALLDATALOAD PUSH8 0xFFFFFFFFFFFFFFFF DUP1 DUP3 GT ISZERO PUSH2 0x363 JUMPI DUP4 DUP5 REVERT JUMPDEST DUP2 DUP6 ADD SWAP2 POP DUP6 PUSH1 0x1F DUP4 ADD SLT PUSH2 0x376 JUMPI DUP4 DUP5 REVERT JUMPDEST DUP2 CALLDATALOAD DUP2 DUP2 GT ISZERO PUSH2 0x384 JUMPI DUP5 DUP6 REVERT JUMPDEST DUP7 PUSH1 0x20 DUP1 DUP4 MUL DUP6 ADD ADD GT ISZERO PUSH2 0x397 JUMPI DUP5 DUP6 REVERT JUMPDEST PUSH1 0x20 SWAP3 SWAP1 SWAP3 ADD SWAP7 SWAP2 SWAP6 POP SWAP1 SWAP4 POP POP POP POP JUMP JUMPDEST PUSH1 0x0 DUP1 PUSH1 0x40 DUP4 DUP6 SUB SLT ISZERO PUSH2 0x3BB JUMPI DUP1 DUP2 REVERT JUMPDEST DUP3 CALLDATALOAD PUSH1 0xFF DUP2 AND DUP2 EQ PUSH2 0x3CB JUMPI DUP2 DUP3 REVERT JUMPDEST SWAP5 PUSH1 0x20 SWAP4 SWAP1 SWAP4 ADD CALLDATALOAD SWAP4 POP POP POP JUMP JUMPDEST SWAP1 DUP2 MSTORE PUSH1 0x20 ADD SWAP1 JUMP JUMPDEST PUSH1 0x0 DUP2 PUSH1 0x0 NOT DIV DUP4 GT DUP3 ISZERO ISZERO AND ISZERO PUSH2 0x3FC JUMPI PUSH2 0x3FC PUSH2 0x43C JUMP JUMPDEST POP MUL SWAP1 JUMP JUMPDEST PUSH1 0x0 PUSH1 0x0 NOT DUP3 EQ ISZERO PUSH2 0x415 JUMPI PUSH2 0x415 PUSH2 0x43C JUMP JUMPDEST POP PUSH1 0x1 ADD SWAP1 JUMP JUMPDEST PUSH1 0x0 PUSH1 0xFF DUP3 AND PUSH1 0xFF DUP2 EQ ISZERO PUSH2 0x433 JUMPI PUSH2 0x433 PUSH2 0x43C JUMP JUMPDEST PUSH1 0x1 ADD SWAP3 SWAP2 POP POP JUMP JUMPDEST PUSH4 0x4E487B71 PUSH1 0xE0 SHL PUSH1 0x0 MSTORE PUSH1 0x11 PUSH1 0x4 MSTORE PUSH1 0x24 PUSH1 0x0 REVERT INVALID LOG2 PUSH5 0x6970667358 0x22 SLT KECCAK256 SLOAD PUSH11 0x8D78AAE6409DD6FB516754 0xD5 0xB0 JUMPDEST KECCAK256 DUP5 MSIZE 0xD1 0x2E ISZERO 0xE1 0xC2 0x2A DUP13 XOR PUSH12 0x30BC55764736F6C63430008 STOP STOP CALLER "},"gasEstimates":{"creation":{"codeDepositCost":"232000","executionCost":"306","totalCost":"232306"},"external":{"geometric_mean(uint8,uint256)":"infinite","min(uint256[])":"infinite","product(uint256[])":"infinite"}},"methodIdentifiers":{"geometric_mean(uint8,uint256)":"f43b9abe","min(uint256[])":"d834e619","product(uint256[])":"8e5fede8"}},"storageLayout":{"storage":[],"types":null},"userdoc":{"kind":"user","methods":{},"version":1}}}}