{"contracts/oracles/ConvexOracleV2.sol":{"ConvexOracleV2":{"abi":[{"inputs":[{"internalType":"contract CurveOracleV2","name":"_curve_oracle","type":"address"}],"stateMutability":"nonpayable","type":"constructor"},{"inputs":[{"internalType":"address","name":"curve_pool","type":"address"},{"internalType":"uint256[]","name":"prices","type":"uint256[]"},{"internalType":"uint16","name":"pid","type":"uint16"},{"internalType":"address","name":"convex_lp","type":"address"},{"internalType":"address","name":"curve_lp","type":"address"}],"name":"get_convex_price","outputs":[{"internalType":"uint256","name":"","type":"uint256"}],"stateMutability":"view","type":"function"}],"devdoc":{"kind":"dev","methods":{},"version":1},"evm":{"bytecode":{"linkReferences":{},"object":"608060405234801561001057600080fd5b5060405161036838038061036883398101604081905261002f91610054565b600080546001600160a01b0319166001600160a01b0392909216919091179055610082565b600060208284031215610065578081fd5b81516001600160a01b038116811461007b578182fd5b9392505050565b6102d7806100916000396000f3fe608060405234801561001057600080fd5b506004361061002b5760003560e01c80632a417cc714610030575b600080fd5b61004361003e366004610115565b610059565b6040516100509190610282565b60405180910390f35b600080546040516336e5b51960e11b815282916001600160a01b031690636dcb6a329061008c908a908a9060040161022c565b60206040518083038186803b1580156100a457600080fd5b505afa1580156100b8573d6000803e3d6000fd5b505050506040513d601f19601f820116820180604052508101906100dc9190610214565b979650505050505050565b80356001600160a01b03811681146100fe57600080fd5b919050565b803561ffff811681146100fe57600080fd5b600080600080600060a0868803121561012c578081fd5b610135866100e7565b945060208087013567ffffffffffffffff80821115610152578384fd5b818901915089601f830112610165578384fd5b8135818111156101775761017761028b565b838102604051858282010181811085821117156101965761019661028b565b604052828152858101935084860182860187018e10156101b4578788fd5b8795505b838610156101d65780358552600195909501949386019386016101b8565b508099505050505050506101ec60408701610103565b92506101fa606087016100e7565b9150610208608087016100e7565b90509295509295909350565b600060208284031215610225578081fd5b5051919050565b6001600160a01b038316815260406020808301829052835191830182905260009184820191906060850190845b8181101561027557845183529383019391830191600101610259565b5090979650505050505050565b90815260200190565b634e487b7160e01b600052604160045260246000fdfea2646970667358221220682c868ea4135c481aa51fd389967b4452794ae519e1718bab24b79feff6eb6d64736f6c63430008000033","opcodes":"PUSH1 0x80 PUSH1 0x40 MSTORE CALLVALUE DUP1 ISZERO PUSH2 0x10 JUMPI PUSH1 0x0 DUP1 REVERT JUMPDEST POP PUSH1 0x40 MLOAD PUSH2 0x368 CODESIZE SUB DUP1 PUSH2 0x368 DUP4 CODECOPY DUP2 ADD PUSH1 0x40 DUP2 SWAP1 MSTORE PUSH2 0x2F SWAP2 PUSH2 0x54 JUMP JUMPDEST PUSH1 0x0 DUP1 SLOAD PUSH1 0x1 PUSH1 0x1 PUSH1 0xA0 SHL SUB NOT AND PUSH1 0x1 PUSH1 0x1 PUSH1 0xA0 SHL SUB SWAP3 SWAP1 SWAP3 AND SWAP2 SWAP1 SWAP2 OR SWAP1 SSTORE PUSH2 0x82 JUMP JUMPDEST PUSH1 0x0 PUSH1 0x20 DUP3 DUP5 SUB SLT ISZERO PUSH2 0x65 JUMPI DUP1 DUP2 REVERT JUMPDEST DUP2 MLOAD PUSH1 0x1 PUSH1 0x1 PUSH1 0xA0 SHL SUB DUP2 AND DUP2 EQ PUSH2 0x7B JUMPI DUP2 DUP3 REVERT JUMPDEST SWAP4 SWAP3 POP POP POP JUMP JUMPDEST PUSH2 0x2D7 DUP1 PUSH2 0x91 PUSH1 0x0 CODECOPY PUSH1 0x0 RETURN INVALID PUSH1 0x80 PUSH1 0x40 MSTORE CALLVALUE DUP1 ISZERO PUSH2 0x10 JUMPI PUSH1 0x0 DUP1 REVERT JUMPDEST POP PUSH1 0x4 CALLDATASIZE LT PUSH2 0x2B JUMPI PUSH1 0x0 CALLDATALOAD PUSH1 0xE0 SHR DUP1 PUSH4 0x2A417CC7 EQ PUSH2 0x30 JUMPI JUMPDEST PUSH1 0x0 DUP1 REVERT JUMPDEST PUSH2 0x43 PUSH2 0x3E CALLDATASIZE PUSH1 0x4 PUSH2 0x115 JUMP JUMPDEST PUSH2 0x59 JUMP JUMPDEST PUSH1 0x40 MLOAD PUSH2 0x50 SWAP2 SWAP1 PUSH2 0x282 JUMP JUMPDEST PUSH1 0x40 MLOAD DUP1 SWAP2 SUB SWAP1 RETURN JUMPDEST PUSH1 0x0 DUP1 SLOAD PUSH1 0x40 MLOAD PUSH4 0x36E5B519 PUSH1 0xE1 SHL DUP2 MSTORE DUP3 SWAP2 PUSH1 0x1 PUSH1 0x1 PUSH1 0xA0 SHL SUB AND SWAP1 PUSH4 0x6DCB6A32 SWAP1 PUSH2 0x8C SWAP1 DUP11 SWAP1 DUP11 SWAP1 PUSH1 0x4 ADD PUSH2 0x22C JUMP JUMPDEST PUSH1 0x20 PUSH1 0x40 MLOAD DUP1 DUP4 SUB DUP2 DUP7 DUP1 EXTCODESIZE ISZERO DUP1 ISZERO PUSH2 0xA4 JUMPI PUSH1 0x0 DUP1 REVERT JUMPDEST POP GAS STATICCALL ISZERO DUP1 ISZERO PUSH2 0xB8 JUMPI RETURNDATASIZE PUSH1 0x0 DUP1 RETURNDATACOPY RETURNDATASIZE PUSH1 0x0 REVERT JUMPDEST POP POP POP POP PUSH1 0x40 MLOAD RETURNDATASIZE PUSH1 0x1F NOT PUSH1 0x1F DUP3 ADD AND DUP3 ADD DUP1 PUSH1 0x40 MSTORE POP DUP2 ADD SWAP1 PUSH2 0xDC SWAP2 SWAP1 PUSH2 0x214 JUMP JUMPDEST SWAP8 SWAP7 POP POP POP POP POP POP POP JUMP JUMPDEST DUP1 CALLDATALOAD PUSH1 0x1 PUSH1 0x1 PUSH1 0xA0 SHL SUB DUP2 AND DUP2 EQ PUSH2 0xFE JUMPI PUSH1 0x0 DUP1 REVERT JUMPDEST SWAP2 SWAP1 POP JUMP JUMPDEST DUP1 CALLDATALOAD PUSH2 0xFFFF DUP2 AND DUP2 EQ PUSH2 0xFE JUMPI PUSH1 0x0 DUP1 REVERT JUMPDEST PUSH1 0x0 DUP1 PUSH1 0x0 DUP1 PUSH1 0x0 PUSH1 0xA0 DUP7 DUP9 SUB SLT ISZERO PUSH2 0x12C JUMPI DUP1 DUP2 REVERT JUMPDEST PUSH2 0x135 DUP7 PUSH2 0xE7 JUMP JUMPDEST SWAP5 POP PUSH1 0x20 DUP1 DUP8 ADD CALLDATALOAD PUSH8 0xFFFFFFFFFFFFFFFF DUP1 DUP3 GT ISZERO PUSH2 0x152 JUMPI DUP4 DUP5 REVERT JUMPDEST DUP2 DUP10 ADD SWAP2 POP DUP10 PUSH1 0x1F DUP4 ADD SLT PUSH2 0x165 JUMPI DUP4 DUP5 REVERT JUMPDEST DUP2 CALLDATALOAD DUP2 DUP2 GT ISZERO PUSH2 0x177 JUMPI PUSH2 0x177 PUSH2 0x28B JUMP JUMPDEST DUP4 DUP2 MUL PUSH1 0x40 MLOAD DUP6 DUP3 DUP3 ADD ADD DUP2 DUP2 LT DUP6 DUP3 GT OR ISZERO PUSH2 0x196 JUMPI PUSH2 0x196 PUSH2 0x28B JUMP JUMPDEST PUSH1 0x40 MSTORE DUP3 DUP2 MSTORE DUP6 DUP2 ADD SWAP4 POP DUP5 DUP7 ADD DUP3 DUP7 ADD DUP8 ADD DUP15 LT ISZERO PUSH2 0x1B4 JUMPI DUP8 DUP9 REVERT JUMPDEST DUP8 SWAP6 POP JUMPDEST DUP4 DUP7 LT ISZERO PUSH2 0x1D6 JUMPI DUP1 CALLDATALOAD DUP6 MSTORE PUSH1 0x1 SWAP6 SWAP1 SWAP6 ADD SWAP5 SWAP4 DUP7 ADD SWAP4 DUP7 ADD PUSH2 0x1B8 JUMP JUMPDEST POP DUP1 SWAP10 POP POP POP POP POP POP POP PUSH2 0x1EC PUSH1 0x40 DUP8 ADD PUSH2 0x103 JUMP JUMPDEST SWAP3 POP PUSH2 0x1FA PUSH1 0x60 DUP8 ADD PUSH2 0xE7 JUMP JUMPDEST SWAP2 POP PUSH2 0x208 PUSH1 0x80 DUP8 ADD PUSH2 0xE7 JUMP JUMPDEST SWAP1 POP SWAP3 SWAP6 POP SWAP3 SWAP6 SWAP1 SWAP4 POP JUMP JUMPDEST PUSH1 0x0 PUSH1 0x20 DUP3 DUP5 SUB SLT ISZERO PUSH2 0x225 JUMPI DUP1 DUP2 REVERT JUMPDEST POP MLOAD SWAP2 SWAP1 POP JUMP JUMPDEST PUSH1 0x1 PUSH1 0x1 PUSH1 0xA0 SHL SUB DUP4 AND DUP2 MSTORE PUSH1 0x40 PUSH1 0x20 DUP1 DUP4 ADD DUP3 SWAP1 MSTORE DUP4 MLOAD SWAP2 DUP4 ADD DUP3 SWAP1 MSTORE PUSH1 0x0 SWAP2 DUP5 DUP3 ADD SWAP2 SWAP1 PUSH1 0x60 DUP6 ADD SWAP1 DUP5 JUMPDEST DUP2 DUP2 LT ISZERO PUSH2 0x275 JUMPI DUP5 MLOAD DUP4 MSTORE SWAP4 DUP4 ADD SWAP4 SWAP2 DUP4 ADD SWAP2 PUSH1 0x1 ADD PUSH2 0x259 JUMP JUMPDEST POP SWAP1 SWAP8 SWAP7 POP POP POP POP POP POP POP JUMP JUMPDEST SWAP1 DUP2 MSTORE PUSH1 0x20 ADD SWAP1 JUMP JUMPDEST PUSH4 0x4E487B71 PUSH1 0xE0 SHL PUSH1 0x0 MSTORE PUSH1 0x41 PUSH1 0x4 MSTORE PUSH1 0x24 PUSH1 0x0 REVERT INVALID LOG2 PUSH5 0x6970667358 0x22 SLT KECCAK256 PUSH9 0x2C868EA4135C481AA5 0x1F 0xD3 DUP10 SWAP7 PUSH28 0x4452794AE519E1718BAB24B79FEFF6EB6D64736F6C63430008000033 "},"gasEstimates":{"creation":{"codeDepositCost":"145400","executionCost":"infinite","totalCost":"infinite"},"external":{"get_convex_price(address,uint256[],uint16,address,address)":"infinite"},"internal":{"calculate_convex_price(uint256,uint256,uint256)":"infinite"}},"methodIdentifiers":{"get_convex_price(address,uint256[],uint16,address,address)":"2a417cc7"}},"storageLayout":{"storage":[{"astId":2507,"contract":"contracts/oracles/ConvexOracleV2.sol:ConvexOracleV2","label":"curve_oracle","offset":0,"slot":"0","type":"t_contract(CurveOracleV2)2649"}],"types":{"t_contract(CurveOracleV2)2649":{"encoding":"inplace","label":"contract CurveOracleV2","numberOfBytes":"20"}}},"userdoc":{"kind":"user","methods":{},"version":1}}}}