{"contracts/oracles/CurveWrapper.sol":{"CurveWrapper":{"abi":[{"inputs":[{"internalType":"address","name":"addressProvider","type":"address"},{"internalType":"address","name":"fallbackOracle","type":"address"},{"internalType":"address","name":"baseCurrency","type":"address"},{"internalType":"uint256","name":"baseCurrencyUnit","type":"uint256"}],"stateMutability":"nonpayable","type":"constructor"},{"anonymous":false,"inputs":[{"indexed":true,"internalType":"address","name":"asset","type":"address"},{"indexed":true,"internalType":"address","name":"source","type":"address"}],"name":"AssetSourceUpdated","type":"event"},{"anonymous":false,"inputs":[{"indexed":true,"internalType":"address","name":"baseCurrency","type":"address"},{"indexed":false,"internalType":"uint256","name":"baseCurrencyUnit","type":"uint256"}],"name":"BaseCurrencySet","type":"event"},{"anonymous":false,"inputs":[{"indexed":true,"internalType":"address","name":"fallbackOracle","type":"address"}],"name":"FallbackOracleUpdated","type":"event"},{"anonymous":false,"inputs":[{"indexed":true,"internalType":"address","name":"previousOwner","type":"address"},{"indexed":true,"internalType":"address","name":"newOwner","type":"address"}],"name":"OwnershipTransferred","type":"event"},{"inputs":[],"name":"BASE_CURRENCY","outputs":[{"internalType":"address","name":"","type":"address"}],"stateMutability":"view","type":"function"},{"inputs":[],"name":"BASE_CURRENCY_UNIT","outputs":[{"internalType":"uint256","name":"","type":"uint256"}],"stateMutability":"view","type":"function"},{"inputs":[{"internalType":"address","name":"asset","type":"address"}],"name":"getAssetPrice","outputs":[{"internalType":"uint256","name":"","type":"uint256"}],"stateMutability":"view","type":"function"},{"inputs":[{"internalType":"address[]","name":"assets","type":"address[]"}],"name":"getAssetsPrices","outputs":[{"internalType":"uint256[]","name":"","type":"uint256[]"}],"stateMutability":"view","type":"function"},{"inputs":[],"name":"getFallbackOracle","outputs":[{"internalType":"address","name":"","type":"address"}],"stateMutability":"view","type":"function"},{"inputs":[],"name":"owner","outputs":[{"internalType":"address","name":"","type":"address"}],"stateMutability":"view","type":"function"},{"inputs":[],"name":"renounceOwnership","outputs":[],"stateMutability":"nonpayable","type":"function"},{"inputs":[{"internalType":"address","name":"addressProvider","type":"address"}],"name":"setAddressProvider","outputs":[],"stateMutability":"nonpayable","type":"function"},{"inputs":[{"internalType":"address","name":"fallbackOracle","type":"address"}],"name":"setFallbackOracle","outputs":[],"stateMutability":"nonpayable","type":"function"},{"inputs":[{"internalType":"address","name":"newOwner","type":"address"}],"name":"transferOwnership","outputs":[],"stateMutability":"nonpayable","type":"function"}],"devdoc":{"author":"Aave","kind":"dev","methods":{"constructor":{"params":{"addressProvider":"The address of the vmex address provider (not the curve address provider)","baseCurrency":"the base currency used for the price quotes. If USD is used, base currency is 0x0","baseCurrencyUnit":"the unit of the base currency","fallbackOracle":"The address of the fallback oracle to use if the data of an        aggregator is not consistent"}},"getAssetPrice(address)":{"params":{"asset":"The asset address"}},"getAssetsPrices(address[])":{"params":{"assets":"The list of assets addresses"}},"getFallbackOracle()":{"returns":{"_0":"address The addres of the fallback oracle"}},"owner()":{"details":"Returns the address of the current owner."},"renounceOwnership()":{"details":"Leaves the contract without owner. It will not be possible to call `onlyOwner` functions anymore. Can only be called by the current owner. NOTE: Renouncing ownership will leave the contract without an owner, thereby removing any functionality that is only available to the owner."},"setFallbackOracle(address)":{"params":{"fallbackOracle":"The address of the fallbackOracle"}},"transferOwnership(address)":{"details":"Transfers ownership of the contract to a new account (`newOwner`). Can only be called by the current owner."}},"title":"AaveOracle","version":1},"evm":{"bytecode":{"linkReferences":{},"object":"60c060405234801561001057600080fd5b506040516110cf3803806110cf83398101604081905261002f9161049f565b6000610039610110565b600080546001600160a01b0319166001600160a01b0383169081178255604051929350917f8be0079c531659141344cd1fd0a4f28419497f9722a3daafe3b4186f6b6457e0908290a350600180546001600160a01b0319166001600160a01b0386161790556100a783610114565b6001600160601b0319606083901b1660805260a08190526100c661015e565b816001600160a01b03167fe27c4c1372396a3d15a9922f74f9dfc7c72b1ad6d63868470787249c356454c1826040516100ff91906104e9565b60405180910390a2505050506104f2565b3390565b600280546001600160a01b0319166001600160a01b0383169081179091556040517fce7a780d33665b1ea097af5f155e3821b809ecbaa839d3b33aa83ba28168cefb90600090a250565b7fc3f53dcdaf6e9f09b7534871d74adb7c316f2d5e2ccd5623414aced1da2f9f4480546001600160a01b031990811673d51a44d3fae010294c616388b506acda1bfaae461790915560037f62b955e340611b83592f98955871459fff5f39282c44606ee6f2a2140af6f8c98190557f86294d2e5afad0c29f0ad45ecbdae58ca55370c9282ca6d63287a852438095c58054831673dac17f958d2ee523a2206206994597c13d831ec79081179091557f7cc2dda6f7cda3893cb4cc6a15536ad333b3750e1237f0ab29e1ee723e18c48580548416732260fac5e5542a773aa44fbcfedf7c193bc2c5991790557faa4623dc8891093a66bf7581d4882714e260fda60112ebb8ff4d6a8dbdcf32898054841673c02aaa39b223fe8d0a0e5c4f27ead9083c756cc29081179091557feac489d5fce2cac016ee12cfecd5eeb23412aa5d77cdb3e1d0fab0572adba7b28054851673bebc44782c7db0a1a60cb6fe97d0b483032ff1c71790557fa558d2e0cb48601f95b0ba016a54413646f7bd87e0574db8b5cc52669ce871f6929092557f907a72421b781b2d8be6f368ff319e90649f710da35e370cf38ccc89a836edd780548416736b175474e89094c44da98b954eedeac495271d0f1790557ff0c1d9e17c06ec2b3ae0ade62ff92fb5f71ee7060e179d0f83a99547d9411a1a8054841673a0b86991c6218b36c1d19d4a2e9eb0ce3606eb481790557faf5feb388a4a88f587603820dbf5fd61666f9c0dee4a6935d11a387f39631bd08054841690911790557f72445ed47edb5a6f1596ed0c5dc5bcd49d978815a8dc26762a075571da59c6f88054831673dc24316b9ae028f1497c275eb9192a3ea0f6702217905560027fd208599a79e4b42287c0aba37622f691d3e1fc65f54fe860e8c52c0b3d5604ae557f759c8cea8769272877f76187a5b92b46073aa4ae92b0618fb1ba5cc3905719fc80548316909117905560016000527f7fe3c65e7041a4c6da768cd3f5b742c1e6bd7e02ee075e419e4f47c41f83daaa6020527f8e4c7f9f8f15c1265e3e67750b71ffe46408a2e14c150704b63101e2dc4ae124805490911673ae7ab96520de3a18e5e111b5eaab095312d7fe84179055565b80516001600160a01b038116811461049a57600080fd5b919050565b600080600080608085870312156104b4578384fd5b6104bd85610483565b93506104cb60208601610483565b92506104d960408601610483565b6060959095015193969295505050565b90815260200190565b60805160601c60a051610ba76105286000396000818161028d01526103dc0152600081816103a1015261078b0152610ba76000f3fe608060405234801561001057600080fd5b506004361061009e5760003560e01c80638da5cb5b116100665780638da5cb5b146101065780639d23d9f21461010e578063b3596f071461012e578063e19f470014610141578063f2fde38b146101495761009e565b8063170aee73146100a35780631a5fa2e3146100b85780636210308c146100cb578063715018a6146100e95780638c89b64f146100f1575b600080fd5b6100b66100b13660046108b1565b61015c565b005b6100b66100c63660046108b1565b6101a6565b6100d36101fd565b6040516100e091906109b1565b60405180910390f35b6100b661020c565b6100f961028b565b6040516100e09190610b2c565b6100d36102af565b61012161011c3660046108f0565b6102be565b6040516100e091906109f1565b6100f961013c3660046108b1565b61039d565b6100d3610789565b6100b66101573660046108b1565b6107ad565b610164610863565b6000546001600160a01b0390811691161461019a5760405162461bcd60e51b815260040161019190610ac0565b60405180910390fd5b6101a381610867565b50565b6101ae610863565b6000546001600160a01b039081169116146101db5760405162461bcd60e51b815260040161019190610ac0565b600180546001600160a01b0319166001600160a01b0392909216919091179055565b6002546001600160a01b031690565b610214610863565b6000546001600160a01b039081169116146102415760405162461bcd60e51b815260040161019190610ac0565b600080546040516001600160a01b03909116907f8be0079c531659141344cd1fd0a4f28419497f9722a3daafe3b4186f6b6457e0908390a3600080546001600160a01b0319169055565b7f000000000000000000000000000000000000000000000000000000000000000081565b6000546001600160a01b031690565b606060008267ffffffffffffffff8111156102e957634e487b7160e01b600052604160045260246000fd5b604051908082528060200260200182016040528015610312578160200160208202803683370190505b50905060005b838110156103955761035885858381811061034357634e487b7160e01b600052603260045260246000fd5b905060200201602081019061013c91906108b1565b82828151811061037857634e487b7160e01b600052603260045260246000fd5b60209081029190910101528061038d81610b35565b915050610318565b509392505050565b60007f00000000000000000000000000000000000000000000000000000000000000006001600160a01b0316826001600160a01b0316141561040057507f0000000000000000000000000000000000000000000000000000000000000000610784565b6001600160a01b03808316600090815260036020908152604080832054909316808352600490915291812054908167ffffffffffffffff81111561045457634e487b7160e01b600052604160045260246000fd5b60405190808252806020026020018201604052801561047d578160200160208202803683370190505b5090506000600160009054906101000a90046001600160a01b03166001600160a01b031663f139dc816040518163ffffffff1660e01b815260040160206040518083038186803b1580156104d057600080fd5b505afa1580156104e4573d6000803e3d6000fd5b505050506040513d601f19601f8201168201806040525081019061050891906108d4565b905060005b8381101561065a576001600160a01b03808616600090815260056020908152604080832085845290915290205416806105585760405162461bcd60e51b815260040161019190610af5565b60405163b3596f0760e01b81526001600160a01b0384169063b3596f07906105849084906004016109b1565b60206040518083038186803b15801561059c57600080fd5b505afa1580156105b0573d6000803e3d6000fd5b505050506040513d601f19601f820116820180604052508101906105d4919061095f565b8483815181106105f457634e487b7160e01b600052603260045260246000fd5b602002602001018181525050600084838151811061062257634e487b7160e01b600052603260045260246000fd5b6020026020010151116106475760405162461bcd60e51b815260040161019190610a4a565b508061065281610b35565b91505061050d565b506001546040805163ba61fe3160e01b815290516000926001600160a01b03169163ba61fe31916004808301926020929190829003018186803b1580156106a057600080fd5b505afa1580156106b4573d6000803e3d6000fd5b505050506040513d601f19601f820116820180604052508101906106d891906108d4565b90506000816001600160a01b0316636dcb6a3287866040518363ffffffff1660e01b815260040161070a9291906109c5565b60206040518083038186803b15801561072257600080fd5b505afa158015610736573d6000803e3d6000fd5b505050506040513d601f19601f8201168201806040525081019061075a919061095f565b90506000811161077c5760405162461bcd60e51b815260040161019190610a7f565b955050505050505b919050565b7f000000000000000000000000000000000000000000000000000000000000000081565b6107b5610863565b6000546001600160a01b039081169116146107e25760405162461bcd60e51b815260040161019190610ac0565b6001600160a01b0381166108085760405162461bcd60e51b815260040161019190610a04565b600080546040516001600160a01b03808516939216917f8be0079c531659141344cd1fd0a4f28419497f9722a3daafe3b4186f6b6457e091a3600080546001600160a01b0319166001600160a01b0392909216919091179055565b3390565b600280546001600160a01b0319166001600160a01b0383169081179091556040517fce7a780d33665b1ea097af5f155e3821b809ecbaa839d3b33aa83ba28168cefb90600090a250565b6000602082840312156108c2578081fd5b81356108cd81610b5c565b9392505050565b6000602082840312156108e5578081fd5b81516108cd81610b5c565b60008060208385031215610902578081fd5b823567ffffffffffffffff80821115610919578283fd5b818501915085601f83011261092c578283fd5b81358181111561093a578384fd5b866020808302850101111561094d578384fd5b60209290920196919550909350505050565b600060208284031215610970578081fd5b5051919050565b6000815180845260208085019450808401835b838110156109a65781518752958201959082019060010161098a565b509495945050505050565b6001600160a01b0391909116815260200190565b6001600160a01b03831681526040602082018190526000906109e990830184610977565b949350505050565b6000602082526108cd6020830184610977565b60208082526026908201527f4f776e61626c653a206e6577206f776e657220697320746865207a65726f206160408201526564647265737360d01b606082015260800190565b6020808252818101527f61617665206f7261636c6520656e636f756e746572656420616e206572726f72604082015260600190565b60208082526021908201527f4375727665206f7261636c6520656e636f756e746572656420616e206572726f6040820152603960f91b606082015260800190565b6020808252818101527f4f776e61626c653a2063616c6c6572206973206e6f7420746865206f776e6572604082015260600190565b60208082526018908201527f756e6465726c79696e6720746f6b656e206973206e756c6c0000000000000000604082015260600190565b90815260200190565b6000600019821415610b5557634e487b7160e01b81526011600452602481fd5b5060010190565b6001600160a01b03811681146101a357600080fdfea2646970667358221220313c8a93ac8237b1b6133a207928018c3da2dbbed21f659cca8e27392f735b3464736f6c63430008000033","opcodes":"PUSH1 0xC0 PUSH1 0x40 MSTORE CALLVALUE DUP1 ISZERO PUSH2 0x10 JUMPI PUSH1 0x0 DUP1 REVERT JUMPDEST POP PUSH1 0x40 MLOAD PUSH2 0x10CF CODESIZE SUB DUP1 PUSH2 0x10CF DUP4 CODECOPY DUP2 ADD PUSH1 0x40 DUP2 SWAP1 MSTORE PUSH2 0x2F SWAP2 PUSH2 0x49F JUMP JUMPDEST PUSH1 0x0 PUSH2 0x39 PUSH2 0x110 JUMP JUMPDEST PUSH1 0x0 DUP1 SLOAD PUSH1 0x1 PUSH1 0x1 PUSH1 0xA0 SHL SUB NOT AND PUSH1 0x1 PUSH1 0x1 PUSH1 0xA0 SHL SUB DUP4 AND SWAP1 DUP2 OR DUP3 SSTORE PUSH1 0x40 MLOAD SWAP3 SWAP4 POP SWAP2 PUSH32 0x8BE0079C531659141344CD1FD0A4F28419497F9722A3DAAFE3B4186F6B6457E0 SWAP1 DUP3 SWAP1 LOG3 POP PUSH1 0x1 DUP1 SLOAD PUSH1 0x1 PUSH1 0x1 PUSH1 0xA0 SHL SUB NOT AND PUSH1 0x1 PUSH1 0x1 PUSH1 0xA0 SHL SUB DUP7 AND OR SWAP1 SSTORE PUSH2 0xA7 DUP4 PUSH2 0x114 JUMP JUMPDEST PUSH1 0x1 PUSH1 0x1 PUSH1 0x60 SHL SUB NOT PUSH1 0x60 DUP4 SWAP1 SHL AND PUSH1 0x80 MSTORE PUSH1 0xA0 DUP2 SWAP1 MSTORE PUSH2 0xC6 PUSH2 0x15E JUMP JUMPDEST DUP2 PUSH1 0x1 PUSH1 0x1 PUSH1 0xA0 SHL SUB AND PUSH32 0xE27C4C1372396A3D15A9922F74F9DFC7C72B1AD6D63868470787249C356454C1 DUP3 PUSH1 0x40 MLOAD PUSH2 0xFF SWAP2 SWAP1 PUSH2 0x4E9 JUMP JUMPDEST PUSH1 0x40 MLOAD DUP1 SWAP2 SUB SWAP1 LOG2 POP POP POP POP PUSH2 0x4F2 JUMP JUMPDEST CALLER SWAP1 JUMP JUMPDEST PUSH1 0x2 DUP1 SLOAD PUSH1 0x1 PUSH1 0x1 PUSH1 0xA0 SHL SUB NOT AND PUSH1 0x1 PUSH1 0x1 PUSH1 0xA0 SHL SUB DUP4 AND SWAP1 DUP2 OR SWAP1 SWAP2 SSTORE PUSH1 0x40 MLOAD PUSH32 0xCE7A780D33665B1EA097AF5F155E3821B809ECBAA839D3B33AA83BA28168CEFB SWAP1 PUSH1 0x0 SWAP1 LOG2 POP JUMP JUMPDEST PUSH32 0xC3F53DCDAF6E9F09B7534871D74ADB7C316F2D5E2CCD5623414ACED1DA2F9F44 DUP1 SLOAD PUSH1 0x1 PUSH1 0x1 PUSH1 0xA0 SHL SUB NOT SWAP1 DUP2 AND PUSH20 0xD51A44D3FAE010294C616388B506ACDA1BFAAE46 OR SWAP1 SWAP2 SSTORE PUSH1 0x3 PUSH32 0x62B955E340611B83592F98955871459FFF5F39282C44606EE6F2A2140AF6F8C9 DUP2 SWAP1 SSTORE PUSH32 0x86294D2E5AFAD0C29F0AD45ECBDAE58CA55370C9282CA6D63287A852438095C5 DUP1 SLOAD DUP4 AND PUSH20 0xDAC17F958D2EE523A2206206994597C13D831EC7 SWAP1 DUP2 OR SWAP1 SWAP2 SSTORE PUSH32 0x7CC2DDA6F7CDA3893CB4CC6A15536AD333B3750E1237F0AB29E1EE723E18C485 DUP1 SLOAD DUP5 AND PUSH20 0x2260FAC5E5542A773AA44FBCFEDF7C193BC2C599 OR SWAP1 SSTORE PUSH32 0xAA4623DC8891093A66BF7581D4882714E260FDA60112EBB8FF4D6A8DBDCF3289 DUP1 SLOAD DUP5 AND PUSH20 0xC02AAA39B223FE8D0A0E5C4F27EAD9083C756CC2 SWAP1 DUP2 OR SWAP1 SWAP2 SSTORE PUSH32 0xEAC489D5FCE2CAC016EE12CFECD5EEB23412AA5D77CDB3E1D0FAB0572ADBA7B2 DUP1 SLOAD DUP6 AND PUSH20 0xBEBC44782C7DB0A1A60CB6FE97D0B483032FF1C7 OR SWAP1 SSTORE PUSH32 0xA558D2E0CB48601F95B0BA016A54413646F7BD87E0574DB8B5CC52669CE871F6 SWAP3 SWAP1 SWAP3 SSTORE PUSH32 0x907A72421B781B2D8BE6F368FF319E90649F710DA35E370CF38CCC89A836EDD7 DUP1 SLOAD DUP5 AND PUSH20 0x6B175474E89094C44DA98B954EEDEAC495271D0F OR SWAP1 SSTORE PUSH32 0xF0C1D9E17C06EC2B3AE0ADE62FF92FB5F71EE7060E179D0F83A99547D9411A1A DUP1 SLOAD DUP5 AND PUSH20 0xA0B86991C6218B36C1D19D4A2E9EB0CE3606EB48 OR SWAP1 SSTORE PUSH32 0xAF5FEB388A4A88F587603820DBF5FD61666F9C0DEE4A6935D11A387F39631BD0 DUP1 SLOAD DUP5 AND SWAP1 SWAP2 OR SWAP1 SSTORE PUSH32 0x72445ED47EDB5A6F1596ED0C5DC5BCD49D978815A8DC26762A075571DA59C6F8 DUP1 SLOAD DUP4 AND PUSH20 0xDC24316B9AE028F1497C275EB9192A3EA0F67022 OR SWAP1 SSTORE PUSH1 0x2 PUSH32 0xD208599A79E4B42287C0ABA37622F691D3E1FC65F54FE860E8C52C0B3D5604AE SSTORE PUSH32 0x759C8CEA8769272877F76187A5B92B46073AA4AE92B0618FB1BA5CC3905719FC DUP1 SLOAD DUP4 AND SWAP1 SWAP2 OR SWAP1 SSTORE PUSH1 0x1 PUSH1 0x0 MSTORE PUSH32 0x7FE3C65E7041A4C6DA768CD3F5B742C1E6BD7E02EE075E419E4F47C41F83DAAA PUSH1 0x20 MSTORE PUSH32 0x8E4C7F9F8F15C1265E3E67750B71FFE46408A2E14C150704B63101E2DC4AE124 DUP1 SLOAD SWAP1 SWAP2 AND PUSH20 0xAE7AB96520DE3A18E5E111B5EAAB095312D7FE84 OR SWAP1 SSTORE JUMP JUMPDEST DUP1 MLOAD PUSH1 0x1 PUSH1 0x1 PUSH1 0xA0 SHL SUB DUP2 AND DUP2 EQ PUSH2 0x49A JUMPI PUSH1 0x0 DUP1 REVERT JUMPDEST SWAP2 SWAP1 POP JUMP JUMPDEST PUSH1 0x0 DUP1 PUSH1 0x0 DUP1 PUSH1 0x80 DUP6 DUP8 SUB SLT ISZERO PUSH2 0x4B4 JUMPI DUP4 DUP5 REVERT JUMPDEST PUSH2 0x4BD DUP6 PUSH2 0x483 JUMP JUMPDEST SWAP4 POP PUSH2 0x4CB PUSH1 0x20 DUP7 ADD PUSH2 0x483 JUMP JUMPDEST SWAP3 POP PUSH2 0x4D9 PUSH1 0x40 DUP7 ADD PUSH2 0x483 JUMP JUMPDEST PUSH1 0x60 SWAP6 SWAP1 SWAP6 ADD MLOAD SWAP4 SWAP7 SWAP3 SWAP6 POP POP POP JUMP JUMPDEST SWAP1 DUP2 MSTORE PUSH1 0x20 ADD SWAP1 JUMP JUMPDEST PUSH1 0x80 MLOAD PUSH1 0x60 SHR PUSH1 0xA0 MLOAD PUSH2 0xBA7 PUSH2 0x528 PUSH1 0x0 CODECOPY PUSH1 0x0 DUP2 DUP2 PUSH2 0x28D ADD MSTORE PUSH2 0x3DC ADD MSTORE PUSH1 0x0 DUP2 DUP2 PUSH2 0x3A1 ADD MSTORE PUSH2 0x78B ADD MSTORE PUSH2 0xBA7 PUSH1 0x0 RETURN INVALID PUSH1 0x80 PUSH1 0x40 MSTORE CALLVALUE DUP1 ISZERO PUSH2 0x10 JUMPI PUSH1 0x0 DUP1 REVERT JUMPDEST POP PUSH1 0x4 CALLDATASIZE LT PUSH2 0x9E JUMPI PUSH1 0x0 CALLDATALOAD PUSH1 0xE0 SHR DUP1 PUSH4 0x8DA5CB5B GT PUSH2 0x66 JUMPI DUP1 PUSH4 0x8DA5CB5B EQ PUSH2 0x106 JUMPI DUP1 PUSH4 0x9D23D9F2 EQ PUSH2 0x10E JUMPI DUP1 PUSH4 0xB3596F07 EQ PUSH2 0x12E JUMPI DUP1 PUSH4 0xE19F4700 EQ PUSH2 0x141 JUMPI DUP1 PUSH4 0xF2FDE38B EQ PUSH2 0x149 JUMPI PUSH2 0x9E JUMP JUMPDEST DUP1 PUSH4 0x170AEE73 EQ PUSH2 0xA3 JUMPI DUP1 PUSH4 0x1A5FA2E3 EQ PUSH2 0xB8 JUMPI DUP1 PUSH4 0x6210308C EQ PUSH2 0xCB JUMPI DUP1 PUSH4 0x715018A6 EQ PUSH2 0xE9 JUMPI DUP1 PUSH4 0x8C89B64F EQ PUSH2 0xF1 JUMPI JUMPDEST PUSH1 0x0 DUP1 REVERT JUMPDEST PUSH2 0xB6 PUSH2 0xB1 CALLDATASIZE PUSH1 0x4 PUSH2 0x8B1 JUMP JUMPDEST PUSH2 0x15C JUMP JUMPDEST STOP JUMPDEST PUSH2 0xB6 PUSH2 0xC6 CALLDATASIZE PUSH1 0x4 PUSH2 0x8B1 JUMP JUMPDEST PUSH2 0x1A6 JUMP JUMPDEST PUSH2 0xD3 PUSH2 0x1FD JUMP JUMPDEST PUSH1 0x40 MLOAD PUSH2 0xE0 SWAP2 SWAP1 PUSH2 0x9B1 JUMP JUMPDEST PUSH1 0x40 MLOAD DUP1 SWAP2 SUB SWAP1 RETURN JUMPDEST PUSH2 0xB6 PUSH2 0x20C JUMP JUMPDEST PUSH2 0xF9 PUSH2 0x28B JUMP JUMPDEST PUSH1 0x40 MLOAD PUSH2 0xE0 SWAP2 SWAP1 PUSH2 0xB2C JUMP JUMPDEST PUSH2 0xD3 PUSH2 0x2AF JUMP JUMPDEST PUSH2 0x121 PUSH2 0x11C CALLDATASIZE PUSH1 0x4 PUSH2 0x8F0 JUMP JUMPDEST PUSH2 0x2BE JUMP JUMPDEST PUSH1 0x40 MLOAD PUSH2 0xE0 SWAP2 SWAP1 PUSH2 0x9F1 JUMP JUMPDEST PUSH2 0xF9 PUSH2 0x13C CALLDATASIZE PUSH1 0x4 PUSH2 0x8B1 JUMP JUMPDEST PUSH2 0x39D JUMP JUMPDEST PUSH2 0xD3 PUSH2 0x789 JUMP JUMPDEST PUSH2 0xB6 PUSH2 0x157 CALLDATASIZE PUSH1 0x4 PUSH2 0x8B1 JUMP JUMPDEST PUSH2 0x7AD JUMP JUMPDEST PUSH2 0x164 PUSH2 0x863 JUMP JUMPDEST PUSH1 0x0 SLOAD PUSH1 0x1 PUSH1 0x1 PUSH1 0xA0 SHL SUB SWAP1 DUP2 AND SWAP2 AND EQ PUSH2 0x19A JUMPI PUSH1 0x40 MLOAD PUSH3 0x461BCD PUSH1 0xE5 SHL DUP2 MSTORE PUSH1 0x4 ADD PUSH2 0x191 SWAP1 PUSH2 0xAC0 JUMP JUMPDEST PUSH1 0x40 MLOAD DUP1 SWAP2 SUB SWAP1 REVERT JUMPDEST PUSH2 0x1A3 DUP2 PUSH2 0x867 JUMP JUMPDEST POP JUMP JUMPDEST PUSH2 0x1AE PUSH2 0x863 JUMP JUMPDEST PUSH1 0x0 SLOAD PUSH1 0x1 PUSH1 0x1 PUSH1 0xA0 SHL SUB SWAP1 DUP2 AND SWAP2 AND EQ PUSH2 0x1DB JUMPI PUSH1 0x40 MLOAD PUSH3 0x461BCD PUSH1 0xE5 SHL DUP2 MSTORE PUSH1 0x4 ADD PUSH2 0x191 SWAP1 PUSH2 0xAC0 JUMP JUMPDEST PUSH1 0x1 DUP1 SLOAD PUSH1 0x1 PUSH1 0x1 PUSH1 0xA0 SHL SUB NOT AND PUSH1 0x1 PUSH1 0x1 PUSH1 0xA0 SHL SUB SWAP3 SWAP1 SWAP3 AND SWAP2 SWAP1 SWAP2 OR SWAP1 SSTORE JUMP JUMPDEST PUSH1 0x2 SLOAD PUSH1 0x1 PUSH1 0x1 PUSH1 0xA0 SHL SUB AND SWAP1 JUMP JUMPDEST PUSH2 0x214 PUSH2 0x863 JUMP JUMPDEST PUSH1 0x0 SLOAD PUSH1 0x1 PUSH1 0x1 PUSH1 0xA0 SHL SUB SWAP1 DUP2 AND SWAP2 AND EQ PUSH2 0x241 JUMPI PUSH1 0x40 MLOAD PUSH3 0x461BCD PUSH1 0xE5 SHL DUP2 MSTORE PUSH1 0x4 ADD PUSH2 0x191 SWAP1 PUSH2 0xAC0 JUMP JUMPDEST PUSH1 0x0 DUP1 SLOAD PUSH1 0x40 MLOAD PUSH1 0x1 PUSH1 0x1 PUSH1 0xA0 SHL SUB SWAP1 SWAP2 AND SWAP1 PUSH32 0x8BE0079C531659141344CD1FD0A4F28419497F9722A3DAAFE3B4186F6B6457E0 SWAP1 DUP4 SWAP1 LOG3 PUSH1 0x0 DUP1 SLOAD PUSH1 0x1 PUSH1 0x1 PUSH1 0xA0 SHL SUB NOT AND SWAP1 SSTORE JUMP JUMPDEST PUSH32 0x0 DUP2 JUMP JUMPDEST PUSH1 0x0 SLOAD PUSH1 0x1 PUSH1 0x1 PUSH1 0xA0 SHL SUB AND SWAP1 JUMP JUMPDEST PUSH1 0x60 PUSH1 0x0 DUP3 PUSH8 0xFFFFFFFFFFFFFFFF DUP2 GT ISZERO PUSH2 0x2E9 JUMPI PUSH4 0x4E487B71 PUSH1 0xE0 SHL PUSH1 0x0 MSTORE PUSH1 0x41 PUSH1 0x4 MSTORE PUSH1 0x24 PUSH1 0x0 REVERT JUMPDEST PUSH1 0x40 MLOAD SWAP1 DUP1 DUP3 MSTORE DUP1 PUSH1 0x20 MUL PUSH1 0x20 ADD DUP3 ADD PUSH1 0x40 MSTORE DUP1 ISZERO PUSH2 0x312 JUMPI DUP2 PUSH1 0x20 ADD PUSH1 0x20 DUP3 MUL DUP1 CALLDATASIZE DUP4 CALLDATACOPY ADD SWAP1 POP JUMPDEST POP SWAP1 POP PUSH1 0x0 JUMPDEST DUP4 DUP2 LT ISZERO PUSH2 0x395 JUMPI PUSH2 0x358 DUP6 DUP6 DUP4 DUP2 DUP2 LT PUSH2 0x343 JUMPI PUSH4 0x4E487B71 PUSH1 0xE0 SHL PUSH1 0x0 MSTORE PUSH1 0x32 PUSH1 0x4 MSTORE PUSH1 0x24 PUSH1 0x0 REVERT JUMPDEST SWAP1 POP PUSH1 0x20 MUL ADD PUSH1 0x20 DUP2 ADD SWAP1 PUSH2 0x13C SWAP2 SWAP1 PUSH2 0x8B1 JUMP JUMPDEST DUP3 DUP3 DUP2 MLOAD DUP2 LT PUSH2 0x378 JUMPI PUSH4 0x4E487B71 PUSH1 0xE0 SHL PUSH1 0x0 MSTORE PUSH1 0x32 PUSH1 0x4 MSTORE PUSH1 0x24 PUSH1 0x0 REVERT JUMPDEST PUSH1 0x20 SWAP1 DUP2 MUL SWAP2 SWAP1 SWAP2 ADD ADD MSTORE DUP1 PUSH2 0x38D DUP2 PUSH2 0xB35 JUMP JUMPDEST SWAP2 POP POP PUSH2 0x318 JUMP JUMPDEST POP SWAP4 SWAP3 POP POP POP JUMP JUMPDEST PUSH1 0x0 PUSH32 0x0 PUSH1 0x1 PUSH1 0x1 PUSH1 0xA0 SHL SUB AND DUP3 PUSH1 0x1 PUSH1 0x1 PUSH1 0xA0 SHL SUB AND EQ ISZERO PUSH2 0x400 JUMPI POP PUSH32 0x0 PUSH2 0x784 JUMP JUMPDEST PUSH1 0x1 PUSH1 0x1 PUSH1 0xA0 SHL SUB DUP1 DUP4 AND PUSH1 0x0 SWAP1 DUP2 MSTORE PUSH1 0x3 PUSH1 0x20 SWAP1 DUP2 MSTORE PUSH1 0x40 DUP1 DUP4 KECCAK256 SLOAD SWAP1 SWAP4 AND DUP1 DUP4 MSTORE PUSH1 0x4 SWAP1 SWAP2 MSTORE SWAP2 DUP2 KECCAK256 SLOAD SWAP1 DUP2 PUSH8 0xFFFFFFFFFFFFFFFF DUP2 GT ISZERO PUSH2 0x454 JUMPI PUSH4 0x4E487B71 PUSH1 0xE0 SHL PUSH1 0x0 MSTORE PUSH1 0x41 PUSH1 0x4 MSTORE PUSH1 0x24 PUSH1 0x0 REVERT JUMPDEST PUSH1 0x40 MLOAD SWAP1 DUP1 DUP3 MSTORE DUP1 PUSH1 0x20 MUL PUSH1 0x20 ADD DUP3 ADD PUSH1 0x40 MSTORE DUP1 ISZERO PUSH2 0x47D JUMPI DUP2 PUSH1 0x20 ADD PUSH1 0x20 DUP3 MUL DUP1 CALLDATASIZE DUP4 CALLDATACOPY ADD SWAP1 POP JUMPDEST POP SWAP1 POP PUSH1 0x0 PUSH1 0x1 PUSH1 0x0 SWAP1 SLOAD SWAP1 PUSH2 0x100 EXP SWAP1 DIV PUSH1 0x1 PUSH1 0x1 PUSH1 0xA0 SHL SUB AND PUSH1 0x1 PUSH1 0x1 PUSH1 0xA0 SHL SUB AND PUSH4 0xF139DC81 PUSH1 0x40 MLOAD DUP2 PUSH4 0xFFFFFFFF AND PUSH1 0xE0 SHL DUP2 MSTORE PUSH1 0x4 ADD PUSH1 0x20 PUSH1 0x40 MLOAD DUP1 DUP4 SUB DUP2 DUP7 DUP1 EXTCODESIZE ISZERO DUP1 ISZERO PUSH2 0x4D0 JUMPI PUSH1 0x0 DUP1 REVERT JUMPDEST POP GAS STATICCALL ISZERO DUP1 ISZERO PUSH2 0x4E4 JUMPI RETURNDATASIZE PUSH1 0x0 DUP1 RETURNDATACOPY RETURNDATASIZE PUSH1 0x0 REVERT JUMPDEST POP POP POP POP PUSH1 0x40 MLOAD RETURNDATASIZE PUSH1 0x1F NOT PUSH1 0x1F DUP3 ADD AND DUP3 ADD DUP1 PUSH1 0x40 MSTORE POP DUP2 ADD SWAP1 PUSH2 0x508 SWAP2 SWAP1 PUSH2 0x8D4 JUMP JUMPDEST SWAP1 POP PUSH1 0x0 JUMPDEST DUP4 DUP2 LT ISZERO PUSH2 0x65A JUMPI PUSH1 0x1 PUSH1 0x1 PUSH1 0xA0 SHL SUB DUP1 DUP7 AND PUSH1 0x0 SWAP1 DUP2 MSTORE PUSH1 0x5 PUSH1 0x20 SWAP1 DUP2 MSTORE PUSH1 0x40 DUP1 DUP4 KECCAK256 DUP6 DUP5 MSTORE SWAP1 SWAP2 MSTORE SWAP1 KECCAK256 SLOAD AND DUP1 PUSH2 0x558 JUMPI PUSH1 0x40 MLOAD PUSH3 0x461BCD PUSH1 0xE5 SHL DUP2 MSTORE PUSH1 0x4 ADD PUSH2 0x191 SWAP1 PUSH2 0xAF5 JUMP JUMPDEST PUSH1 0x40 MLOAD PUSH4 0xB3596F07 PUSH1 0xE0 SHL DUP2 MSTORE PUSH1 0x1 PUSH1 0x1 PUSH1 0xA0 SHL SUB DUP5 AND SWAP1 PUSH4 0xB3596F07 SWAP1 PUSH2 0x584 SWAP1 DUP5 SWAP1 PUSH1 0x4 ADD PUSH2 0x9B1 JUMP JUMPDEST PUSH1 0x20 PUSH1 0x40 MLOAD DUP1 DUP4 SUB DUP2 DUP7 DUP1 EXTCODESIZE ISZERO DUP1 ISZERO PUSH2 0x59C JUMPI PUSH1 0x0 DUP1 REVERT JUMPDEST POP GAS STATICCALL ISZERO DUP1 ISZERO PUSH2 0x5B0 JUMPI RETURNDATASIZE PUSH1 0x0 DUP1 RETURNDATACOPY RETURNDATASIZE PUSH1 0x0 REVERT JUMPDEST POP POP POP POP PUSH1 0x40 MLOAD RETURNDATASIZE PUSH1 0x1F NOT PUSH1 0x1F DUP3 ADD AND DUP3 ADD DUP1 PUSH1 0x40 MSTORE POP DUP2 ADD SWAP1 PUSH2 0x5D4 SWAP2 SWAP1 PUSH2 0x95F JUMP JUMPDEST DUP5 DUP4 DUP2 MLOAD DUP2 LT PUSH2 0x5F4 JUMPI PUSH4 0x4E487B71 PUSH1 0xE0 SHL PUSH1 0x0 MSTORE PUSH1 0x32 PUSH1 0x4 MSTORE PUSH1 0x24 PUSH1 0x0 REVERT JUMPDEST PUSH1 0x20 MUL PUSH1 0x20 ADD ADD DUP2 DUP2 MSTORE POP POP PUSH1 0x0 DUP5 DUP4 DUP2 MLOAD DUP2 LT PUSH2 0x622 JUMPI PUSH4 0x4E487B71 PUSH1 0xE0 SHL PUSH1 0x0 MSTORE PUSH1 0x32 PUSH1 0x4 MSTORE PUSH1 0x24 PUSH1 0x0 REVERT JUMPDEST PUSH1 0x20 MUL PUSH1 0x20 ADD ADD MLOAD GT PUSH2 0x647 JUMPI PUSH1 0x40 MLOAD PUSH3 0x461BCD PUSH1 0xE5 SHL DUP2 MSTORE PUSH1 0x4 ADD PUSH2 0x191 SWAP1 PUSH2 0xA4A JUMP JUMPDEST POP DUP1 PUSH2 0x652 DUP2 PUSH2 0xB35 JUMP JUMPDEST SWAP2 POP POP PUSH2 0x50D JUMP JUMPDEST POP PUSH1 0x1 SLOAD PUSH1 0x40 DUP1 MLOAD PUSH4 0xBA61FE31 PUSH1 0xE0 SHL DUP2 MSTORE SWAP1 MLOAD PUSH1 0x0 SWAP3 PUSH1 0x1 PUSH1 0x1 PUSH1 0xA0 SHL SUB AND SWAP2 PUSH4 0xBA61FE31 SWAP2 PUSH1 0x4 DUP1 DUP4 ADD SWAP3 PUSH1 0x20 SWAP3 SWAP2 SWAP1 DUP3 SWAP1 SUB ADD DUP2 DUP7 DUP1 EXTCODESIZE ISZERO DUP1 ISZERO PUSH2 0x6A0 JUMPI PUSH1 0x0 DUP1 REVERT JUMPDEST POP GAS STATICCALL ISZERO DUP1 ISZERO PUSH2 0x6B4 JUMPI RETURNDATASIZE PUSH1 0x0 DUP1 RETURNDATACOPY RETURNDATASIZE PUSH1 0x0 REVERT JUMPDEST POP POP POP POP PUSH1 0x40 MLOAD RETURNDATASIZE PUSH1 0x1F NOT PUSH1 0x1F DUP3 ADD AND DUP3 ADD DUP1 PUSH1 0x40 MSTORE POP DUP2 ADD SWAP1 PUSH2 0x6D8 SWAP2 SWAP1 PUSH2 0x8D4 JUMP JUMPDEST SWAP1 POP PUSH1 0x0 DUP2 PUSH1 0x1 PUSH1 0x1 PUSH1 0xA0 SHL SUB AND PUSH4 0x6DCB6A32 DUP8 DUP7 PUSH1 0x40 MLOAD DUP4 PUSH4 0xFFFFFFFF AND PUSH1 0xE0 SHL DUP2 MSTORE PUSH1 0x4 ADD PUSH2 0x70A SWAP3 SWAP2 SWAP1 PUSH2 0x9C5 JUMP JUMPDEST PUSH1 0x20 PUSH1 0x40 MLOAD DUP1 DUP4 SUB DUP2 DUP7 DUP1 EXTCODESIZE ISZERO DUP1 ISZERO PUSH2 0x722 JUMPI PUSH1 0x0 DUP1 REVERT JUMPDEST POP GAS STATICCALL ISZERO DUP1 ISZERO PUSH2 0x736 JUMPI RETURNDATASIZE PUSH1 0x0 DUP1 RETURNDATACOPY RETURNDATASIZE PUSH1 0x0 REVERT JUMPDEST POP POP POP POP PUSH1 0x40 MLOAD RETURNDATASIZE PUSH1 0x1F NOT PUSH1 0x1F DUP3 ADD AND DUP3 ADD DUP1 PUSH1 0x40 MSTORE POP DUP2 ADD SWAP1 PUSH2 0x75A SWAP2 SWAP1 PUSH2 0x95F JUMP JUMPDEST SWAP1 POP PUSH1 0x0 DUP2 GT PUSH2 0x77C JUMPI PUSH1 0x40 MLOAD PUSH3 0x461BCD PUSH1 0xE5 SHL DUP2 MSTORE PUSH1 0x4 ADD PUSH2 0x191 SWAP1 PUSH2 0xA7F JUMP JUMPDEST SWAP6 POP POP POP POP POP POP JUMPDEST SWAP2 SWAP1 POP JUMP JUMPDEST PUSH32 0x0 DUP2 JUMP JUMPDEST PUSH2 0x7B5 PUSH2 0x863 JUMP JUMPDEST PUSH1 0x0 SLOAD PUSH1 0x1 PUSH1 0x1 PUSH1 0xA0 SHL SUB SWAP1 DUP2 AND SWAP2 AND EQ PUSH2 0x7E2 JUMPI PUSH1 0x40 MLOAD PUSH3 0x461BCD PUSH1 0xE5 SHL DUP2 MSTORE PUSH1 0x4 ADD PUSH2 0x191 SWAP1 PUSH2 0xAC0 JUMP JUMPDEST PUSH1 0x1 PUSH1 0x1 PUSH1 0xA0 SHL SUB DUP2 AND PUSH2 0x808 JUMPI PUSH1 0x40 MLOAD PUSH3 0x461BCD PUSH1 0xE5 SHL DUP2 MSTORE PUSH1 0x4 ADD PUSH2 0x191 SWAP1 PUSH2 0xA04 JUMP JUMPDEST PUSH1 0x0 DUP1 SLOAD PUSH1 0x40 MLOAD PUSH1 0x1 PUSH1 0x1 PUSH1 0xA0 SHL SUB DUP1 DUP6 AND SWAP4 SWAP3 AND SWAP2 PUSH32 0x8BE0079C531659141344CD1FD0A4F28419497F9722A3DAAFE3B4186F6B6457E0 SWAP2 LOG3 PUSH1 0x0 DUP1 SLOAD PUSH1 0x1 PUSH1 0x1 PUSH1 0xA0 SHL SUB NOT AND PUSH1 0x1 PUSH1 0x1 PUSH1 0xA0 SHL SUB SWAP3 SWAP1 SWAP3 AND SWAP2 SWAP1 SWAP2 OR SWAP1 SSTORE JUMP JUMPDEST CALLER SWAP1 JUMP JUMPDEST PUSH1 0x2 DUP1 SLOAD PUSH1 0x1 PUSH1 0x1 PUSH1 0xA0 SHL SUB NOT AND PUSH1 0x1 PUSH1 0x1 PUSH1 0xA0 SHL SUB DUP4 AND SWAP1 DUP2 OR SWAP1 SWAP2 SSTORE PUSH1 0x40 MLOAD PUSH32 0xCE7A780D33665B1EA097AF5F155E3821B809ECBAA839D3B33AA83BA28168CEFB SWAP1 PUSH1 0x0 SWAP1 LOG2 POP JUMP JUMPDEST PUSH1 0x0 PUSH1 0x20 DUP3 DUP5 SUB SLT ISZERO PUSH2 0x8C2 JUMPI DUP1 DUP2 REVERT JUMPDEST DUP2 CALLDATALOAD PUSH2 0x8CD DUP2 PUSH2 0xB5C JUMP JUMPDEST SWAP4 SWAP3 POP POP POP JUMP JUMPDEST PUSH1 0x0 PUSH1 0x20 DUP3 DUP5 SUB SLT ISZERO PUSH2 0x8E5 JUMPI DUP1 DUP2 REVERT JUMPDEST DUP2 MLOAD PUSH2 0x8CD DUP2 PUSH2 0xB5C JUMP JUMPDEST PUSH1 0x0 DUP1 PUSH1 0x20 DUP4 DUP6 SUB SLT ISZERO PUSH2 0x902 JUMPI DUP1 DUP2 REVERT JUMPDEST DUP3 CALLDATALOAD PUSH8 0xFFFFFFFFFFFFFFFF DUP1 DUP3 GT ISZERO PUSH2 0x919 JUMPI DUP3 DUP4 REVERT JUMPDEST DUP2 DUP6 ADD SWAP2 POP DUP6 PUSH1 0x1F DUP4 ADD SLT PUSH2 0x92C JUMPI DUP3 DUP4 REVERT JUMPDEST DUP2 CALLDATALOAD DUP2 DUP2 GT ISZERO PUSH2 0x93A JUMPI DUP4 DUP5 REVERT JUMPDEST DUP7 PUSH1 0x20 DUP1 DUP4 MUL DUP6 ADD ADD GT ISZERO PUSH2 0x94D JUMPI DUP4 DUP5 REVERT JUMPDEST PUSH1 0x20 SWAP3 SWAP1 SWAP3 ADD SWAP7 SWAP2 SWAP6 POP SWAP1 SWAP4 POP POP POP POP JUMP JUMPDEST PUSH1 0x0 PUSH1 0x20 DUP3 DUP5 SUB SLT ISZERO PUSH2 0x970 JUMPI DUP1 DUP2 REVERT JUMPDEST POP MLOAD SWAP2 SWAP1 POP JUMP JUMPDEST PUSH1 0x0 DUP2 MLOAD DUP1 DUP5 MSTORE PUSH1 0x20 DUP1 DUP6 ADD SWAP5 POP DUP1 DUP5 ADD DUP4 JUMPDEST DUP4 DUP2 LT ISZERO PUSH2 0x9A6 JUMPI DUP2 MLOAD DUP8 MSTORE SWAP6 DUP3 ADD SWAP6 SWAP1 DUP3 ADD SWAP1 PUSH1 0x1 ADD PUSH2 0x98A JUMP JUMPDEST POP SWAP5 SWAP6 SWAP5 POP POP POP POP POP JUMP JUMPDEST PUSH1 0x1 PUSH1 0x1 PUSH1 0xA0 SHL SUB SWAP2 SWAP1 SWAP2 AND DUP2 MSTORE PUSH1 0x20 ADD SWAP1 JUMP JUMPDEST PUSH1 0x1 PUSH1 0x1 PUSH1 0xA0 SHL SUB DUP4 AND DUP2 MSTORE PUSH1 0x40 PUSH1 0x20 DUP3 ADD DUP2 SWAP1 MSTORE PUSH1 0x0 SWAP1 PUSH2 0x9E9 SWAP1 DUP4 ADD DUP5 PUSH2 0x977 JUMP JUMPDEST SWAP5 SWAP4 POP POP POP POP JUMP JUMPDEST PUSH1 0x0 PUSH1 0x20 DUP3 MSTORE PUSH2 0x8CD PUSH1 0x20 DUP4 ADD DUP5 PUSH2 0x977 JUMP JUMPDEST PUSH1 0x20 DUP1 DUP3 MSTORE PUSH1 0x26 SWAP1 DUP3 ADD MSTORE PUSH32 0x4F776E61626C653A206E6577206F776E657220697320746865207A65726F2061 PUSH1 0x40 DUP3 ADD MSTORE PUSH6 0x646472657373 PUSH1 0xD0 SHL PUSH1 0x60 DUP3 ADD MSTORE PUSH1 0x80 ADD SWAP1 JUMP JUMPDEST PUSH1 0x20 DUP1 DUP3 MSTORE DUP2 DUP2 ADD MSTORE PUSH32 0x61617665206F7261636C6520656E636F756E746572656420616E206572726F72 PUSH1 0x40 DUP3 ADD MSTORE PUSH1 0x60 ADD SWAP1 JUMP JUMPDEST PUSH1 0x20 DUP1 DUP3 MSTORE PUSH1 0x21 SWAP1 DUP3 ADD MSTORE PUSH32 0x4375727665206F7261636C6520656E636F756E746572656420616E206572726F PUSH1 0x40 DUP3 ADD MSTORE PUSH1 0x39 PUSH1 0xF9 SHL PUSH1 0x60 DUP3 ADD MSTORE PUSH1 0x80 ADD SWAP1 JUMP JUMPDEST PUSH1 0x20 DUP1 DUP3 MSTORE DUP2 DUP2 ADD MSTORE PUSH32 0x4F776E61626C653A2063616C6C6572206973206E6F7420746865206F776E6572 PUSH1 0x40 DUP3 ADD MSTORE PUSH1 0x60 ADD SWAP1 JUMP JUMPDEST PUSH1 0x20 DUP1 DUP3 MSTORE PUSH1 0x18 SWAP1 DUP3 ADD MSTORE PUSH32 0x756E6465726C79696E6720746F6B656E206973206E756C6C0000000000000000 PUSH1 0x40 DUP3 ADD MSTORE PUSH1 0x60 ADD SWAP1 JUMP JUMPDEST SWAP1 DUP2 MSTORE PUSH1 0x20 ADD SWAP1 JUMP JUMPDEST PUSH1 0x0 PUSH1 0x0 NOT DUP3 EQ ISZERO PUSH2 0xB55 JUMPI PUSH4 0x4E487B71 PUSH1 0xE0 SHL DUP2 MSTORE PUSH1 0x11 PUSH1 0x4 MSTORE PUSH1 0x24 DUP2 REVERT JUMPDEST POP PUSH1 0x1 ADD SWAP1 JUMP JUMPDEST PUSH1 0x1 PUSH1 0x1 PUSH1 0xA0 SHL SUB DUP2 AND DUP2 EQ PUSH2 0x1A3 JUMPI PUSH1 0x0 DUP1 REVERT INVALID LOG2 PUSH5 0x6970667358 0x22 SLT KECCAK256 BALANCE EXTCODECOPY DUP11 SWAP4 0xAC DUP3 CALLDATACOPY 0xB1 0xB6 SGT GASPRICE KECCAK256 PUSH26 0x28018C3DA2DBBED21F659CCA8E27392F735B3464736F6C634300 ADDMOD STOP STOP CALLER "},"gasEstimates":{"creation":{"codeDepositCost":"596600","executionCost":"infinite","totalCost":"infinite"},"external":{"BASE_CURRENCY()":"infinite","BASE_CURRENCY_UNIT()":"infinite","getAssetPrice(address)":"infinite","getAssetsPrices(address[])":"infinite","getFallbackOracle()":"1115","owner()":"1070","renounceOwnership()":"24271","setAddressProvider(address)":"22067","setFallbackOracle(address)":"infinite","transferOwnership(address)":"24521"},"internal":{"_setFallbackOracle(address)":"22026","initializeMappings()":"infinite"}},"methodIdentifiers":{"BASE_CURRENCY()":"e19f4700","BASE_CURRENCY_UNIT()":"8c89b64f","getAssetPrice(address)":"b3596f07","getAssetsPrices(address[])":"9d23d9f2","getFallbackOracle()":"6210308c","owner()":"8da5cb5b","renounceOwnership()":"715018a6","setAddressProvider(address)":"1a5fa2e3","setFallbackOracle(address)":"170aee73","transferOwnership(address)":"f2fde38b"}},"storageLayout":{"storage":[{"astId":732,"contract":"contracts/oracles/CurveWrapper.sol:CurveWrapper","label":"_owner","offset":0,"slot":"0","type":"t_address"},{"astId":2693,"contract":"contracts/oracles/CurveWrapper.sol:CurveWrapper","label":"_addressesProvider","offset":0,"slot":"1","type":"t_contract(ILendingPoolAddressesProvider)2001"},{"astId":2696,"contract":"contracts/oracles/CurveWrapper.sol:CurveWrapper","label":"_fallbackOracle","offset":0,"slot":"2","type":"t_contract(IPriceOracleGetter)2013"},{"astId":2704,"contract":"contracts/oracles/CurveWrapper.sol:CurveWrapper","label":"lpTokenToPool","offset":0,"slot":"3","type":"t_mapping(t_address,t_address)"},{"astId":2708,"contract":"contracts/oracles/CurveWrapper.sol:CurveWrapper","label":"numCoins","offset":0,"slot":"4","type":"t_mapping(t_address,t_uint256)"},{"astId":2714,"contract":"contracts/oracles/CurveWrapper.sol:CurveWrapper","label":"underlyingCoins","offset":0,"slot":"5","type":"t_mapping(t_address,t_mapping(t_uint256,t_address))"}],"types":{"t_address":{"encoding":"inplace","label":"address","numberOfBytes":"20"},"t_contract(ILendingPoolAddressesProvider)2001":{"encoding":"inplace","label":"contract ILendingPoolAddressesProvider","numberOfBytes":"20"},"t_contract(IPriceOracleGetter)2013":{"encoding":"inplace","label":"contract IPriceOracleGetter","numberOfBytes":"20"},"t_mapping(t_address,t_address)":{"encoding":"mapping","key":"t_address","label":"mapping(address => address)","numberOfBytes":"32","value":"t_address"},"t_mapping(t_address,t_mapping(t_uint256,t_address))":{"encoding":"mapping","key":"t_address","label":"mapping(address => mapping(uint256 => address))","numberOfBytes":"32","value":"t_mapping(t_uint256,t_address)"},"t_mapping(t_address,t_uint256)":{"encoding":"mapping","key":"t_address","label":"mapping(address => uint256)","numberOfBytes":"32","value":"t_uint256"},"t_mapping(t_uint256,t_address)":{"encoding":"mapping","key":"t_uint256","label":"mapping(uint256 => address)","numberOfBytes":"32","value":"t_address"},"t_uint256":{"encoding":"inplace","label":"uint256","numberOfBytes":"32"}}},"userdoc":{"kind":"user","methods":{"constructor":{"notice":"Constructor"},"getAssetPrice(address)":{"notice":"Gets an asset price by address"},"getAssetsPrices(address[])":{"notice":"Gets a list of prices from a list of assets addresses"},"getFallbackOracle()":{"notice":"Gets the address of the fallback oracle"},"setFallbackOracle(address)":{"notice":"Sets the fallbackOracle - Callable only by the Aave governance"}},"notice":"Proxy smart contract to get the price of an asset from a price source, with Chainlink Aggregator         smart contracts as primary option - If the returned price by a Chainlink aggregator is <= 0, the call is forwarded to a fallbackOracle - Owned by the Aave governance system, allowed to add sources for assets, replace them   and change the fallbackOracle","version":1}}}}