{
  "_format": "hh-sol-artifact-1",
  "contractName": "LendingRateOracle",
  "sourceName": "contracts/mocks/oracle/LendingRateOracle.sol",
  "abi": [
    {
      "anonymous": false,
      "inputs": [
        {
          "indexed": true,
          "internalType": "address",
          "name": "previousOwner",
          "type": "address"
        },
        {
          "indexed": true,
          "internalType": "address",
          "name": "newOwner",
          "type": "address"
        }
      ],
      "name": "OwnershipTransferred",
      "type": "event"
    },
    {
      "inputs": [
        {
          "internalType": "address",
          "name": "_asset",
          "type": "address"
        }
      ],
      "name": "getMarketBorrowRate",
      "outputs": [
        {
          "internalType": "uint256",
          "name": "",
          "type": "uint256"
        }
      ],
      "stateMutability": "view",
      "type": "function"
    },
    {
      "inputs": [
        {
          "internalType": "address",
          "name": "_asset",
          "type": "address"
        }
      ],
      "name": "getMarketLiquidityRate",
      "outputs": [
        {
          "internalType": "uint256",
          "name": "",
          "type": "uint256"
        }
      ],
      "stateMutability": "view",
      "type": "function"
    },
    {
      "inputs": [],
      "name": "owner",
      "outputs": [
        {
          "internalType": "address",
          "name": "",
          "type": "address"
        }
      ],
      "stateMutability": "view",
      "type": "function"
    },
    {
      "inputs": [],
      "name": "renounceOwnership",
      "outputs": [],
      "stateMutability": "nonpayable",
      "type": "function"
    },
    {
      "inputs": [
        {
          "internalType": "address",
          "name": "_asset",
          "type": "address"
        },
        {
          "internalType": "uint256",
          "name": "_rate",
          "type": "uint256"
        }
      ],
      "name": "setMarketBorrowRate",
      "outputs": [],
      "stateMutability": "nonpayable",
      "type": "function"
    },
    {
      "inputs": [
        {
          "internalType": "address",
          "name": "_asset",
          "type": "address"
        },
        {
          "internalType": "uint256",
          "name": "_rate",
          "type": "uint256"
        }
      ],
      "name": "setMarketLiquidityRate",
      "outputs": [],
      "stateMutability": "nonpayable",
      "type": "function"
    },
    {
      "inputs": [
        {
          "internalType": "address",
          "name": "newOwner",
          "type": "address"
        }
      ],
      "name": "transferOwnership",
      "outputs": [],
      "stateMutability": "nonpayable",
      "type": "function"
    }
  ],
  "bytecode": "0x608060405234801561001057600080fd5b50600061001b61006a565b600080546001600160a01b0319166001600160a01b0383169081178255604051929350917f8be0079c531659141344cd1fd0a4f28419497f9722a3daafe3b4186f6b6457e0908290a35061006e565b3390565b6104728061007d6000396000f3fe608060405234801561001057600080fd5b506004361061007d5760003560e01c80639f86a0ee1161005b5780639f86a0ee146100bd578063bb85c0bb146100d0578063f2fde38b146100f0578063fbe5ba1e146101035761007d565b8063715018a61461008257806372eb293d1461008c5780638da5cb5b1461009f575b600080fd5b61008a610116565b005b61008a61009a36600461037b565b61019e565b6100a76101ef565b6040516100b491906103a4565b60405180910390f35b61008a6100cb36600461037b565b6101fe565b6100e36100de36600461035a565b61024f565b6040516100b49190610433565b61008a6100fe36600461035a565b61026e565b6100e361011136600461035a565b610324565b61011e61033f565b6000546001600160a01b039081169116146101545760405162461bcd60e51b815260040161014b906103fe565b60405180910390fd5b600080546040516001600160a01b03909116907f8be0079c531659141344cd1fd0a4f28419497f9722a3daafe3b4186f6b6457e0908390a3600080546001600160a01b0319169055565b6101a661033f565b6000546001600160a01b039081169116146101d35760405162461bcd60e51b815260040161014b906103fe565b6001600160a01b03909116600090815260016020526040902055565b6000546001600160a01b031690565b61020661033f565b6000546001600160a01b039081169116146102335760405162461bcd60e51b815260040161014b906103fe565b6001600160a01b03909116600090815260026020526040902055565b6001600160a01b0381166000908152600160205260409020545b919050565b61027661033f565b6000546001600160a01b039081169116146102a35760405162461bcd60e51b815260040161014b906103fe565b6001600160a01b0381166102c95760405162461bcd60e51b815260040161014b906103b8565b600080546040516001600160a01b03808516939216917f8be0079c531659141344cd1fd0a4f28419497f9722a3daafe3b4186f6b6457e091a3600080546001600160a01b0319166001600160a01b0392909216919091179055565b6001600160a01b031660009081526002602052604090205490565b3390565b80356001600160a01b038116811461026957600080fd5b60006020828403121561036b578081fd5b61037482610343565b9392505050565b6000806040838503121561038d578081fd5b61039683610343565b946020939093013593505050565b6001600160a01b0391909116815260200190565b60208082526026908201527f4f776e61626c653a206e6577206f776e657220697320746865207a65726f206160408201526564647265737360d01b606082015260800190565b6020808252818101527f4f776e61626c653a2063616c6c6572206973206e6f7420746865206f776e6572604082015260600190565b9081526020019056fea2646970667358221220556a79f6a3ba0bf4e649d425ce240c23af4f0c4237b7671c71e6a37af085875264736f6c63430008000033",
  "linkReferences": {},
  "deployedLinkReferences": {}
}