{
  "_format": "hh-sol-artifact-1",
  "contractName": "DefaultReserveInterestRateStrategy",
  "sourceName": "contracts/protocol/lendingpool/DefaultReserveInterestRateStrategy.sol",
  "abi": [
    {
      "inputs": [
        {
          "internalType": "contract ILendingPoolAddressesProvider",
          "name": "provider",
          "type": "address"
        },
        {
          "internalType": "uint256",
          "name": "optimalUtilizationRate",
          "type": "uint256"
        },
        {
          "internalType": "uint256",
          "name": "baseVariableBorrowRate",
          "type": "uint256"
        },
        {
          "internalType": "uint256",
          "name": "variableRateSlope1",
          "type": "uint256"
        },
        {
          "internalType": "uint256",
          "name": "variableRateSlope2",
          "type": "uint256"
        },
        {
          "internalType": "uint256",
          "name": "stableRateSlope1",
          "type": "uint256"
        },
        {
          "internalType": "uint256",
          "name": "stableRateSlope2",
          "type": "uint256"
        }
      ],
      "stateMutability": "nonpayable",
      "type": "constructor"
    },
    {
      "inputs": [],
      "name": "EXCESS_UTILIZATION_RATE",
      "outputs": [
        {
          "internalType": "uint256",
          "name": "",
          "type": "uint256"
        }
      ],
      "stateMutability": "view",
      "type": "function"
    },
    {
      "inputs": [],
      "name": "OPTIMAL_UTILIZATION_RATE",
      "outputs": [
        {
          "internalType": "uint256",
          "name": "",
          "type": "uint256"
        }
      ],
      "stateMutability": "view",
      "type": "function"
    },
    {
      "inputs": [],
      "name": "addressesProvider",
      "outputs": [
        {
          "internalType": "contract ILendingPoolAddressesProvider",
          "name": "",
          "type": "address"
        }
      ],
      "stateMutability": "view",
      "type": "function"
    },
    {
      "inputs": [],
      "name": "baseVariableBorrowRate",
      "outputs": [
        {
          "internalType": "uint256",
          "name": "",
          "type": "uint256"
        }
      ],
      "stateMutability": "view",
      "type": "function"
    },
    {
      "inputs": [
        {
          "components": [
            {
              "internalType": "address",
              "name": "reserve",
              "type": "address"
            },
            {
              "internalType": "address",
              "name": "aToken",
              "type": "address"
            },
            {
              "internalType": "uint256",
              "name": "liquidityAdded",
              "type": "uint256"
            },
            {
              "internalType": "uint256",
              "name": "liquidityTaken",
              "type": "uint256"
            },
            {
              "internalType": "uint256",
              "name": "reserveFactor",
              "type": "uint256"
            },
            {
              "internalType": "uint256",
              "name": "globalVMEXReserveFactor",
              "type": "uint256"
            }
          ],
          "internalType": "struct DataTypes.calculateInterestRatesVars",
          "name": "calvars",
          "type": "tuple"
        },
        {
          "internalType": "uint256",
          "name": "totalStableDebt",
          "type": "uint256"
        },
        {
          "internalType": "uint256",
          "name": "totalVariableDebt",
          "type": "uint256"
        },
        {
          "internalType": "uint256",
          "name": "averageStableBorrowRate",
          "type": "uint256"
        }
      ],
      "name": "calculateInterestRates",
      "outputs": [
        {
          "internalType": "uint256",
          "name": "",
          "type": "uint256"
        },
        {
          "internalType": "uint256",
          "name": "",
          "type": "uint256"
        },
        {
          "internalType": "uint256",
          "name": "",
          "type": "uint256"
        }
      ],
      "stateMutability": "view",
      "type": "function"
    },
    {
      "inputs": [],
      "name": "getMaxVariableBorrowRate",
      "outputs": [
        {
          "internalType": "uint256",
          "name": "",
          "type": "uint256"
        }
      ],
      "stateMutability": "view",
      "type": "function"
    },
    {
      "inputs": [],
      "name": "stableRateSlope1",
      "outputs": [
        {
          "internalType": "uint256",
          "name": "",
          "type": "uint256"
        }
      ],
      "stateMutability": "view",
      "type": "function"
    },
    {
      "inputs": [],
      "name": "stableRateSlope2",
      "outputs": [
        {
          "internalType": "uint256",
          "name": "",
          "type": "uint256"
        }
      ],
      "stateMutability": "view",
      "type": "function"
    },
    {
      "inputs": [],
      "name": "variableRateSlope1",
      "outputs": [
        {
          "internalType": "uint256",
          "name": "",
          "type": "uint256"
        }
      ],
      "stateMutability": "view",
      "type": "function"
    },
    {
      "inputs": [],
      "name": "variableRateSlope2",
      "outputs": [
        {
          "internalType": "uint256",
          "name": "",
          "type": "uint256"
        }
      ],
      "stateMutability": "view",
      "type": "function"
    }
  ],
  "bytecode": "0x61018060405234801561001157600080fd5b506040516110a83803806110a8833981016040819052610030916100b8565b85608081815250506100608661004e61009560201b6108de1760201c565b6100a560201b6108ee1790919060201c565b60a05260609690961b6001600160601b03191660c05260e0939093526101009190915261012052610140525061016052610142565b6b033b2e3c9fd0803ce800000090565b60006100b1828461011f565b9392505050565b600080600080600080600060e0888a0312156100d2578283fd5b87516001600160a01b03811681146100e8578384fd5b602089015160408a015160608b015160808c015160a08d015160c0909d0151949e939d50919b909a50909850965090945092505050565b60008282101561013d57634e487b7160e01b81526011600452602481fd5b500390565b60805160a05160c05160601c60e05161010051610120516101405161016051610e876102216000396000818161053801526108bc01526000818161013201528181610568015261065801526000818161059f0152818161079301526107e00152600081816105ea015281816106c2015281816107b701526108250152600081816105c9015281816106e801528181610804015261087401526000818161038d015261089801526000818161015601526104d20152600081816104a6015281816104f6015281816106240152818161069c01526108500152610e876000f3fe608060405234801561001057600080fd5b506004361061009e5760003560e01c806380031e371161006657806380031e37146100fb578063a15f30ac14610103578063b25895441461010b578063c72c4d1014610113578063ccab01a3146101285761009e565b80630bdf953f146100a357806317319873146100c157806345405848146100c957806365614f81146100eb5780637b832f58146100f3575b600080fd5b6100ab610130565b6040516100b89190610d96565b60405180910390f35b6100ab610154565b6100dc6100d7366004610c61565b610178565b6040516100b893929190610d9f565b6100ab610791565b6100ab6107b5565b6100ab6107d9565b6100ab61084e565b6100ab610872565b61011b610896565b6040516100b89190610d2f565b6100ab6108ba565b7f000000000000000000000000000000000000000000000000000000000000000090565b7f000000000000000000000000000000000000000000000000000000000000000081565b60008060008087600001516001600160a01b03166370a0823189602001516040518263ffffffff1660e01b81526004016101b29190610d2f565b60206040518083038186803b1580156101ca57600080fd5b505afa1580156101de573d6000803e3d6000fd5b505050506040513d601f19601f820116820180604052508101906102029190610d17565b9050600088602001516001600160a01b03166307da06036040518163ffffffff1660e01b815260040160206040518083038186803b15801561024357600080fd5b505afa158015610257573d6000803e3d6000fd5b505050506040513d601f19601f8201168201806040525081019061027b9190610c3e565b90506001600160a01b0381161561030a57610307816001600160a01b031663722713f76040518163ffffffff1660e01b815260040160206040518083038186803b1580156102c857600080fd5b505afa1580156102dc573d6000803e3d6000fd5b505050506040513d601f19601f820116820180604052508101906103009190610d17565b8390610903565b91505b61032f89606001516103298b604001518561090390919063ffffffff16565b906108ee565b91505061033a610c04565b6103448888610903565b8082526000602083018190526040830181905260608301521561037f57805161037a90610372908490610903565b82519061090f565b610382565b60005b8160800181815250507f00000000000000000000000000000000000000000000000000000000000000006001600160a01b0316633618abba6040518163ffffffff1660e01b815260040160206040518083038186803b1580156103e457600080fd5b505afa1580156103f8573d6000803e3d6000fd5b505050506040513d601f19601f8201168201806040525081019061041c9190610c3e565b895160405163bb85c0bb60e01b81526001600160a01b03929092169163bb85c0bb9161044a91600401610d2f565b60206040518083038186803b15801561046257600080fd5b505afa158015610476573d6000803e3d6000fd5b505050506040513d601f19601f8201168201806040525081019061049a9190610d17565b604082015260808101517f0000000000000000000000000000000000000000000000000000000000000000101561061957600061052e7f00000000000000000000000000000000000000000000000000000000000000006105287f000000000000000000000000000000000000000000000000000000000000000085608001516108ee90919063ffffffff16565b9061090f565b905061059261055d7f0000000000000000000000000000000000000000000000000000000000000000836109f6565b604084015161058c907f0000000000000000000000000000000000000000000000000000000000000000610903565b90610903565b604083015261060e6105c47f0000000000000000000000000000000000000000000000000000000000000000836109f6565b61058c7f00000000000000000000000000000000000000000000000000000000000000007f0000000000000000000000000000000000000000000000000000000000000000610903565b602083015250610713565b61068861067d6106567f0000000000000000000000000000000000000000000000000000000000000000846080015161090f90919063ffffffff16565b7f0000000000000000000000000000000000000000000000000000000000000000906109f6565b604083015190610903565b6040820152608081015161070d906106e6907f000000000000000000000000000000000000000000000000000000000000000090610528907f00000000000000000000000000000000000000000000000000000000000000006109f6565b7f000000000000000000000000000000000000000000000000000000000000000090610903565b60208201525b61076f61072f8a60a001516127106108ee90919063ffffffff16565b61076961074b8c608001516127106108ee90919063ffffffff16565b61076985608001516107638e8e89602001518f610ab1565b906109f6565b90610b16565b606082018190526040820151602090920151909a919950975095505050505050565b7f000000000000000000000000000000000000000000000000000000000000000090565b7f000000000000000000000000000000000000000000000000000000000000000090565b60006108497f000000000000000000000000000000000000000000000000000000000000000061058c7f00000000000000000000000000000000000000000000000000000000000000007f0000000000000000000000000000000000000000000000000000000000000000610903565b905090565b7f000000000000000000000000000000000000000000000000000000000000000081565b7f000000000000000000000000000000000000000000000000000000000000000090565b7f000000000000000000000000000000000000000000000000000000000000000081565b7f000000000000000000000000000000000000000000000000000000000000000090565b6b033b2e3c9fd0803ce800000090565b60006108fa8284610e0c565b90505b92915050565b60006108fa8284610db5565b604080518082019091526002815261035360f41b6020820152600090826109525760405162461bcd60e51b81526004016109499190610d43565b60405180910390fd5b506000610960600284610dcd565b90506b033b2e3c9fd0803ce800000061097b82600019610e0c565b6109859190610dcd565b84111560405180604001604052806002815260200161068760f31b815250906109c15760405162461bcd60e51b81526004016109499190610d43565b5082816109da6b033b2e3c9fd0803ce800000087610ded565b6109e49190610db5565b6109ee9190610dcd565b949350505050565b6000821580610a03575081155b15610a10575060006108fd565b81610a2860026b033b2e3c9fd0803ce8000000610dcd565b610a3490600019610e0c565b610a3e9190610dcd565b83111560405180604001604052806002815260200161068760f31b81525090610a7a5760405162461bcd60e51b81526004016109499190610d43565b506b033b2e3c9fd0803ce8000000610a93600282610dcd565b610a9d8486610ded565b610aa79190610db5565b6108fa9190610dcd565b600080610abe8686610903565b905080610acf5760009150506109ee565b6000610ade8561076388610b9f565b90506000610aef856107638a610b9f565b90506000610b09610aff85610b9f565b6105288585610903565b9998505050505050505050565b6000821580610b23575081155b15610b30575060006108fd565b81610b3e6002612710610dcd565b610b4a90600019610e0c565b610b549190610dcd565b83111560405180604001604052806002815260200161068760f31b81525090610b905760405162461bcd60e51b81526004016109499190610d43565b50612710610a93600282610dcd565b600080610bb0633b9aca0084610ded565b905082610bc1633b9aca0083610dcd565b1460405180604001604052806002815260200161068760f31b81525090610bfb5760405162461bcd60e51b81526004016109499190610d43565b5090505b919050565b6040518060a0016040528060008152602001600081526020016000815260200160008152602001600081525090565b8035610bff81610e39565b600060208284031215610c4f578081fd5b8151610c5a81610e39565b9392505050565b600080600080848603610120811215610c78578384fd5b60c0811215610c85578384fd5b5060405160c0810181811067ffffffffffffffff82111715610cb557634e487b7160e01b85526041600452602485fd5b604052610cc186610c33565b8152610ccf60208701610c33565b602082015260408681013590820152606080870135908201526080808701359082015260a080870135908201529660c0860135965060e0860135956101000135945092505050565b600060208284031215610d28578081fd5b5051919050565b6001600160a01b0391909116815260200190565b6000602080835283518082850152825b81811015610d6f57858101830151858201604001528201610d53565b81811115610d805783604083870101525b50601f01601f1916929092016040019392505050565b90815260200190565b9283526020830191909152604082015260600190565b60008219821115610dc857610dc8610e23565b500190565b600082610de857634e487b7160e01b81526012600452602481fd5b500490565b6000816000190483118215151615610e0757610e07610e23565b500290565b600082821015610e1e57610e1e610e23565b500390565b634e487b7160e01b600052601160045260246000fd5b6001600160a01b0381168114610e4e57600080fd5b5056fea2646970667358221220bb8489a39f72e06af4b6526c6a9a20a085c41ff16b2eab92fdabefd1630ea97a64736f6c63430008000033",
  "linkReferences": {},
  "deployedLinkReferences": {}
}