{
  "_format": "hh-sol-artifact-1",
  "contractName": "MockStableDebtToken",
  "sourceName": "contracts/mocks/upgradeability/MockStableDebtToken.sol",
  "abi": [
    {
      "anonymous": false,
      "inputs": [
        {
          "indexed": true,
          "internalType": "address",
          "name": "owner",
          "type": "address"
        },
        {
          "indexed": true,
          "internalType": "address",
          "name": "spender",
          "type": "address"
        },
        {
          "indexed": false,
          "internalType": "uint256",
          "name": "value",
          "type": "uint256"
        }
      ],
      "name": "Approval",
      "type": "event"
    },
    {
      "anonymous": false,
      "inputs": [
        {
          "indexed": true,
          "internalType": "address",
          "name": "fromUser",
          "type": "address"
        },
        {
          "indexed": true,
          "internalType": "address",
          "name": "toUser",
          "type": "address"
        },
        {
          "indexed": false,
          "internalType": "address",
          "name": "asset",
          "type": "address"
        },
        {
          "indexed": false,
          "internalType": "uint256",
          "name": "amount",
          "type": "uint256"
        }
      ],
      "name": "BorrowAllowanceDelegated",
      "type": "event"
    },
    {
      "anonymous": false,
      "inputs": [
        {
          "indexed": true,
          "internalType": "address",
          "name": "user",
          "type": "address"
        },
        {
          "indexed": false,
          "internalType": "uint256",
          "name": "amount",
          "type": "uint256"
        },
        {
          "indexed": false,
          "internalType": "uint256",
          "name": "currentBalance",
          "type": "uint256"
        },
        {
          "indexed": false,
          "internalType": "uint256",
          "name": "balanceIncrease",
          "type": "uint256"
        },
        {
          "indexed": false,
          "internalType": "uint256",
          "name": "avgStableRate",
          "type": "uint256"
        },
        {
          "indexed": false,
          "internalType": "uint256",
          "name": "newTotalSupply",
          "type": "uint256"
        }
      ],
      "name": "Burn",
      "type": "event"
    },
    {
      "anonymous": false,
      "inputs": [
        {
          "indexed": true,
          "internalType": "address",
          "name": "underlyingAsset",
          "type": "address"
        },
        {
          "indexed": true,
          "internalType": "address",
          "name": "pool",
          "type": "address"
        },
        {
          "indexed": false,
          "internalType": "address",
          "name": "incentivesController",
          "type": "address"
        },
        {
          "indexed": false,
          "internalType": "uint8",
          "name": "debtTokenDecimals",
          "type": "uint8"
        },
        {
          "indexed": false,
          "internalType": "string",
          "name": "debtTokenName",
          "type": "string"
        },
        {
          "indexed": false,
          "internalType": "string",
          "name": "debtTokenSymbol",
          "type": "string"
        },
        {
          "indexed": false,
          "internalType": "bytes",
          "name": "params",
          "type": "bytes"
        }
      ],
      "name": "Initialized",
      "type": "event"
    },
    {
      "anonymous": false,
      "inputs": [
        {
          "indexed": true,
          "internalType": "address",
          "name": "user",
          "type": "address"
        },
        {
          "indexed": true,
          "internalType": "address",
          "name": "onBehalfOf",
          "type": "address"
        },
        {
          "indexed": false,
          "internalType": "uint256",
          "name": "amount",
          "type": "uint256"
        },
        {
          "indexed": false,
          "internalType": "uint256",
          "name": "currentBalance",
          "type": "uint256"
        },
        {
          "indexed": false,
          "internalType": "uint256",
          "name": "balanceIncrease",
          "type": "uint256"
        },
        {
          "indexed": false,
          "internalType": "uint256",
          "name": "newRate",
          "type": "uint256"
        },
        {
          "indexed": false,
          "internalType": "uint256",
          "name": "avgStableRate",
          "type": "uint256"
        },
        {
          "indexed": false,
          "internalType": "uint256",
          "name": "newTotalSupply",
          "type": "uint256"
        }
      ],
      "name": "Mint",
      "type": "event"
    },
    {
      "anonymous": false,
      "inputs": [
        {
          "indexed": true,
          "internalType": "address",
          "name": "from",
          "type": "address"
        },
        {
          "indexed": true,
          "internalType": "address",
          "name": "to",
          "type": "address"
        },
        {
          "indexed": false,
          "internalType": "uint256",
          "name": "value",
          "type": "uint256"
        }
      ],
      "name": "Transfer",
      "type": "event"
    },
    {
      "inputs": [],
      "name": "DEBT_TOKEN_REVISION",
      "outputs": [
        {
          "internalType": "uint256",
          "name": "",
          "type": "uint256"
        }
      ],
      "stateMutability": "view",
      "type": "function"
    },
    {
      "inputs": [],
      "name": "POOL",
      "outputs": [
        {
          "internalType": "contract ILendingPool",
          "name": "",
          "type": "address"
        }
      ],
      "stateMutability": "view",
      "type": "function"
    },
    {
      "inputs": [],
      "name": "UNDERLYING_ASSET_ADDRESS",
      "outputs": [
        {
          "internalType": "address",
          "name": "",
          "type": "address"
        }
      ],
      "stateMutability": "view",
      "type": "function"
    },
    {
      "inputs": [
        {
          "internalType": "address",
          "name": "owner",
          "type": "address"
        },
        {
          "internalType": "address",
          "name": "spender",
          "type": "address"
        }
      ],
      "name": "allowance",
      "outputs": [
        {
          "internalType": "uint256",
          "name": "",
          "type": "uint256"
        }
      ],
      "stateMutability": "view",
      "type": "function"
    },
    {
      "inputs": [
        {
          "internalType": "address",
          "name": "spender",
          "type": "address"
        },
        {
          "internalType": "uint256",
          "name": "amount",
          "type": "uint256"
        }
      ],
      "name": "approve",
      "outputs": [
        {
          "internalType": "bool",
          "name": "",
          "type": "bool"
        }
      ],
      "stateMutability": "nonpayable",
      "type": "function"
    },
    {
      "inputs": [
        {
          "internalType": "address",
          "name": "delegatee",
          "type": "address"
        },
        {
          "internalType": "uint256",
          "name": "amount",
          "type": "uint256"
        }
      ],
      "name": "approveDelegation",
      "outputs": [],
      "stateMutability": "nonpayable",
      "type": "function"
    },
    {
      "inputs": [
        {
          "internalType": "address",
          "name": "account",
          "type": "address"
        }
      ],
      "name": "balanceOf",
      "outputs": [
        {
          "internalType": "uint256",
          "name": "",
          "type": "uint256"
        }
      ],
      "stateMutability": "view",
      "type": "function"
    },
    {
      "inputs": [
        {
          "internalType": "address",
          "name": "fromUser",
          "type": "address"
        },
        {
          "internalType": "address",
          "name": "toUser",
          "type": "address"
        }
      ],
      "name": "borrowAllowance",
      "outputs": [
        {
          "internalType": "uint256",
          "name": "",
          "type": "uint256"
        }
      ],
      "stateMutability": "view",
      "type": "function"
    },
    {
      "inputs": [
        {
          "internalType": "address",
          "name": "user",
          "type": "address"
        },
        {
          "internalType": "uint256",
          "name": "amount",
          "type": "uint256"
        }
      ],
      "name": "burn",
      "outputs": [],
      "stateMutability": "nonpayable",
      "type": "function"
    },
    {
      "inputs": [],
      "name": "decimals",
      "outputs": [
        {
          "internalType": "uint8",
          "name": "",
          "type": "uint8"
        }
      ],
      "stateMutability": "view",
      "type": "function"
    },
    {
      "inputs": [
        {
          "internalType": "address",
          "name": "spender",
          "type": "address"
        },
        {
          "internalType": "uint256",
          "name": "subtractedValue",
          "type": "uint256"
        }
      ],
      "name": "decreaseAllowance",
      "outputs": [
        {
          "internalType": "bool",
          "name": "",
          "type": "bool"
        }
      ],
      "stateMutability": "nonpayable",
      "type": "function"
    },
    {
      "inputs": [],
      "name": "getAverageStableRate",
      "outputs": [
        {
          "internalType": "uint256",
          "name": "",
          "type": "uint256"
        }
      ],
      "stateMutability": "view",
      "type": "function"
    },
    {
      "inputs": [],
      "name": "getIncentivesController",
      "outputs": [
        {
          "internalType": "contract IAaveIncentivesController",
          "name": "",
          "type": "address"
        }
      ],
      "stateMutability": "view",
      "type": "function"
    },
    {
      "inputs": [],
      "name": "getSupplyData",
      "outputs": [
        {
          "internalType": "uint256",
          "name": "",
          "type": "uint256"
        },
        {
          "internalType": "uint256",
          "name": "",
          "type": "uint256"
        },
        {
          "internalType": "uint256",
          "name": "",
          "type": "uint256"
        },
        {
          "internalType": "uint40",
          "name": "",
          "type": "uint40"
        }
      ],
      "stateMutability": "view",
      "type": "function"
    },
    {
      "inputs": [],
      "name": "getTotalSupplyAndAvgRate",
      "outputs": [
        {
          "internalType": "uint256",
          "name": "",
          "type": "uint256"
        },
        {
          "internalType": "uint256",
          "name": "",
          "type": "uint256"
        }
      ],
      "stateMutability": "view",
      "type": "function"
    },
    {
      "inputs": [],
      "name": "getTotalSupplyLastUpdated",
      "outputs": [
        {
          "internalType": "uint40",
          "name": "",
          "type": "uint40"
        }
      ],
      "stateMutability": "view",
      "type": "function"
    },
    {
      "inputs": [
        {
          "internalType": "address",
          "name": "user",
          "type": "address"
        }
      ],
      "name": "getUserLastUpdated",
      "outputs": [
        {
          "internalType": "uint40",
          "name": "",
          "type": "uint40"
        }
      ],
      "stateMutability": "view",
      "type": "function"
    },
    {
      "inputs": [
        {
          "internalType": "address",
          "name": "user",
          "type": "address"
        }
      ],
      "name": "getUserStableRate",
      "outputs": [
        {
          "internalType": "uint256",
          "name": "",
          "type": "uint256"
        }
      ],
      "stateMutability": "view",
      "type": "function"
    },
    {
      "inputs": [
        {
          "internalType": "address",
          "name": "spender",
          "type": "address"
        },
        {
          "internalType": "uint256",
          "name": "addedValue",
          "type": "uint256"
        }
      ],
      "name": "increaseAllowance",
      "outputs": [
        {
          "internalType": "bool",
          "name": "",
          "type": "bool"
        }
      ],
      "stateMutability": "nonpayable",
      "type": "function"
    },
    {
      "inputs": [
        {
          "internalType": "contract ILendingPool",
          "name": "pool",
          "type": "address"
        },
        {
          "internalType": "address",
          "name": "underlyingAsset",
          "type": "address"
        },
        {
          "internalType": "contract IAaveIncentivesController",
          "name": "incentivesController",
          "type": "address"
        },
        {
          "internalType": "uint8",
          "name": "debtTokenDecimals",
          "type": "uint8"
        },
        {
          "internalType": "string",
          "name": "debtTokenName",
          "type": "string"
        },
        {
          "internalType": "string",
          "name": "debtTokenSymbol",
          "type": "string"
        },
        {
          "internalType": "bytes",
          "name": "params",
          "type": "bytes"
        }
      ],
      "name": "initialize",
      "outputs": [],
      "stateMutability": "nonpayable",
      "type": "function"
    },
    {
      "inputs": [
        {
          "internalType": "address",
          "name": "user",
          "type": "address"
        },
        {
          "internalType": "address",
          "name": "onBehalfOf",
          "type": "address"
        },
        {
          "internalType": "uint256",
          "name": "amount",
          "type": "uint256"
        },
        {
          "internalType": "uint256",
          "name": "rate",
          "type": "uint256"
        }
      ],
      "name": "mint",
      "outputs": [
        {
          "internalType": "bool",
          "name": "",
          "type": "bool"
        }
      ],
      "stateMutability": "nonpayable",
      "type": "function"
    },
    {
      "inputs": [],
      "name": "name",
      "outputs": [
        {
          "internalType": "string",
          "name": "",
          "type": "string"
        }
      ],
      "stateMutability": "view",
      "type": "function"
    },
    {
      "inputs": [
        {
          "internalType": "address",
          "name": "user",
          "type": "address"
        }
      ],
      "name": "principalBalanceOf",
      "outputs": [
        {
          "internalType": "uint256",
          "name": "",
          "type": "uint256"
        }
      ],
      "stateMutability": "view",
      "type": "function"
    },
    {
      "inputs": [],
      "name": "symbol",
      "outputs": [
        {
          "internalType": "string",
          "name": "",
          "type": "string"
        }
      ],
      "stateMutability": "view",
      "type": "function"
    },
    {
      "inputs": [],
      "name": "totalSupply",
      "outputs": [
        {
          "internalType": "uint256",
          "name": "",
          "type": "uint256"
        }
      ],
      "stateMutability": "view",
      "type": "function"
    },
    {
      "inputs": [
        {
          "internalType": "address",
          "name": "recipient",
          "type": "address"
        },
        {
          "internalType": "uint256",
          "name": "amount",
          "type": "uint256"
        }
      ],
      "name": "transfer",
      "outputs": [
        {
          "internalType": "bool",
          "name": "",
          "type": "bool"
        }
      ],
      "stateMutability": "nonpayable",
      "type": "function"
    },
    {
      "inputs": [
        {
          "internalType": "address",
          "name": "sender",
          "type": "address"
        },
        {
          "internalType": "address",
          "name": "recipient",
          "type": "address"
        },
        {
          "internalType": "uint256",
          "name": "amount",
          "type": "uint256"
        }
      ],
      "name": "transferFrom",
      "outputs": [
        {
          "internalType": "bool",
          "name": "",
          "type": "bool"
        }
      ],
      "stateMutability": "nonpayable",
      "type": "function"
    }
  ],
  "bytecode": "0x608060405260006006553480156200001657600080fd5b50604080518082018252600e8082526d111150951513d2d15397d253541360921b60208084018281528551808701909652928552840152815191929160009162000064916003919062000098565b5081516200007a90600490602085019062000098565b506005805460ff191660ff92909216919091179055506200017b9050565b828054620000a6906200013e565b90600052602060002090601f016020900481019282620000ca576000855562000115565b82601f10620000e557805160ff191683800117855562000115565b8280016001018555821562000115579182015b8281111562000115578251825591602001919060010190620000f8565b506200012392915062000127565b5090565b5b8082111562000123576000815560010162000128565b6002810460018216806200015357607f821691505b602082108114156200017557634e487b7160e01b600052602260045260246000fd5b50919050565b611b4a806200018b6000396000f3fe608060405234801561001057600080fd5b50600436106101a95760003560e01c806395d89b41116100f9578063c04a8a1011610097578063dd62ed3e11610071578063dd62ed3e14610346578063e748489014610354578063e78c9b3b1461035c578063f731e9be1461036f576101a9565b8063c04a8a101461030d578063c222ec8a14610320578063c634dfaa14610333576101a9565b8063a9059cbb116100d3578063a9059cbb146102dc578063b16a19de146102ea578063b3f1c93d146102f2578063b9a7b62214610305576101a9565b806395d89b41146102bf5780639dc29fac146102c7578063a457c2d714610229576101a9565b80636bd76d241161016657806375d264131161014057806375d2641314610277578063797743381461027f57806379ce6b8c1461029757806390f6fcf2146102b7576101a9565b80636bd76d241461023c57806370a082311461024f5780637535d24614610262576101a9565b806306fdde03146101ae578063095ea7b3146101cc57806318160ddd146101ec57806323b872dd14610201578063313ce567146102145780633950935114610229575b600080fd5b6101b6610385565b6040516101c3919061188b565b60405180910390f35b6101df6101da366004611675565b610417565b6040516101c39190611880565b6101f461043a565b6040516101c39190611983565b6101df61020f3660046115f0565b61044c565b61021c610466565b6040516101c39190611a19565b6101df610237366004611675565b61046f565b6101f461024a3660046115b8565b610489565b6101f461025d36600461159c565b6104b6565b61026a610530565b6040516101c391906117bc565b61026a610548565b610287610552565b6040516101c394939291906119e5565b6102aa6102a536600461159c565b610588565b6040516101c39190611a07565b6101f46105aa565b6101b66105b0565b6102da6102d5366004611675565b6105bf565b005b6101df61020f366004611675565b61026a6108a7565b6101df610300366004611630565b6108b6565b6101f4610b9f565b6102da61031b366004611675565b610ba4565b6102da61032e3660046116a0565b610c36565b6101f461034136600461159c565b610d70565b6101f46102373660046115b8565b6102aa610d7b565b6101f461036a36600461159c565b610d88565b610377610da3565b6040516101c392919061198c565b60606003805461039490611a95565b80601f01602080910402602001604051908101604052809291908181526020018280546103c090611a95565b801561040d5780601f106103e25761010080835404028352916020019161040d565b820191906000526020600020905b8154815290600101906020018083116103f057829003601f168201915b5050505050905090565b600060405162461bcd60e51b815260040161043190611953565b60405180910390fd5b6000610447603b54610dbc565b905090565b600060405162461bcd60e51b81526004016104319061189e565b60055460ff1690565b600060405162461bcd60e51b8152600401610431906118ce565b6001600160a01b038083166000908152603a60209081526040808320938516835292905220545b92915050565b6000806104c283610e04565b6001600160a01b0384166000908152603d6020526040902054909150816104ee5760009250505061052b565b6001600160a01b0384166000908152603c602052604081205461051990839064ffffffffff16610e1f565b90506105258382610e33565b93505050505b919050565b603e546501000000000090046001600160a01b031690565b6000610447610eee565b6000806000806000603b549050610567610efd565b61057082610dbc565b603e54919790965091945064ffffffffff1692509050565b6001600160a01b03166000908152603c602052604090205464ffffffffff1690565b603b5490565b60606004805461039490611a95565b6105c7610530565b6001600160a01b03166105d8610f03565b6001600160a01b03161460405180604001604052806002815260200161323960f01b8152509061061b5760405162461bcd60e51b8152600401610431919061188b565b5060008061062884610f07565b9250925050600061063761043a565b6001600160a01b0386166000908152603d602052604081205491925090819086841161066c576000603b8190556002556106ee565b6106768488610f60565b60028190559150600061069461068b86610f6c565b603b5490610e33565b905060006106ab6106a48a610f6c565b8490610e33565b90508181106106c75760006002819055603b81905594506106eb565b6106e36106d385610f6c565b6106dd8484610f60565b90610fcf565b603b81905594505b50505b8587141561072c576001600160a01b0388166000908152603d60209081526040808320839055603c9091529020805464ffffffffff1916905561075a565b6001600160a01b0388166000908152603c60205260409020805464ffffffffff19164264ffffffffff161790555b603e805464ffffffffff19164264ffffffffff16179055868511156107ed5760006107858689610f60565b90506107928982876110a5565b886001600160a01b0316896001600160a01b03167fc16f4e4ca34d790de4c656c72fd015c667d688f20be64eea360618545c4c530f838a8a878a8a6040516107df969594939291906119bd565b60405180910390a350610851565b60006107f98887610f60565b905061080689828761115c565b886001600160a01b03167f44bd20a79e993bdcc7cbedf54a3b4d19fb78490124b6b90d04fe3242eea579e8828989888860405161084795949392919061199a565b60405180910390a2505b60006001600160a01b0316886001600160a01b03167fddf252ad1be2c89b69c2b068fc378daa952ba7f163c4a11628f55a4df523b3ef896040516108959190611983565b60405180910390a35050505050505050565b603f546001600160a01b031690565b60006108c0610530565b6001600160a01b03166108d1610f03565b6001600160a01b03161460405180604001604052806002815260200161323960f01b815250906109145760405162461bcd60e51b8152600401610431919061188b565b5061091d6113f0565b846001600160a01b0316866001600160a01b0316146109415761094185878661119e565b60008061094d87610f07565b925092505061095a61043a565b808452603b54608085015261096f908761125c565b6002819055602084015261098286610f6c565b60408401526109e061099c610997848961125c565b610f6c565b60408501516106dd906109af9089610e33565b6109da6109bb87610f6c565b6001600160a01b038d166000908152603d602052604090205490610e33565b9061125c565b60608401819052604080518082019091526002815261373960f01b6020820152906fffffffffffffffffffffffffffffffff1015610a315760405162461bcd60e51b8152600401610431919061188b565b5060608301516001600160a01b0388166000908152603d6020908152604080832093909355603c8152919020805464ffffffffff421664ffffffffff199182168117909255603e80549091169091179055830151610ac790610a9290610f6c565b6106dd610aac866040015189610e3390919063ffffffff16565b6109da610abc8860000151610f6c565b608089015190610e33565b603b8190556080840152610ae687610adf888461125c565b85516110a5565b866001600160a01b031660006001600160a01b03167fddf252ad1be2c89b69c2b068fc378daa952ba7f163c4a11628f55a4df523b3ef88604051610b2a9190611983565b60405180910390a3866001600160a01b0316886001600160a01b03167fc16f4e4ca34d790de4c656c72fd015c667d688f20be64eea360618545c4c530f888585886060015189608001518a60200151604051610b8b969594939291906119bd565b60405180910390a350159695505050505050565b600181565b80603a6000610bb1610f03565b6001600160a01b0390811682526020808301939093526040918201600090812091871680825291909352912091909155610be9610f03565b6001600160a01b03167fda919360433220e13b51e8c211e490d148e61a3bd53de8c097194e458b97f3e1610c1b6108a7565b84604051610c2a9291906117d0565b60405180910390a35050565b6000610c40611268565b60075490915060ff1680610c575750610c5761126d565b80610c63575060065481115b610c7f5760405162461bcd60e51b815260040161043190611905565b60075460ff16158015610c9f576007805460ff1916600117905560068290555b610ca886611273565b610cb18561128a565b610cba8761129d565b603e805465010000000000600160c81b031916650100000000006001600160a01b038d811691820292909217909255603f80546001600160a01b03199081168d841690811790925560408054909116928c1692909217825590517f40251fbfb6656cfa65a00d7879029fec1fad21d28fdcff2f4f68f52795b74f2c90610d4b908c908c908c908c908c908c9061180a565b60405180910390a38015610d64576007805460ff191690555b50505050505050505050565b60006104b082610e04565b603e5464ffffffffff1690565b6001600160a01b03166000908152603d602052604090205490565b603b546000908190610db481610dbc565b925090509091565b600080610dc7610efd565b905080610dd857600091505061052b565b603e54600090610df090859064ffffffffff16610e1f565b9050610dfc8282610e33565b949350505050565b6001600160a01b031660009081526020819052604090205490565b6000610e2c8383426112b3565b9392505050565b6000821580610e40575081155b15610e4d575060006104b0565b81610e6560026b033b2e3c9fd0803ce8000000611a3f565b610e7190600019611a7e565b610e7b9190611a3f565b83111560405180604001604052806002815260200161068760f31b81525090610eb75760405162461bcd60e51b8152600401610431919061188b565b506b033b2e3c9fd0803ce8000000610ed0600282611a3f565b610eda8486611a5f565b610ee49190611a27565b610e2c9190611a3f565b6040546001600160a01b031690565b60025490565b3390565b600080600080610f1685610e04565b905080610f2e57600080600093509350935050610f59565b6000610f4382610f3d886104b6565b90610f60565b905081610f50818361125c565b90955093509150505b9193909250565b6000610e2c8284611a7e565b600080610f7d633b9aca0084611a5f565b905082610f8e633b9aca0083611a3f565b1460405180604001604052806002815260200161068760f31b81525090610fc85760405162461bcd60e51b8152600401610431919061188b565b5092915050565b604080518082019091526002815261035360f41b6020820152600090826110095760405162461bcd60e51b8152600401610431919061188b565b506000611017600284611a3f565b90506b033b2e3c9fd0803ce800000061103282600019611a7e565b61103c9190611a3f565b84111560405180604001604052806002815260200161068760f31b815250906110785760405162461bcd60e51b8152600401610431919061188b565b5082816110916b033b2e3c9fd0803ce800000087611a5f565b61109b9190611a27565b610dfc9190611a3f565b6001600160a01b0383166000908152602081905260409020546110c8818461125c565b6001600160a01b03808616600090815260208190526040908190209290925590541615611156576040805490516318c39f1760e11b81526001600160a01b03909116906331873e2e90611123908790869086906004016117e9565b600060405180830381600087803b15801561113d57600080fd5b505af1158015611151573d6000803e3d6000fd5b505050505b50505050565b6001600160a01b038316600090815260208181526040918290205482518084019093526002835261038360f41b91830191909152906110c890829085906113a8565b6040805180820182526002815261353960f01b6020808301919091526001600160a01b038087166000908152603a835284812091871681529152918220546111e79184906113a8565b6001600160a01b038086166000818152603a60209081526040808320948916808452949091529020839055919250907fda919360433220e13b51e8c211e490d148e61a3bd53de8c097194e458b97f3e161123f6108a7565b8460405161124e9291906117d0565b60405180910390a350505050565b6000610e2c8284611a27565b600290565b303b1590565b805161128690600390602084019061141f565b5050565b805161128690600490602084019061141f565b6005805460ff191660ff92909216919091179055565b6000806112c78364ffffffffff8616610f60565b9050806112de576112d66113d4565b915050610e2c565b60006112eb600183611a7e565b90506000600283116112fe576000611309565b611309600284611a7e565b9050600061131b6301e1338089611a3f565b905060006113298280610e33565b905060006113378284610e33565b9050600060026113518461134b8a8a6113e4565b906113e4565b61135b9190611a3f565b9050600060066113718461134b89818d8d6113e4565b61137b9190611a3f565b9050611398816109da84816113908a8e6113e4565b6109da6113d4565b9c9b505050505050505050505050565b600081848411156113cc5760405162461bcd60e51b8152600401610431919061188b565b505050900390565b6b033b2e3c9fd0803ce800000090565b6000610e2c8284611a5f565b6040518060a0016040528060008152602001600081526020016000815260200160008152602001600081525090565b82805461142b90611a95565b90600052602060002090601f01602090048101928261144d5760008555611493565b82601f1061146657805160ff1916838001178555611493565b82800160010185558215611493579182015b82811115611493578251825591602001919060010190611478565b5061149f9291506114a3565b5090565b5b8082111561149f57600081556001016114a4565b803561052b81611afc565b60008083601f8401126114d4578081fd5b50813567ffffffffffffffff8111156114eb578182fd5b60208301915083602082850101111561150357600080fd5b9250929050565b600082601f83011261151a578081fd5b813567ffffffffffffffff8082111561153557611535611ae6565b604051601f8301601f19168101602001828111828210171561155957611559611ae6565b604052828152848301602001861015611570578384fd5b82602086016020830137918201602001929092529392505050565b803560ff8116811461052b57600080fd5b6000602082840312156115ad578081fd5b8135610e2c81611afc565b600080604083850312156115ca578081fd5b82356115d581611afc565b915060208301356115e581611afc565b809150509250929050565b600080600060608486031215611604578081fd5b833561160f81611afc565b9250602084013561161f81611afc565b929592945050506040919091013590565b60008060008060808587031215611645578081fd5b843561165081611afc565b9350602085013561166081611afc565b93969395505050506040820135916060013590565b60008060408385031215611687578182fd5b823561169281611afc565b946020939093013593505050565b60008060008060008060008060e0898b0312156116bb578384fd5b88356116c681611afc565b975060208901356116d681611afc565b96506116e460408a016114b8565b95506116f260608a0161158b565b9450608089013567ffffffffffffffff8082111561170e578586fd5b61171a8c838d0161150a565b955060a08b013591508082111561172f578485fd5b61173b8c838d0161150a565b945060c08b0135915080821115611750578384fd5b5061175d8b828c016114c3565b999c989b5096995094979396929594505050565b60008151808452815b818110156117965760208185018101518683018201520161177a565b818111156117a75782602083870101525b50601f01601f19169290920160200192915050565b6001600160a01b0391909116815260200190565b6001600160a01b03929092168252602082015260400190565b6001600160a01b039390931683526020830191909152604082015260600190565b6001600160a01b038716815260ff8616602082015260a06040820181905260009061183790830187611771565b82810360608401526118498187611771565b905082810360808401528381528385602083013781602085830101526020601f19601f860116820101915050979650505050505050565b901515815260200190565b600060208252610e2c6020830184611771565b6020808252601690820152751514905394d1915497d393d517d4d5541413d495115160521b604082015260600190565b60208082526017908201527f414c4c4f57414e43455f4e4f545f535550504f52544544000000000000000000604082015260600190565b6020808252602e908201527f436f6e747261637420696e7374616e63652068617320616c726561647920626560408201526d195b881a5b9a5d1a585b1a5e995960921b606082015260800190565b6020808252601690820152751054141493d5905317d393d517d4d5541413d495115160521b604082015260600190565b90815260200190565b918252602082015260400190565b948552602085019390935260408401919091526060830152608082015260a00190565b958652602086019490945260408501929092526060840152608083015260a082015260c00190565b9384526020840192909252604083015264ffffffffff16606082015260800190565b64ffffffffff91909116815260200190565b60ff91909116815260200190565b60008219821115611a3a57611a3a611ad0565b500190565b600082611a5a57634e487b7160e01b81526012600452602481fd5b500490565b6000816000190483118215151615611a7957611a79611ad0565b500290565b600082821015611a9057611a90611ad0565b500390565b600281046001821680611aa957607f821691505b60208210811415611aca57634e487b7160e01b600052602260045260246000fd5b50919050565b634e487b7160e01b600052601160045260246000fd5b634e487b7160e01b600052604160045260246000fd5b6001600160a01b0381168114611b1157600080fd5b5056fea2646970667358221220888285cd71fc6994b85d8cf268c2ae0768e6371beace33b236ba54d4308a0e3f64736f6c63430008000033",
  "linkReferences": {},
  "deployedLinkReferences": {}
}