{
  "_format": "hh-sol-artifact-1",
  "contractName": "ValidationLogic",
  "sourceName": "contracts/protocol/libraries/logic/ValidationLogic.sol",
  "abi": [
    {
      "inputs": [],
      "name": "REBALANCE_UP_LIQUIDITY_RATE_THRESHOLD",
      "outputs": [
        {
          "internalType": "uint256",
          "name": "",
          "type": "uint256"
        }
      ],
      "stateMutability": "view",
      "type": "function"
    },
    {
      "inputs": [],
      "name": "REBALANCE_UP_USAGE_RATIO_THRESHOLD",
      "outputs": [
        {
          "internalType": "uint256",
          "name": "",
          "type": "uint256"
        }
      ],
      "stateMutability": "view",
      "type": "function"
    },
    {
      "inputs": [
        {
          "internalType": "bool",
          "name": "isCollateral",
          "type": "bool"
        },
        {
          "internalType": "uint8",
          "name": "risk",
          "type": "uint8"
        },
        {
          "internalType": "uint8",
          "name": "tranche",
          "type": "uint8"
        },
        {
          "internalType": "bool",
          "name": "allowHigherTranche",
          "type": "bool"
        }
      ],
      "name": "validateCollateralRisk",
      "outputs": [],
      "stateMutability": "pure",
      "type": "function"
    }
  ],
  "bytecode": "0x6127ff61003a600b82828239805160001a60731461002d57634e487b7160e01b600052600060045260246000fd5b30600052607381538281f3fe73000000000000000000000000000000000000000030146080604052600436106100a85760003560e01c80639b015215116100705780639b01521514610119578063a8695b1d1461012c578063abfcc86a1461013f578063f717c1f514610147578063fa0c21491461015a576100a8565b80630eca322b146100ad578063548cad09146100c25780635494eb8a146100d557806369cbb4c8146100f357806390d106bd14610106575b600080fd5b6100c06100bb366004612365565b61016d565b005b6100c06100d03660046122b6565b610235565b6100dd61052b565b6040516100ea91906125ca565b60405180910390f35b6100c0610101366004612231565b61053b565b6100c06101143660046120e4565b610718565b6100c0610127366004611fe3565b610c0d565b6100c061013a36600461231d565b610de3565b6100dd6110a4565b6100c061015536600461208d565b6110aa565b6100c0610168366004612386565b611111565b6000806101798461127f565b50506040805180820190915260018152603160f81b60208201529193509150836101bf5760405162461bcd60e51b81526004016101b69190612433565b60405180910390fd5b506040805180820190915260018152601960f91b6020820152826101f65760405162461bcd60e51b81526004016101b69190612433565b506040805180820190915260018152603360f81b6020820152811561022e5760405162461bcd60e51b81526004016101b69190612433565b5050505050565b60006102408661127f565b505050905080604051806040016040528060018152602001601960f91b8152509061027e5760405162461bcd60e51b81526004016101b69190612433565b50600061037461036f856001600160a01b03166318160ddd6040518163ffffffff1660e01b815260040160206040518083038186803b1580156102c057600080fd5b505afa1580156102d4573d6000803e3d6000fd5b505050506040513d601f19601f820116820180604052508101906102f891906123df565b876001600160a01b03166318160ddd6040518163ffffffff1660e01b815260040160206040518083038186803b15801561033157600080fd5b505afa158015610345573d6000803e3d6000fd5b505050506040513d601f19601f8201168201806040525081019061036991906123df565b906112b7565b6112cc565b905060006103f7876001600160a01b03166370a08231866040518263ffffffff1660e01b81526004016103a791906123f7565b60206040518083038186803b1580156103bf57600080fd5b505afa1580156103d3573d6000803e3d6000fd5b505050506040513d601f19601f8201168201806040525081019061036f91906123df565b90506000821561041a5761041561040e83856112b7565b8490611331565b61041d565b60005b60028a015460078b0154604080516380031e3760e01b815290519394506fffffffffffffffffffffffffffffffff909216926000926001600160a01b03909216916380031e37916004808301926020929190829003018186803b15801561048357600080fd5b505afa158015610497573d6000803e3d6000fd5b505050506040513d601f19601f820116820180604052508101906104bb91906123df565b90506b0311d253316c79d37600000083101580156104e457506104e081610fa061140f565b8211155b60405180604001604052806002815260200161191960f11b8152509061051d5760405162461bcd60e51b81526004016101b69190612433565b505050505050505050505050565b6b0311d253316c79d37600000081565b6004808a01546040516370a0823160e01b81526000926001600160a01b03909216916370a082319161056f913391016123f7565b60206040518083038186803b15801561058757600080fd5b505afa15801561059b573d6000803e3d6000fd5b505050506040513d601f19601f820116820180604052508101906105bf91906123df565b90506000811160405180604001604052806002815260200161313960f01b815250906105fe5760405162461bcd60e51b81526004016101b69190612433565b5087806106d257506040805160a0810182526001600160a01b038b8116825260078d0154600160a81b900460ff166020830152338284015260608201849052851660808201529051623cf8b960e51b815273__$52a8a86ab43135662ff256bbc95497e8e3$__9163079f17209161068291908b908b908b908b908a90600401612563565b60206040518083038186803b15801561069a57600080fd5b505af41580156106ae573d6000803e3d6000fd5b505050506040513d601f19601f820116820180604052508101906106d29190612071565b60405180604001604052806002815260200161032360f41b8152509061070b5760405162461bcd60e51b81526004016101b69190612433565b5050505050505050505050565b610720611e0d565b6107298a61127f565b151561014085015215156101208401521515610100830152151560e082018190526040805180820190915260018152601960f91b6020820152906107805760405162461bcd60e51b81526004016101b69190612433565b5080610100015115604051806040016040528060018152602001603360f81b815250906107c05760405162461bcd60e51b81526004016101b69190612433565b5060808b01516040805180820190915260018152603160f81b6020820152906107fc5760405162461bcd60e51b81526004016101b69190612433565b50806101200151604051806040016040528060018152602001603760f81b8152509061083b5760405162461bcd60e51b81526004016101b69190612433565b5060a08b015160021480610853575060a08b01516001145b604051806040016040528060018152602001600760fb1b8152509061088b5760405162461bcd60e51b81526004016101b69190612433565b506040805180820182528c8201516001600160a01b031681526020808e015160ff16818301528251908101909252875482526108cc918990888888886114b6565b60c08601526020808601919091529084526080840191909152606083018290526040805180820190915260018152603960f81b91810191909152906109245760405162461bcd60e51b81526004016101b69190612433565b50670de0b6b3a76400008160c001511160405180604001604052806002815260200161031360f41b8152509061096d5760405162461bcd60e51b81526004016101b69190612433565b508051608082015161098a9190610984908c6112b7565b90611b0f565b6040808301829052606083015181518083019092526002825261313160f01b6020830152909111156109cf5760405162461bcd60e51b81526004016101b69190612433565b5060018b60a00151141561070b5780610140015160405180604001604052806002815260200161189960f11b81525090610a1c5760405162461bcd60e51b81526004016101b69190612433565b5060078a0154604080516020810190915287548152610a4491600160a01b900460ff16611bbd565b1580610a565750610a548a611c23565b155b80610ae857506004808b01546040808e015190516370a0823160e01b81526001600160a01b03909216926370a0823192610a919291016123f7565b60206040518083038186803b158015610aa957600080fd5b505afa158015610abd573d6000803e3d6000fd5b505050506040513d601f19601f82011682018060405250810190610ae191906123df565b8b60800151115b60405180604001604052806002815260200161313360f01b81525090610b215760405162461bcd60e51b81526004016101b69190612433565b508a516004808c01546040516370a0823160e01b81526001600160a01b03938416936370a0823193610b579390911691016123f7565b60206040518083038186803b158015610b6f57600080fd5b505afa158015610b83573d6000803e3d6000fd5b505050506040513d601f19601f82011682018060405250810190610ba791906123df565b60a08201819052600090610bbb908a61140f565b9050808c608001511115604051806040016040528060028152602001610c4d60f21b81525090610bfe5760405162461bcd60e51b81526004016101b69190612433565b50505050505050505050505050565b6040805180820190915260018152603160f81b602082015288610c435760405162461bcd60e51b81526004016101b69190612433565b506040805180820190915260018152603560f81b602082015287891115610c7d5760405162461bcd60e51b81526004016101b69190612433565b506001600160a01b038a1660009081526020878152604080832060ff8d1684529091528120610cab9061127f565b505050905080604051806040016040528060018152602001601960f91b81525090610ce95760405162461bcd60e51b81526004016101b69190612433565b506040805160a0810182526001600160a01b03808e16825260ff8d1660208301523382840152606082018c9052851660808201529051623cf8b960e51b815273__$52a8a86ab43135662ff256bbc95497e8e3$__9163079f172091610d5b91908b908b908b908b908a90600401612563565b60206040518083038186803b158015610d7357600080fd5b505af4158015610d87573d6000803e3d6000fd5b505050506040513d601f19601f82011682018060405250810190610dab9190612071565b604051806040016040528060018152602001601b60f91b8152509061051d5760405162461bcd60e51b81526004016101b69190612433565b60008080610df08861127f565b9350509250925082604051806040016040528060018152602001601960f91b81525090610e305760405162461bcd60e51b81526004016101b69190612433565b506040805180820190915260018152603360f81b60208201528215610e685760405162461bcd60e51b81526004016101b69190612433565b506001846002811115610e8b57634e487b7160e01b600052602160045260246000fd5b1415610ece57604080518082019091526002815261313760f01b602082015286610ec85760405162461bcd60e51b81526004016101b69190612433565b5061109a565b6002846002811115610ef057634e487b7160e01b600052602160045260246000fd5b141561106b57604080518082019091526002815261062760f31b602082015285610f2d5760405162461bcd60e51b81526004016101b69190612433565b50604080518082019091526002815261189960f11b602082015281610f655760405162461bcd60e51b81526004016101b69190612433565b506007880154604080516020810190915288548152610f8d91600160a01b900460ff16611bbd565b1580610f9f5750610f9d88611c23565b155b8061103257506004808901546040516370a0823160e01b81526001600160a01b03909116916370a0823191610fd6913391016123f7565b60206040518083038186803b158015610fee57600080fd5b505afa158015611002573d6000803e3d6000fd5b505050506040513d601f19601f8201168201806040525081019061102691906123df565b61103087876112b7565b115b60405180604001604052806002815260200161313360f01b81525090610ec85760405162461bcd60e51b81526004016101b69190612433565b60408051808201825260018152600760fb1b6020820152905162461bcd60e51b81526101b69190600401612433565b5050505050505050565b610fa081565b6001841515141561110b5780156110e6578160ff168360ff1611156110e15760405162461bcd60e51b81526004016101b69061251e565b61110b565b8160ff168360ff161461110b5760405162461bcd60e51b81526004016101b690612486565b50505050565b600061111c87611c2b565b905080604051806040016040528060018152602001601960f91b815250906111575760405162461bcd60e51b81526004016101b69190612433565b506040805180820190915260018152603160f81b60208201528661118e5760405162461bcd60e51b81526004016101b69190612433565b506000831180156111be575060018560028111156111bc57634e487b7160e01b600052602160045260246000fd5b145b806111f357506000821180156111f3575060028560028111156111f157634e487b7160e01b600052602160045260246000fd5b145b60405180604001604052806002815260200161313560f01b8152509061122c5760405162461bcd60e51b81526004016101b69190612433565b50600019861415806112465750336001600160a01b038516145b60405180604001604052806002815260200161189b60f11b8152509061109a5760405162461bcd60e51b81526004016101b69190612433565b54600160381b811615159167020000000000000082161515916704000000000000008116151591670800000000000000909116151590565b60006112c3828461260b565b90505b92915050565b6000806112dd633b9aca0084612757565b9050826112ee633b9aca0083612623565b1460405180604001604052806002815260200161068760f31b815250906113285760405162461bcd60e51b81526004016101b69190612433565b5090505b919050565b604080518082019091526002815261035360f41b60208201526000908261136b5760405162461bcd60e51b81526004016101b69190612433565b506000611379600284612623565b90506b033b2e3c9fd0803ce800000061139482600019612776565b61139e9190612623565b84111560405180604001604052806002815260200161068760f31b815250906113da5760405162461bcd60e51b81526004016101b69190612433565b5082816113f36b033b2e3c9fd0803ce800000087612757565b6113fd919061260b565b6114079190612623565b949350505050565b600082158061141c575081155b15611429575060006112c6565b816114376002612710612623565b61144390600019612776565b61144d9190612623565b83111560405180604001604052806002815260200161068760f31b815250906114895760405162461bcd60e51b81526004016101b69190612433565b50612710611498600282612623565b6114a28486612757565b6114ac919061260b565b6112c39190612623565b60008060008060006114c6611e6f565b8c516001600160a01b03166102a082015260208d015160ff166102c08201526114ee8b611c37565b1561150c576000806000806000199550955095509550955050611b00565b6102c081015160ff166101008201525b888161010001511015611a5f5761010081015161153a908c90611c3c565b61154357611a40565b896000826101000151815260200190815260200160002060009054906101000a90046001600160a01b03168161020001906001600160a01b031690816001600160a01b03168152505060008c60008361020001516001600160a01b03166001600160a01b031681526020019081526020016000206000836102c0015160ff1660ff1681526020019081526020016000209050886001600160a01b0316631a9dffb38960008561020001516001600160a01b03166001600160a01b0316815260200190815260200160002060000160039054906101000a900460ff166040518263ffffffff1660e01b815260040161163a919061240b565b60206040518083038186803b15801561165257600080fd5b505afa158015611666573d6000803e3d6000fd5b505050506040513d601f19601f8201168201806040525081019061168a9190611fc7565b6001600160a01b03166102808301526102c08201516007820154600160a81b900460ff9081169116146116cf5760405162461bcd60e51b81526004016101b6906124cd565b6116d881611c97565b5060a0860181905260e08601929092525060c08401919091526116fc90600a612689565b8260400181815250508161028001516001600160a01b031663b3596f078361020001516040518263ffffffff1660e01b815260040161173b91906123f7565b60206040518083038186803b15801561175357600080fd5b505afa158015611767573d6000803e3d6000fd5b505050506040513d601f19601f8201168201806040525081019061178b91906123df565b602083015260e0820151158015906117af57506101008201516117af908d90611bbd565b156118d3576004808201546102a08401516040516370a0823160e01b81526001600160a01b03909216926370a08231926117ea9291016123f7565b60206040518083038186803b15801561180257600080fd5b505afa158015611816573d6000803e3d6000fd5b505050506040513d601f19601f8201168201806040525081019061183a91906123df565b606083018190526040830151602084015161185f926118599190611cc2565b90611cce565b6102608301819052610140830151611876916112b7565b61014083015260c08201516102608301516118a1916118959190611cc2565b610180840151906112b7565b61018083015260e08201516102608301516118cc916118c09190611cc2565b6101a0840151906112b7565b6101a08301525b6101008201516118e4908d90611cda565b15611a3e5760058101546102a08301516040516370a0823160e01b81526001600160a01b03909216916370a082319161191f916004016123f7565b60206040518083038186803b15801561193757600080fd5b505afa15801561194b573d6000803e3d6000fd5b505050506040513d601f19601f8201168201806040525081019061196f91906123df565b608083015260068101546102a08301516040516370a0823160e01b8152611a08926001600160a01b0316916370a08231916119ad91906004016123f7565b60206040518083038186803b1580156119c557600080fd5b505afa1580156119d9573d6000803e3d6000fd5b505050506040513d601f19601f820116820180604052508101906119fd91906123df565b6080840151906112b7565b6080830181905260408301516020840151611a3792611a2b929161185991611cc2565b610160840151906112b7565b6101608301525b505b600360ff168161010001818151611a57919061260b565b90525061151c565b600081610140015111611a73576000611a88565b610140810151610180820151611a8891611cce565b610180820152610140810151611a9f576000611ab4565b6101408101516101a0820151611ab491611cce565b6101a08201819052610140820151610160830151611ad192611d25565b61012082018190526101408201516101608301516101808401516101a090940151919850965091945090925090505b97509750975097509792505050565b604080518082019091526002815261035360f41b602082015260009082611b495760405162461bcd60e51b81526004016101b69190612433565b506000611b57600284612623565b9050612710611b6882600019612776565b611b729190612623565b84111560405180604001604052806002815260200161068760f31b81525090611bae5760405162461bcd60e51b81526004016101b69190612433565b5082816113f361271087612757565b60006080821060405180604001604052806002815260200161373760f01b81525090611bfc5760405162461bcd60e51b81526004016101b69190612433565b50611c08826002612757565b611c1390600161260b565b925190921c600116151592915050565b5461ffff1690565b54600160381b16151590565b511590565b60006080821060405180604001604052806002815260200161373760f01b81525090611c7b5760405162461bcd60e51b81526004016101b69190612433565b50611c87826002612757565b925190921c600316151592915050565b5461ffff80821692601083901c821692602081901c831692603082901c60ff169260409290921c1690565b60006112c38284612757565b60006112c38284612623565b60006080821060405180604001604052806002815260200161373760f01b81525090611d195760405162461bcd60e51b81526004016101b69190612433565b50611c13826002612757565b600082611d355750600019611d4c565b611d4983611d43868561140f565b90611d53565b90505b9392505050565b604080518082019091526002815261035360f41b602082015260009082611d8d5760405162461bcd60e51b81526004016101b69190612433565b506000611d9b600284612623565b9050670de0b6b3a7640000611db282600019612776565b611dbc9190612623565b84111560405180604001604052806002815260200161068760f31b81525090611df85760405162461bcd60e51b81526004016101b69190612433565b5082816113f3670de0b6b3a764000087612757565b604051806101600160405280600081526020016000815260200160008152602001600081526020016000815260200160008152602001600081526020016000151581526020016000151581526020016000151581526020016000151581525090565b604051806102e00160405280600060ff168152602001600081526020016000815260200160008152602001600081526020016000815260200160008152602001600081526020016000815260200160008152602001600081526020016000815260200160008152602001600081526020016000815260200160001515815260200160006001600160a01b031681526020016000151581526020016000151581526020016000815260200160006001600160a01b0316815260200160006001600160a01b03168152602001600060ff1681525090565b803561132c816127a3565b803561132c816127bb565b80356003811061132c57600080fd5b600060608284031215611f7a578081fd5b611f8460606125d3565b905081358152602082013560208201526040820135604082015292915050565b803561ffff8116811461132c57600080fd5b803560ff8116811461132c57600080fd5b600060208284031215611fd8578081fd5b8151611d4c816127a3565b6000806000806000806000806000806101408b8d031215612002578586fd5b8a3561200d816127a3565b995061201b60208c01611fb6565b985060408b0135975060608b0135965060808b0135955060a08b0135945060c08b0135935060e08b013592506101008b0135612056816127a3565b809250506101208b013590509295989b9194979a5092959850565b600060208284031215612082578081fd5b8151611d4c816127bb565b600080600080608085870312156120a2578384fd5b84356120ad816127bb565b93506120bb60208601611fb6565b92506120c960408601611fb6565b915060608501356120d9816127bb565b939692955090935050565b6000806000806000806000806000808a8c036102e0811215612104578485fd5b6101c080821215612113578586fd5b61211e6101806125d3565b91506121298d611f44565b825261213760208e01611fb6565b602083015261214860408e01611f44565b604083015261215960608e01611f44565b606083015260808d0135608083015260a08d013560a083015261217e60c08e01611f44565b60c083015261218f60e08e01611fa4565b60e08301526121a16101008e01611f4f565b6101008301526101208d0135610120830152610140808e013581840152506121cd8e6101608f01611f69565b610160830152909a508b013598506101e08b013597506102008b013596506102208b013595506102408b013594506102608b013593506102808b013592506122186102a08c01611f44565b91506102c08b013590509295989b9194979a5092959850565b60008060008060008060008060006101208a8c03121561224f578283fd5b8935985060208a0135612261816127a3565b975060408a0135612271816127bb565b965060608a0135955060808a0135945060a08a0135935060c08a0135925060e08a013561229d816127a3565b809250506101008a013590509295985092959850929598565b600080600080600060a086880312156122cd578283fd5b8535945060208601356122df816127a3565b935060408601356122ef816127a3565b925060608601356122ff816127a3565b9150608086013561230f816127a3565b809150509295509295909350565b600080600080600060a08688031215612334578283fd5b8535945060208601359350604086013592506060860135915061235960808701611f5a565b90509295509295909350565b60008060408385031215612377578182fd5b50508035926020909101359150565b60008060008060008060c0878903121561239e578384fd5b86359550602087013594506123b560408801611f5a565b935060608701356123c5816127a3565b9598949750929560808101359460a0909101359350915050565b6000602082840312156123f0578081fd5b5051919050565b6001600160a01b0391909116815260200190565b602081016002831061242d57634e487b7160e01b600052602160045260246000fd5b91905290565b6000602080835283518082850152825b8181101561245f57858101830151858201604001528201612443565b818111156124705783604083870101525b50601f01601f1916929092016040019392505050565b60208082526027908201527f5269736b206973206e6f7420657175616c20746f20636f6c6c61746572616c206040820152667472616e63686560c81b606082015260800190565b60208082526031908201527f63616c63756c617465557365724163636f756e7444617461207472616e636865604082015270020646f6573206e6f74206c696e6520757607c1b606082015260800190565b60208082526025908201527f5269736b20697320746f6f206869676820746f2073657420617320636f6c6c616040820152641d195c985b60da1b606082015260800190565b86516001600160a01b03908116825260208089015160ff169083015260408089015182169083015260608089015190830152608097880151169681019690965260a0860194909452915460c085015260e08401526101008301526101208201526101400190565b90815260200190565b60405181810167ffffffffffffffff8111828210171561260357634e487b7160e01b600052604160045260246000fd5b604052919050565b6000821982111561261e5761261e61278d565b500190565b60008261263e57634e487b7160e01b81526012600452602481fd5b500490565b80825b60018086116126555750612680565b8187048211156126675761266761278d565b8086161561267457918102915b9490941c938002612646565b94509492505050565b60006112c360001984846000826126a257506001611d4c565b816126af57506000611d4c565b81600181146126c557600281146126cf576126fc565b6001915050611d4c565b60ff8411156126e0576126e061278d565b6001841b9150848211156126f6576126f661278d565b50611d4c565b5060208310610133831016604e8410600b841016171561272f575081810a8381111561272a5761272a61278d565b611d4c565b61273c8484846001612643565b80860482111561274e5761274e61278d565b02949350505050565b60008160001904831182151516156127715761277161278d565b500290565b6000828210156127885761278861278d565b500390565b634e487b7160e01b600052601160045260246000fd5b6001600160a01b03811681146127b857600080fd5b50565b80151581146127b857600080fdfea264697066735822122084fc30eb192c6e6426536ebbe0762ecc908577e94101700dee92ba53378adb5e64736f6c63430008000033",
  "linkReferences": {
    "contracts/protocol/libraries/logic/GenericLogic.sol": {
      "GenericLogic": [
        {
          "length": 20,
          "start": 1675
        },
        {
          "length": 20,
          "start": 3428
        }
      ]
    }
  },
  "deployedLinkReferences": {
    "contracts/protocol/libraries/logic/GenericLogic.sol": {
      "GenericLogic": [
        {
          "length": 20,
          "start": 1617
        },
        {
          "length": 20,
          "start": 3370
        }
      ]
    }
  }
}