{
  "_format": "hh-sol-artifact-1",
  "contractName": "ValidationLogic",
  "sourceName": "contracts/protocol/libraries/logic/ValidationLogic.sol",
  "abi": [
    {
      "inputs": [],
      "name": "REBALANCE_UP_LIQUIDITY_RATE_THRESHOLD",
      "outputs": [
        {
          "internalType": "uint256",
          "name": "",
          "type": "uint256"
        }
      ],
      "stateMutability": "view",
      "type": "function"
    },
    {
      "inputs": [],
      "name": "REBALANCE_UP_USAGE_RATIO_THRESHOLD",
      "outputs": [
        {
          "internalType": "uint256",
          "name": "",
          "type": "uint256"
        }
      ],
      "stateMutability": "view",
      "type": "function"
    }
  ],
  "bytecode": "0x61221561003a600b82828239805160001a60731461002d57634e487b7160e01b600052600060045260246000fd5b30600052607381538281f3fe730000000000000000000000000000000000000000301460806040526004361061009d5760003560e01c8063721a92f911610070578063721a92f9146100fb578063a8695b1d1461010e578063abfcc86a14610121578063d09db04a14610129578063fa0c21491461013c5761009d565b80630eca322b146100a2578063548cad09146100b75780635494eb8a146100ca5780635fa297e5146100e8575b600080fd5b6100b56100b0366004611ebf565b61014f565b005b6100b56100c5366004611e10565b610217565b6100d261050d565b6040516100df9190611ffd565b60405180910390f35b6100b56100f6366004611da6565b61051d565b6100b5610109366004611c74565b6106c2565b6100b561011c366004611e77565b610b8a565b6100d2610e4b565b6100b5610137366004611d18565b610e51565b6100b561014a366004611ee0565b610fef565b60008061015b8461115d565b50506040805180820190915260018152603160f81b60208201529193509150836101a15760405162461bcd60e51b81526004016101989190611faa565b60405180910390fd5b506040805180820190915260018152601960f91b6020820152826101d85760405162461bcd60e51b81526004016101989190611faa565b506040805180820190915260018152603360f81b602082015281156102105760405162461bcd60e51b81526004016101989190611faa565b5050505050565b60006102228661115d565b505050905080604051806040016040528060018152602001601960f91b815250906102605760405162461bcd60e51b81526004016101989190611faa565b506000610356610351856001600160a01b03166318160ddd6040518163ffffffff1660e01b815260040160206040518083038186803b1580156102a257600080fd5b505afa1580156102b6573d6000803e3d6000fd5b505050506040513d601f19601f820116820180604052508101906102da9190611f39565b876001600160a01b03166318160ddd6040518163ffffffff1660e01b815260040160206040518083038186803b15801561031357600080fd5b505afa158015610327573d6000803e3d6000fd5b505050506040513d601f19601f8201168201806040525081019061034b9190611f39565b90611195565b6111aa565b905060006103d9876001600160a01b03166370a08231866040518263ffffffff1660e01b81526004016103899190611f51565b60206040518083038186803b1580156103a157600080fd5b505afa1580156103b5573d6000803e3d6000fd5b505050506040513d601f19601f820116820180604052508101906103519190611f39565b9050600082156103fc576103f76103f08385611195565b849061120f565b6103ff565b60005b60028a015460078b0154604080516380031e3760e01b815290519394506fffffffffffffffffffffffffffffffff909216926000926001600160a01b03909216916380031e37916004808301926020929190829003018186803b15801561046557600080fd5b505afa158015610479573d6000803e3d6000fd5b505050506040513d601f19601f8201168201806040525081019061049d9190611f39565b90506b0311d253316c79d37600000083101580156104c657506104c281610fa06112ed565b8211155b60405180604001604052806002815260200161191960f11b815250906104ff5760405162461bcd60e51b81526004016101989190611faa565b505050505050505050505050565b6b0311d253316c79d37600000081565b6004808901546040516370a0823160e01b81526000926001600160a01b03909216916370a082319161055191339101611f51565b60206040518083038186803b15801561056957600080fd5b505afa15801561057d573d6000803e3d6000fd5b505050506040513d601f19601f820116820180604052508101906105a19190611f39565b90506000811160405180604001604052806002815260200161313960f01b815250906105e05760405162461bcd60e51b81526004016101989190611faa565b50868061067d5750604051633985c10960e21b815273__$52a8a86ab43135662ff256bbc95497e8e3$__9063e61704249061062d908b90339086908c908c908c908c908c90600401611f65565b60206040518083038186803b15801561064557600080fd5b505af4158015610659573d6000803e3d6000fd5b505050506040513d601f19601f8201168201806040525081019061067d9190611d8a565b60405180604001604052806002815260200161032360f41b815250906106b65760405162461bcd60e51b81526004016101989190611faa565b50505050505050505050565b6106ca611b69565b6106d38c61115d565b151561014085015215156101208401521515610100830152151560e082018190526040805180820190915260018152601960f91b60208201529061072a5760405162461bcd60e51b81526004016101989190611faa565b5080610100015115604051806040016040528060018152602001603360f81b8152509061076a5760405162461bcd60e51b81526004016101989190611faa565b506040805180820190915260018152603160f81b60208201528a6107a15760405162461bcd60e51b81526004016101989190611faa565b50806101200151604051806040016040528060018152602001603760f81b815250906107e05760405162461bcd60e51b81526004016101989190611faa565b5087600214806107f05750876001145b604051806040016040528060018152602001600760fb1b815250906108285760405162461bcd60e51b81526004016101989190611faa565b50604080516020810190915285548152610848908c908890878787611394565b60c08601526020808601919091529084526080840191909152606083018290526040805180820190915260018152603960f81b91810191909152906108a05760405162461bcd60e51b81526004016101989190611faa565b50670de0b6b3a76400008160c001511160405180604001604052806002815260200161031360f41b815250906108e95760405162461bcd60e51b81526004016101989190611faa565b50805160808201516109069190610900908c611195565b9061186b565b6040808301829052606083015181518083019092526002825261313160f01b60208301529091111561094b5760405162461bcd60e51b81526004016101989190611faa565b506001881415610b7b5780610140015160405180604001604052806002815260200161189960f11b815250906109945760405162461bcd60e51b81526004016101989190611faa565b5060078c01546040805160208101909152865481526109bc91600160a01b900460ff16611919565b15806109ce57506109cc8c61197f565b155b80610a5857506004808d01546040516370a0823160e01b81526001600160a01b03909116916370a0823191610a05918f9101611f51565b60206040518083038186803b158015610a1d57600080fd5b505afa158015610a31573d6000803e3d6000fd5b505050506040513d601f19601f82011682018060405250810190610a559190611f39565b8a115b60405180604001604052806002815260200161313360f01b81525090610a915760405162461bcd60e51b81526004016101989190611faa565b508c6001600160a01b03166370a082318d60040160009054906101000a90046001600160a01b03166040518263ffffffff1660e01b8152600401610ad59190611f51565b60206040518083038186803b158015610aed57600080fd5b505afa158015610b01573d6000803e3d6000fd5b505050506040513d601f19601f82011682018060405250810190610b259190611f39565b60a08201819052600090610b3990896112ed565b9050808b1115604051806040016040528060028152602001610c4d60f21b81525090610b785760405162461bcd60e51b81526004016101989190611faa565b50505b50505050505050505050505050565b60008080610b978861115d565b9350509250925082604051806040016040528060018152602001601960f91b81525090610bd75760405162461bcd60e51b81526004016101989190611faa565b506040805180820190915260018152603360f81b60208201528215610c0f5760405162461bcd60e51b81526004016101989190611faa565b506001846002811115610c3257634e487b7160e01b600052602160045260246000fd5b1415610c7557604080518082019091526002815261313760f01b602082015286610c6f5760405162461bcd60e51b81526004016101989190611faa565b50610e41565b6002846002811115610c9757634e487b7160e01b600052602160045260246000fd5b1415610e1257604080518082019091526002815261062760f31b602082015285610cd45760405162461bcd60e51b81526004016101989190611faa565b50604080518082019091526002815261189960f11b602082015281610d0c5760405162461bcd60e51b81526004016101989190611faa565b506007880154604080516020810190915288548152610d3491600160a01b900460ff16611919565b1580610d465750610d448861197f565b155b80610dd957506004808901546040516370a0823160e01b81526001600160a01b03909116916370a0823191610d7d91339101611f51565b60206040518083038186803b158015610d9557600080fd5b505afa158015610da9573d6000803e3d6000fd5b505050506040513d601f19601f82011682018060405250810190610dcd9190611f39565b610dd78787611195565b115b60405180604001604052806002815260200161313360f01b81525090610c6f5760405162461bcd60e51b81526004016101989190611faa565b60408051808201825260018152600760fb1b6020820152905162461bcd60e51b81526101989190600401611faa565b5050505050505050565b610fa081565b6040805180820190915260018152603160f81b602082015287610e875760405162461bcd60e51b81526004016101989190611faa565b506040805180820190915260018152603560f81b602082015286881115610ec15760405162461bcd60e51b81526004016101989190611faa565b506001600160a01b0388166000908152602086905260408120610ee39061115d565b505050905080604051806040016040528060018152602001601960f91b81525090610f215760405162461bcd60e51b81526004016101989190611faa565b50604051633985c10960e21b815273__$52a8a86ab43135662ff256bbc95497e8e3$__9063e617042490610f67908c9033908d908c908c908c908c908c90600401611f65565b60206040518083038186803b158015610f7f57600080fd5b505af4158015610f93573d6000803e3d6000fd5b505050506040513d601f19601f82011682018060405250810190610fb79190611d8a565b604051806040016040528060018152602001601b60f91b815250906106b65760405162461bcd60e51b81526004016101989190611faa565b6000610ffa87611987565b905080604051806040016040528060018152602001601960f91b815250906110355760405162461bcd60e51b81526004016101989190611faa565b506040805180820190915260018152603160f81b60208201528661106c5760405162461bcd60e51b81526004016101989190611faa565b5060008311801561109c5750600185600281111561109a57634e487b7160e01b600052602160045260246000fd5b145b806110d157506000821180156110d1575060028560028111156110cf57634e487b7160e01b600052602160045260246000fd5b145b60405180604001604052806002815260200161313560f01b8152509061110a5760405162461bcd60e51b81526004016101989190611faa565b50600019861415806111245750336001600160a01b038516145b60405180604001604052806002815260200161189b60f11b81525090610e415760405162461bcd60e51b81526004016101989190611faa565b54600160381b811615159167020000000000000082161515916704000000000000008116151591670800000000000000909116151590565b60006111a18284612006565b90505b92915050565b6000806111bb633b9aca0084612152565b9050826111cc633b9aca008361201e565b1460405180604001604052806002815260200161068760f31b815250906112065760405162461bcd60e51b81526004016101989190611faa565b5090505b919050565b604080518082019091526002815261035360f41b6020820152600090826112495760405162461bcd60e51b81526004016101989190611faa565b50600061125760028461201e565b90506b033b2e3c9fd0803ce800000061127282600019612171565b61127c919061201e565b84111560405180604001604052806002815260200161068760f31b815250906112b85760405162461bcd60e51b81526004016101989190611faa565b5082816112d16b033b2e3c9fd0803ce800000087612152565b6112db9190612006565b6112e5919061201e565b949350505050565b60008215806112fa575081155b15611307575060006111a4565b81611315600261271061201e565b61132190600019612171565b61132b919061201e565b83111560405180604001604052806002815260200161068760f31b815250906113675760405162461bcd60e51b81526004016101989190611faa565b5061271061137660028261201e565b6113808486612152565b61138a9190612006565b6111a1919061201e565b60008060008060006113a4611bcb565b6113ad8a611993565b156113cb57600080600080600019955095509550955095505061185d565b600060e08201525b878160e0015110156117bc5760e08101516113ef908b90611998565b6113f8576117a4565b60e0810151600090815260208a81526040808320546001600160a01b03166101e085018190528352908d9052902061142f816119f3565b506080860181905260c08601929092525060a084019190915261145390600a612084565b60208301526101e082015160405163b3596f0760e01b81526001600160a01b038a169163b3596f07916114899190600401611f51565b60206040518083038186803b1580156114a157600080fd5b505afa1580156114b5573d6000803e3d6000fd5b505050506040513d601f19601f820116820180604052508101906114d99190611f39565b825260c0820151158015906114f9575060e08201516114f9908c90611919565b1561161d578060040160009054906101000a90046001600160a01b03166001600160a01b03166370a082318e6040518263ffffffff1660e01b81526004016115419190611f51565b60206040518083038186803b15801561155957600080fd5b505afa15801561156d573d6000803e3d6000fd5b505050506040513d601f19601f820116820180604052508101906115919190611f39565b60408301819052602083015183516000926115b692916115b091611a1e565b90611a2a565b6101208401519091506115c99082611195565b61012084015260a08301516115ef906115e3908390611a1e565b61016085015190611195565b61016084015260c083015161161590611609908390611a1e565b61018085015190611195565b610180840152505b60e082015161162d908c90611a36565b156117a2578060050160009054906101000a90046001600160a01b03166001600160a01b03166370a082318e6040518263ffffffff1660e01b81526004016116759190611f51565b60206040518083038186803b15801561168d57600080fd5b505afa1580156116a1573d6000803e3d6000fd5b505050506040513d601f19601f820116820180604052508101906116c59190611f39565b82606001818152505061176f8160060160009054906101000a90046001600160a01b03166001600160a01b03166370a082318f6040518263ffffffff1660e01b81526004016117149190611f51565b60206040518083038186803b15801561172c57600080fd5b505afa158015611740573d6000803e3d6000fd5b505050506040513d601f19601f820116820180604052508101906117649190611f39565b606084015190611195565b606083018190526020830151835161179b9261178f92916115b091611a1e565b61014084015190611195565b6101408301525b505b60e081018051906117b482612188565b9052506113d3565b6000816101200151116117d05760006117e5565b6101208101516101608201516117e591611a2a565b6101608201526101208101516117fc576000611811565b61012081015161018082015161181191611a2a565b610180820181905261012082015161014083015161182e92611a81565b610100820181905261012082015161014083015161016084015161018090940151919850965091945090925090505b965096509650965096915050565b604080518082019091526002815261035360f41b6020820152600090826118a55760405162461bcd60e51b81526004016101989190611faa565b5060006118b360028461201e565b90506127106118c482600019612171565b6118ce919061201e565b84111560405180604001604052806002815260200161068760f31b8152509061190a5760405162461bcd60e51b81526004016101989190611faa565b5082816112d161271087612152565b60006080821060405180604001604052806002815260200161373760f01b815250906119585760405162461bcd60e51b81526004016101989190611faa565b50611964826002612152565b61196f906001612006565b925190921c600116151592915050565b5461ffff1690565b54600160381b16151590565b511590565b60006080821060405180604001604052806002815260200161373760f01b815250906119d75760405162461bcd60e51b81526004016101989190611faa565b506119e3826002612152565b925190921c600316151592915050565b5461ffff80821692601083901c821692602081901c831692603082901c60ff169260409290921c1690565b60006111a18284612152565b60006111a1828461201e565b60006080821060405180604001604052806002815260200161373760f01b81525090611a755760405162461bcd60e51b81526004016101989190611faa565b5061196f826002612152565b600082611a915750600019611aa8565b611aa583611a9f86856112ed565b90611aaf565b90505b9392505050565b604080518082019091526002815261035360f41b602082015260009082611ae95760405162461bcd60e51b81526004016101989190611faa565b506000611af760028461201e565b9050670de0b6b3a7640000611b0e82600019612171565b611b18919061201e565b84111560405180604001604052806002815260200161068760f31b81525090611b545760405162461bcd60e51b81526004016101989190611faa565b5082816112d1670de0b6b3a764000087612152565b604051806101600160405280600081526020016000815260200160008152602001600081526020016000815260200160008152602001600081526020016000151581526020016000151581526020016000151581526020016000151581525090565b604051806102400160405280600081526020016000815260200160008152602001600081526020016000815260200160008152602001600081526020016000815260200160008152602001600081526020016000815260200160008152602001600081526020016000815260200160001515815260200160006001600160a01b031681526020016000151581526020016000151581525090565b80356003811061120a57600080fd5b6000806000806000806000806000806000806101808d8f031215611c96578788fd5b8c35611ca1816121b9565b9b5060208d01359a5060408d0135611cb8816121b9565b995060608d0135985060808d0135975060a08d0135965060c08d0135955060e08d013594506101008d013593506101208d013592506101408d013591506101608d0135611d04816121b9565b809150509295989b509295989b509295989b565b600080600080600080600080610100898b031215611d34578384fd5b8835611d3f816121b9565b97506020890135965060408901359550606089013594506080890135935060a0890135925060c0890135915060e0890135611d79816121b9565b809150509295985092959890939650565b600060208284031215611d9b578081fd5b8151611aa8816121d1565b600080600080600080600080610100898b031215611dc2578384fd5b883597506020890135611dd4816121b9565b96506040890135611de4816121d1565b9550606089013594506080890135935060a0890135925060c0890135915060e0890135611d79816121b9565b600080600080600060a08688031215611e27578081fd5b853594506020860135611e39816121b9565b93506040860135611e49816121b9565b92506060860135611e59816121b9565b91506080860135611e69816121b9565b809150509295509295909350565b600080600080600060a08688031215611e8e578081fd5b85359450602086013593506040860135925060608601359150611eb360808701611c65565b90509295509295909350565b60008060408385031215611ed1578182fd5b50508035926020909101359150565b60008060008060008060c08789031215611ef8578384fd5b8635955060208701359450611f0f60408801611c65565b93506060870135611f1f816121b9565b9598949750929560808101359460a0909101359350915050565b600060208284031215611f4a578081fd5b5051919050565b6001600160a01b0391909116815260200190565b6001600160a01b0398891681529688166020880152604087019590955260608601939093529054608085015260a084015260c083015290911660e08201526101000190565b6000602080835283518082850152825b81811015611fd657858101830151858201604001528201611fba565b81811115611fe75783604083870101525b50601f01601f1916929092016040019392505050565b90815260200190565b60008219821115612019576120196121a3565b500190565b60008261203957634e487b7160e01b81526012600452602481fd5b500490565b80825b6001808611612050575061207b565b818704821115612062576120626121a3565b8086161561206f57918102915b9490941c938002612041565b94509492505050565b60006111a1600019848460008261209d57506001611aa8565b816120aa57506000611aa8565b81600181146120c057600281146120ca576120f7565b6001915050611aa8565b60ff8411156120db576120db6121a3565b6001841b9150848211156120f1576120f16121a3565b50611aa8565b5060208310610133831016604e8410600b841016171561212a575081810a83811115612125576121256121a3565b611aa8565b612137848484600161203e565b808604821115612149576121496121a3565b02949350505050565b600081600019048311821515161561216c5761216c6121a3565b500290565b600082821015612183576121836121a3565b500390565b600060001982141561219c5761219c6121a3565b5060010190565b634e487b7160e01b600052601160045260246000fd5b6001600160a01b03811681146121ce57600080fd5b50565b80151581146121ce57600080fdfea2646970667358221220b9c3c0d65da71c9398753695107acb07d891d7290eb8385ce30746b097871fa464736f6c63430008000033",
  "linkReferences": {
    "contracts/protocol/libraries/logic/GenericLogic.sol": {
      "GenericLogic": [
        {
          "length": 20,
          "start": 1585
        },
        {
          "length": 20,
          "start": 3947
        }
      ]
    }
  },
  "deployedLinkReferences": {
    "contracts/protocol/libraries/logic/GenericLogic.sol": {
      "GenericLogic": [
        {
          "length": 20,
          "start": 1527
        },
        {
          "length": 20,
          "start": 3889
        }
      ]
    }
  }
}