{
  "_format": "hh-sol-artifact-1",
  "contractName": "AToken",
  "sourceName": "contracts/protocol/tokenization/AToken.sol",
  "abi": [
    {
      "anonymous": false,
      "inputs": [
        {
          "indexed": true,
          "internalType": "address",
          "name": "owner",
          "type": "address"
        },
        {
          "indexed": true,
          "internalType": "address",
          "name": "spender",
          "type": "address"
        },
        {
          "indexed": false,
          "internalType": "uint256",
          "name": "value",
          "type": "uint256"
        }
      ],
      "name": "Approval",
      "type": "event"
    },
    {
      "anonymous": false,
      "inputs": [
        {
          "indexed": true,
          "internalType": "address",
          "name": "from",
          "type": "address"
        },
        {
          "indexed": true,
          "internalType": "address",
          "name": "to",
          "type": "address"
        },
        {
          "indexed": false,
          "internalType": "uint256",
          "name": "value",
          "type": "uint256"
        },
        {
          "indexed": false,
          "internalType": "uint256",
          "name": "index",
          "type": "uint256"
        }
      ],
      "name": "BalanceTransfer",
      "type": "event"
    },
    {
      "anonymous": false,
      "inputs": [
        {
          "indexed": true,
          "internalType": "address",
          "name": "from",
          "type": "address"
        },
        {
          "indexed": true,
          "internalType": "address",
          "name": "target",
          "type": "address"
        },
        {
          "indexed": false,
          "internalType": "uint256",
          "name": "value",
          "type": "uint256"
        },
        {
          "indexed": false,
          "internalType": "uint256",
          "name": "index",
          "type": "uint256"
        }
      ],
      "name": "Burn",
      "type": "event"
    },
    {
      "anonymous": false,
      "inputs": [
        {
          "indexed": true,
          "internalType": "address",
          "name": "underlyingAsset",
          "type": "address"
        },
        {
          "indexed": true,
          "internalType": "address",
          "name": "pool",
          "type": "address"
        },
        {
          "indexed": false,
          "internalType": "address",
          "name": "treasury",
          "type": "address"
        },
        {
          "indexed": false,
          "internalType": "address",
          "name": "incentivesController",
          "type": "address"
        },
        {
          "indexed": false,
          "internalType": "uint8",
          "name": "aTokenDecimals",
          "type": "uint8"
        },
        {
          "indexed": false,
          "internalType": "string",
          "name": "aTokenName",
          "type": "string"
        },
        {
          "indexed": false,
          "internalType": "string",
          "name": "aTokenSymbol",
          "type": "string"
        },
        {
          "indexed": false,
          "internalType": "bytes",
          "name": "params",
          "type": "bytes"
        }
      ],
      "name": "Initialized",
      "type": "event"
    },
    {
      "anonymous": false,
      "inputs": [
        {
          "indexed": true,
          "internalType": "address",
          "name": "from",
          "type": "address"
        },
        {
          "indexed": false,
          "internalType": "uint256",
          "name": "value",
          "type": "uint256"
        },
        {
          "indexed": false,
          "internalType": "uint256",
          "name": "index",
          "type": "uint256"
        }
      ],
      "name": "Mint",
      "type": "event"
    },
    {
      "anonymous": false,
      "inputs": [
        {
          "indexed": true,
          "internalType": "address",
          "name": "from",
          "type": "address"
        },
        {
          "indexed": true,
          "internalType": "address",
          "name": "to",
          "type": "address"
        },
        {
          "indexed": false,
          "internalType": "uint256",
          "name": "value",
          "type": "uint256"
        }
      ],
      "name": "Transfer",
      "type": "event"
    },
    {
      "inputs": [],
      "name": "ATOKEN_REVISION",
      "outputs": [
        {
          "internalType": "uint256",
          "name": "",
          "type": "uint256"
        }
      ],
      "stateMutability": "view",
      "type": "function"
    },
    {
      "inputs": [],
      "name": "DOMAIN_SEPARATOR",
      "outputs": [
        {
          "internalType": "bytes32",
          "name": "",
          "type": "bytes32"
        }
      ],
      "stateMutability": "view",
      "type": "function"
    },
    {
      "inputs": [],
      "name": "EIP712_REVISION",
      "outputs": [
        {
          "internalType": "bytes",
          "name": "",
          "type": "bytes"
        }
      ],
      "stateMutability": "view",
      "type": "function"
    },
    {
      "inputs": [],
      "name": "PERMIT_TYPEHASH",
      "outputs": [
        {
          "internalType": "bytes32",
          "name": "",
          "type": "bytes32"
        }
      ],
      "stateMutability": "view",
      "type": "function"
    },
    {
      "inputs": [],
      "name": "POOL",
      "outputs": [
        {
          "internalType": "contract ILendingPool",
          "name": "",
          "type": "address"
        }
      ],
      "stateMutability": "view",
      "type": "function"
    },
    {
      "inputs": [],
      "name": "RESERVE_TREASURY_ADDRESS",
      "outputs": [
        {
          "internalType": "address",
          "name": "",
          "type": "address"
        }
      ],
      "stateMutability": "view",
      "type": "function"
    },
    {
      "inputs": [],
      "name": "UNDERLYING_ASSET_ADDRESS",
      "outputs": [
        {
          "internalType": "address",
          "name": "",
          "type": "address"
        }
      ],
      "stateMutability": "view",
      "type": "function"
    },
    {
      "inputs": [
        {
          "internalType": "address",
          "name": "",
          "type": "address"
        }
      ],
      "name": "_nonces",
      "outputs": [
        {
          "internalType": "uint256",
          "name": "",
          "type": "uint256"
        }
      ],
      "stateMutability": "view",
      "type": "function"
    },
    {
      "inputs": [
        {
          "internalType": "address",
          "name": "owner",
          "type": "address"
        },
        {
          "internalType": "address",
          "name": "spender",
          "type": "address"
        }
      ],
      "name": "allowance",
      "outputs": [
        {
          "internalType": "uint256",
          "name": "",
          "type": "uint256"
        }
      ],
      "stateMutability": "view",
      "type": "function"
    },
    {
      "inputs": [
        {
          "internalType": "address",
          "name": "spender",
          "type": "address"
        },
        {
          "internalType": "uint256",
          "name": "amount",
          "type": "uint256"
        }
      ],
      "name": "approve",
      "outputs": [
        {
          "internalType": "bool",
          "name": "",
          "type": "bool"
        }
      ],
      "stateMutability": "nonpayable",
      "type": "function"
    },
    {
      "inputs": [
        {
          "internalType": "address",
          "name": "user",
          "type": "address"
        }
      ],
      "name": "balanceOf",
      "outputs": [
        {
          "internalType": "uint256",
          "name": "",
          "type": "uint256"
        }
      ],
      "stateMutability": "view",
      "type": "function"
    },
    {
      "inputs": [
        {
          "internalType": "address",
          "name": "user",
          "type": "address"
        },
        {
          "internalType": "address",
          "name": "receiverOfUnderlying",
          "type": "address"
        },
        {
          "internalType": "uint256",
          "name": "amount",
          "type": "uint256"
        },
        {
          "internalType": "uint256",
          "name": "index",
          "type": "uint256"
        }
      ],
      "name": "burn",
      "outputs": [],
      "stateMutability": "nonpayable",
      "type": "function"
    },
    {
      "inputs": [],
      "name": "decimals",
      "outputs": [
        {
          "internalType": "uint8",
          "name": "",
          "type": "uint8"
        }
      ],
      "stateMutability": "view",
      "type": "function"
    },
    {
      "inputs": [
        {
          "internalType": "address",
          "name": "spender",
          "type": "address"
        },
        {
          "internalType": "uint256",
          "name": "subtractedValue",
          "type": "uint256"
        }
      ],
      "name": "decreaseAllowance",
      "outputs": [
        {
          "internalType": "bool",
          "name": "",
          "type": "bool"
        }
      ],
      "stateMutability": "nonpayable",
      "type": "function"
    },
    {
      "inputs": [],
      "name": "getIncentivesController",
      "outputs": [
        {
          "internalType": "contract IAaveIncentivesController",
          "name": "",
          "type": "address"
        }
      ],
      "stateMutability": "view",
      "type": "function"
    },
    {
      "inputs": [
        {
          "internalType": "address",
          "name": "user",
          "type": "address"
        }
      ],
      "name": "getScaledUserBalanceAndSupply",
      "outputs": [
        {
          "internalType": "uint256",
          "name": "",
          "type": "uint256"
        },
        {
          "internalType": "uint256",
          "name": "",
          "type": "uint256"
        }
      ],
      "stateMutability": "view",
      "type": "function"
    },
    {
      "inputs": [
        {
          "internalType": "address",
          "name": "user",
          "type": "address"
        },
        {
          "internalType": "uint256",
          "name": "amount",
          "type": "uint256"
        }
      ],
      "name": "handleRepayment",
      "outputs": [],
      "stateMutability": "nonpayable",
      "type": "function"
    },
    {
      "inputs": [
        {
          "internalType": "address",
          "name": "spender",
          "type": "address"
        },
        {
          "internalType": "uint256",
          "name": "addedValue",
          "type": "uint256"
        }
      ],
      "name": "increaseAllowance",
      "outputs": [
        {
          "internalType": "bool",
          "name": "",
          "type": "bool"
        }
      ],
      "stateMutability": "nonpayable",
      "type": "function"
    },
    {
      "inputs": [
        {
          "internalType": "contract ILendingPool",
          "name": "pool",
          "type": "address"
        },
        {
          "internalType": "address",
          "name": "treasury",
          "type": "address"
        },
        {
          "internalType": "address",
          "name": "underlyingAsset",
          "type": "address"
        },
        {
          "internalType": "contract IAaveIncentivesController",
          "name": "incentivesController",
          "type": "address"
        },
        {
          "internalType": "uint8",
          "name": "aTokenDecimals",
          "type": "uint8"
        },
        {
          "internalType": "string",
          "name": "aTokenName",
          "type": "string"
        },
        {
          "internalType": "string",
          "name": "aTokenSymbol",
          "type": "string"
        },
        {
          "internalType": "bytes",
          "name": "params",
          "type": "bytes"
        }
      ],
      "name": "initialize",
      "outputs": [],
      "stateMutability": "nonpayable",
      "type": "function"
    },
    {
      "inputs": [
        {
          "internalType": "address",
          "name": "user",
          "type": "address"
        },
        {
          "internalType": "uint256",
          "name": "amount",
          "type": "uint256"
        },
        {
          "internalType": "uint256",
          "name": "index",
          "type": "uint256"
        }
      ],
      "name": "mint",
      "outputs": [
        {
          "internalType": "bool",
          "name": "",
          "type": "bool"
        }
      ],
      "stateMutability": "nonpayable",
      "type": "function"
    },
    {
      "inputs": [
        {
          "internalType": "uint256",
          "name": "amount",
          "type": "uint256"
        },
        {
          "internalType": "uint256",
          "name": "index",
          "type": "uint256"
        }
      ],
      "name": "mintToTreasury",
      "outputs": [],
      "stateMutability": "nonpayable",
      "type": "function"
    },
    {
      "inputs": [],
      "name": "name",
      "outputs": [
        {
          "internalType": "string",
          "name": "",
          "type": "string"
        }
      ],
      "stateMutability": "view",
      "type": "function"
    },
    {
      "inputs": [
        {
          "internalType": "address",
          "name": "owner",
          "type": "address"
        },
        {
          "internalType": "address",
          "name": "spender",
          "type": "address"
        },
        {
          "internalType": "uint256",
          "name": "value",
          "type": "uint256"
        },
        {
          "internalType": "uint256",
          "name": "deadline",
          "type": "uint256"
        },
        {
          "internalType": "uint8",
          "name": "v",
          "type": "uint8"
        },
        {
          "internalType": "bytes32",
          "name": "r",
          "type": "bytes32"
        },
        {
          "internalType": "bytes32",
          "name": "s",
          "type": "bytes32"
        }
      ],
      "name": "permit",
      "outputs": [],
      "stateMutability": "nonpayable",
      "type": "function"
    },
    {
      "inputs": [
        {
          "internalType": "address",
          "name": "user",
          "type": "address"
        }
      ],
      "name": "scaledBalanceOf",
      "outputs": [
        {
          "internalType": "uint256",
          "name": "",
          "type": "uint256"
        }
      ],
      "stateMutability": "view",
      "type": "function"
    },
    {
      "inputs": [],
      "name": "scaledTotalSupply",
      "outputs": [
        {
          "internalType": "uint256",
          "name": "",
          "type": "uint256"
        }
      ],
      "stateMutability": "view",
      "type": "function"
    },
    {
      "inputs": [],
      "name": "symbol",
      "outputs": [
        {
          "internalType": "string",
          "name": "",
          "type": "string"
        }
      ],
      "stateMutability": "view",
      "type": "function"
    },
    {
      "inputs": [],
      "name": "totalSupply",
      "outputs": [
        {
          "internalType": "uint256",
          "name": "",
          "type": "uint256"
        }
      ],
      "stateMutability": "view",
      "type": "function"
    },
    {
      "inputs": [
        {
          "internalType": "address",
          "name": "recipient",
          "type": "address"
        },
        {
          "internalType": "uint256",
          "name": "amount",
          "type": "uint256"
        }
      ],
      "name": "transfer",
      "outputs": [
        {
          "internalType": "bool",
          "name": "",
          "type": "bool"
        }
      ],
      "stateMutability": "nonpayable",
      "type": "function"
    },
    {
      "inputs": [
        {
          "internalType": "address",
          "name": "sender",
          "type": "address"
        },
        {
          "internalType": "address",
          "name": "recipient",
          "type": "address"
        },
        {
          "internalType": "uint256",
          "name": "amount",
          "type": "uint256"
        }
      ],
      "name": "transferFrom",
      "outputs": [
        {
          "internalType": "bool",
          "name": "",
          "type": "bool"
        }
      ],
      "stateMutability": "nonpayable",
      "type": "function"
    },
    {
      "inputs": [
        {
          "internalType": "address",
          "name": "from",
          "type": "address"
        },
        {
          "internalType": "address",
          "name": "to",
          "type": "address"
        },
        {
          "internalType": "uint256",
          "name": "value",
          "type": "uint256"
        }
      ],
      "name": "transferOnLiquidation",
      "outputs": [],
      "stateMutability": "nonpayable",
      "type": "function"
    },
    {
      "inputs": [
        {
          "internalType": "address",
          "name": "target",
          "type": "address"
        },
        {
          "internalType": "uint256",
          "name": "amount",
          "type": "uint256"
        }
      ],
      "name": "transferUnderlyingTo",
      "outputs": [
        {
          "internalType": "uint256",
          "name": "",
          "type": "uint256"
        }
      ],
      "stateMutability": "nonpayable",
      "type": "function"
    }
  ],
  "bytecode": "0x6080604052600080553480156200001557600080fd5b50604080518082018252600b8082526a105513d2d15397d253541360aa1b60208084018281528551808701909652928552840152815191929160009162000060916037919062000094565b5081516200007690603890602085019062000094565b506039805460ff191660ff9290921691909117905550620001779050565b828054620000a2906200013a565b90600052602060002090601f016020900481019282620000c6576000855562000111565b82601f10620000e157805160ff191683800117855562000111565b8280016001018555821562000111579182015b8281111562000111578251825591602001919060010190620000f4565b506200011f92915062000123565b5090565b5b808211156200011f576000815560010162000124565b6002810460018216806200014f57607f821691505b602082108114156200017157634e487b7160e01b600052602260045260246000fd5b50919050565b6126fb80620001876000396000f3fe608060405234801561001057600080fd5b50600436106101e55760003560e01c80637535d2461161010f578063ae167335116100a2578063d505accf11610071578063d505accf146103b6578063d7020d0a146103c9578063dd62ed3e146103dc578063f866c319146103ef576101e5565b8063ae1673351461038b578063b16a19de14610393578063b1bf962d1461039b578063b9844d8d146103a3576101e5565b806388dd91a1116100de57806388dd91a11461034a57806395d89b411461035d578063a457c2d714610365578063a9059cbb14610378576101e5565b80637535d2461461031257806375d2641314610327578063781603761461032f5780637df5bd3b14610337576101e5565b80631da24f3e116101875780633644e515116101565780633644e515146102d157806339509351146102d95780634efecaa5146102ec57806370a08231146102ff576101e5565b80631da24f3e1461028e57806323b872dd146102a157806330adf81f146102b4578063313ce567146102bc576101e5565b80630bd7ad3b116101c35780630bd7ad3b14610249578063156e29f61461025e57806318160ddd14610271578063183fb41314610279576101e5565b806306fdde03146101ea578063095ea7b3146102085780630afbcdc914610228575b600080fd5b6101f2610402565b6040516101ff91906121dc565b60405180910390f35b61021b610216366004611e10565b610495565b6040516101ff919061214a565b61023b610236366004611cca565b6104b3565b6040516101ff9291906124f7565b6102516104d0565b6040516101ff9190612155565b61021b61026c366004611e3b565b6104d5565b61025161061e565b61028c610287366004611e8f565b6106d0565b005b61025161029c366004611cca565b610970565b61021b6102af366004611d1e565b610983565b610251610a43565b6102c4610a67565b6040516101ff9190612505565b610251610a70565b61021b6102e7366004611e10565b610a76565b6102516102fa366004611e10565b610ac4565b61025161030d366004611cca565b610b3c565b61031a610bd5565b6040516101ff9190612055565b61031a610be4565b6101f2610bf3565b61028c610345366004611f97565b610c10565b61028c610358366004611e10565b610d14565b6101f2610d70565b61021b610373366004611e10565b610d7f565b61021b610386366004611e10565b610de7565b61031a610e44565b61031a610e53565b610251610e62565b6102516103b1366004611cca565b610e6c565b61028c6103c4366004611da3565b610e7e565b61028c6103d7366004611d5e565b611016565b6102516103ea366004611ce6565b611164565b61028c6103fd366004611d1e565b61118f565b606060378054610411906125ad565b80601f016020809104026020016040519081016040528092919081815260200182805461043d906125ad565b801561048a5780601f1061045f5761010080835404028352916020019161048a565b820191906000526020600020905b81548152906001019060200180831161046d57829003601f168201915b505050505090505b90565b60006104a96104a2611232565b8484611236565b5060015b92915050565b6000806104bf836112dd565b6104c76112f8565b91509150915091565b600181565b603c546000906001600160a01b03166104ec611232565b6001600160a01b03161460405180604001604052806002815260200161323960f01b815250906105385760405162461bcd60e51b815260040161052f91906121dc565b60405180910390fd5b506000610544856112dd565b9050600061055285856112fe565b6040805180820190915260028152611a9b60f11b60208201529091508161058c5760405162461bcd60e51b815260040161052f91906121dc565b5061059786826113dc565b856001600160a01b031660006001600160a01b0316600080516020612681833981519152876040516105c99190612155565b60405180910390a3856001600160a01b03167f4c209b5fc8ad50758f13e2e1088ba56a560dff690a1c6fef26394f4c03821c4f868660405161060c9291906124f7565b60405180910390a25015949350505050565b6000806106296112f8565b90508061063a576000915050610492565b603c54603e5460405163d15e005360e01b81526106ca926001600160a01b039081169263d15e0053926106739290911690600401612055565b60206040518083038186803b15801561068b57600080fd5b505afa15801561069f573d6000803e3d6000fd5b505050506040513d601f19601f820116820180604052508101906106c39190611f7f565b82906114e3565b91505090565b60006106da6115a5565b60015490915060ff16806106f157506106f16115aa565b806106fd575060005481115b6107195760405162461bcd60e51b815260040161052f906122d4565b60015460ff16158015610738576001805460ff19168117905560008290555b60405146907f8b73c3c69bb8fe3d512ecc4cf759cc79239f7b179b0ffacaa9a75d522b39400f9061076c908b908b9061200e565b60408051918290038220828201825260018352603160f81b60209384015290516107bd93927fc89efdaa54c0f20c7adf612882df0950f5a951637e0307cdcb4c672f298b8bc6918691309101612192565b60408051601f198184030181528282528051602091820120603b55601f8b0181900481028301810190915289825261081091908b908b90819084018382808284376000920191909152506115b092505050565b61084f87878080601f0160208091040260200160405190810160405280939291908181526020018383808284376000920191909152506115c392505050565b6108588a6115d6565b8d603c60006101000a8154816001600160a01b0302191690836001600160a01b031602179055508c603d60006101000a8154816001600160a01b0302191690836001600160a01b031602179055508b603e60006101000a8154816001600160a01b0302191690836001600160a01b031602179055508a603f60006101000a8154816001600160a01b0302191690836001600160a01b031602179055508d6001600160a01b03168c6001600160a01b03167fb19e051f8af41150ccccb3fc2c2d8d15f4a4cf434f32a559ba75fe73d6eea20b8f8e8e8e8e8e8e8e8e604051610947999897969594939291906120a2565b60405180910390a3508015610961576001805460ff191690555b50505050505050505050505050565b600061097b826112dd565b90505b919050565b60006109908484846115ec565b610a008461099c611232565b6109fb85604051806060016040528060288152602001612659602891396001600160a01b038a166000908152603560205260408120906109da611232565b6001600160a01b0316815260208101919091526040016000205491906115f9565b611236565b826001600160a01b0316846001600160a01b031660008051602061268183398151915284604051610a319190612155565b60405180910390a35060019392505050565b7f6e71edae12b1b97f4d1f60370fef10105fa2faae0126114a169c64845d6126c981565b60395460ff1690565b603b5481565b60006104a9610a83611232565b846109fb8560356000610a94611232565b6001600160a01b03908116825260208083019390935260409182016000908120918c168152925290205490611625565b603c546000906001600160a01b0316610adb611232565b6001600160a01b03161460405180604001604052806002815260200161323960f01b81525090610b1e5760405162461bcd60e51b815260040161052f91906121dc565b50603e54610b36906001600160a01b03168484611631565b50919050565b603c54603e5460405163d15e005360e01b815260009261097b926001600160a01b039182169263d15e005392610b76921690600401612055565b60206040518083038186803b158015610b8e57600080fd5b505afa158015610ba2573d6000803e3d6000fd5b505050506040513d601f19601f82011682018060405250810190610bc69190611f7f565b610bcf846112dd565b906114e3565b603c546001600160a01b031690565b6000610bee611687565b905090565b604051806040016040528060018152602001603160f81b81525081565b603c546001600160a01b0316610c24611232565b6001600160a01b03161460405180604001604052806002815260200161323960f01b81525090610c675760405162461bcd60e51b815260040161052f91906121dc565b5081610c7257610d10565b603d546001600160a01b0316610c9181610c8c85856112fe565b6113dc565b806001600160a01b031660006001600160a01b031660008051602061268183398151915285604051610cc39190612155565b60405180910390a3806001600160a01b03167f4c209b5fc8ad50758f13e2e1088ba56a560dff690a1c6fef26394f4c03821c4f8484604051610d069291906124f7565b60405180910390a2505b5050565b603c546001600160a01b0316610d28611232565b6001600160a01b03161460405180604001604052806002815260200161323960f01b81525090610d6b5760405162461bcd60e51b815260040161052f91906121dc565b505050565b606060388054610411906125ad565b60006104a9610d8c611232565b846109fb856040518060600160405280602581526020016126a16025913960356000610db6611232565b6001600160a01b03908116825260208083019390935260409182016000908120918d168152925290205491906115f9565b6000610dfb610df4611232565b84846115ec565b826001600160a01b0316610e0d611232565b6001600160a01b031660008051602061268183398151915284604051610e339190612155565b60405180910390a350600192915050565b603d546001600160a01b031690565b603e546001600160a01b031690565b6000610bee6112f8565b603a6020526000908152604090205481565b6001600160a01b038716610ea45760405162461bcd60e51b815260040161052f9061234e565b83421115610ec45760405162461bcd60e51b815260040161052f90612322565b6001600160a01b0387166000908152603a6020908152604080832054603b549151909392610f1e917f6e71edae12b1b97f4d1f60370fef10105fa2faae0126114a169c64845d6126c9918d918d918d9189918e910161215e565b60405160208183030381529060405280519060200120604051602001610f4592919061203a565b60405160208183030381529060405280519060200120905060018186868660405160008152602001604052604051610f8094939291906121be565b6020604051602081039080840390855afa158015610fa2573d6000803e3d6000fd5b505050602060405103516001600160a01b0316896001600160a01b031614610fdc5760405162461bcd60e51b815260040161052f906122a9565b610fe7826001611625565b6001600160a01b038a166000908152603a602052604090205561100b898989611236565b505050505050505050565b603c546001600160a01b031661102a611232565b6001600160a01b03161460405180604001604052806002815260200161323960f01b8152509061106d5760405162461bcd60e51b815260040161052f91906121dc565b50600061107a83836112fe565b60408051808201909152600281526106a760f31b6020820152909150816110b45760405162461bcd60e51b815260040161052f91906121dc565b506110bf8582611696565b603e546110d6906001600160a01b03168585611631565b60006001600160a01b0316856001600160a01b0316600080516020612681833981519152856040516111089190612155565b60405180910390a3836001600160a01b0316856001600160a01b03167f5d624aa9c148153ab3446c1b154f660ee7701e549fe9b62dab7171b1c80e6fa285856040516111559291906124f7565b60405180910390a35050505050565b6001600160a01b03918216600090815260356020908152604080832093909416825291909152205490565b603c546001600160a01b03166111a3611232565b6001600160a01b03161460405180604001604052806002815260200161323960f01b815250906111e65760405162461bcd60e51b815260040161052f91906121dc565b506111f4838383600061171b565b816001600160a01b0316836001600160a01b0316600080516020612681833981519152836040516112259190612155565b60405180910390a3505050565b3390565b6001600160a01b03831661125c5760405162461bcd60e51b815260040161052f906123fb565b6001600160a01b0382166112825760405162461bcd60e51b815260040161052f90612232565b6001600160a01b0380841660008181526035602090815260408083209487168084529490915290819020849055517f8c5be1e5ebec7d5bd14f71427d1e84f3dd0314c0f7b2291e5b200ac8c7c3b92590611225908590612155565b6001600160a01b031660009081526034602052604090205490565b60365490565b604080518082019091526002815261035360f41b6020820152600090826113385760405162461bcd60e51b815260040161052f91906121dc565b50600061134660028461252b565b90506b033b2e3c9fd0803ce80000006113618260001961256a565b61136b919061252b565b84111560405180604001604052806002815260200161068760f31b815250906113a75760405162461bcd60e51b815260040161052f91906121dc565b5082816113c06b033b2e3c9fd0803ce80000008761254b565b6113ca9190612513565b6113d4919061252b565b949350505050565b6001600160a01b0382166114025760405162461bcd60e51b815260040161052f906124c0565b61140e60008383610d6b565b60365461141b8183611625565b6036556001600160a01b0383166000908152603460205260409020546114418184611625565b6001600160a01b038516600090815260346020526040812091909155611465611687565b6001600160a01b0316146114dd5761147b611687565b6001600160a01b03166331873e2e8584846040518463ffffffff1660e01b81526004016114aa93929190612129565b600060405180830381600087803b1580156114c457600080fd5b505af11580156114d8573d6000803e3d6000fd5b505050505b50505050565b60008215806114f0575081155b156114fd575060006104ad565b8161151560026b033b2e3c9fd0803ce800000061252b565b6115219060001961256a565b61152b919061252b565b83111560405180604001604052806002815260200161068760f31b815250906115675760405162461bcd60e51b815260040161052f91906121dc565b506b033b2e3c9fd0803ce800000061158060028261252b565b61158a848661254b565b6115949190612513565b61159e919061252b565b9392505050565b600190565b303b1590565b8051610d10906037906020840190611bce565b8051610d10906038906020840190611bce565b6039805460ff191660ff92909216919091179055565b610d6b838383600161171b565b6000818484111561161d5760405162461bcd60e51b815260040161052f91906121dc565b505050900390565b600061159e8284612513565b610d6b8363a9059cbb60e01b8484604051602401611650929190612110565b60408051601f198184030181529190526020810180516001600160e01b03166001600160e01b0319909316929092179091526118a6565b603f546001600160a01b031690565b6001600160a01b0382166116bc5760405162461bcd60e51b815260040161052f90612375565b6116c882600083610d6b565b6036546116d5818361198a565b6036556001600160a01b038316600090815260346020908152604091829020548251606081019093526022808452909261144192869290612611908301398391906115f9565b603e54603c5460405163d15e005360e01b81526001600160a01b039283169290911690600090829063d15e005390611757908690600401612055565b60206040518083038186803b15801561176f57600080fd5b505afa158015611783573d6000803e3d6000fd5b505050506040513d601f19601f820116820180604052508101906117a79190611f7f565b905060006117b882610bcf8a6112dd565b905060006117c983610bcf8a6112dd565b90506117df89896117da8a876112fe565b611996565b851561184e5760405163d5ed393360e01b81526001600160a01b0385169063d5ed39339061181b9088908d908d908d9089908990600401612069565b600060405180830381600087803b15801561183557600080fd5b505af1158015611849573d6000803e3d6000fd5b505050505b876001600160a01b0316896001600160a01b03167f4beccb90f994c31aced7a23b5611020728a23d8ec5cddd1a3e9d97b96fda866689866040516118939291906124f7565b60405180910390a3505050505050505050565b6118b8826001600160a01b0316611b95565b6118d45760405162461bcd60e51b815260040161052f90612489565b600080836001600160a01b0316836040516118ef919061201e565b6000604051808303816000865af19150503d806000811461192c576040519150601f19603f3d011682016040523d82523d6000602084013e611931565b606091505b5091509150816119535760405162461bcd60e51b815260040161052f90612274565b8051156114dd578080602001905181019061196e9190611e6f565b6114dd5760405162461bcd60e51b815260040161052f9061243f565b600061159e828461256a565b6001600160a01b0383166119bc5760405162461bcd60e51b815260040161052f906123b6565b6001600160a01b0382166119e25760405162461bcd60e51b815260040161052f906121ef565b6119ed838383610d6b565b600060346000856001600160a01b03166001600160a01b03168152602001908152602001600020549050611a3c82604051806060016040528060268152602001612633602691398391906115f9565b6001600160a01b038086166000908152603460205260408082209390935590851681522054611a6b8184611625565b6001600160a01b038516600090815260346020526040812091909155611a8f611687565b6001600160a01b031614611b8e57603654611aa8611687565b6001600160a01b03166331873e2e8783866040518463ffffffff1660e01b8152600401611ad793929190612129565b600060405180830381600087803b158015611af157600080fd5b505af1158015611b05573d6000803e3d6000fd5b50505050846001600160a01b0316866001600160a01b031614611b8c57611b2a611687565b6001600160a01b03166331873e2e8683856040518463ffffffff1660e01b8152600401611b5993929190612129565b600060405180830381600087803b158015611b7357600080fd5b505af1158015611b87573d6000803e3d6000fd5b505050505b505b5050505050565b6000813f7fc5d2460186f7233c927e7db2dcc703c0e500b653ca82273b7bfad8045d85a4708181148015906113d4575050151592915050565b828054611bda906125ad565b90600052602060002090601f016020900481019282611bfc5760008555611c42565b82601f10611c1557805160ff1916838001178555611c42565b82800160010185558215611c42579182015b82811115611c42578251825591602001919060010190611c27565b50611c4e929150611c52565b5090565b5b80821115611c4e5760008155600101611c53565b803561097e816125f8565b60008083601f840112611c83578182fd5b50813567ffffffffffffffff811115611c9a578182fd5b602083019150836020828501011115611cb257600080fd5b9250929050565b803560ff8116811461097e57600080fd5b600060208284031215611cdb578081fd5b813561159e816125f8565b60008060408385031215611cf8578081fd5b8235611d03816125f8565b91506020830135611d13816125f8565b809150509250929050565b600080600060608486031215611d32578081fd5b8335611d3d816125f8565b92506020840135611d4d816125f8565b929592945050506040919091013590565b60008060008060808587031215611d73578081fd5b8435611d7e816125f8565b93506020850135611d8e816125f8565b93969395505050506040820135916060013590565b600080600080600080600060e0888a031215611dbd578283fd5b8735611dc8816125f8565b96506020880135611dd8816125f8565b95506040880135945060608801359350611df460808901611cb9565b925060a0880135915060c0880135905092959891949750929550565b60008060408385031215611e22578182fd5b8235611e2d816125f8565b946020939093013593505050565b600080600060608486031215611e4f578283fd5b8335611e5a816125f8565b95602085013595506040909401359392505050565b600060208284031215611e80578081fd5b8151801515811461159e578182fd5b60008060008060008060008060008060006101008c8e031215611eb0578384fd5b611eb98c611c67565b9a50611ec760208d01611c67565b9950611ed560408d01611c67565b9850611ee360608d01611c67565b9750611ef160808d01611cb9565b965067ffffffffffffffff8060a08e01351115611f0c578485fd5b611f1c8e60a08f01358f01611c72565b909750955060c08d0135811015611f31578485fd5b611f418e60c08f01358f01611c72565b909550935060e08d0135811015611f56578283fd5b50611f678d60e08e01358e01611c72565b81935080925050509295989b509295989b9093969950565b600060208284031215611f90578081fd5b5051919050565b60008060408385031215611fa9578182fd5b50508035926020909101359150565b60008284528282602086013780602084860101526020601f19601f85011685010190509392505050565b60008151808452611ffa816020860160208601612581565b601f01601f19169290920160200192915050565b6000828483379101908152919050565b60008251612030818460208701612581565b9190910192915050565b61190160f01b81526002810192909252602282015260420190565b6001600160a01b0391909116815260200190565b6001600160a01b03968716815294861660208601529290941660408401526060830152608082019290925260a081019190915260c00190565b6001600160a01b038a811682528916602082015260ff8816604082015260c0606082018190526000906120d8908301888a611fb8565b82810360808401526120eb818789611fb8565b905082810360a0840152612100818587611fb8565b9c9b505050505050505050505050565b6001600160a01b03929092168252602082015260400190565b6001600160a01b039390931683526020830191909152604082015260600190565b901515815260200190565b90815260200190565b9586526001600160a01b0394851660208701529290931660408501526060840152608083019190915260a082015260c00190565b9485526020850193909352604084019190915260608301526001600160a01b0316608082015260a00190565b93845260ff9290921660208401526040830152606082015260800190565b60006020825261159e6020830184611fe2565b60208082526023908201527f45524332303a207472616e7366657220746f20746865207a65726f206164647260408201526265737360e81b606082015260800190565b60208082526022908201527f45524332303a20617070726f766520746f20746865207a65726f206164647265604082015261737360f01b606082015260800190565b6020808252818101527f5361666545524332303a206c6f772d6c6576656c2063616c6c206661696c6564604082015260600190565b602080825260119082015270494e56414c49445f5349474e415455524560781b604082015260600190565b6020808252602e908201527f436f6e747261637420696e7374616e63652068617320616c726561647920626560408201526d195b881a5b9a5d1a585b1a5e995960921b606082015260800190565b60208082526012908201527124a72b20a624a22fa2ac2824a920aa24a7a760711b604082015260600190565b6020808252600d908201526c24a72b20a624a22fa7aba722a960991b604082015260600190565b60208082526021908201527f45524332303a206275726e2066726f6d20746865207a65726f206164647265736040820152607360f81b606082015260800190565b60208082526025908201527f45524332303a207472616e736665722066726f6d20746865207a65726f206164604082015264647265737360d81b606082015260800190565b60208082526024908201527f45524332303a20617070726f76652066726f6d20746865207a65726f206164646040820152637265737360e01b606082015260800190565b6020808252602a908201527f5361666545524332303a204552433230206f7065726174696f6e20646964206e6040820152691bdd081cdd58d8d9595960b21b606082015260800190565b6020808252601f908201527f5361666545524332303a2063616c6c20746f206e6f6e2d636f6e747261637400604082015260600190565b6020808252601f908201527f45524332303a206d696e7420746f20746865207a65726f206164647265737300604082015260600190565b918252602082015260400190565b60ff91909116815260200190565b60008219821115612526576125266125e2565b500190565b60008261254657634e487b7160e01b81526012600452602481fd5b500490565b6000816000190483118215151615612565576125656125e2565b500290565b60008282101561257c5761257c6125e2565b500390565b60005b8381101561259c578181015183820152602001612584565b838111156114dd5750506000910152565b6002810460018216806125c157607f821691505b60208210811415610b3657634e487b7160e01b600052602260045260246000fd5b634e487b7160e01b600052601160045260246000fd5b6001600160a01b038116811461260d57600080fd5b5056fe45524332303a206275726e20616d6f756e7420657863656564732062616c616e636545524332303a207472616e7366657220616d6f756e7420657863656564732062616c616e636545524332303a207472616e7366657220616d6f756e74206578636565647320616c6c6f77616e6365ddf252ad1be2c89b69c2b068fc378daa952ba7f163c4a11628f55a4df523b3ef45524332303a2064656372656173656420616c6c6f77616e63652062656c6f77207a65726fa2646970667358221220c8471458342a1753edebdaa7a430f565d9759b27caaec55e4229e83d60411d7e64736f6c63430008000033",
  "linkReferences": {},
  "deployedLinkReferences": {}
}