{
  "_format": "hh-sol-artifact-1",
  "contractName": "AaveProtocolDataProvider",
  "sourceName": "contracts/misc/AaveProtocolDataProvider.sol",
  "abi": [
    {
      "inputs": [
        {
          "internalType": "contract ILendingPoolAddressesProvider",
          "name": "addressesProvider",
          "type": "address"
        }
      ],
      "stateMutability": "nonpayable",
      "type": "constructor"
    },
    {
      "inputs": [],
      "name": "ADDRESSES_PROVIDER",
      "outputs": [
        {
          "internalType": "contract ILendingPoolAddressesProvider",
          "name": "",
          "type": "address"
        }
      ],
      "stateMutability": "view",
      "type": "function"
    },
    {
      "inputs": [],
      "name": "getAllATokens",
      "outputs": [
        {
          "components": [
            {
              "internalType": "string",
              "name": "symbol",
              "type": "string"
            },
            {
              "internalType": "address",
              "name": "tokenAddress",
              "type": "address"
            }
          ],
          "internalType": "struct AaveProtocolDataProvider.TokenData[]",
          "name": "",
          "type": "tuple[]"
        }
      ],
      "stateMutability": "view",
      "type": "function"
    },
    {
      "inputs": [],
      "name": "getAllReservesTokens",
      "outputs": [
        {
          "components": [
            {
              "internalType": "string",
              "name": "symbol",
              "type": "string"
            },
            {
              "internalType": "address",
              "name": "tokenAddress",
              "type": "address"
            }
          ],
          "internalType": "struct AaveProtocolDataProvider.TokenData[]",
          "name": "",
          "type": "tuple[]"
        }
      ],
      "stateMutability": "view",
      "type": "function"
    },
    {
      "inputs": [
        {
          "internalType": "address",
          "name": "asset",
          "type": "address"
        },
        {
          "internalType": "uint8",
          "name": "tranche",
          "type": "uint8"
        }
      ],
      "name": "getReserveConfigurationData",
      "outputs": [
        {
          "internalType": "uint256",
          "name": "decimals",
          "type": "uint256"
        },
        {
          "internalType": "uint256",
          "name": "ltv",
          "type": "uint256"
        },
        {
          "internalType": "uint256",
          "name": "liquidationThreshold",
          "type": "uint256"
        },
        {
          "internalType": "uint256",
          "name": "liquidationBonus",
          "type": "uint256"
        },
        {
          "internalType": "uint256",
          "name": "reserveFactor",
          "type": "uint256"
        },
        {
          "internalType": "bool",
          "name": "usageAsCollateralEnabled",
          "type": "bool"
        },
        {
          "internalType": "bool",
          "name": "borrowingEnabled",
          "type": "bool"
        },
        {
          "internalType": "bool",
          "name": "stableBorrowRateEnabled",
          "type": "bool"
        },
        {
          "internalType": "bool",
          "name": "isActive",
          "type": "bool"
        },
        {
          "internalType": "bool",
          "name": "isFrozen",
          "type": "bool"
        }
      ],
      "stateMutability": "view",
      "type": "function"
    },
    {
      "inputs": [
        {
          "internalType": "address",
          "name": "asset",
          "type": "address"
        },
        {
          "internalType": "uint8",
          "name": "tranche",
          "type": "uint8"
        }
      ],
      "name": "getReserveData",
      "outputs": [
        {
          "internalType": "uint256",
          "name": "availableLiquidity",
          "type": "uint256"
        },
        {
          "internalType": "uint256",
          "name": "totalStableDebt",
          "type": "uint256"
        },
        {
          "internalType": "uint256",
          "name": "totalVariableDebt",
          "type": "uint256"
        },
        {
          "internalType": "uint256",
          "name": "liquidityRate",
          "type": "uint256"
        },
        {
          "internalType": "uint256",
          "name": "variableBorrowRate",
          "type": "uint256"
        },
        {
          "internalType": "uint256",
          "name": "stableBorrowRate",
          "type": "uint256"
        },
        {
          "internalType": "uint256",
          "name": "averageStableBorrowRate",
          "type": "uint256"
        },
        {
          "internalType": "uint256",
          "name": "liquidityIndex",
          "type": "uint256"
        },
        {
          "internalType": "uint256",
          "name": "variableBorrowIndex",
          "type": "uint256"
        },
        {
          "internalType": "uint40",
          "name": "lastUpdateTimestamp",
          "type": "uint40"
        }
      ],
      "stateMutability": "view",
      "type": "function"
    },
    {
      "inputs": [
        {
          "internalType": "address",
          "name": "asset",
          "type": "address"
        },
        {
          "internalType": "uint8",
          "name": "tranche",
          "type": "uint8"
        }
      ],
      "name": "getReserveTokensAddresses",
      "outputs": [
        {
          "internalType": "address",
          "name": "aTokenAddress",
          "type": "address"
        },
        {
          "internalType": "address",
          "name": "stableDebtTokenAddress",
          "type": "address"
        },
        {
          "internalType": "address",
          "name": "variableDebtTokenAddress",
          "type": "address"
        }
      ],
      "stateMutability": "view",
      "type": "function"
    },
    {
      "inputs": [
        {
          "internalType": "address",
          "name": "asset",
          "type": "address"
        },
        {
          "internalType": "uint8",
          "name": "tranche",
          "type": "uint8"
        },
        {
          "internalType": "address",
          "name": "user",
          "type": "address"
        }
      ],
      "name": "getUserReserveData",
      "outputs": [
        {
          "internalType": "uint256",
          "name": "currentATokenBalance",
          "type": "uint256"
        },
        {
          "internalType": "uint256",
          "name": "currentStableDebt",
          "type": "uint256"
        },
        {
          "internalType": "uint256",
          "name": "currentVariableDebt",
          "type": "uint256"
        },
        {
          "internalType": "uint256",
          "name": "principalStableDebt",
          "type": "uint256"
        },
        {
          "internalType": "uint256",
          "name": "scaledVariableDebt",
          "type": "uint256"
        },
        {
          "internalType": "uint256",
          "name": "stableBorrowRate",
          "type": "uint256"
        },
        {
          "internalType": "uint256",
          "name": "liquidityRate",
          "type": "uint256"
        },
        {
          "internalType": "uint40",
          "name": "stableRateLastUpdated",
          "type": "uint40"
        },
        {
          "internalType": "bool",
          "name": "usageAsCollateralEnabled",
          "type": "bool"
        }
      ],
      "stateMutability": "view",
      "type": "function"
    }
  ],
  "bytecode": "0x60a060405234801561001057600080fd5b50604051611dc1380380611dc183398101604081905261002f91610044565b60601b6001600160601b031916608052610072565b600060208284031215610055578081fd5b81516001600160a01b038116811461006b578182fd5b9392505050565b60805160601c611d006100c16000396000818161015b0152818161018e015281816102a10152818161079801528181610b0f01528181610c4f01528181610da801526111d60152611d006000f3fe608060405234801561001057600080fd5b506004361061007d5760003560e01c80633f3b50061161005b5780633f3b5006146100f15780639d38cd4a14610113578063b316ff891461013c578063f561ae41146101515761007d565b80630542975c14610082578063217d2e11146100a05780633629e3cd146100c8575b600080fd5b61008a610159565b60405161009791906119e6565b60405180910390f35b6100b36100ae3660046116de565b61017d565b60405161009799989796959493929190611b63565b6100db6100d63660046116a6565b610785565b6040516100979a99989796959493929190611b17565b6101046100ff3660046116a6565b610b07565b604051610097939291906119fa565b6101266101213660046116a6565b610c3c565b6040516100979a99989796959493929190611ac8565b610144610da2565b6040516100979190611a39565b6101446111d0565b7f000000000000000000000000000000000000000000000000000000000000000081565b6000806000806000806000806000807f00000000000000000000000000000000000000000000000000000000000000006001600160a01b0316630261bf8b6040518163ffffffff1660e01b815260040160206040518083038186803b1580156101e557600080fd5b505afa1580156101f9573d6000803e3d6000fd5b505050506040513d601f19601f8201168201806040525081019061021d9190611683565b6001600160a01b0316633629e3cd8e8e6040518363ffffffff1660e01b815260040161024a929190611a1d565b6101a06040518083038186803b15801561026357600080fd5b505afa158015610277573d6000803e3d6000fd5b505050506040513d601f19601f8201168201806040525081019061029b9190611886565b905060007f00000000000000000000000000000000000000000000000000000000000000006001600160a01b0316630261bf8b6040518163ffffffff1660e01b815260040160206040518083038186803b1580156102f857600080fd5b505afa15801561030c573d6000803e3d6000fd5b505050506040513d601f19601f820116820180604052508101906103309190611683565b6001600160a01b0316634417a5838d6040518263ffffffff1660e01b815260040161035b91906119e6565b60206040518083038186803b15801561037357600080fd5b505afa158015610387573d6000803e3d6000fd5b505050506040513d601f19601f820116820180604052508101906103ab919061186b565b60e08301516040516370a0823160e01b81529192506001600160a01b0316906370a08231906103de908f906004016119e6565b60206040518083038186803b1580156103f657600080fd5b505afa15801561040a573d6000803e3d6000fd5b505050506040513d601f19601f8201168201806040525081019061042e9190611988565b6101208301516040516370a0823160e01b8152919c506001600160a01b0316906370a0823190610462908f906004016119e6565b60206040518083038186803b15801561047a57600080fd5b505afa15801561048e573d6000803e3d6000fd5b505050506040513d601f19601f820116820180604052508101906104b29190611988565b6101008301516040516370a0823160e01b8152919a506001600160a01b0316906370a08231906104e6908f906004016119e6565b60206040518083038186803b1580156104fe57600080fd5b505afa158015610512573d6000803e3d6000fd5b505050506040513d601f19601f820116820180604052508101906105369190611988565b61010083015160405163631a6fd560e11b8152919b506001600160a01b03169063c634dfaa9061056a908f906004016119e6565b60206040518083038186803b15801561058257600080fd5b505afa158015610596573d6000803e3d6000fd5b505050506040513d601f19601f820116820180604052508101906105ba9190611988565b610120830151604051630ed1279f60e11b81529199506001600160a01b031690631da24f3e906105ee908f906004016119e6565b60206040518083038186803b15801561060657600080fd5b505afa15801561061a573d6000803e3d6000fd5b505050506040513d601f19601f8201168201806040525081019061063e9190611988565b965081606001516001600160801b031694508161010001516001600160a01b031663e78c9b3b8d6040518263ffffffff1660e01b815260040161068191906119e6565b60206040518083038186803b15801561069957600080fd5b505afa1580156106ad573d6000803e3d6000fd5b505050506040513d601f19601f820116820180604052508101906106d19190611988565b610100830151604051631e739ae360e21b81529197506001600160a01b0316906379ce6b8c90610705908f906004016119e6565b60206040518083038186803b15801561071d57600080fd5b505afa158015610731573d6000803e3d6000fd5b505050506040513d601f19601f8201168201806040525081019061075591906119a0565b935061077282610160015160ff168261150d90919063ffffffff16565b9250505093979b92969a50939750939750565b60008060008060008060008060008060007f00000000000000000000000000000000000000000000000000000000000000006001600160a01b0316630261bf8b6040518163ffffffff1660e01b815260040160206040518083038186803b1580156107ef57600080fd5b505afa158015610803573d6000803e3d6000fd5b505050506040513d601f19601f820116820180604052508101906108279190611683565b6001600160a01b0316633629e3cd8e8e6040518363ffffffff1660e01b8152600401610854929190611a1d565b6101a06040518083038186803b15801561086d57600080fd5b505afa158015610881573d6000803e3d6000fd5b505050506040513d601f19601f820116820180604052508101906108a59190611886565b60e08101516040516370a0823160e01b81529192506001600160a01b038f16916370a08231916108d7916004016119e6565b60206040518083038186803b1580156108ef57600080fd5b505afa158015610903573d6000803e3d6000fd5b505050506040513d601f19601f820116820180604052508101906109279190611988565b8161010001516001600160a01b03166318160ddd6040518163ffffffff1660e01b815260040160206040518083038186803b15801561096557600080fd5b505afa158015610979573d6000803e3d6000fd5b505050506040513d601f19601f8201168201806040525081019061099d9190611988565b8261012001516001600160a01b03166318160ddd6040518163ffffffff1660e01b815260040160206040518083038186803b1580156109db57600080fd5b505afa1580156109ef573d6000803e3d6000fd5b505050506040513d601f19601f82011682018060405250810190610a139190611988565b836060015184608001518560a001518661010001516001600160a01b03166390f6fcf26040518163ffffffff1660e01b815260040160206040518083038186803b158015610a6057600080fd5b505afa158015610a74573d6000803e3d6000fd5b505050506040513d601f19601f82011682018060405250810190610a989190611988565b876020015188604001518960c00151866001600160801b03169650856001600160801b03169550846001600160801b03169450826001600160801b03169250816001600160801b031691509a509a509a509a509a509a509a509a509a509a50509295989b9194979a5092959850565b6000806000807f00000000000000000000000000000000000000000000000000000000000000006001600160a01b0316630261bf8b6040518163ffffffff1660e01b815260040160206040518083038186803b158015610b6657600080fd5b505afa158015610b7a573d6000803e3d6000fd5b505050506040513d601f19601f82011682018060405250810190610b9e9190611683565b6001600160a01b0316633629e3cd87876040518363ffffffff1660e01b8152600401610bcb929190611a1d565b6101a06040518083038186803b158015610be457600080fd5b505afa158015610bf8573d6000803e3d6000fd5b505050506040513d601f19601f82011682018060405250810190610c1c9190611886565b60e081015161010082015161012090920151909891975095509350505050565b60008060008060008060008060008060007f00000000000000000000000000000000000000000000000000000000000000006001600160a01b0316630261bf8b6040518163ffffffff1660e01b815260040160206040518083038186803b158015610ca657600080fd5b505afa158015610cba573d6000803e3d6000fd5b505050506040513d601f19601f82011682018060405250810190610cde9190611683565b6001600160a01b031663391423008e8e6040518363ffffffff1660e01b8152600401610d0b929190611a1d565b60206040518083038186803b158015610d2357600080fd5b505afa158015610d37573d6000803e3d6000fd5b505050506040513d601f19601f82011682018060405250810190610d5b919061186b565b9050610d668161157c565b909e50929c50909a5098509650610d7c816115a7565b80975081985082955083965050505050600089119550509295989b9194979a5092959850565b606060007f00000000000000000000000000000000000000000000000000000000000000006001600160a01b0316630261bf8b6040518163ffffffff1660e01b815260040160206040518083038186803b158015610dff57600080fd5b505afa158015610e13573d6000803e3d6000fd5b505050506040513d601f19601f82011682018060405250810190610e379190611683565b90506000816001600160a01b031663d1946dbc6040518163ffffffff1660e01b815260040160006040518083038186803b158015610e7457600080fd5b505afa158015610e88573d6000803e3d6000fd5b505050506040513d6000823e601f3d908101601f19168201604052610eb09190810190611728565b90506000815167ffffffffffffffff811115610edc57634e487b7160e01b600052604160045260246000fd5b604051908082528060200260200182016040528015610f1557816020015b610f026115e3565b815260200190600190039081610efa5790505b50905060005b82518110156111c857739f8f72aa9304c8b593d555f12ef6589cc3a579a26001600160a01b0316838281518110610f6257634e487b7160e01b600052603260045260246000fd5b60200260200101516001600160a01b031614156110095760405180604001604052806040518060400160405280600381526020016226a5a960e91b8152508152602001848381518110610fc557634e487b7160e01b600052603260045260246000fd5b60200260200101516001600160a01b0316815250828281518110610ff957634e487b7160e01b600052603260045260246000fd5b60200260200101819052506111b6565b73eeeeeeeeeeeeeeeeeeeeeeeeeeeeeeeeeeeeeeee6001600160a01b031683828151811061104757634e487b7160e01b600052603260045260246000fd5b60200260200101516001600160a01b031614156110aa5760405180604001604052806040518060400160405280600381526020016208aa8960eb1b8152508152602001848381518110610fc557634e487b7160e01b600052603260045260246000fd5b60405180604001604052808483815181106110d557634e487b7160e01b600052603260045260246000fd5b60200260200101516001600160a01b03166395d89b416040518163ffffffff1660e01b815260040160006040518083038186803b15801561111557600080fd5b505afa158015611129573d6000803e3d6000fd5b505050506040513d6000823e601f3d908101601f1916820160405261115191908101906117db565b815260200184838151811061117657634e487b7160e01b600052603260045260246000fd5b60200260200101516001600160a01b03168152508282815181106111aa57634e487b7160e01b600052603260045260246000fd5b60200260200101819052505b806111c081611c3c565b915050610f1b565b509250505090565b606060007f00000000000000000000000000000000000000000000000000000000000000006001600160a01b0316630261bf8b6040518163ffffffff1660e01b815260040160206040518083038186803b15801561122d57600080fd5b505afa158015611241573d6000803e3d6000fd5b505050506040513d601f19601f820116820180604052508101906112659190611683565b90506000816001600160a01b031663d1946dbc6040518163ffffffff1660e01b815260040160006040518083038186803b1580156112a257600080fd5b505afa1580156112b6573d6000803e3d6000fd5b505050506040513d6000823e601f3d908101601f191682016040526112de9190810190611728565b90506000815167ffffffffffffffff81111561130a57634e487b7160e01b600052604160045260246000fd5b60405190808252806020026020018201604052801561134357816020015b6113306115e3565b8152602001906001900390816113285790505b50905060005b82518110156111c857600061135f600383611c57565b90506000856001600160a01b0316633629e3cd86858151811061139257634e487b7160e01b600052603260045260246000fd5b6020026020010151846040518363ffffffff1660e01b81526004016113b8929190611a1d565b6101a06040518083038186803b1580156113d157600080fd5b505afa1580156113e5573d6000803e3d6000fd5b505050506040513d601f19601f820116820180604052508101906114099190611886565b90508160ff1681610180015160ff161461143357634e487b7160e01b600052600160045260246000fd5b60405180604001604052808260e001516001600160a01b03166395d89b416040518163ffffffff1660e01b815260040160006040518083038186803b15801561147b57600080fd5b505afa15801561148f573d6000803e3d6000fd5b505050506040513d6000823e601f3d908101601f191682016040526114b791908101906117db565b81526020018260e001516001600160a01b03168152508484815181106114ed57634e487b7160e01b600052603260045260246000fd5b60200260200101819052505050808061150590611c3c565b915050611349565b60006080821060405180604001604052806002815260200161373760f01b815250906115555760405162461bcd60e51b815260040161154c9190611ab5565b60405180910390fd5b50611561826002611bed565b61156c906001611bd5565b925190921c600116151592915050565b5161ffff80821692601083901c821692602081901c831692603082901c60ff169260409290921c1690565b51670100000000000000811615159167020000000000000082161515916704000000000000008116151591670800000000000000909116151590565b60408051808201909152606081526000602082015290565b805161160681611ca3565b919050565b60006020828403121561161c578081fd5b6040516020810181811067ffffffffffffffff8211171561163f5761163f611c8d565b6040529151825250919050565b80516001600160801b038116811461160657600080fd5b805164ffffffffff8116811461160657600080fd5b805161160681611cbb565b600060208284031215611694578081fd5b815161169f81611ca3565b9392505050565b600080604083850312156116b8578081fd5b82356116c381611ca3565b915060208301356116d381611cbb565b809150509250929050565b6000806000606084860312156116f2578081fd5b83356116fd81611ca3565b9250602084013561170d81611cbb565b9150604084013561171d81611ca3565b809150509250925092565b6000602080838503121561173a578182fd5b825167ffffffffffffffff80821115611751578384fd5b818501915085601f830112611764578384fd5b81518181111561177657611776611c8d565b8381029150611786848301611bab565b8181528481019084860184860187018a10156117a0578788fd5b8795505b838610156117ce57805194506117b985611ca3565b848352600195909501949186019186016117a4565b5098975050505050505050565b6000602082840312156117ec578081fd5b815167ffffffffffffffff80821115611803578283fd5b818401915084601f830112611816578283fd5b81518181111561182857611828611c8d565b61183b601f8201601f1916602001611bab565b9150808252856020828501011115611851578384fd5b611862816020840160208601611c0c565b50949350505050565b60006020828403121561187c578081fd5b61169f838361160b565b60006101a0808385031215611899578182fd5b6118a281611bab565b90506118ae848461160b565b81526118bc6020840161164c565b60208201526118cd6040840161164c565b60408201526118de6060840161164c565b60608201526118ef6080840161164c565b608082015261190060a0840161164c565b60a082015261191160c08401611663565b60c082015261192260e084016115fb565b60e08201526101006119358185016115fb565b908201526101206119478482016115fb565b908201526101406119598482016115fb565b9082015261016061196b848201611678565b9082015261018061197d848201611678565b908201529392505050565b600060208284031215611999578081fd5b5051919050565b6000602082840312156119b1578081fd5b61169f82611663565b600081518084526119d2816020860160208601611c0c565b601f01601f19169290920160200192915050565b6001600160a01b0391909116815260200190565b6001600160a01b0393841681529183166020830152909116604082015260600190565b6001600160a01b0392909216825260ff16602082015260400190565b60208082528251828201819052600091906040908185019080840286018301878501865b83811015611aa757888303603f1901855281518051878552611a81888601826119ba565b918901516001600160a01b03169489019490945294870194925090860190600101611a5d565b509098975050505050505050565b60006020825261169f60208301846119ba565b998a5260208a0198909852604089019690965260608801949094526080870192909252151560a0860152151560c0850152151560e0840152151561010083015215156101208201526101400190565b998a5260208a019890985260408901969096526060880194909452608087019290925260a086015260c085015260e084015261010083015264ffffffffff166101208201526101400190565b988952602089019790975260408801959095526060870193909352608086019190915260a085015260c084015264ffffffffff1660e083015215156101008201526101200190565b60405181810167ffffffffffffffff81118282101715611bcd57611bcd611c8d565b604052919050565b60008219821115611be857611be8611c77565b500190565b6000816000190483118215151615611c0757611c07611c77565b500290565b60005b83811015611c27578181015183820152602001611c0f565b83811115611c36576000848401525b50505050565b6000600019821415611c5057611c50611c77565b5060010190565b600082611c7257634e487b7160e01b81526012600452602481fd5b500690565b634e487b7160e01b600052601160045260246000fd5b634e487b7160e01b600052604160045260246000fd5b6001600160a01b0381168114611cb857600080fd5b50565b60ff81168114611cb857600080fdfea2646970667358221220b9086cdffd941ac700d61832fe33ad79f130318387ebaf5f93ca63d740d41e5664736f6c63430008000033",
  "linkReferences": {},
  "deployedLinkReferences": {}
}