{
  "_format": "hh-sol-artifact-1",
  "contractName": "AaveProtocolDataProvider",
  "sourceName": "contracts/misc/AaveProtocolDataProvider.sol",
  "abi": [
    {
      "inputs": [
        {
          "internalType": "contract ILendingPoolAddressesProvider",
          "name": "addressesProvider",
          "type": "address"
        }
      ],
      "stateMutability": "nonpayable",
      "type": "constructor"
    },
    {
      "inputs": [],
      "name": "ADDRESSES_PROVIDER",
      "outputs": [
        {
          "internalType": "contract ILendingPoolAddressesProvider",
          "name": "",
          "type": "address"
        }
      ],
      "stateMutability": "view",
      "type": "function"
    },
    {
      "inputs": [],
      "name": "getAllATokens",
      "outputs": [
        {
          "components": [
            {
              "internalType": "string",
              "name": "symbol",
              "type": "string"
            },
            {
              "internalType": "address",
              "name": "tokenAddress",
              "type": "address"
            }
          ],
          "internalType": "struct AaveProtocolDataProvider.TokenData[]",
          "name": "",
          "type": "tuple[]"
        }
      ],
      "stateMutability": "view",
      "type": "function"
    },
    {
      "inputs": [],
      "name": "getAllReservesTokens",
      "outputs": [
        {
          "components": [
            {
              "internalType": "string",
              "name": "symbol",
              "type": "string"
            },
            {
              "internalType": "address",
              "name": "tokenAddress",
              "type": "address"
            }
          ],
          "internalType": "struct AaveProtocolDataProvider.TokenData[]",
          "name": "",
          "type": "tuple[]"
        }
      ],
      "stateMutability": "view",
      "type": "function"
    },
    {
      "inputs": [
        {
          "internalType": "address",
          "name": "asset",
          "type": "address"
        }
      ],
      "name": "getReserveConfigurationData",
      "outputs": [
        {
          "internalType": "uint256",
          "name": "decimals",
          "type": "uint256"
        },
        {
          "internalType": "uint256",
          "name": "ltv",
          "type": "uint256"
        },
        {
          "internalType": "uint256",
          "name": "liquidationThreshold",
          "type": "uint256"
        },
        {
          "internalType": "uint256",
          "name": "liquidationBonus",
          "type": "uint256"
        },
        {
          "internalType": "uint256",
          "name": "reserveFactor",
          "type": "uint256"
        },
        {
          "internalType": "bool",
          "name": "usageAsCollateralEnabled",
          "type": "bool"
        },
        {
          "internalType": "bool",
          "name": "borrowingEnabled",
          "type": "bool"
        },
        {
          "internalType": "bool",
          "name": "stableBorrowRateEnabled",
          "type": "bool"
        },
        {
          "internalType": "bool",
          "name": "isActive",
          "type": "bool"
        },
        {
          "internalType": "bool",
          "name": "isFrozen",
          "type": "bool"
        }
      ],
      "stateMutability": "view",
      "type": "function"
    },
    {
      "inputs": [
        {
          "internalType": "address",
          "name": "asset",
          "type": "address"
        }
      ],
      "name": "getReserveData",
      "outputs": [
        {
          "internalType": "uint256",
          "name": "availableLiquidity",
          "type": "uint256"
        },
        {
          "internalType": "uint256",
          "name": "totalStableDebt",
          "type": "uint256"
        },
        {
          "internalType": "uint256",
          "name": "totalVariableDebt",
          "type": "uint256"
        },
        {
          "internalType": "uint256",
          "name": "liquidityRate",
          "type": "uint256"
        },
        {
          "internalType": "uint256",
          "name": "variableBorrowRate",
          "type": "uint256"
        },
        {
          "internalType": "uint256",
          "name": "stableBorrowRate",
          "type": "uint256"
        },
        {
          "internalType": "uint256",
          "name": "averageStableBorrowRate",
          "type": "uint256"
        },
        {
          "internalType": "uint256",
          "name": "liquidityIndex",
          "type": "uint256"
        },
        {
          "internalType": "uint256",
          "name": "variableBorrowIndex",
          "type": "uint256"
        },
        {
          "internalType": "uint40",
          "name": "lastUpdateTimestamp",
          "type": "uint40"
        }
      ],
      "stateMutability": "view",
      "type": "function"
    },
    {
      "inputs": [
        {
          "internalType": "address",
          "name": "asset",
          "type": "address"
        }
      ],
      "name": "getReserveTokensAddresses",
      "outputs": [
        {
          "internalType": "address",
          "name": "aTokenAddress",
          "type": "address"
        },
        {
          "internalType": "address",
          "name": "stableDebtTokenAddress",
          "type": "address"
        },
        {
          "internalType": "address",
          "name": "variableDebtTokenAddress",
          "type": "address"
        }
      ],
      "stateMutability": "view",
      "type": "function"
    },
    {
      "inputs": [
        {
          "internalType": "address",
          "name": "asset",
          "type": "address"
        },
        {
          "internalType": "address",
          "name": "user",
          "type": "address"
        }
      ],
      "name": "getUserReserveData",
      "outputs": [
        {
          "internalType": "uint256",
          "name": "currentATokenBalance",
          "type": "uint256"
        },
        {
          "internalType": "uint256",
          "name": "currentStableDebt",
          "type": "uint256"
        },
        {
          "internalType": "uint256",
          "name": "currentVariableDebt",
          "type": "uint256"
        },
        {
          "internalType": "uint256",
          "name": "principalStableDebt",
          "type": "uint256"
        },
        {
          "internalType": "uint256",
          "name": "scaledVariableDebt",
          "type": "uint256"
        },
        {
          "internalType": "uint256",
          "name": "stableBorrowRate",
          "type": "uint256"
        },
        {
          "internalType": "uint256",
          "name": "liquidityRate",
          "type": "uint256"
        },
        {
          "internalType": "uint40",
          "name": "stableRateLastUpdated",
          "type": "uint40"
        },
        {
          "internalType": "bool",
          "name": "usageAsCollateralEnabled",
          "type": "bool"
        }
      ],
      "stateMutability": "view",
      "type": "function"
    }
  ],
  "bytecode": "0x60a060405234801561001057600080fd5b50604051611cee380380611cee83398101604081905261002f91610044565b60601b6001600160601b031916608052610072565b600060208284031215610055578081fd5b81516001600160a01b038116811461006b578182fd5b9392505050565b60805160601c611c2d6100c16000396000818161015b0152818161018e0152818161029f0152818161079401528181610b1201528181610c620152818161109201526111c20152611c2d6000f3fe608060405234801561001057600080fd5b506004361061007d5760003560e01c80633e1501411161005b5780633e150141146100f1578063b316ff891461011a578063d2493b6c1461012f578063f561ae41146101515761007d565b80630542975c1461008257806328dd2d01146100a057806335ea6a75146100c8575b600080fd5b61008a610159565b604051610097919061195e565b60405180910390f35b6100b36100ae36600461167a565b61017d565b60405161009799989796959493929190611abf565b6100db6100d636600461163b565b610781565b6040516100979a99989796959493929190611a73565b6101046100ff36600461163b565b610aff565b6040516100979a99989796959493929190611a24565b610122610c5c565b6040516100979190611995565b61014261013d36600461163b565b61108a565b60405161009793929190611972565b6101226111bc565b7f000000000000000000000000000000000000000000000000000000000000000081565b6000806000806000806000806000807f00000000000000000000000000000000000000000000000000000000000000006001600160a01b0316630261bf8b6040518163ffffffff1660e01b815260040160206040518083038186803b1580156101e557600080fd5b505afa1580156101f9573d6000803e3d6000fd5b505050506040513d601f19601f8201168201806040525081019061021d919061165e565b6001600160a01b03166335ea6a758d6040518263ffffffff1660e01b8152600401610248919061195e565b6101806040518083038186803b15801561026157600080fd5b505afa158015610275573d6000803e3d6000fd5b505050506040513d601f19601f820116820180604052508101906102999190611810565b905060007f00000000000000000000000000000000000000000000000000000000000000006001600160a01b0316630261bf8b6040518163ffffffff1660e01b815260040160206040518083038186803b1580156102f657600080fd5b505afa15801561030a573d6000803e3d6000fd5b505050506040513d601f19601f8201168201806040525081019061032e919061165e565b6001600160a01b0316634417a5838d6040518263ffffffff1660e01b8152600401610359919061195e565b60206040518083038186803b15801561037157600080fd5b505afa158015610385573d6000803e3d6000fd5b505050506040513d601f19601f820116820180604052508101906103a991906117f5565b60e08301516040516370a0823160e01b81529192506001600160a01b0316906370a08231906103dc908f9060040161195e565b60206040518083038186803b1580156103f457600080fd5b505afa158015610408573d6000803e3d6000fd5b505050506040513d601f19601f8201168201806040525081019061042c9190611900565b6101208301516040516370a0823160e01b8152919c506001600160a01b0316906370a0823190610460908f9060040161195e565b60206040518083038186803b15801561047857600080fd5b505afa15801561048c573d6000803e3d6000fd5b505050506040513d601f19601f820116820180604052508101906104b09190611900565b6101008301516040516370a0823160e01b8152919a506001600160a01b0316906370a08231906104e4908f9060040161195e565b60206040518083038186803b1580156104fc57600080fd5b505afa158015610510573d6000803e3d6000fd5b505050506040513d601f19601f820116820180604052508101906105349190611900565b61010083015160405163631a6fd560e11b8152919b506001600160a01b03169063c634dfaa90610568908f9060040161195e565b60206040518083038186803b15801561058057600080fd5b505afa158015610594573d6000803e3d6000fd5b505050506040513d601f19601f820116820180604052508101906105b89190611900565b610120830151604051630ed1279f60e11b81529199506001600160a01b031690631da24f3e906105ec908f9060040161195e565b60206040518083038186803b15801561060457600080fd5b505afa158015610618573d6000803e3d6000fd5b505050506040513d601f19601f8201168201806040525081019061063c9190611900565b965081606001516001600160801b031694508161010001516001600160a01b031663e78c9b3b8d6040518263ffffffff1660e01b815260040161067f919061195e565b60206040518083038186803b15801561069757600080fd5b505afa1580156106ab573d6000803e3d6000fd5b505050506040513d601f19601f820116820180604052508101906106cf9190611900565b610100830151604051631e739ae360e21b81529197506001600160a01b0316906379ce6b8c90610703908f9060040161195e565b60206040518083038186803b15801561071b57600080fd5b505afa15801561072f573d6000803e3d6000fd5b505050506040513d601f19601f820116820180604052508101906107539190611918565b935061077082610160015160ff16826114bf90919063ffffffff16565b925050509295985092959850929598565b60008060008060008060008060008060007f00000000000000000000000000000000000000000000000000000000000000006001600160a01b0316630261bf8b6040518163ffffffff1660e01b815260040160206040518083038186803b1580156107eb57600080fd5b505afa1580156107ff573d6000803e3d6000fd5b505050506040513d601f19601f82011682018060405250810190610823919061165e565b6001600160a01b03166335ea6a758d6040518263ffffffff1660e01b815260040161084e919061195e565b6101806040518083038186803b15801561086757600080fd5b505afa15801561087b573d6000803e3d6000fd5b505050506040513d601f19601f8201168201806040525081019061089f9190611810565b60e08101516040516370a0823160e01b81529192506001600160a01b038e16916370a08231916108d19160040161195e565b60206040518083038186803b1580156108e957600080fd5b505afa1580156108fd573d6000803e3d6000fd5b505050506040513d601f19601f820116820180604052508101906109219190611900565b8161010001516001600160a01b03166318160ddd6040518163ffffffff1660e01b815260040160206040518083038186803b15801561095f57600080fd5b505afa158015610973573d6000803e3d6000fd5b505050506040513d601f19601f820116820180604052508101906109979190611900565b8261012001516001600160a01b03166318160ddd6040518163ffffffff1660e01b815260040160206040518083038186803b1580156109d557600080fd5b505afa1580156109e9573d6000803e3d6000fd5b505050506040513d601f19601f82011682018060405250810190610a0d9190611900565b836060015184608001518560a001518661010001516001600160a01b03166390f6fcf26040518163ffffffff1660e01b815260040160206040518083038186803b158015610a5a57600080fd5b505afa158015610a6e573d6000803e3d6000fd5b505050506040513d601f19601f82011682018060405250810190610a929190611900565b876020015188604001518960c00151866001600160801b03169650856001600160801b03169550846001600160801b03169450826001600160801b03169250816001600160801b031691509a509a509a509a509a509a509a509a509a509a50509193959799509193959799565b60008060008060008060008060008060007f00000000000000000000000000000000000000000000000000000000000000006001600160a01b0316630261bf8b6040518163ffffffff1660e01b815260040160206040518083038186803b158015610b6957600080fd5b505afa158015610b7d573d6000803e3d6000fd5b505050506040513d601f19601f82011682018060405250810190610ba1919061165e565b6001600160a01b031663c44b11f78d6040518263ffffffff1660e01b8152600401610bcc919061195e565b60206040518083038186803b158015610be457600080fd5b505afa158015610bf8573d6000803e3d6000fd5b505050506040513d601f19601f82011682018060405250810190610c1c91906117f5565b9050610c278161152e565b909e50929c50909a5098509650610c3d81611559565b9d9f9c9e509a9c999b989a8d15159a9099909850919650945092505050565b606060007f00000000000000000000000000000000000000000000000000000000000000006001600160a01b0316630261bf8b6040518163ffffffff1660e01b815260040160206040518083038186803b158015610cb957600080fd5b505afa158015610ccd573d6000803e3d6000fd5b505050506040513d601f19601f82011682018060405250810190610cf1919061165e565b90506000816001600160a01b031663d1946dbc6040518163ffffffff1660e01b815260040160006040518083038186803b158015610d2e57600080fd5b505afa158015610d42573d6000803e3d6000fd5b505050506040513d6000823e601f3d908101601f19168201604052610d6a91908101906116b2565b90506000815167ffffffffffffffff811115610d9657634e487b7160e01b600052604160045260246000fd5b604051908082528060200260200182016040528015610dcf57816020015b610dbc611595565b815260200190600190039081610db45790505b50905060005b825181101561108257739f8f72aa9304c8b593d555f12ef6589cc3a579a26001600160a01b0316838281518110610e1c57634e487b7160e01b600052603260045260246000fd5b60200260200101516001600160a01b03161415610ec35760405180604001604052806040518060400160405280600381526020016226a5a960e91b8152508152602001848381518110610e7f57634e487b7160e01b600052603260045260246000fd5b60200260200101516001600160a01b0316815250828281518110610eb357634e487b7160e01b600052603260045260246000fd5b6020026020010181905250611070565b73eeeeeeeeeeeeeeeeeeeeeeeeeeeeeeeeeeeeeeee6001600160a01b0316838281518110610f0157634e487b7160e01b600052603260045260246000fd5b60200260200101516001600160a01b03161415610f645760405180604001604052806040518060400160405280600381526020016208aa8960eb1b8152508152602001848381518110610e7f57634e487b7160e01b600052603260045260246000fd5b6040518060400160405280848381518110610f8f57634e487b7160e01b600052603260045260246000fd5b60200260200101516001600160a01b03166395d89b416040518163ffffffff1660e01b815260040160006040518083038186803b158015610fcf57600080fd5b505afa158015610fe3573d6000803e3d6000fd5b505050506040513d6000823e601f3d908101601f1916820160405261100b9190810190611765565b815260200184838151811061103057634e487b7160e01b600052603260045260246000fd5b60200260200101516001600160a01b031681525082828151811061106457634e487b7160e01b600052603260045260246000fd5b60200260200101819052505b8061107a81611b98565b915050610dd5565b509250505090565b6000806000807f00000000000000000000000000000000000000000000000000000000000000006001600160a01b0316630261bf8b6040518163ffffffff1660e01b815260040160206040518083038186803b1580156110e957600080fd5b505afa1580156110fd573d6000803e3d6000fd5b505050506040513d601f19601f82011682018060405250810190611121919061165e565b6001600160a01b03166335ea6a75866040518263ffffffff1660e01b815260040161114c919061195e565b6101806040518083038186803b15801561116557600080fd5b505afa158015611179573d6000803e3d6000fd5b505050506040513d601f19601f8201168201806040525081019061119d9190611810565b60e0810151610100820151610120909201519097919650945092505050565b606060007f00000000000000000000000000000000000000000000000000000000000000006001600160a01b0316630261bf8b6040518163ffffffff1660e01b815260040160206040518083038186803b15801561121957600080fd5b505afa15801561122d573d6000803e3d6000fd5b505050506040513d601f19601f82011682018060405250810190611251919061165e565b90506000816001600160a01b031663d1946dbc6040518163ffffffff1660e01b815260040160006040518083038186803b15801561128e57600080fd5b505afa1580156112a2573d6000803e3d6000fd5b505050506040513d6000823e601f3d908101601f191682016040526112ca91908101906116b2565b90506000815167ffffffffffffffff8111156112f657634e487b7160e01b600052604160045260246000fd5b60405190808252806020026020018201604052801561132f57816020015b61131c611595565b8152602001906001900390816113145790505b50905060005b8251811015611082576000846001600160a01b03166335ea6a7585848151811061136f57634e487b7160e01b600052603260045260246000fd5b60200260200101516040518263ffffffff1660e01b8152600401611393919061195e565b6101806040518083038186803b1580156113ac57600080fd5b505afa1580156113c0573d6000803e3d6000fd5b505050506040513d601f19601f820116820180604052508101906113e49190611810565b905060405180604001604052808260e001516001600160a01b03166395d89b416040518163ffffffff1660e01b815260040160006040518083038186803b15801561142e57600080fd5b505afa158015611442573d6000803e3d6000fd5b505050506040513d6000823e601f3d908101601f1916820160405261146a9190810190611765565b81526020018260e001516001600160a01b03168152508383815181106114a057634e487b7160e01b600052603260045260246000fd5b60200260200101819052505080806114b790611b98565b915050611335565b60006080821060405180604001604052806002815260200161373760f01b815250906115075760405162461bcd60e51b81526004016114fe9190611a11565b60405180910390fd5b50611513826002611b49565b61151e906001611b31565b925190921c600116151592915050565b5161ffff80821692601083901c821692602081901c831692603082901c60ff169260409290921c1690565b51670100000000000000811615159167020000000000000082161515916704000000000000008116151591670800000000000000909116151590565b60408051808201909152606081526000602082015290565b80516115b881611bdf565b919050565b6000602082840312156115ce578081fd5b6040516020810181811067ffffffffffffffff821117156115f1576115f1611bc9565b6040529151825250919050565b80516001600160801b03811681146115b857600080fd5b805164ffffffffff811681146115b857600080fd5b805160ff811681146115b857600080fd5b60006020828403121561164c578081fd5b813561165781611bdf565b9392505050565b60006020828403121561166f578081fd5b815161165781611bdf565b6000806040838503121561168c578081fd5b823561169781611bdf565b915060208301356116a781611bdf565b809150509250929050565b600060208083850312156116c4578182fd5b825167ffffffffffffffff808211156116db578384fd5b818501915085601f8301126116ee578384fd5b81518181111561170057611700611bc9565b8381029150611710848301611b07565b8181528481019084860184860187018a101561172a578788fd5b8795505b83861015611758578051945061174385611bdf565b8483526001959095019491860191860161172e565b5098975050505050505050565b600060208284031215611776578081fd5b815167ffffffffffffffff8082111561178d578283fd5b818401915084601f8301126117a0578283fd5b8151818111156117b2576117b2611bc9565b6117c5601f8201601f1916602001611b07565b91508082528560208285010111156117db578384fd5b6117ec816020840160208601611b68565b50949350505050565b600060208284031215611806578081fd5b61165783836115bd565b6000610180808385031215611823578182fd5b61182c81611b07565b905061183884846115bd565b8152611846602084016115fe565b6020820152611857604084016115fe565b6040820152611868606084016115fe565b6060820152611879608084016115fe565b608082015261188a60a084016115fe565b60a082015261189b60c08401611615565b60c08201526118ac60e084016115ad565b60e08201526101006118bf8185016115ad565b908201526101206118d18482016115ad565b908201526101406118e38482016115ad565b908201526101606118f584820161162a565b908201529392505050565b600060208284031215611911578081fd5b5051919050565b600060208284031215611929578081fd5b61165782611615565b6000815180845261194a816020860160208601611b68565b601f01601f19169290920160200192915050565b6001600160a01b0391909116815260200190565b6001600160a01b0393841681529183166020830152909116604082015260600190565b60208082528251828201819052600091906040908185019080840286018301878501865b83811015611a0357888303603f19018552815180518785526119dd88860182611932565b918901516001600160a01b031694890194909452948701949250908601906001016119b9565b509098975050505050505050565b6000602082526116576020830184611932565b998a5260208a0198909852604089019690965260608801949094526080870192909252151560a0860152151560c0850152151560e0840152151561010083015215156101208201526101400190565b998a5260208a019890985260408901969096526060880194909452608087019290925260a086015260c085015260e084015261010083015264ffffffffff166101208201526101400190565b988952602089019790975260408801959095526060870193909352608086019190915260a085015260c084015264ffffffffff1660e083015215156101008201526101200190565b60405181810167ffffffffffffffff81118282101715611b2957611b29611bc9565b604052919050565b60008219821115611b4457611b44611bb3565b500190565b6000816000190483118215151615611b6357611b63611bb3565b500290565b60005b83811015611b83578181015183820152602001611b6b565b83811115611b92576000848401525b50505050565b6000600019821415611bac57611bac611bb3565b5060010190565b634e487b7160e01b600052601160045260246000fd5b634e487b7160e01b600052604160045260246000fd5b6001600160a01b0381168114611bf457600080fd5b5056fea2646970667358221220df230597656c4b1866d7b929d7b4ca632c441671f7c1c68e8876be02df334f0b64736f6c63430008000033",
  "linkReferences": {},
  "deployedLinkReferences": {}
}