{
  "_format": "hh-sol-artifact-1",
  "contractName": "LendingPoolAddressesProvider",
  "sourceName": "contracts/protocol/configuration/LendingPoolAddressesProvider.sol",
  "abi": [
    {
      "inputs": [
        {
          "internalType": "string",
          "name": "marketId",
          "type": "string"
        }
      ],
      "stateMutability": "nonpayable",
      "type": "constructor"
    },
    {
      "anonymous": false,
      "inputs": [
        {
          "indexed": false,
          "internalType": "bytes32",
          "name": "id",
          "type": "bytes32"
        },
        {
          "indexed": true,
          "internalType": "address",
          "name": "newAddress",
          "type": "address"
        },
        {
          "indexed": false,
          "internalType": "bool",
          "name": "hasProxy",
          "type": "bool"
        }
      ],
      "name": "AddressSet",
      "type": "event"
    },
    {
      "anonymous": false,
      "inputs": [
        {
          "indexed": true,
          "internalType": "address",
          "name": "newAddress",
          "type": "address"
        }
      ],
      "name": "ConfigurationAdminUpdated",
      "type": "event"
    },
    {
      "anonymous": false,
      "inputs": [
        {
          "indexed": true,
          "internalType": "address",
          "name": "newAddress",
          "type": "address"
        }
      ],
      "name": "EmergencyAdminUpdated",
      "type": "event"
    },
    {
      "anonymous": false,
      "inputs": [
        {
          "indexed": true,
          "internalType": "address",
          "name": "newAddress",
          "type": "address"
        }
      ],
      "name": "LendingPoolCollateralManagerUpdated",
      "type": "event"
    },
    {
      "anonymous": false,
      "inputs": [
        {
          "indexed": true,
          "internalType": "address",
          "name": "newAddress",
          "type": "address"
        }
      ],
      "name": "LendingPoolConfiguratorUpdated",
      "type": "event"
    },
    {
      "anonymous": false,
      "inputs": [
        {
          "indexed": true,
          "internalType": "address",
          "name": "newAddress",
          "type": "address"
        }
      ],
      "name": "LendingPoolUpdated",
      "type": "event"
    },
    {
      "anonymous": false,
      "inputs": [
        {
          "indexed": true,
          "internalType": "address",
          "name": "newAddress",
          "type": "address"
        }
      ],
      "name": "LendingRateOracleUpdated",
      "type": "event"
    },
    {
      "anonymous": false,
      "inputs": [
        {
          "indexed": false,
          "internalType": "string",
          "name": "newMarketId",
          "type": "string"
        }
      ],
      "name": "MarketIdSet",
      "type": "event"
    },
    {
      "anonymous": false,
      "inputs": [
        {
          "indexed": true,
          "internalType": "address",
          "name": "previousOwner",
          "type": "address"
        },
        {
          "indexed": true,
          "internalType": "address",
          "name": "newOwner",
          "type": "address"
        }
      ],
      "name": "OwnershipTransferred",
      "type": "event"
    },
    {
      "anonymous": false,
      "inputs": [
        {
          "indexed": true,
          "internalType": "address",
          "name": "newAddress",
          "type": "address"
        }
      ],
      "name": "PriceOracleUpdated",
      "type": "event"
    },
    {
      "anonymous": false,
      "inputs": [
        {
          "indexed": false,
          "internalType": "bytes32",
          "name": "id",
          "type": "bytes32"
        },
        {
          "indexed": true,
          "internalType": "address",
          "name": "newAddress",
          "type": "address"
        }
      ],
      "name": "ProxyCreated",
      "type": "event"
    },
    {
      "inputs": [
        {
          "internalType": "bytes32",
          "name": "id",
          "type": "bytes32"
        }
      ],
      "name": "getAddress",
      "outputs": [
        {
          "internalType": "address",
          "name": "",
          "type": "address"
        }
      ],
      "stateMutability": "view",
      "type": "function"
    },
    {
      "inputs": [],
      "name": "getEmergencyAdmin",
      "outputs": [
        {
          "internalType": "address",
          "name": "",
          "type": "address"
        }
      ],
      "stateMutability": "view",
      "type": "function"
    },
    {
      "inputs": [],
      "name": "getLendingPool",
      "outputs": [
        {
          "internalType": "address",
          "name": "",
          "type": "address"
        }
      ],
      "stateMutability": "view",
      "type": "function"
    },
    {
      "inputs": [],
      "name": "getLendingPoolCollateralManager",
      "outputs": [
        {
          "internalType": "address",
          "name": "",
          "type": "address"
        }
      ],
      "stateMutability": "view",
      "type": "function"
    },
    {
      "inputs": [],
      "name": "getLendingPoolConfigurator",
      "outputs": [
        {
          "internalType": "address",
          "name": "",
          "type": "address"
        }
      ],
      "stateMutability": "view",
      "type": "function"
    },
    {
      "inputs": [],
      "name": "getLendingRateOracle",
      "outputs": [
        {
          "internalType": "address",
          "name": "",
          "type": "address"
        }
      ],
      "stateMutability": "view",
      "type": "function"
    },
    {
      "inputs": [],
      "name": "getMarketId",
      "outputs": [
        {
          "internalType": "string",
          "name": "",
          "type": "string"
        }
      ],
      "stateMutability": "view",
      "type": "function"
    },
    {
      "inputs": [],
      "name": "getPoolAdmin",
      "outputs": [
        {
          "internalType": "address",
          "name": "",
          "type": "address"
        }
      ],
      "stateMutability": "view",
      "type": "function"
    },
    {
      "inputs": [],
      "name": "getPriceOracle",
      "outputs": [
        {
          "internalType": "address",
          "name": "",
          "type": "address"
        }
      ],
      "stateMutability": "view",
      "type": "function"
    },
    {
      "inputs": [],
      "name": "owner",
      "outputs": [
        {
          "internalType": "address",
          "name": "",
          "type": "address"
        }
      ],
      "stateMutability": "view",
      "type": "function"
    },
    {
      "inputs": [],
      "name": "renounceOwnership",
      "outputs": [],
      "stateMutability": "nonpayable",
      "type": "function"
    },
    {
      "inputs": [
        {
          "internalType": "bytes32",
          "name": "id",
          "type": "bytes32"
        },
        {
          "internalType": "address",
          "name": "newAddress",
          "type": "address"
        }
      ],
      "name": "setAddress",
      "outputs": [],
      "stateMutability": "nonpayable",
      "type": "function"
    },
    {
      "inputs": [
        {
          "internalType": "bytes32",
          "name": "id",
          "type": "bytes32"
        },
        {
          "internalType": "address",
          "name": "implementationAddress",
          "type": "address"
        }
      ],
      "name": "setAddressAsProxy",
      "outputs": [],
      "stateMutability": "nonpayable",
      "type": "function"
    },
    {
      "inputs": [
        {
          "internalType": "address",
          "name": "emergencyAdmin",
          "type": "address"
        }
      ],
      "name": "setEmergencyAdmin",
      "outputs": [],
      "stateMutability": "nonpayable",
      "type": "function"
    },
    {
      "inputs": [
        {
          "internalType": "address",
          "name": "manager",
          "type": "address"
        }
      ],
      "name": "setLendingPoolCollateralManager",
      "outputs": [],
      "stateMutability": "nonpayable",
      "type": "function"
    },
    {
      "inputs": [
        {
          "internalType": "address",
          "name": "configurator",
          "type": "address"
        }
      ],
      "name": "setLendingPoolConfiguratorImpl",
      "outputs": [],
      "stateMutability": "nonpayable",
      "type": "function"
    },
    {
      "inputs": [
        {
          "internalType": "address",
          "name": "pool",
          "type": "address"
        }
      ],
      "name": "setLendingPoolImpl",
      "outputs": [],
      "stateMutability": "nonpayable",
      "type": "function"
    },
    {
      "inputs": [
        {
          "internalType": "address",
          "name": "lendingRateOracle",
          "type": "address"
        }
      ],
      "name": "setLendingRateOracle",
      "outputs": [],
      "stateMutability": "nonpayable",
      "type": "function"
    },
    {
      "inputs": [
        {
          "internalType": "string",
          "name": "marketId",
          "type": "string"
        }
      ],
      "name": "setMarketId",
      "outputs": [],
      "stateMutability": "nonpayable",
      "type": "function"
    },
    {
      "inputs": [
        {
          "internalType": "address",
          "name": "admin",
          "type": "address"
        }
      ],
      "name": "setPoolAdmin",
      "outputs": [],
      "stateMutability": "nonpayable",
      "type": "function"
    },
    {
      "inputs": [
        {
          "internalType": "address",
          "name": "priceOracle",
          "type": "address"
        }
      ],
      "name": "setPriceOracle",
      "outputs": [],
      "stateMutability": "nonpayable",
      "type": "function"
    },
    {
      "inputs": [
        {
          "internalType": "address",
          "name": "newOwner",
          "type": "address"
        }
      ],
      "name": "transferOwnership",
      "outputs": [],
      "stateMutability": "nonpayable",
      "type": "function"
    }
  ],
  "bytecode": "0x60806040523480156200001157600080fd5b5060405162001cd838038062001cd8833981016040819052620000349162000198565b6000620000406200009c565b600080546001600160a01b0319166001600160a01b0383169081178255604051929350917f8be0079c531659141344cd1fd0a4f28419497f9722a3daafe3b4186f6b6457e0908290a3506200009581620000a0565b5062000301565b3390565b8051620000b5906001906020840190620000f2565b507f5e667c32fd847cf8bce48ab3400175cbf107bdc82b2dea62e3364909dfaee79981604051620000e7919062000246565b60405180910390a150565b8280546200010090620002ae565b90600052602060002090601f0160209004810192826200012457600085556200016f565b82601f106200013f57805160ff19168380011785556200016f565b828001600101855582156200016f579182015b828111156200016f57825182559160200191906001019062000152565b506200017d92915062000181565b5090565b5b808211156200017d576000815560010162000182565b600060208284031215620001aa578081fd5b81516001600160401b0380821115620001c1578283fd5b818401915084601f830112620001d5578283fd5b815181811115620001ea57620001ea620002eb565b604051601f8201601f191681016020018381118282101715620002115762000211620002eb565b60405281815283820160200187101562000229578485fd5b6200023c8260208301602087016200027b565b9695505050505050565b6000602082528251806020840152620002678160408501602087016200027b565b601f01601f19169190910160400192915050565b60005b83811015620002985781810151838201526020016200027e565b83811115620002a8576000848401525b50505050565b600281046001821680620002c357607f821691505b60208210811415620002e557634e487b7160e01b600052602260045260246000fd5b50919050565b634e487b7160e01b600052604160045260246000fd5b6119c780620003116000396000f3fe608060405234801561001057600080fd5b50600436106101425760003560e01c8063715018a6116100b8578063c12542df1161007c578063c12542df14610244578063ca446dd914610257578063ddcaa9ea1461026a578063f2fde38b14610272578063f67b184714610285578063fca513a81461029857610142565b8063715018a614610211578063820d12741461021957806385c858b11461022c5780638da5cb5b14610234578063aecda3781461023c57610142565b8063398e55531161010a578063398e5553146101a8578063530e784f146101bb578063568ef470146101ce5780635aef021f146101e35780635dcc528c146101f6578063712d91711461020957610142565b80630261bf8b1461014757806321f8a72114610165578063283d62ad1461017857806335da33941461018d5780633618abba146101a0575b600080fd5b61014f6102a0565b60405161015c9190610fb4565b60405180910390f35b61014f610173366004610e85565b6102bf565b61018b610186366004610e64565b6102dd565b005b61018b61019b366004610e64565b61039b565b61014f610455565b61018b6101b6366004610e64565b610476565b61018b6101c9366004610e64565b610533565b6101d66105ea565b60405161015c919061100d565b61018b6101f1366004610e64565b61067c565b61018b610204366004610e9d565b610701565b61014f610788565b61018b6107a8565b61018b610227366004610e64565b610827565b61014f6108e5565b61014f61090c565b61014f61091b565b61018b610252366004610e64565b610933565b61018b610265366004610e9d565b6109c5565b61014f610a56565b61018b610280366004610e64565b610a73565b61018b610293366004610ec8565b610b29565b61014f610b6a565b60006102ba6b13115391125391d7d413d3d360a21b6102bf565b905090565b6000818152600260205260409020546001600160a01b03165b919050565b6102e5610b84565b6000546001600160a01b0390811691161461031b5760405162461bcd60e51b815260040161031290611066565b60405180910390fd5b692827a7a62fa0a226a4a760b11b600090815260026020527f8625fbc469bac10fd11de1d783dcd446542784dbcc535ef64a1da61860fda74c80546001600160a01b0319166001600160a01b03841690811790915560405190917fc20a317155a9e7d84e06b716b4b355d47742ab9f8c5d630e7f556553f582430d91a250565b6103a3610b84565b6000546001600160a01b039081169116146103d05760405162461bcd60e51b815260040161031290611066565b6e22a6a2a923a2a721acafa0a226a4a760891b600090815260026020527f767aa9c986e1d88108b2558f00fbd21b689a0397581446e2e868cd70421026cc80546001600160a01b0319166001600160a01b03841690811790915560405190917fe19673fc861bfeb894cf2d6b7662505497ef31c0f489b742db24ee331082691691a250565b60006102ba724c454e44494e475f524154455f4f5241434c4560681b6102bf565b61047e610b84565b6000546001600160a01b039081169116146104ab5760405162461bcd60e51b815260040161031290611066565b7121a7a62620aa22a920a62fa6a0a720a3a2a960711b600090815260026020527f65e3f3080e9127c1765503a54b8dbb495249e66169f096dfc87ee63bed17e22c80546001600160a01b0319166001600160a01b03841690811790915560405190917f991888326f0eab3df6084aadb82bee6781b5c9aa75379e8bc50ae8693454163891a250565b61053b610b84565b6000546001600160a01b039081169116146105685760405162461bcd60e51b815260040161031290611066565b6b50524943455f4f5241434c4560a01b600090815260026020527f740f710666bd7a12af42df98311e541e47f7fd33d382d11602457a6d540cbd6380546001600160a01b0319166001600160a01b03841690811790915560405190917fefe8ab924ca486283a79dc604baa67add51afb82af1db8ac386ebbba643cdffd91a250565b6060600180546105f99061109b565b80601f01602080910402602001604051908101604052809291908181526020018280546106259061109b565b80156106725780601f1061064757610100808354040283529160200191610672565b820191906000526020600020905b81548152906001019060200180831161065557829003601f168201915b5050505050905090565b610684610b84565b6000546001600160a01b039081169116146106b15760405162461bcd60e51b815260040161031290611066565b6106ca6b13115391125391d7d413d3d360a21b82610b88565b6040516001600160a01b038216907fc4e6c6cdf28d0edbd8bcf071d724d33cc2e7a30be7d06443925656e9cb492aa490600090a250565b610709610b84565b6000546001600160a01b039081169116146107365760405162461bcd60e51b815260040161031290611066565b6107408282610b88565b806001600160a01b03167ff2689d5d5cd0c639e137642cae5d40afced201a1a0327e7ac9358461dc9fff3183600160405161077c929190610ffd565b60405180910390a25050565b60006102ba7121a7a62620aa22a920a62fa6a0a720a3a2a960711b6102bf565b6107b0610b84565b6000546001600160a01b039081169116146107dd5760405162461bcd60e51b815260040161031290611066565b600080546040516001600160a01b03909116907f8be0079c531659141344cd1fd0a4f28419497f9722a3daafe3b4186f6b6457e0908390a3600080546001600160a01b0319169055565b61082f610b84565b6000546001600160a01b0390811691161461085c5760405162461bcd60e51b815260040161031290611066565b724c454e44494e475f524154455f4f5241434c4560681b600090815260026020527f10f0e20294ece4bd93e7a467dbf22ab9ab1740ebd0a532cc53066601e880c0cf80546001600160a01b0319166001600160a01b03841690811790915560405190917f5c29179aba6942020a8a2d38f65de02fb6b7f784e7f049ed3a3cab97621859b591a250565b60006102ba782622a72224a723afa827a7a62fa1a7a72324a3aaa920aa27a960391b6102bf565b6000546001600160a01b031690565b60006102ba692827a7a62fa0a226a4a760b11b6102bf565b61093b610b84565b6000546001600160a01b039081169116146109685760405162461bcd60e51b815260040161031290611066565b61098e782622a72224a723afa827a7a62fa1a7a72324a3aaa920aa27a960391b82610b88565b6040516001600160a01b038216907fdfabe479bad36782fb1e77fbfddd4e382671713527e4786cfc93a022ae76372990600090a250565b6109cd610b84565b6000546001600160a01b039081169116146109fa5760405162461bcd60e51b815260040161031290611066565b60008281526002602052604080822080546001600160a01b0319166001600160a01b038516908117909155905190917ff2689d5d5cd0c639e137642cae5d40afced201a1a0327e7ac9358461dc9fff319161077c918691610ffd565b60006102ba6e22a6a2a923a2a721acafa0a226a4a760891b6102bf565b610a7b610b84565b6000546001600160a01b03908116911614610aa85760405162461bcd60e51b815260040161031290611066565b6001600160a01b038116610ace5760405162461bcd60e51b815260040161031290611020565b600080546040516001600160a01b03808516939216917f8be0079c531659141344cd1fd0a4f28419497f9722a3daafe3b4186f6b6457e091a3600080546001600160a01b0319166001600160a01b0392909216919091179055565b610b31610b84565b6000546001600160a01b03908116911614610b5e5760405162461bcd60e51b815260040161031290611066565b610b6781610d59565b50565b60006102ba6b50524943455f4f5241434c4560a01b6102bf565b3390565b6000828152600260205260408082205490516001600160a01b03909116918291610bb6903090602401610fb4565b60408051601f198184030181529190526020810180516001600160e01b031663189acdbd60e31b17905290506001600160a01b038316610cf15730604051610bfd90610da7565b610c079190610fb4565b604051809103906000f080158015610c23573d6000803e3d6000fd5b5060405163347d5e2560e21b81529092506001600160a01b0383169063d1f5789490610c559087908590600401610fc8565b600060405180830381600087803b158015610c6f57600080fd5b505af1158015610c83573d6000803e3d6000fd5b5050506000868152600260205260409081902080546001600160a01b0319166001600160a01b03861690811790915590519091507f1eb35cb4b5bbb23d152f3b4016a5a46c37a07ae930ed0956aba951e23114243890610ce4908890610ff4565b60405180910390a2610d52565b60405163278f794360e11b81526001600160a01b03831690634f1ef28690610d1f9087908590600401610fc8565b600060405180830381600087803b158015610d3957600080fd5b505af1158015610d4d573d6000803e3d6000fd5b505050505b5050505050565b8051610d6c906001906020840190610db4565b507f5e667c32fd847cf8bce48ab3400175cbf107bdc82b2dea62e3364909dfaee79981604051610d9c919061100d565b60405180910390a150565b6108a5806110ed83390190565b828054610dc09061109b565b90600052602060002090601f016020900481019282610de25760008555610e28565b82601f10610dfb57805160ff1916838001178555610e28565b82800160010185558215610e28579182015b82811115610e28578251825591602001919060010190610e0d565b50610e34929150610e38565b5090565b5b80821115610e345760008155600101610e39565b80356001600160a01b03811681146102d857600080fd5b600060208284031215610e75578081fd5b610e7e82610e4d565b9392505050565b600060208284031215610e96578081fd5b5035919050565b60008060408385031215610eaf578081fd5b82359150610ebf60208401610e4d565b90509250929050565b60006020808385031215610eda578182fd5b823567ffffffffffffffff80821115610ef1578384fd5b818501915085601f830112610f04578384fd5b813581811115610f1657610f166110d6565b604051601f8201601f1916810185018381118282101715610f3957610f396110d6565b6040528181528382018501881015610f4f578586fd5b818585018683013790810190930193909352509392505050565b60008151808452815b81811015610f8e57602081850181015186830182015201610f72565b81811115610f9f5782602083870101525b50601f01601f19169290920160200192915050565b6001600160a01b0391909116815260200190565b6001600160a01b0383168152604060208201819052600090610fec90830184610f69565b949350505050565b90815260200190565b9182521515602082015260400190565b600060208252610e7e6020830184610f69565b60208082526026908201527f4f776e61626c653a206e6577206f776e657220697320746865207a65726f206160408201526564647265737360d01b606082015260800190565b6020808252818101527f4f776e61626c653a2063616c6c6572206973206e6f7420746865206f776e6572604082015260600190565b6002810460018216806110af57607f821691505b602082108114156110d057634e487b7160e01b600052602260045260246000fd5b50919050565b634e487b7160e01b600052604160045260246000fdfe60a060405234801561001057600080fd5b506040516108a53803806108a583398101604081905261002f91610044565b60601b6001600160601b031916608052610072565b600060208284031215610055578081fd5b81516001600160a01b038116811461006b578182fd5b9392505050565b60805160601c6107f36100b26000396000818160ff01528181610149015281816102020152818161034f01528181610378015261048a01526107f36000f3fe60806040526004361061004a5760003560e01c80633659cfe6146100545780634f1ef286146100745780635c60da1b14610087578063d1f57894146100b2578063f851a440146100c5575b6100526100da565b005b34801561006057600080fd5b5061005261006f366004610525565b6100f4565b610052610082366004610546565b61013e565b34801561009357600080fd5b5061009c6101f5565b6040516100a991906106c1565b60405180910390f35b6100526100c03660046105c4565b610242565b3480156100d157600080fd5b5061009c610342565b6100e261039c565b6100f26100ed6103a4565b6103c9565b565b336001600160a01b037f00000000000000000000000000000000000000000000000000000000000000001614156101335761012e816103ed565b61013b565b61013b6100da565b50565b336001600160a01b037f00000000000000000000000000000000000000000000000000000000000000001614156101e857610178836103ed565b6000836001600160a01b03168383604051610194929190610678565b600060405180830381855af49150503d80600081146101cf576040519150601f19603f3d011682016040523d82523d6000602084013e6101d4565b606091505b50509050806101e257600080fd5b506101f0565b6101f06100da565b505050565b6000336001600160a01b037f0000000000000000000000000000000000000000000000000000000000000000161415610237576102306103a4565b905061023f565b61023f6100da565b90565b600061024c6103a4565b6001600160a01b03161461025f57600080fd5b61028a60017f360894a13ba1a3210667c828492db98dca3e2076cc3735a920a3ca505d382bbd610784565b7f360894a13ba1a3210667c828492db98dca3e2076cc3735a920a3ca505d382bbc146102c657634e487b7160e01b600052600160045260246000fd5b6102cf8261042d565b80511561033e576000826001600160a01b0316826040516102f09190610688565b600060405180830381855af49150503d806000811461032b576040519150601f19603f3d011682016040523d82523d6000602084013e610330565b606091505b50509050806101f057600080fd5b5050565b6000336001600160a01b037f000000000000000000000000000000000000000000000000000000000000000016141561023757507f000000000000000000000000000000000000000000000000000000000000000061023f565b6100f261047f565b7f360894a13ba1a3210667c828492db98dca3e2076cc3735a920a3ca505d382bbc5490565b3660008037600080366000845af43d6000803e8080156103e8573d6000f35b3d6000fd5b6103f68161042d565b6040516001600160a01b038216907fbc7cd75a20ee27fd9adebab32041f755214dbc6bffa90cc0225b39da2e5c2d3b90600090a250565b610436816104d0565b61045b5760405162461bcd60e51b815260040161045290610727565b60405180910390fd5b7f360894a13ba1a3210667c828492db98dca3e2076cc3735a920a3ca505d382bbc55565b336001600160a01b037f00000000000000000000000000000000000000000000000000000000000000001614156104c85760405162461bcd60e51b8152600401610452906106d5565b6100f26100f2565b6000813f7fc5d2460186f7233c927e7db2dcc703c0e500b653ca82273b7bfad8045d85a47081811480159061050457508115155b925050505b919050565b80356001600160a01b038116811461050957600080fd5b600060208284031215610536578081fd5b61053f8261050e565b9392505050565b60008060006040848603121561055a578182fd5b6105638461050e565b9250602084013567ffffffffffffffff8082111561057f578384fd5b818601915086601f830112610592578384fd5b8135818111156105a0578485fd5b8760208285010111156105b1578485fd5b6020830194508093505050509250925092565b600080604083850312156105d6578182fd5b6105df8361050e565b915060208084013567ffffffffffffffff808211156105fc578384fd5b818601915086601f83011261060f578384fd5b813581811115610621576106216107a7565b604051601f8201601f1916810185018381118282101715610644576106446107a7565b604052818152838201850189101561065a578586fd5b81858501868301378585838301015280955050505050509250929050565b6000828483379101908152919050565b60008251815b818110156106a8576020818601810151858301520161068e565b818111156106b65782828501525b509190910192915050565b6001600160a01b0391909116815260200190565b60208082526032908201527f43616e6e6f742063616c6c2066616c6c6261636b2066756e6374696f6e20667260408201527137b6903a343290383937bc3c9030b236b4b760711b606082015260800190565b6020808252603b908201527f43616e6e6f742073657420612070726f787920696d706c656d656e746174696f60408201527f6e20746f2061206e6f6e2d636f6e747261637420616464726573730000000000606082015260800190565b6000828210156107a257634e487b7160e01b81526011600452602481fd5b500390565b634e487b7160e01b600052604160045260246000fdfea264697066735822122028c5dd2cba6154f361f1b471c1cd00c2cd9016258297af0d379220ae8f2c1f3964736f6c63430008000033a2646970667358221220032e0c9322eb7d8b3983d9f8b7c141810b47a883db409ca48ad0b7bb580a6ff164736f6c63430008000033",
  "linkReferences": {},
  "deployedLinkReferences": {}
}