{
  "_format": "hh-sol-artifact-1",
  "contractName": "LendingPool",
  "sourceName": "contracts/protocol/lendingpool/LendingPool.sol",
  "abi": [
    {
      "anonymous": false,
      "inputs": [
        {
          "indexed": true,
          "internalType": "address",
          "name": "reserve",
          "type": "address"
        },
        {
          "indexed": false,
          "internalType": "uint8",
          "name": "tranche",
          "type": "uint8"
        },
        {
          "indexed": false,
          "internalType": "address",
          "name": "user",
          "type": "address"
        },
        {
          "indexed": true,
          "internalType": "address",
          "name": "onBehalfOf",
          "type": "address"
        },
        {
          "indexed": false,
          "internalType": "uint256",
          "name": "amount",
          "type": "uint256"
        },
        {
          "indexed": true,
          "internalType": "uint16",
          "name": "referral",
          "type": "uint16"
        }
      ],
      "name": "Deposit",
      "type": "event"
    },
    {
      "anonymous": false,
      "inputs": [
        {
          "indexed": true,
          "internalType": "address",
          "name": "target",
          "type": "address"
        },
        {
          "indexed": true,
          "internalType": "address",
          "name": "initiator",
          "type": "address"
        },
        {
          "indexed": true,
          "internalType": "address",
          "name": "asset",
          "type": "address"
        },
        {
          "indexed": false,
          "internalType": "uint256",
          "name": "amount",
          "type": "uint256"
        },
        {
          "indexed": false,
          "internalType": "uint256",
          "name": "premium",
          "type": "uint256"
        },
        {
          "indexed": false,
          "internalType": "uint16",
          "name": "referralCode",
          "type": "uint16"
        }
      ],
      "name": "FlashLoan",
      "type": "event"
    },
    {
      "anonymous": false,
      "inputs": [
        {
          "indexed": true,
          "internalType": "address",
          "name": "collateralAsset",
          "type": "address"
        },
        {
          "indexed": true,
          "internalType": "address",
          "name": "debtAsset",
          "type": "address"
        },
        {
          "indexed": true,
          "internalType": "address",
          "name": "user",
          "type": "address"
        },
        {
          "indexed": false,
          "internalType": "uint256",
          "name": "debtToCover",
          "type": "uint256"
        },
        {
          "indexed": false,
          "internalType": "uint256",
          "name": "liquidatedCollateralAmount",
          "type": "uint256"
        },
        {
          "indexed": false,
          "internalType": "address",
          "name": "liquidator",
          "type": "address"
        },
        {
          "indexed": false,
          "internalType": "bool",
          "name": "receiveAToken",
          "type": "bool"
        }
      ],
      "name": "LiquidationCall",
      "type": "event"
    },
    {
      "anonymous": false,
      "inputs": [],
      "name": "Paused",
      "type": "event"
    },
    {
      "anonymous": false,
      "inputs": [
        {
          "indexed": true,
          "internalType": "address",
          "name": "reserve",
          "type": "address"
        },
        {
          "indexed": true,
          "internalType": "address",
          "name": "user",
          "type": "address"
        }
      ],
      "name": "RebalanceStableBorrowRate",
      "type": "event"
    },
    {
      "anonymous": false,
      "inputs": [
        {
          "indexed": true,
          "internalType": "address",
          "name": "reserve",
          "type": "address"
        },
        {
          "indexed": true,
          "internalType": "address",
          "name": "user",
          "type": "address"
        },
        {
          "indexed": true,
          "internalType": "address",
          "name": "repayer",
          "type": "address"
        },
        {
          "indexed": false,
          "internalType": "uint256",
          "name": "amount",
          "type": "uint256"
        }
      ],
      "name": "Repay",
      "type": "event"
    },
    {
      "anonymous": false,
      "inputs": [
        {
          "indexed": true,
          "internalType": "address",
          "name": "reserve",
          "type": "address"
        },
        {
          "indexed": false,
          "internalType": "uint256",
          "name": "liquidityRate",
          "type": "uint256"
        },
        {
          "indexed": false,
          "internalType": "uint256",
          "name": "stableBorrowRate",
          "type": "uint256"
        },
        {
          "indexed": false,
          "internalType": "uint256",
          "name": "variableBorrowRate",
          "type": "uint256"
        },
        {
          "indexed": false,
          "internalType": "uint256",
          "name": "liquidityIndex",
          "type": "uint256"
        },
        {
          "indexed": false,
          "internalType": "uint256",
          "name": "variableBorrowIndex",
          "type": "uint256"
        }
      ],
      "name": "ReserveDataUpdated",
      "type": "event"
    },
    {
      "anonymous": false,
      "inputs": [
        {
          "indexed": true,
          "internalType": "address",
          "name": "reserve",
          "type": "address"
        },
        {
          "indexed": true,
          "internalType": "address",
          "name": "user",
          "type": "address"
        }
      ],
      "name": "ReserveUsedAsCollateralDisabled",
      "type": "event"
    },
    {
      "anonymous": false,
      "inputs": [
        {
          "indexed": true,
          "internalType": "address",
          "name": "reserve",
          "type": "address"
        },
        {
          "indexed": true,
          "internalType": "address",
          "name": "user",
          "type": "address"
        }
      ],
      "name": "ReserveUsedAsCollateralEnabled",
      "type": "event"
    },
    {
      "anonymous": false,
      "inputs": [
        {
          "indexed": true,
          "internalType": "address",
          "name": "reserve",
          "type": "address"
        },
        {
          "indexed": true,
          "internalType": "address",
          "name": "user",
          "type": "address"
        },
        {
          "indexed": false,
          "internalType": "uint256",
          "name": "rateMode",
          "type": "uint256"
        }
      ],
      "name": "Swap",
      "type": "event"
    },
    {
      "anonymous": false,
      "inputs": [],
      "name": "Unpaused",
      "type": "event"
    },
    {
      "anonymous": false,
      "inputs": [
        {
          "indexed": true,
          "internalType": "address",
          "name": "reserve",
          "type": "address"
        },
        {
          "indexed": true,
          "internalType": "address",
          "name": "user",
          "type": "address"
        },
        {
          "indexed": true,
          "internalType": "address",
          "name": "to",
          "type": "address"
        },
        {
          "indexed": false,
          "internalType": "uint256",
          "name": "amount",
          "type": "uint256"
        }
      ],
      "name": "Withdraw",
      "type": "event"
    },
    {
      "inputs": [],
      "name": "FLASHLOAN_PREMIUM_TOTAL",
      "outputs": [
        {
          "internalType": "uint256",
          "name": "",
          "type": "uint256"
        }
      ],
      "stateMutability": "view",
      "type": "function"
    },
    {
      "inputs": [],
      "name": "LENDINGPOOL_REVISION",
      "outputs": [
        {
          "internalType": "uint256",
          "name": "",
          "type": "uint256"
        }
      ],
      "stateMutability": "view",
      "type": "function"
    },
    {
      "inputs": [
        {
          "internalType": "address",
          "name": "asset",
          "type": "address"
        },
        {
          "internalType": "uint8",
          "name": "tranche",
          "type": "uint8"
        },
        {
          "internalType": "uint256",
          "name": "amount",
          "type": "uint256"
        },
        {
          "internalType": "uint256",
          "name": "interestRateMode",
          "type": "uint256"
        },
        {
          "internalType": "uint16",
          "name": "referralCode",
          "type": "uint16"
        },
        {
          "internalType": "address",
          "name": "onBehalfOf",
          "type": "address"
        }
      ],
      "name": "borrow",
      "outputs": [],
      "stateMutability": "nonpayable",
      "type": "function"
    },
    {
      "inputs": [
        {
          "internalType": "address",
          "name": "asset",
          "type": "address"
        },
        {
          "internalType": "uint8",
          "name": "tranche",
          "type": "uint8"
        },
        {
          "internalType": "bool",
          "name": "isCollateral",
          "type": "bool"
        },
        {
          "internalType": "uint256",
          "name": "amount",
          "type": "uint256"
        },
        {
          "internalType": "address",
          "name": "onBehalfOf",
          "type": "address"
        },
        {
          "internalType": "uint16",
          "name": "referralCode",
          "type": "uint16"
        }
      ],
      "name": "deposit",
      "outputs": [],
      "stateMutability": "nonpayable",
      "type": "function"
    },
    {
      "inputs": [
        {
          "internalType": "uint8",
          "name": "tranche",
          "type": "uint8"
        },
        {
          "internalType": "uint256",
          "name": "_liquidityRateMultiplier",
          "type": "uint256"
        },
        {
          "internalType": "uint256",
          "name": "_variableBorrowRateMultiplier",
          "type": "uint256"
        },
        {
          "internalType": "uint256",
          "name": "_stableBorrowRateMultiplier",
          "type": "uint256"
        }
      ],
      "name": "editTrancheMultiplier",
      "outputs": [],
      "stateMutability": "nonpayable",
      "type": "function"
    },
    {
      "inputs": [
        {
          "internalType": "address",
          "name": "asset",
          "type": "address"
        },
        {
          "internalType": "uint8",
          "name": "tranche",
          "type": "uint8"
        },
        {
          "internalType": "address",
          "name": "from",
          "type": "address"
        },
        {
          "internalType": "address",
          "name": "to",
          "type": "address"
        },
        {
          "internalType": "uint256",
          "name": "amount",
          "type": "uint256"
        },
        {
          "internalType": "uint256",
          "name": "balanceFromBefore",
          "type": "uint256"
        },
        {
          "internalType": "uint256",
          "name": "balanceToBefore",
          "type": "uint256"
        }
      ],
      "name": "finalizeTransfer",
      "outputs": [],
      "stateMutability": "nonpayable",
      "type": "function"
    },
    {
      "inputs": [
        {
          "internalType": "address",
          "name": "receiverAddress",
          "type": "address"
        },
        {
          "components": [
            {
              "internalType": "uint8",
              "name": "tranche",
              "type": "uint8"
            },
            {
              "internalType": "address",
              "name": "asset",
              "type": "address"
            }
          ],
          "internalType": "struct DataTypes.TrancheAddress[]",
          "name": "assets",
          "type": "tuple[]"
        },
        {
          "internalType": "uint256[]",
          "name": "amounts",
          "type": "uint256[]"
        },
        {
          "internalType": "uint256[]",
          "name": "modes",
          "type": "uint256[]"
        },
        {
          "internalType": "address",
          "name": "onBehalfOf",
          "type": "address"
        },
        {
          "internalType": "bytes",
          "name": "params",
          "type": "bytes"
        },
        {
          "internalType": "uint16",
          "name": "referralCode",
          "type": "uint16"
        }
      ],
      "name": "flashLoan",
      "outputs": [],
      "stateMutability": "nonpayable",
      "type": "function"
    },
    {
      "inputs": [],
      "name": "getAddressesProvider",
      "outputs": [
        {
          "internalType": "contract ILendingPoolAddressesProvider",
          "name": "",
          "type": "address"
        }
      ],
      "stateMutability": "view",
      "type": "function"
    },
    {
      "inputs": [
        {
          "internalType": "address",
          "name": "asset",
          "type": "address"
        }
      ],
      "name": "getAssetData",
      "outputs": [
        {
          "components": [
            {
              "internalType": "uint8",
              "name": "collateralRisk",
              "type": "uint8"
            },
            {
              "internalType": "bool",
              "name": "isLendable",
              "type": "bool"
            },
            {
              "internalType": "bool",
              "name": "isAllowedCollateralInHigherTranches",
              "type": "bool"
            },
            {
              "internalType": "enum DataTypes.ReserveAssetType",
              "name": "assetType",
              "type": "uint8"
            }
          ],
          "internalType": "struct DataTypes.AssetData",
          "name": "",
          "type": "tuple"
        }
      ],
      "stateMutability": "view",
      "type": "function"
    },
    {
      "inputs": [
        {
          "internalType": "address",
          "name": "asset",
          "type": "address"
        }
      ],
      "name": "getAssetRisk",
      "outputs": [
        {
          "internalType": "uint8",
          "name": "",
          "type": "uint8"
        }
      ],
      "stateMutability": "view",
      "type": "function"
    },
    {
      "inputs": [
        {
          "internalType": "address",
          "name": "asset",
          "type": "address"
        },
        {
          "internalType": "uint8",
          "name": "tranche",
          "type": "uint8"
        }
      ],
      "name": "getConfiguration",
      "outputs": [
        {
          "components": [
            {
              "internalType": "uint256",
              "name": "data",
              "type": "uint256"
            }
          ],
          "internalType": "struct DataTypes.ReserveConfigurationMap",
          "name": "",
          "type": "tuple"
        }
      ],
      "stateMutability": "view",
      "type": "function"
    },
    {
      "inputs": [
        {
          "internalType": "address",
          "name": "asset",
          "type": "address"
        },
        {
          "internalType": "uint8",
          "name": "tranche",
          "type": "uint8"
        }
      ],
      "name": "getReserveData",
      "outputs": [
        {
          "components": [
            {
              "components": [
                {
                  "internalType": "uint256",
                  "name": "data",
                  "type": "uint256"
                }
              ],
              "internalType": "struct DataTypes.ReserveConfigurationMap",
              "name": "configuration",
              "type": "tuple"
            },
            {
              "internalType": "uint128",
              "name": "liquidityIndex",
              "type": "uint128"
            },
            {
              "internalType": "uint128",
              "name": "variableBorrowIndex",
              "type": "uint128"
            },
            {
              "internalType": "uint128",
              "name": "currentLiquidityRate",
              "type": "uint128"
            },
            {
              "internalType": "uint128",
              "name": "currentVariableBorrowRate",
              "type": "uint128"
            },
            {
              "internalType": "uint128",
              "name": "currentStableBorrowRate",
              "type": "uint128"
            },
            {
              "internalType": "uint40",
              "name": "lastUpdateTimestamp",
              "type": "uint40"
            },
            {
              "internalType": "address",
              "name": "aTokenAddress",
              "type": "address"
            },
            {
              "internalType": "address",
              "name": "stableDebtTokenAddress",
              "type": "address"
            },
            {
              "internalType": "address",
              "name": "variableDebtTokenAddress",
              "type": "address"
            },
            {
              "internalType": "address",
              "name": "interestRateStrategyAddress",
              "type": "address"
            },
            {
              "internalType": "uint8",
              "name": "id",
              "type": "uint8"
            },
            {
              "internalType": "uint8",
              "name": "tranche",
              "type": "uint8"
            }
          ],
          "internalType": "struct DataTypes.ReserveData",
          "name": "",
          "type": "tuple"
        }
      ],
      "stateMutability": "view",
      "type": "function"
    },
    {
      "inputs": [
        {
          "internalType": "address",
          "name": "asset",
          "type": "address"
        },
        {
          "internalType": "uint8",
          "name": "tranche",
          "type": "uint8"
        }
      ],
      "name": "getReserveNormalizedIncome",
      "outputs": [
        {
          "internalType": "uint256",
          "name": "",
          "type": "uint256"
        }
      ],
      "stateMutability": "view",
      "type": "function"
    },
    {
      "inputs": [
        {
          "internalType": "address",
          "name": "asset",
          "type": "address"
        },
        {
          "internalType": "uint8",
          "name": "tranche",
          "type": "uint8"
        }
      ],
      "name": "getReserveNormalizedVariableDebt",
      "outputs": [
        {
          "internalType": "uint256",
          "name": "",
          "type": "uint256"
        }
      ],
      "stateMutability": "view",
      "type": "function"
    },
    {
      "inputs": [],
      "name": "getReservesList",
      "outputs": [
        {
          "internalType": "address[]",
          "name": "",
          "type": "address[]"
        }
      ],
      "stateMutability": "view",
      "type": "function"
    },
    {
      "inputs": [
        {
          "internalType": "uint8",
          "name": "tranche",
          "type": "uint8"
        }
      ],
      "name": "getTrancheMultiplier",
      "outputs": [
        {
          "components": [
            {
              "internalType": "uint256",
              "name": "liquidityRateMultiplier",
              "type": "uint256"
            },
            {
              "internalType": "uint256",
              "name": "variableBorrowRateMultiplier",
              "type": "uint256"
            },
            {
              "internalType": "uint256",
              "name": "stableBorrowRateMultiplier",
              "type": "uint256"
            }
          ],
          "internalType": "struct DataTypes.TrancheMultiplier",
          "name": "",
          "type": "tuple"
        }
      ],
      "stateMutability": "view",
      "type": "function"
    },
    {
      "inputs": [
        {
          "internalType": "address",
          "name": "user",
          "type": "address"
        },
        {
          "internalType": "uint8",
          "name": "tranche",
          "type": "uint8"
        }
      ],
      "name": "getUserAccountData",
      "outputs": [
        {
          "internalType": "uint256",
          "name": "totalCollateralETH",
          "type": "uint256"
        },
        {
          "internalType": "uint256",
          "name": "totalDebtETH",
          "type": "uint256"
        },
        {
          "internalType": "uint256",
          "name": "availableBorrowsETH",
          "type": "uint256"
        },
        {
          "internalType": "uint256",
          "name": "currentLiquidationThreshold",
          "type": "uint256"
        },
        {
          "internalType": "uint256",
          "name": "ltv",
          "type": "uint256"
        },
        {
          "internalType": "uint256",
          "name": "healthFactor",
          "type": "uint256"
        }
      ],
      "stateMutability": "view",
      "type": "function"
    },
    {
      "inputs": [
        {
          "internalType": "address",
          "name": "user",
          "type": "address"
        }
      ],
      "name": "getUserConfiguration",
      "outputs": [
        {
          "components": [
            {
              "internalType": "uint256",
              "name": "data",
              "type": "uint256"
            }
          ],
          "internalType": "struct DataTypes.UserConfigurationMap",
          "name": "",
          "type": "tuple"
        }
      ],
      "stateMutability": "view",
      "type": "function"
    },
    {
      "inputs": [
        {
          "internalType": "address",
          "name": "asset",
          "type": "address"
        },
        {
          "internalType": "address",
          "name": "aTokenAddress",
          "type": "address"
        },
        {
          "internalType": "address",
          "name": "stableDebtAddress",
          "type": "address"
        },
        {
          "internalType": "address",
          "name": "variableDebtAddress",
          "type": "address"
        },
        {
          "internalType": "address",
          "name": "interestRateStrategyAddress",
          "type": "address"
        },
        {
          "internalType": "uint8",
          "name": "tranche",
          "type": "uint8"
        }
      ],
      "name": "initReserve",
      "outputs": [],
      "stateMutability": "nonpayable",
      "type": "function"
    },
    {
      "inputs": [
        {
          "internalType": "contract ILendingPoolAddressesProvider",
          "name": "provider",
          "type": "address"
        }
      ],
      "name": "initialize",
      "outputs": [],
      "stateMutability": "nonpayable",
      "type": "function"
    },
    {
      "inputs": [
        {
          "internalType": "address",
          "name": "collateralAsset",
          "type": "address"
        },
        {
          "internalType": "address",
          "name": "debtAsset",
          "type": "address"
        },
        {
          "internalType": "uint8",
          "name": "tranche",
          "type": "uint8"
        },
        {
          "internalType": "address",
          "name": "user",
          "type": "address"
        },
        {
          "internalType": "uint256",
          "name": "debtToCover",
          "type": "uint256"
        },
        {
          "internalType": "bool",
          "name": "receiveAToken",
          "type": "bool"
        }
      ],
      "name": "liquidationCall",
      "outputs": [],
      "stateMutability": "nonpayable",
      "type": "function"
    },
    {
      "inputs": [],
      "name": "paused",
      "outputs": [
        {
          "internalType": "bool",
          "name": "",
          "type": "bool"
        }
      ],
      "stateMutability": "view",
      "type": "function"
    },
    {
      "inputs": [
        {
          "internalType": "address",
          "name": "asset",
          "type": "address"
        },
        {
          "internalType": "uint8",
          "name": "tranche",
          "type": "uint8"
        },
        {
          "internalType": "address",
          "name": "user",
          "type": "address"
        }
      ],
      "name": "rebalanceStableBorrowRate",
      "outputs": [],
      "stateMutability": "nonpayable",
      "type": "function"
    },
    {
      "inputs": [
        {
          "internalType": "address",
          "name": "asset",
          "type": "address"
        },
        {
          "internalType": "uint8",
          "name": "tranche",
          "type": "uint8"
        },
        {
          "internalType": "uint256",
          "name": "amount",
          "type": "uint256"
        },
        {
          "internalType": "uint256",
          "name": "rateMode",
          "type": "uint256"
        },
        {
          "internalType": "address",
          "name": "onBehalfOf",
          "type": "address"
        }
      ],
      "name": "repay",
      "outputs": [
        {
          "internalType": "uint256",
          "name": "",
          "type": "uint256"
        }
      ],
      "stateMutability": "nonpayable",
      "type": "function"
    },
    {
      "inputs": [
        {
          "internalType": "address",
          "name": "asset",
          "type": "address"
        },
        {
          "internalType": "uint8",
          "name": "_risk",
          "type": "uint8"
        },
        {
          "internalType": "bool",
          "name": "_isLendable",
          "type": "bool"
        },
        {
          "internalType": "bool",
          "name": "_allowedHigherTranche",
          "type": "bool"
        },
        {
          "internalType": "uint8",
          "name": "_assetType",
          "type": "uint8"
        }
      ],
      "name": "setAssetData",
      "outputs": [],
      "stateMutability": "nonpayable",
      "type": "function"
    },
    {
      "inputs": [
        {
          "internalType": "address",
          "name": "asset",
          "type": "address"
        },
        {
          "internalType": "uint8",
          "name": "tranche",
          "type": "uint8"
        },
        {
          "internalType": "uint256",
          "name": "configuration",
          "type": "uint256"
        }
      ],
      "name": "setConfiguration",
      "outputs": [],
      "stateMutability": "nonpayable",
      "type": "function"
    },
    {
      "inputs": [
        {
          "internalType": "bool",
          "name": "val",
          "type": "bool"
        }
      ],
      "name": "setPause",
      "outputs": [],
      "stateMutability": "nonpayable",
      "type": "function"
    },
    {
      "inputs": [
        {
          "internalType": "address",
          "name": "asset",
          "type": "address"
        },
        {
          "internalType": "uint8",
          "name": "tranche",
          "type": "uint8"
        },
        {
          "internalType": "address",
          "name": "rateStrategyAddress",
          "type": "address"
        }
      ],
      "name": "setReserveInterestRateStrategyAddress",
      "outputs": [],
      "stateMutability": "nonpayable",
      "type": "function"
    },
    {
      "inputs": [
        {
          "internalType": "address",
          "name": "asset",
          "type": "address"
        },
        {
          "internalType": "uint8",
          "name": "tranche",
          "type": "uint8"
        },
        {
          "internalType": "bool",
          "name": "useAsCollateral",
          "type": "bool"
        }
      ],
      "name": "setUserUseReserveAsCollateral",
      "outputs": [],
      "stateMutability": "nonpayable",
      "type": "function"
    },
    {
      "inputs": [
        {
          "internalType": "address",
          "name": "asset",
          "type": "address"
        },
        {
          "internalType": "uint8",
          "name": "tranche",
          "type": "uint8"
        },
        {
          "internalType": "uint256",
          "name": "rateMode",
          "type": "uint256"
        }
      ],
      "name": "swapBorrowRateMode",
      "outputs": [],
      "stateMutability": "nonpayable",
      "type": "function"
    },
    {
      "inputs": [
        {
          "internalType": "address",
          "name": "asset",
          "type": "address"
        },
        {
          "internalType": "uint8",
          "name": "originTranche",
          "type": "uint8"
        },
        {
          "internalType": "uint8",
          "name": "destinationTranche",
          "type": "uint8"
        },
        {
          "internalType": "uint256",
          "name": "amount",
          "type": "uint256"
        },
        {
          "internalType": "bool",
          "name": "isCollateral",
          "type": "bool"
        }
      ],
      "name": "transferTranche",
      "outputs": [],
      "stateMutability": "nonpayable",
      "type": "function"
    },
    {
      "inputs": [
        {
          "internalType": "address",
          "name": "asset",
          "type": "address"
        },
        {
          "internalType": "uint8",
          "name": "tranche",
          "type": "uint8"
        },
        {
          "internalType": "uint256",
          "name": "amount",
          "type": "uint256"
        },
        {
          "internalType": "address",
          "name": "to",
          "type": "address"
        }
      ],
      "name": "withdraw",
      "outputs": [
        {
          "internalType": "uint256",
          "name": "",
          "type": "uint256"
        }
      ],
      "stateMutability": "nonpayable",
      "type": "function"
    }
  ],
  "bytecode": "0x60806040526000805534801561001457600080fd5b506158df80620000256000396000f3fe608060405234801561001057600080fd5b50600436106101f05760003560e01c80638afaff021161010f578063d1946dbc116100a2578063f182c03611610071578063f182c03614610462578063f2e1cf1614610475578063f611847614610488578063fe65acfe1461049b576101f0565b8063d1946dbc14610414578063de14ae2814610429578063df968e201461043c578063f13771da1461044f576101f0565b8063bedb86fb116100de578063bedb86fb146103bb578063bfb88060146103ce578063c1fc1e90146103ee578063c4d66de814610401576101f0565b80638afaff021461037a5780639372e1e7146103825780639f71ff2214610395578063a7c245f0146103a8576101f0565b80633f2591f71161018757806360e963891161015657806360e963891461031c578063624490d414610341578063776f6891146103545780637b6d52d414610367576101f0565b80633f2591f7146102ce5780634417a583146102e1578063452572f3146102f45780635c975abb14610307576101f0565b80631652e7b7116101c35780631652e7b71461024e5780632a6c47921461026e5780633629e3cd1461028e57806339142300146102ae576101f0565b8063013351ef146101f5578063074b2e431461021e5780630782623e14610226578063140589671461023b575b600080fd5b6102086102033660046144fb565b6104b0565b60405161021591906155ff565b60405180910390f35b6102086104e8565b610239610234366004614406565b6104ee565b005b610239610249366004614a96565b610780565b61026161025c3660046142db565b6107c9565b60405161021591906151b4565b61028161027c3660046142db565b610878565b604051610215919061566d565b6102a161029c3660046144fb565b610896565b60405161021591906151fe565b6102c16102bc3660046144fb565b61098e565b60405161021591906151f4565b6102396102dc366004614390565b6109d0565b6102c16102ef3660046142db565b610ba8565b610208610302366004614735565b610bdb565b61030f610d01565b6040516102159190614da2565b61032f61032a3660046144fb565b610d0a565b60405161021596959493929190615645565b61020861034f366004614785565b610d93565b6102086103623660046144fb565b611146565b610239610375366004614313565b611175565b610208611269565b6102396103903660046145eb565b61126e565b6102396103a3366004614628565b611499565b6102396103b636600461452f565b61155a565b6102396103c9366004614893565b611854565b6103e16103dc366004614a7c565b6118cf565b60405161021591906154d0565b6102396103fc366004614577565b611913565b61023961040f3660046142db565b611af1565b61041c611b9a565b6040516102159190614d55565b61023961043736600461452f565b611c6d565b61023961044a36600461483e565b611cb8565b61023961045d3660046146f8565b611ce3565b6102396104703660046147e1565b611d15565b6102396104833660046146f8565b611ead565b610239610496366004614692565b6122c5565b6104a36123fa565b6040516102159190614c12565b6001600160a01b038216600090815260356020908152604080832060ff8516845290915281206104df90612409565b90505b92915050565b603c5490565b6104f6612486565b6001600160a01b0384166000908152603660205260409020610516613e3e565b6040518061016001604052808e6001600160a01b031681526020018d8d808060200260200160405190810160405280939291908181526020016000905b8282101561057f57610570604083028601368190038101906148cb565b81526020019060010190610553565b505050505081526020018b8b808060200260200160405190810160405280939291908181526020018383602002808284376000920191909152505050908252506040805160208b810282810182019093528b82529283019290918c918c9182918501908490808284376000920191909152505050908252506001600160a01b03881660208083019190915260408051601f8901839004830281018301825288815292019190889088908190840183828082843760009201919091525050509082525061ffff8516602080830191909152603c54604080840191909152603454815163f139dc8160e01b815291516060909401936001600160a01b039091169263f139dc819260048082019391829003018186803b15801561069f57600080fd5b505afa1580156106b3573d6000803e3d6000fd5b505050506040513d601f19601f820116820180604052508101906106d791906142f7565b6001600160a01b039081168252603b546020830152603954604092830152603454915163fad9271360e01b815292935073__$f1f6c0540507d7a73571ad55dbacf4a67d$__9263fad9271392610741928692603792603592603e926038928c9216906004016154de565b60006040518083038186803b15801561075957600080fd5b505af415801561076d573d6000803e3d6000fd5b5050505050505050505050505050505050565b6107886124c4565b60408051606081018252938452602080850193845284820192835260ff9095166000908152603e909552909320915182555160018201559051600290910155565b6107d1613eb7565b6001600160a01b0382166000908152603760209081526040918290208251608081018452815460ff808216835261010082048116151594830194909452620100008104841615159482019490945292909160608401916301000000900416600181111561084e57634e487b7160e01b600052602160045260246000fd5b600181111561086d57634e487b7160e01b600052602160045260246000fd5b90525090505b919050565b6001600160a01b031660009081526037602052604090205460ff1690565b61089e613edf565b506001600160a01b03918216600090815260356020908152604080832060ff948516845282529182902082516101c08101845281546101a08201908152815260018201546001600160801b0380821694830194909452600160801b908190048416948201949094526002820154808416606083015284900483166080820152600382015492831660a08201529290910464ffffffffff1660c08301526004810154841660e0830152600581015484166101008301526006810154841661012083015260070154928316610140820152600160a01b83048216610160820152600160a81b9092041661018082015290565b610996613f52565b506001600160a01b038216600090815260356020908152604080832060ff8516845282529182902082519182019092529054815292915050565b6109d8612486565b6034546040805163712d917160e01b815290516000926001600160a01b03169163712d9171916004808301926020929190829003018186803b158015610a1d57600080fd5b505afa158015610a31573d6000803e3d6000fd5b505050506040513d601f19601f82011682018060405250810190610a5591906142f7565b9050600080826001600160a01b0316898989898989604051602401610a7f96959493929190614c7b565b60408051601f198184030181529181526020820180516001600160e01b0316633f2591f760e01b17905251610ab49190614bf6565b600060405180830381855af49150503d8060008114610aef576040519150601f19603f3d011682016040523d82523d6000602084013e610af4565b606091505b50915091508160405180604001604052806002815260200161323360f01b81525090610b3c5760405162461bcd60e51b8152600401610b339190614f72565b60405180910390fd5b5060008082806020019051810190610b54919061493f565b915091508160001481604051602001610b6d9190614bf6565b60405160208183030381529060405290610b9a5760405162461bcd60e51b8152600401610b339190614f72565b505050505050505050505050565b610bb0613f52565b506001600160a01b031660009081526036602090815260409182902082519182019092529054815290565b6000610be5612486565b336000908152603660209081526040808320815160c08101835260395481526001600160a01b038a81168286015260ff8a1682850181905260608084018b90528983166080850152908752603e86529584902084519687018552805487526001810154958701959095526002909401548584015260a0810194909452603454915163239b9b7160e11b815273__$f1f6c0540507d7a73571ad55dbacf4a67d$__9463473736e294610ca89460359493603893929190911690603790600401614ee6565b60206040518083038186803b158015610cc057600080fd5b505af4158015610cd4573d6000803e3d6000fd5b505050506040513d601f19601f82011682018060405250810190610cf89190614927565b95945050505050565b603a5460ff1690565b6040805180820182526001600160a01b0380851680835260ff8516602080850191909152600091825260368152848220855191820190955293548452603954603454919485948594859485948594610d6f949360359391926038929091166037612583565b93995091975090945092509050610d87868684612bdc565b93509295509295509295565b6000610d9d612486565b6001600160a01b038616600090815260356020908152604080832060ff8916845290915281209080610dcf8584612c12565b915091506000866002811115610df557634e487b7160e01b600052602160045260246000fd5b60405163fa0c214960e01b815290915073__$de8c0cf1a7d7c36c802af9a64fb9d86036$__9063fa0c214990610e399087908c9086908c908a908a9060040161548f565b60006040518083038186803b158015610e5157600080fd5b505af4158015610e65573d6000803e3d6000fd5b506000925060019150610e759050565b826002811115610e9557634e487b7160e01b600052602160045260246000fd5b14610ea05782610ea2565b835b905080891015610eaf5750875b610eb885612d27565b6001826002811115610eda57634e487b7160e01b600052602160045260246000fd5b1415610f4b576005850154604051632770a7eb60e21b81526001600160a01b0390911690639dc29fac90610f14908a908590600401614d12565b600060405180830381600087803b158015610f2e57600080fd5b505af1158015610f42573d6000803e3d6000fd5b50505050610fc9565b60068501546001860154604051637a94c56560e11b81526001600160a01b039092169163f5298aca91610f96918b918691600160801b9091046001600160801b031690600401614d2b565b600060405180830381600087803b158015610fb057600080fd5b505af1158015610fc4573d6000803e3d6000fd5b505050505b600485015460ff8b166000908152603e6020908152604080832081516060810183528154815260018201549381019390935260020154908201526001600160a01b0390921691611021918891908f9085908790612dfd565b6110358261102f87876131cf565b906131db565b61106d5760078601546001600160a01b038916600090815260366020526040812061106d929091600160a01b90910460ff16906131e7565b6110826001600160a01b038d1633838561325d565b6040516388dd91a160e01b81526001600160a01b038216906388dd91a1906110b09033908690600401614d12565b600060405180830381600087803b1580156110ca57600080fd5b505af11580156110de573d6000803e3d6000fd5b50505050336001600160a01b0316886001600160a01b03168d6001600160a01b03167f4cdde6e09bb755c9a5589ebaec640bbfedff1362d4b255ebf8339782b9942faa8560405161112f91906155ff565b60405180910390a4509a9950505050505050505050565b6001600160a01b038216600090815260356020908152604080832060ff8516845290915281206104df906132b5565b61117d6124c4565b61118686613314565b6040518060400160405280600281526020016106e760f31b815250906111bf5760405162461bcd60e51b8152600401610b339190614f72565b506001600160a01b038616600090815260356020908152604080832060ff85168452909152908190209051630192876960e41b815273__$22cd43a9dda9ce44e9b92ba393b88fb9ac$__91631928769091611227919089908990899089908990600401615306565b60006040518083038186803b15801561123f57600080fd5b505af4158015611253573d6000803e3d6000fd5b505050506112618682613345565b505050505050565b600281565b611276612486565b6001600160a01b038316600090815260376020526040902054610100900460ff166112b35760405162461bcd60e51b8152600401610b3390615002565b6001600160a01b038316600081815260356020908152604080832060ff808816855290835281842094845260379092529182902054915163f717c1f560e01b815273__$de8c0cf1a7d7c36c802af9a64fb9d86036$__9263f717c1f59261132d928792808316928a92620100009092041690600401614dad565b60006040518083038186803b15801561134557600080fd5b505af4158015611359573d6000803e3d6000fd5b505033600090815260366020526040908190206039546034549251630d39769960e31b815273__$de8c0cf1a7d7c36c802af9a64fb9d86036$__95506369cbb4c894506113c49387938b938a93603593603892916001600160a01b039091169060379060040161533f565b60006040518083038186803b1580156113dc57600080fd5b505af41580156113f0573d6000803e3d6000fd5b50505050600781015433600090815260366020526040902061141c91600160a01b900460ff1684613431565b811561145c5760405133906001600160a01b038616907e058a56ea94653cdf4f152d227ace22d4c00ad99e2a43f58cb7d9e3feb295f290600090a3611493565b60405133906001600160a01b038616907f44c58d81365b66dd4b1a7f36c25aa97b8c71c361ee4937adc1a00000227db5dd90600090a35b50505050565b6114a16124c4565b6001600160a01b0385166000908152603760205260409020805460ff191660ff8681169190911761ff001916610100861515021762ff000019166201000085151502179091558116600181111561150857634e487b7160e01b600052602160045260246000fd5b6001600160a01b0386166000908152603760205260409020805463ff0000001916630100000083600181111561154e57634e487b7160e01b600052602160045260246000fd5b02179055505050505050565b611562612486565b6001600160a01b038316600090815260376020526040902054610100900460ff1661159f5760405162461bcd60e51b8152600401610b3390614f85565b6001600160a01b03808416600090815260356020908152604080832060ff871684529091528082206005810154600682015460048084015494516370a0823160e01b81529396928316959183169490921692909185916370a0823191611607918a9101614c12565b60206040518083038186803b15801561161f57600080fd5b505afa158015611633573d6000803e3d6000fd5b505050506040513d601f19601f820116820180604052508101906116579190614927565b60405163548cad0960e01b815290915073__$de8c0cf1a7d7c36c802af9a64fb9d86036$__9063548cad09906116999088908c90899089908990600401615389565b60006040518083038186803b1580156116b157600080fd5b505af41580156116c5573d6000803e3d6000fd5b505050506116d285612d27565b604051632770a7eb60e21b81526001600160a01b03851690639dc29fac906117009089908590600401614d12565b600060405180830381600087803b15801561171a57600080fd5b505af115801561172e573d6000803e3d6000fd5b505050600386015460405163b3f1c93d60e01b81526001600160a01b038716925063b3f1c93d91611771918a91829187916001600160801b031690600401614c4a565b602060405180830381600087803b15801561178b57600080fd5b505af115801561179f573d6000803e3d6000fd5b505050506040513d601f19601f820116820180604052508101906117c391906148af565b5060ff87166000908152603e60209081526040808320815160608101835281548152600182015493810193909352600201549082015261180a918791908b90869080612dfd565b856001600160a01b0316886001600160a01b03167f9f439ae0c81e41a04d3fdfe07aed54e6a179fb0db15be7702eb66fa8ef6f530060405160405180910390a35050505050505050565b61185c6124c4565b603a805460ff1916821515179081905560ff16156118a2576040517f9e87fac88ff661f02d44f95383c817fece4bce600a3dab7a54406878b965e75290600090a16118cc565b6040517fa45f47fdea8a1efdd9029a5691c7f759c32b7c698632b563573e155625d1693390600090a15b50565b6118d7613f65565b5060ff166000908152603e6020908152604091829020825160608101845281548152600182015492810192909252600201549181019190915290565b61191b612486565b6001600160a01b03878116600090815260356020908152604080832060ff8b1684528252918290206004015482518084019093526002835261363360f01b9183019190915290911633146119825760405162461bcd60e51b8152600401610b339190614f72565b506001600160a01b0380861660009081526036602052604090206039546034546119ba9389938b9360359391926038921660376134ac565b6001600160a01b03808816600090815260356020908152604080832060ff808c168552925290912060070154600160a01b9004169086811690861614611ae757611a0483856131db565b611a70576001600160a01b038616600090815260366020526040812090611a2e9082908490613431565b866001600160a01b0316896001600160a01b03167f44c58d81365b66dd4b1a7f36c25aa97b8c71c361ee4937adc1a00000227db5dd60405160405180910390a3505b81158015611a7d57508315155b15611ae7576001600160a01b0385166000908152603660205260409020611aa681836001613431565b856001600160a01b0316896001600160a01b03167e058a56ea94653cdf4f152d227ace22d4c00ad99e2a43f58cb7d9e3feb295f260405160405180910390a3505b5050505050505050565b6000611afb613548565b60015490915060ff1680611b125750611b1261354d565b80611b1e575060005481115b611b3a5760405162461bcd60e51b8152600401610b339061504e565b60015460ff16158015611b59576001805460ff19168117905560008290555b603480546001600160a01b0319166001600160a01b0385161790556109c4603b556009603c556080603d558015611b95576001805460ff191690555b505050565b6060600060395467ffffffffffffffff811115611bc757634e487b7160e01b600052604160045260246000fd5b604051908082528060200260200182016040528015611bf0578160200160208202803683370190505b50905060005b603954811015611c675760008181526038602052604090205482516001600160a01b0390911690839083908110611c3d57634e487b7160e01b600052603260045260246000fd5b6001600160a01b039092166020928302919091019091015280611c5f81615829565b915050611bf6565b50905090565b611c756124c4565b6001600160a01b03928316600090815260356020908152604080832060ff9590951683529390529190912060070180546001600160a01b03191691909216179055565b611cc0612486565b611ccc85858433610bdb565b50611cdc858483853360006122c5565b5050505050565b611ceb6124c4565b6001600160a01b03909216600090815260356020908152604080832060ff90941683529290522055565b611d1d612486565b6001600160a01b038616600090815260376020526040902054610100900460ff16611d5a5760405162461bcd60e51b8152600401610b3390614f85565b6000611d64613f86565b50506001600160a01b03808716600081815260356020818152604080842060ff8c1680865290835281852082516101808101845296875286840182905233878401528888166060808901829052608089018e905260a089018d90526004808401548b1660c08b015261ffff8d1660e08b015260016101008b01819052603b546101208c01526039546101408c0152948952603e875285892086519283018752805483529485015482880152600290940154818601526101608901528652603690935293819020603454915163f6e3652b60e01b81529296909473__$f1f6c0540507d7a73571ad55dbacf4a67d$__9463f6e3652b94611e7294919360389389936037939216918b9101614dde565b60006040518083038186803b158015611e8a57600080fd5b505af4158015611e9e573d6000803e3d6000fd5b50505050505050505050505050565b611eb5612486565b6001600160a01b038316600090815260376020526040902054610100900460ff16611ef25760405162461bcd60e51b8152600401610b339061509c565b6001600160a01b038316600090815260356020908152604080832060ff8616845290915281209080611f243384612c12565b915091506000846002811115611f4a57634e487b7160e01b600052602160045260246000fd5b3360009081526036602052604090819020905163a8695b1d60e01b815291925073__$de8c0cf1a7d7c36c802af9a64fb9d86036$__9163a8695b1d91611f9b9188919088908890889060040161545b565b60006040518083038186803b158015611fb357600080fd5b505af4158015611fc7573d6000803e3d6000fd5b50505050611fd484612d27565b6001816002811115611ff657634e487b7160e01b600052602160045260246000fd5b1415612106576005840154604051632770a7eb60e21b81526001600160a01b0390911690639dc29fac906120309033908790600401614d12565b600060405180830381600087803b15801561204a57600080fd5b505af115801561205e573d6000803e3d6000fd5b505050506006840154600185015460405163b3f1c93d60e01b81526001600160a01b039092169163b3f1c93d916120ae91339182918991600160801b90046001600160801b031690600401614c4a565b602060405180830381600087803b1580156120c857600080fd5b505af11580156120dc573d6000803e3d6000fd5b505050506040513d601f19601f8201168201806040525081019061210091906148af565b5061221c565b60068401546001850154604051637a94c56560e11b81526001600160a01b039092169163f5298aca916121519133918791600160801b9091046001600160801b031690600401614d2b565b600060405180830381600087803b15801561216b57600080fd5b505af115801561217f573d6000803e3d6000fd5b505050506005840154600385015460405163b3f1c93d60e01b81526001600160a01b039092169163b3f1c93d916121c8913391829188916001600160801b031690600401614c4a565b602060405180830381600087803b1580156121e257600080fd5b505af11580156121f6573d6000803e3d6000fd5b505050506040513d601f19601f8201168201806040525081019061221a91906148af565b505b60ff86166000908152603e6020908152604080832081516060810183528154815260018201549381019390935260020154908201526004860154612271928792918b916001600160a01b039091169080612dfd565b336001600160a01b0316876001600160a01b03167fea368a40e9570069bb8e6511d668293ad2e1f03b0d982431fd223de9f3b70ca6876040516122b491906155ff565b60405180910390a350505050505050565b6122cd612486565b6122d5613fec565b506040805160c0810182526001600160a01b0380891680835260ff808a16602080860182905260008481526037825287812054808516888a0152620100008104851615156060808a019190915261010090910490941615156080880152828152603e82528781208851948501895280548552600181015485840152600201548489015260a0870193909352928252603583528582209082528252848120928716815260369091528390209251635c79be6960e01b8152919273__$f1f6c0540507d7a73571ad55dbacf4a67d$__92635c79be69926123c192909186918b918b918b918b906004016153b7565b60006040518083038186803b1580156123d957600080fd5b505af41580156123ed573d6000803e3d6000fd5b5050505050505050505050565b6034546001600160a01b031690565b600381015460009064ffffffffff600160801b90910481169042168114156124475750506001810154600160801b90046001600160801b0316610873565b6001830154600284015460009161247e916001600160801b03600160801b9283900481169261247892041685613553565b90613560565b949350505050565b603a546040805180820190915260028152610d8d60f21b60208201529060ff16156118cc5760405162461bcd60e51b8152600401610b339190614f72565b603454604080516385c858b160e01b8152905133926001600160a01b0316916385c858b1916004808301926020929190829003018186803b15801561250857600080fd5b505afa15801561251c573d6000803e3d6000fd5b505050506040513d601f19601f8201168201806040525081019061254091906142f7565b6001600160a01b03161460405180604001604052806002815260200161323760f01b815250906118cc5760405162461bcd60e51b8152600401610b339190614f72565b6000806000806000612593614023565b8c516001600160a01b03166102a082015260208d015160ff166102c08201526125bb8b61361b565b156125d9576000806000806000199550955095509550955050612bcd565b6102c081015160ff166101008201525b888161010001511015612b2c57610100810151612607908c90613620565b61261057612b0d565b896000826101000151815260200190815260200160002060009054906101000a90046001600160a01b03168161020001906001600160a01b031690816001600160a01b03168152505060008c60008361020001516001600160a01b03166001600160a01b031681526020019081526020016000206000836102c0015160ff1660ff1681526020019081526020016000209050886001600160a01b0316631a9dffb38960008561020001516001600160a01b03166001600160a01b0316815260200190815260200160002060000160039054906101000a900460ff166040518263ffffffff1660e01b81526004016127079190614dd0565b60206040518083038186803b15801561271f57600080fd5b505afa158015612733573d6000803e3d6000fd5b505050506040513d601f19601f8201168201806040525081019061275791906142f7565b6001600160a01b03166102808301526102c08201516007820154600160a81b900460ff90811691161461279c5760405162461bcd60e51b8152600401610b33906150e2565b6127a58161367b565b5060a0860181905260e08601929092525060c08401919091526127c990600a6156f9565b8260400181815250508161028001516001600160a01b031663b3596f078361020001516040518263ffffffff1660e01b81526004016128089190614c12565b60206040518083038186803b15801561282057600080fd5b505afa158015612834573d6000803e3d6000fd5b505050506040513d601f19601f820116820180604052508101906128589190614927565b602083015260e08201511580159061287c575061010082015161287c908d906136a6565b156129a0576004808201546102a08401516040516370a0823160e01b81526001600160a01b03909216926370a08231926128b7929101614c12565b60206040518083038186803b1580156128cf57600080fd5b505afa1580156128e3573d6000803e3d6000fd5b505050506040513d601f19601f820116820180604052508101906129079190614927565b606083018190526040830151602084015161292c92612926919061370c565b90613718565b6102608301819052610140830151612943916131cf565b61014083015260c082015161026083015161296e91612962919061370c565b610180840151906131cf565b61018083015260e08201516102608301516129999161298d919061370c565b6101a0840151906131cf565b6101a08301525b6101008201516129b1908d90613724565b15612b0b5760058101546102a08301516040516370a0823160e01b81526001600160a01b03909216916370a08231916129ec91600401614c12565b60206040518083038186803b158015612a0457600080fd5b505afa158015612a18573d6000803e3d6000fd5b505050506040513d601f19601f82011682018060405250810190612a3c9190614927565b608083015260068101546102a08301516040516370a0823160e01b8152612ad5926001600160a01b0316916370a0823191612a7a9190600401614c12565b60206040518083038186803b158015612a9257600080fd5b505afa158015612aa6573d6000803e3d6000fd5b505050506040513d601f19601f82011682018060405250810190612aca9190614927565b6080840151906131cf565b6080830181905260408301516020840151612b0492612af892916129269161370c565b610160840151906131cf565b6101608301525b505b600360ff168161010001818151612b24919061567b565b9052506125e9565b600081610140015111612b40576000612b55565b610140810151610180820151612b5591613718565b610180820152610140810151612b6c576000612b81565b6101408101516101a0820151612b8191613718565b6101a08201819052610140820151610160830151612b9e9261376f565b61012082018190526101408201516101608301516101808401516101a090940151919850965091945090925090505b97509750975097509792505050565b600080612be98584613793565b905083811015612bfd576000915050612c0b565b612c0781856131db565b9150505b9392505050565b60058101546040516370a0823160e01b815260009182916001600160a01b03909116906370a0823190612c49908790600401614c12565b60206040518083038186803b158015612c6157600080fd5b505afa158015612c75573d6000803e3d6000fd5b505050506040513d601f19601f82011682018060405250810190612c999190614927565b60068401546040516370a0823160e01b81526001600160a01b03909116906370a0823190612ccb908890600401614c12565b60206040518083038186803b158015612ce357600080fd5b505afa158015612cf7573d6000803e3d6000fd5b505050506040513d601f19601f82011682018060405250810190612d1b9190614927565b915091505b9250929050565b60068101546040805163b1bf962d60e01b815290516000926001600160a01b03169163b1bf962d916004808301926020929190829003018186803b158015612d6e57600080fd5b505afa158015612d82573d6000803e3d6000fd5b505050506040513d601f19601f82011682018060405250810190612da69190614927565b60018301546003840154919250600160801b8082046001600160801b03908116939216910464ffffffffff16600080612de2878786888761381c565b91509150612df4878787858588613979565b50505050505050565b612e056140f8565b60058701546001600160a01b031680825260408051637b98f4df60e11b8152815163f731e9be92600480840193919291829003018186803b158015612e4957600080fd5b505afa158015612e5d573d6000803e3d6000fd5b505050506040513d601f19601f82011682018060405250810190612e8191906149ee565b60c083015260408083019190915260018801546006890154825163b1bf962d60e01b81529251612f2693600160801b9093046001600160801b0316926001600160a01b039092169163b1bf962d916004808301926020929190829003018186803b158015612eee57600080fd5b505afa158015612f02573d6000803e3d6000fd5b505050506040513d601f19601f820116820180604052508101906124789190614927565b60e0820152612f33614146565b6040518060a00160405280876001600160a01b03168152602001866001600160a01b03168152602001858152602001848152602001612f748a600001613b3c565b81525090508760070160009054906101000a90046001600160a01b03166001600160a01b03166374c2e91a82600001518984602001518560400151866060015188604001518960e001518a60c001518a608001516040518a63ffffffff1660e01b8152600401612fec99989796959493929190614cb8565b60606040518083038186803b15801561300457600080fd5b505afa158015613018573d6000803e3d6000fd5b505050506040513d601f19601f8201168201806040525081019061303c9190614a11565b60a0850152608084015260608301819052604080518082019091526002815261353360f01b6020820152906001600160801b03101561308e5760405162461bcd60e51b8152600401610b339190614f72565b506080820151604080518082019091526002815261353560f01b6020820152906001600160801b0310156130d55760405162461bcd60e51b8152600401610b339190614f72565b5060a08201516040805180820190915260028152610d4d60f21b6020820152906001600160801b03101561311c5760405162461bcd60e51b8152600401610b339190614f72565b506060820151600289018054608085015160038c0180546001600160801b03199081166001600160801b038085169190911790925560a08801519316818616178116600160801b84831681029190911790945560018d01546040516001600160a01b038d16967f804c9b842b2748a22bb64b345453a3de7ca54a6ca45ce00d415894979e22897a966131bd9691959491938083169391900490911690615616565b60405180910390a25050505050505050565b60006104df828461567b565b60006104df82846157e6565b604080518082019091526002815261373760f01b6020820152608083106132215760405162461bcd60e51b8152600401610b339190614f72565b5061322d8260026157c7565b8161323957600061323c565b60015b60ff16901b61324c8360026157c7565b8454600190911b1916179092555050565b611493846323b872dd60e01b85858560405160240161327e93929190614c26565b60408051601f198184030181529190526020810180516001600160e01b03166001600160e01b031990931692909217909152613b47565b600381015460009064ffffffffff600160801b90910481169042168114156132ec57505060018101546001600160801b0316610873565b6001830154600284015460009161247e916001600160801b0391821691612478911685613c2b565b600080826001600160a01b0316803b806020016040519081016040528181526000908060200190933c511192915050565b603954603d54604080518082019091526002815261363560f01b60208201529082106133845760405162461bcd60e51b8152600401610b339190614f72565b506001600160a01b038316600090815260356020908152604080832060ff8087168552925290912060070154600160a01b900416151580611493576001600160a01b038416600081815260356020908152604080832060ff8881168552908352818420600701805460ff60a01b1916600160a01b92891692830217905583526038909152902080546001600160a01b03191690911790558161342781600161567b565b6039555050505050565b604080518082019091526002815261373760f01b60208201526080831061346b5760405162461bcd60e51b8152600401610b339190614f72565b506134778260026157c7565b61348290600161567b565b8161348e576000613491565b60015b60ff16901b6134a18360026157c7565b61324c90600161567b565b60006134f260405180604001604052808b6001600160a01b031681526020018a60ff16815250888860405180602001604052908160008201548152505088888888612583565b945050505050670de0b6b3a7640000811015604051806040016040528060018152602001601b60f91b8152509061353c5760405162461bcd60e51b8152600401610b339190614f72565b50505050505050505050565b600290565b303b1590565b60006104df838342613c6b565b600082158061356d575081155b1561357a575060006104e2565b8161359260026b033b2e3c9fd0803ce8000000615693565b61359e906000196157e6565b6135a89190615693565b83111560405180604001604052806002815260200161068760f31b815250906135e45760405162461bcd60e51b8152600401610b339190614f72565b506b033b2e3c9fd0803ce80000006135fd600282615693565b61360784866157c7565b613611919061567b565b6104df9190615693565b511590565b60006080821060405180604001604052806002815260200161373760f01b8152509061365f5760405162461bcd60e51b8152600401610b339190614f72565b5061366b8260026157c7565b925190921c600316151592915050565b5461ffff80821692601083901c821692602081901c831692603082901c60ff169260409290921c1690565b60006080821060405180604001604052806002815260200161373760f01b815250906136e55760405162461bcd60e51b8152600401610b339190614f72565b506136f18260026157c7565b6136fc90600161567b565b925190921c600116151592915050565b60006104df82846157c7565b60006104df8284615693565b60006080821060405180604001604052806002815260200161373760f01b815250906137635760405162461bcd60e51b8152600401610b339190614f72565b506136fc8260026157c7565b60008261377f5750600019612c0b565b61247e8361378d8685613793565b90613d60565b60008215806137a0575081155b156137ad575060006104e2565b816137bb6002612710615693565b6137c7906000196157e6565b6137d19190615693565b83111560405180604001604052806002815260200161068760f31b8152509061380d5760405162461bcd60e51b8152600401610b339190614f72565b506127106135fd600282615693565b600285015460009081906001600160801b03168585821561394a5760006138438488613c2b565b905061384f818a613560565b604080518082019091526002815261353160f01b60208201529093506001600160801b038411156138935760405162461bcd60e51b8152600401610b339190614f72565b5060018b0180546001600160801b0319166001600160801b03851617905589156139485760028b01546000906138d990600160801b90046001600160801b031689613553565b90506138e5818a613560565b6040805180820190915260028152611a9960f11b60208201529093506001600160801b038411156139295760405162461bcd60e51b8152600401610b339190614f72565b505060018b0180546001600160801b03808516600160801b0291161790555b505b600399909901805464ffffffffff60801b1916600160801b4264ffffffffff1602179055989650505050505050565b613981614187565b61398a87613b3c565b610120820181905261399c5750611261565b8660050160009054906101000a90046001600160a01b03166001600160a01b031663797743386040518163ffffffff1660e01b815260040160806040518083038186803b1580156139ec57600080fd5b505afa158015613a00573d6000803e3d6000fd5b505050506040513d601f19601f82011682018060405250810190613a249190614a3e565b64ffffffffff1661014085015260a084015282526020820152613a478686613560565b6080820152613a568684613560565b606082015260a0810151610140820151613a78919064ffffffffff8516613c6b565b60c082018190526020820151613a8d91613560565b60408201819052608082015182516060840151613ab2939261102f92909183916131cf565b60e08201819052610120820151613ac99190613793565b610100820181905215612df457600480880154610100830151604051637df5bd3b60e01b81526001600160a01b0390921692637df5bd3b92613b0e9291899101615608565b600060405180830381600087803b158015613b2857600080fd5b505af11580156123ed573d6000803e3d6000fd5b5460401c61ffff1690565b613b59826001600160a01b0316613314565b613b755760405162461bcd60e51b8152600401610b339061517d565b600080836001600160a01b031683604051613b909190614bf6565b6000604051808303816000865af19150503d8060008114613bcd576040519150601f19603f3d011682016040523d82523d6000602084013e613bd2565b606091505b509150915081613bf45760405162461bcd60e51b8152600401610b3390614fcd565b8051156114935780806020019051810190613c0f91906148af565b6114935760405162461bcd60e51b8152600401610b3390615133565b600080613c3f4264ffffffffff85166131db565b905061247e613c4c613e2e565b6301e13380613c5b878561370c565b613c659190615693565b906131cf565b600080613c7f8364ffffffffff86166131db565b905080613c9657613c8e613e2e565b915050612c0b565b6000613ca36001836157e6565b9050600060028311613cb6576000613cc1565b613cc16002846157e6565b90506000613cd36301e1338089615693565b90506000613ce18280613560565b90506000613cef8284613560565b905060006002613d0984613d038a8a61370c565b9061370c565b613d139190615693565b905060006006613d2984613d0389818d8d61370c565b613d339190615693565b9050613d5081613c658481613d488a8e61370c565b613c65613e2e565b9c9b505050505050505050505050565b604080518082019091526002815261035360f41b602082015260009082613d9a5760405162461bcd60e51b8152600401610b339190614f72565b506000613da8600284615693565b9050670de0b6b3a7640000613dbf826000196157e6565b613dc99190615693565b84111560405180604001604052806002815260200161068760f31b81525090613e055760405162461bcd60e51b8152600401610b339190614f72565b508281613e1a670de0b6b3a7640000876157c7565b613e24919061567b565b61247e9190615693565b6b033b2e3c9fd0803ce800000090565b60405180610160016040528060006001600160a01b0316815260200160608152602001606081526020016060815260200160006001600160a01b0316815260200160608152602001600061ffff1681526020016000815260200160006001600160a01b0316815260200160008152602001600081525090565b604080516080810182526000808252602082018190529181018290529060608201905b905290565b604051806101a00160405280613ef3613f52565b815260006020820181905260408201819052606082018190526080820181905260a0820181905260c0820181905260e0820181905261010082018190526101208201819052610140820181905261016082018190526101809091015290565b6040518060200160405280600081525090565b60405180606001604052806000815260200160008152602001600081525090565b6040805161018081018252600080825260208201819052918101829052606081018290526080810182905260a0810182905260c0810182905260e08101829052610100810182905261012081018290526101408101919091526101608101613eda613f65565b6040805160c08101825260008082526020820181905291810182905260608101829052608081019190915260a08101613eda613f65565b604051806102e00160405280600060ff168152602001600081526020016000815260200160008152602001600081526020016000815260200160008152602001600081526020016000815260200160008152602001600081526020016000815260200160008152602001600081526020016000815260200160001515815260200160006001600160a01b031681526020016000151581526020016000151581526020016000815260200160006001600160a01b0316815260200160006001600160a01b03168152602001600060ff1681525090565b60405180610100016040528060006001600160a01b03168152602001600081526020016000815260200160008152602001600081526020016000815260200160008152602001600081525090565b6040518060a0016040528060006001600160a01b0316815260200160006001600160a01b031681526020016000815260200160008152602001600081525090565b60405180610160016040528060008152602001600081526020016000815260200160008152602001600081526020016000815260200160008152602001600081526020016000815260200160008152602001600064ffffffffff1681525090565b803561087381615886565b60008083601f840112614204578081fd5b50813567ffffffffffffffff81111561421b578182fd5b602083019150836020604083028501011115612d2057600080fd5b60008083601f840112614247578182fd5b50813567ffffffffffffffff81111561425e578182fd5b6020830191508360208083028501011115612d2057600080fd5b60008083601f840112614289578182fd5b50813567ffffffffffffffff8111156142a0578182fd5b602083019150836020828501011115612d2057600080fd5b803561ffff8116811461087357600080fd5b803560ff8116811461087357600080fd5b6000602082840312156142ec578081fd5b8135612c0b81615886565b600060208284031215614308578081fd5b8151612c0b81615886565b60008060008060008060c0878903121561432b578182fd5b863561433681615886565b9550602087013561434681615886565b9450604087013561435681615886565b9350606087013561436681615886565b9250608087013561437681615886565b915061438460a088016142ca565b90509295509295509295565b60008060008060008060c087890312156143a8578182fd5b86356143b381615886565b955060208701356143c381615886565b94506143d1604088016142ca565b935060608701356143e181615886565b92506080870135915060a08701356143f88161589b565b809150509295509295509295565b600080600080600080600080600080600060e08c8e031215614426578485fd5b61442f8c6141e8565b9a5067ffffffffffffffff8060208e0135111561444a578586fd5b61445a8e60208f01358f016141f3565b909b50995060408d013581101561446f578586fd5b61447f8e60408f01358f01614236565b909950975060608d0135811015614494578586fd5b6144a48e60608f01358f01614236565b90975095506144b560808e016141e8565b94508060a08e013511156144c7578384fd5b506144d88d60a08e01358e01614278565b90935091506144e960c08d016142b8565b90509295989b509295989b9093969950565b6000806040838503121561450d578182fd5b823561451881615886565b9150614526602084016142ca565b90509250929050565b600080600060608486031215614543578081fd5b833561454e81615886565b925061455c602085016142ca565b9150604084013561456c81615886565b809150509250925092565b600080600080600080600060e0888a031215614591578081fd5b873561459c81615886565b96506145aa602089016142ca565b955060408801356145ba81615886565b945060608801356145ca81615886565b9699959850939660808101359560a0820135955060c0909101359350915050565b6000806000606084860312156145ff578081fd5b833561460a81615886565b9250614618602085016142ca565b9150604084013561456c8161589b565b600080600080600060a0868803121561463f578283fd5b853561464a81615886565b9450614658602087016142ca565b935060408601356146688161589b565b925060608601356146788161589b565b9150614686608087016142ca565b90509295509295909350565b60008060008060008060c087890312156146aa578384fd5b86356146b581615886565b95506146c3602088016142ca565b945060408701356146d38161589b565b93506060870135925060808701356146ea81615886565b915061438460a088016142b8565b60008060006060848603121561470c578081fd5b833561471781615886565b9250614725602085016142ca565b9150604084013590509250925092565b6000806000806080858703121561474a578182fd5b843561475581615886565b9350614763602086016142ca565b925060408501359150606085013561477a81615886565b939692955090935050565b600080600080600060a0868803121561479c578283fd5b85356147a781615886565b94506147b5602087016142ca565b9350604086013592506060860135915060808601356147d381615886565b809150509295509295909350565b60008060008060008060c087890312156147f9578384fd5b863561480481615886565b9550614812602088016142ca565b9450604087013593506060870135925061482e608088016142b8565b915060a08701356143f881615886565b600080600080600060a08688031215614855578283fd5b853561486081615886565b945061486e602087016142ca565b935061487c604087016142ca565b92506060860135915060808601356147d38161589b565b6000602082840312156148a4578081fd5b8135612c0b8161589b565b6000602082840312156148c0578081fd5b8151612c0b8161589b565b6000604082840312156148dc578081fd5b6040516040810181811067ffffffffffffffff821117156148ff576148ff615870565b60405261490b836142ca565b8152602083013561491b81615886565b60208201529392505050565b600060208284031215614938578081fd5b5051919050565b60008060408385031215614951578182fd5b82519150602083015167ffffffffffffffff8082111561496f578283fd5b818501915085601f830112614982578283fd5b81518181111561499457614994615870565b604051601f8201601f1916810160200183811182821017156149b8576149b8615870565b6040528181528382016020018810156149cf578485fd5b6149e08260208301602087016157fd565b809450505050509250929050565b60008060408385031215614a00578182fd5b505080516020909101519092909150565b600080600060608486031215614a25578081fd5b8351925060208401519150604084015190509250925092565b60008060008060808587031215614a53578182fd5b845193506020850151925060408501519150606085015164ffffffffff8116811461477a578182fd5b600060208284031215614a8d578081fd5b6104df826142ca565b60008060008060808587031215614aab578182fd5b614ab4856142ca565b966020860135965060408601359560600135945092505050565b6001600160a01b03169052565b6000815180845260208085019450808401835b83811015614b21578151805160ff1688528301516001600160a01b03168388015260409096019590820190600101614aee565b509495945050505050565b6000815180845260208085019450808401835b83811015614b2157815187529582019590820190600101614b3f565b15159052565b60008151808452614b798160208601602086016157fd565b601f01601f19169290920160200192915050565b60038110614b9d57614b9d61585a565b9052565b60028110614b9d57614b9d61585a565b519052565b8051825260208082015190830152604090810151910152565b6001600160801b03169052565b61ffff169052565b64ffffffffff169052565b60ff169052565b60008251614c088184602087016157fd565b9190910192915050565b6001600160a01b0391909116815260200190565b6001600160a01b039384168152919092166020820152604081019190915260600190565b6001600160a01b03948516815292909316602083015260408201526001600160801b03909116606082015260800190565b6001600160a01b039687168152948616602086015260ff93909316604085015293166060830152608082019290925290151560a082015260c00190565b6001600160a01b038a81168252610160820190614cd8602084018c614bb6565b98909816608082015260a081019690965260c086019490945260e08501929092526101008401526101208301526101409091015292915050565b6001600160a01b03929092168252602082015260400190565b6001600160a01b0393909316835260208301919091526001600160801b0316604082015260600190565b6020808252825182820181905260009190848201906040850190845b81811015614d965783516001600160a01b031683529284019291840191600101614d71565b50909695505050505050565b901515815260200190565b931515845260ff9283166020850152911660408301521515606082015260800190565b602081016104e28284614ba1565b8681526020810186905260408101859052606081018490526001600160a01b03831660808201528151610260820190614e1b9060a0840190614ace565b6020830151614e2d60c0840182614bef565b506040830151614e4060e0840182614ace565b506060830151610100614e5581850183614ace565b60808501519150610120828186015260a08601519250610140838187015260c08701519350610160614e8981880186614ace565b60e08801519450614e9e610180880186614bdc565b838801519450614eb26101a0880186614b5b565b918701516101c08701528601516101e08601528501519150614eda9050610200840182614bb6565b50979650505050505050565b60006101a08201905087825286602083015285604083015284516060830152602085015160018060a01b03808216608085015260ff60408801511660a0850152606087015160c08501528060808801511660e0850152505060a0850151614f51610100840182614bb6565b50614f60610160830185614ace565b82610180830152979650505050505050565b6000602082526104df6020830184614b61565b60208082526028908201527f63616e6e6f7420626f72726f772061737365742074686174206973206e6f74206040820152676c656e6461626c6560c01b606082015260800190565b6020808252818101527f5361666545524332303a206c6f772d6c6576656c2063616c6c206661696c6564604082015260600190565b6020808252602c908201527f6e6f6e6c656e6461626c6520617373657473206d75737420626520736574206160408201526b1cc818dbdb1b185d195c985b60a21b606082015260800190565b6020808252602e908201527f436f6e747261637420696e7374616e63652068617320616c726561647920626560408201526d195b881a5b9a5d1a585b1a5e995960921b606082015260800190565b60208082526026908201527f63616e6e6f7420737761702061737365742074686174206973206e6f74206c656040820152656e6461626c6560d01b606082015260800190565b60208082526031908201527f63616c63756c617465557365724163636f756e7444617461207472616e636865604082015270020646f6573206e6f74206c696e6520757607c1b606082015260800190565b6020808252602a908201527f5361666545524332303a204552433230206f7065726174696f6e20646964206e6040820152691bdd081cdd58d8d9595960b21b606082015260800190565b6020808252601f908201527f5361666545524332303a2063616c6c20746f206e6f6e2d636f6e747261637400604082015260600190565b600060808201905060ff835116825260208301511515602083015260408301511515604083015260608301516151ed6060840182614ba1565b5092915050565b9051815260200190565b60006101a082019050615212828451614bb1565b60208301516152246020840182614bcf565b5060408301516152376040840182614bcf565b50606083015161524a6060840182614bcf565b50608083015161525d6080840182614bcf565b5060a083015161527060a0840182614bcf565b5060c083015161528360c0840182614be4565b5060e083015161529660e0840182614ace565b50610100808401516152aa82850182614ace565b5050610120808401516152bf82850182614ace565b5050610140808401516152d482850182614ace565b5050610160808401516152e982850182614bef565b5050610180808401516152fe82850182614bef565b505092915050565b9586526001600160a01b03948516602087015292841660408601529083166060850152909116608083015260ff1660a082015260c00190565b9889526001600160a01b0397881660208a015295151560408901526060880194909452608087019290925260a086015260c085015290911660e08301526101008201526101200190565b9485526001600160a01b03938416602086015291831660408501528216606084015216608082015260a00190565b60006101c08201905088825260018060a01b03885116602083015260ff602089015116604083015260ff60408901511660608301526060880151151560808301526080880151151560a083015260a088015161541660c0840182614bb6565b50615425610120830188614b5b565b8561014083015261543a610160830186614ace565b8361018083015261544f6101a0830184614bdc565b98975050505050505050565b600060a0820190508682528560208301528460408301528360608301526154856080830184614b8d565b9695505050505050565b8681526020810186905260c081016154aa6040830187614b8d565b6001600160a01b03949094166060820152608081019290925260a0909101529392505050565b606081016104e28284614bb6565b600060e082526154f260e083018a51614ace565b60208901516101608061010085015261550f610240850183614adb565b915060408b015160df1961012081878603018188015261552f8584614b2c565b945060608e0151925061014082888703018189015261554e8685614b2c565b955060808f0151935061556385890185614ace565b60a08f01519450828887030161018089015261557f8686614b61565b955060c08f015194506155966101a0890186614bdc565b60e08f01516101c08901526101008f015194506155b76101e0890186614ace565b818f0151610200890152808f01516102208901525050505050809150508760208301528660408301528560608301528460808301528360a083015261544f60c0830184614ace565b90815260200190565b918252602082015260400190565b948552602085019390935260408401919091526001600160801b03908116606084015216608082015260a00190565b958652602086019490945260408501929092526060840152608083015260a082015260c00190565b60ff91909116815260200190565b6000821982111561568e5761568e615844565b500190565b6000826156ae57634e487b7160e01b81526012600452602481fd5b500490565b80825b60018086116156c557506156f0565b8187048211156156d7576156d7615844565b808616156156e457918102915b9490941c9380026156b6565b94509492505050565b60006104df600019848460008261571257506001612c0b565b8161571f57506000612c0b565b8160018114615735576002811461573f5761576c565b6001915050612c0b565b60ff84111561575057615750615844565b6001841b91508482111561576657615766615844565b50612c0b565b5060208310610133831016604e8410600b841016171561579f575081810a8381111561579a5761579a615844565b612c0b565b6157ac84848460016156b3565b8086048211156157be576157be615844565b02949350505050565b60008160001904831182151516156157e1576157e1615844565b500290565b6000828210156157f8576157f8615844565b500390565b60005b83811015615818578181015183820152602001615800565b838111156114935750506000910152565b600060001982141561583d5761583d615844565b5060010190565b634e487b7160e01b600052601160045260246000fd5b634e487b7160e01b600052602160045260246000fd5b634e487b7160e01b600052604160045260246000fd5b6001600160a01b03811681146118cc57600080fd5b80151581146118cc57600080fdfea26469706673582212206d36745ca00a7ff31602e7e7a3f05a56737bba384fd006bf3d1690a1d1a4775064736f6c63430008000033",
  "linkReferences": {
    "contracts/protocol/libraries/logic/DepositWithdrawLogic.sol": {
      "DepositWithdrawLogic": [
        {
          "length": 20,
          "start": 1838
        },
        {
          "length": 20,
          "start": 3223
        },
        {
          "length": 20,
          "start": 7780
        },
        {
          "length": 20,
          "start": 9140
        }
      ]
    },
    "contracts/protocol/libraries/logic/ReserveLogic.sol": {
      "ReserveLogic": [
        {
          "length": 20,
          "start": 4635
        }
      ]
    },
    "contracts/protocol/libraries/logic/ValidationLogic.sol": {
      "ValidationLogic": [
        {
          "length": 20,
          "start": 3628
        },
        {
          "length": 20,
          "start": 4891
        },
        {
          "length": 20,
          "start": 5029
        },
        {
          "length": 20,
          "start": 5774
        },
        {
          "length": 20,
          "start": 8081
        }
      ]
    }
  },
  "deployedLinkReferences": {
    "contracts/protocol/libraries/logic/DepositWithdrawLogic.sol": {
      "DepositWithdrawLogic": [
        {
          "length": 20,
          "start": 1801
        },
        {
          "length": 20,
          "start": 3186
        },
        {
          "length": 20,
          "start": 7743
        },
        {
          "length": 20,
          "start": 9103
        }
      ]
    },
    "contracts/protocol/libraries/logic/ReserveLogic.sol": {
      "ReserveLogic": [
        {
          "length": 20,
          "start": 4598
        }
      ]
    },
    "contracts/protocol/libraries/logic/ValidationLogic.sol": {
      "ValidationLogic": [
        {
          "length": 20,
          "start": 3591
        },
        {
          "length": 20,
          "start": 4854
        },
        {
          "length": 20,
          "start": 4992
        },
        {
          "length": 20,
          "start": 5737
        },
        {
          "length": 20,
          "start": 8044
        }
      ]
    }
  }
}