{
  "_format": "hh-sol-artifact-1",
  "contractName": "LendingPool",
  "sourceName": "contracts/protocol/lendingpool/LendingPool.sol",
  "abi": [
    {
      "anonymous": false,
      "inputs": [
        {
          "indexed": true,
          "internalType": "address",
          "name": "reserve",
          "type": "address"
        },
        {
          "indexed": false,
          "internalType": "uint64",
          "name": "trancheId",
          "type": "uint64"
        },
        {
          "indexed": false,
          "internalType": "address",
          "name": "user",
          "type": "address"
        },
        {
          "indexed": true,
          "internalType": "address",
          "name": "onBehalfOf",
          "type": "address"
        },
        {
          "indexed": false,
          "internalType": "uint256",
          "name": "amount",
          "type": "uint256"
        },
        {
          "indexed": true,
          "internalType": "uint16",
          "name": "referral",
          "type": "uint16"
        }
      ],
      "name": "Deposit",
      "type": "event"
    },
    {
      "anonymous": false,
      "inputs": [
        {
          "indexed": true,
          "internalType": "address",
          "name": "target",
          "type": "address"
        },
        {
          "indexed": false,
          "internalType": "uint64",
          "name": "trancheId",
          "type": "uint64"
        },
        {
          "indexed": true,
          "internalType": "address",
          "name": "initiator",
          "type": "address"
        },
        {
          "indexed": true,
          "internalType": "address",
          "name": "asset",
          "type": "address"
        },
        {
          "indexed": false,
          "internalType": "uint256",
          "name": "amount",
          "type": "uint256"
        },
        {
          "indexed": false,
          "internalType": "uint256",
          "name": "premium",
          "type": "uint256"
        },
        {
          "indexed": false,
          "internalType": "uint16",
          "name": "referralCode",
          "type": "uint16"
        }
      ],
      "name": "FlashLoan",
      "type": "event"
    },
    {
      "anonymous": false,
      "inputs": [
        {
          "indexed": true,
          "internalType": "address",
          "name": "collateralAsset",
          "type": "address"
        },
        {
          "indexed": true,
          "internalType": "address",
          "name": "debtAsset",
          "type": "address"
        },
        {
          "indexed": true,
          "internalType": "address",
          "name": "user",
          "type": "address"
        },
        {
          "indexed": false,
          "internalType": "uint256",
          "name": "debtToCover",
          "type": "uint256"
        },
        {
          "indexed": false,
          "internalType": "uint256",
          "name": "liquidatedCollateralAmount",
          "type": "uint256"
        },
        {
          "indexed": false,
          "internalType": "address",
          "name": "liquidator",
          "type": "address"
        },
        {
          "indexed": false,
          "internalType": "bool",
          "name": "receiveAToken",
          "type": "bool"
        }
      ],
      "name": "LiquidationCall",
      "type": "event"
    },
    {
      "anonymous": false,
      "inputs": [],
      "name": "Paused",
      "type": "event"
    },
    {
      "anonymous": false,
      "inputs": [
        {
          "indexed": true,
          "internalType": "address",
          "name": "reserve",
          "type": "address"
        },
        {
          "indexed": true,
          "internalType": "address",
          "name": "user",
          "type": "address"
        }
      ],
      "name": "RebalanceStableBorrowRate",
      "type": "event"
    },
    {
      "anonymous": false,
      "inputs": [
        {
          "indexed": true,
          "internalType": "address",
          "name": "reserve",
          "type": "address"
        },
        {
          "indexed": true,
          "internalType": "address",
          "name": "user",
          "type": "address"
        },
        {
          "indexed": true,
          "internalType": "address",
          "name": "repayer",
          "type": "address"
        },
        {
          "indexed": false,
          "internalType": "uint256",
          "name": "amount",
          "type": "uint256"
        }
      ],
      "name": "Repay",
      "type": "event"
    },
    {
      "anonymous": false,
      "inputs": [
        {
          "indexed": true,
          "internalType": "address",
          "name": "reserve",
          "type": "address"
        },
        {
          "indexed": false,
          "internalType": "uint256",
          "name": "liquidityRate",
          "type": "uint256"
        },
        {
          "indexed": false,
          "internalType": "uint256",
          "name": "stableBorrowRate",
          "type": "uint256"
        },
        {
          "indexed": false,
          "internalType": "uint256",
          "name": "variableBorrowRate",
          "type": "uint256"
        },
        {
          "indexed": false,
          "internalType": "uint256",
          "name": "liquidityIndex",
          "type": "uint256"
        },
        {
          "indexed": false,
          "internalType": "uint256",
          "name": "variableBorrowIndex",
          "type": "uint256"
        }
      ],
      "name": "ReserveDataUpdated",
      "type": "event"
    },
    {
      "anonymous": false,
      "inputs": [
        {
          "indexed": true,
          "internalType": "address",
          "name": "reserve",
          "type": "address"
        },
        {
          "indexed": true,
          "internalType": "address",
          "name": "user",
          "type": "address"
        }
      ],
      "name": "ReserveUsedAsCollateralDisabled",
      "type": "event"
    },
    {
      "anonymous": false,
      "inputs": [
        {
          "indexed": true,
          "internalType": "address",
          "name": "reserve",
          "type": "address"
        },
        {
          "indexed": true,
          "internalType": "address",
          "name": "user",
          "type": "address"
        }
      ],
      "name": "ReserveUsedAsCollateralEnabled",
      "type": "event"
    },
    {
      "anonymous": false,
      "inputs": [
        {
          "indexed": true,
          "internalType": "address",
          "name": "reserve",
          "type": "address"
        },
        {
          "indexed": true,
          "internalType": "address",
          "name": "user",
          "type": "address"
        },
        {
          "indexed": false,
          "internalType": "uint256",
          "name": "rateMode",
          "type": "uint256"
        }
      ],
      "name": "Swap",
      "type": "event"
    },
    {
      "anonymous": false,
      "inputs": [],
      "name": "Unpaused",
      "type": "event"
    },
    {
      "anonymous": false,
      "inputs": [
        {
          "indexed": true,
          "internalType": "address",
          "name": "reserve",
          "type": "address"
        },
        {
          "indexed": true,
          "internalType": "address",
          "name": "user",
          "type": "address"
        },
        {
          "indexed": true,
          "internalType": "address",
          "name": "to",
          "type": "address"
        },
        {
          "indexed": false,
          "internalType": "uint256",
          "name": "amount",
          "type": "uint256"
        }
      ],
      "name": "Withdraw",
      "type": "event"
    },
    {
      "inputs": [],
      "name": "FLASHLOAN_PREMIUM_TOTAL",
      "outputs": [
        {
          "internalType": "uint256",
          "name": "",
          "type": "uint256"
        }
      ],
      "stateMutability": "view",
      "type": "function"
    },
    {
      "inputs": [],
      "name": "LENDINGPOOL_REVISION",
      "outputs": [
        {
          "internalType": "uint256",
          "name": "",
          "type": "uint256"
        }
      ],
      "stateMutability": "view",
      "type": "function"
    },
    {
      "inputs": [
        {
          "internalType": "address",
          "name": "asset",
          "type": "address"
        },
        {
          "internalType": "uint64",
          "name": "trancheId",
          "type": "uint64"
        },
        {
          "internalType": "uint256",
          "name": "amount",
          "type": "uint256"
        },
        {
          "internalType": "uint256",
          "name": "interestRateMode",
          "type": "uint256"
        },
        {
          "internalType": "uint16",
          "name": "referralCode",
          "type": "uint16"
        },
        {
          "internalType": "address",
          "name": "onBehalfOf",
          "type": "address"
        }
      ],
      "name": "borrow",
      "outputs": [],
      "stateMutability": "nonpayable",
      "type": "function"
    },
    {
      "inputs": [
        {
          "internalType": "address",
          "name": "asset",
          "type": "address"
        },
        {
          "internalType": "uint64",
          "name": "trancheId",
          "type": "uint64"
        },
        {
          "internalType": "uint256",
          "name": "amount",
          "type": "uint256"
        },
        {
          "internalType": "address",
          "name": "onBehalfOf",
          "type": "address"
        },
        {
          "internalType": "uint16",
          "name": "referralCode",
          "type": "uint16"
        }
      ],
      "name": "deposit",
      "outputs": [],
      "stateMutability": "nonpayable",
      "type": "function"
    },
    {
      "inputs": [
        {
          "internalType": "address",
          "name": "asset",
          "type": "address"
        },
        {
          "internalType": "uint64",
          "name": "trancheId",
          "type": "uint64"
        },
        {
          "internalType": "address",
          "name": "from",
          "type": "address"
        },
        {
          "internalType": "address",
          "name": "to",
          "type": "address"
        },
        {
          "internalType": "uint256",
          "name": "amount",
          "type": "uint256"
        },
        {
          "internalType": "uint256",
          "name": "balanceFromBefore",
          "type": "uint256"
        },
        {
          "internalType": "uint256",
          "name": "balanceToBefore",
          "type": "uint256"
        }
      ],
      "name": "finalizeTransfer",
      "outputs": [],
      "stateMutability": "nonpayable",
      "type": "function"
    },
    {
      "inputs": [
        {
          "internalType": "address",
          "name": "receiverAddress",
          "type": "address"
        },
        {
          "internalType": "address[]",
          "name": "assets",
          "type": "address[]"
        },
        {
          "internalType": "uint64",
          "name": "trancheId",
          "type": "uint64"
        },
        {
          "internalType": "uint256[]",
          "name": "amounts",
          "type": "uint256[]"
        },
        {
          "internalType": "uint256[]",
          "name": "modes",
          "type": "uint256[]"
        },
        {
          "internalType": "address",
          "name": "onBehalfOf",
          "type": "address"
        },
        {
          "internalType": "bytes",
          "name": "params",
          "type": "bytes"
        },
        {
          "internalType": "uint16",
          "name": "referralCode",
          "type": "uint16"
        }
      ],
      "name": "flashLoan",
      "outputs": [],
      "stateMutability": "nonpayable",
      "type": "function"
    },
    {
      "inputs": [],
      "name": "getAddressesProvider",
      "outputs": [
        {
          "internalType": "contract ILendingPoolAddressesProvider",
          "name": "",
          "type": "address"
        }
      ],
      "stateMutability": "view",
      "type": "function"
    },
    {
      "inputs": [
        {
          "internalType": "address",
          "name": "asset",
          "type": "address"
        }
      ],
      "name": "getAssetData",
      "outputs": [
        {
          "internalType": "enum DataTypes.ReserveAssetType",
          "name": "",
          "type": "uint8"
        }
      ],
      "stateMutability": "view",
      "type": "function"
    },
    {
      "inputs": [
        {
          "internalType": "address",
          "name": "asset",
          "type": "address"
        },
        {
          "internalType": "uint64",
          "name": "trancheId",
          "type": "uint64"
        }
      ],
      "name": "getConfiguration",
      "outputs": [
        {
          "components": [
            {
              "internalType": "uint256",
              "name": "data",
              "type": "uint256"
            }
          ],
          "internalType": "struct DataTypes.ReserveConfigurationMap",
          "name": "",
          "type": "tuple"
        }
      ],
      "stateMutability": "view",
      "type": "function"
    },
    {
      "inputs": [
        {
          "internalType": "address",
          "name": "asset",
          "type": "address"
        },
        {
          "internalType": "uint64",
          "name": "trancheId",
          "type": "uint64"
        }
      ],
      "name": "getReserveData",
      "outputs": [
        {
          "components": [
            {
              "components": [
                {
                  "internalType": "uint256",
                  "name": "data",
                  "type": "uint256"
                }
              ],
              "internalType": "struct DataTypes.ReserveConfigurationMap",
              "name": "configuration",
              "type": "tuple"
            },
            {
              "internalType": "uint128",
              "name": "liquidityIndex",
              "type": "uint128"
            },
            {
              "internalType": "uint128",
              "name": "variableBorrowIndex",
              "type": "uint128"
            },
            {
              "internalType": "uint128",
              "name": "currentLiquidityRate",
              "type": "uint128"
            },
            {
              "internalType": "uint128",
              "name": "currentVariableBorrowRate",
              "type": "uint128"
            },
            {
              "internalType": "uint128",
              "name": "currentStableBorrowRate",
              "type": "uint128"
            },
            {
              "internalType": "uint40",
              "name": "lastUpdateTimestamp",
              "type": "uint40"
            },
            {
              "internalType": "address",
              "name": "aTokenAddress",
              "type": "address"
            },
            {
              "internalType": "address",
              "name": "stableDebtTokenAddress",
              "type": "address"
            },
            {
              "internalType": "address",
              "name": "variableDebtTokenAddress",
              "type": "address"
            },
            {
              "internalType": "address",
              "name": "interestRateStrategyAddress",
              "type": "address"
            },
            {
              "internalType": "uint8",
              "name": "id",
              "type": "uint8"
            },
            {
              "internalType": "uint64",
              "name": "trancheId",
              "type": "uint64"
            },
            {
              "internalType": "uint256",
              "name": "collateralCap",
              "type": "uint256"
            },
            {
              "internalType": "bool",
              "name": "hasStrategy",
              "type": "bool"
            },
            {
              "internalType": "bool",
              "name": "usingGovernanceSetInterestRate",
              "type": "bool"
            },
            {
              "internalType": "uint256",
              "name": "governanceSetInterestRate",
              "type": "uint256"
            }
          ],
          "internalType": "struct DataTypes.ReserveData",
          "name": "",
          "type": "tuple"
        }
      ],
      "stateMutability": "view",
      "type": "function"
    },
    {
      "inputs": [
        {
          "internalType": "address",
          "name": "asset",
          "type": "address"
        },
        {
          "internalType": "uint64",
          "name": "trancheId",
          "type": "uint64"
        }
      ],
      "name": "getReserveNormalizedIncome",
      "outputs": [
        {
          "internalType": "uint256",
          "name": "",
          "type": "uint256"
        }
      ],
      "stateMutability": "view",
      "type": "function"
    },
    {
      "inputs": [
        {
          "internalType": "address",
          "name": "asset",
          "type": "address"
        },
        {
          "internalType": "uint64",
          "name": "trancheId",
          "type": "uint64"
        }
      ],
      "name": "getReserveNormalizedVariableDebt",
      "outputs": [
        {
          "internalType": "uint256",
          "name": "",
          "type": "uint256"
        }
      ],
      "stateMutability": "view",
      "type": "function"
    },
    {
      "inputs": [
        {
          "internalType": "uint64",
          "name": "trancheId",
          "type": "uint64"
        }
      ],
      "name": "getReservesList",
      "outputs": [
        {
          "internalType": "address[]",
          "name": "",
          "type": "address[]"
        }
      ],
      "stateMutability": "view",
      "type": "function"
    },
    {
      "inputs": [
        {
          "internalType": "address",
          "name": "user",
          "type": "address"
        },
        {
          "internalType": "uint64",
          "name": "trancheId",
          "type": "uint64"
        }
      ],
      "name": "getUserAccountData",
      "outputs": [
        {
          "internalType": "uint256",
          "name": "totalCollateralETH",
          "type": "uint256"
        },
        {
          "internalType": "uint256",
          "name": "totalDebtETH",
          "type": "uint256"
        },
        {
          "internalType": "uint256",
          "name": "availableBorrowsETH",
          "type": "uint256"
        },
        {
          "internalType": "uint256",
          "name": "currentLiquidationThreshold",
          "type": "uint256"
        },
        {
          "internalType": "uint256",
          "name": "ltv",
          "type": "uint256"
        },
        {
          "internalType": "uint256",
          "name": "healthFactor",
          "type": "uint256"
        }
      ],
      "stateMutability": "view",
      "type": "function"
    },
    {
      "inputs": [
        {
          "internalType": "address",
          "name": "user",
          "type": "address"
        },
        {
          "internalType": "uint64",
          "name": "trancheId",
          "type": "uint64"
        }
      ],
      "name": "getUserConfiguration",
      "outputs": [
        {
          "components": [
            {
              "internalType": "uint256",
              "name": "data",
              "type": "uint256"
            }
          ],
          "internalType": "struct DataTypes.UserConfigurationMap",
          "name": "",
          "type": "tuple"
        }
      ],
      "stateMutability": "view",
      "type": "function"
    },
    {
      "inputs": [
        {
          "components": [
            {
              "internalType": "address",
              "name": "aTokenImpl",
              "type": "address"
            },
            {
              "internalType": "address",
              "name": "stableDebtTokenImpl",
              "type": "address"
            },
            {
              "internalType": "address",
              "name": "variableDebtTokenImpl",
              "type": "address"
            },
            {
              "internalType": "uint8",
              "name": "underlyingAssetDecimals",
              "type": "uint8"
            },
            {
              "internalType": "address",
              "name": "interestRateStrategyAddress",
              "type": "address"
            },
            {
              "internalType": "address",
              "name": "underlyingAsset",
              "type": "address"
            },
            {
              "internalType": "address",
              "name": "treasury",
              "type": "address"
            },
            {
              "internalType": "address",
              "name": "incentivesController",
              "type": "address"
            },
            {
              "internalType": "string",
              "name": "underlyingAssetName",
              "type": "string"
            },
            {
              "internalType": "string",
              "name": "aTokenName",
              "type": "string"
            },
            {
              "internalType": "string",
              "name": "aTokenSymbol",
              "type": "string"
            },
            {
              "internalType": "string",
              "name": "variableDebtTokenName",
              "type": "string"
            },
            {
              "internalType": "string",
              "name": "variableDebtTokenSymbol",
              "type": "string"
            },
            {
              "internalType": "string",
              "name": "stableDebtTokenName",
              "type": "string"
            },
            {
              "internalType": "string",
              "name": "stableDebtTokenSymbol",
              "type": "string"
            },
            {
              "internalType": "bytes",
              "name": "params",
              "type": "bytes"
            },
            {
              "internalType": "uint8",
              "name": "assetType",
              "type": "uint8"
            },
            {
              "internalType": "uint256",
              "name": "collateralCap",
              "type": "uint256"
            },
            {
              "internalType": "bool",
              "name": "hasStrategy",
              "type": "bool"
            },
            {
              "internalType": "bool",
              "name": "usingGovernanceSetInterestRate",
              "type": "bool"
            },
            {
              "internalType": "uint256",
              "name": "governanceSetInterestRate",
              "type": "uint256"
            }
          ],
          "internalType": "struct DataTypes.InitReserveInput",
          "name": "input",
          "type": "tuple"
        },
        {
          "internalType": "address",
          "name": "aTokenAddress",
          "type": "address"
        },
        {
          "internalType": "address",
          "name": "stableDebtAddress",
          "type": "address"
        },
        {
          "internalType": "address",
          "name": "variableDebtAddress",
          "type": "address"
        },
        {
          "internalType": "uint64",
          "name": "trancheId",
          "type": "uint64"
        }
      ],
      "name": "initReserve",
      "outputs": [],
      "stateMutability": "nonpayable",
      "type": "function"
    },
    {
      "inputs": [
        {
          "internalType": "contract ILendingPoolAddressesProvider",
          "name": "provider",
          "type": "address"
        }
      ],
      "name": "initialize",
      "outputs": [],
      "stateMutability": "nonpayable",
      "type": "function"
    },
    {
      "inputs": [
        {
          "internalType": "address",
          "name": "collateralAsset",
          "type": "address"
        },
        {
          "internalType": "address",
          "name": "debtAsset",
          "type": "address"
        },
        {
          "internalType": "uint64",
          "name": "trancheId",
          "type": "uint64"
        },
        {
          "internalType": "address",
          "name": "user",
          "type": "address"
        },
        {
          "internalType": "uint256",
          "name": "debtToCover",
          "type": "uint256"
        },
        {
          "internalType": "bool",
          "name": "receiveAToken",
          "type": "bool"
        }
      ],
      "name": "liquidationCall",
      "outputs": [],
      "stateMutability": "nonpayable",
      "type": "function"
    },
    {
      "inputs": [
        {
          "internalType": "uint64",
          "name": "trancheId",
          "type": "uint64"
        }
      ],
      "name": "paused",
      "outputs": [
        {
          "internalType": "bool",
          "name": "",
          "type": "bool"
        }
      ],
      "stateMutability": "view",
      "type": "function"
    },
    {
      "inputs": [
        {
          "internalType": "address",
          "name": "asset",
          "type": "address"
        },
        {
          "internalType": "uint64",
          "name": "trancheId",
          "type": "uint64"
        },
        {
          "internalType": "address",
          "name": "user",
          "type": "address"
        }
      ],
      "name": "rebalanceStableBorrowRate",
      "outputs": [],
      "stateMutability": "nonpayable",
      "type": "function"
    },
    {
      "inputs": [
        {
          "internalType": "address",
          "name": "asset",
          "type": "address"
        },
        {
          "internalType": "uint64",
          "name": "trancheId",
          "type": "uint64"
        },
        {
          "internalType": "uint256",
          "name": "amount",
          "type": "uint256"
        },
        {
          "internalType": "uint256",
          "name": "rateMode",
          "type": "uint256"
        },
        {
          "internalType": "address",
          "name": "onBehalfOf",
          "type": "address"
        }
      ],
      "name": "repay",
      "outputs": [
        {
          "internalType": "uint256",
          "name": "",
          "type": "uint256"
        }
      ],
      "stateMutability": "nonpayable",
      "type": "function"
    },
    {
      "inputs": [
        {
          "internalType": "address",
          "name": "asset",
          "type": "address"
        },
        {
          "internalType": "uint8",
          "name": "_assetType",
          "type": "uint8"
        }
      ],
      "name": "setAssetData",
      "outputs": [],
      "stateMutability": "nonpayable",
      "type": "function"
    },
    {
      "inputs": [
        {
          "internalType": "address",
          "name": "asset",
          "type": "address"
        },
        {
          "internalType": "uint64",
          "name": "trancheId",
          "type": "uint64"
        },
        {
          "internalType": "uint256",
          "name": "configuration",
          "type": "uint256"
        }
      ],
      "name": "setConfiguration",
      "outputs": [],
      "stateMutability": "nonpayable",
      "type": "function"
    },
    {
      "inputs": [
        {
          "internalType": "bool",
          "name": "val",
          "type": "bool"
        },
        {
          "internalType": "uint64",
          "name": "trancheId",
          "type": "uint64"
        }
      ],
      "name": "setPause",
      "outputs": [],
      "stateMutability": "nonpayable",
      "type": "function"
    },
    {
      "inputs": [
        {
          "internalType": "address",
          "name": "asset",
          "type": "address"
        },
        {
          "internalType": "uint64",
          "name": "trancheId",
          "type": "uint64"
        },
        {
          "internalType": "address",
          "name": "rateStrategyAddress",
          "type": "address"
        }
      ],
      "name": "setReserveInterestRateStrategyAddress",
      "outputs": [],
      "stateMutability": "nonpayable",
      "type": "function"
    },
    {
      "inputs": [
        {
          "internalType": "address",
          "name": "asset",
          "type": "address"
        },
        {
          "internalType": "uint64",
          "name": "trancheId",
          "type": "uint64"
        },
        {
          "internalType": "bool",
          "name": "useAsCollateral",
          "type": "bool"
        }
      ],
      "name": "setUserUseReserveAsCollateral",
      "outputs": [],
      "stateMutability": "nonpayable",
      "type": "function"
    },
    {
      "inputs": [
        {
          "internalType": "address",
          "name": "asset",
          "type": "address"
        },
        {
          "internalType": "uint64",
          "name": "trancheId",
          "type": "uint64"
        },
        {
          "internalType": "uint256",
          "name": "rateMode",
          "type": "uint256"
        }
      ],
      "name": "swapBorrowRateMode",
      "outputs": [],
      "stateMutability": "nonpayable",
      "type": "function"
    },
    {
      "inputs": [
        {
          "internalType": "address",
          "name": "asset",
          "type": "address"
        },
        {
          "internalType": "uint64",
          "name": "trancheId",
          "type": "uint64"
        },
        {
          "internalType": "uint256",
          "name": "amount",
          "type": "uint256"
        },
        {
          "internalType": "address",
          "name": "to",
          "type": "address"
        }
      ],
      "name": "withdraw",
      "outputs": [
        {
          "internalType": "uint256",
          "name": "",
          "type": "uint256"
        }
      ],
      "stateMutability": "nonpayable",
      "type": "function"
    }
  ],
  "bytecode": "0x60806040526000805534801561001457600080fd5b506159fd80620000256000396000f3fe608060405234801561001057600080fd5b50600436106101c45760003560e01c8063a2bcec21116100f9578063e87549f411610097578063f3c2b76b11610071578063f3c2b76b146103e6578063fa0b2bf2146103f9578063fba9d7381461040c578063fe65acfe1461041f576101c4565b8063e87549f4146103ad578063e9b92f40146103c0578063ee125ca0146103d3576101c4565b8063b5afdf49116100d3578063b5afdf4914610361578063bd72e7d214610374578063c4d66de814610387578063ce0f5b4a1461039a576101c4565b8063a2bcec2114610328578063aa087ac81461033b578063af250cfc1461034e576101c4565b8063560e7e631161016657806389fbffeb1161014057806389fbffeb146102da5780638afaff02146102ed5780638fdb7f5b146102f55780639599f1d514610308576101c4565b8063560e7e631461029457806374fd18ac146102a75780637ba497fe146102ba576101c4565b806315719bfb116101a257806315719bfb146102275780631652e7b71461024c5780634d1f6e901461026c5780635471788414610281576101c4565b8063064db865146101c9578063074b2e43146101f257806313f9cf3714610207575b600080fd5b6101dc6101d7366004614545565b610434565b6040516101e99190615025565b60405180910390f35b6101fa61047d565b6040516101e991906156e7565b61021a610215366004614a4d565b610483565b6040516101e99190614cde565b61023a610235366004614545565b610591565b6040516101e99695949392919061572d565b61025f61025a366004614380565b610632565b6040516101e99190614d36565b61027f61027a366004614635565b610650565b005b61027f61028f3660046147bc565b61083d565b61027f6102a23660046145c1565b6109d9565b6101fa6102b53660046146af565b610c5f565b6102cd6102c8366004614545565b610dba565b6040516101e9919061502f565b61027f6102e83660046146ff565b610ef6565b6101fa611042565b61027f61030336600461442e565b611047565b61031b610316366004614a4d565b61132a565b6040516101e99190614d2b565b61027f610336366004614860565b611348565b61027f610349366004614672565b6113da565b6101fa61035c366004614545565b611412565b61027f61036f36600461487d565b61144e565b6101fa610382366004614545565b611577565b61027f610395366004614380565b6115ac565b61027f6103a8366004614579565b611655565b6101dc6103bb366004614545565b611934565b61027f6103ce366004614672565b61197c565b61027f6103e13660046143b8565b611d8e565b6101fa6103f4366004614760565b611fb1565b61027f610407366004614819565b6123b9565b61027f61041a366004614579565b61242c565b61042761247d565b6040516101e99190614bab565b61043c613f16565b506001600160a01b03821660009081526035602090815260408083206001600160401b03851684528252918290208251918201909252905481525b92915050565b603c5490565b6001600160401b038082166000908152603960205260408120546060928111156104bd57634e487b7160e01b600052604160045260246000fd5b6040519080825280602002602001820160405280156104e6578160200160208202803683370190505b50905060005b6001600160401b038416600090815260396020526040902054811015610588576001600160401b038416600090815260386020908152604080832084845290915290205482516001600160a01b039091169083908390811061055e57634e487b7160e01b600052603260045260246000fd5b6001600160a01b03909216602092830291909101909101528061058081615947565b9150506104ec565b5090505b919050565b6040805180820182526001600160a01b038085168083526001600160401b0385166020808501829052600092835260368152858320828452815285832086518083018852905481529183526038815285832060399091529482205460345492958695869586958695869561060e956035949293909216603761248c565b93995091975090945092509050610626868684612b0a565b93509295509295509295565b6001600160a01b031660009081526037602052604090205460ff1690565b6001600160401b0382166000908152603a602090815260409182902054825180840190935260028352610d8d60f21b9183019190915283919060ff16156106b35760405162461bcd60e51b81526004016106aa9190614ebb565b60405180910390fd5b506001600160a01b0380851660009081526035602081815260408084206001600160401b038916808652908352818520338652603684528286209186529083528185206038845282862060399094529482902054603454925163050419a160e41b8152919673__$de8c0cf1a7d7c36c802af9a64fb9d86036$__966350419a1096610753968a968f968e969395929392919091169060379060040161545d565b60006040518083038186803b15801561076b57600080fd5b505af415801561077f573d6000803e3d6000fd5b5050505060078101543360009081526036602090815260408083206001600160401b038916845290915290206107bf91600160a01b900460ff1685612b3e565b82156107ff5760405133906001600160a01b038716907e058a56ea94653cdf4f152d227ace22d4c00ad99e2a43f58cb7d9e3feb295f290600090a3610836565b60405133906001600160a01b038716907f44c58d81365b66dd4b1a7f36c25aa97b8c71c361ee4937adc1a00000227db5dd90600090a35b5050505050565b6001600160401b0385166000908152603a602090815260409182902054825180840190935260028352610d8d60f21b9183019190915286919060ff16156108975760405162461bcd60e51b81526004016106aa9190614ebb565b5060006108a2613f29565b50506001600160a01b0380881660008181526035602081815260408084206001600160401b038d16808652908352818520825161016081018452968752868401829052338784015289881660608801819052608088018e905260a088018d90526004808301548a1660c08a015261ffff8d1660e08a015260016101008a0152603b546101208a015283885260398652848820546101408a015290875260368552838720928752918452828620603890945294829020603454925163f916bf8160e01b81529597939573__$f1f6c0540507d7a73571ad55dbacf4a67d$__9563f916bf819561099d9591948993603793909216918b9101614d50565b60006040518083038186803b1580156109b557600080fd5b505af41580156109c9573d6000803e3d6000fd5b5050505050505050505050505050565b6001600160401b0386166000908152603a602090815260409182902054825180840190935260028352610d8d60f21b9183019190915287919060ff1615610a335760405162461bcd60e51b81526004016106aa9190614ebb565b506001600160a01b0388811660009081526035602090815260408083206001600160401b038c1684528252918290206004015482518084019093526002835261363360f01b918301919091529091163314610aa15760405162461bcd60e51b81526004016106aa9190614ebb565b506001600160a01b0380871660009081526036602090815260408083206001600160401b038c1684528252808320603883528184206039909352922054603454610af8948b948d9460359491939092166037612bca565b6001600160a01b0388811660009081526035602090815260408083206001600160401b038c168452909152902060070154600160a01b900460ff169086811690881614610c5457610b498486612c6c565b610bc9576001600160a01b03871660009081526036602090815260408083206001600160401b038c168452909152812090610b879082908490612b3e565b876001600160a01b03168a6001600160a01b03167f44c58d81365b66dd4b1a7f36c25aa97b8c71c361ee4937adc1a00000227db5dd60405160405180910390a3505b82158015610bd657508415155b15610c54576001600160a01b03861660009081526036602090815260408083206001600160401b038c1684529091529020610c1381836001612b3e565b866001600160a01b03168a6001600160a01b03167e058a56ea94653cdf4f152d227ace22d4c00ad99e2a43f58cb7d9e3feb295f260405160405180910390a3505b505050505050505050565b6001600160401b0383166000908152603a6020908152604080832054815180830190925260028252610d8d60f21b92820192909252859160ff1615610cb75760405162461bcd60e51b81526004016106aa9190614ebb565b503360009081526036602090815260408083206001600160401b03891680855290835281842060388452828520835160a08101855260398652958490205486526001600160a01b038c811695870195909552858401929092526060850189905287841660808601526034549251639838e7ab60e01b815273__$f1f6c0540507d7a73571ad55dbacf4a67d$__95639838e7ab95610d609560359593911690603790600401614e46565b60206040518083038186803b158015610d7857600080fd5b505af4158015610d8c573d6000803e3d6000fd5b505050506040513d601f19601f82011682018060405250810190610db091906148f9565b9695505050505050565b610dc2613f85565b506001600160a01b0391821660009081526035602090815260408083206001600160401b03948516845282529182902082516102408101845281546102208201908152815260018201546001600160801b0380821694830194909452600160801b908190048416948201949094526002820154808416606083015284900483166080820152600382015492831660a08201529290910464ffffffffff1660c08301526004810154841660e08301526005810154841661010080840191909152600682015485166101208401526007820154948516610140840152600160a01b850460ff908116610160850152600160a81b90950490931661018083015260088101546101a0830152600981015480851615156101c08401529290920490921615156101e0830152600a015461020082015290565b6001600160401b0384166000908152603a602090815260409182902054825180840190935260028352610d8d60f21b9183019190915285919060ff1615610f505760405162461bcd60e51b81526004016106aa9190614ebb565b50610f59614018565b506040805160c0810182526001600160a01b038089168083526001600160401b0389166020808501829052603454841685870152606085018a90529288166080850181905261ffff881660a08601526000928352603584528583208284528452858320908352603684528583209183529252839020925163acb6fdeb60e01b8152919273__$f1f6c0540507d7a73571ad55dbacf4a67d$__9263acb6fdeb926110099290918691906004016154d5565b60006040518083038186803b15801561102157600080fd5b505af4158015611035573d6000803e3d6000fd5b5050505050505050505050565b600281565b6001600160401b0389166000908152603a602090815260409182902054825180840190935260028352610d8d60f21b9183019190915260ff161561109e5760405162461bcd60e51b81526004016106aa9190614ebb565b506001600160a01b03841660009081526036602090815260408083206001600160401b038d16845290915290206110d361404d565b6040518061018001604052808f6001600160a01b031681526020018e8e808060200260200160405190810160405280939291908181526020018383602002808284376000920191909152505050908252506001600160401b038d16602080830191909152604080518d8302818101840183528e82529190930192918e918e918291908501908490808284376000920191909152505050908252506040805160208b810282810182019093528b82529283019290918c918c9182918501908490808284376000920191909152505050908252506001600160a01b03881660208083019190915260408051601f8901839004830281018301825288815292019190889088908190840183828082843760009201919091525050509082525061ffff8516602080830191909152603c54604080840191909152603454815163f139dc8160e01b815291516060909401936001600160a01b039091169263f139dc819260048082019391829003018186803b15801561124d57600080fd5b505afa158015611261573d6000803e3d6000fd5b505050506040513d601f19601f82011682018060405250810190611285919061439c565b6001600160a01b039081168252603b546020830152603454166040918201525163466f3b8f60e01b815290915073__$f1f6c0540507d7a73571ad55dbacf4a67d$__9063466f3b8f906112ea9084906037906035906038906039908a906004016155ae565b60006040518083038186803b15801561130257600080fd5b505af4158015611316573d6000803e3d6000fd5b505050505050505050505050505050505050565b6001600160401b03166000908152603a602052604090205460ff1690565b611350612c78565b6001600160401b0381166000908152603a60205260409020805460ff1916831515179081905560ff16156113ac576040517f9e87fac88ff661f02d44f95383c817fece4bce600a3dab7a54406878b965e75290600090a16113d6565b6040517fa45f47fdea8a1efdd9029a5691c7f759c32b7c698632b563573e155625d1693390600090a15b5050565b6113e2612c78565b6001600160a01b0390921660009081526035602090815260408083206001600160401b0390941683529290522055565b6001600160a01b03821660009081526035602090815260408083206001600160401b0385168452909152812061144790612d3a565b9392505050565b611456612c78565b61146e61146960c0870160a08801614380565b612da7565b6040518060400160405280600281526020016106e760f31b815250906114a75760405162461bcd60e51b81526004016106aa9190614ebb565b50603560006114bc60c0880160a08901614380565b6001600160a01b03168152602080820192909252604090810160009081206001600160401b03851682529092529081902090516308b339fb60e41b815273__$22cd43a9dda9ce44e9b92ba393b88fb9ac$__91638b339fb09161152c91908890889088908c908990600401615175565b60006040518083038186803b15801561154457600080fd5b505af4158015611558573d6000803e3d6000fd5b50610836925061157191505060c0870160a08801614380565b82612dd8565b6001600160a01b03821660009081526035602090815260408083206001600160401b0385168452909152812061144790612f3f565b60006115b6612fae565b60015490915060ff16806115cd57506115cd612fb3565b806115d9575060005481115b6115f55760405162461bcd60e51b81526004016106aa90614f03565b60015460ff16158015611614576001805460ff19168117905560008290555b603480546001600160a01b0319166001600160a01b0385161790556109c4603b556009603c556080603d558015611650576001805460ff191690555b505050565b6001600160401b0382166000908152603a602090815260409182902054825180840190935260028352610d8d60f21b9183019190915283919060ff16156116af5760405162461bcd60e51b81526004016106aa9190614ebb565b506001600160a01b0380851660009081526035602090815260408083206001600160401b03881684529091528082206005810154600682015460048084015494516370a0823160e01b81529396928316959183169490921692909185916370a082319161171e918b9101614bab565b60206040518083038186803b15801561173657600080fd5b505afa15801561174a573d6000803e3d6000fd5b505050506040513d601f19601f8201168201806040525081019061176e91906148f9565b60405163548cad0960e01b815290915073__$de8c0cf1a7d7c36c802af9a64fb9d86036$__9063548cad09906117b09088908d908990899089906004016154a7565b60006040518083038186803b1580156117c857600080fd5b505af41580156117dc573d6000803e3d6000fd5b505050506117e985612fb9565b604051632770a7eb60e21b81526001600160a01b03851690639dc29fac90611817908a908590600401614c9b565b600060405180830381600087803b15801561183157600080fd5b505af1158015611845573d6000803e3d6000fd5b505050600386015460405163b3f1c93d60e01b81526001600160a01b038716925063b3f1c93d91611888918b91829187916001600160801b031690600401614be3565b602060405180830381600087803b1580156118a257600080fd5b505af11580156118b6573d6000803e3d6000fd5b505050506040513d601f19601f820116820180604052508101906118da9190614844565b506118e9858a8460008061308f565b866001600160a01b0316896001600160a01b03167f9f439ae0c81e41a04d3fdfe07aed54e6a179fb0db15be7702eb66fa8ef6f530060405160405180910390a3505050505050505050565b61193c613f16565b506001600160a01b03821660009081526036602090815260408083206001600160401b038516845282529182902082519182019092529054815292915050565b6001600160401b0382166000908152603a602090815260409182902054825180840190935260028352610d8d60f21b9183019190915283919060ff16156119d65760405162461bcd60e51b81526004016106aa9190614ebb565b506001600160a01b03841660009081526035602090815260408083206001600160401b038716845290915281209080611a0f3384613445565b915091506000856002811115611a3557634e487b7160e01b600052602160045260246000fd5b3360009081526036602090815260408083206001600160401b038c16845290915290819020905163a8695b1d60e01b815291925073__$de8c0cf1a7d7c36c802af9a64fb9d86036$__9163a8695b1d91611a9a91889190889088908890600401615543565b60006040518083038186803b158015611ab257600080fd5b505af4158015611ac6573d6000803e3d6000fd5b50505050611ad384612fb9565b6001816002811115611af557634e487b7160e01b600052602160045260246000fd5b1415611c05576005840154604051632770a7eb60e21b81526001600160a01b0390911690639dc29fac90611b2f9033908790600401614c9b565b600060405180830381600087803b158015611b4957600080fd5b505af1158015611b5d573d6000803e3d6000fd5b505050506006840154600185015460405163b3f1c93d60e01b81526001600160a01b039092169163b3f1c93d91611bad91339182918991600160801b90046001600160801b031690600401614be3565b602060405180830381600087803b158015611bc757600080fd5b505af1158015611bdb573d6000803e3d6000fd5b505050506040513d601f19601f82011682018060405250810190611bff9190614844565b50611d1b565b60068401546001850154604051637a94c56560e11b81526001600160a01b039092169163f5298aca91611c509133918791600160801b9091046001600160801b031690600401614cb4565b600060405180830381600087803b158015611c6a57600080fd5b505af1158015611c7e573d6000803e3d6000fd5b505050506005840154600385015460405163b3f1c93d60e01b81526001600160a01b039092169163b3f1c93d91611cc7913391829188916001600160801b031690600401614be3565b602060405180830381600087803b158015611ce157600080fd5b505af1158015611cf5573d6000803e3d6000fd5b505050506040513d601f19601f82011682018060405250810190611d199190614844565b505b6004840154611d399085908a906001600160a01b031660008061308f565b336001600160a01b0316886001600160a01b03167fea368a40e9570069bb8e6511d668293ad2e1f03b0d982431fd223de9f3b70ca688604051611d7c91906156e7565b60405180910390a35050505050505050565b6001600160401b0384166000908152603a602090815260409182902054825180840190935260028352610d8d60f21b9183019190915285919060ff1615611de85760405162461bcd60e51b81526004016106aa9190614ebb565b506034546040805163712d917160e01b815290516000926001600160a01b03169163712d9171916004808301926020929190829003018186803b158015611e2e57600080fd5b505afa158015611e42573d6000803e3d6000fd5b505050506040513d601f19601f82011682018060405250810190611e66919061439c565b9050600080826001600160a01b03168a8a8a8a8a8a604051602401611e9096959493929190614c58565b60408051601f198184030181529181526020820180516001600160e01b031663077092e560e51b17905251611ec59190614b8f565b600060405180830381855af49150503d8060008114611f00576040519150601f19603f3d011682016040523d82523d6000602084013e611f05565b606091505b50915091508160405180604001604052806002815260200161323360f01b81525090611f445760405162461bcd60e51b81526004016106aa9190614ebb565b5060008082806020019051810190611f5c9190614911565b915091508160001481604051602001611f759190614b8f565b60405160208183030381529060405290611fa25760405162461bcd60e51b81526004016106aa9190614ebb565b50505050505050505050505050565b6001600160401b0384166000908152603a6020908152604080832054815180830190925260028252610d8d60f21b928201929092529060ff16156120085760405162461bcd60e51b81526004016106aa9190614ebb565b506001600160a01b03861660009081526035602090815260408083206001600160401b0389168452909152812090806120418584613445565b91509150600086600281111561206757634e487b7160e01b600052602160045260246000fd5b60405163fa0c214960e01b815290915073__$de8c0cf1a7d7c36c802af9a64fb9d86036$__9063fa0c2149906120ab9087908c9086908c908a908a9060040161556d565b60006040518083038186803b1580156120c357600080fd5b505af41580156120d7573d6000803e3d6000fd5b5060009250600191506120e79050565b82600281111561210757634e487b7160e01b600052602160045260246000fd5b146121125782612114565b835b9050808910156121215750875b61212a85612fb9565b600182600281111561214c57634e487b7160e01b600052602160045260246000fd5b14156121bd576005850154604051632770a7eb60e21b81526001600160a01b0390911690639dc29fac90612186908a908590600401614c9b565b600060405180830381600087803b1580156121a057600080fd5b505af11580156121b4573d6000803e3d6000fd5b5050505061223b565b60068501546001860154604051637a94c56560e11b81526001600160a01b039092169163f5298aca91612208918b918691600160801b9091046001600160801b031690600401614cb4565b600060405180830381600087803b15801561222257600080fd5b505af1158015612236573d6000803e3d6000fd5b505050505b60048501546001600160a01b0316612257868d8385600061308f565b61226b82612265878761355a565b90612c6c565b6122e0576122e08660070160149054906101000a900460ff1660ff166000603660008c6001600160a01b03166001600160a01b0316815260200190815260200160002060008f6001600160401b03166001600160401b031681526020019081526020016000206135669092919063ffffffff16565b6122f56001600160a01b038d163383856135cb565b6040516388dd91a160e01b81526001600160a01b038216906388dd91a1906123239033908690600401614c9b565b600060405180830381600087803b15801561233d57600080fd5b505af1158015612351573d6000803e3d6000fd5b50505050336001600160a01b0316886001600160a01b03168d6001600160a01b03167f4cdde6e09bb755c9a5589ebaec640bbfedff1362d4b255ebf8339782b9942faa856040516123a291906156e7565b60405180910390a4509a9950505050505050505050565b6123c1612c78565b8060ff1660018111156123e457634e487b7160e01b600052602160045260246000fd5b6001600160a01b0383166000908152603760205260409020805460ff19166001838181111561242357634e487b7160e01b600052602160045260246000fd5b02179055505050565b612434612c78565b6001600160a01b0392831660009081526035602090815260408083206001600160401b039590951683529390529190912060070180546001600160a01b03191691909216179055565b6034546001600160a01b031690565b600080600080600061249c6140df565b8c516001600160a01b03166102a082015260208d01516001600160401b03166102c08201526124ca8b613623565b156124e8576000806000806000199550955095509550955050612afb565b60006101008201525b888161010001511015612a5a5761010081015161250f908c90613628565b61251857612a41565b896000826101000151815260200190815260200160002060009054906101000a90046001600160a01b03168161020001906001600160a01b031690816001600160a01b03168152505060008c60008361020001516001600160a01b03166001600160a01b031681526020019081526020016000206000836102c001516001600160401b03166001600160401b031681526020019081526020016000209050886001600160a01b0316631a9dffb38960008561020001516001600160a01b03166001600160a01b0316815260200190815260200160002060009054906101000a900460ff166040518263ffffffff1660e01b81526004016126189190614d36565b60206040518083038186803b15801561263057600080fd5b505afa158015612644573d6000803e3d6000fd5b505050506040513d601f19601f82011682018060405250810190612668919061439c565b6001600160a01b03166102808301526102c08201516007820154600160a81b90046001600160401b039081169116146126b35760405162461bcd60e51b81526004016106aa90614f9b565b6126bc81613683565b5060a0860181905260e08601929092525060c08401919091526126e090600a615817565b8260400181815250508161028001516001600160a01b031663b3596f078361020001516040518263ffffffff1660e01b815260040161271f9190614bab565b60206040518083038186803b15801561273757600080fd5b505afa15801561274b573d6000803e3d6000fd5b505050506040513d601f19601f8201168201806040525081019061276f91906148f9565b602083015260e0820151158015906127935750610100820151612793908d906136ae565b156128d4576004808201546102a08401516040516370a0823160e01b81526001600160a01b03909216926370a08231926127ce929101614bab565b60206040518083038186803b1580156127e657600080fd5b505afa1580156127fa573d6000803e3d6000fd5b505050506040513d601f19601f8201168201806040525081019061281e91906148f9565b60608301819052604083015160208401516128439261283d9190613714565b90613720565b6102608301819052600882015410156128625760088101546102608301525b6102608201516101408301516128779161355a565b61014083015260c08201516102608301516128a2916128969190613714565b6101808401519061355a565b61018083015260e08201516102608301516128cd916128c19190613714565b6101a08401519061355a565b6101a08301525b6101008201516128e5908d9061372c565b15612a3f5760058101546102a08301516040516370a0823160e01b81526001600160a01b03909216916370a082319161292091600401614bab565b60206040518083038186803b15801561293857600080fd5b505afa15801561294c573d6000803e3d6000fd5b505050506040513d601f19601f8201168201806040525081019061297091906148f9565b608083015260068101546102a08301516040516370a0823160e01b8152612a09926001600160a01b0316916370a08231916129ae9190600401614bab565b60206040518083038186803b1580156129c657600080fd5b505afa1580156129da573d6000803e3d6000fd5b505050506040513d601f19601f820116820180604052508101906129fe91906148f9565b60808401519061355a565b6080830181905260408301516020840151612a3892612a2c929161283d91613714565b6101608401519061355a565b6101608301525b505b6101008101805190612a5282615947565b9052506124f1565b600081610140015111612a6e576000612a83565b610140810151610180820151612a8391613720565b610180820152610140810151612a9a576000612aaf565b6101408101516101a0820151612aaf91613720565b6101a08201819052610140820151610160830151612acc92613777565b61012082018190526101408201516101608301516101808401516101a090940151919850965091945090925090505b97509750975097509792505050565b600080612b17858461379b565b905083811015612b2b576000915050611447565b612b358185612c6c565b95945050505050565b604080518082019091526002815261373760f01b602082015260808310612b785760405162461bcd60e51b81526004016106aa9190614ebb565b50612b848260026158e5565b612b8f906001615799565b81612b9b576000612b9e565b60015b60ff16901b612bae8360026158e5565b612bb9906001615799565b8454600190911b1916179092555050565b6000612c1660405180604001604052808b6001600160a01b031681526020018a6001600160401b031681525088886040518060200160405290816000820154815250508888888861248c565b945050505050670de0b6b3a7640000811015604051806040016040528060018152602001601b60f91b81525090612c605760405162461bcd60e51b81526004016106aa9190614ebb565b50505050505050505050565b60006114478284615904565b603454604080516385c858b160e01b8152905133926001600160a01b0316916385c858b1916004808301926020929190829003018186803b158015612cbc57600080fd5b505afa158015612cd0573d6000803e3d6000fd5b505050506040513d601f19601f82011682018060405250810190612cf4919061439c565b6001600160a01b03161460405180604001604052806002815260200161323760f01b81525090612d375760405162461bcd60e51b81526004016106aa9190614ebb565b50565b600381015460009064ffffffffff600160801b9091048116904216811415612d7157505060018101546001600160801b031661058c565b60018301546002840154600091612d9f916001600160801b0391821691612d99911685613842565b90613882565b949350505050565b600080826001600160a01b0316803b806020016040519081016040528181526000908060200190933c511192915050565b6001600160401b03811660009081526039602090815260409182902054603d5483518085019094526002845261363560f01b9284019290925291908210612e325760405162461bcd60e51b81526004016106aa9190614ebb565b506001600160a01b03831660009081526035602090815260408083206001600160401b0386168452909152812060070154600160a01b900460ff16151580612ea857506001600160401b03831660009081526038602090815260408083208380529091529020546001600160a01b038581169116145b905080612f39576001600160a01b03841660008181526035602090815260408083206001600160401b03881684528252808320600701805460ff60a01b1916600160a01b60ff89160217905560388252808320868452909152902080546001600160a01b0319169091179055612f1f826001615799565b6001600160401b0384166000908152603960205260409020555b50505050565b600381015460009064ffffffffff600160801b9091048116904216811415612f7d5750506001810154600160801b90046001600160801b031661058c565b60018301546002840154600091612d9f916001600160801b03600160801b92839004811692612d999204168561391f565b600290565b303b1590565b60068101546040805163b1bf962d60e01b815290516000926001600160a01b03169163b1bf962d916004808301926020929190829003018186803b15801561300057600080fd5b505afa158015613014573d6000803e3d6000fd5b505050506040513d601f19601f8201168201806040525081019061303891906148f9565b60018301546003840154919250600160801b8082046001600160801b03908116939216910464ffffffffff16600080613074878786888761392c565b91509150613086878787858588613a89565b50505050505050565b6130976141c0565b60058601546001600160a01b031680825260408051637b98f4df60e11b8152815163f731e9be92600480840193919291829003018186803b1580156130db57600080fd5b505afa1580156130ef573d6000803e3d6000fd5b505050506040513d601f19601f8201168201806040525081019061311391906149bf565b60c083015260408083019190915260018701546006880154825163b1bf962d60e01b815292516131b893600160801b9093046001600160801b0316926001600160a01b039092169163b1bf962d916004808301926020929190829003018186803b15801561318057600080fd5b505afa158015613194573d6000803e3d6000fd5b505050506040513d601f19601f82011682018060405250810190612d9991906148f9565b60e08201526131c561420e565b6040518060a00160405280876001600160a01b03168152602001866001600160a01b0316815260200185815260200184815260200161320689600001613c54565b905260078801548151602083015160408085015160608601518883015160e08a015160c08b015160808a015195516329db497d60e01b8152999a506001600160a01b03909816986329db497d986132639897969091600401614c14565b60606040518083038186803b15801561327b57600080fd5b505afa15801561328f573d6000803e3d6000fd5b505050506040513d601f19601f820116820180604052508101906132b391906149e2565b60a0850152608084015260608301819052604080518082019091526002815261353360f01b6020820152906001600160801b0310156133055760405162461bcd60e51b81526004016106aa9190614ebb565b506080820151604080518082019091526002815261353560f01b6020820152906001600160801b03101561334c5760405162461bcd60e51b81526004016106aa9190614ebb565b5060a08201516040805180820190915260028152610d4d60f21b6020820152906001600160801b0310156133935760405162461bcd60e51b81526004016106aa9190614ebb565b506060820151600288018054608085015160038b0180546001600160801b03199081166001600160801b038085169190911790925560a08801519316818616178116600160801b84831681029190911790945560018c01546040516001600160a01b038d16967f804c9b842b2748a22bb64b345453a3de7ca54a6ca45ce00d415894979e22897a9661343496919594919380831693919004909116906156fe565b60405180910390a250505050505050565b60058101546040516370a0823160e01b815260009182916001600160a01b03909116906370a082319061347c908790600401614bab565b60206040518083038186803b15801561349457600080fd5b505afa1580156134a8573d6000803e3d6000fd5b505050506040513d601f19601f820116820180604052508101906134cc91906148f9565b60068401546040516370a0823160e01b81526001600160a01b03909116906370a08231906134fe908890600401614bab565b60206040518083038186803b15801561351657600080fd5b505afa15801561352a573d6000803e3d6000fd5b505050506040513d601f19601f8201168201806040525081019061354e91906148f9565b915091505b9250929050565b60006114478284615799565b604080518082019091526002815261373760f01b6020820152608083106135a05760405162461bcd60e51b81526004016106aa9190614ebb565b506135ac8260026158e5565b816135b85760006135bb565b60015b60ff16901b612bb98360026158e5565b612f39846323b872dd60e01b8585856040516024016135ec93929190614bbf565b60408051601f198184030181529190526020810180516001600160e01b03166001600160e01b031990931692909217909152613c5f565b511590565b60006080821060405180604001604052806002815260200161373760f01b815250906136675760405162461bcd60e51b81526004016106aa9190614ebb565b506136738260026158e5565b925190921c600316151592915050565b5461ffff80821692601083901c821692602081901c831692603082901c60ff169260409290921c1690565b60006080821060405180604001604052806002815260200161373760f01b815250906136ed5760405162461bcd60e51b81526004016106aa9190614ebb565b506136f98260026158e5565b613704906001615799565b925190921c600116151592915050565b600061144782846158e5565b600061144782846157b1565b60006080821060405180604001604052806002815260200161373760f01b8152509061376b5760405162461bcd60e51b81526004016106aa9190614ebb565b506137048260026158e5565b6000826137875750600019611447565b612d9f83613795868561379b565b90613d43565b60008215806137a8575081155b156137b557506000610477565b816137c360026127106157b1565b6137cf90600019615904565b6137d991906157b1565b83111560405180604001604052806002815260200161068760f31b815250906138155760405162461bcd60e51b81526004016106aa9190614ebb565b506127106138246002826157b1565b61382e84866158e5565b6138389190615799565b61144791906157b1565b6000806138564264ffffffffff8516612c6c565b9050612d9f613863613e11565b6301e133806138728785613714565b61387c91906157b1565b9061355a565b600082158061388f575081155b1561389c57506000610477565b816138b460026b033b2e3c9fd0803ce80000006157b1565b6138c090600019615904565b6138ca91906157b1565b83111560405180604001604052806002815260200161068760f31b815250906139065760405162461bcd60e51b81526004016106aa9190614ebb565b506b033b2e3c9fd0803ce80000006138246002826157b1565b6000611447838342613e21565b600285015460009081906001600160801b031685858215613a5a5760006139538488613842565b905061395f818a613882565b604080518082019091526002815261353160f01b60208201529093506001600160801b038411156139a35760405162461bcd60e51b81526004016106aa9190614ebb565b5060018b0180546001600160801b0319166001600160801b0385161790558915613a585760028b01546000906139e990600160801b90046001600160801b03168961391f565b90506139f5818a613882565b6040805180820190915260028152611a9960f11b60208201529093506001600160801b03841115613a395760405162461bcd60e51b81526004016106aa9190614ebb565b505060018b0180546001600160801b03808516600160801b0291161790555b505b600399909901805464ffffffffff60801b1916600160801b4264ffffffffff1602179055989650505050505050565b613a9161424f565b613a9a87613c54565b6101208201819052613aac5750613c4c565b8660050160009054906101000a90046001600160a01b03166001600160a01b031663797743386040518163ffffffff1660e01b815260040160806040518083038186803b158015613afc57600080fd5b505afa158015613b10573d6000803e3d6000fd5b505050506040513d601f19601f82011682018060405250810190613b349190614a0f565b64ffffffffff1661014085015260a084015282526020820152613b578686613882565b6080820152613b668684613882565b606082015260a0810151610140820151613b88919064ffffffffff8516613e21565b60c082018190526020820151613b9d91613882565b60408201819052608082015182516060840151613bc29392612265929091839161355a565b60e08201819052610120820151613bd9919061379b565b61010082018190521561308657600480880154610100830151604051637df5bd3b60e01b81526001600160a01b0390921692637df5bd3b92613c1e92918991016156f0565b600060405180830381600087803b158015613c3857600080fd5b505af1158015611035573d6000803e3d6000fd5b505050505050565b5460401c61ffff1690565b613c71826001600160a01b0316612da7565b613c8d5760405162461bcd60e51b81526004016106aa90614fee565b600080836001600160a01b031683604051613ca89190614b8f565b6000604051808303816000865af19150503d8060008114613ce5576040519150601f19603f3d011682016040523d82523d6000602084013e613cea565b606091505b509150915081613d0c5760405162461bcd60e51b81526004016106aa90614ece565b805115612f395780806020019051810190613d279190614844565b612f395760405162461bcd60e51b81526004016106aa90614f51565b604080518082019091526002815261035360f41b602082015260009082613d7d5760405162461bcd60e51b81526004016106aa9190614ebb565b506000613d8b6002846157b1565b9050670de0b6b3a7640000613da282600019615904565b613dac91906157b1565b84111560405180604001604052806002815260200161068760f31b81525090613de85760405162461bcd60e51b81526004016106aa9190614ebb565b508281613dfd670de0b6b3a7640000876158e5565b613e079190615799565b612d9f91906157b1565b6b033b2e3c9fd0803ce800000090565b600080613e358364ffffffffff8616612c6c565b905080613e4c57613e44613e11565b915050611447565b6000613e59600183615904565b9050600060028311613e6c576000613e77565b613e77600284615904565b90506000613e896301e13380896157b1565b90506000613e978280613882565b90506000613ea58284613882565b905060006002613ebf84613eb98a8a613714565b90613714565b613ec991906157b1565b905060006006613edf84613eb989818d8d613714565b613ee991906157b1565b9050613f068161387c8481613efe8a8e613714565b61387c613e11565b9c9b505050505050505050505050565b6040518060200160405280600081525090565b6040805161016081018252600080825260208201819052918101829052606081018290526080810182905260a0810182905260c0810182905260e081018290526101008101829052610120810182905261014081019190915290565b604051806102200160405280613f99613f16565b815260006020820181905260408201819052606082018190526080820181905260a0820181905260c0820181905260e08201819052610100820181905261012082018190526101408201819052610160820181905261018082018190526101a082018190526101c082018190526101e082018190526102009091015290565b6040805160c081018252600080825260208201819052918101829052606081018290526080810182905260a081019190915290565b60405180610180016040528060006001600160a01b031681526020016060815260200160006001600160401b03168152602001606081526020016060815260200160006001600160a01b0316815260200160608152602001600061ffff1681526020016000815260200160006001600160a01b031681526020016000815260200160006001600160a01b031681525090565b604051806102e0016040528060006001600160401b03168152602001600081526020016000815260200160008152602001600081526020016000815260200160008152602001600081526020016000815260200160008152602001600081526020016000815260200160008152602001600081526020016000815260200160001515815260200160006001600160a01b031681526020016000151581526020016000151581526020016000815260200160006001600160a01b0316815260200160006001600160a01b0316815260200160006001600160401b031681525090565b60405180610100016040528060006001600160a01b03168152602001600081526020016000815260200160008152602001600081526020016000815260200160008152602001600081525090565b6040518060a0016040528060006001600160a01b0316815260200160006001600160a01b031681526020016000815260200160008152602001600081525090565b60405180610160016040528060008152602001600081526020016000815260200160008152602001600081526020016000815260200160008152602001600081526020016000815260200160008152602001600064ffffffffff1681525090565b803561058c816159a4565b60008083601f8401126142cc578081fd5b5081356001600160401b038111156142e2578182fd5b602083019150836020808302850101111561355357600080fd5b803561058c816159b9565b60008083601f840112614318578182fd5b5081356001600160401b0381111561432e578182fd5b60208301915083602082850101111561355357600080fd5b803561ffff8116811461058c57600080fd5b80356001600160401b038116811461058c57600080fd5b803560ff8116811461058c57600080fd5b600060208284031215614391578081fd5b8135611447816159a4565b6000602082840312156143ad578081fd5b8151611447816159a4565b60008060008060008060c087890312156143d0578182fd5b86356143db816159a4565b955060208701356143eb816159a4565b94506143f960408801614358565b93506060870135614409816159a4565b92506080870135915060a0870135614420816159b9565b809150509295509295509295565b6000806000806000806000806000806000806101008d8f031215614450578586fd5b6144598d6142b0565b9b506001600160401b0360208e01351115614472578586fd5b6144828e60208f01358f016142bb565b909b50995061449360408e01614358565b98506001600160401b0360608e013511156144ac578586fd5b6144bc8e60608f01358f016142bb565b90985096506001600160401b0360808e013511156144d8578586fd5b6144e88e60808f01358f016142bb565b90965094506144f960a08e016142b0565b93506001600160401b0360c08e01351115614512578283fd5b6145228e60c08f01358f01614307565b909350915061453360e08e01614346565b90509295989b509295989b509295989b565b60008060408385031215614557578182fd5b8235614562816159a4565b915061457060208401614358565b90509250929050565b60008060006060848603121561458d578283fd5b8335614598816159a4565b92506145a660208501614358565b915060408401356145b6816159a4565b809150509250925092565b600080600080600080600060e0888a0312156145db578081fd5b87356145e6816159a4565b96506145f460208901614358565b95506040880135614604816159a4565b94506060880135614614816159a4565b9699959850939660808101359560a0820135955060c0909101359350915050565b600080600060608486031215614649578081fd5b8335614654816159a4565b925061466260208501614358565b915060408401356145b6816159b9565b600080600060608486031215614686578081fd5b8335614691816159a4565b925061469f60208501614358565b9150604084013590509250925092565b600080600080608085870312156146c4578182fd5b84356146cf816159a4565b93506146dd60208601614358565b92506040850135915060608501356146f4816159a4565b939692955090935050565b600080600080600060a08688031215614716578283fd5b8535614721816159a4565b945061472f60208701614358565b9350604086013592506060860135614746816159a4565b915061475460808701614346565b90509295509295909350565b600080600080600060a08688031215614777578283fd5b8535614782816159a4565b945061479060208701614358565b9350604086013592506060860135915060808601356147ae816159a4565b809150509295509295909350565b60008060008060008060c087890312156147d4578384fd5b86356147df816159a4565b95506147ed60208801614358565b9450604087013593506060870135925061480960808801614346565b915060a0870135614420816159a4565b6000806040838503121561482b578182fd5b8235614836816159a4565b91506145706020840161436f565b600060208284031215614855578081fd5b8151611447816159b9565b60008060408385031215614872578182fd5b8235614562816159b9565b600080600080600060a08688031215614894578283fd5b85356001600160401b038111156148a9578384fd5b86016102a081890312156148bb578384fd5b945060208601356148cb816159a4565b935060408601356148db816159a4565b925060608601356148eb816159a4565b915061475460808701614358565b60006020828403121561490a578081fd5b5051919050565b60008060408385031215614923578182fd5b8251915060208301516001600160401b0380821115614940578283fd5b818501915085601f830112614953578283fd5b8151818111156149655761496561598e565b604051601f8201601f1916810160200183811182821017156149895761498961598e565b6040528181528382016020018810156149a0578485fd5b6149b182602083016020870161591b565b809450505050509250929050565b600080604083850312156149d1578182fd5b505080516020909101519092909150565b6000806000606084860312156149f6578081fd5b8351925060208401519150604084015190509250925092565b60008060008060808587031215614a24578182fd5b845193506020850151925060408501519150606085015164ffffffffff811681146146f4578182fd5b600060208284031215614a5e578081fd5b61144782614358565b6001600160a01b03169052565b6000815180845260208085019450808401835b83811015614aac5781516001600160a01b031687529582019590820190600101614a87565b509495945050505050565b6000815180845260208085019450808401835b83811015614aac57815187529582019590820190600101614aca565b15159052565b60008284528282602086013780602084860101526020601f19601f85011685010190509392505050565b60008151808452614b2e81602086016020860161591b565b601f01601f19169290920160200192915050565b60038110614b5257614b52615978565b9052565b519052565b6001600160801b03169052565b61ffff169052565b64ffffffffff169052565b6001600160401b03169052565b60ff169052565b60008251614ba181846020870161591b565b9190910192915050565b6001600160a01b0391909116815260200190565b6001600160a01b039384168152919092166020820152604081019190915260600190565b6001600160a01b03948516815292909316602083015260408201526001600160801b03909116606082015260800190565b6001600160a01b03988916815296909716602087015260408601949094526060850192909252608084015260a083015260c082015260e08101919091526101000190565b6001600160a01b03968716815294861660208601526001600160401b0393909316604085015293166060830152608082019290925290151560a082015260c00190565b6001600160a01b03929092168252602082015260400190565b6001600160a01b0393909316835260208301919091526001600160801b0316604082015260600190565b6020808252825182820181905260009190848201906040850190845b81811015614d1f5783516001600160a01b031683529284019291840191600101614cfa565b50909695505050505050565b901515815260200190565b6020810160028310614d4a57614d4a615978565b91905290565b8681526020810186905260408101859052606081018490526001600160a01b03831660808201528151610200820190614d8d9060a0840190614a67565b6020830151614d9f60c0840182614b7b565b506040830151614db260e0840182614a67565b506060830151610100614dc781850183614a67565b60808501519150610120828186015260a08601519250610140838187015260c08701519350614dfa610160870185614a67565b60e08701519350614e0f610180870185614b68565b828701519350614e236101a0870185614ae6565b818701516101c0870152808701516101e087015250505050979650505050505050565b9586526020808701959095526040808701949094528251606080880191909152948301516001600160a01b03908116608080890191909152948401516001600160401b031660a08801529483015160c08701529290910151831660e08501529091166101008301526101208201526101400190565b6000602082526114476020830184614b16565b6020808252818101527f5361666545524332303a206c6f772d6c6576656c2063616c6c206661696c6564604082015260600190565b6020808252602e908201527f436f6e747261637420696e7374616e63652068617320616c726561647920626560408201526d195b881a5b9a5d1a585b1a5e995960921b606082015260800190565b6020808252602a908201527f5361666545524332303a204552433230206f7065726174696f6e20646964206e6040820152691bdd081cdd58d8d9595960b21b606082015260800190565b60208082526033908201527f63616c63756c617465557365724163636f756e7444617461207472616e6368656040820152720496420646f6573206e6f74206c696e6520757606c1b606082015260800190565b6020808252601f908201527f5361666545524332303a2063616c6c20746f206e6f6e2d636f6e747261637400604082015260600190565b9051815260200190565b600061022082019050615043828451614b56565b60208301516150556020840182614b5b565b5060408301516150686040840182614b5b565b50606083015161507b6060840182614b5b565b50608083015161508e6080840182614b5b565b5060a08301516150a160a0840182614b5b565b5060c08301516150b460c0840182614b70565b5060e08301516150c760e0840182614a67565b50610100808401516150db82850182614a67565b5050610120808401516150f082850182614a67565b50506101408084015161510582850182614a67565b50506101608084015161511a82850182614b88565b50506101808084015161512f82850182614b7b565b50506101a083810151908301526101c08084015161514f82850182614ae6565b50506101e08084015161516482850182614ae6565b505061020092830151919092015290565b8681526001600160a01b03868116602083015285811660408301528416606082015260c0608082018190526000906151b79083016151b2866142b0565b614a67565b6151c3602085016142b0565b6151d060e0840182614a67565b506151dd604085016142b0565b6101006151ec81850183614a67565b6151f86060870161436f565b915061012061520981860184614b88565b615215608088016142b0565b925061014061522681870185614a67565b61523260a089016142b0565b935061016061524381880186614a67565b61524f60c08a016142b0565b945061018061526081890187614a67565b61526c60e08b016142b0565b95506101a061527d818a0188614a67565b615289868c018c615755565b975095506102a06101c081818c01526152a76103608c018a8a614aec565b98506152b5878e018e615755565b9850965060bf19808c8b03016101e08d01526152d28a8a8a614aec565b99506152e0878f018f615755565b995097506102009650808c8b0301878d01526152fd8a8a8a614aec565b995061530b868f018f615755565b995097506102209550808c8b0301868d01526153288a8a8a614aec565b9950615336858f018f615755565b995097506102409450808c8b0301858d01526153538a8a8a614aec565b9950615361848f018f615755565b995097506102609350808c8b0301848d015261537e8a8a8a614aec565b995061538c828f018f615755565b995097506102809150808c8b0301828d01526153a98a8a8a614aec565b99506153b96101e08f018f615755565b99509750808c8b0301838d0152506153d2898989614aec565b98506153df868e0161436f565b97506153ef6102c08c0189614b88565b848d01356102e08c0152615404848e016142fc565b97506154146103008c0189614ae6565b61541f838e016142fc565b975061542f6103208c0189614ae6565b808d01356103408c015250505050505050508091505061545260a0830184614b7b565b979650505050505050565b9889526001600160a01b0397881660208a015295151560408901526060880194909452608087019290925260a086015260c085015290911660e08301526101008201526101200190565b9485526001600160a01b03938416602086015291831660408501528216606084015216608082015260a00190565b60006101008201905084825260018060a01b038085511660208401526001600160401b036020860151166040840152806040860151166060840152606085015160808401528060808601511660a08401525061ffff60a08501511660c08301528260e0830152949350505050565b600060a082019050868252856020830152846040830152836060830152610db06080830184614b42565b8681526020810186905260c081016155886040830187614b42565b6001600160a01b03949094166060820152608081019290925260a0909101529392505050565b600060c082526155c260c083018951614a67565b60208801516101808060e08501526155de610240850183614a74565b915060408a01516101006155f481870183614b7b565b60608c0151915060bf196101208188870301818901526156148685614ab7565b955060808e015193506101408289880301818a01526156338786614ab7565b965060a08f0151945061564a6101608a0186614a67565b60c08f015194508289880301868a01526156648786614b16565b965060e08f0151955061567b6101a08a0187614b68565b838f01516101c08a0152818f015195506156996101e08a0187614a67565b808f01516102008a01525050505050506101608901516156bd610220850182614a67565b5060208301979097525060408101949094526060840192909252608083015260a090910152919050565b90815260200190565b918252602082015260400190565b948552602085019390935260408401919091526001600160801b03908116606084015216608082015260a00190565b958652602086019490945260408501929092526060840152608083015260a082015260c00190565b6000808335601e1984360301811261576b578283fd5b83016020810192503590506001600160401b0381111561578a57600080fd5b80360383131561355357600080fd5b600082198211156157ac576157ac615962565b500190565b6000826157cc57634e487b7160e01b81526012600452602481fd5b500490565b80825b60018086116157e3575061580e565b8187048211156157f5576157f5615962565b8086161561580257918102915b9490941c9380026157d4565b94509492505050565b6000611447600019848460008261583057506001611447565b8161583d57506000611447565b8160018114615853576002811461585d5761588a565b6001915050611447565b60ff84111561586e5761586e615962565b6001841b91508482111561588457615884615962565b50611447565b5060208310610133831016604e8410600b84101617156158bd575081810a838111156158b8576158b8615962565b611447565b6158ca84848460016157d1565b8086048211156158dc576158dc615962565b02949350505050565b60008160001904831182151516156158ff576158ff615962565b500290565b60008282101561591657615916615962565b500390565b60005b8381101561593657818101518382015260200161591e565b83811115612f395750506000910152565b600060001982141561595b5761595b615962565b5060010190565b634e487b7160e01b600052601160045260246000fd5b634e487b7160e01b600052602160045260246000fd5b634e487b7160e01b600052604160045260246000fd5b6001600160a01b0381168114612d3757600080fd5b8015158114612d3757600080fdfea2646970667358221220ac8d38b7c6ffe97fbd8685d29a6236d3e137200bc9db76c915ff8680fdcfa3b664736f6c63430008000033",
  "linkReferences": {
    "contracts/protocol/libraries/logic/DepositWithdrawLogic.sol": {
      "DepositWithdrawLogic": [
        {
          "length": 20,
          "start": 2449
        },
        {
          "length": 20,
          "start": 3413
        },
        {
          "length": 20,
          "start": 4099
        },
        {
          "length": 20,
          "start": 4825
        }
      ]
    },
    "contracts/protocol/libraries/logic/ReserveLogic.sol": {
      "ReserveLogic": [
        {
          "length": 20,
          "start": 5408
        }
      ]
    },
    "contracts/protocol/libraries/logic/ValidationLogic.sol": {
      "ValidationLogic": [
        {
          "length": 20,
          "start": 1855
        },
        {
          "length": 20,
          "start": 6053
        },
        {
          "length": 20,
          "start": 6800
        },
        {
          "length": 20,
          "start": 8350
        }
      ]
    }
  },
  "deployedLinkReferences": {
    "contracts/protocol/libraries/logic/DepositWithdrawLogic.sol": {
      "DepositWithdrawLogic": [
        {
          "length": 20,
          "start": 2412
        },
        {
          "length": 20,
          "start": 3376
        },
        {
          "length": 20,
          "start": 4062
        },
        {
          "length": 20,
          "start": 4788
        }
      ]
    },
    "contracts/protocol/libraries/logic/ReserveLogic.sol": {
      "ReserveLogic": [
        {
          "length": 20,
          "start": 5371
        }
      ]
    },
    "contracts/protocol/libraries/logic/ValidationLogic.sol": {
      "ValidationLogic": [
        {
          "length": 20,
          "start": 1818
        },
        {
          "length": 20,
          "start": 6016
        },
        {
          "length": 20,
          "start": 6763
        },
        {
          "length": 20,
          "start": 8313
        }
      ]
    }
  }
}