{
  "_format": "hh-sol-artifact-1",
  "contractName": "GenericLogic",
  "sourceName": "contracts/protocol/libraries/logic/GenericLogic.sol",
  "abi": [
    {
      "inputs": [],
      "name": "HEALTH_FACTOR_LIQUIDATION_THRESHOLD",
      "outputs": [
        {
          "internalType": "uint256",
          "name": "",
          "type": "uint256"
        }
      ],
      "stateMutability": "view",
      "type": "function"
    }
  ],
  "bytecode": "0x610f3461003a600b82828239805160001a60731461002d57634e487b7160e01b600052600060045260246000fd5b30600052607381538281f3fe73000000000000000000000000000000000000000030146080604052600436106100405760003560e01c8063c3525c2814610045578063e617042414610063575b600080fd5b61004d610083565b60405161005a9190610d42565b60405180910390f35b610076610071366004610be6565b61008f565b60405161005a9190610ce4565b670de0b6b3a764000081565b60006100a86100a336879003870187610c6b565b6102c4565b15806100f057506001600160a01b0389166000908152602087905260409020600701546100ee90600160a01b900460ff166100e836889003880188610c6b565b906102f0565b155b156100fd575060016102b8565b610105610ae0565b6001600160a01b038a16600090815260208890526040902061012690610361565b5084525060208301819052151590506101435760019150506102b8565b61015f8988610157368a90038a018a610c6b565b88888861038c565b506080850152506060830181905260408301919091526101835760019150506102b8565b80516102209061019490600a610dc9565b61021a8a866001600160a01b031663b3596f078f6040518263ffffffff1660e01b81526004016101c49190610cd0565b60206040518083038186803b1580156101dc57600080fd5b505afa1580156101f0573d6000803e3d6000fd5b505050506040513d601f19601f820116820180604052508101906102149190610cb8565b9061085d565b90610870565b60a0820181905260408201516102359161087c565b60c0820181905261024a5760009150506102b8565b6102898160c0015161021a61027084602001518560a0015161085d90919063ffffffff16565b608085015160408601516102839161085d565b9061087c565b60e0820181905260c082015160608301516000926102a8929190610888565b670de0b6b3a76400001115925050505b98975050505050505050565b80517f55555555555555555555555555555555555555555555555555555555555555551615155b919050565b60006080821060405180604001604052806002815260200161373760f01b815250906103385760405162461bcd60e51b815260040161032f9190610cef565b60405180910390fd5b50610344826002610e97565b61034f906001610d4b565b83516001911c16151590505b92915050565b5461ffff80821692601083901c821692602081901c831692603082901c60ff169260409290921c1690565b600080600080600061039c610b35565b6103a58a6108b4565b156103c357600080600080600019955095509550955095505061084f565b600060e08201525b878160e0015110156107ae5760e08101516103e7908b906108b9565b6103f057610796565b60e0810151600090815260208a81526040808320546001600160a01b03166101e085018190528352908d9052902061042781610361565b506080860181905260c08601929092525060a084019190915261044b90600a610dc9565b60208301526101e082015160405163b3596f0760e01b81526001600160a01b038a169163b3596f07916104819190600401610cd0565b60206040518083038186803b15801561049957600080fd5b505afa1580156104ad573d6000803e3d6000fd5b505050506040513d601f19601f820116820180604052508101906104d19190610cb8565b825260c0820151158015906104f1575060e08201516104f1908c906102f0565b1561060f578060040160009054906101000a90046001600160a01b03166001600160a01b03166370a082318e6040518263ffffffff1660e01b81526004016105399190610cd0565b60206040518083038186803b15801561055157600080fd5b505afa158015610565573d6000803e3d6000fd5b505050506040513d601f19601f820116820180604052508101906105899190610cb8565b60408301819052602083015183516000926105a8929161021a9161085d565b6101208401519091506105bb9082610914565b61012084015260a08301516105e1906105d590839061085d565b61016085015190610914565b61016084015260c0830151610607906105fb90839061085d565b61018085015190610914565b610180840152505b60e082015161061f908c90610920565b15610794578060050160009054906101000a90046001600160a01b03166001600160a01b03166370a082318e6040518263ffffffff1660e01b81526004016106679190610cd0565b60206040518083038186803b15801561067f57600080fd5b505afa158015610693573d6000803e3d6000fd5b505050506040513d601f19601f820116820180604052508101906106b79190610cb8565b8260600181815250506107618160060160009054906101000a90046001600160a01b03166001600160a01b03166370a082318f6040518263ffffffff1660e01b81526004016107069190610cd0565b60206040518083038186803b15801561071e57600080fd5b505afa158015610732573d6000803e3d6000fd5b505050506040513d601f19601f820116820180604052508101906107569190610cb8565b606084015190610914565b606083018190526020830151835161078d92610781929161021a9161085d565b61014084015190610914565b6101408301525b505b60e081018051906107a682610ecd565b9052506103cb565b6000816101200151116107c25760006107d7565b6101208101516101608201516107d791610870565b6101608201526101208101516107ee576000610803565b61012081015161018082015161080391610870565b610180820181905261012082015161014083015161082092610888565b610100820181905261012082015161014083015161016084015161018090940151919850965091945090925090505b965096509650965096915050565b60006108698284610e97565b9392505050565b60006108698284610d63565b60006108698284610eb6565b6000826108985750600019610869565b6108ac836108a6868561096b565b90610a12565b949350505050565b511590565b60006080821060405180604001604052806002815260200161373760f01b815250906108f85760405162461bcd60e51b815260040161032f9190610cef565b50610904826002610e97565b925190921c600316151592915050565b60006108698284610d4b565b60006080821060405180604001604052806002815260200161373760f01b8152509061095f5760405162461bcd60e51b815260040161032f9190610cef565b5061034f826002610e97565b6000821580610978575081155b156109855750600061035b565b816109936002612710610d63565b61099f90600019610eb6565b6109a99190610d63565b83111560405180604001604052806002815260200161068760f31b815250906109e55760405162461bcd60e51b815260040161032f9190610cef565b506127106109f4600282610d63565b6109fe8486610e97565b610a089190610d4b565b6108699190610d63565b604080518082019091526002815261035360f41b602082015260009082610a4c5760405162461bcd60e51b815260040161032f9190610cef565b506000610a5a600284610d63565b9050670de0b6b3a7640000610a7182600019610eb6565b610a7b9190610d63565b84111560405180604001604052806002815260200161068760f31b81525090610ab75760405162461bcd60e51b815260040161032f9190610cef565b508281610acc670de0b6b3a764000087610e97565b610ad69190610d4b565b6108ac9190610d63565b6040518061014001604052806000815260200160008152602001600081526020016000815260200160008152602001600081526020016000815260200160008152602001600081526020016000151581525090565b604051806102400160405280600081526020016000815260200160008152602001600081526020016000815260200160008152602001600081526020016000815260200160008152602001600081526020016000815260200160008152602001600081526020016000815260200160001515815260200160006001600160a01b031681526020016000151581526020016000151581525090565b80356001600160a01b03811681146102eb57600080fd5b600080600080600080600080888a03610100811215610c03578485fd5b610c0c8a610bcf565b9850610c1a60208b01610bcf565b975060408a0135965060608a013595506020607f1982011215610c3b578485fd5b5060808901935060a0890135925060c08901359150610c5c60e08a01610bcf565b90509295985092959890939650565b600060208284031215610c7c578081fd5b6040516020810181811067ffffffffffffffff82111715610cab57634e487b7160e01b83526041600452602483fd5b6040529135825250919050565b600060208284031215610cc9578081fd5b5051919050565b6001600160a01b0391909116815260200190565b901515815260200190565b6000602080835283518082850152825b81811015610d1b57858101830151858201604001528201610cff565b81811115610d2c5783604083870101525b50601f01601f1916929092016040019392505050565b90815260200190565b60008219821115610d5e57610d5e610ee8565b500190565b600082610d7e57634e487b7160e01b81526012600452602481fd5b500490565b80825b6001808611610d955750610dc0565b818704821115610da757610da7610ee8565b80861615610db457918102915b9490941c938002610d86565b94509492505050565b60006108696000198484600082610de257506001610869565b81610def57506000610869565b8160018114610e055760028114610e0f57610e3c565b6001915050610869565b60ff841115610e2057610e20610ee8565b6001841b915084821115610e3657610e36610ee8565b50610869565b5060208310610133831016604e8410600b8410161715610e6f575081810a83811115610e6a57610e6a610ee8565b610869565b610e7c8484846001610d83565b808604821115610e8e57610e8e610ee8565b02949350505050565b6000816000190483118215151615610eb157610eb1610ee8565b500290565b600082821015610ec857610ec8610ee8565b500390565b6000600019821415610ee157610ee1610ee8565b5060010190565b634e487b7160e01b600052601160045260246000fdfea2646970667358221220b6e243a8c33523ee85ffa9299e40162eaa57f9fcc7dc0f6abc72eb01f4d0a67564736f6c63430008000033",
  "linkReferences": {},
  "deployedLinkReferences": {}
}