{
  "_format": "hh-sol-artifact-1",
  "contractName": "StableDebtToken",
  "sourceName": "contracts/protocol/tokenization/StableDebtToken.sol",
  "abi": [
    {
      "anonymous": false,
      "inputs": [
        {
          "indexed": true,
          "internalType": "address",
          "name": "owner",
          "type": "address"
        },
        {
          "indexed": true,
          "internalType": "address",
          "name": "spender",
          "type": "address"
        },
        {
          "indexed": false,
          "internalType": "uint256",
          "name": "value",
          "type": "uint256"
        }
      ],
      "name": "Approval",
      "type": "event"
    },
    {
      "anonymous": false,
      "inputs": [
        {
          "indexed": true,
          "internalType": "address",
          "name": "fromUser",
          "type": "address"
        },
        {
          "indexed": true,
          "internalType": "address",
          "name": "toUser",
          "type": "address"
        },
        {
          "indexed": false,
          "internalType": "address",
          "name": "asset",
          "type": "address"
        },
        {
          "indexed": false,
          "internalType": "uint256",
          "name": "amount",
          "type": "uint256"
        }
      ],
      "name": "BorrowAllowanceDelegated",
      "type": "event"
    },
    {
      "anonymous": false,
      "inputs": [
        {
          "indexed": true,
          "internalType": "address",
          "name": "user",
          "type": "address"
        },
        {
          "indexed": false,
          "internalType": "uint256",
          "name": "amount",
          "type": "uint256"
        },
        {
          "indexed": false,
          "internalType": "uint256",
          "name": "currentBalance",
          "type": "uint256"
        },
        {
          "indexed": false,
          "internalType": "uint256",
          "name": "balanceIncrease",
          "type": "uint256"
        },
        {
          "indexed": false,
          "internalType": "uint256",
          "name": "avgStableRate",
          "type": "uint256"
        },
        {
          "indexed": false,
          "internalType": "uint256",
          "name": "newTotalSupply",
          "type": "uint256"
        }
      ],
      "name": "Burn",
      "type": "event"
    },
    {
      "anonymous": false,
      "inputs": [
        {
          "indexed": true,
          "internalType": "address",
          "name": "underlyingAsset",
          "type": "address"
        },
        {
          "indexed": true,
          "internalType": "address",
          "name": "pool",
          "type": "address"
        },
        {
          "indexed": false,
          "internalType": "address",
          "name": "incentivesController",
          "type": "address"
        },
        {
          "indexed": false,
          "internalType": "uint8",
          "name": "debtTokenDecimals",
          "type": "uint8"
        },
        {
          "indexed": false,
          "internalType": "string",
          "name": "debtTokenName",
          "type": "string"
        },
        {
          "indexed": false,
          "internalType": "string",
          "name": "debtTokenSymbol",
          "type": "string"
        },
        {
          "indexed": false,
          "internalType": "bytes",
          "name": "params",
          "type": "bytes"
        }
      ],
      "name": "Initialized",
      "type": "event"
    },
    {
      "anonymous": false,
      "inputs": [
        {
          "indexed": true,
          "internalType": "address",
          "name": "user",
          "type": "address"
        },
        {
          "indexed": true,
          "internalType": "address",
          "name": "onBehalfOf",
          "type": "address"
        },
        {
          "indexed": false,
          "internalType": "uint256",
          "name": "amount",
          "type": "uint256"
        },
        {
          "indexed": false,
          "internalType": "uint256",
          "name": "currentBalance",
          "type": "uint256"
        },
        {
          "indexed": false,
          "internalType": "uint256",
          "name": "balanceIncrease",
          "type": "uint256"
        },
        {
          "indexed": false,
          "internalType": "uint256",
          "name": "newRate",
          "type": "uint256"
        },
        {
          "indexed": false,
          "internalType": "uint256",
          "name": "avgStableRate",
          "type": "uint256"
        },
        {
          "indexed": false,
          "internalType": "uint256",
          "name": "newTotalSupply",
          "type": "uint256"
        }
      ],
      "name": "Mint",
      "type": "event"
    },
    {
      "anonymous": false,
      "inputs": [
        {
          "indexed": true,
          "internalType": "address",
          "name": "from",
          "type": "address"
        },
        {
          "indexed": true,
          "internalType": "address",
          "name": "to",
          "type": "address"
        },
        {
          "indexed": false,
          "internalType": "uint256",
          "name": "value",
          "type": "uint256"
        }
      ],
      "name": "Transfer",
      "type": "event"
    },
    {
      "inputs": [],
      "name": "DEBT_TOKEN_REVISION",
      "outputs": [
        {
          "internalType": "uint256",
          "name": "",
          "type": "uint256"
        }
      ],
      "stateMutability": "view",
      "type": "function"
    },
    {
      "inputs": [],
      "name": "POOL",
      "outputs": [
        {
          "internalType": "contract ILendingPool",
          "name": "",
          "type": "address"
        }
      ],
      "stateMutability": "view",
      "type": "function"
    },
    {
      "inputs": [],
      "name": "UNDERLYING_ASSET_ADDRESS",
      "outputs": [
        {
          "internalType": "address",
          "name": "",
          "type": "address"
        }
      ],
      "stateMutability": "view",
      "type": "function"
    },
    {
      "inputs": [
        {
          "internalType": "address",
          "name": "owner",
          "type": "address"
        },
        {
          "internalType": "address",
          "name": "spender",
          "type": "address"
        }
      ],
      "name": "allowance",
      "outputs": [
        {
          "internalType": "uint256",
          "name": "",
          "type": "uint256"
        }
      ],
      "stateMutability": "view",
      "type": "function"
    },
    {
      "inputs": [
        {
          "internalType": "address",
          "name": "spender",
          "type": "address"
        },
        {
          "internalType": "uint256",
          "name": "amount",
          "type": "uint256"
        }
      ],
      "name": "approve",
      "outputs": [
        {
          "internalType": "bool",
          "name": "",
          "type": "bool"
        }
      ],
      "stateMutability": "nonpayable",
      "type": "function"
    },
    {
      "inputs": [
        {
          "internalType": "address",
          "name": "delegatee",
          "type": "address"
        },
        {
          "internalType": "uint256",
          "name": "amount",
          "type": "uint256"
        }
      ],
      "name": "approveDelegation",
      "outputs": [],
      "stateMutability": "nonpayable",
      "type": "function"
    },
    {
      "inputs": [
        {
          "internalType": "address",
          "name": "account",
          "type": "address"
        }
      ],
      "name": "balanceOf",
      "outputs": [
        {
          "internalType": "uint256",
          "name": "",
          "type": "uint256"
        }
      ],
      "stateMutability": "view",
      "type": "function"
    },
    {
      "inputs": [
        {
          "internalType": "address",
          "name": "fromUser",
          "type": "address"
        },
        {
          "internalType": "address",
          "name": "toUser",
          "type": "address"
        }
      ],
      "name": "borrowAllowance",
      "outputs": [
        {
          "internalType": "uint256",
          "name": "",
          "type": "uint256"
        }
      ],
      "stateMutability": "view",
      "type": "function"
    },
    {
      "inputs": [
        {
          "internalType": "address",
          "name": "user",
          "type": "address"
        },
        {
          "internalType": "uint256",
          "name": "amount",
          "type": "uint256"
        }
      ],
      "name": "burn",
      "outputs": [],
      "stateMutability": "nonpayable",
      "type": "function"
    },
    {
      "inputs": [],
      "name": "decimals",
      "outputs": [
        {
          "internalType": "uint8",
          "name": "",
          "type": "uint8"
        }
      ],
      "stateMutability": "view",
      "type": "function"
    },
    {
      "inputs": [
        {
          "internalType": "address",
          "name": "spender",
          "type": "address"
        },
        {
          "internalType": "uint256",
          "name": "subtractedValue",
          "type": "uint256"
        }
      ],
      "name": "decreaseAllowance",
      "outputs": [
        {
          "internalType": "bool",
          "name": "",
          "type": "bool"
        }
      ],
      "stateMutability": "nonpayable",
      "type": "function"
    },
    {
      "inputs": [],
      "name": "getAverageStableRate",
      "outputs": [
        {
          "internalType": "uint256",
          "name": "",
          "type": "uint256"
        }
      ],
      "stateMutability": "view",
      "type": "function"
    },
    {
      "inputs": [],
      "name": "getIncentivesController",
      "outputs": [
        {
          "internalType": "contract IAaveIncentivesController",
          "name": "",
          "type": "address"
        }
      ],
      "stateMutability": "view",
      "type": "function"
    },
    {
      "inputs": [],
      "name": "getSupplyData",
      "outputs": [
        {
          "internalType": "uint256",
          "name": "",
          "type": "uint256"
        },
        {
          "internalType": "uint256",
          "name": "",
          "type": "uint256"
        },
        {
          "internalType": "uint256",
          "name": "",
          "type": "uint256"
        },
        {
          "internalType": "uint40",
          "name": "",
          "type": "uint40"
        }
      ],
      "stateMutability": "view",
      "type": "function"
    },
    {
      "inputs": [],
      "name": "getTotalSupplyAndAvgRate",
      "outputs": [
        {
          "internalType": "uint256",
          "name": "",
          "type": "uint256"
        },
        {
          "internalType": "uint256",
          "name": "",
          "type": "uint256"
        }
      ],
      "stateMutability": "view",
      "type": "function"
    },
    {
      "inputs": [],
      "name": "getTotalSupplyLastUpdated",
      "outputs": [
        {
          "internalType": "uint40",
          "name": "",
          "type": "uint40"
        }
      ],
      "stateMutability": "view",
      "type": "function"
    },
    {
      "inputs": [
        {
          "internalType": "address",
          "name": "user",
          "type": "address"
        }
      ],
      "name": "getUserLastUpdated",
      "outputs": [
        {
          "internalType": "uint40",
          "name": "",
          "type": "uint40"
        }
      ],
      "stateMutability": "view",
      "type": "function"
    },
    {
      "inputs": [
        {
          "internalType": "address",
          "name": "user",
          "type": "address"
        }
      ],
      "name": "getUserStableRate",
      "outputs": [
        {
          "internalType": "uint256",
          "name": "",
          "type": "uint256"
        }
      ],
      "stateMutability": "view",
      "type": "function"
    },
    {
      "inputs": [
        {
          "internalType": "address",
          "name": "spender",
          "type": "address"
        },
        {
          "internalType": "uint256",
          "name": "addedValue",
          "type": "uint256"
        }
      ],
      "name": "increaseAllowance",
      "outputs": [
        {
          "internalType": "bool",
          "name": "",
          "type": "bool"
        }
      ],
      "stateMutability": "nonpayable",
      "type": "function"
    },
    {
      "inputs": [
        {
          "internalType": "contract ILendingPool",
          "name": "pool",
          "type": "address"
        },
        {
          "internalType": "address",
          "name": "underlyingAsset",
          "type": "address"
        },
        {
          "internalType": "uint8",
          "name": "tranche",
          "type": "uint8"
        },
        {
          "internalType": "contract IAaveIncentivesController",
          "name": "incentivesController",
          "type": "address"
        },
        {
          "internalType": "uint8",
          "name": "debtTokenDecimals",
          "type": "uint8"
        },
        {
          "internalType": "string",
          "name": "debtTokenName",
          "type": "string"
        },
        {
          "internalType": "string",
          "name": "debtTokenSymbol",
          "type": "string"
        },
        {
          "internalType": "bytes",
          "name": "params",
          "type": "bytes"
        }
      ],
      "name": "initialize",
      "outputs": [],
      "stateMutability": "nonpayable",
      "type": "function"
    },
    {
      "inputs": [
        {
          "internalType": "address",
          "name": "user",
          "type": "address"
        },
        {
          "internalType": "address",
          "name": "onBehalfOf",
          "type": "address"
        },
        {
          "internalType": "uint256",
          "name": "amount",
          "type": "uint256"
        },
        {
          "internalType": "uint256",
          "name": "rate",
          "type": "uint256"
        }
      ],
      "name": "mint",
      "outputs": [
        {
          "internalType": "bool",
          "name": "",
          "type": "bool"
        }
      ],
      "stateMutability": "nonpayable",
      "type": "function"
    },
    {
      "inputs": [],
      "name": "name",
      "outputs": [
        {
          "internalType": "string",
          "name": "",
          "type": "string"
        }
      ],
      "stateMutability": "view",
      "type": "function"
    },
    {
      "inputs": [
        {
          "internalType": "address",
          "name": "user",
          "type": "address"
        }
      ],
      "name": "principalBalanceOf",
      "outputs": [
        {
          "internalType": "uint256",
          "name": "",
          "type": "uint256"
        }
      ],
      "stateMutability": "view",
      "type": "function"
    },
    {
      "inputs": [],
      "name": "symbol",
      "outputs": [
        {
          "internalType": "string",
          "name": "",
          "type": "string"
        }
      ],
      "stateMutability": "view",
      "type": "function"
    },
    {
      "inputs": [],
      "name": "totalSupply",
      "outputs": [
        {
          "internalType": "uint256",
          "name": "",
          "type": "uint256"
        }
      ],
      "stateMutability": "view",
      "type": "function"
    },
    {
      "inputs": [
        {
          "internalType": "address",
          "name": "recipient",
          "type": "address"
        },
        {
          "internalType": "uint256",
          "name": "amount",
          "type": "uint256"
        }
      ],
      "name": "transfer",
      "outputs": [
        {
          "internalType": "bool",
          "name": "",
          "type": "bool"
        }
      ],
      "stateMutability": "nonpayable",
      "type": "function"
    },
    {
      "inputs": [
        {
          "internalType": "address",
          "name": "sender",
          "type": "address"
        },
        {
          "internalType": "address",
          "name": "recipient",
          "type": "address"
        },
        {
          "internalType": "uint256",
          "name": "amount",
          "type": "uint256"
        }
      ],
      "name": "transferFrom",
      "outputs": [
        {
          "internalType": "bool",
          "name": "",
          "type": "bool"
        }
      ],
      "stateMutability": "nonpayable",
      "type": "function"
    }
  ],
  "bytecode": "0x608060405260006006553480156200001657600080fd5b50604080518082018252600e8082526d111150951513d2d15397d253541360921b60208084018281528551808701909652928552840152815191929160009162000064916003919062000098565b5081516200007a90600490602085019062000098565b506005805460ff191660ff92909216919091179055506200017b9050565b828054620000a6906200013e565b90600052602060002090601f016020900481019282620000ca576000855562000115565b82601f10620000e557805160ff191683800117855562000115565b8280016001018555821562000115579182015b8281111562000115578251825591602001919060010190620000f8565b506200012392915062000127565b5090565b5b8082111562000123576000815560010162000128565b6002810460018216806200015357607f821691505b602082108114156200017557634e487b7160e01b600052602260045260246000fd5b50919050565b611b5b806200018b6000396000f3fe608060405234801561001057600080fd5b50600436106101a95760003560e01c806390f6fcf2116100f9578063b9a7b62211610097578063dd62ed3e11610071578063dd62ed3e14610346578063e748489014610354578063e78c9b3b1461035c578063f731e9be1461036f576101a9565b8063b9a7b62214610318578063c04a8a1014610320578063c634dfaa14610333576101a9565b8063a457c2d7116100d3578063a457c2d71461023e578063a9059cbb146102ef578063b16a19de146102fd578063b3f1c93d14610305576101a9565b806390f6fcf2146102cc57806395d89b41146102d45780639dc29fac146102dc576101a9565b806339509351116101665780637535d246116101405780637535d2461461027757806375d264131461028c578063797743381461029457806379ce6b8c146102ac576101a9565b8063395093511461023e5780636bd76d241461025157806370a0823114610264576101a9565b806304bf5306146101ae57806306fdde03146101c3578063095ea7b3146101e157806318160ddd1461020157806323b872dd14610216578063313ce56714610229575b600080fd5b6101c16101bc3660046116a1565b610385565b005b6101cb6104c9565b6040516101d8919061189c565b60405180910390f35b6101f46101ef366004611676565b61055b565b6040516101d89190611891565b610209610575565b6040516101d89190611994565b6101f46102243660046115f1565b610587565b6102316105a1565b6040516101d89190611a2a565b6101f461024c366004611676565b6105aa565b61020961025f3660046115b9565b6105c4565b61020961027236600461159d565b6105f1565b61027f61066b565b6040516101d891906117cd565b61027f610683565b61029c61068d565b6040516101d894939291906119f6565b6102bf6102ba36600461159d565b6106c3565b6040516101d89190611a18565b6102096106e5565b6101cb6106eb565b6101c16102ea366004611676565b6106fa565b6101f4610224366004611676565b61027f6109e2565b6101f4610313366004611631565b6109f1565b610209610cda565b6101c161032e366004611676565b610cdf565b61020961034136600461159d565b610d71565b61020961024c3660046115b9565b6102bf610d7c565b61020961036a36600461159d565b610d89565b610377610da4565b6040516101d892919061199d565b600061038f610dbd565b60075490915060ff16806103a657506103a6610dc2565b806103b2575060065481115b6103d75760405162461bcd60e51b81526004016103ce90611916565b60405180910390fd5b60075460ff161580156103f7576007805460ff1916600117905560068290555b61040086610dc8565b61040985610ddf565b61041287610df2565b603e805465010000000000600160c81b031916650100000000006001600160a01b038e811691820292909217909255603f80546001600160a01b03199081168e841690811790925560408054909116928c1692909217825590517f40251fbfb6656cfa65a00d7879029fec1fad21d28fdcff2f4f68f52795b74f2c906104a3908c908c908c908c908c908c9061181b565b60405180910390a380156104bc576007805460ff191690555b5050505050505050505050565b6060600380546104d890611aa6565b80601f016020809104026020016040519081016040528092919081815260200182805461050490611aa6565b80156105515780601f1061052657610100808354040283529160200191610551565b820191906000526020600020905b81548152906001019060200180831161053457829003601f168201915b5050505050905090565b600060405162461bcd60e51b81526004016103ce90611964565b6000610582603b54610e08565b905090565b600060405162461bcd60e51b81526004016103ce906118af565b60055460ff1690565b600060405162461bcd60e51b81526004016103ce906118df565b6001600160a01b038083166000908152603a60209081526040808320938516835292905220545b92915050565b6000806105fd83610e50565b6001600160a01b0384166000908152603d60205260409020549091508161062957600092505050610666565b6001600160a01b0384166000908152603c602052604081205461065490839064ffffffffff16610e6b565b90506106608382610e7f565b93505050505b919050565b603e546501000000000090046001600160a01b031690565b6000610582610f3a565b6000806000806000603b5490506106a2610f49565b6106ab82610e08565b603e54919790965091945064ffffffffff1692509050565b6001600160a01b03166000908152603c602052604090205464ffffffffff1690565b603b5490565b6060600480546104d890611aa6565b61070261066b565b6001600160a01b0316610713610f4f565b6001600160a01b03161460405180604001604052806002815260200161323960f01b815250906107565760405162461bcd60e51b81526004016103ce919061189c565b5060008061076384610f53565b92509250506000610772610575565b6001600160a01b0386166000908152603d60205260408120549192509081908684116107a7576000603b819055600255610829565b6107b18488610fac565b6002819055915060006107cf6107c686610fb8565b603b5490610e7f565b905060006107e66107df8a610fb8565b8490610e7f565b90508181106108025760006002819055603b8190559450610826565b61081e61080e85610fb8565b6108188484610fac565b9061101b565b603b81905594505b50505b85871415610867576001600160a01b0388166000908152603d60209081526040808320839055603c9091529020805464ffffffffff19169055610895565b6001600160a01b0388166000908152603c60205260409020805464ffffffffff19164264ffffffffff161790555b603e805464ffffffffff19164264ffffffffff16179055868511156109285760006108c08689610fac565b90506108cd8982876110f1565b886001600160a01b0316896001600160a01b03167fc16f4e4ca34d790de4c656c72fd015c667d688f20be64eea360618545c4c530f838a8a878a8a60405161091a969594939291906119ce565b60405180910390a35061098c565b60006109348887610fac565b90506109418982876111a8565b886001600160a01b03167f44bd20a79e993bdcc7cbedf54a3b4d19fb78490124b6b90d04fe3242eea579e882898988886040516109829594939291906119ab565b60405180910390a2505b60006001600160a01b0316886001600160a01b03167fddf252ad1be2c89b69c2b068fc378daa952ba7f163c4a11628f55a4df523b3ef896040516109d09190611994565b60405180910390a35050505050505050565b603f546001600160a01b031690565b60006109fb61066b565b6001600160a01b0316610a0c610f4f565b6001600160a01b03161460405180604001604052806002815260200161323960f01b81525090610a4f5760405162461bcd60e51b81526004016103ce919061189c565b50610a586113f1565b846001600160a01b0316866001600160a01b031614610a7c57610a7c8587866111ea565b600080610a8887610f53565b9250925050610a95610575565b808452603b546080850152610aaa90876112a8565b60028190556020840152610abd86610fb8565b6040840152610b1b610ad7610ad284896112a8565b610fb8565b604085015161081890610aea9089610e7f565b610b15610af687610fb8565b6001600160a01b038d166000908152603d602052604090205490610e7f565b906112a8565b60608401819052604080518082019091526002815261373960f01b6020820152906fffffffffffffffffffffffffffffffff1015610b6c5760405162461bcd60e51b81526004016103ce919061189c565b5060608301516001600160a01b0388166000908152603d6020908152604080832093909355603c8152919020805464ffffffffff421664ffffffffff199182168117909255603e80549091169091179055830151610c0290610bcd90610fb8565b610818610be7866040015189610e7f90919063ffffffff16565b610b15610bf78860000151610fb8565b608089015190610e7f565b603b8190556080840152610c2187610c1a88846112a8565b85516110f1565b866001600160a01b031660006001600160a01b03167fddf252ad1be2c89b69c2b068fc378daa952ba7f163c4a11628f55a4df523b3ef88604051610c659190611994565b60405180910390a3866001600160a01b0316886001600160a01b03167fc16f4e4ca34d790de4c656c72fd015c667d688f20be64eea360618545c4c530f888585886060015189608001518a60200151604051610cc6969594939291906119ce565b60405180910390a350159695505050505050565b600181565b80603a6000610cec610f4f565b6001600160a01b0390811682526020808301939093526040918201600090812091871680825291909352912091909155610d24610f4f565b6001600160a01b03167fda919360433220e13b51e8c211e490d148e61a3bd53de8c097194e458b97f3e1610d566109e2565b84604051610d659291906117e1565b60405180910390a35050565b60006105eb82610e50565b603e5464ffffffffff1690565b6001600160a01b03166000908152603d602052604090205490565b603b546000908190610db581610e08565b925090509091565b600190565b303b1590565b8051610ddb906003906020840190611420565b5050565b8051610ddb906004906020840190611420565b6005805460ff191660ff92909216919091179055565b600080610e13610f49565b905080610e24576000915050610666565b603e54600090610e3c90859064ffffffffff16610e6b565b9050610e488282610e7f565b949350505050565b6001600160a01b031660009081526020819052604090205490565b6000610e788383426112b4565b9392505050565b6000821580610e8c575081155b15610e99575060006105eb565b81610eb160026b033b2e3c9fd0803ce8000000611a50565b610ebd90600019611a8f565b610ec79190611a50565b83111560405180604001604052806002815260200161068760f31b81525090610f035760405162461bcd60e51b81526004016103ce919061189c565b506b033b2e3c9fd0803ce8000000610f1c600282611a50565b610f268486611a70565b610f309190611a38565b610e789190611a50565b6040546001600160a01b031690565b60025490565b3390565b600080600080610f6285610e50565b905080610f7a57600080600093509350935050610fa5565b6000610f8f82610f89886105f1565b90610fac565b905081610f9c81836112a8565b90955093509150505b9193909250565b6000610e788284611a8f565b600080610fc9633b9aca0084611a70565b905082610fda633b9aca0083611a50565b1460405180604001604052806002815260200161068760f31b815250906110145760405162461bcd60e51b81526004016103ce919061189c565b5092915050565b604080518082019091526002815261035360f41b6020820152600090826110555760405162461bcd60e51b81526004016103ce919061189c565b506000611063600284611a50565b90506b033b2e3c9fd0803ce800000061107e82600019611a8f565b6110889190611a50565b84111560405180604001604052806002815260200161068760f31b815250906110c45760405162461bcd60e51b81526004016103ce919061189c565b5082816110dd6b033b2e3c9fd0803ce800000087611a70565b6110e79190611a38565b610e489190611a50565b6001600160a01b03831660009081526020819052604090205461111481846112a8565b6001600160a01b038086166000908152602081905260409081902092909255905416156111a2576040805490516318c39f1760e11b81526001600160a01b03909116906331873e2e9061116f908790869086906004016117fa565b600060405180830381600087803b15801561118957600080fd5b505af115801561119d573d6000803e3d6000fd5b505050505b50505050565b6001600160a01b038316600090815260208181526040918290205482518084019093526002835261038360f41b918301919091529061111490829085906113a9565b6040805180820182526002815261353960f01b6020808301919091526001600160a01b038087166000908152603a835284812091871681529152918220546112339184906113a9565b6001600160a01b038086166000818152603a60209081526040808320948916808452949091529020839055919250907fda919360433220e13b51e8c211e490d148e61a3bd53de8c097194e458b97f3e161128b6109e2565b8460405161129a9291906117e1565b60405180910390a350505050565b6000610e788284611a38565b6000806112c88364ffffffffff8616610fac565b9050806112df576112d76113d5565b915050610e78565b60006112ec600183611a8f565b90506000600283116112ff57600061130a565b61130a600284611a8f565b9050600061131c6301e1338089611a50565b9050600061132a8280610e7f565b905060006113388284610e7f565b9050600060026113528461134c8a8a6113e5565b906113e5565b61135c9190611a50565b9050600060066113728461134c89818d8d6113e5565b61137c9190611a50565b905061139981610b1584816113918a8e6113e5565b610b156113d5565b9c9b505050505050505050505050565b600081848411156113cd5760405162461bcd60e51b81526004016103ce919061189c565b505050900390565b6b033b2e3c9fd0803ce800000090565b6000610e788284611a70565b6040518060a0016040528060008152602001600081526020016000815260200160008152602001600081525090565b82805461142c90611aa6565b90600052602060002090601f01602090048101928261144e5760008555611494565b82601f1061146757805160ff1916838001178555611494565b82800160010185558215611494579182015b82811115611494578251825591602001919060010190611479565b506114a09291506114a4565b5090565b5b808211156114a057600081556001016114a5565b803561066681611b0d565b60008083601f8401126114d5578081fd5b50813567ffffffffffffffff8111156114ec578182fd5b60208301915083602082850101111561150457600080fd5b9250929050565b600082601f83011261151b578081fd5b813567ffffffffffffffff8082111561153657611536611af7565b604051601f8301601f19168101602001828111828210171561155a5761155a611af7565b604052828152848301602001861015611571578384fd5b82602086016020830137918201602001929092529392505050565b803560ff8116811461066657600080fd5b6000602082840312156115ae578081fd5b8135610e7881611b0d565b600080604083850312156115cb578081fd5b82356115d681611b0d565b915060208301356115e681611b0d565b809150509250929050565b600080600060608486031215611605578081fd5b833561161081611b0d565b9250602084013561162081611b0d565b929592945050506040919091013590565b60008060008060808587031215611646578081fd5b843561165181611b0d565b9350602085013561166181611b0d565b93969395505050506040820135916060013590565b60008060408385031215611688578182fd5b823561169381611b0d565b946020939093013593505050565b60008060008060008060008060006101008a8c0312156116bf578485fd5b6116c88a6114b9565b98506116d660208b016114b9565b97506116e460408b0161158c565b96506116f260608b016114b9565b955061170060808b0161158c565b945060a08a013567ffffffffffffffff8082111561171c578586fd5b6117288d838e0161150b565b955060c08c013591508082111561173d578485fd5b6117498d838e0161150b565b945060e08c013591508082111561175e578384fd5b5061176b8c828d016114c4565b915080935050809150509295985092959850929598565b60008151808452815b818110156117a75760208185018101518683018201520161178b565b818111156117b85782602083870101525b50601f01601f19169290920160200192915050565b6001600160a01b0391909116815260200190565b6001600160a01b03929092168252602082015260400190565b6001600160a01b039390931683526020830191909152604082015260600190565b6001600160a01b038716815260ff8616602082015260a06040820181905260009061184890830187611782565b828103606084015261185a8187611782565b905082810360808401528381528385602083013781602085830101526020601f19601f860116820101915050979650505050505050565b901515815260200190565b600060208252610e786020830184611782565b6020808252601690820152751514905394d1915497d393d517d4d5541413d495115160521b604082015260600190565b60208082526017908201527f414c4c4f57414e43455f4e4f545f535550504f52544544000000000000000000604082015260600190565b6020808252602e908201527f436f6e747261637420696e7374616e63652068617320616c726561647920626560408201526d195b881a5b9a5d1a585b1a5e995960921b606082015260800190565b6020808252601690820152751054141493d5905317d393d517d4d5541413d495115160521b604082015260600190565b90815260200190565b918252602082015260400190565b948552602085019390935260408401919091526060830152608082015260a00190565b958652602086019490945260408501929092526060840152608083015260a082015260c00190565b9384526020840192909252604083015264ffffffffff16606082015260800190565b64ffffffffff91909116815260200190565b60ff91909116815260200190565b60008219821115611a4b57611a4b611ae1565b500190565b600082611a6b57634e487b7160e01b81526012600452602481fd5b500490565b6000816000190483118215151615611a8a57611a8a611ae1565b500290565b600082821015611aa157611aa1611ae1565b500390565b600281046001821680611aba57607f821691505b60208210811415611adb57634e487b7160e01b600052602260045260246000fd5b50919050565b634e487b7160e01b600052601160045260246000fd5b634e487b7160e01b600052604160045260246000fd5b6001600160a01b0381168114611b2257600080fd5b5056fea2646970667358221220d18ec8ec6d8bb1205decccbd740950cdb07569c75e2f7c00cc2854d0b010bbab64736f6c63430008000033",
  "linkReferences": {},
  "deployedLinkReferences": {}
}