{
  "_format": "hh-sol-artifact-1",
  "contractName": "PriceOracle",
  "sourceName": "contracts/mocks/oracle/PriceOracle.sol",
  "abi": [
    {
      "anonymous": false,
      "inputs": [
        {
          "indexed": false,
          "internalType": "address",
          "name": "_asset",
          "type": "address"
        },
        {
          "indexed": false,
          "internalType": "uint256",
          "name": "_price",
          "type": "uint256"
        },
        {
          "indexed": false,
          "internalType": "uint256",
          "name": "timestamp",
          "type": "uint256"
        }
      ],
      "name": "AssetPriceUpdated",
      "type": "event"
    },
    {
      "anonymous": false,
      "inputs": [
        {
          "indexed": false,
          "internalType": "uint256",
          "name": "_price",
          "type": "uint256"
        },
        {
          "indexed": false,
          "internalType": "uint256",
          "name": "timestamp",
          "type": "uint256"
        }
      ],
      "name": "EthPriceUpdated",
      "type": "event"
    },
    {
      "inputs": [
        {
          "internalType": "address",
          "name": "_asset",
          "type": "address"
        }
      ],
      "name": "getAssetPrice",
      "outputs": [
        {
          "internalType": "uint256",
          "name": "",
          "type": "uint256"
        }
      ],
      "stateMutability": "view",
      "type": "function"
    },
    {
      "inputs": [],
      "name": "getEthUsdPrice",
      "outputs": [
        {
          "internalType": "uint256",
          "name": "",
          "type": "uint256"
        }
      ],
      "stateMutability": "view",
      "type": "function"
    },
    {
      "inputs": [
        {
          "internalType": "address",
          "name": "_asset",
          "type": "address"
        },
        {
          "internalType": "uint256",
          "name": "_price",
          "type": "uint256"
        }
      ],
      "name": "setAssetPrice",
      "outputs": [],
      "stateMutability": "nonpayable",
      "type": "function"
    },
    {
      "inputs": [
        {
          "internalType": "uint256",
          "name": "_price",
          "type": "uint256"
        }
      ],
      "name": "setEthUsdPrice",
      "outputs": [],
      "stateMutability": "nonpayable",
      "type": "function"
    }
  ],
  "bytecode": "0x608060405234801561001057600080fd5b50610253806100206000396000f3fe608060405234801561001057600080fd5b506004361061004c5760003560e01c806351323f7214610051578063a0a8045e14610066578063b3596f0714610084578063b951883a14610097575b600080fd5b61006461005f3660046101a4565b6100aa565b005b61006e610105565b60405161007b9190610206565b60405180910390f35b61006e610092366004610183565b61010b565b6100646100a53660046101cd565b61012a565b6001600160a01b03821660009081526020819052604090819020829055517fce6e0b57367bae95ca7198e1172f653ea64a645c16ab586b4cefa9237bfc2d92906100f9908490849042906101e5565b60405180910390a15050565b60015490565b6001600160a01b0381166000908152602081905260409020545b919050565b60018190556040517fb4f35977939fa8b5ffe552d517a8ff5223046b1fdd3ee0068ae38d1e2b8d001690610161908390429061020f565b60405180910390a150565b80356001600160a01b038116811461012557600080fd5b600060208284031215610194578081fd5b61019d8261016c565b9392505050565b600080604083850312156101b6578081fd5b6101bf8361016c565b946020939093013593505050565b6000602082840312156101de578081fd5b5035919050565b6001600160a01b039390931683526020830191909152604082015260600190565b90815260200190565b91825260208201526040019056fea26469706673582212203a46b913ebde39576c0858aed47e4528ce564fcf3109e7a819d5492bccf2100664736f6c63430008000033",
  "linkReferences": {},
  "deployedLinkReferences": {}
}