{
  "_format": "hh-sol-artifact-1",
  "contractName": "UniswapRepayAdapter",
  "sourceName": "contracts/adapters/UniswapRepayAdapter.sol",
  "abi": [
    {
      "inputs": [
        {
          "internalType": "contract ILendingPoolAddressesProvider",
          "name": "addressesProvider",
          "type": "address"
        },
        {
          "internalType": "contract IUniswapV2Router02",
          "name": "uniswapRouter",
          "type": "address"
        },
        {
          "internalType": "address",
          "name": "wethAddress",
          "type": "address"
        }
      ],
      "stateMutability": "nonpayable",
      "type": "constructor"
    },
    {
      "anonymous": false,
      "inputs": [
        {
          "indexed": true,
          "internalType": "address",
          "name": "previousOwner",
          "type": "address"
        },
        {
          "indexed": true,
          "internalType": "address",
          "name": "newOwner",
          "type": "address"
        }
      ],
      "name": "OwnershipTransferred",
      "type": "event"
    },
    {
      "anonymous": false,
      "inputs": [
        {
          "indexed": false,
          "internalType": "address",
          "name": "fromAsset",
          "type": "address"
        },
        {
          "indexed": false,
          "internalType": "address",
          "name": "toAsset",
          "type": "address"
        },
        {
          "indexed": false,
          "internalType": "uint256",
          "name": "fromAmount",
          "type": "uint256"
        },
        {
          "indexed": false,
          "internalType": "uint256",
          "name": "receivedAmount",
          "type": "uint256"
        }
      ],
      "name": "Swapped",
      "type": "event"
    },
    {
      "inputs": [],
      "name": "ADDRESSES_PROVIDER",
      "outputs": [
        {
          "internalType": "contract ILendingPoolAddressesProvider",
          "name": "",
          "type": "address"
        }
      ],
      "stateMutability": "view",
      "type": "function"
    },
    {
      "inputs": [],
      "name": "FLASHLOAN_PREMIUM_TOTAL",
      "outputs": [
        {
          "internalType": "uint256",
          "name": "",
          "type": "uint256"
        }
      ],
      "stateMutability": "view",
      "type": "function"
    },
    {
      "inputs": [],
      "name": "LENDING_POOL",
      "outputs": [
        {
          "internalType": "contract ILendingPool",
          "name": "",
          "type": "address"
        }
      ],
      "stateMutability": "view",
      "type": "function"
    },
    {
      "inputs": [],
      "name": "MAX_SLIPPAGE_PERCENT",
      "outputs": [
        {
          "internalType": "uint256",
          "name": "",
          "type": "uint256"
        }
      ],
      "stateMutability": "view",
      "type": "function"
    },
    {
      "inputs": [],
      "name": "ORACLE",
      "outputs": [
        {
          "internalType": "contract IPriceOracleGetter",
          "name": "",
          "type": "address"
        }
      ],
      "stateMutability": "view",
      "type": "function"
    },
    {
      "inputs": [],
      "name": "UNISWAP_ROUTER",
      "outputs": [
        {
          "internalType": "contract IUniswapV2Router02",
          "name": "",
          "type": "address"
        }
      ],
      "stateMutability": "view",
      "type": "function"
    },
    {
      "inputs": [],
      "name": "USD_ADDRESS",
      "outputs": [
        {
          "internalType": "address",
          "name": "",
          "type": "address"
        }
      ],
      "stateMutability": "view",
      "type": "function"
    },
    {
      "inputs": [],
      "name": "WETH_ADDRESS",
      "outputs": [
        {
          "internalType": "address",
          "name": "",
          "type": "address"
        }
      ],
      "stateMutability": "view",
      "type": "function"
    },
    {
      "inputs": [
        {
          "internalType": "address[]",
          "name": "assets",
          "type": "address[]"
        },
        {
          "internalType": "uint256[]",
          "name": "amounts",
          "type": "uint256[]"
        },
        {
          "internalType": "uint256[]",
          "name": "premiums",
          "type": "uint256[]"
        },
        {
          "internalType": "address",
          "name": "initiator",
          "type": "address"
        },
        {
          "internalType": "bytes",
          "name": "params",
          "type": "bytes"
        }
      ],
      "name": "executeOperation",
      "outputs": [
        {
          "internalType": "bool",
          "name": "",
          "type": "bool"
        }
      ],
      "stateMutability": "nonpayable",
      "type": "function"
    },
    {
      "inputs": [
        {
          "internalType": "uint256",
          "name": "amountOut",
          "type": "uint256"
        },
        {
          "internalType": "address",
          "name": "reserveIn",
          "type": "address"
        },
        {
          "internalType": "address",
          "name": "reserveOut",
          "type": "address"
        }
      ],
      "name": "getAmountsIn",
      "outputs": [
        {
          "internalType": "uint256",
          "name": "",
          "type": "uint256"
        },
        {
          "internalType": "uint256",
          "name": "",
          "type": "uint256"
        },
        {
          "internalType": "uint256",
          "name": "",
          "type": "uint256"
        },
        {
          "internalType": "uint256",
          "name": "",
          "type": "uint256"
        },
        {
          "internalType": "address[]",
          "name": "",
          "type": "address[]"
        }
      ],
      "stateMutability": "view",
      "type": "function"
    },
    {
      "inputs": [
        {
          "internalType": "uint256",
          "name": "amountIn",
          "type": "uint256"
        },
        {
          "internalType": "address",
          "name": "reserveIn",
          "type": "address"
        },
        {
          "internalType": "address",
          "name": "reserveOut",
          "type": "address"
        }
      ],
      "name": "getAmountsOut",
      "outputs": [
        {
          "internalType": "uint256",
          "name": "",
          "type": "uint256"
        },
        {
          "internalType": "uint256",
          "name": "",
          "type": "uint256"
        },
        {
          "internalType": "uint256",
          "name": "",
          "type": "uint256"
        },
        {
          "internalType": "uint256",
          "name": "",
          "type": "uint256"
        },
        {
          "internalType": "address[]",
          "name": "",
          "type": "address[]"
        }
      ],
      "stateMutability": "view",
      "type": "function"
    },
    {
      "inputs": [],
      "name": "owner",
      "outputs": [
        {
          "internalType": "address",
          "name": "",
          "type": "address"
        }
      ],
      "stateMutability": "view",
      "type": "function"
    },
    {
      "inputs": [],
      "name": "renounceOwnership",
      "outputs": [],
      "stateMutability": "nonpayable",
      "type": "function"
    },
    {
      "inputs": [
        {
          "internalType": "contract IERC20",
          "name": "token",
          "type": "address"
        }
      ],
      "name": "rescueTokens",
      "outputs": [],
      "stateMutability": "nonpayable",
      "type": "function"
    },
    {
      "inputs": [
        {
          "components": [
            {
              "internalType": "uint64",
              "name": "trancheId",
              "type": "uint64"
            },
            {
              "internalType": "address",
              "name": "asset",
              "type": "address"
            }
          ],
          "internalType": "struct DataTypes.TrancheAddress",
          "name": "collateralAsset",
          "type": "tuple"
        },
        {
          "components": [
            {
              "internalType": "uint64",
              "name": "trancheId",
              "type": "uint64"
            },
            {
              "internalType": "address",
              "name": "asset",
              "type": "address"
            }
          ],
          "internalType": "struct DataTypes.TrancheAddress",
          "name": "debtAsset",
          "type": "tuple"
        },
        {
          "internalType": "uint256",
          "name": "collateralAmount",
          "type": "uint256"
        },
        {
          "internalType": "uint256",
          "name": "debtRepayAmount",
          "type": "uint256"
        },
        {
          "internalType": "uint256",
          "name": "debtRateMode",
          "type": "uint256"
        },
        {
          "components": [
            {
              "internalType": "uint256",
              "name": "amount",
              "type": "uint256"
            },
            {
              "internalType": "uint256",
              "name": "deadline",
              "type": "uint256"
            },
            {
              "internalType": "uint8",
              "name": "v",
              "type": "uint8"
            },
            {
              "internalType": "bytes32",
              "name": "r",
              "type": "bytes32"
            },
            {
              "internalType": "bytes32",
              "name": "s",
              "type": "bytes32"
            }
          ],
          "internalType": "struct IBaseUniswapAdapter.PermitSignature",
          "name": "permitSignature",
          "type": "tuple"
        },
        {
          "internalType": "bool",
          "name": "useEthPath",
          "type": "bool"
        }
      ],
      "name": "swapAndRepay",
      "outputs": [],
      "stateMutability": "nonpayable",
      "type": "function"
    },
    {
      "inputs": [
        {
          "internalType": "address",
          "name": "newOwner",
          "type": "address"
        }
      ],
      "name": "transferOwnership",
      "outputs": [],
      "stateMutability": "nonpayable",
      "type": "function"
    }
  ],
  "bytecode": "0x6101206040523480156200001257600080fd5b5060405162003f4d38038062003f4d8339810160408190526200003591620001fd565b82828282806001600160a01b03166080816001600160a01b031660601b81525050806001600160a01b0316630261bf8b6040518163ffffffff1660e01b815260040160206040518083038186803b1580156200009057600080fd5b505afa158015620000a5573d6000803e3d6000fd5b505050506040513d601f19601f82011682018060405250810190620000cb9190620001d7565b60601b6001600160601b03191660a052506000620000e8620001d3565b600080546001600160a01b0319166001600160a01b0383169081178255604051929350917f8be0079c531659141344cd1fd0a4f28419497f9722a3daafe3b4186f6b6457e0908290a350826001600160a01b031663f139dc816040518163ffffffff1660e01b815260040160206040518083038186803b1580156200016c57600080fd5b505afa15801562000181573d6000803e3d6000fd5b505050506040513d601f19601f82011682018060405250810190620001a79190620001d7565b6001600160601b0319606091821b811660e05292811b8316610100521b1660c052506200026992505050565b3390565b600060208284031215620001e9578081fd5b8151620001f68162000250565b9392505050565b60008060006060848603121562000212578182fd5b83516200021f8162000250565b6020850151909350620002328162000250565b6040850151909250620002458162000250565b809150509250925092565b6001600160a01b03811681146200026657600080fd5b50565b60805160601c60a05160601c60c05160601c60e05160601c6101005160601c613bcc6200038160003960008181610b710152818161154f015281816117fd0152818161189f01528181611aef01528181611f840152818161207801528181612a0c0152612afd0152600081816103a2015261265b01526000818161034f015281816113ec0152818161198901528181611e2201528181611e5f01528181611edd015281816128aa015281816128e7015261296501526000818161045f015281816105b201528181610909015281816109ba01528181610a5401528181610d4301528181610de501528181610efd0152818161118101528181611210015281816112d5015261169d015260006103730152613bcc6000f3fe608060405234801561001057600080fd5b50600436106100ff5760003560e01c8063920f5c8411610097578063baf7fa9911610066578063baf7fa99146101b7578063cdf58cd6146101db578063d8264920146101ee578063f2fde38b146101f6576100ff565b8063920f5c84146101745780639d1211bf14610194578063b4dcfc771461019c578063b58bb725146101a4576100ff565b806332e4b286116100d357806332e4b2861461015457806338013f021461015c578063715018a6146101645780638da5cb5b1461016c576100ff565b8062ae3bf814610104578063040141e5146101195780630542975c14610137578063074b2e431461013f575b600080fd5b610117610112366004612fa9565b610209565b005b61012161034d565b60405161012e919061354a565b60405180910390f35b610121610371565b610147610395565b60405161012e91906138ab565b61014761039a565b6101216103a0565b6101176103c4565b610121610443565b610187610182366004613063565b610452565b60405161012e9190613697565b610121610598565b6101216105b0565b6101176101b23660046133d8565b6105d4565b6101ca6101c5366004613472565b610b1a565b60405161012e959493929190613911565b6101ca6101e9366004613472565b610b5a565b610121610b6f565b610117610204366004612fa9565b610b93565b610211610c49565b6000546001600160a01b039081169116146102475760405162461bcd60e51b815260040161023e906137ca565b60405180910390fd5b806001600160a01b031663a9059cbb61025e610443565b6040516370a0823160e01b81526001600160a01b038516906370a082319061028a90309060040161354a565b60206040518083038186803b1580156102a257600080fd5b505afa1580156102b6573d6000803e3d6000fd5b505050506040513d601f19601f820116820180604052508101906102da919061345a565b6040518363ffffffff1660e01b81526004016102f79291906135ec565b602060405180830381600087803b15801561031157600080fd5b505af1158015610325573d6000803e3d6000fd5b505050506040513d601f19601f820116820180604052508101906103499190613207565b5050565b7f000000000000000000000000000000000000000000000000000000000000000081565b7f000000000000000000000000000000000000000000000000000000000000000081565b600981565b610bb881565b7f000000000000000000000000000000000000000000000000000000000000000081565b6103cc610c49565b6000546001600160a01b039081169116146103f95760405162461bcd60e51b815260040161023e906137ca565b600080546040516001600160a01b03909116907f8be0079c531659141344cd1fd0a4f28419497f9722a3daafe3b4186f6b6457e0908390a3600080546001600160a01b0319169055565b6000546001600160a01b031690565b6000336001600160a01b037f0000000000000000000000000000000000000000000000000000000000000000161461049c5760405162461bcd60e51b815260040161023e906136d5565b60006104dd84848080601f016020809104026020016040519081016040528093929190818152602001838380828437600092019190915250610c4d92505050565b905061058781600001518c8c600081811061050857634e487b7160e01b600052603260045260246000fd5b905060200201602081019061051d9190612fa9565b8b8b600081811061053e57634e487b7160e01b600052603260045260246000fd5b90506020020135846020015185604001518a8d8d600081811061057157634e487b7160e01b600052603260045260246000fd5b9050602002013588606001518960800151610d08565b5060019a9950505050505050505050565b7310f7fc1f91ba351f9c629c5947ad69bd03c05b9681565b7f000000000000000000000000000000000000000000000000000000000000000081565b60006105fb6105e960408a0160208b01612fa9565b6105f660208b018b6134b3565b6112b6565b9050600061061f61061260408a0160208b01612fa9565b6105f660208c018c6134b3565b90506000600186600281111561064557634e487b7160e01b600052602160045260246000fd5b600281111561066457634e487b7160e01b600052602160045260246000fd5b146106745781610120015161067b565b8161010001515b90506000816001600160a01b03166370a08231336040518263ffffffff1660e01b81526004016106ab919061354a565b60206040518083038186803b1580156106c357600080fd5b505afa1580156106d7573d6000803e3d6000fd5b505050506040513d601f19601f820116820180604052508101906106fb919061345a565b905060008189111561070d578161070f565b885b905061072160408c0160208d01612fa9565b6001600160a01b031661073a60408e0160208f01612fa9565b6001600160a01b0316146108b3578989821015610768576107658a61075f8385611366565b90611372565b90505b600061079a8e60200160208101906107809190612fa9565b8e60200160208101906107939190612fa9565b858b61137e565b905081816000815181106107be57634e487b7160e01b600052603260045260246000fd5b602002602001015111156107e45760405162461bcd60e51b815260040161023e906137ff565b6108528e60200160208101906107fa9190612fa9565b8f600001602081019061080d91906134b3565b8960e00151338560008151811061083457634e487b7160e01b600052603260045260246000fd5b60200260200101518e80360381019061084d9190613223565b6115e4565b6108ab8e60200160208101906108689190612fa9565b8e602001602081019061087b9190612fa9565b8360008151811061089c57634e487b7160e01b600052603260045260246000fd5b6020026020010151868c611733565b5050506108e9565b6108e96108c660408e0160208f01612fa9565b6108d360208f018f6134b3565b60e0880151338561084d368e90038e018e613223565b6108f960408c0160208d01612fa9565b6001600160a01b031663095ea7b37f000000000000000000000000000000000000000000000000000000000000000060006040518363ffffffff1660e01b81526004016109479291906135ec565b602060405180830381600087803b15801561096157600080fd5b505af1158015610975573d6000803e3d6000fd5b505050506040513d601f19601f820116820180604052508101906109999190613207565b506109aa60408c0160208d01612fa9565b6001600160a01b031663095ea7b37f0000000000000000000000000000000000000000000000000000000000000000836040518363ffffffff1660e01b81526004016109f79291906135ec565b602060405180830381600087803b158015610a1157600080fd5b505af1158015610a25573d6000803e3d6000fd5b505050506040513d601f19601f82011682018060405250810190610a499190613207565b506001600160a01b037f00000000000000000000000000000000000000000000000000000000000000001663f3c2b76b610a8960408e0160208f01612fa9565b610a9660208f018f6134b3565b848c336040518663ffffffff1660e01b8152600401610ab995949392919061365d565b602060405180830381600087803b158015610ad357600080fd5b505af1158015610ae7573d6000803e3d6000fd5b505050506040513d601f19601f82011682018060405250810190610b0b919061345a565b50505050505050505050505050565b60008060008060606000610b2f88888b611c58565b8051602082015160408301516060840151608090940151929d919c509a509198509650945050505050565b60008060008060606000610b2f88888b61230e565b7f000000000000000000000000000000000000000000000000000000000000000081565b610b9b610c49565b6000546001600160a01b03908116911614610bc85760405162461bcd60e51b815260040161023e906137ca565b6001600160a01b038116610bee5760405162461bcd60e51b815260040161023e9061370c565b600080546040516001600160a01b03808516939216917f8be0079c531659141344cd1fd0a4f28419497f9722a3daafe3b4186f6b6457e091a3600080546001600160a01b0319166001600160a01b0392909216919091179055565b3390565b610c55612d52565b6000806000806000806000806000808b806020019051810190610c789190612fc5565b6040805160e08101825267ffffffffffffffff909a1660a0808c019182526001600160a01b03909c1660c08c01528a526020808b0199909952898101979097528651998a0187529489529588019290925260ff169286019290925260608581019290925260808581019390935290830193909352911515918101919091529a50505050505050505050505b919050565b6000610d1c8a602001518b600001516112b6565b60405163095ea7b360e01b81529091506001600160a01b038a169063095ea7b390610d6e907f0000000000000000000000000000000000000000000000000000000000000000906000906004016135ec565b602060405180830381600087803b158015610d8857600080fd5b505af1158015610d9c573d6000803e3d6000fd5b505050506040513d601f19601f82011682018060405250810190610dc09190613207565b5060405163095ea7b360e01b81526001600160a01b038a169063095ea7b390610e0f907f0000000000000000000000000000000000000000000000000000000000000000908c906004016135ec565b602060405180830381600087803b158015610e2957600080fd5b505af1158015610e3d573d6000803e3d6000fd5b505050506040513d601f19601f82011682018060405250810190610e619190613207565b506040516370a0823160e01b81526000906001600160a01b038b16906370a0823190610e9190309060040161354a565b60206040518083038186803b158015610ea957600080fd5b505afa158015610ebd573d6000803e3d6000fd5b505050506040513d601f19601f82011682018060405250810190610ee1919061345a565b8b5160405163f3c2b76b60e01b81529192506001600160a01b037f0000000000000000000000000000000000000000000000000000000000000000169163f3c2b76b91610f39918e91908e908d908d9060040161365d565b602060405180830381600087803b158015610f5357600080fd5b505af1158015610f67573d6000803e3d6000fd5b505050506040513d601f19601f82011682018060405250810190610f8b919061345a565b506040516370a0823160e01b8152611013906001600160a01b038c16906370a0823190610fbc90309060040161354a565b60206040518083038186803b158015610fd457600080fd5b505afa158015610fe8573d6000803e3d6000fd5b505050506040513d601f19601f8201168201806040525081019061100c919061345a565b829061252a565b9050896001600160a01b03168b602001516001600160a01b03161461113a57878982101561104c576110498a61075f8385611366565b90505b60006110588388612536565b9050600061106c8e602001518e848961137e565b9050828160008151811061109057634e487b7160e01b600052603260045260246000fd5b602002602001015111156110b65760405162461bcd60e51b815260040161023e906137ff565b6110f88e602001518f600001518760e001518c856000815181106110ea57634e487b7160e01b600052603260045260246000fd5b60200260200101518c6115e4565b6111318e602001518e8360008151811061112257634e487b7160e01b600052603260045260246000fd5b6020026020010151858a611733565b5050505061115d565b60208b01518b5160e084015161115d92919089611157868b612536565b896115e4565b60405163095ea7b360e01b81526001600160a01b038b169063095ea7b3906111ac907f0000000000000000000000000000000000000000000000000000000000000000906000906004016135ec565b602060405180830381600087803b1580156111c657600080fd5b505af11580156111da573d6000803e3d6000fd5b505050506040513d601f19601f820116820180604052508101906111fe9190613207565b506001600160a01b038a1663095ea7b37f00000000000000000000000000000000000000000000000000000000000000006112398c89612536565b6040518363ffffffff1660e01b81526004016112569291906135ec565b602060405180830381600087803b15801561127057600080fd5b505af1158015611284573d6000803e3d6000fd5b505050506040513d601f19601f820116820180604052508101906112a89190613207565b505050505050505050505050565b6112be612d8d565b604051633dd24bff60e11b81526001600160a01b037f00000000000000000000000000000000000000000000000000000000000000001690637ba497fe9061130c9086908690600401613605565b6102206040518083038186803b15801561132557600080fd5b505afa158015611339573d6000803e3d6000fd5b505050506040513d601f19601f8201168201806040525081019061135d919061329a565b90505b92915050565b600061135d8284613abd565b600061135d8284613989565b60608082156114935760408051600380825260808201909252906020820160608036833701905050905085816000815181106113ca57634e487b7160e01b600052603260045260246000fd5b60200260200101906001600160a01b031690816001600160a01b0316815250507f00000000000000000000000000000000000000000000000000000000000000008160018151811061142c57634e487b7160e01b600052603260045260246000fd5b60200260200101906001600160a01b031690816001600160a01b031681525050848160028151811061146e57634e487b7160e01b600052603260045260246000fd5b60200260200101906001600160a01b031690816001600160a01b031681525050611538565b604080516002808252606082018352909160208301908036833701905050905085816000815181106114d557634e487b7160e01b600052603260045260246000fd5b60200260200101906001600160a01b031690816001600160a01b031681525050848160018151811061151757634e487b7160e01b600052603260045260246000fd5b60200260200101906001600160a01b031690816001600160a01b0316815250505b6040516307c0329d60e21b81526001600160a01b037f00000000000000000000000000000000000000000000000000000000000000001690631f00ca749061158690879085906004016138b4565b60006040518083038186803b15801561159e57600080fd5b505afa1580156115b2573d6000803e3d6000fd5b505050506040513d6000823e601f3d908101601f191682016040526115da9190810190613160565b9695505050505050565b6115ed81612542565b1561167157836001600160a01b031663d505accf8430846000015185602001518660400151876060015188608001516040518863ffffffff1660e01b815260040161163e97969594939291906135ab565b600060405180830381600087803b15801561165857600080fd5b505af115801561166c573d6000803e3d6000fd5b505050505b6116866001600160a01b038516843085612567565b604051631d3f462b60e21b81526001600160a01b037f000000000000000000000000000000000000000000000000000000000000000016906374fd18ac906116d8908990899087903090600401613628565b602060405180830381600087803b1580156116f257600080fd5b505af1158015611706573d6000803e3d6000fd5b505050506040513d601f19601f8201168201806040525081019061172a919061345a565b50505050505050565b60008061173f876125c5565b9050600061174c876125c5565b9050600061175989612641565b9050600061176689612641565b905060006117b861177b612710610bb8612536565b6117b261179361178c88600a6139ef565b8790611366565b61075f6117ab6117a48b600a6139ef565b8890611366565b8d90611366565b906126e0565b90508089106117d95760405162461bcd60e51b815260040161023e90613787565b60405163095ea7b360e01b81526001600160a01b038c169063095ea7b390611828907f0000000000000000000000000000000000000000000000000000000000000000906000906004016135ec565b602060405180830381600087803b15801561184257600080fd5b505af1158015611856573d6000803e3d6000fd5b505050506040513d601f19601f8201168201806040525081019061187a9190613207565b5060405163095ea7b360e01b81526001600160a01b038c169063095ea7b3906118c9907f0000000000000000000000000000000000000000000000000000000000000000908d906004016135ec565b602060405180830381600087803b1580156118e357600080fd5b505af11580156118f7573d6000803e3d6000fd5b505050506040513d601f19601f8201168201806040525081019061191b9190613207565b5060608715611a30576040805160038082526080820190925290602082016060803683370190505090508b8160008151811061196757634e487b7160e01b600052603260045260246000fd5b60200260200101906001600160a01b031690816001600160a01b0316815250507f0000000000000000000000000000000000000000000000000000000000000000816001815181106119c957634e487b7160e01b600052603260045260246000fd5b60200260200101906001600160a01b031690816001600160a01b0316815250508a81600281518110611a0b57634e487b7160e01b600052603260045260246000fd5b60200260200101906001600160a01b031690816001600160a01b031681525050611ad5565b60408051600280825260608201835290916020830190803683370190505090508b81600081518110611a7257634e487b7160e01b600052603260045260246000fd5b60200260200101906001600160a01b031690816001600160a01b0316815250508a81600181518110611ab457634e487b7160e01b600052603260045260246000fd5b60200260200101906001600160a01b031690816001600160a01b0316815250505b604051634401edf760e11b81526000906001600160a01b037f00000000000000000000000000000000000000000000000000000000000000001690638803dbee90611b2c908d908f908790309042906004016138d5565b600060405180830381600087803b158015611b4657600080fd5b505af1158015611b5a573d6000803e3d6000fd5b505050506040513d6000823e601f3d908101601f19168201604052611b829190810190613160565b90507fa078c4190abe07940190effc1846be0ccf03ad6007bc9e93f9697d0b460befbb8d8d83600081518110611bc857634e487b7160e01b600052603260045260246000fd5b60200260200101518460018651611bdf9190613adc565b81518110611bfd57634e487b7160e01b600052603260045260246000fd5b6020026020010151604051611c159493929190613582565b60405180910390a180600081518110611c3e57634e487b7160e01b600052603260045260246000fd5b602002602001015197505050505050505095945050505050565b611c60612e20565b6000611c7d611c7661271061075f866009611366565b849061252a565b9050836001600160a01b0316856001600160a01b03161415611d5d576000611ca4866125c5565b60408051600180825281830190925291925060009190602080830190803683370190505090508681600081518110611cec57634e487b7160e01b600052603260045260246000fd5b6001600160a01b039092166020928302919091018201526040805160a08101909152848152908101611d2a8761075f87670de0b6b3a7640000611366565b8152602001611d3a898886612787565b8152602001611d4a898686612787565b8152602001828152509350505050612307565b6040805160028082526060820183526000926020830190803683370190505090508581600081518110611da057634e487b7160e01b600052603260045260246000fd5b60200260200101906001600160a01b031690816001600160a01b0316815250508481600181518110611de257634e487b7160e01b600052603260045260246000fd5b6001600160a01b039290921660209283029190910182015260408051600380825260808201909252606092839260009291820184803683370190505090507f00000000000000000000000000000000000000000000000000000000000000006001600160a01b0316896001600160a01b031614158015611e9457507f00000000000000000000000000000000000000000000000000000000000000006001600160a01b0316886001600160a01b031614155b1561203c578881600081518110611ebb57634e487b7160e01b600052603260045260246000fd5b60200260200101906001600160a01b031690816001600160a01b0316815250507f000000000000000000000000000000000000000000000000000000000000000081600181518110611f1d57634e487b7160e01b600052603260045260246000fd5b60200260200101906001600160a01b031690816001600160a01b0316815250508781600281518110611f5f57634e487b7160e01b600052603260045260246000fd5b6001600160a01b03928316602091820292909201015260405163d06ca61f60e01b81527f00000000000000000000000000000000000000000000000000000000000000009091169063d06ca61f90611fbd90889085906004016138b4565b60006040518083038186803b158015611fd557600080fd5b505afa92505050801561200a57506040513d6000823e601f3d908101601f191682016040526120079190810190613160565b60015b61203457604080516003808252608082019092529060208201606080368337019050509150612037565b91505b61205e565b6040805160038082526080820190925290602082016060803683370190505091505b60405163d06ca61f60e01b81526000906001600160a01b037f0000000000000000000000000000000000000000000000000000000000000000169063d06ca61f906120af90899089906004016138b4565b60006040518083038186803b1580156120c757600080fd5b505afa9250505080156120fc57506040513d6000823e601f3d908101601f191682016040526120f99190810190613160565b60015b6121505760408051600280825260608201835290916020830190803683370190505093508260028151811061214157634e487b7160e01b600052603260045260246000fd5b60200260200101519050612206565b8094508460018151811061217457634e487b7160e01b600052603260045260246000fd5b60200260200101518460028151811061219d57634e487b7160e01b600052603260045260246000fd5b6020026020010151116121d857846001815181106121cb57634e487b7160e01b600052603260045260246000fd5b6020026020010151612202565b836002815181106121f957634e487b7160e01b600052603260045260246000fd5b60200260200101515b9150505b60006122118b6125c5565b9050600061221e8b6125c5565b9050600061226061223a61223385600a6139ef565b8690611366565b61075f61224885600a6139ef565b61225a8d670de0b6b3a7640000611366565b90611366565b90506040518060a001604052808581526020018281526020016122848f8e87612787565b81526020016122948e8786612787565b815260200185156122db57886001815181106122c057634e487b7160e01b600052603260045260246000fd5b602002602001015186146122d457866122d6565b895b6122f9565b60408051600280825260608201835290916020830190803683375050505b905299505050505050505050505b9392505050565b612316612e20565b826001600160a01b0316846001600160a01b0316141561240057600061234d61234661271061075f866009611366565b8490612536565b9050600061235a866125c5565b604080516001808252818301909252919250600091906020808301908036833701905050905086816000815181106123a257634e487b7160e01b600052603260045260246000fd5b6001600160a01b039092166020928302919091018201526040805160a081019091528481529081016123e08561075f89670de0b6b3a7640000611366565b81526020016123f0898686612787565b8152602001611d4a898886612787565b60008061240e8686866127de565b91509150600061249061245961271061075f60098760008151811061244357634e487b7160e01b600052603260045260246000fd5b602002602001015161136690919063ffffffff16565b8460008151811061247a57634e487b7160e01b600052603260045260246000fd5b602002602001015161253690919063ffffffff16565b9050600061249d886125c5565b905060006124aa886125c5565b905060006124df6124bf61223384600a6139ef565b61075f6124cd86600a6139ef565b61225a8c670de0b6b3a7640000611366565b90506040518060a001604052808581526020018281526020016125038c8787612787565b81526020016125138b8b86612787565b815260200195909552509298975050505050505050565b600061135d8284613adc565b600061135d8284613971565b6000816040015160ff16826020015114801561256057506020820151155b1592915050565b6125bf846323b872dd60e01b8585856040516024016125889392919061355e565b60408051601f198184030181529190526020810180516001600160e01b03166001600160e01b031990931692909217909152612c3d565b50505050565b6000816001600160a01b031663313ce5676040518163ffffffff1660e01b815260040160206040518083038186803b15801561260057600080fd5b505afa158015612614573d6000803e3d6000fd5b505050506040513d601f19601f8201168201806040525081019061263891906134cf565b60ff1692915050565b60405163b3596f0760e01b81526000906001600160a01b037f0000000000000000000000000000000000000000000000000000000000000000169063b3596f079061269090859060040161354a565b60206040518083038186803b1580156126a857600080fd5b505afa1580156126bc573d6000803e3d6000fd5b505050506040513d601f19601f82011682018060405250810190611360919061345a565b60008215806126ed575081155b156126fa57506000611360565b816127086002612710613989565b61271490600019613adc565b61271e9190613989565b83111560405180604001604052806002815260200161068760f31b8152509061275a5760405162461bcd60e51b815260040161023e91906136a2565b50612710612769600282613989565b6127738486613abd565b61277d9190613971565b61135d9190613989565b6000806127a77310f7fc1f91ba351f9c629c5947ad69bd03c05b96612641565b905060006127b486612641565b90506115da670de0b6b3a764000061075f8461225a6127d489600a6139ef565b61075f8b88611366565b60408051600280825260608281019093528291600091816020016020820280368337019050509050858160008151811061282857634e487b7160e01b600052603260045260246000fd5b60200260200101906001600160a01b031690816001600160a01b031681525050848160018151811061286a57634e487b7160e01b600052603260045260246000fd5b6001600160a01b039290921660209283029190910182015260408051600380825260808201909252606092839260009291820184803683370190505090507f00000000000000000000000000000000000000000000000000000000000000006001600160a01b0316896001600160a01b03161415801561291c57507f00000000000000000000000000000000000000000000000000000000000000006001600160a01b0316886001600160a01b031614155b15612ac457888160008151811061294357634e487b7160e01b600052603260045260246000fd5b60200260200101906001600160a01b031690816001600160a01b0316815250507f0000000000000000000000000000000000000000000000000000000000000000816001815181106129a557634e487b7160e01b600052603260045260246000fd5b60200260200101906001600160a01b031690816001600160a01b03168152505087816002815181106129e757634e487b7160e01b600052603260045260246000fd5b6001600160a01b0392831660209182029290920101526040516307c0329d60e21b81527f000000000000000000000000000000000000000000000000000000000000000090911690631f00ca7490612a45908a9085906004016138b4565b60006040518083038186803b158015612a5d57600080fd5b505afa925050508015612a9257506040513d6000823e601f3d908101601f19168201604052612a8f9190810190613160565b60015b612abc57604080516003808252608082019092529060208201606080368337019050509150612abf565b91505b612ae6565b6040805160038082526080820190925290602082016060803683370190505091505b6040516307c0329d60e21b81526001600160a01b037f00000000000000000000000000000000000000000000000000000000000000001690631f00ca7490612b34908a9088906004016138b4565b60006040518083038186803b158015612b4c57600080fd5b505afa925050508015612b8157506040513d6000823e601f3d908101601f19168201604052612b7e9190810190613160565b60015b612b92579094509250612c35915050565b80935083600081518110612bb657634e487b7160e01b600052603260045260246000fd5b602002602001015183600081518110612bdf57634e487b7160e01b600052603260045260246000fd5b6020026020010151108015612c1d575082600081518110612c1057634e487b7160e01b600052603260045260246000fd5b6020026020010151600014155b612c28578385612c2b565b82825b9650965050505050505b935093915050565b612c4f826001600160a01b0316612d21565b612c6b5760405162461bcd60e51b815260040161023e90613874565b600080836001600160a01b031683604051612c86919061352e565b6000604051808303816000865af19150503d8060008114612cc3576040519150601f19603f3d011682016040523d82523d6000602084013e612cc8565b606091505b509150915081612cea5760405162461bcd60e51b815260040161023e90613752565b8051156125bf5780806020019051810190612d059190613207565b6125bf5760405162461bcd60e51b815260040161023e9061382a565b600080826001600160a01b0316803b806020016040519081016040528181526000908060200190933c511192915050565b6040518060a00160405280612d65612e4f565b81526020016000815260200160008152602001612d80612e66565b8152600060209091015290565b604051806102200160405280612da1612e94565b815260006020820181905260408201819052606082018190526080820181905260a0820181905260c0820181905260e08201819052610100820181905261012082018190526101408201819052610160820181905261018082018190526101a082018190526101c082018190526101e082018190526102009091015290565b6040518060a0016040528060008152602001600081526020016000815260200160008152602001606081525090565b604080518082019091526000808252602082015290565b6040805160a08101825260008082526020820181905291810182905260608101829052608081019190915290565b6040518060200160405280600081525090565b8051610d0381613b4b565b60008083601f840112612ec3578182fd5b50813567ffffffffffffffff811115612eda578182fd5b6020830191508360208083028501011115612ef457600080fd5b9250929050565b8051610d0381613b63565b600060208284031215612f17578081fd5b6040516020810181811067ffffffffffffffff82111715612f3a57612f3a613b35565b6040529151825250919050565b600060408284031215612f58578081fd5b50919050565b80516fffffffffffffffffffffffffffffffff81168114610d0357600080fd5b805164ffffffffff81168114610d0357600080fd5b8051610d0381613b71565b8051610d0381613b87565b600060208284031215612fba578081fd5b813561230781613b4b565b6000806000806000806000806000806101408b8d031215612fe4578586fd5b8a51612fef81613b4b565b60208c0151909a5061300081613b71565b8099505060408b0151975060608b0151965060808b0151955060a08b0151945060c08b015161302e81613b87565b8094505060e08b015192506101008b015191506101208b015161305081613b63565b809150509295989b9194979a5092959850565b600080600080600080600080600060a08a8c031215613080578283fd5b893567ffffffffffffffff80821115613097578485fd5b6130a38d838e01612eb2565b909b50995060208c01359150808211156130bb578485fd5b6130c78d838e01612eb2565b909950975060408c01359150808211156130df578485fd5b6130eb8d838e01612eb2565b909750955060608c0135915061310082613b4b565b90935060808b01359080821115613115578384fd5b818c0191508c601f830112613128578384fd5b813581811115613136578485fd5b8d6020828501011115613147578485fd5b6020830194508093505050509295985092959850929598565b60006020808385031215613172578182fd5b825167ffffffffffffffff80821115613189578384fd5b818501915085601f83011261319c578384fd5b8151818111156131ae576131ae613b35565b83810291506131be848301613947565b8181528481019084860184860187018a10156131d8578788fd5b8795505b838610156131fa5780518352600195909501949186019186016131dc565b5098975050505050505050565b600060208284031215613218578081fd5b815161230781613b63565b600060a08284031215613234578081fd5b60405160a0810181811067ffffffffffffffff8211171561325757613257613b35565b80604052508235815260208301356020820152604083013561327881613b87565b6040820152606083810135908201526080928301359281019290925250919050565b60006102208083850312156132ad578182fd5b6132b681613947565b90506132c28484612f06565b81526132d060208401612f5e565b60208201526132e160408401612f5e565b60408201526132f260608401612f5e565b606082015261330360808401612f5e565b608082015261331460a08401612f5e565b60a082015261332560c08401612f7e565b60c082015261333660e08401612ea7565b60e0820152610100613349818501612ea7565b9082015261012061335b848201612ea7565b9082015261014061336d848201612ea7565b9082015261016061337f848201612f9e565b90820152610180613391848201612f93565b908201526101a083810151908201526101c06133ae818501612efb565b908201526101e06133c0848201612efb565b90820152610200928301519281019290925250919050565b60008060008060008060008789036101a08112156133f4578182fd5b6133fe8a8a612f47565b975061340d8a60408b01612f47565b96506080890135955060a0808a0135955060c08a0135945060df1982011215613434578182fd5b5060e08801915061018088013561344a81613b63565b8091505092959891949750929550565b60006020828403121561346b578081fd5b5051919050565b600080600060608486031215613486578081fd5b83359250602084013561349881613b4b565b915060408401356134a881613b4b565b809150509250925092565b6000602082840312156134c4578081fd5b813561230781613b71565b6000602082840312156134e0578081fd5b815161230781613b87565b6000815180845260208085019450808401835b838110156135235781516001600160a01b0316875295820195908201906001016134fe565b509495945050505050565b60008251613540818460208701613af3565b9190910192915050565b6001600160a01b0391909116815260200190565b6001600160a01b039384168152919092166020820152604081019190915260600190565b6001600160a01b0394851681529290931660208301526040820152606081019190915260800190565b6001600160a01b0397881681529590961660208601526040850193909352606084019190915260ff16608083015260a082015260c081019190915260e00190565b6001600160a01b03929092168252602082015260400190565b6001600160a01b0392909216825267ffffffffffffffff16602082015260400190565b6001600160a01b03948516815267ffffffffffffffff9390931660208401526040830191909152909116606082015260800190565b6001600160a01b03958616815267ffffffffffffffff94909416602085015260408401929092526060830152909116608082015260a00190565b901515815260200190565b60006020825282518060208401526136c1816040850160208701613af3565b601f01601f19169190910160400192915050565b6020808252601b908201527f43414c4c45525f4d5553545f42455f4c454e44494e475f504f4f4c0000000000604082015260600190565b60208082526026908201527f4f776e61626c653a206e6577206f776e657220697320746865207a65726f206160408201526564647265737360d01b606082015260800190565b6020808252818101527f5361666545524332303a206c6f772d6c6576656c2063616c6c206661696c6564604082015260600190565b60208082526023908201527f6d6178416d6f756e74546f5377617020657863656564206d617820736c69707060408201526261676560e81b606082015260800190565b6020808252818101527f4f776e61626c653a2063616c6c6572206973206e6f7420746865206f776e6572604082015260600190565b6020808252601190820152700e6d8d2e0e0c2ceca40e8dede40d0d2ced607b1b604082015260600190565b6020808252602a908201527f5361666545524332303a204552433230206f7065726174696f6e20646964206e6040820152691bdd081cdd58d8d9595960b21b606082015260800190565b6020808252601f908201527f5361666545524332303a2063616c6c20746f206e6f6e2d636f6e747261637400604082015260600190565b90815260200190565b6000838252604060208301526138cd60408301846134eb565b949350505050565b600086825285602083015260a060408301526138f460a08301866134eb565b6001600160a01b0394909416606083015250608001529392505050565b600086825285602083015284604083015283606083015260a0608083015261393c60a08301846134eb565b979650505050505050565b60405181810167ffffffffffffffff8111828210171561396957613969613b35565b604052919050565b6000821982111561398457613984613b1f565b500190565b6000826139a457634e487b7160e01b81526012600452602481fd5b500490565b80825b60018086116139bb57506139e6565b8187048211156139cd576139cd613b1f565b808616156139da57918102915b9490941c9380026139ac565b94509492505050565b600061135d6000198484600082613a0857506001612307565b81613a1557506000612307565b8160018114613a2b5760028114613a3557613a62565b6001915050612307565b60ff841115613a4657613a46613b1f565b6001841b915084821115613a5c57613a5c613b1f565b50612307565b5060208310610133831016604e8410600b8410161715613a95575081810a83811115613a9057613a90613b1f565b612307565b613aa284848460016139a9565b808604821115613ab457613ab4613b1f565b02949350505050565b6000816000190483118215151615613ad757613ad7613b1f565b500290565b600082821015613aee57613aee613b1f565b500390565b60005b83811015613b0e578181015183820152602001613af6565b838111156125bf5750506000910152565b634e487b7160e01b600052601160045260246000fd5b634e487b7160e01b600052604160045260246000fd5b6001600160a01b0381168114613b6057600080fd5b50565b8015158114613b6057600080fd5b67ffffffffffffffff81168114613b6057600080fd5b60ff81168114613b6057600080fdfea26469706673582212207635f01b1e6927edb726cb1c302ec3d66f359509d13795221e6e110c5f50988564736f6c63430008000033",
  "linkReferences": {},
  "deployedLinkReferences": {}
}