{
  "_format": "hh-sol-artifact-1",
  "contractName": "UniswapRepayAdapter",
  "sourceName": "contracts/adapters/UniswapRepayAdapter.sol",
  "abi": [
    {
      "inputs": [
        {
          "internalType": "contract ILendingPoolAddressesProvider",
          "name": "addressesProvider",
          "type": "address"
        },
        {
          "internalType": "contract IUniswapV2Router02",
          "name": "uniswapRouter",
          "type": "address"
        },
        {
          "internalType": "address",
          "name": "wethAddress",
          "type": "address"
        }
      ],
      "stateMutability": "nonpayable",
      "type": "constructor"
    },
    {
      "anonymous": false,
      "inputs": [
        {
          "indexed": true,
          "internalType": "address",
          "name": "previousOwner",
          "type": "address"
        },
        {
          "indexed": true,
          "internalType": "address",
          "name": "newOwner",
          "type": "address"
        }
      ],
      "name": "OwnershipTransferred",
      "type": "event"
    },
    {
      "anonymous": false,
      "inputs": [
        {
          "indexed": false,
          "internalType": "address",
          "name": "fromAsset",
          "type": "address"
        },
        {
          "indexed": false,
          "internalType": "address",
          "name": "toAsset",
          "type": "address"
        },
        {
          "indexed": false,
          "internalType": "uint256",
          "name": "fromAmount",
          "type": "uint256"
        },
        {
          "indexed": false,
          "internalType": "uint256",
          "name": "receivedAmount",
          "type": "uint256"
        }
      ],
      "name": "Swapped",
      "type": "event"
    },
    {
      "inputs": [],
      "name": "ADDRESSES_PROVIDER",
      "outputs": [
        {
          "internalType": "contract ILendingPoolAddressesProvider",
          "name": "",
          "type": "address"
        }
      ],
      "stateMutability": "view",
      "type": "function"
    },
    {
      "inputs": [],
      "name": "FLASHLOAN_PREMIUM_TOTAL",
      "outputs": [
        {
          "internalType": "uint256",
          "name": "",
          "type": "uint256"
        }
      ],
      "stateMutability": "view",
      "type": "function"
    },
    {
      "inputs": [],
      "name": "LENDING_POOL",
      "outputs": [
        {
          "internalType": "contract ILendingPool",
          "name": "",
          "type": "address"
        }
      ],
      "stateMutability": "view",
      "type": "function"
    },
    {
      "inputs": [],
      "name": "MAX_SLIPPAGE_PERCENT",
      "outputs": [
        {
          "internalType": "uint256",
          "name": "",
          "type": "uint256"
        }
      ],
      "stateMutability": "view",
      "type": "function"
    },
    {
      "inputs": [],
      "name": "ORACLE",
      "outputs": [
        {
          "internalType": "contract IPriceOracleGetter",
          "name": "",
          "type": "address"
        }
      ],
      "stateMutability": "view",
      "type": "function"
    },
    {
      "inputs": [],
      "name": "UNISWAP_ROUTER",
      "outputs": [
        {
          "internalType": "contract IUniswapV2Router02",
          "name": "",
          "type": "address"
        }
      ],
      "stateMutability": "view",
      "type": "function"
    },
    {
      "inputs": [],
      "name": "USD_ADDRESS",
      "outputs": [
        {
          "internalType": "address",
          "name": "",
          "type": "address"
        }
      ],
      "stateMutability": "view",
      "type": "function"
    },
    {
      "inputs": [],
      "name": "WETH_ADDRESS",
      "outputs": [
        {
          "internalType": "address",
          "name": "",
          "type": "address"
        }
      ],
      "stateMutability": "view",
      "type": "function"
    },
    {
      "inputs": [
        {
          "internalType": "address[]",
          "name": "assets",
          "type": "address[]"
        },
        {
          "internalType": "uint256[]",
          "name": "amounts",
          "type": "uint256[]"
        },
        {
          "internalType": "uint256[]",
          "name": "premiums",
          "type": "uint256[]"
        },
        {
          "internalType": "address",
          "name": "initiator",
          "type": "address"
        },
        {
          "internalType": "bytes",
          "name": "params",
          "type": "bytes"
        }
      ],
      "name": "executeOperation",
      "outputs": [
        {
          "internalType": "bool",
          "name": "",
          "type": "bool"
        }
      ],
      "stateMutability": "nonpayable",
      "type": "function"
    },
    {
      "inputs": [
        {
          "internalType": "uint256",
          "name": "amountOut",
          "type": "uint256"
        },
        {
          "internalType": "address",
          "name": "reserveIn",
          "type": "address"
        },
        {
          "internalType": "address",
          "name": "reserveOut",
          "type": "address"
        }
      ],
      "name": "getAmountsIn",
      "outputs": [
        {
          "internalType": "uint256",
          "name": "",
          "type": "uint256"
        },
        {
          "internalType": "uint256",
          "name": "",
          "type": "uint256"
        },
        {
          "internalType": "uint256",
          "name": "",
          "type": "uint256"
        },
        {
          "internalType": "uint256",
          "name": "",
          "type": "uint256"
        },
        {
          "internalType": "address[]",
          "name": "",
          "type": "address[]"
        }
      ],
      "stateMutability": "view",
      "type": "function"
    },
    {
      "inputs": [
        {
          "internalType": "uint256",
          "name": "amountIn",
          "type": "uint256"
        },
        {
          "internalType": "address",
          "name": "reserveIn",
          "type": "address"
        },
        {
          "internalType": "address",
          "name": "reserveOut",
          "type": "address"
        }
      ],
      "name": "getAmountsOut",
      "outputs": [
        {
          "internalType": "uint256",
          "name": "",
          "type": "uint256"
        },
        {
          "internalType": "uint256",
          "name": "",
          "type": "uint256"
        },
        {
          "internalType": "uint256",
          "name": "",
          "type": "uint256"
        },
        {
          "internalType": "uint256",
          "name": "",
          "type": "uint256"
        },
        {
          "internalType": "address[]",
          "name": "",
          "type": "address[]"
        }
      ],
      "stateMutability": "view",
      "type": "function"
    },
    {
      "inputs": [],
      "name": "owner",
      "outputs": [
        {
          "internalType": "address",
          "name": "",
          "type": "address"
        }
      ],
      "stateMutability": "view",
      "type": "function"
    },
    {
      "inputs": [],
      "name": "renounceOwnership",
      "outputs": [],
      "stateMutability": "nonpayable",
      "type": "function"
    },
    {
      "inputs": [
        {
          "internalType": "contract IERC20",
          "name": "token",
          "type": "address"
        }
      ],
      "name": "rescueTokens",
      "outputs": [],
      "stateMutability": "nonpayable",
      "type": "function"
    },
    {
      "inputs": [
        {
          "internalType": "address",
          "name": "collateralAsset",
          "type": "address"
        },
        {
          "internalType": "address",
          "name": "debtAsset",
          "type": "address"
        },
        {
          "internalType": "uint256",
          "name": "collateralAmount",
          "type": "uint256"
        },
        {
          "internalType": "uint256",
          "name": "debtRepayAmount",
          "type": "uint256"
        },
        {
          "internalType": "uint256",
          "name": "debtRateMode",
          "type": "uint256"
        },
        {
          "components": [
            {
              "internalType": "uint256",
              "name": "amount",
              "type": "uint256"
            },
            {
              "internalType": "uint256",
              "name": "deadline",
              "type": "uint256"
            },
            {
              "internalType": "uint8",
              "name": "v",
              "type": "uint8"
            },
            {
              "internalType": "bytes32",
              "name": "r",
              "type": "bytes32"
            },
            {
              "internalType": "bytes32",
              "name": "s",
              "type": "bytes32"
            }
          ],
          "internalType": "struct IBaseUniswapAdapter.PermitSignature",
          "name": "permitSignature",
          "type": "tuple"
        },
        {
          "internalType": "bool",
          "name": "useEthPath",
          "type": "bool"
        }
      ],
      "name": "swapAndRepay",
      "outputs": [],
      "stateMutability": "nonpayable",
      "type": "function"
    },
    {
      "inputs": [
        {
          "internalType": "address",
          "name": "newOwner",
          "type": "address"
        }
      ],
      "name": "transferOwnership",
      "outputs": [],
      "stateMutability": "nonpayable",
      "type": "function"
    }
  ],
  "bytecode": "0x6101206040523480156200001257600080fd5b5060405162003cbb38038062003cbb8339810160408190526200003591620001fd565b82828282806001600160a01b03166080816001600160a01b031660601b81525050806001600160a01b0316630261bf8b6040518163ffffffff1660e01b815260040160206040518083038186803b1580156200009057600080fd5b505afa158015620000a5573d6000803e3d6000fd5b505050506040513d601f19601f82011682018060405250810190620000cb9190620001d7565b60601b6001600160601b03191660a052506000620000e8620001d3565b600080546001600160a01b0319166001600160a01b0383169081178255604051929350917f8be0079c531659141344cd1fd0a4f28419497f9722a3daafe3b4186f6b6457e0908290a350826001600160a01b031663fca513a86040518163ffffffff1660e01b815260040160206040518083038186803b1580156200016c57600080fd5b505afa15801562000181573d6000803e3d6000fd5b505050506040513d601f19601f82011682018060405250810190620001a79190620001d7565b6001600160601b0319606091821b811660e05292811b8316610100521b1660c052506200026992505050565b3390565b600060208284031215620001e9578081fd5b8151620001f68162000250565b9392505050565b60008060006060848603121562000212578182fd5b83516200021f8162000250565b6020850151909350620002328162000250565b6040850151909250620002458162000250565b809150509250925092565b6001600160a01b03811681146200026657600080fd5b50565b60805160601c60a05160601c60c05160601c60e05160601c6101005160601c61393a620003816000396000818161062b015281816114940152818161158801528181611cce01528181611f790152818161201b0152818161226b015281816126ed01526127de0152600081816103a201526129bb01526000818161034f015281816113320152818161136f015281816113ed01528181611b6b015281816121050152818161258b015281816125c8015261264601526000818161045f015281816105b2015281816108ae01528181610950015281816109e401528181610c1401528181610cb601528181610dcc01528181611033015281816110c201528181611a590152611e1c01526000610373015261393a6000f3fe608060405234801561001057600080fd5b50600436106100ff5760003560e01c8063920f5c8411610097578063cdf58cd611610066578063cdf58cd6146101c8578063d8264920146101db578063e6813563146101e3578063f2fde38b146101f6576100ff565b8063920f5c84146101745780639d1211bf14610194578063b4dcfc771461019c578063baf7fa99146101a4576100ff565b806332e4b286116100d357806332e4b2861461015457806338013f021461015c578063715018a6146101645780638da5cb5b1461016c576100ff565b8062ae3bf814610104578063040141e5146101195780630542975c14610137578063074b2e431461013f575b600080fd5b610117610112366004612df5565b610209565b005b61012161034d565b60405161012e919061331a565b60405180910390f35b610121610371565b610147610395565b60405161012e9190613637565b61014761039a565b6101216103a0565b6101176103c4565b610121610443565b610187610182366004612f1f565b610452565b60405161012e9190613423565b610121610598565b6101216105b0565b6101b76101b236600461325e565b6105d4565b60405161012e959493929190613695565b6101b76101d636600461325e565b610614565b610121610629565b6101176101f1366004612e9a565b61064d565b610117610204366004612df5565b610a80565b610211610b36565b6000546001600160a01b039081169116146102475760405162461bcd60e51b815260040161023e90613556565b60405180910390fd5b806001600160a01b031663a9059cbb61025e610443565b6040516370a0823160e01b81526001600160a01b038516906370a082319061028a90309060040161331a565b60206040518083038186803b1580156102a257600080fd5b505afa1580156102b6573d6000803e3d6000fd5b505050506040513d601f19601f820116820180604052508101906102da9190613246565b6040518363ffffffff1660e01b81526004016102f79291906133bc565b602060405180830381600087803b15801561031157600080fd5b505af1158015610325573d6000803e3d6000fd5b505050506040513d601f19601f8201168201806040525081019061034991906130c3565b5050565b7f000000000000000000000000000000000000000000000000000000000000000081565b7f000000000000000000000000000000000000000000000000000000000000000081565b600981565b610bb881565b7f000000000000000000000000000000000000000000000000000000000000000081565b6103cc610b36565b6000546001600160a01b039081169116146103f95760405162461bcd60e51b815260040161023e90613556565b600080546040516001600160a01b03909116907f8be0079c531659141344cd1fd0a4f28419497f9722a3daafe3b4186f6b6457e0908390a3600080546001600160a01b0319169055565b6000546001600160a01b031690565b6000336001600160a01b037f0000000000000000000000000000000000000000000000000000000000000000161461049c5760405162461bcd60e51b815260040161023e90613461565b60006104dd84848080601f016020809104026020016040519081016040528093929190818152602001838380828437600092019190915250610b3a92505050565b905061058781600001518c8c600081811061050857634e487b7160e01b600052603260045260246000fd5b905060200201602081019061051d9190612df5565b8b8b600081811061053e57634e487b7160e01b600052603260045260246000fd5b90506020020135846020015185604001518a8d8d600081811061057157634e487b7160e01b600052603260045260246000fd5b9050602002013588606001518960800151610be2565b5060019a9950505050505050505050565b7310f7fc1f91ba351f9c629c5947ad69bd03c05b9681565b7f000000000000000000000000000000000000000000000000000000000000000081565b600080600080606060006105e988888b611168565b8051602082015160408301516060840151608090940151929d919c509a509198509650945050505050565b600080600080606060006105e988888b61181e565b7f000000000000000000000000000000000000000000000000000000000000000081565b600061065888611a3a565b9050600061066588611a3a565b90506000600186600281111561068b57634e487b7160e01b600052602160045260246000fd5b60028111156106aa57634e487b7160e01b600052602160045260246000fd5b146106ba578161012001516106c1565b8161010001515b90506000816001600160a01b03166370a08231336040518263ffffffff1660e01b81526004016106f1919061331a565b60206040518083038186803b15801561070957600080fd5b505afa15801561071d573d6000803e3d6000fd5b505050506040513d601f19601f820116820180604052508101906107419190613246565b90506000818911156107535781610755565b885b90508a6001600160a01b03168c6001600160a01b03161461086e5789898210156107905761078d8a6107878385611ae5565b90611af1565b90505b600061079e8e8e858b611afd565b905081816000815181106107c257634e487b7160e01b600052603260045260246000fd5b602002602001015111156107e85760405162461bcd60e51b815260040161023e9061358b565b6108318e8860e00151338460008151811061081357634e487b7160e01b600052603260045260246000fd5b60200260200101518d80360381019061082c91906130df565b611d63565b6108668e8e8360008151811061085757634e487b7160e01b600052603260045260246000fd5b6020026020010151868c611eaf565b50505061088a565b61088a8c8660e0015133848b80360381019061082c91906130df565b60405163095ea7b360e01b81526001600160a01b038c169063095ea7b3906108d9907f0000000000000000000000000000000000000000000000000000000000000000906000906004016133bc565b602060405180830381600087803b1580156108f357600080fd5b505af1158015610907573d6000803e3d6000fd5b505050506040513d601f19601f8201168201806040525081019061092b91906130c3565b5060405163095ea7b360e01b81526001600160a01b038c169063095ea7b39061097a907f00000000000000000000000000000000000000000000000000000000000000009085906004016133bc565b602060405180830381600087803b15801561099457600080fd5b505af11580156109a8573d6000803e3d6000fd5b505050506040513d601f19601f820116820180604052508101906109cc91906130c3565b5060405163573ade8160e01b81526001600160a01b037f0000000000000000000000000000000000000000000000000000000000000000169063573ade8190610a1f908e9085908d9033906004016133f8565b602060405180830381600087803b158015610a3957600080fd5b505af1158015610a4d573d6000803e3d6000fd5b505050506040513d601f19601f82011682018060405250810190610a719190613246565b50505050505050505050505050565b610a88610b36565b6000546001600160a01b03908116911614610ab55760405162461bcd60e51b815260040161023e90613556565b6001600160a01b038116610adb5760405162461bcd60e51b815260040161023e90613498565b600080546040516001600160a01b03808516939216917f8be0079c531659141344cd1fd0a4f28419497f9722a3daafe3b4186f6b6457e091a3600080546001600160a01b0319166001600160a01b0392909216919091179055565b3390565b610b42612c07565b60008060008060008060008060008a806020019051810190610b649190612e11565b9850985098509850985098509850985098506040518060a001604052808a6001600160a01b031681526020018981526020018881526020016040518060a001604052808981526020018881526020018760ff16815260200186815260200185815250815260200182151581525099505050505050505050505b919050565b6000610bed8a611a3a565b60405163095ea7b360e01b81529091506001600160a01b038a169063095ea7b390610c3f907f0000000000000000000000000000000000000000000000000000000000000000906000906004016133bc565b602060405180830381600087803b158015610c5957600080fd5b505af1158015610c6d573d6000803e3d6000fd5b505050506040513d601f19601f82011682018060405250810190610c9191906130c3565b5060405163095ea7b360e01b81526001600160a01b038a169063095ea7b390610ce0907f0000000000000000000000000000000000000000000000000000000000000000908c906004016133bc565b602060405180830381600087803b158015610cfa57600080fd5b505af1158015610d0e573d6000803e3d6000fd5b505050506040513d601f19601f82011682018060405250810190610d3291906130c3565b506040516370a0823160e01b81526000906001600160a01b038b16906370a0823190610d6290309060040161331a565b60206040518083038186803b158015610d7a57600080fd5b505afa158015610d8e573d6000803e3d6000fd5b505050506040513d601f19601f82011682018060405250810190610db29190613246565b60405163573ade8160e01b81529091506001600160a01b037f0000000000000000000000000000000000000000000000000000000000000000169063573ade8190610e07908d908d908c908c906004016133f8565b602060405180830381600087803b158015610e2157600080fd5b505af1158015610e35573d6000803e3d6000fd5b505050506040513d601f19601f82011682018060405250810190610e599190613246565b506040516370a0823160e01b8152610ee1906001600160a01b038c16906370a0823190610e8a90309060040161331a565b60206040518083038186803b158015610ea257600080fd5b505afa158015610eb6573d6000803e3d6000fd5b505050506040513d601f19601f82011682018060405250810190610eda9190613246565b82906123d4565b9050896001600160a01b03168b6001600160a01b031614610ff3578789821015610f1657610f138a6107878385611ae5565b90505b6000610f2283886123e0565b90506000610f328e8e8489611afd565b90508281600081518110610f5657634e487b7160e01b600052603260045260246000fd5b60200260200101511115610f7c5760405162461bcd60e51b815260040161023e9061358b565b610fb58e8660e001518b84600081518110610fa757634e487b7160e01b600052603260045260246000fd5b60200260200101518b611d63565b610fea8e8e83600081518110610fdb57634e487b7160e01b600052603260045260246000fd5b6020026020010151858a611eaf565b5050505061100f565b60e082015161100f908c9088611009858a6123e0565b88611d63565b60405163095ea7b360e01b81526001600160a01b038b169063095ea7b39061105e907f0000000000000000000000000000000000000000000000000000000000000000906000906004016133bc565b602060405180830381600087803b15801561107857600080fd5b505af115801561108c573d6000803e3d6000fd5b505050506040513d601f19601f820116820180604052508101906110b091906130c3565b506001600160a01b038a1663095ea7b37f00000000000000000000000000000000000000000000000000000000000000006110eb8c896123e0565b6040518363ffffffff1660e01b81526004016111089291906133bc565b602060405180830381600087803b15801561112257600080fd5b505af1158015611136573d6000803e3d6000fd5b505050506040513d601f19601f8201168201806040525081019061115a91906130c3565b505050505050505050505050565b611170612c45565b600061118d611186612710610787866009611ae5565b84906123d4565b9050836001600160a01b0316856001600160a01b0316141561126d5760006111b4866123ec565b604080516001808252818301909252919250600091906020808301908036833701905050905086816000815181106111fc57634e487b7160e01b600052603260045260246000fd5b6001600160a01b039092166020928302919091018201526040805160a0810190915284815290810161123a8761078787670de0b6b3a7640000611ae5565b815260200161124a898886612468565b815260200161125a898686612468565b8152602001828152509350505050611817565b60408051600280825260608201835260009260208301908036833701905050905085816000815181106112b057634e487b7160e01b600052603260045260246000fd5b60200260200101906001600160a01b031690816001600160a01b03168152505084816001815181106112f257634e487b7160e01b600052603260045260246000fd5b6001600160a01b039290921660209283029190910182015260408051600380825260808201909252606092839260009291820184803683370190505090507f00000000000000000000000000000000000000000000000000000000000000006001600160a01b0316896001600160a01b0316141580156113a457507f00000000000000000000000000000000000000000000000000000000000000006001600160a01b0316886001600160a01b031614155b1561154c5788816000815181106113cb57634e487b7160e01b600052603260045260246000fd5b60200260200101906001600160a01b031690816001600160a01b0316815250507f00000000000000000000000000000000000000000000000000000000000000008160018151811061142d57634e487b7160e01b600052603260045260246000fd5b60200260200101906001600160a01b031690816001600160a01b031681525050878160028151811061146f57634e487b7160e01b600052603260045260246000fd5b6001600160a01b03928316602091820292909201015260405163d06ca61f60e01b81527f00000000000000000000000000000000000000000000000000000000000000009091169063d06ca61f906114cd9088908590600401613640565b60006040518083038186803b1580156114e557600080fd5b505afa92505050801561151a57506040513d6000823e601f3d908101601f19168201604052611517919081019061301c565b60015b61154457604080516003808252608082019092529060208201606080368337019050509150611547565b91505b61156e565b6040805160038082526080820190925290602082016060803683370190505091505b60405163d06ca61f60e01b81526000906001600160a01b037f0000000000000000000000000000000000000000000000000000000000000000169063d06ca61f906115bf9089908990600401613640565b60006040518083038186803b1580156115d757600080fd5b505afa92505050801561160c57506040513d6000823e601f3d908101601f19168201604052611609919081019061301c565b60015b6116605760408051600280825260608201835290916020830190803683370190505093508260028151811061165157634e487b7160e01b600052603260045260246000fd5b60200260200101519050611716565b8094508460018151811061168457634e487b7160e01b600052603260045260246000fd5b6020026020010151846002815181106116ad57634e487b7160e01b600052603260045260246000fd5b6020026020010151116116e857846001815181106116db57634e487b7160e01b600052603260045260246000fd5b6020026020010151611712565b8360028151811061170957634e487b7160e01b600052603260045260246000fd5b60200260200101515b9150505b60006117218b6123ec565b9050600061172e8b6123ec565b9050600061177061174a61174385600a613773565b8690611ae5565b61078761175885600a613773565b61176a8d670de0b6b3a7640000611ae5565b90611ae5565b90506040518060a001604052808581526020018281526020016117948f8e87612468565b81526020016117a48e8786612468565b815260200185156117eb57886001815181106117d057634e487b7160e01b600052603260045260246000fd5b602002602001015186146117e457866117e6565b895b611809565b60408051600280825260608201835290916020830190803683375050505b905299505050505050505050505b9392505050565b611826612c45565b826001600160a01b0316846001600160a01b0316141561191057600061185d611856612710610787866009611ae5565b84906123e0565b9050600061186a866123ec565b604080516001808252818301909252919250600091906020808301908036833701905050905086816000815181106118b257634e487b7160e01b600052603260045260246000fd5b6001600160a01b039092166020928302919091018201526040805160a081019091528481529081016118f08561078789670de0b6b3a7640000611ae5565b8152602001611900898686612468565b815260200161125a898886612468565b60008061191e8686866124bf565b9150915060006119a061196961271061078760098760008151811061195357634e487b7160e01b600052603260045260246000fd5b6020026020010151611ae590919063ffffffff16565b8460008151811061198a57634e487b7160e01b600052603260045260246000fd5b60200260200101516123e090919063ffffffff16565b905060006119ad886123ec565b905060006119ba886123ec565b905060006119ef6119cf61174384600a613773565b6107876119dd86600a613773565b61176a8c670de0b6b3a7640000611ae5565b90506040518060a00160405280858152602001828152602001611a138c8787612468565b8152602001611a238b8b86612468565b815260200195909552509298975050505050505050565b611a42612c74565b6040516335ea6a7560e01b81526001600160a01b037f000000000000000000000000000000000000000000000000000000000000000016906335ea6a7590611a8e90859060040161331a565b6101806040518083038186803b158015611aa757600080fd5b505afa158015611abb573d6000803e3d6000fd5b505050506040513d601f19601f82011682018060405250810190611adf9190613156565b92915050565b60006118178284613841565b6000611817828461370d565b6060808215611c12576040805160038082526080820190925290602082016060803683370190505090508581600081518110611b4957634e487b7160e01b600052603260045260246000fd5b60200260200101906001600160a01b031690816001600160a01b0316815250507f000000000000000000000000000000000000000000000000000000000000000081600181518110611bab57634e487b7160e01b600052603260045260246000fd5b60200260200101906001600160a01b031690816001600160a01b0316815250508481600281518110611bed57634e487b7160e01b600052603260045260246000fd5b60200260200101906001600160a01b031690816001600160a01b031681525050611cb7565b60408051600280825260608201835290916020830190803683370190505090508581600081518110611c5457634e487b7160e01b600052603260045260246000fd5b60200260200101906001600160a01b031690816001600160a01b0316815250508481600181518110611c9657634e487b7160e01b600052603260045260246000fd5b60200260200101906001600160a01b031690816001600160a01b0316815250505b6040516307c0329d60e21b81526001600160a01b037f00000000000000000000000000000000000000000000000000000000000000001690631f00ca7490611d059087908590600401613640565b60006040518083038186803b158015611d1d57600080fd5b505afa158015611d31573d6000803e3d6000fd5b505050506040513d6000823e601f3d908101601f19168201604052611d59919081019061301c565b9695505050505050565b611d6c8161291e565b15611df057836001600160a01b031663d505accf8430846000015185602001518660400151876060015188608001516040518863ffffffff1660e01b8152600401611dbd979695949392919061337b565b600060405180830381600087803b158015611dd757600080fd5b505af1158015611deb573d6000803e3d6000fd5b505050505b611e056001600160a01b038516843085612943565b604051631a4ca37b60e21b81526001600160a01b037f000000000000000000000000000000000000000000000000000000000000000016906369328dec90611e55908890869030906004016133d5565b602060405180830381600087803b158015611e6f57600080fd5b505af1158015611e83573d6000803e3d6000fd5b505050506040513d601f19601f82011682018060405250810190611ea79190613246565b505050505050565b600080611ebb876123ec565b90506000611ec8876123ec565b90506000611ed5896129a1565b90506000611ee2896129a1565b90506000611f34611ef7612710610bb86123e0565b611f2e611f0f611f0888600a613773565b8790611ae5565b610787611f27611f208b600a613773565b8890611ae5565b8d90611ae5565b90612a40565b9050808910611f555760405162461bcd60e51b815260040161023e90613513565b60405163095ea7b360e01b81526001600160a01b038c169063095ea7b390611fa4907f0000000000000000000000000000000000000000000000000000000000000000906000906004016133bc565b602060405180830381600087803b158015611fbe57600080fd5b505af1158015611fd2573d6000803e3d6000fd5b505050506040513d601f19601f82011682018060405250810190611ff691906130c3565b5060405163095ea7b360e01b81526001600160a01b038c169063095ea7b390612045907f0000000000000000000000000000000000000000000000000000000000000000908d906004016133bc565b602060405180830381600087803b15801561205f57600080fd5b505af1158015612073573d6000803e3d6000fd5b505050506040513d601f19601f8201168201806040525081019061209791906130c3565b50606087156121ac576040805160038082526080820190925290602082016060803683370190505090508b816000815181106120e357634e487b7160e01b600052603260045260246000fd5b60200260200101906001600160a01b031690816001600160a01b0316815250507f00000000000000000000000000000000000000000000000000000000000000008160018151811061214557634e487b7160e01b600052603260045260246000fd5b60200260200101906001600160a01b031690816001600160a01b0316815250508a8160028151811061218757634e487b7160e01b600052603260045260246000fd5b60200260200101906001600160a01b031690816001600160a01b031681525050612251565b60408051600280825260608201835290916020830190803683370190505090508b816000815181106121ee57634e487b7160e01b600052603260045260246000fd5b60200260200101906001600160a01b031690816001600160a01b0316815250508a8160018151811061223057634e487b7160e01b600052603260045260246000fd5b60200260200101906001600160a01b031690816001600160a01b0316815250505b604051634401edf760e11b81526000906001600160a01b037f00000000000000000000000000000000000000000000000000000000000000001690638803dbee906122a8908d908f90879030904290600401613659565b600060405180830381600087803b1580156122c257600080fd5b505af11580156122d6573d6000803e3d6000fd5b505050506040513d6000823e601f3d908101601f191682016040526122fe919081019061301c565b90507fa078c4190abe07940190effc1846be0ccf03ad6007bc9e93f9697d0b460befbb8d8d8360008151811061234457634e487b7160e01b600052603260045260246000fd5b6020026020010151846001865161235b9190613860565b8151811061237957634e487b7160e01b600052603260045260246000fd5b60200260200101516040516123919493929190613352565b60405180910390a1806000815181106123ba57634e487b7160e01b600052603260045260246000fd5b602002602001015197505050505050505095945050505050565b60006118178284613860565b600061181782846136f5565b6000816001600160a01b031663313ce5676040518163ffffffff1660e01b815260040160206040518083038186803b15801561242757600080fd5b505afa15801561243b573d6000803e3d6000fd5b505050506040513d601f19601f8201168201806040525081019061245f919061329f565b60ff1692915050565b6000806124887310f7fc1f91ba351f9c629c5947ad69bd03c05b966129a1565b90506000612495866129a1565b9050611d59670de0b6b3a76400006107878461176a6124b589600a613773565b6107878b88611ae5565b60408051600280825260608281019093528291600091816020016020820280368337019050509050858160008151811061250957634e487b7160e01b600052603260045260246000fd5b60200260200101906001600160a01b031690816001600160a01b031681525050848160018151811061254b57634e487b7160e01b600052603260045260246000fd5b6001600160a01b039290921660209283029190910182015260408051600380825260808201909252606092839260009291820184803683370190505090507f00000000000000000000000000000000000000000000000000000000000000006001600160a01b0316896001600160a01b0316141580156125fd57507f00000000000000000000000000000000000000000000000000000000000000006001600160a01b0316886001600160a01b031614155b156127a557888160008151811061262457634e487b7160e01b600052603260045260246000fd5b60200260200101906001600160a01b031690816001600160a01b0316815250507f00000000000000000000000000000000000000000000000000000000000000008160018151811061268657634e487b7160e01b600052603260045260246000fd5b60200260200101906001600160a01b031690816001600160a01b03168152505087816002815181106126c857634e487b7160e01b600052603260045260246000fd5b6001600160a01b0392831660209182029290920101526040516307c0329d60e21b81527f000000000000000000000000000000000000000000000000000000000000000090911690631f00ca7490612726908a908590600401613640565b60006040518083038186803b15801561273e57600080fd5b505afa92505050801561277357506040513d6000823e601f3d908101601f19168201604052612770919081019061301c565b60015b61279d576040805160038082526080820190925290602082016060803683370190505091506127a0565b91505b6127c7565b6040805160038082526080820190925290602082016060803683370190505091505b6040516307c0329d60e21b81526001600160a01b037f00000000000000000000000000000000000000000000000000000000000000001690631f00ca7490612815908a908890600401613640565b60006040518083038186803b15801561282d57600080fd5b505afa92505050801561286257506040513d6000823e601f3d908101601f1916820160405261285f919081019061301c565b60015b612873579094509250612916915050565b8093508360008151811061289757634e487b7160e01b600052603260045260246000fd5b6020026020010151836000815181106128c057634e487b7160e01b600052603260045260246000fd5b60200260200101511080156128fe5750826000815181106128f157634e487b7160e01b600052603260045260246000fd5b6020026020010151600014155b61290957838561290c565b82825b9650965050505050505b935093915050565b6000816040015160ff16826020015114801561293c57506020820151155b1592915050565b61299b846323b872dd60e01b8585856040516024016129649392919061332e565b60408051601f198184030181529190526020810180516001600160e01b03166001600160e01b031990931692909217909152612ae7565b50505050565b60405163b3596f0760e01b81526000906001600160a01b037f0000000000000000000000000000000000000000000000000000000000000000169063b3596f07906129f090859060040161331a565b60206040518083038186803b158015612a0857600080fd5b505afa158015612a1c573d6000803e3d6000fd5b505050506040513d601f19601f82011682018060405250810190611adf9190613246565b6000821580612a4d575081155b15612a5a57506000611adf565b81612a68600261271061370d565b612a7490600019613860565b612a7e919061370d565b83111560405180604001604052806002815260200161068760f31b81525090612aba5760405162461bcd60e51b815260040161023e919061342e565b50612710612ac960028261370d565b612ad38486613841565b612add91906136f5565b611817919061370d565b612af9826001600160a01b0316612bcb565b612b155760405162461bcd60e51b815260040161023e90613600565b600080836001600160a01b031683604051612b3091906132fe565b6000604051808303816000865af19150503d8060008114612b6d576040519150601f19603f3d011682016040523d82523d6000602084013e612b72565b606091505b509150915081612b945760405162461bcd60e51b815260040161023e906134de565b80511561299b5780806020019051810190612baf91906130c3565b61299b5760405162461bcd60e51b815260040161023e906135b6565b6000813f7fc5d2460186f7233c927e7db2dcc703c0e500b653ca82273b7bfad8045d85a470818114801590612bff57508115155b949350505050565b6040518060a0016040528060006001600160a01b031681526020016000815260200160008152602001612c38612cdf565b8152600060209091015290565b6040518060a0016040528060008152602001600081526020016000815260200160008152602001606081525090565b604051806101800160405280612c88612d0d565b815260006020820181905260408201819052606082018190526080820181905260a0820181905260c0820181905260e082018190526101008201819052610120820181905261014082018190526101609091015290565b6040805160a08101825260008082526020820181905291810182905260608101829052608081019190915290565b6040518060200160405280600081525090565b8051610bdd816138cf565b60008083601f840112612d3c578182fd5b50813567ffffffffffffffff811115612d53578182fd5b6020830191508360208083028501011115612d6d57600080fd5b9250929050565b600060208284031215612d85578081fd5b6040516020810181811067ffffffffffffffff82111715612da857612da86138b9565b6040529151825250919050565b80516fffffffffffffffffffffffffffffffff81168114610bdd57600080fd5b805164ffffffffff81168114610bdd57600080fd5b8051610bdd816138f5565b600060208284031215612e06578081fd5b8135611817816138cf565b60008060008060008060008060006101208a8c031215612e2f578485fd5b8951612e3a816138cf565b8099505060208a0151975060408a0151965060608a0151955060808a0151945060a08a0151612e68816138f5565b8094505060c08a0151925060e08a015191506101008a0151612e89816138e7565b809150509295985092959850929598565b6000806000806000806000878903610160811215612eb6578182fd5b8835612ec1816138cf565b97506020890135612ed1816138cf565b965060408901359550606089013594506080890135935060a0609f1982011215612ef9578182fd5b5060a088019150610140880135612f0f816138e7565b8091505092959891949750929550565b600080600080600080600080600060a08a8c031215612f3c578283fd5b893567ffffffffffffffff80821115612f53578485fd5b612f5f8d838e01612d2b565b909b50995060208c0135915080821115612f77578485fd5b612f838d838e01612d2b565b909950975060408c0135915080821115612f9b578485fd5b612fa78d838e01612d2b565b909750955060608c01359150612fbc826138cf565b90935060808b01359080821115612fd1578384fd5b818c0191508c601f830112612fe4578384fd5b813581811115612ff2578485fd5b8d6020828501011115613003578485fd5b6020830194508093505050509295985092959850929598565b6000602080838503121561302e578182fd5b825167ffffffffffffffff80821115613045578384fd5b818501915085601f830112613058578384fd5b81518181111561306a5761306a6138b9565b838102915061307a8483016136cb565b8181528481019084860184860187018a1015613094578788fd5b8795505b838610156130b6578051835260019590950194918601918601613098565b5098975050505050505050565b6000602082840312156130d4578081fd5b8151611817816138e7565b600060a082840312156130f0578081fd5b60405160a0810181811067ffffffffffffffff82111715613113576131136138b9565b806040525082358152602083013560208201526040830135613134816138f5565b6040820152606083810135908201526080928301359281019290925250919050565b6000610180808385031215613169578182fd5b613172816136cb565b905061317e8484612d74565b815261318c60208401612db5565b602082015261319d60408401612db5565b60408201526131ae60608401612db5565b60608201526131bf60808401612db5565b60808201526131d060a08401612db5565b60a08201526131e160c08401612dd5565b60c08201526131f260e08401612d20565b60e0820152610100613205818501612d20565b90820152610120613217848201612d20565b90820152610140613229848201612d20565b9082015261016061323b848201612dea565b908201529392505050565b600060208284031215613257578081fd5b5051919050565b600080600060608486031215613272578081fd5b833592506020840135613284816138cf565b91506040840135613294816138cf565b809150509250925092565b6000602082840312156132b0578081fd5b8151611817816138f5565b6000815180845260208085019450808401835b838110156132f35781516001600160a01b0316875295820195908201906001016132ce565b509495945050505050565b60008251613310818460208701613877565b9190910192915050565b6001600160a01b0391909116815260200190565b6001600160a01b039384168152919092166020820152604081019190915260600190565b6001600160a01b0394851681529290931660208301526040820152606081019190915260800190565b6001600160a01b0397881681529590961660208601526040850193909352606084019190915260ff16608083015260a082015260c081019190915260e00190565b6001600160a01b03929092168252602082015260400190565b6001600160a01b0393841681526020810192909252909116604082015260600190565b6001600160a01b03948516815260208101939093526040830191909152909116606082015260800190565b901515815260200190565b600060208252825180602084015261344d816040850160208701613877565b601f01601f19169190910160400192915050565b6020808252601b908201527f43414c4c45525f4d5553545f42455f4c454e44494e475f504f4f4c0000000000604082015260600190565b60208082526026908201527f4f776e61626c653a206e6577206f776e657220697320746865207a65726f206160408201526564647265737360d01b606082015260800190565b6020808252818101527f5361666545524332303a206c6f772d6c6576656c2063616c6c206661696c6564604082015260600190565b60208082526023908201527f6d6178416d6f756e74546f5377617020657863656564206d617820736c69707060408201526261676560e81b606082015260800190565b6020808252818101527f4f776e61626c653a2063616c6c6572206973206e6f7420746865206f776e6572604082015260600190565b6020808252601190820152700e6d8d2e0e0c2ceca40e8dede40d0d2ced607b1b604082015260600190565b6020808252602a908201527f5361666545524332303a204552433230206f7065726174696f6e20646964206e6040820152691bdd081cdd58d8d9595960b21b606082015260800190565b6020808252601f908201527f5361666545524332303a2063616c6c20746f206e6f6e2d636f6e747261637400604082015260600190565b90815260200190565b600083825260406020830152612bff60408301846132bb565b600086825285602083015260a0604083015261367860a08301866132bb565b6001600160a01b0394909416606083015250608001529392505050565b600086825285602083015284604083015283606083015260a060808301526136c060a08301846132bb565b979650505050505050565b60405181810167ffffffffffffffff811182821017156136ed576136ed6138b9565b604052919050565b60008219821115613708576137086138a3565b500190565b60008261372857634e487b7160e01b81526012600452602481fd5b500490565b80825b600180861161373f575061376a565b818704821115613751576137516138a3565b8086161561375e57918102915b9490941c938002613730565b94509492505050565b6000611817600019848460008261378c57506001611817565b8161379957506000611817565b81600181146137af57600281146137b9576137e6565b6001915050611817565b60ff8411156137ca576137ca6138a3565b6001841b9150848211156137e0576137e06138a3565b50611817565b5060208310610133831016604e8410600b8410161715613819575081810a83811115613814576138146138a3565b611817565b613826848484600161372d565b808604821115613838576138386138a3565b02949350505050565b600081600019048311821515161561385b5761385b6138a3565b500290565b600082821015613872576138726138a3565b500390565b60005b8381101561389257818101518382015260200161387a565b8381111561299b5750506000910152565b634e487b7160e01b600052601160045260246000fd5b634e487b7160e01b600052604160045260246000fd5b6001600160a01b03811681146138e457600080fd5b50565b80151581146138e457600080fd5b60ff811681146138e457600080fdfea26469706673582212207aff227f02791fef8bf028d69f360446d70ba74c3b55fb6a35fe33e41687cacc64736f6c63430008000033",
  "linkReferences": {},
  "deployedLinkReferences": {}
}