{
  "_format": "hh-sol-artifact-1",
  "contractName": "DelegationAwareAToken",
  "sourceName": "contracts/protocol/tokenization/DelegationAwareAToken.sol",
  "abi": [
    {
      "anonymous": false,
      "inputs": [
        {
          "indexed": true,
          "internalType": "address",
          "name": "owner",
          "type": "address"
        },
        {
          "indexed": true,
          "internalType": "address",
          "name": "spender",
          "type": "address"
        },
        {
          "indexed": false,
          "internalType": "uint256",
          "name": "value",
          "type": "uint256"
        }
      ],
      "name": "Approval",
      "type": "event"
    },
    {
      "anonymous": false,
      "inputs": [
        {
          "indexed": true,
          "internalType": "address",
          "name": "from",
          "type": "address"
        },
        {
          "indexed": true,
          "internalType": "address",
          "name": "to",
          "type": "address"
        },
        {
          "indexed": false,
          "internalType": "uint256",
          "name": "value",
          "type": "uint256"
        },
        {
          "indexed": false,
          "internalType": "uint256",
          "name": "index",
          "type": "uint256"
        }
      ],
      "name": "BalanceTransfer",
      "type": "event"
    },
    {
      "anonymous": false,
      "inputs": [
        {
          "indexed": true,
          "internalType": "address",
          "name": "from",
          "type": "address"
        },
        {
          "indexed": true,
          "internalType": "address",
          "name": "target",
          "type": "address"
        },
        {
          "indexed": false,
          "internalType": "uint256",
          "name": "value",
          "type": "uint256"
        },
        {
          "indexed": false,
          "internalType": "uint256",
          "name": "index",
          "type": "uint256"
        }
      ],
      "name": "Burn",
      "type": "event"
    },
    {
      "anonymous": false,
      "inputs": [
        {
          "indexed": true,
          "internalType": "address",
          "name": "underlyingAsset",
          "type": "address"
        },
        {
          "indexed": true,
          "internalType": "address",
          "name": "pool",
          "type": "address"
        },
        {
          "indexed": false,
          "internalType": "address",
          "name": "treasury",
          "type": "address"
        },
        {
          "indexed": false,
          "internalType": "address",
          "name": "incentivesController",
          "type": "address"
        },
        {
          "indexed": false,
          "internalType": "uint8",
          "name": "aTokenDecimals",
          "type": "uint8"
        },
        {
          "indexed": false,
          "internalType": "string",
          "name": "aTokenName",
          "type": "string"
        },
        {
          "indexed": false,
          "internalType": "string",
          "name": "aTokenSymbol",
          "type": "string"
        },
        {
          "indexed": false,
          "internalType": "bytes",
          "name": "params",
          "type": "bytes"
        }
      ],
      "name": "Initialized",
      "type": "event"
    },
    {
      "anonymous": false,
      "inputs": [
        {
          "indexed": true,
          "internalType": "address",
          "name": "from",
          "type": "address"
        },
        {
          "indexed": false,
          "internalType": "uint256",
          "name": "value",
          "type": "uint256"
        },
        {
          "indexed": false,
          "internalType": "uint256",
          "name": "index",
          "type": "uint256"
        }
      ],
      "name": "Mint",
      "type": "event"
    },
    {
      "anonymous": false,
      "inputs": [
        {
          "indexed": true,
          "internalType": "address",
          "name": "from",
          "type": "address"
        },
        {
          "indexed": true,
          "internalType": "address",
          "name": "to",
          "type": "address"
        },
        {
          "indexed": false,
          "internalType": "uint256",
          "name": "value",
          "type": "uint256"
        }
      ],
      "name": "Transfer",
      "type": "event"
    },
    {
      "inputs": [],
      "name": "ATOKEN_REVISION",
      "outputs": [
        {
          "internalType": "uint256",
          "name": "",
          "type": "uint256"
        }
      ],
      "stateMutability": "view",
      "type": "function"
    },
    {
      "inputs": [],
      "name": "DOMAIN_SEPARATOR",
      "outputs": [
        {
          "internalType": "bytes32",
          "name": "",
          "type": "bytes32"
        }
      ],
      "stateMutability": "view",
      "type": "function"
    },
    {
      "inputs": [],
      "name": "EIP712_REVISION",
      "outputs": [
        {
          "internalType": "bytes",
          "name": "",
          "type": "bytes"
        }
      ],
      "stateMutability": "view",
      "type": "function"
    },
    {
      "inputs": [],
      "name": "PERMIT_TYPEHASH",
      "outputs": [
        {
          "internalType": "bytes32",
          "name": "",
          "type": "bytes32"
        }
      ],
      "stateMutability": "view",
      "type": "function"
    },
    {
      "inputs": [],
      "name": "POOL",
      "outputs": [
        {
          "internalType": "contract ILendingPool",
          "name": "",
          "type": "address"
        }
      ],
      "stateMutability": "view",
      "type": "function"
    },
    {
      "inputs": [],
      "name": "RESERVE_TREASURY_ADDRESS",
      "outputs": [
        {
          "internalType": "address",
          "name": "",
          "type": "address"
        }
      ],
      "stateMutability": "view",
      "type": "function"
    },
    {
      "inputs": [],
      "name": "UNDERLYING_ASSET_ADDRESS",
      "outputs": [
        {
          "internalType": "address",
          "name": "",
          "type": "address"
        }
      ],
      "stateMutability": "view",
      "type": "function"
    },
    {
      "inputs": [
        {
          "internalType": "address",
          "name": "",
          "type": "address"
        }
      ],
      "name": "_nonces",
      "outputs": [
        {
          "internalType": "uint256",
          "name": "",
          "type": "uint256"
        }
      ],
      "stateMutability": "view",
      "type": "function"
    },
    {
      "inputs": [
        {
          "internalType": "address",
          "name": "owner",
          "type": "address"
        },
        {
          "internalType": "address",
          "name": "spender",
          "type": "address"
        }
      ],
      "name": "allowance",
      "outputs": [
        {
          "internalType": "uint256",
          "name": "",
          "type": "uint256"
        }
      ],
      "stateMutability": "view",
      "type": "function"
    },
    {
      "inputs": [
        {
          "internalType": "address",
          "name": "spender",
          "type": "address"
        },
        {
          "internalType": "uint256",
          "name": "amount",
          "type": "uint256"
        }
      ],
      "name": "approve",
      "outputs": [
        {
          "internalType": "bool",
          "name": "",
          "type": "bool"
        }
      ],
      "stateMutability": "nonpayable",
      "type": "function"
    },
    {
      "inputs": [
        {
          "internalType": "address",
          "name": "user",
          "type": "address"
        }
      ],
      "name": "balanceOf",
      "outputs": [
        {
          "internalType": "uint256",
          "name": "",
          "type": "uint256"
        }
      ],
      "stateMutability": "view",
      "type": "function"
    },
    {
      "inputs": [
        {
          "internalType": "address",
          "name": "user",
          "type": "address"
        },
        {
          "internalType": "address",
          "name": "receiverOfUnderlying",
          "type": "address"
        },
        {
          "internalType": "uint256",
          "name": "amount",
          "type": "uint256"
        },
        {
          "internalType": "uint256",
          "name": "index",
          "type": "uint256"
        }
      ],
      "name": "burn",
      "outputs": [],
      "stateMutability": "nonpayable",
      "type": "function"
    },
    {
      "inputs": [],
      "name": "decimals",
      "outputs": [
        {
          "internalType": "uint8",
          "name": "",
          "type": "uint8"
        }
      ],
      "stateMutability": "view",
      "type": "function"
    },
    {
      "inputs": [
        {
          "internalType": "address",
          "name": "spender",
          "type": "address"
        },
        {
          "internalType": "uint256",
          "name": "subtractedValue",
          "type": "uint256"
        }
      ],
      "name": "decreaseAllowance",
      "outputs": [
        {
          "internalType": "bool",
          "name": "",
          "type": "bool"
        }
      ],
      "stateMutability": "nonpayable",
      "type": "function"
    },
    {
      "inputs": [
        {
          "internalType": "address",
          "name": "delegatee",
          "type": "address"
        }
      ],
      "name": "delegateUnderlyingTo",
      "outputs": [],
      "stateMutability": "nonpayable",
      "type": "function"
    },
    {
      "inputs": [],
      "name": "getIncentivesController",
      "outputs": [
        {
          "internalType": "contract IAaveIncentivesController",
          "name": "",
          "type": "address"
        }
      ],
      "stateMutability": "view",
      "type": "function"
    },
    {
      "inputs": [
        {
          "internalType": "address",
          "name": "user",
          "type": "address"
        }
      ],
      "name": "getScaledUserBalanceAndSupply",
      "outputs": [
        {
          "internalType": "uint256",
          "name": "",
          "type": "uint256"
        },
        {
          "internalType": "uint256",
          "name": "",
          "type": "uint256"
        }
      ],
      "stateMutability": "view",
      "type": "function"
    },
    {
      "inputs": [
        {
          "internalType": "address",
          "name": "user",
          "type": "address"
        },
        {
          "internalType": "uint256",
          "name": "amount",
          "type": "uint256"
        }
      ],
      "name": "handleRepayment",
      "outputs": [],
      "stateMutability": "nonpayable",
      "type": "function"
    },
    {
      "inputs": [
        {
          "internalType": "address",
          "name": "spender",
          "type": "address"
        },
        {
          "internalType": "uint256",
          "name": "addedValue",
          "type": "uint256"
        }
      ],
      "name": "increaseAllowance",
      "outputs": [
        {
          "internalType": "bool",
          "name": "",
          "type": "bool"
        }
      ],
      "stateMutability": "nonpayable",
      "type": "function"
    },
    {
      "inputs": [
        {
          "internalType": "contract ILendingPool",
          "name": "pool",
          "type": "address"
        },
        {
          "internalType": "address",
          "name": "treasury",
          "type": "address"
        },
        {
          "internalType": "address",
          "name": "underlyingAsset",
          "type": "address"
        },
        {
          "internalType": "contract IAaveIncentivesController",
          "name": "incentivesController",
          "type": "address"
        },
        {
          "internalType": "uint8",
          "name": "aTokenDecimals",
          "type": "uint8"
        },
        {
          "internalType": "string",
          "name": "aTokenName",
          "type": "string"
        },
        {
          "internalType": "string",
          "name": "aTokenSymbol",
          "type": "string"
        },
        {
          "internalType": "bytes",
          "name": "params",
          "type": "bytes"
        }
      ],
      "name": "initialize",
      "outputs": [],
      "stateMutability": "nonpayable",
      "type": "function"
    },
    {
      "inputs": [
        {
          "internalType": "address",
          "name": "user",
          "type": "address"
        },
        {
          "internalType": "uint256",
          "name": "amount",
          "type": "uint256"
        },
        {
          "internalType": "uint256",
          "name": "index",
          "type": "uint256"
        }
      ],
      "name": "mint",
      "outputs": [
        {
          "internalType": "bool",
          "name": "",
          "type": "bool"
        }
      ],
      "stateMutability": "nonpayable",
      "type": "function"
    },
    {
      "inputs": [
        {
          "internalType": "uint256",
          "name": "amount",
          "type": "uint256"
        },
        {
          "internalType": "uint256",
          "name": "index",
          "type": "uint256"
        }
      ],
      "name": "mintToTreasury",
      "outputs": [],
      "stateMutability": "nonpayable",
      "type": "function"
    },
    {
      "inputs": [],
      "name": "name",
      "outputs": [
        {
          "internalType": "string",
          "name": "",
          "type": "string"
        }
      ],
      "stateMutability": "view",
      "type": "function"
    },
    {
      "inputs": [
        {
          "internalType": "address",
          "name": "owner",
          "type": "address"
        },
        {
          "internalType": "address",
          "name": "spender",
          "type": "address"
        },
        {
          "internalType": "uint256",
          "name": "value",
          "type": "uint256"
        },
        {
          "internalType": "uint256",
          "name": "deadline",
          "type": "uint256"
        },
        {
          "internalType": "uint8",
          "name": "v",
          "type": "uint8"
        },
        {
          "internalType": "bytes32",
          "name": "r",
          "type": "bytes32"
        },
        {
          "internalType": "bytes32",
          "name": "s",
          "type": "bytes32"
        }
      ],
      "name": "permit",
      "outputs": [],
      "stateMutability": "nonpayable",
      "type": "function"
    },
    {
      "inputs": [
        {
          "internalType": "address",
          "name": "user",
          "type": "address"
        }
      ],
      "name": "scaledBalanceOf",
      "outputs": [
        {
          "internalType": "uint256",
          "name": "",
          "type": "uint256"
        }
      ],
      "stateMutability": "view",
      "type": "function"
    },
    {
      "inputs": [],
      "name": "scaledTotalSupply",
      "outputs": [
        {
          "internalType": "uint256",
          "name": "",
          "type": "uint256"
        }
      ],
      "stateMutability": "view",
      "type": "function"
    },
    {
      "inputs": [],
      "name": "symbol",
      "outputs": [
        {
          "internalType": "string",
          "name": "",
          "type": "string"
        }
      ],
      "stateMutability": "view",
      "type": "function"
    },
    {
      "inputs": [],
      "name": "totalSupply",
      "outputs": [
        {
          "internalType": "uint256",
          "name": "",
          "type": "uint256"
        }
      ],
      "stateMutability": "view",
      "type": "function"
    },
    {
      "inputs": [
        {
          "internalType": "address",
          "name": "recipient",
          "type": "address"
        },
        {
          "internalType": "uint256",
          "name": "amount",
          "type": "uint256"
        }
      ],
      "name": "transfer",
      "outputs": [
        {
          "internalType": "bool",
          "name": "",
          "type": "bool"
        }
      ],
      "stateMutability": "nonpayable",
      "type": "function"
    },
    {
      "inputs": [
        {
          "internalType": "address",
          "name": "sender",
          "type": "address"
        },
        {
          "internalType": "address",
          "name": "recipient",
          "type": "address"
        },
        {
          "internalType": "uint256",
          "name": "amount",
          "type": "uint256"
        }
      ],
      "name": "transferFrom",
      "outputs": [
        {
          "internalType": "bool",
          "name": "",
          "type": "bool"
        }
      ],
      "stateMutability": "nonpayable",
      "type": "function"
    },
    {
      "inputs": [
        {
          "internalType": "address",
          "name": "from",
          "type": "address"
        },
        {
          "internalType": "address",
          "name": "to",
          "type": "address"
        },
        {
          "internalType": "uint256",
          "name": "value",
          "type": "uint256"
        }
      ],
      "name": "transferOnLiquidation",
      "outputs": [],
      "stateMutability": "nonpayable",
      "type": "function"
    },
    {
      "inputs": [
        {
          "internalType": "address",
          "name": "target",
          "type": "address"
        },
        {
          "internalType": "uint256",
          "name": "amount",
          "type": "uint256"
        }
      ],
      "name": "transferUnderlyingTo",
      "outputs": [
        {
          "internalType": "uint256",
          "name": "",
          "type": "uint256"
        }
      ],
      "stateMutability": "nonpayable",
      "type": "function"
    }
  ],
  "bytecode": "0x6080604052600080553480156200001557600080fd5b50604080518082018252600b8082526a105513d2d15397d253541360aa1b60208084018281528551808701909652928552840152815191929160009162000060916037919062000094565b5081516200007690603890602085019062000094565b506039805460ff191660ff9290921691909117905550620001779050565b828054620000a2906200013a565b90600052602060002090601f016020900481019282620000c6576000855562000111565b82601f10620000e157805160ff191683800117855562000111565b8280016001018555821562000111579182015b8281111562000111578251825591602001919060010190620000f4565b506200011f92915062000123565b5090565b5b808211156200011f576000815560010162000124565b6002810460018216806200014f57607f821691505b602082108114156200017157634e487b7160e01b600052602260045260246000fd5b50919050565b6128e480620001876000396000f3fe608060405234801561001057600080fd5b50600436106101f05760003560e01c80637535d2461161010f578063ae167335116100a2578063d505accf11610071578063d505accf146103d4578063d7020d0a146103e7578063dd62ed3e146103fa578063f866c3191461040d576101f0565b8063ae167335146103a9578063b16a19de146103b1578063b1bf962d146103b9578063b9844d8d146103c1576101f0565b806388dd91a1116100de57806388dd91a11461036857806395d89b411461037b578063a457c2d714610383578063a9059cbb14610396576101f0565b80637535d2461461033057806375d2641314610345578063781603761461034d5780637df5bd3b14610355576101f0565b806323b872dd116101875780633644e515116101565780633644e515146102ef57806339509351146102f75780634efecaa51461030a57806370a082311461031d576101f0565b806323b872dd146102ac5780632f114618146102bf57806330adf81f146102d2578063313ce567146102da576101f0565b8063156e29f6116101c3578063156e29f61461026957806318160ddd1461027c578063183fb413146102845780631da24f3e14610299576101f0565b806306fdde03146101f5578063095ea7b3146102135780630afbcdc9146102335780630bd7ad3b14610254575b600080fd5b6101fd610420565b60405161020a91906123c5565b60405180910390f35b610226610221366004611ff9565b6104b3565b60405161020a9190612333565b610246610241366004611e97565b6104d1565b60405161020a9291906126e0565b61025c6104ee565b60405161020a919061233e565b610226610277366004612024565b6104f3565b61025c61063c565b610297610292366004612078565b6106ee565b005b61025c6102a7366004611e97565b61098e565b6102266102ba366004611f07565b6109a1565b6102976102cd366004611e97565b610a61565b61025c610c11565b6102e2610c35565b60405161020a91906126ee565b61025c610c3e565b610226610305366004611ff9565b610c44565b61025c610318366004611ff9565b610c92565b61025c61032b366004611e97565b610d0a565b610338610da3565b60405161020a919061223e565b610338610db2565b6101fd610dc1565b610297610363366004612180565b610dde565b610297610376366004611ff9565b610ee2565b6101fd610f3e565b610226610391366004611ff9565b610f4d565b6102266103a4366004611ff9565b610fb5565b610338611012565b610338611021565b61025c611030565b61025c6103cf366004611e97565b61103a565b6102976103e2366004611f8c565b61104c565b6102976103f5366004611f47565b6111e4565b61025c610408366004611ecf565b611332565b61029761041b366004611f07565b61135d565b60606037805461042f90612796565b80601f016020809104026020016040519081016040528092919081815260200182805461045b90612796565b80156104a85780601f1061047d576101008083540402835291602001916104a8565b820191906000526020600020905b81548152906001019060200180831161048b57829003601f168201915b505050505090505b90565b60006104c76104c0611400565b8484611404565b5060015b92915050565b6000806104dd836114ab565b6104e56114c6565b91509150915091565b600181565b603c546000906001600160a01b031661050a611400565b6001600160a01b03161460405180604001604052806002815260200161323960f01b815250906105565760405162461bcd60e51b815260040161054d91906123c5565b60405180910390fd5b506000610562856114ab565b9050600061057085856114cc565b6040805180820190915260028152611a9b60f11b6020820152909150816105aa5760405162461bcd60e51b815260040161054d91906123c5565b506105b586826115aa565b856001600160a01b031660006001600160a01b031660008051602061286a833981519152876040516105e7919061233e565b60405180910390a3856001600160a01b03167f4c209b5fc8ad50758f13e2e1088ba56a560dff690a1c6fef26394f4c03821c4f868660405161062a9291906126e0565b60405180910390a25015949350505050565b6000806106476114c6565b9050806106585760009150506104b0565b603c54603e5460405163d15e005360e01b81526106e8926001600160a01b039081169263d15e005392610691929091169060040161223e565b60206040518083038186803b1580156106a957600080fd5b505afa1580156106bd573d6000803e3d6000fd5b505050506040513d601f19601f820116820180604052508101906106e19190612168565b82906116b1565b91505090565b60006106f8611773565b60015490915060ff168061070f575061070f611778565b8061071b575060005481115b6107375760405162461bcd60e51b815260040161054d906124bd565b60015460ff16158015610756576001805460ff19168117905560008290555b60405146907f8b73c3c69bb8fe3d512ecc4cf759cc79239f7b179b0ffacaa9a75d522b39400f9061078a908b908b906121f7565b60408051918290038220828201825260018352603160f81b60209384015290516107db93927fc89efdaa54c0f20c7adf612882df0950f5a951637e0307cdcb4c672f298b8bc691869130910161237b565b60408051601f198184030181528282528051602091820120603b55601f8b0181900481028301810190915289825261082e91908b908b908190840183828082843760009201919091525061177e92505050565b61086d87878080601f01602080910402602001604051908101604052809392919081815260200183838082843760009201919091525061179192505050565b6108768a6117a4565b8d603c60006101000a8154816001600160a01b0302191690836001600160a01b031602179055508c603d60006101000a8154816001600160a01b0302191690836001600160a01b031602179055508b603e60006101000a8154816001600160a01b0302191690836001600160a01b031602179055508a603f60006101000a8154816001600160a01b0302191690836001600160a01b031602179055508d6001600160a01b03168c6001600160a01b03167fb19e051f8af41150ccccb3fc2c2d8d15f4a4cf434f32a559ba75fe73d6eea20b8f8e8e8e8e8e8e8e8e6040516109659998979695949392919061228b565b60405180910390a350801561097f576001805460ff191690555b50505050505050505050505050565b6000610999826114ab565b90505b919050565b60006109ae8484846117ba565b610a1e846109ba611400565b610a1985604051806060016040528060288152602001612842602891396001600160a01b038a166000908152603560205260408120906109f8611400565b6001600160a01b0316815260208101919091526040016000205491906117c7565b611404565b826001600160a01b0316846001600160a01b031660008051602061286a83398151915284604051610a4f919061233e565b60405180910390a35060019392505050565b603c60009054906101000a90046001600160a01b03166001600160a01b031663fe65acfe6040518163ffffffff1660e01b815260040160206040518083038186803b158015610aaf57600080fd5b505afa158015610ac3573d6000803e3d6000fd5b505050506040513d601f19601f82011682018060405250810190610ae79190611eb3565b6001600160a01b031663aecda3786040518163ffffffff1660e01b815260040160206040518083038186803b158015610b1f57600080fd5b505afa158015610b33573d6000803e3d6000fd5b505050506040513d601f19601f82011682018060405250810190610b579190611eb3565b6001600160a01b0316610b68611400565b6001600160a01b03161460405180604001604052806002815260200161333360f01b81525090610bab5760405162461bcd60e51b815260040161054d91906123c5565b50603e546040516317066a5760e21b81526001600160a01b0390911690635c19a95c90610bdc90849060040161223e565b600060405180830381600087803b158015610bf657600080fd5b505af1158015610c0a573d6000803e3d6000fd5b5050505050565b7f6e71edae12b1b97f4d1f60370fef10105fa2faae0126114a169c64845d6126c981565b60395460ff1690565b603b5481565b60006104c7610c51611400565b84610a198560356000610c62611400565b6001600160a01b03908116825260208083019390935260409182016000908120918c1681529252902054906117f3565b603c546000906001600160a01b0316610ca9611400565b6001600160a01b03161460405180604001604052806002815260200161323960f01b81525090610cec5760405162461bcd60e51b815260040161054d91906123c5565b50603e54610d04906001600160a01b031684846117ff565b50919050565b603c54603e5460405163d15e005360e01b8152600092610999926001600160a01b039182169263d15e005392610d4492169060040161223e565b60206040518083038186803b158015610d5c57600080fd5b505afa158015610d70573d6000803e3d6000fd5b505050506040513d601f19601f82011682018060405250810190610d949190612168565b610d9d846114ab565b906116b1565b603c546001600160a01b031690565b6000610dbc611855565b905090565b604051806040016040528060018152602001603160f81b81525081565b603c546001600160a01b0316610df2611400565b6001600160a01b03161460405180604001604052806002815260200161323960f01b81525090610e355760405162461bcd60e51b815260040161054d91906123c5565b5081610e4057610ede565b603d546001600160a01b0316610e5f81610e5a85856114cc565b6115aa565b806001600160a01b031660006001600160a01b031660008051602061286a83398151915285604051610e91919061233e565b60405180910390a3806001600160a01b03167f4c209b5fc8ad50758f13e2e1088ba56a560dff690a1c6fef26394f4c03821c4f8484604051610ed49291906126e0565b60405180910390a2505b5050565b603c546001600160a01b0316610ef6611400565b6001600160a01b03161460405180604001604052806002815260200161323960f01b81525090610f395760405162461bcd60e51b815260040161054d91906123c5565b505050565b60606038805461042f90612796565b60006104c7610f5a611400565b84610a198560405180606001604052806025815260200161288a6025913960356000610f84611400565b6001600160a01b03908116825260208083019390935260409182016000908120918d168152925290205491906117c7565b6000610fc9610fc2611400565b84846117ba565b826001600160a01b0316610fdb611400565b6001600160a01b031660008051602061286a83398151915284604051611001919061233e565b60405180910390a350600192915050565b603d546001600160a01b031690565b603e546001600160a01b031690565b6000610dbc6114c6565b603a6020526000908152604090205481565b6001600160a01b0387166110725760405162461bcd60e51b815260040161054d90612537565b834211156110925760405162461bcd60e51b815260040161054d9061250b565b6001600160a01b0387166000908152603a6020908152604080832054603b5491519093926110ec917f6e71edae12b1b97f4d1f60370fef10105fa2faae0126114a169c64845d6126c9918d918d918d9189918e9101612347565b60405160208183030381529060405280519060200120604051602001611113929190612223565b6040516020818303038152906040528051906020012090506001818686866040516000815260200160405260405161114e94939291906123a7565b6020604051602081039080840390855afa158015611170573d6000803e3d6000fd5b505050602060405103516001600160a01b0316896001600160a01b0316146111aa5760405162461bcd60e51b815260040161054d90612492565b6111b58260016117f3565b6001600160a01b038a166000908152603a60205260409020556111d9898989611404565b505050505050505050565b603c546001600160a01b03166111f8611400565b6001600160a01b03161460405180604001604052806002815260200161323960f01b8152509061123b5760405162461bcd60e51b815260040161054d91906123c5565b50600061124883836114cc565b60408051808201909152600281526106a760f31b6020820152909150816112825760405162461bcd60e51b815260040161054d91906123c5565b5061128d8582611864565b603e546112a4906001600160a01b031685856117ff565b60006001600160a01b0316856001600160a01b031660008051602061286a833981519152856040516112d6919061233e565b60405180910390a3836001600160a01b0316856001600160a01b03167f5d624aa9c148153ab3446c1b154f660ee7701e549fe9b62dab7171b1c80e6fa285856040516113239291906126e0565b60405180910390a35050505050565b6001600160a01b03918216600090815260356020908152604080832093909416825291909152205490565b603c546001600160a01b0316611371611400565b6001600160a01b03161460405180604001604052806002815260200161323960f01b815250906113b45760405162461bcd60e51b815260040161054d91906123c5565b506113c283838360006118e9565b816001600160a01b0316836001600160a01b031660008051602061286a833981519152836040516113f3919061233e565b60405180910390a3505050565b3390565b6001600160a01b03831661142a5760405162461bcd60e51b815260040161054d906125e4565b6001600160a01b0382166114505760405162461bcd60e51b815260040161054d9061241b565b6001600160a01b0380841660008181526035602090815260408083209487168084529490915290819020849055517f8c5be1e5ebec7d5bd14f71427d1e84f3dd0314c0f7b2291e5b200ac8c7c3b925906113f390859061233e565b6001600160a01b031660009081526034602052604090205490565b60365490565b604080518082019091526002815261035360f41b6020820152600090826115065760405162461bcd60e51b815260040161054d91906123c5565b506000611514600284612714565b90506b033b2e3c9fd0803ce800000061152f82600019612753565b6115399190612714565b84111560405180604001604052806002815260200161068760f31b815250906115755760405162461bcd60e51b815260040161054d91906123c5565b50828161158e6b033b2e3c9fd0803ce800000087612734565b61159891906126fc565b6115a29190612714565b949350505050565b6001600160a01b0382166115d05760405162461bcd60e51b815260040161054d906126a9565b6115dc60008383610f39565b6036546115e981836117f3565b6036556001600160a01b03831660009081526034602052604090205461160f81846117f3565b6001600160a01b038516600090815260346020526040812091909155611633611855565b6001600160a01b0316146116ab57611649611855565b6001600160a01b03166331873e2e8584846040518463ffffffff1660e01b815260040161167893929190612312565b600060405180830381600087803b15801561169257600080fd5b505af11580156116a6573d6000803e3d6000fd5b505050505b50505050565b60008215806116be575081155b156116cb575060006104cb565b816116e360026b033b2e3c9fd0803ce8000000612714565b6116ef90600019612753565b6116f99190612714565b83111560405180604001604052806002815260200161068760f31b815250906117355760405162461bcd60e51b815260040161054d91906123c5565b506b033b2e3c9fd0803ce800000061174e600282612714565b6117588486612734565b61176291906126fc565b61176c9190612714565b9392505050565b600190565b303b1590565b8051610ede906037906020840190611d9b565b8051610ede906038906020840190611d9b565b6039805460ff191660ff92909216919091179055565b610f3983838360016118e9565b600081848411156117eb5760405162461bcd60e51b815260040161054d91906123c5565b505050900390565b600061176c82846126fc565b610f398363a9059cbb60e01b848460405160240161181e9291906122f9565b60408051601f198184030181529190526020810180516001600160e01b03166001600160e01b031990931692909217909152611a74565b603f546001600160a01b031690565b6001600160a01b03821661188a5760405162461bcd60e51b815260040161054d9061255e565b61189682600083610f39565b6036546118a38183611b58565b6036556001600160a01b038316600090815260346020908152604091829020548251606081019093526022808452909261160f928692906127fa908301398391906117c7565b603e54603c5460405163d15e005360e01b81526001600160a01b039283169290911690600090829063d15e00539061192590869060040161223e565b60206040518083038186803b15801561193d57600080fd5b505afa158015611951573d6000803e3d6000fd5b505050506040513d601f19601f820116820180604052508101906119759190612168565b9050600061198682610d9d8a6114ab565b9050600061199783610d9d8a6114ab565b90506119ad89896119a88a876114cc565b611b64565b8515611a1c5760405163d5ed393360e01b81526001600160a01b0385169063d5ed3933906119e99088908d908d908d9089908990600401612252565b600060405180830381600087803b158015611a0357600080fd5b505af1158015611a17573d6000803e3d6000fd5b505050505b876001600160a01b0316896001600160a01b03167f4beccb90f994c31aced7a23b5611020728a23d8ec5cddd1a3e9d97b96fda86668986604051611a619291906126e0565b60405180910390a3505050505050505050565b611a86826001600160a01b0316611d62565b611aa25760405162461bcd60e51b815260040161054d90612672565b600080836001600160a01b031683604051611abd9190612207565b6000604051808303816000865af19150503d8060008114611afa576040519150601f19603f3d011682016040523d82523d6000602084013e611aff565b606091505b509150915081611b215760405162461bcd60e51b815260040161054d9061245d565b8051156116ab5780806020019051810190611b3c9190612058565b6116ab5760405162461bcd60e51b815260040161054d90612628565b600061176c8284612753565b6001600160a01b038316611b8a5760405162461bcd60e51b815260040161054d9061259f565b6001600160a01b038216611bb05760405162461bcd60e51b815260040161054d906123d8565b611bbb838383610f39565b600060346000856001600160a01b03166001600160a01b03168152602001908152602001600020549050611c0a8260405180606001604052806026815260200161281c602691398391906117c7565b6001600160a01b038086166000908152603460205260408082209390935590851681522054611c3981846117f3565b6001600160a01b038516600090815260346020526040812091909155611c5d611855565b6001600160a01b031614610c0a57603654611c76611855565b6001600160a01b03166331873e2e8783866040518463ffffffff1660e01b8152600401611ca593929190612312565b600060405180830381600087803b158015611cbf57600080fd5b505af1158015611cd3573d6000803e3d6000fd5b50505050846001600160a01b0316866001600160a01b031614611d5a57611cf8611855565b6001600160a01b03166331873e2e8683856040518463ffffffff1660e01b8152600401611d2793929190612312565b600060405180830381600087803b158015611d4157600080fd5b505af1158015611d55573d6000803e3d6000fd5b505050505b505050505050565b6000813f7fc5d2460186f7233c927e7db2dcc703c0e500b653ca82273b7bfad8045d85a4708181148015906115a2575050151592915050565b828054611da790612796565b90600052602060002090601f016020900481019282611dc95760008555611e0f565b82601f10611de257805160ff1916838001178555611e0f565b82800160010185558215611e0f579182015b82811115611e0f578251825591602001919060010190611df4565b50611e1b929150611e1f565b5090565b5b80821115611e1b5760008155600101611e20565b803561099c816127e1565b60008083601f840112611e50578182fd5b50813567ffffffffffffffff811115611e67578182fd5b602083019150836020828501011115611e7f57600080fd5b9250929050565b803560ff8116811461099c57600080fd5b600060208284031215611ea8578081fd5b813561176c816127e1565b600060208284031215611ec4578081fd5b815161176c816127e1565b60008060408385031215611ee1578081fd5b8235611eec816127e1565b91506020830135611efc816127e1565b809150509250929050565b600080600060608486031215611f1b578081fd5b8335611f26816127e1565b92506020840135611f36816127e1565b929592945050506040919091013590565b60008060008060808587031215611f5c578081fd5b8435611f67816127e1565b93506020850135611f77816127e1565b93969395505050506040820135916060013590565b600080600080600080600060e0888a031215611fa6578283fd5b8735611fb1816127e1565b96506020880135611fc1816127e1565b95506040880135945060608801359350611fdd60808901611e86565b925060a0880135915060c0880135905092959891949750929550565b6000806040838503121561200b578182fd5b8235612016816127e1565b946020939093013593505050565b600080600060608486031215612038578283fd5b8335612043816127e1565b95602085013595506040909401359392505050565b600060208284031215612069578081fd5b8151801515811461176c578182fd5b60008060008060008060008060008060006101008c8e031215612099578485fd5b6120a28c611e34565b9a506120b060208d01611e34565b99506120be60408d01611e34565b98506120cc60608d01611e34565b97506120da60808d01611e86565b965067ffffffffffffffff8060a08e013511156120f5578586fd5b6121058e60a08f01358f01611e3f565b909750955060c08d013581101561211a578485fd5b61212a8e60c08f01358f01611e3f565b909550935060e08d013581101561213f578283fd5b506121508d60e08e01358e01611e3f565b81935080925050509295989b509295989b9093969950565b600060208284031215612179578081fd5b5051919050565b60008060408385031215612192578182fd5b50508035926020909101359150565b60008284528282602086013780602084860101526020601f19601f85011685010190509392505050565b600081518084526121e381602086016020860161276a565b601f01601f19169290920160200192915050565b6000828483379101908152919050565b6000825161221981846020870161276a565b9190910192915050565b61190160f01b81526002810192909252602282015260420190565b6001600160a01b0391909116815260200190565b6001600160a01b03968716815294861660208601529290941660408401526060830152608082019290925260a081019190915260c00190565b6001600160a01b038a811682528916602082015260ff8816604082015260c0606082018190526000906122c1908301888a6121a1565b82810360808401526122d48187896121a1565b905082810360a08401526122e98185876121a1565b9c9b505050505050505050505050565b6001600160a01b03929092168252602082015260400190565b6001600160a01b039390931683526020830191909152604082015260600190565b901515815260200190565b90815260200190565b9586526001600160a01b0394851660208701529290931660408501526060840152608083019190915260a082015260c00190565b9485526020850193909352604084019190915260608301526001600160a01b0316608082015260a00190565b93845260ff9290921660208401526040830152606082015260800190565b60006020825261176c60208301846121cb565b60208082526023908201527f45524332303a207472616e7366657220746f20746865207a65726f206164647260408201526265737360e81b606082015260800190565b60208082526022908201527f45524332303a20617070726f766520746f20746865207a65726f206164647265604082015261737360f01b606082015260800190565b6020808252818101527f5361666545524332303a206c6f772d6c6576656c2063616c6c206661696c6564604082015260600190565b602080825260119082015270494e56414c49445f5349474e415455524560781b604082015260600190565b6020808252602e908201527f436f6e747261637420696e7374616e63652068617320616c726561647920626560408201526d195b881a5b9a5d1a585b1a5e995960921b606082015260800190565b60208082526012908201527124a72b20a624a22fa2ac2824a920aa24a7a760711b604082015260600190565b6020808252600d908201526c24a72b20a624a22fa7aba722a960991b604082015260600190565b60208082526021908201527f45524332303a206275726e2066726f6d20746865207a65726f206164647265736040820152607360f81b606082015260800190565b60208082526025908201527f45524332303a207472616e736665722066726f6d20746865207a65726f206164604082015264647265737360d81b606082015260800190565b60208082526024908201527f45524332303a20617070726f76652066726f6d20746865207a65726f206164646040820152637265737360e01b606082015260800190565b6020808252602a908201527f5361666545524332303a204552433230206f7065726174696f6e20646964206e6040820152691bdd081cdd58d8d9595960b21b606082015260800190565b6020808252601f908201527f5361666545524332303a2063616c6c20746f206e6f6e2d636f6e747261637400604082015260600190565b6020808252601f908201527f45524332303a206d696e7420746f20746865207a65726f206164647265737300604082015260600190565b918252602082015260400190565b60ff91909116815260200190565b6000821982111561270f5761270f6127cb565b500190565b60008261272f57634e487b7160e01b81526012600452602481fd5b500490565b600081600019048311821515161561274e5761274e6127cb565b500290565b600082821015612765576127656127cb565b500390565b60005b8381101561278557818101518382015260200161276d565b838111156116ab5750506000910152565b6002810460018216806127aa57607f821691505b60208210811415610d0457634e487b7160e01b600052602260045260246000fd5b634e487b7160e01b600052601160045260246000fd5b6001600160a01b03811681146127f657600080fd5b5056fe45524332303a206275726e20616d6f756e7420657863656564732062616c616e636545524332303a207472616e7366657220616d6f756e7420657863656564732062616c616e636545524332303a207472616e7366657220616d6f756e74206578636565647320616c6c6f77616e6365ddf252ad1be2c89b69c2b068fc378daa952ba7f163c4a11628f55a4df523b3ef45524332303a2064656372656173656420616c6c6f77616e63652062656c6f77207a65726fa2646970667358221220d70345276b1326069328edb7733fcec5e0e2b1bee393ee03cd0440219d3e1b9664736f6c63430008000033",
  "linkReferences": {},
  "deployedLinkReferences": {}
}