{
  "_format": "hh-sol-artifact-1",
  "contractName": "StableAndVariableTokensHelper",
  "sourceName": "contracts/deployments/StableAndVariableTokensHelper.sol",
  "abi": [
    {
      "inputs": [
        {
          "internalType": "address payable",
          "name": "_pool",
          "type": "address"
        },
        {
          "internalType": "address",
          "name": "_addressesProvider",
          "type": "address"
        }
      ],
      "stateMutability": "nonpayable",
      "type": "constructor"
    },
    {
      "anonymous": false,
      "inputs": [
        {
          "indexed": true,
          "internalType": "address",
          "name": "previousOwner",
          "type": "address"
        },
        {
          "indexed": true,
          "internalType": "address",
          "name": "newOwner",
          "type": "address"
        }
      ],
      "name": "OwnershipTransferred",
      "type": "event"
    },
    {
      "anonymous": false,
      "inputs": [
        {
          "indexed": false,
          "internalType": "address",
          "name": "stableToken",
          "type": "address"
        },
        {
          "indexed": false,
          "internalType": "address",
          "name": "variableToken",
          "type": "address"
        }
      ],
      "name": "deployedContracts",
      "type": "event"
    },
    {
      "inputs": [
        {
          "internalType": "address[]",
          "name": "tokens",
          "type": "address[]"
        },
        {
          "internalType": "string[]",
          "name": "symbols",
          "type": "string[]"
        }
      ],
      "name": "initDeployment",
      "outputs": [],
      "stateMutability": "nonpayable",
      "type": "function"
    },
    {
      "inputs": [],
      "name": "owner",
      "outputs": [
        {
          "internalType": "address",
          "name": "",
          "type": "address"
        }
      ],
      "stateMutability": "view",
      "type": "function"
    },
    {
      "inputs": [],
      "name": "renounceOwnership",
      "outputs": [],
      "stateMutability": "nonpayable",
      "type": "function"
    },
    {
      "inputs": [
        {
          "internalType": "address[]",
          "name": "assets",
          "type": "address[]"
        },
        {
          "internalType": "uint256[]",
          "name": "rates",
          "type": "uint256[]"
        },
        {
          "internalType": "address",
          "name": "oracle",
          "type": "address"
        }
      ],
      "name": "setOracleBorrowRates",
      "outputs": [],
      "stateMutability": "nonpayable",
      "type": "function"
    },
    {
      "inputs": [
        {
          "internalType": "address",
          "name": "oracle",
          "type": "address"
        },
        {
          "internalType": "address",
          "name": "admin",
          "type": "address"
        }
      ],
      "name": "setOracleOwnership",
      "outputs": [],
      "stateMutability": "nonpayable",
      "type": "function"
    },
    {
      "inputs": [
        {
          "internalType": "address",
          "name": "newOwner",
          "type": "address"
        }
      ],
      "name": "transferOwnership",
      "outputs": [],
      "stateMutability": "nonpayable",
      "type": "function"
    }
  ],
  "bytecode": "0x608060405234801561001057600080fd5b50604051613f93380380613f9383398101604081905261002f916100b8565b60006100396100b4565b600080546001600160a01b0319166001600160a01b0383169081178255604051929350917f8be0079c531659141344cd1fd0a4f28419497f9722a3daafe3b4186f6b6457e0908290a350600180546001600160a01b039384166001600160a01b03199182161790915560028054929093169116179055610109565b3390565b600080604083850312156100ca578182fd5b82516100d5816100f1565b60208401519092506100e6816100f1565b809150509250929050565b6001600160a01b038116811461010657600080fd5b50565b613e7b806101186000396000f3fe608060405234801561001057600080fd5b50600436106100625760003560e01c806354fe1c9414610067578063563b1cb31461007c578063715018a61461008f5780638da5cb5b14610097578063c2d30321146100b5578063f2fde38b146100c8575b600080fd5b61007a6100753660046106bb565b6100db565b005b61007a61008a366004610683565b61020d565b61007a61036b565b61009f6103ea565b6040516100ac91906107a5565b60405180910390f35b61007a6100c3366004610724565b6103f9565b61007a6100d6366004610644565b610525565b6100e36105db565b6000546001600160a01b039081169116146101195760405162461bcd60e51b815260040161011090610832565b60405180910390fd5b8281146101385760405162461bcd60e51b8152600401610110906108fa565b6001546001600160a01b03166101605760405162461bcd60e51b815260040161011090610867565b60005b83811015610206577f1c1768aab1796270c7034dc781c2951065e6afb7a946269746521002443b8ea4604051610198906105df565b604051809103906000f0801580156101b4573d6000803e3d6000fd5b506040516101c1906105ed565b604051809103906000f0801580156101dd573d6000803e3d6000fd5b506040516101ec9291906107b9565b60405180910390a1806101fe8161092a565b915050610163565b5050505050565b6102156105db565b6000546001600160a01b039081169116146102425760405162461bcd60e51b815260040161011090610832565b6001600160a01b0381166102685760405162461bcd60e51b8152600401610110906108cb565b306001600160a01b0316826001600160a01b0316638da5cb5b6040518163ffffffff1660e01b815260040160206040518083038186803b1580156102ab57600080fd5b505afa1580156102bf573d6000803e3d6000fd5b505050506040513d601f19601f820116820180604052508101906102e39190610667565b6001600160a01b0316146103095760405162461bcd60e51b81526004016101109061089e565b60405163f2fde38b60e01b81526001600160a01b0383169063f2fde38b906103359084906004016107a5565b600060405180830381600087803b15801561034f57600080fd5b505af1158015610363573d6000803e3d6000fd5b505050505050565b6103736105db565b6000546001600160a01b039081169116146103a05760405162461bcd60e51b815260040161011090610832565b600080546040516001600160a01b03909116907f8be0079c531659141344cd1fd0a4f28419497f9722a3daafe3b4186f6b6457e0908390a3600080546001600160a01b0319169055565b6000546001600160a01b031690565b6104016105db565b6000546001600160a01b0390811691161461042e5760405162461bcd60e51b815260040161011090610832565b83821461044d5760405162461bcd60e51b8152600401610110906108fa565b60005b8481101561036357816001600160a01b03166372eb293d87878481811061048757634e487b7160e01b600052603260045260246000fd5b905060200201602081019061049c9190610644565b8686858181106104bc57634e487b7160e01b600052603260045260246000fd5b905060200201356040518363ffffffff1660e01b81526004016104e09291906107d3565b600060405180830381600087803b1580156104fa57600080fd5b505af115801561050e573d6000803e3d6000fd5b50505050808061051d9061092a565b915050610450565b61052d6105db565b6000546001600160a01b0390811691161461055a5760405162461bcd60e51b815260040161011090610832565b6001600160a01b0381166105805760405162461bcd60e51b8152600401610110906107ec565b600080546040516001600160a01b03808516939216917f8be0079c531659141344cd1fd0a4f28419497f9722a3daafe3b4186f6b6457e091a3600080546001600160a01b0319166001600160a01b0392909216919091179055565b3390565b611cd5806200096a83390190565b611807806200263f83390190565b60008083601f84011261060c578182fd5b50813567ffffffffffffffff811115610623578182fd5b602083019150836020808302850101111561063d57600080fd5b9250929050565b600060208284031215610655578081fd5b813561066081610951565b9392505050565b600060208284031215610678578081fd5b815161066081610951565b60008060408385031215610695578081fd5b82356106a081610951565b915060208301356106b081610951565b809150509250929050565b600080600080604085870312156106d0578182fd5b843567ffffffffffffffff808211156106e7578384fd5b6106f3888389016105fb565b9096509450602087013591508082111561070b578384fd5b50610718878288016105fb565b95989497509550505050565b60008060008060006060868803121561073b578081fd5b853567ffffffffffffffff80821115610752578283fd5b61075e89838a016105fb565b90975095506020880135915080821115610776578283fd5b50610783888289016105fb565b909450925050604086013561079781610951565b809150509295509295909350565b6001600160a01b0391909116815260200190565b6001600160a01b0392831681529116602082015260400190565b6001600160a01b03929092168252602082015260400190565b60208082526026908201527f4f776e61626c653a206e6577206f776e657220697320746865207a65726f206160408201526564647265737360d01b606082015260800190565b6020808252818101527f4f776e61626c653a2063616c6c6572206973206e6f7420746865206f776e6572604082015260600190565b6020808252601c908201527f506f6f6c2063616e206e6f74206265207a65726f206164647265737300000000604082015260600190565b6020808252601390820152723432b63832b91034b9903737ba1037bbb732b960691b604082015260600190565b6020808252601590820152746f776e65722063616e206e6f74206265207a65726f60581b604082015260600190565b602080825260169082015275082e4e4c2f2e640dcdee840e6c2daca40d8cadccee8d60531b604082015260600190565b600060001982141561094a57634e487b7160e01b81526011600452602481fd5b5060010190565b6001600160a01b038116811461096657600080fd5b5056fe608060405260006006553480156200001657600080fd5b50604080518082018252600e8082526d111150951513d2d15397d253541360921b60208084018281528551808701909652928552840152815191929160009162000064916003919062000098565b5081516200007a90600490602085019062000098565b506005805460ff191660ff92909216919091179055506200017b9050565b828054620000a6906200013e565b90600052602060002090601f016020900481019282620000ca576000855562000115565b82601f10620000e557805160ff191683800117855562000115565b8280016001018555821562000115579182015b8281111562000115578251825591602001919060010190620000f8565b506200012392915062000127565b5090565b5b8082111562000123576000815560010162000128565b6002810460018216806200015357607f821691505b602082108114156200017557634e487b7160e01b600052602260045260246000fd5b50919050565b611b4a806200018b6000396000f3fe608060405234801561001057600080fd5b50600436106101a95760003560e01c806395d89b41116100f9578063c04a8a1011610097578063dd62ed3e11610071578063dd62ed3e14610346578063e748489014610354578063e78c9b3b1461035c578063f731e9be1461036f576101a9565b8063c04a8a101461030d578063c222ec8a14610320578063c634dfaa14610333576101a9565b8063a9059cbb116100d3578063a9059cbb146102dc578063b16a19de146102ea578063b3f1c93d146102f2578063b9a7b62214610305576101a9565b806395d89b41146102bf5780639dc29fac146102c7578063a457c2d714610229576101a9565b80636bd76d241161016657806375d264131161014057806375d2641314610277578063797743381461027f57806379ce6b8c1461029757806390f6fcf2146102b7576101a9565b80636bd76d241461023c57806370a082311461024f5780637535d24614610262576101a9565b806306fdde03146101ae578063095ea7b3146101cc57806318160ddd146101ec57806323b872dd14610201578063313ce567146102145780633950935114610229575b600080fd5b6101b6610385565b6040516101c3919061188b565b60405180910390f35b6101df6101da366004611675565b610417565b6040516101c39190611880565b6101f461043a565b6040516101c39190611983565b6101df61020f3660046115f0565b61044c565b61021c610466565b6040516101c39190611a19565b6101df610237366004611675565b61046f565b6101f461024a3660046115b8565b610489565b6101f461025d36600461159c565b6104b6565b61026a610530565b6040516101c391906117bc565b61026a610548565b610287610552565b6040516101c394939291906119e5565b6102aa6102a536600461159c565b610588565b6040516101c39190611a07565b6101f46105aa565b6101b66105b0565b6102da6102d5366004611675565b6105bf565b005b6101df61020f366004611675565b61026a6108a7565b6101df610300366004611630565b6108b6565b6101f4610b9f565b6102da61031b366004611675565b610ba4565b6102da61032e3660046116a0565b610c36565b6101f461034136600461159c565b610d70565b6101f46102373660046115b8565b6102aa610d7b565b6101f461036a36600461159c565b610d88565b610377610da3565b6040516101c392919061198c565b60606003805461039490611a95565b80601f01602080910402602001604051908101604052809291908181526020018280546103c090611a95565b801561040d5780601f106103e25761010080835404028352916020019161040d565b820191906000526020600020905b8154815290600101906020018083116103f057829003601f168201915b5050505050905090565b600060405162461bcd60e51b815260040161043190611953565b60405180910390fd5b6000610447603b54610dbc565b905090565b600060405162461bcd60e51b81526004016104319061189e565b60055460ff1690565b600060405162461bcd60e51b8152600401610431906118ce565b6001600160a01b038083166000908152603a60209081526040808320938516835292905220545b92915050565b6000806104c283610e04565b6001600160a01b0384166000908152603d6020526040902054909150816104ee5760009250505061052b565b6001600160a01b0384166000908152603c602052604081205461051990839064ffffffffff16610e1f565b90506105258382610e33565b93505050505b919050565b603e546501000000000090046001600160a01b031690565b6000610447610eee565b6000806000806000603b549050610567610efd565b61057082610dbc565b603e54919790965091945064ffffffffff1692509050565b6001600160a01b03166000908152603c602052604090205464ffffffffff1690565b603b5490565b60606004805461039490611a95565b6105c7610530565b6001600160a01b03166105d8610f03565b6001600160a01b03161460405180604001604052806002815260200161323960f01b8152509061061b5760405162461bcd60e51b8152600401610431919061188b565b5060008061062884610f07565b9250925050600061063761043a565b6001600160a01b0386166000908152603d602052604081205491925090819086841161066c576000603b8190556002556106ee565b6106768488610f60565b60028190559150600061069461068b86610f6c565b603b5490610e33565b905060006106ab6106a48a610f6c565b8490610e33565b90508181106106c75760006002819055603b81905594506106eb565b6106e36106d385610f6c565b6106dd8484610f60565b90610fcf565b603b81905594505b50505b8587141561072c576001600160a01b0388166000908152603d60209081526040808320839055603c9091529020805464ffffffffff1916905561075a565b6001600160a01b0388166000908152603c60205260409020805464ffffffffff19164264ffffffffff161790555b603e805464ffffffffff19164264ffffffffff16179055868511156107ed5760006107858689610f60565b90506107928982876110a5565b886001600160a01b0316896001600160a01b03167fc16f4e4ca34d790de4c656c72fd015c667d688f20be64eea360618545c4c530f838a8a878a8a6040516107df969594939291906119bd565b60405180910390a350610851565b60006107f98887610f60565b905061080689828761115c565b886001600160a01b03167f44bd20a79e993bdcc7cbedf54a3b4d19fb78490124b6b90d04fe3242eea579e8828989888860405161084795949392919061199a565b60405180910390a2505b60006001600160a01b0316886001600160a01b03167fddf252ad1be2c89b69c2b068fc378daa952ba7f163c4a11628f55a4df523b3ef896040516108959190611983565b60405180910390a35050505050505050565b603f546001600160a01b031690565b60006108c0610530565b6001600160a01b03166108d1610f03565b6001600160a01b03161460405180604001604052806002815260200161323960f01b815250906109145760405162461bcd60e51b8152600401610431919061188b565b5061091d6113f0565b846001600160a01b0316866001600160a01b0316146109415761094185878661119e565b60008061094d87610f07565b925092505061095a61043a565b808452603b54608085015261096f908761125c565b6002819055602084015261098286610f6c565b60408401526109e061099c610997848961125c565b610f6c565b60408501516106dd906109af9089610e33565b6109da6109bb87610f6c565b6001600160a01b038d166000908152603d602052604090205490610e33565b9061125c565b60608401819052604080518082019091526002815261373960f01b6020820152906fffffffffffffffffffffffffffffffff1015610a315760405162461bcd60e51b8152600401610431919061188b565b5060608301516001600160a01b0388166000908152603d6020908152604080832093909355603c8152919020805464ffffffffff421664ffffffffff199182168117909255603e80549091169091179055830151610ac790610a9290610f6c565b6106dd610aac866040015189610e3390919063ffffffff16565b6109da610abc8860000151610f6c565b608089015190610e33565b603b8190556080840152610ae687610adf888461125c565b85516110a5565b866001600160a01b031660006001600160a01b03167fddf252ad1be2c89b69c2b068fc378daa952ba7f163c4a11628f55a4df523b3ef88604051610b2a9190611983565b60405180910390a3866001600160a01b0316886001600160a01b03167fc16f4e4ca34d790de4c656c72fd015c667d688f20be64eea360618545c4c530f888585886060015189608001518a60200151604051610b8b969594939291906119bd565b60405180910390a350159695505050505050565b600181565b80603a6000610bb1610f03565b6001600160a01b0390811682526020808301939093526040918201600090812091871680825291909352912091909155610be9610f03565b6001600160a01b03167fda919360433220e13b51e8c211e490d148e61a3bd53de8c097194e458b97f3e1610c1b6108a7565b84604051610c2a9291906117d0565b60405180910390a35050565b6000610c40611268565b60075490915060ff1680610c575750610c5761126d565b80610c63575060065481115b610c7f5760405162461bcd60e51b815260040161043190611905565b60075460ff16158015610c9f576007805460ff1916600117905560068290555b610ca886611273565b610cb18561128a565b610cba8761129d565b603e805465010000000000600160c81b031916650100000000006001600160a01b038d811691820292909217909255603f80546001600160a01b03199081168d841690811790925560408054909116928c1692909217825590517f40251fbfb6656cfa65a00d7879029fec1fad21d28fdcff2f4f68f52795b74f2c90610d4b908c908c908c908c908c908c9061180a565b60405180910390a38015610d64576007805460ff191690555b50505050505050505050565b60006104b082610e04565b603e5464ffffffffff1690565b6001600160a01b03166000908152603d602052604090205490565b603b546000908190610db481610dbc565b925090509091565b600080610dc7610efd565b905080610dd857600091505061052b565b603e54600090610df090859064ffffffffff16610e1f565b9050610dfc8282610e33565b949350505050565b6001600160a01b031660009081526020819052604090205490565b6000610e2c8383426112b3565b9392505050565b6000821580610e40575081155b15610e4d575060006104b0565b81610e6560026b033b2e3c9fd0803ce8000000611a3f565b610e7190600019611a7e565b610e7b9190611a3f565b83111560405180604001604052806002815260200161068760f31b81525090610eb75760405162461bcd60e51b8152600401610431919061188b565b506b033b2e3c9fd0803ce8000000610ed0600282611a3f565b610eda8486611a5f565b610ee49190611a27565b610e2c9190611a3f565b6040546001600160a01b031690565b60025490565b3390565b600080600080610f1685610e04565b905080610f2e57600080600093509350935050610f59565b6000610f4382610f3d886104b6565b90610f60565b905081610f50818361125c565b90955093509150505b9193909250565b6000610e2c8284611a7e565b600080610f7d633b9aca0084611a5f565b905082610f8e633b9aca0083611a3f565b1460405180604001604052806002815260200161068760f31b81525090610fc85760405162461bcd60e51b8152600401610431919061188b565b5092915050565b604080518082019091526002815261035360f41b6020820152600090826110095760405162461bcd60e51b8152600401610431919061188b565b506000611017600284611a3f565b90506b033b2e3c9fd0803ce800000061103282600019611a7e565b61103c9190611a3f565b84111560405180604001604052806002815260200161068760f31b815250906110785760405162461bcd60e51b8152600401610431919061188b565b5082816110916b033b2e3c9fd0803ce800000087611a5f565b61109b9190611a27565b610dfc9190611a3f565b6001600160a01b0383166000908152602081905260409020546110c8818461125c565b6001600160a01b03808616600090815260208190526040908190209290925590541615611156576040805490516318c39f1760e11b81526001600160a01b03909116906331873e2e90611123908790869086906004016117e9565b600060405180830381600087803b15801561113d57600080fd5b505af1158015611151573d6000803e3d6000fd5b505050505b50505050565b6001600160a01b038316600090815260208181526040918290205482518084019093526002835261038360f41b91830191909152906110c890829085906113a8565b6040805180820182526002815261353960f01b6020808301919091526001600160a01b038087166000908152603a835284812091871681529152918220546111e79184906113a8565b6001600160a01b038086166000818152603a60209081526040808320948916808452949091529020839055919250907fda919360433220e13b51e8c211e490d148e61a3bd53de8c097194e458b97f3e161123f6108a7565b8460405161124e9291906117d0565b60405180910390a350505050565b6000610e2c8284611a27565b600190565b303b1590565b805161128690600390602084019061141f565b5050565b805161128690600490602084019061141f565b6005805460ff191660ff92909216919091179055565b6000806112c78364ffffffffff8616610f60565b9050806112de576112d66113d4565b915050610e2c565b60006112eb600183611a7e565b90506000600283116112fe576000611309565b611309600284611a7e565b9050600061131b6301e1338089611a3f565b905060006113298280610e33565b905060006113378284610e33565b9050600060026113518461134b8a8a6113e4565b906113e4565b61135b9190611a3f565b9050600060066113718461134b89818d8d6113e4565b61137b9190611a3f565b9050611398816109da84816113908a8e6113e4565b6109da6113d4565b9c9b505050505050505050505050565b600081848411156113cc5760405162461bcd60e51b8152600401610431919061188b565b505050900390565b6b033b2e3c9fd0803ce800000090565b6000610e2c8284611a5f565b6040518060a0016040528060008152602001600081526020016000815260200160008152602001600081525090565b82805461142b90611a95565b90600052602060002090601f01602090048101928261144d5760008555611493565b82601f1061146657805160ff1916838001178555611493565b82800160010185558215611493579182015b82811115611493578251825591602001919060010190611478565b5061149f9291506114a3565b5090565b5b8082111561149f57600081556001016114a4565b803561052b81611afc565b60008083601f8401126114d4578081fd5b50813567ffffffffffffffff8111156114eb578182fd5b60208301915083602082850101111561150357600080fd5b9250929050565b600082601f83011261151a578081fd5b813567ffffffffffffffff8082111561153557611535611ae6565b604051601f8301601f19168101602001828111828210171561155957611559611ae6565b604052828152848301602001861015611570578384fd5b82602086016020830137918201602001929092529392505050565b803560ff8116811461052b57600080fd5b6000602082840312156115ad578081fd5b8135610e2c81611afc565b600080604083850312156115ca578081fd5b82356115d581611afc565b915060208301356115e581611afc565b809150509250929050565b600080600060608486031215611604578081fd5b833561160f81611afc565b9250602084013561161f81611afc565b929592945050506040919091013590565b60008060008060808587031215611645578081fd5b843561165081611afc565b9350602085013561166081611afc565b93969395505050506040820135916060013590565b60008060408385031215611687578182fd5b823561169281611afc565b946020939093013593505050565b60008060008060008060008060e0898b0312156116bb578384fd5b88356116c681611afc565b975060208901356116d681611afc565b96506116e460408a016114b8565b95506116f260608a0161158b565b9450608089013567ffffffffffffffff8082111561170e578586fd5b61171a8c838d0161150a565b955060a08b013591508082111561172f578485fd5b61173b8c838d0161150a565b945060c08b0135915080821115611750578384fd5b5061175d8b828c016114c3565b999c989b5096995094979396929594505050565b60008151808452815b818110156117965760208185018101518683018201520161177a565b818111156117a75782602083870101525b50601f01601f19169290920160200192915050565b6001600160a01b0391909116815260200190565b6001600160a01b03929092168252602082015260400190565b6001600160a01b039390931683526020830191909152604082015260600190565b6001600160a01b038716815260ff8616602082015260a06040820181905260009061183790830187611771565b82810360608401526118498187611771565b905082810360808401528381528385602083013781602085830101526020601f19601f860116820101915050979650505050505050565b901515815260200190565b600060208252610e2c6020830184611771565b6020808252601690820152751514905394d1915497d393d517d4d5541413d495115160521b604082015260600190565b60208082526017908201527f414c4c4f57414e43455f4e4f545f535550504f52544544000000000000000000604082015260600190565b6020808252602e908201527f436f6e747261637420696e7374616e63652068617320616c726561647920626560408201526d195b881a5b9a5d1a585b1a5e995960921b606082015260800190565b6020808252601690820152751054141493d5905317d393d517d4d5541413d495115160521b604082015260600190565b90815260200190565b918252602082015260400190565b948552602085019390935260408401919091526060830152608082015260a00190565b958652602086019490945260408501929092526060840152608083015260a082015260c00190565b9384526020840192909252604083015264ffffffffff16606082015260800190565b64ffffffffff91909116815260200190565b60ff91909116815260200190565b60008219821115611a3a57611a3a611ad0565b500190565b600082611a5a57634e487b7160e01b81526012600452602481fd5b500490565b6000816000190483118215151615611a7957611a79611ad0565b500290565b600082821015611a9057611a90611ad0565b500390565b600281046001821680611aa957607f821691505b60208210811415611aca57634e487b7160e01b600052602260045260246000fd5b50919050565b634e487b7160e01b600052601160045260246000fd5b634e487b7160e01b600052604160045260246000fd5b6001600160a01b0381168114611b1157600080fd5b5056fea264697066735822122047f6199f8d0639ce6d34ab50129c6ee93361b7398f51598030c21bfb6783b0e064736f6c63430008000033608060405260006006553480156200001657600080fd5b50604080518082018252600e8082526d111150951513d2d15397d253541360921b60208084018281528551808701909652928552840152815191929160009162000064916003919062000098565b5081516200007a90600490602085019062000098565b506005805460ff191660ff92909216919091179055506200017b9050565b828054620000a6906200013e565b90600052602060002090601f016020900481019282620000ca576000855562000115565b82601f10620000e557805160ff191683800117855562000115565b8280016001018555821562000115579182015b8281111562000115578251825591602001919060010190620000f8565b506200012392915062000127565b5090565b5b8082111562000123576000815560010162000128565b6002810460018216806200015357607f821691505b602082108114156200017557634e487b7160e01b600052602260045260246000fd5b50919050565b61167c806200018b6000396000f3fe608060405234801561001057600080fd5b506004361061014d5760003560e01c806375d26413116100c3578063b3f1c93d1161007c578063b3f1c93d1461027d578063b9a7b62214610290578063c04a8a1014610298578063c222ec8a146102ad578063dd62ed3e146102c0578063f5298aca146102ce5761014d565b806375d264131461024f57806395d89b4114610257578063a457c2d714610201578063a9059cbb1461025f578063b16a19de1461026d578063b1bf962d146102755761014d565b806323b872dd1161011557806323b872dd146101d9578063313ce567146101ec57806339509351146102015780636bd76d241461021457806370a08231146102275780637535d2461461023a5761014d565b806306fdde0314610152578063095ea7b3146101705780630afbcdc91461019057806318160ddd146101b15780631da24f3e146101c6575b600080fd5b61015a6102e1565b60405161016791906113a2565b60405180910390f35b61018361017e366004611140565b610373565b6040516101679190611397565b6101a361019e366004611067565b610396565b60405161016792919061151b565b6101b96103b3565b6040516101679190611512565b6101b96101d4366004611067565b610450565b6101836101e73660046110bb565b610463565b6101f461047d565b6040516101679190611529565b61018361020f366004611140565b610486565b6101b9610222366004611083565b6104a0565b6101b9610235366004611067565b6104cd565b610242610581565b60405161016791906112d3565b610242610590565b61015a61059a565b6101836101e7366004611140565b6102426105a9565b6101b96105b8565b61018361028b3660046110fb565b6105c2565b6101b9610747565b6102ab6102a6366004611140565b61074c565b005b6102ab6102bb36600461119f565b6107de565b6101b961020f366004611083565b6102ab6102dc36600461116b565b610902565b6060600380546102f0906115a5565b80601f016020809104026020016040519081016040528092919081815260200182805461031c906115a5565b80156103695780601f1061033e57610100808354040283529160200191610369565b820191906000526020600020905b81548152906001019060200180831161034c57829003601f168201915b5050505050905090565b600060405162461bcd60e51b815260040161038d906114ab565b60405180910390fd5b6000806103a283610a45565b6103aa610a60565b91509150915091565b603b54603c5460405163386497fd60e01b815260009261044b926001600160a01b039182169263386497fd926103ed9216906004016112d3565b60206040518083038186803b15801561040557600080fd5b505afa158015610419573d6000803e3d6000fd5b505050506040513d601f19601f8201168201806040525081019061043d9190611270565b610445610a60565b90610a66565b905090565b600061045b82610a45565b90505b919050565b600060405162461bcd60e51b815260040161038d906113b5565b60055460ff1690565b600060405162461bcd60e51b815260040161038d906113e5565b6001600160a01b038083166000908152603a60209081526040808320938516835292905220545b92915050565b6000806104d983610a45565b9050806104ea57600091505061045e565b603b54603c5460405163386497fd60e01b815261057a926001600160a01b039081169263386497fd9261052392909116906004016112d3565b60206040518083038186803b15801561053b57600080fd5b505afa15801561054f573d6000803e3d6000fd5b505050506040513d601f19601f820116820180604052508101906105739190611270565b8290610a66565b9392505050565b603b546001600160a01b031690565b600061044b610b21565b6060600480546102f0906115a5565b603c546001600160a01b031690565b600061044b610a60565b60006105cc610581565b6001600160a01b03166105dd610b30565b6001600160a01b03161460405180604001604052806002815260200161323960f01b815250906106205760405162461bcd60e51b815260040161038d91906113a2565b50836001600160a01b0316856001600160a01b03161461064557610645848685610b34565b600061065085610a45565b9050600061065e8585610bf2565b6040805180820190915260028152611a9b60f11b6020820152909150816106985760405162461bcd60e51b815260040161038d91906113a2565b506106a38682610cd0565b856001600160a01b031660006001600160a01b03167fddf252ad1be2c89b69c2b068fc378daa952ba7f163c4a11628f55a4df523b3ef876040516106e79190611512565b60405180910390a3856001600160a01b0316876001600160a01b03167f2f00e3cdd69a77be7ed215ec7b2a36784dd158f921fca79ac29deffa353fe6ee878760405161073492919061151b565b60405180910390a3501595945050505050565b600181565b80603a6000610759610b30565b6001600160a01b0390811682526020808301939093526040918201600090812091871680825291909352912091909155610791610b30565b6001600160a01b03167fda919360433220e13b51e8c211e490d148e61a3bd53de8c097194e458b97f3e16107c36105a9565b846040516107d29291906112e7565b60405180910390a35050565b60006107e8610dd7565b60075490915060ff16806107ff57506107ff610ddc565b8061080b575060065481115b6108275760405162461bcd60e51b815260040161038d9061141c565b60075460ff16158015610847576007805460ff1916600117905560068290555b61085086610de2565b61085985610df9565b61086287610e0c565b603b80546001600160a01b03808d166001600160a01b03199283168117909355603c80548d83169084168117909155603d8054928d1692909316919091179091556040517f40251fbfb6656cfa65a00d7879029fec1fad21d28fdcff2f4f68f52795b74f2c906108dd908c908c908c908c908c908c90611321565b60405180910390a380156108f6576007805460ff191690555b50505050505050505050565b61090a610581565b6001600160a01b031661091b610b30565b6001600160a01b03161460405180604001604052806002815260200161323960f01b8152509061095e5760405162461bcd60e51b815260040161038d91906113a2565b50600061096b8383610bf2565b60408051808201909152600281526106a760f31b6020820152909150816109a55760405162461bcd60e51b815260040161038d91906113a2565b506109b08482610e22565b60006001600160a01b0316846001600160a01b03167fddf252ad1be2c89b69c2b068fc378daa952ba7f163c4a11628f55a4df523b3ef856040516109f49190611512565b60405180910390a3836001600160a01b03167f49995e5dd6158cf69ad3e9777c46755a1a826a446c6416992167462dad033b2a8484604051610a3792919061151b565b60405180910390a250505050565b6001600160a01b031660009081526020819052604090205490565b60025490565b6000821580610a73575081155b15610a80575060006104c7565b81610a9860026b033b2e3c9fd0803ce800000061154f565b610aa49060001961158e565b610aae919061154f565b83111560405180604001604052806002815260200161068760f31b81525090610aea5760405162461bcd60e51b815260040161038d91906113a2565b506b033b2e3c9fd0803ce8000000610b0360028261154f565b610b0d848661156f565b610b179190611537565b61057a919061154f565b603d546001600160a01b031690565b3390565b6040805180820182526002815261353960f01b6020808301919091526001600160a01b038087166000908152603a83528481209187168152915291822054610b7d918490610ea1565b6001600160a01b038086166000818152603a60209081526040808320948916808452949091529020839055919250907fda919360433220e13b51e8c211e490d148e61a3bd53de8c097194e458b97f3e1610bd56105a9565b84604051610be49291906112e7565b60405180910390a350505050565b604080518082019091526002815261035360f41b602082015260009082610c2c5760405162461bcd60e51b815260040161038d91906113a2565b506000610c3a60028461154f565b90506b033b2e3c9fd0803ce8000000610c558260001961158e565b610c5f919061154f565b84111560405180604001604052806002815260200161068760f31b81525090610c9b5760405162461bcd60e51b815260040161038d91906113a2565b508281610cb46b033b2e3c9fd0803ce80000008761156f565b610cbe9190611537565b610cc8919061154f565b949350505050565b6001600160a01b038216610cf65760405162461bcd60e51b815260040161038d906114db565b610d0260008383610ecd565b600254610d0f8183610ed2565b6002556001600160a01b038316600090815260208190526040902054610d358184610ed2565b6001600160a01b038516600090815260208190526040812091909155610d59610b21565b6001600160a01b031614610dd157610d6f610b21565b6001600160a01b03166331873e2e8584846040518463ffffffff1660e01b8152600401610d9e93929190611300565b600060405180830381600087803b158015610db857600080fd5b505af1158015610dcc573d6000803e3d6000fd5b505050505b50505050565b600190565b303b1590565b8051610df5906003906020840190610eea565b5050565b8051610df5906004906020840190610eea565b6005805460ff191660ff92909216919091179055565b6001600160a01b038216610e485760405162461bcd60e51b815260040161038d9061146a565b610e5482600083610ecd565b600254610e618183610ede565b6002556001600160a01b038316600090815260208181526040918290205482516060810190935260228084529092610d3592869290611625908301398391905b60008184841115610ec55760405162461bcd60e51b815260040161038d91906113a2565b505050900390565b505050565b600061057a8284611537565b600061057a828461158e565b828054610ef6906115a5565b90600052602060002090601f016020900481019282610f185760008555610f5e565b82601f10610f3157805160ff1916838001178555610f5e565b82800160010185558215610f5e579182015b82811115610f5e578251825591602001919060010190610f43565b50610f6a929150610f6e565b5090565b5b80821115610f6a5760008155600101610f6f565b803561045e8161160c565b60008083601f840112610f9f578081fd5b50813567ffffffffffffffff811115610fb6578182fd5b602083019150836020828501011115610fce57600080fd5b9250929050565b600082601f830112610fe5578081fd5b813567ffffffffffffffff80821115611000576110006115f6565b604051601f8301601f191681016020018281118282101715611024576110246115f6565b60405282815284830160200186101561103b578384fd5b82602086016020830137918201602001929092529392505050565b803560ff8116811461045e57600080fd5b600060208284031215611078578081fd5b813561057a8161160c565b60008060408385031215611095578081fd5b82356110a08161160c565b915060208301356110b08161160c565b809150509250929050565b6000806000606084860312156110cf578081fd5b83356110da8161160c565b925060208401356110ea8161160c565b929592945050506040919091013590565b60008060008060808587031215611110578081fd5b843561111b8161160c565b9350602085013561112b8161160c565b93969395505050506040820135916060013590565b60008060408385031215611152578182fd5b823561115d8161160c565b946020939093013593505050565b60008060006060848603121561117f578283fd5b833561118a8161160c565b95602085013595506040909401359392505050565b60008060008060008060008060e0898b0312156111ba578384fd5b88356111c58161160c565b975060208901356111d58161160c565b96506111e360408a01610f83565b95506111f160608a01611056565b9450608089013567ffffffffffffffff8082111561120d578586fd5b6112198c838d01610fd5565b955060a08b013591508082111561122e578485fd5b61123a8c838d01610fd5565b945060c08b013591508082111561124f578384fd5b5061125c8b828c01610f8e565b999c989b5096995094979396929594505050565b600060208284031215611281578081fd5b5051919050565b60008151808452815b818110156112ad57602081850181015186830182015201611291565b818111156112be5782602083870101525b50601f01601f19169290920160200192915050565b6001600160a01b0391909116815260200190565b6001600160a01b03929092168252602082015260400190565b6001600160a01b039390931683526020830191909152604082015260600190565b6001600160a01b038716815260ff8616602082015260a06040820181905260009061134e90830187611288565b82810360608401526113608187611288565b905082810360808401528381528385602083013781602085830101526020601f19601f860116820101915050979650505050505050565b901515815260200190565b60006020825261057a6020830184611288565b6020808252601690820152751514905394d1915497d393d517d4d5541413d495115160521b604082015260600190565b60208082526017908201527f414c4c4f57414e43455f4e4f545f535550504f52544544000000000000000000604082015260600190565b6020808252602e908201527f436f6e747261637420696e7374616e63652068617320616c726561647920626560408201526d195b881a5b9a5d1a585b1a5e995960921b606082015260800190565b60208082526021908201527f45524332303a206275726e2066726f6d20746865207a65726f206164647265736040820152607360f81b606082015260800190565b6020808252601690820152751054141493d5905317d393d517d4d5541413d495115160521b604082015260600190565b6020808252601f908201527f45524332303a206d696e7420746f20746865207a65726f206164647265737300604082015260600190565b90815260200190565b918252602082015260400190565b60ff91909116815260200190565b6000821982111561154a5761154a6115e0565b500190565b60008261156a57634e487b7160e01b81526012600452602481fd5b500490565b6000816000190483118215151615611589576115896115e0565b500290565b6000828210156115a0576115a06115e0565b500390565b6002810460018216806115b957607f821691505b602082108114156115da57634e487b7160e01b600052602260045260246000fd5b50919050565b634e487b7160e01b600052601160045260246000fd5b634e487b7160e01b600052604160045260246000fd5b6001600160a01b038116811461162157600080fd5b5056fe45524332303a206275726e20616d6f756e7420657863656564732062616c616e6365a26469706673582212208ac10a03afcc2ae5755040ebd59e33253b620925aba8b72ad05c2fa74d02d97164736f6c63430008000033a26469706673582212201bef4ef5bd0322c31c7630fbd61f8e70a0a3a24adc90456e5dca4b0dd12a637f64736f6c63430008000033",
  "linkReferences": {},
  "deployedLinkReferences": {}
}