{
  "_format": "hh-sol-artifact-1",
  "contractName": "LendingPoolConfigurator",
  "sourceName": "contracts/protocol/lendingpool/LendingPoolConfigurator.sol",
  "abi": [
    {
      "anonymous": false,
      "inputs": [
        {
          "indexed": true,
          "internalType": "address",
          "name": "asset",
          "type": "address"
        },
        {
          "indexed": true,
          "internalType": "address",
          "name": "proxy",
          "type": "address"
        },
        {
          "indexed": true,
          "internalType": "address",
          "name": "implementation",
          "type": "address"
        }
      ],
      "name": "ATokenUpgraded",
      "type": "event"
    },
    {
      "anonymous": false,
      "inputs": [
        {
          "indexed": true,
          "internalType": "address",
          "name": "asset",
          "type": "address"
        },
        {
          "indexed": false,
          "internalType": "uint8",
          "name": "_assetType",
          "type": "uint8"
        }
      ],
      "name": "AssetDataChanged",
      "type": "event"
    },
    {
      "anonymous": false,
      "inputs": [
        {
          "indexed": true,
          "internalType": "address",
          "name": "asset",
          "type": "address"
        }
      ],
      "name": "BorrowingDisabledOnReserve",
      "type": "event"
    },
    {
      "anonymous": false,
      "inputs": [
        {
          "indexed": true,
          "internalType": "address",
          "name": "asset",
          "type": "address"
        },
        {
          "indexed": false,
          "internalType": "bool",
          "name": "stableRateEnabled",
          "type": "bool"
        }
      ],
      "name": "BorrowingEnabledOnReserve",
      "type": "event"
    },
    {
      "anonymous": false,
      "inputs": [
        {
          "indexed": true,
          "internalType": "address",
          "name": "asset",
          "type": "address"
        },
        {
          "indexed": false,
          "internalType": "uint256",
          "name": "ltv",
          "type": "uint256"
        },
        {
          "indexed": false,
          "internalType": "uint256",
          "name": "liquidationThreshold",
          "type": "uint256"
        },
        {
          "indexed": false,
          "internalType": "uint256",
          "name": "liquidationBonus",
          "type": "uint256"
        }
      ],
      "name": "CollateralConfigurationChanged",
      "type": "event"
    },
    {
      "anonymous": false,
      "inputs": [
        {
          "indexed": true,
          "internalType": "address",
          "name": "asset",
          "type": "address"
        }
      ],
      "name": "ReserveActivated",
      "type": "event"
    },
    {
      "anonymous": false,
      "inputs": [
        {
          "indexed": true,
          "internalType": "address",
          "name": "asset",
          "type": "address"
        }
      ],
      "name": "ReserveDeactivated",
      "type": "event"
    },
    {
      "anonymous": false,
      "inputs": [
        {
          "indexed": true,
          "internalType": "address",
          "name": "asset",
          "type": "address"
        },
        {
          "indexed": false,
          "internalType": "uint256",
          "name": "decimals",
          "type": "uint256"
        }
      ],
      "name": "ReserveDecimalsChanged",
      "type": "event"
    },
    {
      "anonymous": false,
      "inputs": [
        {
          "indexed": true,
          "internalType": "address",
          "name": "asset",
          "type": "address"
        },
        {
          "indexed": false,
          "internalType": "uint256",
          "name": "factor",
          "type": "uint256"
        }
      ],
      "name": "ReserveFactorChanged",
      "type": "event"
    },
    {
      "anonymous": false,
      "inputs": [
        {
          "indexed": true,
          "internalType": "address",
          "name": "asset",
          "type": "address"
        }
      ],
      "name": "ReserveFrozen",
      "type": "event"
    },
    {
      "anonymous": false,
      "inputs": [
        {
          "indexed": true,
          "internalType": "address",
          "name": "asset",
          "type": "address"
        },
        {
          "indexed": true,
          "internalType": "address",
          "name": "aToken",
          "type": "address"
        },
        {
          "indexed": false,
          "internalType": "address",
          "name": "stableDebtToken",
          "type": "address"
        },
        {
          "indexed": false,
          "internalType": "address",
          "name": "variableDebtToken",
          "type": "address"
        },
        {
          "indexed": false,
          "internalType": "address",
          "name": "interestRateStrategyAddress",
          "type": "address"
        }
      ],
      "name": "ReserveInitialized",
      "type": "event"
    },
    {
      "anonymous": false,
      "inputs": [
        {
          "indexed": true,
          "internalType": "address",
          "name": "asset",
          "type": "address"
        },
        {
          "indexed": false,
          "internalType": "address",
          "name": "strategy",
          "type": "address"
        }
      ],
      "name": "ReserveInterestRateStrategyChanged",
      "type": "event"
    },
    {
      "anonymous": false,
      "inputs": [
        {
          "indexed": true,
          "internalType": "address",
          "name": "asset",
          "type": "address"
        }
      ],
      "name": "ReserveUnfrozen",
      "type": "event"
    },
    {
      "anonymous": false,
      "inputs": [
        {
          "indexed": true,
          "internalType": "address",
          "name": "asset",
          "type": "address"
        },
        {
          "indexed": true,
          "internalType": "address",
          "name": "proxy",
          "type": "address"
        },
        {
          "indexed": true,
          "internalType": "address",
          "name": "implementation",
          "type": "address"
        }
      ],
      "name": "StableDebtTokenUpgraded",
      "type": "event"
    },
    {
      "anonymous": false,
      "inputs": [
        {
          "indexed": true,
          "internalType": "address",
          "name": "asset",
          "type": "address"
        }
      ],
      "name": "StableRateDisabledOnReserve",
      "type": "event"
    },
    {
      "anonymous": false,
      "inputs": [
        {
          "indexed": true,
          "internalType": "address",
          "name": "asset",
          "type": "address"
        }
      ],
      "name": "StableRateEnabledOnReserve",
      "type": "event"
    },
    {
      "anonymous": false,
      "inputs": [
        {
          "indexed": true,
          "internalType": "address",
          "name": "asset",
          "type": "address"
        },
        {
          "indexed": true,
          "internalType": "address",
          "name": "proxy",
          "type": "address"
        },
        {
          "indexed": true,
          "internalType": "address",
          "name": "implementation",
          "type": "address"
        }
      ],
      "name": "VariableDebtTokenUpgraded",
      "type": "event"
    },
    {
      "inputs": [
        {
          "internalType": "address",
          "name": "asset",
          "type": "address"
        },
        {
          "internalType": "uint64",
          "name": "trancheId",
          "type": "uint64"
        }
      ],
      "name": "activateReserve",
      "outputs": [],
      "stateMutability": "nonpayable",
      "type": "function"
    },
    {
      "inputs": [
        {
          "components": [
            {
              "internalType": "address",
              "name": "aTokenImpl",
              "type": "address"
            },
            {
              "internalType": "address",
              "name": "stableDebtTokenImpl",
              "type": "address"
            },
            {
              "internalType": "address",
              "name": "variableDebtTokenImpl",
              "type": "address"
            },
            {
              "internalType": "uint8",
              "name": "underlyingAssetDecimals",
              "type": "uint8"
            },
            {
              "internalType": "address",
              "name": "interestRateStrategyAddress",
              "type": "address"
            },
            {
              "internalType": "address",
              "name": "underlyingAsset",
              "type": "address"
            },
            {
              "internalType": "address",
              "name": "treasury",
              "type": "address"
            },
            {
              "internalType": "address",
              "name": "incentivesController",
              "type": "address"
            },
            {
              "internalType": "string",
              "name": "underlyingAssetName",
              "type": "string"
            },
            {
              "internalType": "string",
              "name": "aTokenName",
              "type": "string"
            },
            {
              "internalType": "string",
              "name": "aTokenSymbol",
              "type": "string"
            },
            {
              "internalType": "string",
              "name": "variableDebtTokenName",
              "type": "string"
            },
            {
              "internalType": "string",
              "name": "variableDebtTokenSymbol",
              "type": "string"
            },
            {
              "internalType": "string",
              "name": "stableDebtTokenName",
              "type": "string"
            },
            {
              "internalType": "string",
              "name": "stableDebtTokenSymbol",
              "type": "string"
            },
            {
              "internalType": "bytes",
              "name": "params",
              "type": "bytes"
            },
            {
              "internalType": "uint8",
              "name": "assetType",
              "type": "uint8"
            },
            {
              "internalType": "uint256",
              "name": "collateralCap",
              "type": "uint256"
            },
            {
              "internalType": "bool",
              "name": "hasStrategy",
              "type": "bool"
            },
            {
              "internalType": "bool",
              "name": "usingGovernanceSetInterestRate",
              "type": "bool"
            },
            {
              "internalType": "uint256",
              "name": "governanceSetInterestRate",
              "type": "uint256"
            }
          ],
          "internalType": "struct DataTypes.InitReserveInput[]",
          "name": "input",
          "type": "tuple[]"
        },
        {
          "internalType": "uint64",
          "name": "trancheId",
          "type": "uint64"
        },
        {
          "internalType": "address",
          "name": "admin",
          "type": "address"
        },
        {
          "internalType": "address",
          "name": "emergencyAdmin",
          "type": "address"
        }
      ],
      "name": "addNewTrancheWithReserves",
      "outputs": [],
      "stateMutability": "nonpayable",
      "type": "function"
    },
    {
      "inputs": [
        {
          "components": [
            {
              "internalType": "address",
              "name": "aTokenImpl",
              "type": "address"
            },
            {
              "internalType": "address",
              "name": "stableDebtTokenImpl",
              "type": "address"
            },
            {
              "internalType": "address",
              "name": "variableDebtTokenImpl",
              "type": "address"
            },
            {
              "internalType": "uint8",
              "name": "underlyingAssetDecimals",
              "type": "uint8"
            },
            {
              "internalType": "address",
              "name": "interestRateStrategyAddress",
              "type": "address"
            },
            {
              "internalType": "address",
              "name": "underlyingAsset",
              "type": "address"
            },
            {
              "internalType": "address",
              "name": "treasury",
              "type": "address"
            },
            {
              "internalType": "address",
              "name": "incentivesController",
              "type": "address"
            },
            {
              "internalType": "string",
              "name": "underlyingAssetName",
              "type": "string"
            },
            {
              "internalType": "string",
              "name": "aTokenName",
              "type": "string"
            },
            {
              "internalType": "string",
              "name": "aTokenSymbol",
              "type": "string"
            },
            {
              "internalType": "string",
              "name": "variableDebtTokenName",
              "type": "string"
            },
            {
              "internalType": "string",
              "name": "variableDebtTokenSymbol",
              "type": "string"
            },
            {
              "internalType": "string",
              "name": "stableDebtTokenName",
              "type": "string"
            },
            {
              "internalType": "string",
              "name": "stableDebtTokenSymbol",
              "type": "string"
            },
            {
              "internalType": "bytes",
              "name": "params",
              "type": "bytes"
            },
            {
              "internalType": "uint8",
              "name": "assetType",
              "type": "uint8"
            },
            {
              "internalType": "uint256",
              "name": "collateralCap",
              "type": "uint256"
            },
            {
              "internalType": "bool",
              "name": "hasStrategy",
              "type": "bool"
            },
            {
              "internalType": "bool",
              "name": "usingGovernanceSetInterestRate",
              "type": "bool"
            },
            {
              "internalType": "uint256",
              "name": "governanceSetInterestRate",
              "type": "uint256"
            }
          ],
          "internalType": "struct DataTypes.InitReserveInput[]",
          "name": "input",
          "type": "tuple[]"
        },
        {
          "internalType": "uint64",
          "name": "trancheId",
          "type": "uint64"
        }
      ],
      "name": "batchInitReserve",
      "outputs": [],
      "stateMutability": "nonpayable",
      "type": "function"
    },
    {
      "inputs": [
        {
          "internalType": "address",
          "name": "asset",
          "type": "address"
        },
        {
          "internalType": "uint64",
          "name": "trancheId",
          "type": "uint64"
        },
        {
          "internalType": "uint256",
          "name": "ltv",
          "type": "uint256"
        },
        {
          "internalType": "uint256",
          "name": "liquidationThreshold",
          "type": "uint256"
        },
        {
          "internalType": "uint256",
          "name": "liquidationBonus",
          "type": "uint256"
        }
      ],
      "name": "configureReserveAsCollateral",
      "outputs": [],
      "stateMutability": "nonpayable",
      "type": "function"
    },
    {
      "inputs": [
        {
          "internalType": "address",
          "name": "asset",
          "type": "address"
        },
        {
          "internalType": "uint64",
          "name": "trancheId",
          "type": "uint64"
        }
      ],
      "name": "deactivateReserve",
      "outputs": [],
      "stateMutability": "nonpayable",
      "type": "function"
    },
    {
      "inputs": [
        {
          "internalType": "address",
          "name": "asset",
          "type": "address"
        },
        {
          "internalType": "uint64",
          "name": "trancheId",
          "type": "uint64"
        }
      ],
      "name": "disableBorrowingOnReserve",
      "outputs": [],
      "stateMutability": "nonpayable",
      "type": "function"
    },
    {
      "inputs": [
        {
          "internalType": "address",
          "name": "asset",
          "type": "address"
        },
        {
          "internalType": "uint64",
          "name": "trancheId",
          "type": "uint64"
        }
      ],
      "name": "disableReserveStableRate",
      "outputs": [],
      "stateMutability": "nonpayable",
      "type": "function"
    },
    {
      "inputs": [
        {
          "internalType": "address",
          "name": "asset",
          "type": "address"
        },
        {
          "internalType": "uint64",
          "name": "trancheId",
          "type": "uint64"
        },
        {
          "internalType": "bool",
          "name": "stableBorrowRateEnabled",
          "type": "bool"
        }
      ],
      "name": "enableBorrowingOnReserve",
      "outputs": [],
      "stateMutability": "nonpayable",
      "type": "function"
    },
    {
      "inputs": [
        {
          "internalType": "address",
          "name": "asset",
          "type": "address"
        },
        {
          "internalType": "uint64",
          "name": "trancheId",
          "type": "uint64"
        }
      ],
      "name": "enableReserveStableRate",
      "outputs": [],
      "stateMutability": "nonpayable",
      "type": "function"
    },
    {
      "inputs": [
        {
          "internalType": "address",
          "name": "asset",
          "type": "address"
        },
        {
          "internalType": "uint64",
          "name": "trancheId",
          "type": "uint64"
        }
      ],
      "name": "freezeReserve",
      "outputs": [],
      "stateMutability": "nonpayable",
      "type": "function"
    },
    {
      "inputs": [
        {
          "internalType": "contract ILendingPoolAddressesProvider",
          "name": "provider",
          "type": "address"
        }
      ],
      "name": "initialize",
      "outputs": [],
      "stateMutability": "nonpayable",
      "type": "function"
    },
    {
      "inputs": [
        {
          "internalType": "address",
          "name": "asset",
          "type": "address"
        },
        {
          "internalType": "uint8",
          "name": "_assetType",
          "type": "uint8"
        }
      ],
      "name": "setAssetData",
      "outputs": [],
      "stateMutability": "nonpayable",
      "type": "function"
    },
    {
      "inputs": [
        {
          "internalType": "bool",
          "name": "val",
          "type": "bool"
        },
        {
          "internalType": "uint64",
          "name": "trancheId",
          "type": "uint64"
        }
      ],
      "name": "setPoolPause",
      "outputs": [],
      "stateMutability": "nonpayable",
      "type": "function"
    },
    {
      "inputs": [
        {
          "internalType": "address",
          "name": "asset",
          "type": "address"
        },
        {
          "internalType": "uint64",
          "name": "trancheId",
          "type": "uint64"
        },
        {
          "internalType": "uint256",
          "name": "reserveFactor",
          "type": "uint256"
        }
      ],
      "name": "setReserveFactor",
      "outputs": [],
      "stateMutability": "nonpayable",
      "type": "function"
    },
    {
      "inputs": [
        {
          "internalType": "address",
          "name": "asset",
          "type": "address"
        },
        {
          "internalType": "uint64",
          "name": "trancheId",
          "type": "uint64"
        },
        {
          "internalType": "address",
          "name": "rateStrategyAddress",
          "type": "address"
        }
      ],
      "name": "setReserveInterestRateStrategyAddress",
      "outputs": [],
      "stateMutability": "nonpayable",
      "type": "function"
    },
    {
      "inputs": [
        {
          "internalType": "address",
          "name": "asset",
          "type": "address"
        },
        {
          "internalType": "uint64",
          "name": "trancheId",
          "type": "uint64"
        }
      ],
      "name": "unfreezeReserve",
      "outputs": [],
      "stateMutability": "nonpayable",
      "type": "function"
    },
    {
      "inputs": [
        {
          "components": [
            {
              "internalType": "address",
              "name": "asset",
              "type": "address"
            },
            {
              "internalType": "uint64",
              "name": "trancheId",
              "type": "uint64"
            },
            {
              "internalType": "address",
              "name": "treasury",
              "type": "address"
            },
            {
              "internalType": "address",
              "name": "incentivesController",
              "type": "address"
            },
            {
              "internalType": "string",
              "name": "name",
              "type": "string"
            },
            {
              "internalType": "string",
              "name": "symbol",
              "type": "string"
            },
            {
              "internalType": "address",
              "name": "implementation",
              "type": "address"
            },
            {
              "internalType": "bytes",
              "name": "params",
              "type": "bytes"
            }
          ],
          "internalType": "struct ILendingPoolConfigurator.UpdateATokenInput",
          "name": "input",
          "type": "tuple"
        },
        {
          "internalType": "uint64",
          "name": "trancheID",
          "type": "uint64"
        }
      ],
      "name": "updateAToken",
      "outputs": [],
      "stateMutability": "nonpayable",
      "type": "function"
    },
    {
      "inputs": [
        {
          "components": [
            {
              "internalType": "address",
              "name": "asset",
              "type": "address"
            },
            {
              "internalType": "uint64",
              "name": "trancheId",
              "type": "uint64"
            },
            {
              "internalType": "address",
              "name": "incentivesController",
              "type": "address"
            },
            {
              "internalType": "string",
              "name": "name",
              "type": "string"
            },
            {
              "internalType": "string",
              "name": "symbol",
              "type": "string"
            },
            {
              "internalType": "address",
              "name": "implementation",
              "type": "address"
            },
            {
              "internalType": "bytes",
              "name": "params",
              "type": "bytes"
            }
          ],
          "internalType": "struct ILendingPoolConfigurator.UpdateDebtTokenInput",
          "name": "input",
          "type": "tuple"
        },
        {
          "internalType": "uint64",
          "name": "trancheID",
          "type": "uint64"
        }
      ],
      "name": "updateStableDebtToken",
      "outputs": [],
      "stateMutability": "nonpayable",
      "type": "function"
    },
    {
      "inputs": [
        {
          "components": [
            {
              "internalType": "address",
              "name": "asset",
              "type": "address"
            },
            {
              "internalType": "uint64",
              "name": "trancheId",
              "type": "uint64"
            },
            {
              "internalType": "address",
              "name": "incentivesController",
              "type": "address"
            },
            {
              "internalType": "string",
              "name": "name",
              "type": "string"
            },
            {
              "internalType": "string",
              "name": "symbol",
              "type": "string"
            },
            {
              "internalType": "address",
              "name": "implementation",
              "type": "address"
            },
            {
              "internalType": "bytes",
              "name": "params",
              "type": "bytes"
            }
          ],
          "internalType": "struct ILendingPoolConfigurator.UpdateDebtTokenInput",
          "name": "input",
          "type": "tuple"
        },
        {
          "internalType": "uint64",
          "name": "trancheID",
          "type": "uint64"
        }
      ],
      "name": "updateVariableDebtToken",
      "outputs": [],
      "stateMutability": "nonpayable",
      "type": "function"
    }
  ],
  "bytecode": "0x60806040526000805534801561001457600080fd5b50615b13806100246000396000f3fe60806040523480156200001157600080fd5b50600436106200013c5760003560e01c8063c4d66de811620000bd578063f3489ad3116200007b578063f3489ad31462000285578063fa0b2bf2146200029c578063fba9d73814620002b3578063fcc8e18a14620002ca578063ffeb843c14620002e1576200013c565b8063c4d66de81462000212578063c6b31f461462000229578063e69c9f581462000240578063eafbabd71462000257578063ede17426146200026e576200013c565b80638a34c13d116200010b5780638a34c13d146200019f5780638f21ece414620001b6578063a18cb38414620001cd578063b739408b14620001e4578063c3935ce214620001fb576200013c565b8063231fdad7146200014157806325e5a838146200015a5780635210bc1f14620001715780638644ae0f1462000188575b600080fd5b620001586200015236600462004189565b620002f8565b005b620001586200016b36600462004189565b620005a0565b620001586200018236600462004217565b6200083f565b620001586200019936600462004189565b62000afa565b62000158620001b0366004620045f4565b62000d99565b62000158620001c7366004620045b8565b620011a2565b62000158620001de36600462004189565b62001538565b62000158620001f536600462004329565b620017e3565b620001586200020c366004620042a2565b620019e3565b620001586200022336600462004144565b62001dd2565b620001586200023a36600462004378565b62001f13565b620001586200025136600462004189565b62002128565b62000158620002683660046200425d565b620023c7565b620001586200027f3660046200441b565b62002666565b6200015862000296366004620045f4565b6200279b565b62000158620002ad366004620042f7565b62002b12565b62000158620002c4366004620041c6565b62002c6a565b62000158620002db36600462004189565b62002e80565b62000158620002f236600462004189565b6200311f565b603454604051630847b4a360e01b8152829133916001600160a01b0390911690630847b4a3906200032e90859060040162004dc4565b60206040518083038186803b1580156200034757600080fd5b505afa1580156200035c573d6000803e3d6000fd5b505050506040513d601f19601f820116820180604052508101906200038291906200416a565b6001600160a01b031614806200041e57506034546040805163d60ed26760e01b8152905133926001600160a01b03169163d60ed267916004808301926020929190829003018186803b158015620003d857600080fd5b505afa158015620003ed573d6000803e3d6000fd5b505050506040513d601f19601f820116820180604052508101906200041391906200416a565b6001600160a01b0316145b60405180604001604052806002815260200161333360f01b81525090620004635760405162461bcd60e51b81526004016200045a919062004a56565b60405180910390fd5b5060355460405163064db86560e01b81526000916001600160a01b03169063064db865906200049990879087906004016200477e565b60206040518083038186803b158015620004b257600080fd5b505afa158015620004c7573d6000803e3d6000fd5b505050506040513d601f19601f82011682018060405250810190620004ed91906200443b565b9050620004fc816000620033be565b60355481516040516315410f5960e31b81526001600160a01b039092169163aa087ac891620005329188918891600401620047cc565b600060405180830381600087803b1580156200054d57600080fd5b505af115801562000562573d6000803e3d6000fd5b50506040516001600160a01b03871692507f8bbf35441ac2c607ddecadd3d8ee58636d32f217fad201fb2655581502dd84e39150600090a250505050565b603454604051630847b4a360e01b8152829133916001600160a01b0390911690630847b4a390620005d690859060040162004dc4565b60206040518083038186803b158015620005ef57600080fd5b505afa15801562000604573d6000803e3d6000fd5b505050506040513d601f19601f820116820180604052508101906200062a91906200416a565b6001600160a01b03161480620006c657506034546040805163d60ed26760e01b8152905133926001600160a01b03169163d60ed267916004808301926020929190829003018186803b1580156200068057600080fd5b505afa15801562000695573d6000803e3d6000fd5b505050506040513d601f19601f82011682018060405250810190620006bb91906200416a565b6001600160a01b0316145b60405180604001604052806002815260200161333360f01b81525090620007025760405162461bcd60e51b81526004016200045a919062004a56565b5060355460405163064db86560e01b81526000916001600160a01b03169063064db865906200073890879087906004016200477e565b60206040518083038186803b1580156200075157600080fd5b505afa15801562000766573d6000803e3d6000fd5b505050506040513d601f19601f820116820180604052508101906200078c91906200443b565b90506200079b816001620033ee565b60355481516040516315410f5960e31b81526001600160a01b039092169163aa087ac891620007d19188918891600401620047cc565b600060405180830381600087803b158015620007ec57600080fd5b505af115801562000801573d6000803e3d6000fd5b50506040516001600160a01b03871692507f85dc710add8a0914461a7dc5a63f6fc529a7700f8c6089a3faf5e93256ccf12a9150600090a250505050565b603454604051630847b4a360e01b8152839133916001600160a01b0390911690630847b4a3906200087590859060040162004dc4565b60206040518083038186803b1580156200088e57600080fd5b505afa158015620008a3573d6000803e3d6000fd5b505050506040513d601f19601f82011682018060405250810190620008c991906200416a565b6001600160a01b031614806200096557506034546040805163d60ed26760e01b8152905133926001600160a01b03169163d60ed267916004808301926020929190829003018186803b1580156200091f57600080fd5b505afa15801562000934573d6000803e3d6000fd5b505050506040513d601f19601f820116820180604052508101906200095a91906200416a565b6001600160a01b0316145b60405180604001604052806002815260200161333360f01b81525090620009a15760405162461bcd60e51b81526004016200045a919062004a56565b5060355460405163064db86560e01b81526000916001600160a01b03169063064db86590620009d790889088906004016200477e565b60206040518083038186803b158015620009f057600080fd5b505afa15801562000a05573d6000803e3d6000fd5b505050506040513d601f19601f8201168201806040525081019062000a2b91906200443b565b905062000a3a8160016200341e565b62000a468184620033be565b60355481516040516315410f5960e31b81526001600160a01b039092169163aa087ac89162000a7c9189918991600401620047cc565b600060405180830381600087803b15801562000a9757600080fd5b505af115801562000aac573d6000803e3d6000fd5b50505050846001600160a01b03167fab2f7f9e5ca2772fafa94f355c1842a80ae6b9e41f83083098d81f67d7a0b5088460405162000aeb919062004812565b60405180910390a25050505050565b603454604051630847b4a360e01b8152829133916001600160a01b0390911690630847b4a39062000b3090859060040162004dc4565b60206040518083038186803b15801562000b4957600080fd5b505afa15801562000b5e573d6000803e3d6000fd5b505050506040513d601f19601f8201168201806040525081019062000b8491906200416a565b6001600160a01b0316148062000c2057506034546040805163d60ed26760e01b8152905133926001600160a01b03169163d60ed267916004808301926020929190829003018186803b15801562000bda57600080fd5b505afa15801562000bef573d6000803e3d6000fd5b505050506040513d601f19601f8201168201806040525081019062000c1591906200416a565b6001600160a01b0316145b60405180604001604052806002815260200161333360f01b8152509062000c5c5760405162461bcd60e51b81526004016200045a919062004a56565b5060355460405163064db86560e01b81526000916001600160a01b03169063064db8659062000c9290879087906004016200477e565b60206040518083038186803b15801562000cab57600080fd5b505afa15801562000cc0573d6000803e3d6000fd5b505050506040513d601f19601f8201168201806040525081019062000ce691906200443b565b905062000cf5816000620033ee565b60355481516040516315410f5960e31b81526001600160a01b039092169163aa087ac89162000d2b9188918891600401620047cc565b600060405180830381600087803b15801562000d4657600080fd5b505af115801562000d5b573d6000803e3d6000fd5b50506040516001600160a01b03871692507f838ecdc4709a31a26db48b0c853212cedde3f725f07030079d793fb0719647609150600090a250505050565b603454604051630847b4a360e01b8152829133916001600160a01b0390911690630847b4a39062000dcf90859060040162004dc4565b60206040518083038186803b15801562000de857600080fd5b505afa15801562000dfd573d6000803e3d6000fd5b505050506040513d601f19601f8201168201806040525081019062000e2391906200416a565b6001600160a01b0316148062000ebf57506034546040805163d60ed26760e01b8152905133926001600160a01b03169163d60ed267916004808301926020929190829003018186803b15801562000e7957600080fd5b505afa15801562000e8e573d6000803e3d6000fd5b505050506040513d601f19601f8201168201806040525081019062000eb491906200416a565b6001600160a01b0316145b60405180604001604052806002815260200161333360f01b8152509062000efb5760405162461bcd60e51b81526004016200045a919062004a56565b506035546001600160a01b0316600081637ba497fe62000f1f602088018862004144565b62000f316040890160208a0162004648565b6040518363ffffffff1660e01b815260040162000f509291906200477e565b6102206040518083038186803b15801562000f6a57600080fd5b505afa15801562000f7f573d6000803e3d6000fd5b505050506040513d601f19601f8201168201806040525081019062000fa5919062004459565b90506000620010566001600160a01b03841663064db86562000fcb60208a018a62004144565b62000fdd60408b0160208c0162004648565b6040518363ffffffff1660e01b815260040162000ffc9291906200477e565b60206040518083038186803b1580156200101557600080fd5b505afa1580156200102a573d6000803e3d6000fd5b505050506040513d601f19601f820116820180604052508101906200105091906200443b565b6200344e565b50935060009250637c77d66f60e11b91508590506200107960208a018a62004144565b6200108b60608b0160408c0162004144565b856200109b60608d018d62004de6565b620010aa60808f018f62004de6565b8f8060c00190620010bc919062004de6565b604051602401620010d79a99989796959493929190620048bd565b60408051601f198184030181529190526020810180516001600160e01b03166001600160e01b03199093169290921790915261010084015190915062001130906200112960c08a0160a08b0162004144565b8362003479565b6200114260c0880160a0890162004144565b6101008401516001600160a01b0391821691166200116460208a018a62004144565b6001600160a01b03167f7a943a5b6c214bf7726c069a878b1e2a8e7371981d516048b84e03743e67bc2860405160405180910390a450505050505050565b603454604051630847b4a360e01b815233916001600160a01b031690630847b4a390620011d490859060040162004dc4565b60206040518083038186803b158015620011ed57600080fd5b505afa15801562001202573d6000803e3d6000fd5b505050506040513d601f19601f820116820180604052508101906200122891906200416a565b6001600160a01b03161480620012c457506034546040805163d60ed26760e01b8152905133926001600160a01b03169163d60ed267916004808301926020929190829003018186803b1580156200127e57600080fd5b505afa15801562001293573d6000803e3d6000fd5b505050506040513d601f19601f82011682018060405250810190620012b991906200416a565b6001600160a01b0316145b60405180604001604052806002815260200161333360f01b81525090620013005760405162461bcd60e51b81526004016200045a919062004a56565b506035546001600160a01b0316600081637ba497fe62001324602087018762004144565b62001336604088016020890162004648565b6040518363ffffffff1660e01b8152600401620013559291906200477e565b6102206040518083038186803b1580156200136f57600080fd5b505afa15801562001384573d6000803e3d6000fd5b505050506040513d601f19601f82011682018060405250810190620013aa919062004459565b90506000620013e26001600160a01b03841663064db865620013d0602089018962004144565b62000fdd60408a0160208b0162004648565b509350600092506367baf0a760e11b9150859050620014086060890160408a0162004144565b6200141760208a018a62004144565b6200142960808b0160608c0162004144565b866200143960808d018d62004de6565b6200144860a08f018f62004de6565b8f8060e001906200145a919062004de6565b604051602401620014769b9a9998979695949392919062004836565b60408051601f198184030181529190526020810180516001600160e01b03166001600160e01b03199093169290921790915260e080850151919250620014c891906200112990890160c08a0162004144565b620014da60e0870160c0880162004144565b60e08401516001600160a01b039182169116620014fb602089018962004144565b6001600160a01b03167fa76f65411ec66a7fb6bc467432eb14767900449ae4469fa295e4441fe5e1cb7360405160405180910390a4505050505050565b603454604051630847b4a360e01b8152829133916001600160a01b0390911690630847b4a3906200156e90859060040162004dc4565b60206040518083038186803b1580156200158757600080fd5b505afa1580156200159c573d6000803e3d6000fd5b505050506040513d601f19601f82011682018060405250810190620015c291906200416a565b6001600160a01b031614806200165e57506034546040805163d60ed26760e01b8152905133926001600160a01b03169163d60ed267916004808301926020929190829003018186803b1580156200161857600080fd5b505afa1580156200162d573d6000803e3d6000fd5b505050506040513d601f19601f820116820180604052508101906200165391906200416a565b6001600160a01b0316145b60405180604001604052806002815260200161333360f01b815250906200169a5760405162461bcd60e51b81526004016200045a919062004a56565b50620016a78383620034e5565b60355460405163064db86560e01b81526000916001600160a01b03169063064db86590620016dc90879087906004016200477e565b60206040518083038186803b158015620016f557600080fd5b505afa1580156200170a573d6000803e3d6000fd5b505050506040513d601f19601f820116820180604052508101906200173091906200443b565b90506200173f81600062003658565b60355481516040516315410f5960e31b81526001600160a01b039092169163aa087ac891620017759188918891600401620047cc565b600060405180830381600087803b1580156200179057600080fd5b505af1158015620017a5573d6000803e3d6000fd5b50506040516001600160a01b03871692507f6f60cf8bd0f218cabe1ea3150bd07b0b758c35c4cfdf7138017a283e65564d5e9150600090a250505050565b603454604051630847b4a360e01b8152829133916001600160a01b0390911690630847b4a3906200181990859060040162004dc4565b60206040518083038186803b1580156200183257600080fd5b505afa15801562001847573d6000803e3d6000fd5b505050506040513d601f19601f820116820180604052508101906200186d91906200416a565b6001600160a01b031614806200190957506034546040805163d60ed26760e01b8152905133926001600160a01b03169163d60ed267916004808301926020929190829003018186803b158015620018c357600080fd5b505afa158015620018d8573d6000803e3d6000fd5b505050506040513d601f19601f82011682018060405250810190620018fe91906200416a565b6001600160a01b0316145b60405180604001604052806002815260200161333360f01b81525090620019455760405162461bcd60e51b81526004016200045a919062004a56565b506035546001600160a01b031660005b84811015620019db57620019c68260405180604001604052808989868181106200198f57634e487b7160e01b600052603260045260246000fd5b9050602002810190620019a3919062004e2d565b620019ae9062004ee8565b8152602001876001600160401b031681525062003688565b80620019d2816200517e565b91505062001955565b505050505050565b603454604051630847b4a360e01b8152859133916001600160a01b0390911690630847b4a39062001a1990859060040162004dc4565b60206040518083038186803b15801562001a3257600080fd5b505afa15801562001a47573d6000803e3d6000fd5b505050506040513d601f19601f8201168201806040525081019062001a6d91906200416a565b6001600160a01b0316148062001b0957506034546040805163d60ed26760e01b8152905133926001600160a01b03169163d60ed267916004808301926020929190829003018186803b15801562001ac357600080fd5b505afa15801562001ad8573d6000803e3d6000fd5b505050506040513d601f19601f8201168201806040525081019062001afe91906200416a565b6001600160a01b0316145b60405180604001604052806002815260200161333360f01b8152509062001b455760405162461bcd60e51b81526004016200045a919062004a56565b5060355460405163064db86560e01b81526000916001600160a01b03169063064db8659062001b7b908a908a906004016200477e565b60206040518083038186803b15801562001b9457600080fd5b505afa15801562001ba9573d6000803e3d6000fd5b505050506040513d601f19601f8201168201806040525081019062001bcf91906200443b565b90508385111560405180604001604052806002815260200161373560f01b8152509062001c115760405162461bcd60e51b81526004016200045a919062004a56565b50831562001cac57604080518082019091526002815261373560f01b6020820152612710841162001c575760405162461bcd60e51b81526004016200045a919062004a56565b5061271062001c67858562003b54565b111560405180604001604052806002815260200161373560f01b8152509062001ca55760405162461bcd60e51b81526004016200045a919062004a56565b5062001cf4565b604080518082019091526002815261373560f01b6020820152831562001ce75760405162461bcd60e51b81526004016200045a919062004a56565b5062001cf48787620034e5565b62001d00818662003c18565b62001d0c818562003c64565b62001d18818462003cb8565b60355481516040516315410f5960e31b81526001600160a01b039092169163aa087ac89162001d4e918b918b91600401620047cc565b600060405180830381600087803b15801562001d6957600080fd5b505af115801562001d7e573d6000803e3d6000fd5b50505050866001600160a01b03167f637febbda9275aea2e85c0ff690444c8d87eb2e8339bbede9715abcc89cb099586868660405162001dc19392919062004dae565b60405180910390a250505050505050565b600062001dde62003d0e565b60015490915060ff168062001df8575062001df862003d13565b8062001e05575060005481115b62001e245760405162461bcd60e51b81526004016200045a9062004aee565b60015460ff1615801562001e44576001805460ff19168117905560008290555b603480546001600160a01b0319166001600160a01b03858116919091179182905560408051630261bf8b60e01b815290519290911691630261bf8b91600480820192602092909190829003018186803b15801562001ea157600080fd5b505afa15801562001eb6573d6000803e3d6000fd5b505050506040513d601f19601f8201168201806040525081019062001edc91906200416a565b603580546001600160a01b0319166001600160a01b0392909216919091179055801562001f0e576001805460ff191690555b505050565b603454604051632fd702bb60e11b81526001600160a01b0390911690635fae05769062001f4590339060040162004719565b60206040518083038186803b15801562001f5e57600080fd5b505afa15801562001f73573d6000803e3d6000fd5b505050506040513d601f19601f8201168201806040525081019062001f999190620043fc565b62001fb85760405162461bcd60e51b81526004016200045a9062004aa2565b603454604051630653f32b60e51b81526001600160a01b039091169063ca7e65609062001fec90859087906004016200477e565b600060405180830381600087803b1580156200200757600080fd5b505af11580156200201c573d6000803e3d6000fd5b5050603454604051632b5f4e0960e01b81526001600160a01b039091169250632b5f4e0991506200205490849087906004016200477e565b600060405180830381600087803b1580156200206f57600080fd5b505af115801562002084573d6000803e3d6000fd5b50506035546001600160a01b03169150600090505b858110156200211f576200210a8260405180604001604052808a8a86818110620020d357634e487b7160e01b600052603260045260246000fd5b9050602002810190620020e7919062004e2d565b620020f29062004ee8565b8152602001886001600160401b031681525062003688565b8062002116816200517e565b91505062002099565b50505050505050565b603454604051630847b4a360e01b8152829133916001600160a01b0390911690630847b4a3906200215e90859060040162004dc4565b60206040518083038186803b1580156200217757600080fd5b505afa1580156200218c573d6000803e3d6000fd5b505050506040513d601f19601f82011682018060405250810190620021b291906200416a565b6001600160a01b031614806200224e57506034546040805163d60ed26760e01b8152905133926001600160a01b03169163d60ed267916004808301926020929190829003018186803b1580156200220857600080fd5b505afa1580156200221d573d6000803e3d6000fd5b505050506040513d601f19601f820116820180604052508101906200224391906200416a565b6001600160a01b0316145b60405180604001604052806002815260200161333360f01b815250906200228a5760405162461bcd60e51b81526004016200045a919062004a56565b5060355460405163064db86560e01b81526000916001600160a01b03169063064db86590620022c090879087906004016200477e565b60206040518083038186803b158015620022d957600080fd5b505afa158015620022ee573d6000803e3d6000fd5b505050506040513d601f19601f820116820180604052508101906200231491906200443b565b905062002323816001620033be565b60355481516040516315410f5960e31b81526001600160a01b039092169163aa087ac891620023599188918891600401620047cc565b600060405180830381600087803b1580156200237457600080fd5b505af115801562002389573d6000803e3d6000fd5b50506040516001600160a01b03871692507f8dee2b2f3e98319ae6347eda521788f73f4086c9be9a594942b370b137fb8cb19150600090a250505050565b603454604051630847b4a360e01b8152839133916001600160a01b0390911690630847b4a390620023fd90859060040162004dc4565b60206040518083038186803b1580156200241657600080fd5b505afa1580156200242b573d6000803e3d6000fd5b505050506040513d601f19601f820116820180604052508101906200245191906200416a565b6001600160a01b03161480620024ed57506034546040805163d60ed26760e01b8152905133926001600160a01b03169163d60ed267916004808301926020929190829003018186803b158015620024a757600080fd5b505afa158015620024bc573d6000803e3d6000fd5b505050506040513d601f19601f82011682018060405250810190620024e291906200416a565b6001600160a01b0316145b60405180604001604052806002815260200161333360f01b81525090620025295760405162461bcd60e51b81526004016200045a919062004a56565b5060355460405163064db86560e01b81526000916001600160a01b03169063064db865906200255f90889088906004016200477e565b60206040518083038186803b1580156200257857600080fd5b505afa1580156200258d573d6000803e3d6000fd5b505050506040513d601f19601f82011682018060405250810190620025b391906200443b565b9050620025c1818462003d19565b60355481516040516315410f5960e31b81526001600160a01b039092169163aa087ac891620025f79189918991600401620047cc565b600060405180830381600087803b1580156200261257600080fd5b505af115801562002627573d6000803e3d6000fd5b50505050846001600160a01b03167f2694ccb0b585b6a54b8d8b4a47aa874b05c257b43d34e98aee50838be00d34058460405162000aeb919062004da5565b60345460405163a629f95960e01b8152829133916001600160a01b039091169063a629f959906200269c90859060040162004dc4565b60206040518083038186803b158015620026b557600080fd5b505afa158015620026ca573d6000803e3d6000fd5b505050506040513d601f19601f82011682018060405250810190620026f091906200416a565b6001600160a01b031614604051806040016040528060028152602001611b9b60f11b81525090620027365760405162461bcd60e51b81526004016200045a919062004a56565b5060355460405163a2bcec2160e01b81526001600160a01b039091169063a2bcec21906200276b90869086906004016200481d565b600060405180830381600087803b1580156200278657600080fd5b505af11580156200211f573d6000803e3d6000fd5b603454604051630847b4a360e01b8152829133916001600160a01b0390911690630847b4a390620027d190859060040162004dc4565b60206040518083038186803b158015620027ea57600080fd5b505afa158015620027ff573d6000803e3d6000fd5b505050506040513d601f19601f820116820180604052508101906200282591906200416a565b6001600160a01b03161480620028c157506034546040805163d60ed26760e01b8152905133926001600160a01b03169163d60ed267916004808301926020929190829003018186803b1580156200287b57600080fd5b505afa15801562002890573d6000803e3d6000fd5b505050506040513d601f19601f82011682018060405250810190620028b691906200416a565b6001600160a01b0316145b60405180604001604052806002815260200161333360f01b81525090620028fd5760405162461bcd60e51b81526004016200045a919062004a56565b506035546001600160a01b0316600081637ba497fe62002921602088018862004144565b620029336040890160208a0162004648565b6040518363ffffffff1660e01b8152600401620029529291906200477e565b6102206040518083038186803b1580156200296c57600080fd5b505afa15801562002981573d6000803e3d6000fd5b505050506040513d601f19601f82011682018060405250810190620029a7919062004459565b90506000620029cd6001600160a01b03841663064db86562000fcb60208a018a62004144565b50935060009250637c77d66f60e11b9150859050620029f060208a018a62004144565b62002a0260608b0160408c0162004144565b8562002a1260608d018d62004de6565b62002a2160808f018f62004de6565b8f8060c0019062002a33919062004de6565b60405160240162002a4e9a99989796959493929190620048bd565b60408051601f198184030181529190526020810180516001600160e01b03166001600160e01b03199093169290921790915261012084015190915062002aa0906200112960c08a0160a08b0162004144565b62002ab260c0880160a0890162004144565b6101208401516001600160a01b03918216911662002ad460208a018a62004144565b6001600160a01b03167f9439658a562a5c46b1173589df89cf001483d685bad28aedaff4a88656292d8160405160405180910390a450505050505050565b6034546040805163d60ed26760e01b8152905133926001600160a01b03169163d60ed267916004808301926020929190829003018186803b15801562002b5757600080fd5b505afa15801562002b6c573d6000803e3d6000fd5b505050506040513d601f19601f8201168201806040525081019062002b9291906200416a565b6001600160a01b03161462002bbb5760405162461bcd60e51b81526004016200045a9062004a6b565b603554604051637d0595f960e11b81526001600160a01b039091169063fa0b2bf29062002bef9085908590600401620047f6565b600060405180830381600087803b15801562002c0a57600080fd5b505af115801562002c1f573d6000803e3d6000fd5b50505050816001600160a01b03167f9252aeeff71a01330ce28dc4f59278bb547259994b69a5a7e22c337cb809dbb78260405162002c5e919062004dd8565b60405180910390a25050565b603454604051630847b4a360e01b8152839133916001600160a01b0390911690630847b4a39062002ca090859060040162004dc4565b60206040518083038186803b15801562002cb957600080fd5b505afa15801562002cce573d6000803e3d6000fd5b505050506040513d601f19601f8201168201806040525081019062002cf491906200416a565b6001600160a01b0316148062002d9057506034546040805163d60ed26760e01b8152905133926001600160a01b03169163d60ed267916004808301926020929190829003018186803b15801562002d4a57600080fd5b505afa15801562002d5f573d6000803e3d6000fd5b505050506040513d601f19601f8201168201806040525081019062002d8591906200416a565b6001600160a01b0316145b60405180604001604052806002815260200161333360f01b8152509062002dcc5760405162461bcd60e51b81526004016200045a919062004a56565b50603554604051631f753ae760e31b81526001600160a01b039091169063fba9d7389062002e0390879087908790600401620047a0565b600060405180830381600087803b15801562002e1e57600080fd5b505af115801562002e33573d6000803e3d6000fd5b50505050836001600160a01b03167f5644b64ebb0ce18c4032248ca52f58355469092ff072866c3dcd8640e817d6a58360405162002e72919062004719565b60405180910390a250505050565b603454604051630847b4a360e01b8152829133916001600160a01b0390911690630847b4a39062002eb690859060040162004dc4565b60206040518083038186803b15801562002ecf57600080fd5b505afa15801562002ee4573d6000803e3d6000fd5b505050506040513d601f19601f8201168201806040525081019062002f0a91906200416a565b6001600160a01b0316148062002fa657506034546040805163d60ed26760e01b8152905133926001600160a01b03169163d60ed267916004808301926020929190829003018186803b15801562002f6057600080fd5b505afa15801562002f75573d6000803e3d6000fd5b505050506040513d601f19601f8201168201806040525081019062002f9b91906200416a565b6001600160a01b0316145b60405180604001604052806002815260200161333360f01b8152509062002fe25760405162461bcd60e51b81526004016200045a919062004a56565b5060355460405163064db86560e01b81526000916001600160a01b03169063064db865906200301890879087906004016200477e565b60206040518083038186803b1580156200303157600080fd5b505afa15801562003046573d6000803e3d6000fd5b505050506040513d601f19601f820116820180604052508101906200306c91906200443b565b90506200307b8160006200341e565b60355481516040516315410f5960e31b81526001600160a01b039092169163aa087ac891620030b19188918891600401620047cc565b600060405180830381600087803b158015620030cc57600080fd5b505af1158015620030e1573d6000803e3d6000fd5b50506040516001600160a01b03871692507fe9a7e5fd4fc8ea18e602350324bf48e8f05d12434af0ce0be05743e6a5fdcb9e9150600090a250505050565b603454604051630847b4a360e01b8152829133916001600160a01b0390911690630847b4a3906200315590859060040162004dc4565b60206040518083038186803b1580156200316e57600080fd5b505afa15801562003183573d6000803e3d6000fd5b505050506040513d601f19601f82011682018060405250810190620031a991906200416a565b6001600160a01b031614806200324557506034546040805163d60ed26760e01b8152905133926001600160a01b03169163d60ed267916004808301926020929190829003018186803b158015620031ff57600080fd5b505afa15801562003214573d6000803e3d6000fd5b505050506040513d601f19601f820116820180604052508101906200323a91906200416a565b6001600160a01b0316145b60405180604001604052806002815260200161333360f01b81525090620032815760405162461bcd60e51b81526004016200045a919062004a56565b5060355460405163064db86560e01b81526000916001600160a01b03169063064db86590620032b790879087906004016200477e565b60206040518083038186803b158015620032d057600080fd5b505afa158015620032e5573d6000803e3d6000fd5b505050506040513d601f19601f820116820180604052508101906200330b91906200443b565b90506200331a81600162003658565b60355481516040516315410f5960e31b81526001600160a01b039092169163aa087ac891620033509188918891600401620047cc565b600060405180830381600087803b1580156200336b57600080fd5b505af115801562003380573d6000803e3d6000fd5b50506040516001600160a01b03871692507f35b80cd8ea3440e9a8454f116fa658b858da1b64c86c48451f4559cefcdfb56c9150600090a250505050565b603b81620033ce576000620033d1565b60015b8351670800000000000000191660ff9190911690911b1790915250565b603981620033fe57600062003401565b60015b8351670200000000000000191660ff9190911690911b1790915250565b603a816200342e57600062003431565b60015b8351670400000000000000191660ff9190911690911b1790915250565b5161ffff80821692601083901c821692602081901c831692603082901c60ff169260409290921c1690565b60405163278f794360e11b815283906001600160a01b03821690634f1ef28690620034ab908690869060040162004750565b600060405180830381600087803b158015620034c657600080fd5b505af1158015620034db573d6000803e3d6000fd5b5050505050505050565b603554604051633dd24bff60e11b81526000916001600160a01b031690637ba497fe906200351a90869086906004016200477e565b6102206040518083038186803b1580156200353457600080fd5b505afa15801562003549573d6000803e3d6000fd5b505050506040513d601f19601f820116820180604052508101906200356f919062004459565b90506000836001600160a01b03166370a082318360e001516040518263ffffffff1660e01b8152600401620035a5919062004719565b60206040518083038186803b158015620035be57600080fd5b505afa158015620035d3573d6000803e3d6000fd5b505050506040513d601f19601f82011682018060405250810190620035f991906200462f565b90508015801562003615575060608201516001600160801b0316155b604051806040016040528060028152602001610ccd60f21b81525090620036515760405162461bcd60e51b81526004016200045a919062004a56565b5050505050565b603881620036685760006200366b565b60015b8351670100000000000000191660ff9190911690911b1790915250565b8051805160c082015160a0830151602085015160e08501516060860151610120909601516000966200379896956367baf0a760e11b958b959194909391929091620036dc6001600160401b03851662003d73565b604051602001620036ef929190620046e6565b6040516020818303038152906040528b600001516101400151620037208d602001516001600160401b031662003d73565b60405160200162003733929190620046e6565b60408051601f19818403018152908290528d516101e0015162003760999897969594939260240162004938565b60408051601f198184030181529190526020810180516001600160e01b03166001600160e01b03199093169290921790915262003eac565b825160208082015160a08301519186015160e084015160608501516101a0909501519596506000956200386d959394637c77d66f60e11b948b9491939192620037ea6001600160401b03851662003d73565b604051602001620037fd929190620046e6565b6040516020818303038152906040528b600001516101c001516200382e8d602001516001600160401b031662003d73565b60405160200162003841929190620046e6565b60408051601f19818403018152908290528d516101e001516200376098979695949392602401620049cc565b8351604081015160a0820151602087015160e08401516060850151610160909501519596506000956200394395637c77d66f60e11b948c9490939092909190620038c06001600160401b03851662003d73565b604051602001620038d3929190620046e6565b6040516020818303038152906040528c600001516101800151620039048e602001516001600160401b031662003d73565b60405160200162003917929190620046e6565b60408051601f19818403018152908290528e516101e001516200376098979695949392602401620049cc565b8451602086015160405163b5afdf4960e01b81529293506001600160a01b0388169263b5afdf4992620039829290918891889188919060040162004b3c565b600060405180830381600087803b1580156200399d57600080fd5b505af1158015620039b2573d6000803e3d6000fd5b5050855160a00151602087015160405163064db86560e01b8152600094506001600160a01b038a16935063064db86592620039f29290916004016200477e565b60206040518083038186803b15801562003a0b57600080fd5b505afa15801562003a20573d6000803e3d6000fd5b505050506040513d601f19601f8201168201806040525081019062003a4691906200443b565b85516060015190915062003a5f90829060ff1662003f57565b62003a6c81600162003658565b62003a79816000620033ee565b845160a00151602086015182516040516315410f5960e31b81526001600160a01b038a169363aa087ac89362003ab7939192909190600401620047cc565b600060405180830381600087803b15801562003ad257600080fd5b505af115801562003ae7573d6000803e3d6000fd5b50505050836001600160a01b0316856000015160a001516001600160a01b03167f3a0ca721fc364424566385a1aa271ed508cc2c0949c2272575fb3013a163a45f858589600001516080015160405162003b44939291906200472d565b60405180910390a3505050505050565b600082158062003b62575081155b1562003b715750600062003c12565b8162003b81600261271062004e95565b62003b8f9060001962004ece565b62003b9b919062004e95565b83111560405180604001604052806002815260200161068760f31b8152509062003bda5760405162461bcd60e51b81526004016200045a919062004a56565b5061271062003beb60028262004e95565b62003bf7848662004eac565b62003c03919062004e7a565b62003c0f919062004e95565b90505b92915050565b604080518082019091526002815261363760f01b602082015261ffff82111562003c575760405162461bcd60e51b81526004016200045a919062004a56565b50815161ffff1916179052565b60408051808201909152600281526106c760f31b602082015261ffff82111562003ca35760405162461bcd60e51b81526004016200045a919062004a56565b50815163ffff0000191660109190911b179052565b604080518082019091526002815261363960f01b602082015261ffff82111562003cf75760405162461bcd60e51b81526004016200045a919062004a56565b50815165ffff00000000191660209190911b179052565b600190565b303b1590565b604080518082019091526002815261373160f01b602082015261ffff82111562003d585760405162461bcd60e51b81526004016200045a919062004a56565b50815169ffff0000000000000000191660409190911b179052565b60608162003d9a57506040805180820190915260018152600360fc1b602082015262003ea7565b8160005b811562003dca578062003db1816200517e565b915062003dc29050600a8362004e95565b915062003d9e565b6000816001600160401b0381111562003df357634e487b7160e01b600052604160045260246000fd5b6040519080825280601f01601f19166020018201604052801562003e1e576020820181803683370190505b5090505b841562003ea25762003e3660018362004ece565b915062003e45600a866200519c565b62003e5290603062004e7a565b60f81b81838151811062003e7657634e487b7160e01b600052603260045260246000fd5b60200101906001600160f81b031916908160001a90535062003e9a600a8662004e95565b945062003e22565b925050505b919050565b6000803060405162003ebe9062003fad565b62003eca919062004719565b604051809103906000f08015801562003ee7573d6000803e3d6000fd5b5060405163347d5e2560e21b81529091506001600160a01b0382169063d1f578949062003f1b908790879060040162004750565b600060405180830381600087803b15801562003f3657600080fd5b505af115801562003f4b573d6000803e3d6000fd5b50929695505050505050565b604080518082019091526002815261037360f41b602082015260ff82111562003f955760405162461bcd60e51b81526004016200045a919062004a56565b50815166ff000000000000191660309190911b179052565b61089a806200524483390190565b803562003ea781620051f5565b805162003ea781620051f5565b60008083601f84011262003fe7578182fd5b5081356001600160401b0381111562003ffe578182fd5b60208301915083602080830285010111156200401957600080fd5b9250929050565b803562003ea7816200520e565b805162003ea7816200520e565b600082601f8301126200404b578081fd5b81356001600160401b03811115620040675762004067620051df565b6200407c601f8201601f191660200162004e4e565b81815284602083860101111562004091578283fd5b816020850160208301379081016020019190915292915050565b600060208284031215620040bd578081fd5b604051602081018181106001600160401b0382111715620040e257620040e2620051df565b6040529151825250919050565b80516001600160801b038116811462003ea757600080fd5b805164ffffffffff8116811462003ea757600080fd5b805162003ea7816200521d565b803562003ea78162005233565b805162003ea78162005233565b60006020828403121562004156578081fd5b81356200416381620051f5565b9392505050565b6000602082840312156200417c578081fd5b81516200416381620051f5565b600080604083850312156200419c578081fd5b8235620041a981620051f5565b91506020830135620041bb816200521d565b809150509250929050565b600080600060608486031215620041db578081fd5b8335620041e881620051f5565b92506020840135620041fa816200521d565b915060408401356200420c81620051f5565b809150509250925092565b6000806000606084860312156200422c578081fd5b83356200423981620051f5565b925060208401356200424b816200521d565b915060408401356200420c816200520e565b60008060006060848603121562004272578081fd5b83356200427f81620051f5565b9250602084013562004291816200521d565b929592945050506040919091013590565b600080600080600060a08688031215620042ba578283fd5b8535620042c781620051f5565b94506020860135620042d9816200521d565b94979496505050506040830135926060810135926080909101359150565b600080604083850312156200430a578182fd5b82356200431781620051f5565b91506020830135620041bb8162005233565b6000806000604084860312156200433e578081fd5b83356001600160401b0381111562004354578182fd5b620043628682870162003fd5565b90945092505060208401356200420c816200521d565b60008060008060006080868803121562004390578283fd5b85356001600160401b03811115620043a6578384fd5b620043b48882890162003fd5565b9096509450506020860135620043ca816200521d565b92506040860135620043dc81620051f5565b91506060860135620043ee81620051f5565b809150509295509295909350565b6000602082840312156200440e578081fd5b815162004163816200520e565b600080604083850312156200442e578182fd5b8235620041a9816200520e565b6000602082840312156200444d578081fd5b62003c0f8383620040ab565b60006102208083850312156200446d578182fd5b620044788162004e4e565b9050620044868484620040ab565b81526200449660208401620040ef565b6020820152620044a960408401620040ef565b6040820152620044bc60608401620040ef565b6060820152620044cf60808401620040ef565b6080820152620044e260a08401620040ef565b60a0820152620044f560c0840162004107565b60c08201526200450860e0840162003fc8565b60e08201526101006200451d81850162003fc8565b908201526101206200453184820162003fc8565b908201526101406200454584820162003fc8565b908201526101606200455984820162004137565b908201526101806200456d8482016200411d565b908201526101a083810151908201526101c06200458c8185016200402d565b908201526101e0620045a08482016200402d565b90820152610200928301519281019290925250919050565b60008060408385031215620045cb578182fd5b82356001600160401b03811115620045e1578283fd5b83016101008186031215620041a9578283fd5b6000806040838503121562004607578182fd5b82356001600160401b038111156200461d578283fd5b830160e08186031215620041a9578283fd5b60006020828403121562004641578081fd5b5051919050565b6000602082840312156200465a578081fd5b813562004163816200521d565b6001600160a01b03169052565b15159052565b60008284528282602086013780602084860101526020601f19601f85011685010190509392505050565b60008151808452620046be8160208601602086016200514b565b601f01601f19169290920160200192915050565b6001600160401b03169052565b60ff169052565b60008351620046fa8184602088016200514b565b835190830190620047108183602088016200514b565b01949350505050565b6001600160a01b0391909116815260200190565b6001600160a01b0393841681529183166020830152909116604082015260600190565b6001600160a01b03831681526040602082018190526000906200477690830184620046a4565b949350505050565b6001600160a01b039290921682526001600160401b0316602082015260400190565b6001600160a01b0393841681526001600160401b03929092166020830152909116604082015260600190565b6001600160a01b039390931683526001600160401b03919091166020830152604082015260600190565b6001600160a01b0392909216825260ff16602082015260400190565b901515815260200190565b91151582526001600160401b0316602082015260400190565b6001600160a01b038c811682528b811660208301528a81166040830152891660608201526080810188905261010060a082018190526000906200487d838201898b6200467a565b905082810360c0840152620048948187896200467a565b905082810360e0840152620048ab8185876200467a565b9e9d5050505050505050505050505050565b6001600160a01b038b811682528a81166020830152891660408201526060810188905260e060808201819052600090620048fb908301888a6200467a565b82810360a0840152620049108187896200467a565b905082810360c0840152620049278185876200467a565b9d9c50505050505050505050505050565b6001600160a01b038a81168252898116602083015288811660408301526001600160401b03881660608301528616608082015260ff851660a082015261012060c082018190526000906200498f83820187620046a4565b905082810360e0840152620049a58186620046a4565b9050828103610100840152620049bc8185620046a4565b9c9b505050505050505050505050565b6001600160a01b03898116825288811660208301526001600160401b03881660408301528616606082015260ff8516608082015261010060a0820181905260009062004a1b83820187620046a4565b905082810360c084015262004a318186620046a4565b905082810360e084015262004a478185620046a4565b9b9a5050505050505050505050565b60006020825262003c0f6020830184620046a4565b6020808252601c908201527f43616c6c6572206e6f7420676c6f62616c20564d45582061646d696e00000000604082015260600190565b6020808252602c908201527f53656e646572206973206e6f742077686974656c697374656420746f2061646460408201526b206e6577207472616e63686560a01b606082015260800190565b6020808252602e908201527f436f6e747261637420696e7374616e63652068617320616c726561647920626560408201526d195b881a5b9a5d1a585b1a5e995960921b606082015260800190565b600060a0825262004b5260a08301885162004667565b602087015162004b6660c084018262004667565b50604087015162004b7b60e084018262004667565b50606087015161010062004b9281850183620046df565b6080890151915061012062004baa8186018462004667565b60a08a0151925061014062004bc28187018562004667565b60c08b0151935061016062004bda8188018662004667565b60e08c0151945061018062004bf28189018762004667565b848d015195506102a09450846101a089015262004c14610340890187620046a4565b9550838d01519350609f196101c0818a890301818b015262004c378887620046a4565b9750848f015195506101e09450818a890301858b015262004c598887620046a4565b9750838f01519550818a8903016102008b015262004c788887620046a4565b9750828f01519550818a8903016102208b015262004c978887620046a4565b97506101a08f01519550818a8903016102408b015262004cb88887620046a4565b9750808f015195505061026092508089880301838a015262004cdb8786620046a4565b9650838e0151945061028093508089880301848a0152505062004cff8584620046a4565b94506102008c0151925062004d1784880184620046df565b6102208c01516102c08801526102408c0151935062004d3b6102e088018562004674565b8b0151925062004d5061030087018462004674565b8a01516103208601525090915062004d6e9050602083018762004667565b62004d7d604083018662004667565b62004d8c606083018562004667565b62004d9b6080830184620046d2565b9695505050505050565b90815260200190565b9283526020830191909152604082015260600190565b6001600160401b0391909116815260200190565b60ff91909116815260200190565b6000808335601e1984360301811262004dfd578283fd5b8301803591506001600160401b0382111562004e17578283fd5b6020019150368190038213156200401957600080fd5b6000823561029e1983360301811262004e44578182fd5b9190910192915050565b6040518181016001600160401b038111828210171562004e725762004e72620051df565b604052919050565b6000821982111562004e905762004e90620051b3565b500190565b60008262004ea75762004ea7620051c9565b500490565b600081600019048311821515161562004ec95762004ec9620051b3565b500290565b60008282101562004ee35762004ee3620051b3565b500390565b60006102a080833603121562004efc578182fd5b62004f078162004e4e565b905062004f148362003fbb565b815262004f246020840162003fbb565b602082015262004f376040840162003fbb565b604082015262004f4a606084016200412a565b606082015262004f5d6080840162003fbb565b608082015262004f7060a0840162003fbb565b60a082015262004f8360c0840162003fbb565b60c082015262004f9660e0840162003fbb565b60e0820152610100808401356001600160401b038082111562004fb7578485fd5b62004fc5368388016200403a565b8385015261012092508286013591508082111562004fe1578485fd5b62004fef368388016200403a565b838501526101409250828601359150808211156200500b578485fd5b62005019368388016200403a565b8385015261016092508286013591508082111562005035578485fd5b62005043368388016200403a565b838501526101809250828601359150808211156200505f578485fd5b6200506d368388016200403a565b838501526101a092508286013591508082111562005089578485fd5b62005097368388016200403a565b838501526101c0925082860135915080821115620050b3578485fd5b620050c1368388016200403a565b838501526101e0925082860135915080821115620050dd578485fd5b50620050ec368287016200403a565b828401525050610200620051028185016200412a565b9082015261022083810135908201526102406200512181850162004020565b908201526102606200513584820162004020565b9082015261028092830135928101929092525090565b60005b83811015620051685781810151838201526020016200514e565b8381111562005178576000848401525b50505050565b6000600019821415620051955762005195620051b3565b5060010190565b600082620051ae57620051ae620051c9565b500690565b634e487b7160e01b600052601160045260246000fd5b634e487b7160e01b600052601260045260246000fd5b634e487b7160e01b600052604160045260246000fd5b6001600160a01b03811681146200520b57600080fd5b50565b80151581146200520b57600080fd5b6001600160401b03811681146200520b57600080fd5b60ff811681146200520b57600080fdfe60a060405234801561001057600080fd5b5060405161089a38038061089a83398101604081905261002f91610044565b60601b6001600160601b031916608052610072565b600060208284031215610055578081fd5b81516001600160a01b038116811461006b578182fd5b9392505050565b60805160601c6107e86100b26000396000818160ff01528181610149015281816102020152818161034f01528181610378015261048a01526107e86000f3fe60806040526004361061004a5760003560e01c80633659cfe6146100545780634f1ef286146100745780635c60da1b14610087578063d1f57894146100b2578063f851a440146100c5575b6100526100da565b005b34801561006057600080fd5b5061005261006f36600461051a565b6100f4565b61005261008236600461053b565b61013e565b34801561009357600080fd5b5061009c6101f5565b6040516100a991906106b6565b60405180910390f35b6100526100c03660046105b9565b610242565b3480156100d157600080fd5b5061009c610342565b6100e261039c565b6100f26100ed6103a4565b6103c9565b565b336001600160a01b037f00000000000000000000000000000000000000000000000000000000000000001614156101335761012e816103ed565b61013b565b61013b6100da565b50565b336001600160a01b037f00000000000000000000000000000000000000000000000000000000000000001614156101e857610178836103ed565b6000836001600160a01b0316838360405161019492919061066d565b600060405180830381855af49150503d80600081146101cf576040519150601f19603f3d011682016040523d82523d6000602084013e6101d4565b606091505b50509050806101e257600080fd5b506101f0565b6101f06100da565b505050565b6000336001600160a01b037f0000000000000000000000000000000000000000000000000000000000000000161415610237576102306103a4565b905061023f565b61023f6100da565b90565b600061024c6103a4565b6001600160a01b03161461025f57600080fd5b61028a60017f360894a13ba1a3210667c828492db98dca3e2076cc3735a920a3ca505d382bbd610779565b7f360894a13ba1a3210667c828492db98dca3e2076cc3735a920a3ca505d382bbc146102c657634e487b7160e01b600052600160045260246000fd5b6102cf8261042d565b80511561033e576000826001600160a01b0316826040516102f0919061067d565b600060405180830381855af49150503d806000811461032b576040519150601f19603f3d011682016040523d82523d6000602084013e610330565b606091505b50509050806101f057600080fd5b5050565b6000336001600160a01b037f000000000000000000000000000000000000000000000000000000000000000016141561023757507f000000000000000000000000000000000000000000000000000000000000000061023f565b6100f261047f565b7f360894a13ba1a3210667c828492db98dca3e2076cc3735a920a3ca505d382bbc5490565b3660008037600080366000845af43d6000803e8080156103e8573d6000f35b3d6000fd5b6103f68161042d565b6040516001600160a01b038216907fbc7cd75a20ee27fd9adebab32041f755214dbc6bffa90cc0225b39da2e5c2d3b90600090a250565b610436816104d0565b61045b5760405162461bcd60e51b81526004016104529061071c565b60405180910390fd5b7f360894a13ba1a3210667c828492db98dca3e2076cc3735a920a3ca505d382bbc55565b336001600160a01b037f00000000000000000000000000000000000000000000000000000000000000001614156104c85760405162461bcd60e51b8152600401610452906106ca565b6100f26100f2565b600080826001600160a01b0316803b806020016040519081016040528181526000908060200190933c511190505b919050565b80356001600160a01b03811681146104fe57600080fd5b60006020828403121561052b578081fd5b61053482610503565b9392505050565b60008060006040848603121561054f578182fd5b61055884610503565b9250602084013567ffffffffffffffff80821115610574578384fd5b818601915086601f830112610587578384fd5b813581811115610595578485fd5b8760208285010111156105a6578485fd5b6020830194508093505050509250925092565b600080604083850312156105cb578182fd5b6105d483610503565b915060208084013567ffffffffffffffff808211156105f1578384fd5b818601915086601f830112610604578384fd5b8135818111156106165761061661079c565b604051601f8201601f19168101850183811182821017156106395761063961079c565b604052818152838201850189101561064f578586fd5b81858501868301378585838301015280955050505050509250929050565b6000828483379101908152919050565b60008251815b8181101561069d5760208186018101518583015201610683565b818111156106ab5782828501525b509190910192915050565b6001600160a01b0391909116815260200190565b60208082526032908201527f43616e6e6f742063616c6c2066616c6c6261636b2066756e6374696f6e20667260408201527137b6903a343290383937bc3c9030b236b4b760711b606082015260800190565b6020808252603b908201527f43616e6e6f742073657420612070726f787920696d706c656d656e746174696f60408201527f6e20746f2061206e6f6e2d636f6e747261637420616464726573730000000000606082015260800190565b60008282101561079757634e487b7160e01b81526011600452602481fd5b500390565b634e487b7160e01b600052604160045260246000fdfea2646970667358221220b6a7a859ff3946b0cc43269438fa4ca5171736127e5799775fffab8b5195306064736f6c63430008000033a2646970667358221220b59de8351c12bef06c05356a0e109ed0a463df64d315bf337fa43be104fe72c464736f6c63430008000033",
  "linkReferences": {},
  "deployedLinkReferences": {}
}