{
  "_format": "hh-sol-artifact-1",
  "contractName": "UiIncentiveDataProviderV2",
  "sourceName": "contracts/misc/UiIncentiveDataProviderV2.sol",
  "abi": [
    {
      "inputs": [],
      "stateMutability": "nonpayable",
      "type": "constructor"
    },
    {
      "inputs": [
        {
          "internalType": "contract ILendingPoolAddressesProvider",
          "name": "provider",
          "type": "address"
        },
        {
          "internalType": "address",
          "name": "user",
          "type": "address"
        }
      ],
      "name": "getFullReservesIncentiveData",
      "outputs": [
        {
          "components": [
            {
              "internalType": "address",
              "name": "underlyingAsset",
              "type": "address"
            },
            {
              "components": [
                {
                  "internalType": "uint256",
                  "name": "emissionPerSecond",
                  "type": "uint256"
                },
                {
                  "internalType": "uint256",
                  "name": "incentivesLastUpdateTimestamp",
                  "type": "uint256"
                },
                {
                  "internalType": "uint256",
                  "name": "tokenIncentivesIndex",
                  "type": "uint256"
                },
                {
                  "internalType": "uint256",
                  "name": "emissionEndTimestamp",
                  "type": "uint256"
                },
                {
                  "internalType": "address",
                  "name": "tokenAddress",
                  "type": "address"
                },
                {
                  "internalType": "address",
                  "name": "rewardTokenAddress",
                  "type": "address"
                },
                {
                  "internalType": "address",
                  "name": "incentiveControllerAddress",
                  "type": "address"
                },
                {
                  "internalType": "uint8",
                  "name": "rewardTokenDecimals",
                  "type": "uint8"
                },
                {
                  "internalType": "uint8",
                  "name": "precision",
                  "type": "uint8"
                }
              ],
              "internalType": "struct IUiIncentiveDataProviderV2.IncentiveData",
              "name": "aIncentiveData",
              "type": "tuple"
            },
            {
              "components": [
                {
                  "internalType": "uint256",
                  "name": "emissionPerSecond",
                  "type": "uint256"
                },
                {
                  "internalType": "uint256",
                  "name": "incentivesLastUpdateTimestamp",
                  "type": "uint256"
                },
                {
                  "internalType": "uint256",
                  "name": "tokenIncentivesIndex",
                  "type": "uint256"
                },
                {
                  "internalType": "uint256",
                  "name": "emissionEndTimestamp",
                  "type": "uint256"
                },
                {
                  "internalType": "address",
                  "name": "tokenAddress",
                  "type": "address"
                },
                {
                  "internalType": "address",
                  "name": "rewardTokenAddress",
                  "type": "address"
                },
                {
                  "internalType": "address",
                  "name": "incentiveControllerAddress",
                  "type": "address"
                },
                {
                  "internalType": "uint8",
                  "name": "rewardTokenDecimals",
                  "type": "uint8"
                },
                {
                  "internalType": "uint8",
                  "name": "precision",
                  "type": "uint8"
                }
              ],
              "internalType": "struct IUiIncentiveDataProviderV2.IncentiveData",
              "name": "vIncentiveData",
              "type": "tuple"
            },
            {
              "components": [
                {
                  "internalType": "uint256",
                  "name": "emissionPerSecond",
                  "type": "uint256"
                },
                {
                  "internalType": "uint256",
                  "name": "incentivesLastUpdateTimestamp",
                  "type": "uint256"
                },
                {
                  "internalType": "uint256",
                  "name": "tokenIncentivesIndex",
                  "type": "uint256"
                },
                {
                  "internalType": "uint256",
                  "name": "emissionEndTimestamp",
                  "type": "uint256"
                },
                {
                  "internalType": "address",
                  "name": "tokenAddress",
                  "type": "address"
                },
                {
                  "internalType": "address",
                  "name": "rewardTokenAddress",
                  "type": "address"
                },
                {
                  "internalType": "address",
                  "name": "incentiveControllerAddress",
                  "type": "address"
                },
                {
                  "internalType": "uint8",
                  "name": "rewardTokenDecimals",
                  "type": "uint8"
                },
                {
                  "internalType": "uint8",
                  "name": "precision",
                  "type": "uint8"
                }
              ],
              "internalType": "struct IUiIncentiveDataProviderV2.IncentiveData",
              "name": "sIncentiveData",
              "type": "tuple"
            }
          ],
          "internalType": "struct IUiIncentiveDataProviderV2.AggregatedReserveIncentiveData[]",
          "name": "",
          "type": "tuple[]"
        },
        {
          "components": [
            {
              "internalType": "address",
              "name": "underlyingAsset",
              "type": "address"
            },
            {
              "components": [
                {
                  "internalType": "uint256",
                  "name": "tokenincentivesUserIndex",
                  "type": "uint256"
                },
                {
                  "internalType": "uint256",
                  "name": "userUnclaimedRewards",
                  "type": "uint256"
                },
                {
                  "internalType": "address",
                  "name": "tokenAddress",
                  "type": "address"
                },
                {
                  "internalType": "address",
                  "name": "rewardTokenAddress",
                  "type": "address"
                },
                {
                  "internalType": "address",
                  "name": "incentiveControllerAddress",
                  "type": "address"
                },
                {
                  "internalType": "uint8",
                  "name": "rewardTokenDecimals",
                  "type": "uint8"
                }
              ],
              "internalType": "struct IUiIncentiveDataProviderV2.UserIncentiveData",
              "name": "aTokenIncentivesUserData",
              "type": "tuple"
            },
            {
              "components": [
                {
                  "internalType": "uint256",
                  "name": "tokenincentivesUserIndex",
                  "type": "uint256"
                },
                {
                  "internalType": "uint256",
                  "name": "userUnclaimedRewards",
                  "type": "uint256"
                },
                {
                  "internalType": "address",
                  "name": "tokenAddress",
                  "type": "address"
                },
                {
                  "internalType": "address",
                  "name": "rewardTokenAddress",
                  "type": "address"
                },
                {
                  "internalType": "address",
                  "name": "incentiveControllerAddress",
                  "type": "address"
                },
                {
                  "internalType": "uint8",
                  "name": "rewardTokenDecimals",
                  "type": "uint8"
                }
              ],
              "internalType": "struct IUiIncentiveDataProviderV2.UserIncentiveData",
              "name": "vTokenIncentivesUserData",
              "type": "tuple"
            },
            {
              "components": [
                {
                  "internalType": "uint256",
                  "name": "tokenincentivesUserIndex",
                  "type": "uint256"
                },
                {
                  "internalType": "uint256",
                  "name": "userUnclaimedRewards",
                  "type": "uint256"
                },
                {
                  "internalType": "address",
                  "name": "tokenAddress",
                  "type": "address"
                },
                {
                  "internalType": "address",
                  "name": "rewardTokenAddress",
                  "type": "address"
                },
                {
                  "internalType": "address",
                  "name": "incentiveControllerAddress",
                  "type": "address"
                },
                {
                  "internalType": "uint8",
                  "name": "rewardTokenDecimals",
                  "type": "uint8"
                }
              ],
              "internalType": "struct IUiIncentiveDataProviderV2.UserIncentiveData",
              "name": "sTokenIncentivesUserData",
              "type": "tuple"
            }
          ],
          "internalType": "struct IUiIncentiveDataProviderV2.UserReserveIncentiveData[]",
          "name": "",
          "type": "tuple[]"
        }
      ],
      "stateMutability": "view",
      "type": "function"
    },
    {
      "inputs": [
        {
          "internalType": "contract ILendingPoolAddressesProvider",
          "name": "provider",
          "type": "address"
        }
      ],
      "name": "getReservesIncentivesData",
      "outputs": [
        {
          "components": [
            {
              "internalType": "address",
              "name": "underlyingAsset",
              "type": "address"
            },
            {
              "components": [
                {
                  "internalType": "uint256",
                  "name": "emissionPerSecond",
                  "type": "uint256"
                },
                {
                  "internalType": "uint256",
                  "name": "incentivesLastUpdateTimestamp",
                  "type": "uint256"
                },
                {
                  "internalType": "uint256",
                  "name": "tokenIncentivesIndex",
                  "type": "uint256"
                },
                {
                  "internalType": "uint256",
                  "name": "emissionEndTimestamp",
                  "type": "uint256"
                },
                {
                  "internalType": "address",
                  "name": "tokenAddress",
                  "type": "address"
                },
                {
                  "internalType": "address",
                  "name": "rewardTokenAddress",
                  "type": "address"
                },
                {
                  "internalType": "address",
                  "name": "incentiveControllerAddress",
                  "type": "address"
                },
                {
                  "internalType": "uint8",
                  "name": "rewardTokenDecimals",
                  "type": "uint8"
                },
                {
                  "internalType": "uint8",
                  "name": "precision",
                  "type": "uint8"
                }
              ],
              "internalType": "struct IUiIncentiveDataProviderV2.IncentiveData",
              "name": "aIncentiveData",
              "type": "tuple"
            },
            {
              "components": [
                {
                  "internalType": "uint256",
                  "name": "emissionPerSecond",
                  "type": "uint256"
                },
                {
                  "internalType": "uint256",
                  "name": "incentivesLastUpdateTimestamp",
                  "type": "uint256"
                },
                {
                  "internalType": "uint256",
                  "name": "tokenIncentivesIndex",
                  "type": "uint256"
                },
                {
                  "internalType": "uint256",
                  "name": "emissionEndTimestamp",
                  "type": "uint256"
                },
                {
                  "internalType": "address",
                  "name": "tokenAddress",
                  "type": "address"
                },
                {
                  "internalType": "address",
                  "name": "rewardTokenAddress",
                  "type": "address"
                },
                {
                  "internalType": "address",
                  "name": "incentiveControllerAddress",
                  "type": "address"
                },
                {
                  "internalType": "uint8",
                  "name": "rewardTokenDecimals",
                  "type": "uint8"
                },
                {
                  "internalType": "uint8",
                  "name": "precision",
                  "type": "uint8"
                }
              ],
              "internalType": "struct IUiIncentiveDataProviderV2.IncentiveData",
              "name": "vIncentiveData",
              "type": "tuple"
            },
            {
              "components": [
                {
                  "internalType": "uint256",
                  "name": "emissionPerSecond",
                  "type": "uint256"
                },
                {
                  "internalType": "uint256",
                  "name": "incentivesLastUpdateTimestamp",
                  "type": "uint256"
                },
                {
                  "internalType": "uint256",
                  "name": "tokenIncentivesIndex",
                  "type": "uint256"
                },
                {
                  "internalType": "uint256",
                  "name": "emissionEndTimestamp",
                  "type": "uint256"
                },
                {
                  "internalType": "address",
                  "name": "tokenAddress",
                  "type": "address"
                },
                {
                  "internalType": "address",
                  "name": "rewardTokenAddress",
                  "type": "address"
                },
                {
                  "internalType": "address",
                  "name": "incentiveControllerAddress",
                  "type": "address"
                },
                {
                  "internalType": "uint8",
                  "name": "rewardTokenDecimals",
                  "type": "uint8"
                },
                {
                  "internalType": "uint8",
                  "name": "precision",
                  "type": "uint8"
                }
              ],
              "internalType": "struct IUiIncentiveDataProviderV2.IncentiveData",
              "name": "sIncentiveData",
              "type": "tuple"
            }
          ],
          "internalType": "struct IUiIncentiveDataProviderV2.AggregatedReserveIncentiveData[]",
          "name": "",
          "type": "tuple[]"
        }
      ],
      "stateMutability": "view",
      "type": "function"
    },
    {
      "inputs": [
        {
          "internalType": "contract ILendingPoolAddressesProvider",
          "name": "provider",
          "type": "address"
        },
        {
          "internalType": "address",
          "name": "user",
          "type": "address"
        }
      ],
      "name": "getUserReservesIncentivesData",
      "outputs": [
        {
          "components": [
            {
              "internalType": "address",
              "name": "underlyingAsset",
              "type": "address"
            },
            {
              "components": [
                {
                  "internalType": "uint256",
                  "name": "tokenincentivesUserIndex",
                  "type": "uint256"
                },
                {
                  "internalType": "uint256",
                  "name": "userUnclaimedRewards",
                  "type": "uint256"
                },
                {
                  "internalType": "address",
                  "name": "tokenAddress",
                  "type": "address"
                },
                {
                  "internalType": "address",
                  "name": "rewardTokenAddress",
                  "type": "address"
                },
                {
                  "internalType": "address",
                  "name": "incentiveControllerAddress",
                  "type": "address"
                },
                {
                  "internalType": "uint8",
                  "name": "rewardTokenDecimals",
                  "type": "uint8"
                }
              ],
              "internalType": "struct IUiIncentiveDataProviderV2.UserIncentiveData",
              "name": "aTokenIncentivesUserData",
              "type": "tuple"
            },
            {
              "components": [
                {
                  "internalType": "uint256",
                  "name": "tokenincentivesUserIndex",
                  "type": "uint256"
                },
                {
                  "internalType": "uint256",
                  "name": "userUnclaimedRewards",
                  "type": "uint256"
                },
                {
                  "internalType": "address",
                  "name": "tokenAddress",
                  "type": "address"
                },
                {
                  "internalType": "address",
                  "name": "rewardTokenAddress",
                  "type": "address"
                },
                {
                  "internalType": "address",
                  "name": "incentiveControllerAddress",
                  "type": "address"
                },
                {
                  "internalType": "uint8",
                  "name": "rewardTokenDecimals",
                  "type": "uint8"
                }
              ],
              "internalType": "struct IUiIncentiveDataProviderV2.UserIncentiveData",
              "name": "vTokenIncentivesUserData",
              "type": "tuple"
            },
            {
              "components": [
                {
                  "internalType": "uint256",
                  "name": "tokenincentivesUserIndex",
                  "type": "uint256"
                },
                {
                  "internalType": "uint256",
                  "name": "userUnclaimedRewards",
                  "type": "uint256"
                },
                {
                  "internalType": "address",
                  "name": "tokenAddress",
                  "type": "address"
                },
                {
                  "internalType": "address",
                  "name": "rewardTokenAddress",
                  "type": "address"
                },
                {
                  "internalType": "address",
                  "name": "incentiveControllerAddress",
                  "type": "address"
                },
                {
                  "internalType": "uint8",
                  "name": "rewardTokenDecimals",
                  "type": "uint8"
                }
              ],
              "internalType": "struct IUiIncentiveDataProviderV2.UserIncentiveData",
              "name": "sTokenIncentivesUserData",
              "type": "tuple"
            }
          ],
          "internalType": "struct IUiIncentiveDataProviderV2.UserReserveIncentiveData[]",
          "name": "",
          "type": "tuple[]"
        }
      ],
      "stateMutability": "view",
      "type": "function"
    }
  ],
  "bytecode": "0x608060405234801561001057600080fd5b50612934806100206000396000f3fe608060405234801561001057600080fd5b50600436106100415760003560e01c80634763753614610046578063799bdcf514610070578063976fafc514610090575b600080fd5b610059610054366004612427565b6100b0565b60405161006792919061281e565b60405180910390f35b61008361007e366004612427565b6100d1565b604051610067919061284c565b6100a361009e36600461240b565b6100e4565b604051610067919061280b565b6060806100bc846100f7565b6100c685856115ad565b915091509250929050565b60606100dd83836115ad565b9392505050565b60606100ef826100f7565b90505b919050565b60606000826001600160a01b0316630261bf8b6040518163ffffffff1660e01b815260040160206040518083038186803b15801561013457600080fd5b505afa158015610148573d6000803e3d6000fd5b505050506040513d601f19601f8201168201806040525081019061016c919061233c565b90506000816001600160a01b031663d1946dbc6040518163ffffffff1660e01b815260040160006040518083038186803b1580156101a957600080fd5b505afa1580156101bd573d6000803e3d6000fd5b505050506040513d6000823e601f3d908101601f191682016040526101e59190810190612358565b90506000815167ffffffffffffffff81111561021157634e487b7160e01b600052604160045260246000fd5b60405190808252806020026020018201604052801561024a57816020015b6102376121b7565b81526020019060019003908161022f5790505b50905060005b82518110156115a457600082828151811061027b57634e487b7160e01b600052603260045260246000fd5b602002602001015190508382815181106102a557634e487b7160e01b600052603260045260246000fd5b60209081029190910101516001600160a01b0316815260006102c86003846128b0565b90506000866001600160a01b0316633629e3cd8786815181106102fb57634e487b7160e01b600052603260045260246000fd5b6020026020010151846040518363ffffffff1660e01b81526004016103219291906127ef565b6101a06040518083038186803b15801561033a57600080fd5b505afa15801561034e573d6000803e3d6000fd5b505050506040513d601f19601f82011682018060405250810190610372919061245f565b90508160ff1681610180015160ff161461039c57634e487b7160e01b600052600160045260246000fd5b8060e001516001600160a01b03166375d264136040518163ffffffff1660e01b815260040160206040518083038186803b1580156103d957600080fd5b505afa925050508015610409575060408051601f3d908101601f191682019092526104069181019061233c565b60015b610443573d808015610437576040519150601f19603f3d011682016040523d82523d6000602084013e61043c565b606091505b5050610994565b6001600160a01b03811615610992576000816001600160a01b03166399248ea76040518163ffffffff1660e01b815260040160206040518083038186803b15801561048d57600080fd5b505afa1580156104a1573d6000803e3d6000fd5b505050506040513d601f19601f820116820180604052508101906104c5919061233c565b60e0840151604051631652e7b760e01b81529192506001600160a01b03841691631652e7b7916104f7916004016127c1565b60606040518083038186803b15801561050f57600080fd5b505afa92505050801561053f575060408051601f3d908101601f1916820190925261053c918101906125b4565b60015b6107d3573d80801561056d576040519150601f19603f3d011682016040523d82523d6000602084013e610572565b606091505b506000806000856001600160a01b031663f11b81888860e001516040518263ffffffff1660e01b81526004016105a891906127c1565b60606040518083038186803b1580156105c057600080fd5b505afa1580156105d4573d6000803e3d6000fd5b505050506040513d601f19601f820116820180604052508101906105f89190612561565b92506001600160801b031692506001600160801b03169250604051806101200160405280848152602001838152602001828152602001876001600160a01b031663919cd40f6040518163ffffffff1660e01b815260040160206040518083038186803b15801561066757600080fd5b505afa15801561067b573d6000803e3d6000fd5b505050506040513d601f19601f8201168201806040525081019061069f919061259c565b81526020018860e001516001600160a01b03168152602001866001600160a01b03168152602001876001600160a01b03168152602001866001600160a01b031663313ce5676040518163ffffffff1660e01b815260040160206040518083038186803b15801561070e57600080fd5b505afa158015610722573d6000803e3d6000fd5b505050506040513d601f19601f8201168201806040525081019061074691906125e1565b60ff168152602001876001600160a01b031663aaf5eb686040518163ffffffff1660e01b815260040160206040518083038186803b15801561078757600080fd5b505afa15801561079b573d6000803e3d6000fd5b505050506040513d601f19601f820116820180604052508101906107bf91906125e1565b60ff16905260208a01525061099092505050565b604051806101200160405280838152602001828152602001848152602001866001600160a01b031663919cd40f6040518163ffffffff1660e01b815260040160206040518083038186803b15801561082a57600080fd5b505afa15801561083e573d6000803e3d6000fd5b505050506040513d601f19601f82011682018060405250810190610862919061259c565b81526020018760e001516001600160a01b03168152602001856001600160a01b03168152602001866001600160a01b03168152602001856001600160a01b031663313ce5676040518163ffffffff1660e01b815260040160206040518083038186803b1580156108d157600080fd5b505afa1580156108e5573d6000803e3d6000fd5b505050506040513d601f19601f8201168201806040525081019061090991906125e1565b60ff168152602001866001600160a01b031663aaf5eb686040518163ffffffff1660e01b815260040160206040518083038186803b15801561094a57600080fd5b505afa15801561095e573d6000803e3d6000fd5b505050506040513d601f19601f8201168201806040525081019061098291906125e1565b60ff16905260208901525050505b505b505b8061010001516001600160a01b03166375d264136040518163ffffffff1660e01b815260040160206040518083038186803b1580156109d257600080fd5b505afa925050508015610a02575060408051601f3d908101601f191682019092526109ff9181019061233c565b60015b610a3c573d808015610a30576040519150601f19603f3d011682016040523d82523d6000602084013e610a35565b606091505b5050610f91565b6001600160a01b03811615610f8f576000816001600160a01b03166399248ea76040518163ffffffff1660e01b815260040160206040518083038186803b158015610a8657600080fd5b505afa158015610a9a573d6000803e3d6000fd5b505050506040513d601f19601f82011682018060405250810190610abe919061233c565b610100840151604051631652e7b760e01b81529192506001600160a01b03841691631652e7b791610af1916004016127c1565b60606040518083038186803b158015610b0957600080fd5b505afa925050508015610b39575060408051601f3d908101601f19168201909252610b36918101906125b4565b60015b610dcf573d808015610b67576040519150601f19603f3d011682016040523d82523d6000602084013e610b6c565b606091505b506000806000856001600160a01b031663f11b81888861010001516040518263ffffffff1660e01b8152600401610ba391906127c1565b60606040518083038186803b158015610bbb57600080fd5b505afa158015610bcf573d6000803e3d6000fd5b505050506040513d601f19601f82011682018060405250810190610bf39190612561565b92506001600160801b031692506001600160801b03169250604051806101200160405280848152602001838152602001828152602001876001600160a01b031663919cd40f6040518163ffffffff1660e01b815260040160206040518083038186803b158015610c6257600080fd5b505afa158015610c76573d6000803e3d6000fd5b505050506040513d601f19601f82011682018060405250810190610c9a919061259c565b81526020018861010001516001600160a01b03168152602001866001600160a01b03168152602001876001600160a01b03168152602001866001600160a01b031663313ce5676040518163ffffffff1660e01b815260040160206040518083038186803b158015610d0a57600080fd5b505afa158015610d1e573d6000803e3d6000fd5b505050506040513d601f19601f82011682018060405250810190610d4291906125e1565b60ff168152602001876001600160a01b031663aaf5eb686040518163ffffffff1660e01b815260040160206040518083038186803b158015610d8357600080fd5b505afa158015610d97573d6000803e3d6000fd5b505050506040513d601f19601f82011682018060405250810190610dbb91906125e1565b60ff16905260608a015250610f8d92505050565b604051806101200160405280838152602001828152602001848152602001866001600160a01b031663919cd40f6040518163ffffffff1660e01b815260040160206040518083038186803b158015610e2657600080fd5b505afa158015610e3a573d6000803e3d6000fd5b505050506040513d601f19601f82011682018060405250810190610e5e919061259c565b81526020018761010001516001600160a01b03168152602001856001600160a01b03168152602001866001600160a01b03168152602001856001600160a01b031663313ce5676040518163ffffffff1660e01b815260040160206040518083038186803b158015610ece57600080fd5b505afa158015610ee2573d6000803e3d6000fd5b505050506040513d601f19601f82011682018060405250810190610f0691906125e1565b60ff168152602001866001600160a01b031663aaf5eb686040518163ffffffff1660e01b815260040160206040518083038186803b158015610f4757600080fd5b505afa158015610f5b573d6000803e3d6000fd5b505050506040513d601f19601f82011682018060405250810190610f7f91906125e1565b60ff16905260608901525050505b505b505b8061012001516001600160a01b03166375d264136040518163ffffffff1660e01b815260040160206040518083038186803b158015610fcf57600080fd5b505afa925050508015610fff575060408051601f3d908101601f19168201909252610ffc9181019061233c565b60015b611039573d80801561102d576040519150601f19603f3d011682016040523d82523d6000602084013e611032565b606091505b505061158e565b6001600160a01b0381161561158c576000816001600160a01b03166399248ea76040518163ffffffff1660e01b815260040160206040518083038186803b15801561108357600080fd5b505afa158015611097573d6000803e3d6000fd5b505050506040513d601f19601f820116820180604052508101906110bb919061233c565b610120840151604051631652e7b760e01b81529192506001600160a01b03841691631652e7b7916110ee916004016127c1565b60606040518083038186803b15801561110657600080fd5b505afa925050508015611136575060408051601f3d908101601f19168201909252611133918101906125b4565b60015b6113cc573d808015611164576040519150601f19603f3d011682016040523d82523d6000602084013e611169565b606091505b506000806000856001600160a01b031663f11b81888861012001516040518263ffffffff1660e01b81526004016111a091906127c1565b60606040518083038186803b1580156111b857600080fd5b505afa1580156111cc573d6000803e3d6000fd5b505050506040513d601f19601f820116820180604052508101906111f09190612561565b92506001600160801b031692506001600160801b03169250604051806101200160405280848152602001838152602001828152602001876001600160a01b031663919cd40f6040518163ffffffff1660e01b815260040160206040518083038186803b15801561125f57600080fd5b505afa158015611273573d6000803e3d6000fd5b505050506040513d601f19601f82011682018060405250810190611297919061259c565b81526020018861012001516001600160a01b03168152602001866001600160a01b03168152602001876001600160a01b03168152602001866001600160a01b031663313ce5676040518163ffffffff1660e01b815260040160206040518083038186803b15801561130757600080fd5b505afa15801561131b573d6000803e3d6000fd5b505050506040513d601f19601f8201168201806040525081019061133f91906125e1565b60ff168152602001876001600160a01b031663aaf5eb686040518163ffffffff1660e01b815260040160206040518083038186803b15801561138057600080fd5b505afa158015611394573d6000803e3d6000fd5b505050506040513d601f19601f820116820180604052508101906113b891906125e1565b60ff16905260408a01525061158a92505050565b604051806101200160405280838152602001828152602001848152602001866001600160a01b031663919cd40f6040518163ffffffff1660e01b815260040160206040518083038186803b15801561142357600080fd5b505afa158015611437573d6000803e3d6000fd5b505050506040513d601f19601f8201168201806040525081019061145b919061259c565b81526020018761012001516001600160a01b03168152602001856001600160a01b03168152602001866001600160a01b03168152602001856001600160a01b031663313ce5676040518163ffffffff1660e01b815260040160206040518083038186803b1580156114cb57600080fd5b505afa1580156114df573d6000803e3d6000fd5b505050506040513d601f19601f8201168201806040525081019061150391906125e1565b60ff168152602001866001600160a01b031663aaf5eb686040518163ffffffff1660e01b815260040160206040518083038186803b15801561154457600080fd5b505afa158015611558573d6000803e3d6000fd5b505050506040513d601f19601f8201168201806040525081019061157c91906125e1565b60ff16905260408901525050505b505b505b505050808061159c90612889565b915050610250565b50949350505050565b60606000836001600160a01b0316630261bf8b6040518163ffffffff1660e01b815260040160206040518083038186803b1580156115ea57600080fd5b505afa1580156115fe573d6000803e3d6000fd5b505050506040513d601f19601f82011682018060405250810190611622919061233c565b90506000816001600160a01b031663d1946dbc6040518163ffffffff1660e01b815260040160006040518083038186803b15801561165f57600080fd5b505afa158015611673573d6000803e3d6000fd5b505050506040513d6000823e601f3d908101601f1916820160405261169b9190810190612358565b905060006001600160a01b0385166116b45760006116b7565b81515b67ffffffffffffffff8111156116dd57634e487b7160e01b600052604160045260246000fd5b60405190808252806020026020018201604052801561171657816020015b6117036121f9565b8152602001906001900390816116fb5790505b50905060005b82518110156121ad5760006117326003836128b0565b90506000856001600160a01b0316633629e3cd86858151811061176557634e487b7160e01b600052603260045260246000fd5b6020026020010151846040518363ffffffff1660e01b815260040161178b9291906127ef565b6101a06040518083038186803b1580156117a457600080fd5b505afa1580156117b8573d6000803e3d6000fd5b505050506040513d601f19601f820116820180604052508101906117dc919061245f565b90508160ff1681610180015160ff161461180657634e487b7160e01b600052600160045260246000fd5b84838151811061182657634e487b7160e01b600052603260045260246000fd5b602002602001015184848151811061184e57634e487b7160e01b600052603260045260246000fd5b60209081029190910101516001600160a01b03909116905261186e612232565b8160e001516001600160a01b03166375d264136040518163ffffffff1660e01b815260040160206040518083038186803b1580156118ab57600080fd5b505afa9250505080156118db575060408051601f3d908101601f191682019092526118d89181019061233c565b60015b611915573d808015611909576040519150601f19603f3d011682016040523d82523d6000602084013e61190e565b606091505b5050611b42565b6001600160a01b03811615611b40576000816001600160a01b03166399248ea76040518163ffffffff1660e01b815260040160206040518083038186803b15801561195f57600080fd5b505afa158015611973573d6000803e3d6000fd5b505050506040513d601f19601f82011682018060405250810190611997919061233c565b60e0850151604051630cdcfb9360e21b81529192506001600160a01b03841691633373ee4c916119cc918f91906004016127d5565b60206040518083038186803b1580156119e457600080fd5b505afa1580156119f8573d6000803e3d6000fd5b505050506040513d601f19601f82011682018060405250810190611a1c919061259c565b8352604051630cc7d40f60e11b81526001600160a01b0383169063198fa81e90611a4a908e906004016127c1565b60206040518083038186803b158015611a6257600080fd5b505afa158015611a76573d6000803e3d6000fd5b505050506040513d601f19601f82011682018060405250810190611a9a919061259c565b60208085019190915260e08501516001600160a01b03908116604080870191909152838216606087018190529185166080870152805163313ce56760e01b81529051919263313ce56792600480840193829003018186803b158015611afe57600080fd5b505afa158015611b12573d6000803e3d6000fd5b505050506040513d601f19601f82011682018060405250810190611b3691906125e1565b60ff1660a0840152505b505b80858581518110611b6357634e487b7160e01b600052603260045260246000fd5b602002602001015160200181905250611b7a612232565b8261012001516001600160a01b03166375d264136040518163ffffffff1660e01b815260040160206040518083038186803b158015611bb857600080fd5b505afa925050508015611be8575060408051601f3d908101601f19168201909252611be59181019061233c565b60015b611c22573d808015611c16576040519150601f19603f3d011682016040523d82523d6000602084013e611c1b565b606091505b5050611e50565b6001600160a01b03811615611e4e576000816001600160a01b03166399248ea76040518163ffffffff1660e01b815260040160206040518083038186803b158015611c6c57600080fd5b505afa158015611c80573d6000803e3d6000fd5b505050506040513d601f19601f82011682018060405250810190611ca4919061233c565b9050816001600160a01b0316633373ee4c8d8761012001516040518363ffffffff1660e01b8152600401611cd99291906127d5565b60206040518083038186803b158015611cf157600080fd5b505afa158015611d05573d6000803e3d6000fd5b505050506040513d601f19601f82011682018060405250810190611d29919061259c565b8352604051630cc7d40f60e11b81526001600160a01b0383169063198fa81e90611d57908f906004016127c1565b60206040518083038186803b158015611d6f57600080fd5b505afa158015611d83573d6000803e3d6000fd5b505050506040513d601f19601f82011682018060405250810190611da7919061259c565b6020808501919091526101208601516001600160a01b03908116604080870191909152838216606087018190529185166080870152805163313ce56760e01b81529051919263313ce56792600480840193829003018186803b158015611e0c57600080fd5b505afa158015611e20573d6000803e3d6000fd5b505050506040513d601f19601f82011682018060405250810190611e4491906125e1565b60ff1660a0840152505b505b80868681518110611e7157634e487b7160e01b600052603260045260246000fd5b602002602001015160400181905250611e88612232565b8361010001516001600160a01b03166375d264136040518163ffffffff1660e01b815260040160206040518083038186803b158015611ec657600080fd5b505afa925050508015611ef6575060408051601f3d908101601f19168201909252611ef39181019061233c565b60015b611f30573d808015611f24576040519150601f19603f3d011682016040523d82523d6000602084013e611f29565b606091505b5050612165565b6001600160a01b03811615612163576000816001600160a01b03166399248ea76040518163ffffffff1660e01b815260040160206040518083038186803b158015611f7a57600080fd5b505afa158015611f8e573d6000803e3d6000fd5b505050506040513d601f19601f82011682018060405250810190611fb2919061233c565b9050816001600160a01b0316633373ee4c8e8861010001516040518363ffffffff1660e01b8152600401611fe79291906127d5565b60206040518083038186803b158015611fff57600080fd5b505afa158015612013573d6000803e3d6000fd5b505050506040513d601f19601f82011682018060405250810190612037919061259c565b836000018181525050816001600160a01b031663198fa81e8e6040518263ffffffff1660e01b815260040161206c91906127c1565b60206040518083038186803b15801561208457600080fd5b505afa158015612098573d6000803e3d6000fd5b505050506040513d601f19601f820116820180604052508101906120bc919061259c565b6020808501919091526101008701516001600160a01b03908116604080870191909152838216606087018190529185166080870152805163313ce56760e01b81529051919263313ce56792600480840193829003018186803b15801561212157600080fd5b505afa158015612135573d6000803e3d6000fd5b505050506040513d601f19601f8201168201806040525081019061215991906125e1565b60ff1660a0840152505b505b8087878151811061218657634e487b7160e01b600052603260045260246000fd5b602002602001015160600181905250505050505080806121a590612889565b91505061171c565b5095945050505050565b604051806080016040528060006001600160a01b031681526020016121da612267565b81526020016121e7612267565b81526020016121f4612267565b905290565b604051806080016040528060006001600160a01b0316815260200161221c612232565b8152602001612229612232565b81526020016121f45b6040805160c081018252600080825260208201819052918101829052606081018290526080810182905260a081019190915290565b6040805161012081018252600080825260208201819052918101829052606081018290526080810182905260a0810182905260c0810182905260e0810182905261010081019190915290565b80516100f2816128e6565b6000602082840312156122cf578081fd5b6040516020810181811067ffffffffffffffff821117156122f2576122f26128d0565b6040529151825250919050565b80516001600160801b03811681146100f257600080fd5b805164ffffffffff811681146100f257600080fd5b805160ff811681146100f257600080fd5b60006020828403121561234d578081fd5b81516100dd816128e6565b6000602080838503121561236a578182fd5b825167ffffffffffffffff80821115612381578384fd5b818501915085601f830112612394578384fd5b8151818111156123a6576123a66128d0565b83810291506123b684830161285f565b8181528481019084860184860187018a10156123d0578788fd5b8795505b838610156123fe57805194506123e9856128e6565b848352600195909501949186019186016123d4565b5098975050505050505050565b60006020828403121561241c578081fd5b81356100dd816128e6565b60008060408385031215612439578081fd5b8235612444816128e6565b91506020830135612454816128e6565b809150509250929050565b60006101a0808385031215612472578182fd5b61247b8161285f565b905061248784846122be565b8152612495602084016122ff565b60208201526124a6604084016122ff565b60408201526124b7606084016122ff565b60608201526124c8608084016122ff565b60808201526124d960a084016122ff565b60a08201526124ea60c08401612316565b60c08201526124fb60e084016122b3565b60e082015261010061250e8185016122b3565b908201526101206125208482016122b3565b908201526101406125328482016122b3565b9082015261016061254484820161232b565b9082015261018061255684820161232b565b908201529392505050565b600080600060608486031215612575578081fd5b61257e846122ff565b925061258c602085016122ff565b9150604084015190509250925092565b6000602082840312156125ad578081fd5b5051919050565b6000806000606084860312156125c8578283fd5b8351925060208401519150604084015190509250925092565b6000602082840312156125f2578081fd5b6100dd8261232b565b6000815180845260208085019450808401835b8381101561267157815180516001600160a01b0316885283810151612635858a01826126f1565b5060408101516126496101408a01826126f1565b506060015161265c6102608901826126f1565b5061038096909601959082019060010161260e565b509495945050505050565b6000815180845260208085019450808401835b8381101561267157815180516001600160a01b03168852838101516126b6858a018261276d565b5060408101516126c960e08a018261276d565b50606001516126dc6101a089018261276d565b5061026096909601959082019060010161268f565b80518252602081015160208301526040810151604083015260608101516060830152608081015160018060a01b0380821660808501528060a08401511660a08501528060c08401511660c0850152505060e081015161275360e08401826127ba565b5061010080820151612767828501826127ba565b50505050565b8051825260208101516020830152604081015160018060a01b038082166040850152806060840151166060850152806080840151166080850152505060ff60a08201511660a08301525050565b60ff169052565b6001600160a01b0391909116815260200190565b6001600160a01b0392831681529116602082015260400190565b6001600160a01b0392909216825260ff16602082015260400190565b6000602082526100dd60208301846125fb565b60006040825261283160408301856125fb565b8281036020840152612843818561267c565b95945050505050565b6000602082526100dd602083018461267c565b60405181810167ffffffffffffffff81118282101715612881576128816128d0565b604052919050565b60006000198214156128a957634e487b7160e01b81526011600452602481fd5b5060010190565b6000826128cb57634e487b7160e01b81526012600452602481fd5b500690565b634e487b7160e01b600052604160045260246000fd5b6001600160a01b03811681146128fb57600080fd5b5056fea26469706673582212204d5b44959dddbf71c9316cf14bcfb3dc3b404c83817a530635b2150d840b27a764736f6c63430008000033",
  "linkReferences": {},
  "deployedLinkReferences": {}
}