{
  "_format": "hh-sol-artifact-1",
  "contractName": "UiIncentiveDataProviderV2",
  "sourceName": "contracts/misc/UiIncentiveDataProviderV2.sol",
  "abi": [
    {
      "inputs": [],
      "stateMutability": "nonpayable",
      "type": "constructor"
    },
    {
      "inputs": [
        {
          "internalType": "contract ILendingPoolAddressesProvider",
          "name": "provider",
          "type": "address"
        },
        {
          "internalType": "uint64",
          "name": "trancheId",
          "type": "uint64"
        },
        {
          "internalType": "address",
          "name": "user",
          "type": "address"
        }
      ],
      "name": "getFullReservesIncentiveData",
      "outputs": [
        {
          "components": [
            {
              "internalType": "address",
              "name": "underlyingAsset",
              "type": "address"
            },
            {
              "components": [
                {
                  "internalType": "uint256",
                  "name": "emissionPerSecond",
                  "type": "uint256"
                },
                {
                  "internalType": "uint256",
                  "name": "incentivesLastUpdateTimestamp",
                  "type": "uint256"
                },
                {
                  "internalType": "uint256",
                  "name": "tokenIncentivesIndex",
                  "type": "uint256"
                },
                {
                  "internalType": "uint256",
                  "name": "emissionEndTimestamp",
                  "type": "uint256"
                },
                {
                  "internalType": "address",
                  "name": "tokenAddress",
                  "type": "address"
                },
                {
                  "internalType": "address",
                  "name": "rewardTokenAddress",
                  "type": "address"
                },
                {
                  "internalType": "address",
                  "name": "incentiveControllerAddress",
                  "type": "address"
                },
                {
                  "internalType": "uint8",
                  "name": "rewardTokenDecimals",
                  "type": "uint8"
                },
                {
                  "internalType": "uint8",
                  "name": "precision",
                  "type": "uint8"
                }
              ],
              "internalType": "struct IUiIncentiveDataProviderV2.IncentiveData",
              "name": "aIncentiveData",
              "type": "tuple"
            },
            {
              "components": [
                {
                  "internalType": "uint256",
                  "name": "emissionPerSecond",
                  "type": "uint256"
                },
                {
                  "internalType": "uint256",
                  "name": "incentivesLastUpdateTimestamp",
                  "type": "uint256"
                },
                {
                  "internalType": "uint256",
                  "name": "tokenIncentivesIndex",
                  "type": "uint256"
                },
                {
                  "internalType": "uint256",
                  "name": "emissionEndTimestamp",
                  "type": "uint256"
                },
                {
                  "internalType": "address",
                  "name": "tokenAddress",
                  "type": "address"
                },
                {
                  "internalType": "address",
                  "name": "rewardTokenAddress",
                  "type": "address"
                },
                {
                  "internalType": "address",
                  "name": "incentiveControllerAddress",
                  "type": "address"
                },
                {
                  "internalType": "uint8",
                  "name": "rewardTokenDecimals",
                  "type": "uint8"
                },
                {
                  "internalType": "uint8",
                  "name": "precision",
                  "type": "uint8"
                }
              ],
              "internalType": "struct IUiIncentiveDataProviderV2.IncentiveData",
              "name": "vIncentiveData",
              "type": "tuple"
            },
            {
              "components": [
                {
                  "internalType": "uint256",
                  "name": "emissionPerSecond",
                  "type": "uint256"
                },
                {
                  "internalType": "uint256",
                  "name": "incentivesLastUpdateTimestamp",
                  "type": "uint256"
                },
                {
                  "internalType": "uint256",
                  "name": "tokenIncentivesIndex",
                  "type": "uint256"
                },
                {
                  "internalType": "uint256",
                  "name": "emissionEndTimestamp",
                  "type": "uint256"
                },
                {
                  "internalType": "address",
                  "name": "tokenAddress",
                  "type": "address"
                },
                {
                  "internalType": "address",
                  "name": "rewardTokenAddress",
                  "type": "address"
                },
                {
                  "internalType": "address",
                  "name": "incentiveControllerAddress",
                  "type": "address"
                },
                {
                  "internalType": "uint8",
                  "name": "rewardTokenDecimals",
                  "type": "uint8"
                },
                {
                  "internalType": "uint8",
                  "name": "precision",
                  "type": "uint8"
                }
              ],
              "internalType": "struct IUiIncentiveDataProviderV2.IncentiveData",
              "name": "sIncentiveData",
              "type": "tuple"
            }
          ],
          "internalType": "struct IUiIncentiveDataProviderV2.AggregatedReserveIncentiveData[]",
          "name": "",
          "type": "tuple[]"
        },
        {
          "components": [
            {
              "internalType": "address",
              "name": "underlyingAsset",
              "type": "address"
            },
            {
              "components": [
                {
                  "internalType": "uint256",
                  "name": "tokenincentivesUserIndex",
                  "type": "uint256"
                },
                {
                  "internalType": "uint256",
                  "name": "userUnclaimedRewards",
                  "type": "uint256"
                },
                {
                  "internalType": "address",
                  "name": "tokenAddress",
                  "type": "address"
                },
                {
                  "internalType": "address",
                  "name": "rewardTokenAddress",
                  "type": "address"
                },
                {
                  "internalType": "address",
                  "name": "incentiveControllerAddress",
                  "type": "address"
                },
                {
                  "internalType": "uint8",
                  "name": "rewardTokenDecimals",
                  "type": "uint8"
                }
              ],
              "internalType": "struct IUiIncentiveDataProviderV2.UserIncentiveData",
              "name": "aTokenIncentivesUserData",
              "type": "tuple"
            },
            {
              "components": [
                {
                  "internalType": "uint256",
                  "name": "tokenincentivesUserIndex",
                  "type": "uint256"
                },
                {
                  "internalType": "uint256",
                  "name": "userUnclaimedRewards",
                  "type": "uint256"
                },
                {
                  "internalType": "address",
                  "name": "tokenAddress",
                  "type": "address"
                },
                {
                  "internalType": "address",
                  "name": "rewardTokenAddress",
                  "type": "address"
                },
                {
                  "internalType": "address",
                  "name": "incentiveControllerAddress",
                  "type": "address"
                },
                {
                  "internalType": "uint8",
                  "name": "rewardTokenDecimals",
                  "type": "uint8"
                }
              ],
              "internalType": "struct IUiIncentiveDataProviderV2.UserIncentiveData",
              "name": "vTokenIncentivesUserData",
              "type": "tuple"
            },
            {
              "components": [
                {
                  "internalType": "uint256",
                  "name": "tokenincentivesUserIndex",
                  "type": "uint256"
                },
                {
                  "internalType": "uint256",
                  "name": "userUnclaimedRewards",
                  "type": "uint256"
                },
                {
                  "internalType": "address",
                  "name": "tokenAddress",
                  "type": "address"
                },
                {
                  "internalType": "address",
                  "name": "rewardTokenAddress",
                  "type": "address"
                },
                {
                  "internalType": "address",
                  "name": "incentiveControllerAddress",
                  "type": "address"
                },
                {
                  "internalType": "uint8",
                  "name": "rewardTokenDecimals",
                  "type": "uint8"
                }
              ],
              "internalType": "struct IUiIncentiveDataProviderV2.UserIncentiveData",
              "name": "sTokenIncentivesUserData",
              "type": "tuple"
            }
          ],
          "internalType": "struct IUiIncentiveDataProviderV2.UserReserveIncentiveData[]",
          "name": "",
          "type": "tuple[]"
        }
      ],
      "stateMutability": "view",
      "type": "function"
    },
    {
      "inputs": [
        {
          "internalType": "contract ILendingPoolAddressesProvider",
          "name": "provider",
          "type": "address"
        },
        {
          "internalType": "uint64",
          "name": "trancheId",
          "type": "uint64"
        }
      ],
      "name": "getReservesIncentivesData",
      "outputs": [
        {
          "components": [
            {
              "internalType": "address",
              "name": "underlyingAsset",
              "type": "address"
            },
            {
              "components": [
                {
                  "internalType": "uint256",
                  "name": "emissionPerSecond",
                  "type": "uint256"
                },
                {
                  "internalType": "uint256",
                  "name": "incentivesLastUpdateTimestamp",
                  "type": "uint256"
                },
                {
                  "internalType": "uint256",
                  "name": "tokenIncentivesIndex",
                  "type": "uint256"
                },
                {
                  "internalType": "uint256",
                  "name": "emissionEndTimestamp",
                  "type": "uint256"
                },
                {
                  "internalType": "address",
                  "name": "tokenAddress",
                  "type": "address"
                },
                {
                  "internalType": "address",
                  "name": "rewardTokenAddress",
                  "type": "address"
                },
                {
                  "internalType": "address",
                  "name": "incentiveControllerAddress",
                  "type": "address"
                },
                {
                  "internalType": "uint8",
                  "name": "rewardTokenDecimals",
                  "type": "uint8"
                },
                {
                  "internalType": "uint8",
                  "name": "precision",
                  "type": "uint8"
                }
              ],
              "internalType": "struct IUiIncentiveDataProviderV2.IncentiveData",
              "name": "aIncentiveData",
              "type": "tuple"
            },
            {
              "components": [
                {
                  "internalType": "uint256",
                  "name": "emissionPerSecond",
                  "type": "uint256"
                },
                {
                  "internalType": "uint256",
                  "name": "incentivesLastUpdateTimestamp",
                  "type": "uint256"
                },
                {
                  "internalType": "uint256",
                  "name": "tokenIncentivesIndex",
                  "type": "uint256"
                },
                {
                  "internalType": "uint256",
                  "name": "emissionEndTimestamp",
                  "type": "uint256"
                },
                {
                  "internalType": "address",
                  "name": "tokenAddress",
                  "type": "address"
                },
                {
                  "internalType": "address",
                  "name": "rewardTokenAddress",
                  "type": "address"
                },
                {
                  "internalType": "address",
                  "name": "incentiveControllerAddress",
                  "type": "address"
                },
                {
                  "internalType": "uint8",
                  "name": "rewardTokenDecimals",
                  "type": "uint8"
                },
                {
                  "internalType": "uint8",
                  "name": "precision",
                  "type": "uint8"
                }
              ],
              "internalType": "struct IUiIncentiveDataProviderV2.IncentiveData",
              "name": "vIncentiveData",
              "type": "tuple"
            },
            {
              "components": [
                {
                  "internalType": "uint256",
                  "name": "emissionPerSecond",
                  "type": "uint256"
                },
                {
                  "internalType": "uint256",
                  "name": "incentivesLastUpdateTimestamp",
                  "type": "uint256"
                },
                {
                  "internalType": "uint256",
                  "name": "tokenIncentivesIndex",
                  "type": "uint256"
                },
                {
                  "internalType": "uint256",
                  "name": "emissionEndTimestamp",
                  "type": "uint256"
                },
                {
                  "internalType": "address",
                  "name": "tokenAddress",
                  "type": "address"
                },
                {
                  "internalType": "address",
                  "name": "rewardTokenAddress",
                  "type": "address"
                },
                {
                  "internalType": "address",
                  "name": "incentiveControllerAddress",
                  "type": "address"
                },
                {
                  "internalType": "uint8",
                  "name": "rewardTokenDecimals",
                  "type": "uint8"
                },
                {
                  "internalType": "uint8",
                  "name": "precision",
                  "type": "uint8"
                }
              ],
              "internalType": "struct IUiIncentiveDataProviderV2.IncentiveData",
              "name": "sIncentiveData",
              "type": "tuple"
            }
          ],
          "internalType": "struct IUiIncentiveDataProviderV2.AggregatedReserveIncentiveData[]",
          "name": "",
          "type": "tuple[]"
        }
      ],
      "stateMutability": "view",
      "type": "function"
    },
    {
      "inputs": [
        {
          "internalType": "contract ILendingPoolAddressesProvider",
          "name": "provider",
          "type": "address"
        },
        {
          "internalType": "uint64",
          "name": "trancheId",
          "type": "uint64"
        },
        {
          "internalType": "address",
          "name": "user",
          "type": "address"
        }
      ],
      "name": "getUserReservesIncentivesData",
      "outputs": [
        {
          "components": [
            {
              "internalType": "address",
              "name": "underlyingAsset",
              "type": "address"
            },
            {
              "components": [
                {
                  "internalType": "uint256",
                  "name": "tokenincentivesUserIndex",
                  "type": "uint256"
                },
                {
                  "internalType": "uint256",
                  "name": "userUnclaimedRewards",
                  "type": "uint256"
                },
                {
                  "internalType": "address",
                  "name": "tokenAddress",
                  "type": "address"
                },
                {
                  "internalType": "address",
                  "name": "rewardTokenAddress",
                  "type": "address"
                },
                {
                  "internalType": "address",
                  "name": "incentiveControllerAddress",
                  "type": "address"
                },
                {
                  "internalType": "uint8",
                  "name": "rewardTokenDecimals",
                  "type": "uint8"
                }
              ],
              "internalType": "struct IUiIncentiveDataProviderV2.UserIncentiveData",
              "name": "aTokenIncentivesUserData",
              "type": "tuple"
            },
            {
              "components": [
                {
                  "internalType": "uint256",
                  "name": "tokenincentivesUserIndex",
                  "type": "uint256"
                },
                {
                  "internalType": "uint256",
                  "name": "userUnclaimedRewards",
                  "type": "uint256"
                },
                {
                  "internalType": "address",
                  "name": "tokenAddress",
                  "type": "address"
                },
                {
                  "internalType": "address",
                  "name": "rewardTokenAddress",
                  "type": "address"
                },
                {
                  "internalType": "address",
                  "name": "incentiveControllerAddress",
                  "type": "address"
                },
                {
                  "internalType": "uint8",
                  "name": "rewardTokenDecimals",
                  "type": "uint8"
                }
              ],
              "internalType": "struct IUiIncentiveDataProviderV2.UserIncentiveData",
              "name": "vTokenIncentivesUserData",
              "type": "tuple"
            },
            {
              "components": [
                {
                  "internalType": "uint256",
                  "name": "tokenincentivesUserIndex",
                  "type": "uint256"
                },
                {
                  "internalType": "uint256",
                  "name": "userUnclaimedRewards",
                  "type": "uint256"
                },
                {
                  "internalType": "address",
                  "name": "tokenAddress",
                  "type": "address"
                },
                {
                  "internalType": "address",
                  "name": "rewardTokenAddress",
                  "type": "address"
                },
                {
                  "internalType": "address",
                  "name": "incentiveControllerAddress",
                  "type": "address"
                },
                {
                  "internalType": "uint8",
                  "name": "rewardTokenDecimals",
                  "type": "uint8"
                }
              ],
              "internalType": "struct IUiIncentiveDataProviderV2.UserIncentiveData",
              "name": "sTokenIncentivesUserData",
              "type": "tuple"
            }
          ],
          "internalType": "struct IUiIncentiveDataProviderV2.UserReserveIncentiveData[]",
          "name": "",
          "type": "tuple[]"
        }
      ],
      "stateMutability": "view",
      "type": "function"
    }
  ],
  "bytecode": "0x608060405234801561001057600080fd5b506129f2806100206000396000f3fe608060405234801561001057600080fd5b50600436106100415760003560e01c80631bb0b0cf146100465780636c3173761461006f578063c8db54af1461008f575b600080fd5b610059610054366004612485565b6100b0565b60405161006691906128ff565b60405180910390f35b61008261007d36600461244d565b6100c5565b60405161006691906128be565b6100a261009d366004612485565b6100d8565b6040516100669291906128d1565b60606100bd8484846100fc565b949350505050565b60606100d18383610d0a565b9392505050565b6060806100e58585610d0a565b6100f08686866100fc565b91509150935093915050565b60606000846001600160a01b0316630261bf8b6040518163ffffffff1660e01b815260040160206040518083038186803b15801561013957600080fd5b505afa15801561014d573d6000803e3d6000fd5b505050506040513d601f19601f82011682018060405250810190610171919061237e565b90506000816001600160a01b03166313f9cf37866040518263ffffffff1660e01b81526004016101a19190612912565b60006040518083038186803b1580156101b957600080fd5b505afa1580156101cd573d6000803e3d6000fd5b505050506040513d6000823e601f3d908101601f191682016040526101f5919081019061239a565b905060006001600160a01b03851661020e576000610211565b81515b67ffffffffffffffff81111561023757634e487b7160e01b600052604160045260246000fd5b60405190808252806020026020018201604052801561027057816020015b61025d6121d9565b8152602001906001900390816102555790505b50905060005b8251811015610cff576000846001600160a01b0316637ba497fe8584815181106102b057634e487b7160e01b600052603260045260246000fd5b60200260200101518a6040518363ffffffff1660e01b81526004016102d692919061289b565b6102206040518083038186803b1580156102ef57600080fd5b505afa158015610303573d6000803e3d6000fd5b505050506040513d601f19601f8201168201806040525081019061032791906124cf565b90508767ffffffffffffffff1681610180015167ffffffffffffffff161461035f57634e487b7160e01b600052600160045260246000fd5b83828151811061037f57634e487b7160e01b600052603260045260246000fd5b60200260200101518383815181106103a757634e487b7160e01b600052603260045260246000fd5b60209081029190910101516001600160a01b0390911690526103c761221b565b8160e001516001600160a01b03166375d264136040518163ffffffff1660e01b815260040160206040518083038186803b15801561040457600080fd5b505afa925050508015610434575060408051601f3d908101601f191682019092526104319181019061237e565b60015b61046e573d808015610462576040519150601f19603f3d011682016040523d82523d6000602084013e610467565b606091505b505061069b565b6001600160a01b03811615610699576000816001600160a01b03166399248ea76040518163ffffffff1660e01b815260040160206040518083038186803b1580156104b857600080fd5b505afa1580156104cc573d6000803e3d6000fd5b505050506040513d601f19601f820116820180604052508101906104f0919061237e565b60e0850151604051630cdcfb9360e21b81529192506001600160a01b03841691633373ee4c91610525918e9190600401612881565b60206040518083038186803b15801561053d57600080fd5b505afa158015610551573d6000803e3d6000fd5b505050506040513d601f19601f820116820180604052508101906105759190612648565b8352604051630cc7d40f60e11b81526001600160a01b0383169063198fa81e906105a3908d9060040161286d565b60206040518083038186803b1580156105bb57600080fd5b505afa1580156105cf573d6000803e3d6000fd5b505050506040513d601f19601f820116820180604052508101906105f39190612648565b60208085019190915260e08501516001600160a01b03908116604080870191909152838216606087018190529185166080870152805163313ce56760e01b81529051919263313ce56792600480840193829003018186803b15801561065757600080fd5b505afa15801561066b573d6000803e3d6000fd5b505050506040513d601f19601f8201168201806040525081019061068f919061268d565b60ff1660a0840152505b505b808484815181106106bc57634e487b7160e01b600052603260045260246000fd5b6020026020010151602001819052506106d361221b565b8261012001516001600160a01b03166375d264136040518163ffffffff1660e01b815260040160206040518083038186803b15801561071157600080fd5b505afa925050508015610741575060408051601f3d908101601f1916820190925261073e9181019061237e565b60015b61077b573d80801561076f576040519150601f19603f3d011682016040523d82523d6000602084013e610774565b606091505b50506109aa565b6001600160a01b038116156109a8576000816001600160a01b03166399248ea76040518163ffffffff1660e01b815260040160206040518083038186803b1580156107c557600080fd5b505afa1580156107d9573d6000803e3d6000fd5b505050506040513d601f19601f820116820180604052508101906107fd919061237e565b610120860151604051630cdcfb9360e21b81529192506001600160a01b03841691633373ee4c91610833918f9190600401612881565b60206040518083038186803b15801561084b57600080fd5b505afa15801561085f573d6000803e3d6000fd5b505050506040513d601f19601f820116820180604052508101906108839190612648565b8352604051630cc7d40f60e11b81526001600160a01b0383169063198fa81e906108b1908e9060040161286d565b60206040518083038186803b1580156108c957600080fd5b505afa1580156108dd573d6000803e3d6000fd5b505050506040513d601f19601f820116820180604052508101906109019190612648565b6020808501919091526101208601516001600160a01b03908116604080870191909152838216606087018190529185166080870152805163313ce56760e01b81529051919263313ce56792600480840193829003018186803b15801561096657600080fd5b505afa15801561097a573d6000803e3d6000fd5b505050506040513d601f19601f8201168201806040525081019061099e919061268d565b60ff1660a0840152505b505b808585815181106109cb57634e487b7160e01b600052603260045260246000fd5b6020026020010151604001819052506109e261221b565b8361010001516001600160a01b03166375d264136040518163ffffffff1660e01b815260040160206040518083038186803b158015610a2057600080fd5b505afa925050508015610a50575060408051601f3d908101601f19168201909252610a4d9181019061237e565b60015b610a8a573d808015610a7e576040519150601f19603f3d011682016040523d82523d6000602084013e610a83565b606091505b5050610cb8565b6001600160a01b03811615610cb6576000816001600160a01b03166399248ea76040518163ffffffff1660e01b815260040160206040518083038186803b158015610ad457600080fd5b505afa158015610ae8573d6000803e3d6000fd5b505050506040513d601f19601f82011682018060405250810190610b0c919061237e565b9050816001600160a01b0316633373ee4c8d8861010001516040518363ffffffff1660e01b8152600401610b41929190612881565b60206040518083038186803b158015610b5957600080fd5b505afa158015610b6d573d6000803e3d6000fd5b505050506040513d601f19601f82011682018060405250810190610b919190612648565b8352604051630cc7d40f60e11b81526001600160a01b0383169063198fa81e90610bbf908f9060040161286d565b60206040518083038186803b158015610bd757600080fd5b505afa158015610beb573d6000803e3d6000fd5b505050506040513d601f19601f82011682018060405250810190610c0f9190612648565b6020808501919091526101008701516001600160a01b03908116604080870191909152838216606087018190529185166080870152805163313ce56760e01b81529051919263313ce56792600480840193829003018186803b158015610c7457600080fd5b505afa158015610c88573d6000803e3d6000fd5b505050506040513d601f19601f82011682018060405250810190610cac919061268d565b60ff1660a0840152505b505b80868681518110610cd957634e487b7160e01b600052603260045260246000fd5b602002602001015160600181905250505050508080610cf790612951565b915050610276565b509695505050505050565b60606000836001600160a01b0316630261bf8b6040518163ffffffff1660e01b815260040160206040518083038186803b158015610d4757600080fd5b505afa158015610d5b573d6000803e3d6000fd5b505050506040513d601f19601f82011682018060405250810190610d7f919061237e565b90506000816001600160a01b03166313f9cf37856040518263ffffffff1660e01b8152600401610daf9190612912565b60006040518083038186803b158015610dc757600080fd5b505afa158015610ddb573d6000803e3d6000fd5b505050506040513d6000823e601f3d908101601f19168201604052610e03919081019061239a565b90506000815167ffffffffffffffff811115610e2f57634e487b7160e01b600052604160045260246000fd5b604051908082528060200260200182016040528015610e6857816020015b610e55612250565b815260200190600190039081610e4d5790505b50905060005b82518110156121cf576000828281518110610e9957634e487b7160e01b600052603260045260246000fd5b60200260200101519050838281518110610ec357634e487b7160e01b600052603260045260246000fd5b602002602001015181600001906001600160a01b031690816001600160a01b0316815250506000856001600160a01b0316637ba497fe868581518110610f1957634e487b7160e01b600052603260045260246000fd5b60200260200101518a6040518363ffffffff1660e01b8152600401610f3f92919061289b565b6102206040518083038186803b158015610f5857600080fd5b505afa158015610f6c573d6000803e3d6000fd5b505050506040513d601f19601f82011682018060405250810190610f9091906124cf565b90508767ffffffffffffffff1681610180015167ffffffffffffffff1614610fc857634e487b7160e01b600052600160045260246000fd5b8060e001516001600160a01b03166375d264136040518163ffffffff1660e01b815260040160206040518083038186803b15801561100557600080fd5b505afa925050508015611035575060408051601f3d908101601f191682019092526110329181019061237e565b60015b61106f573d808015611063576040519150601f19603f3d011682016040523d82523d6000602084013e611068565b606091505b50506115c0565b6001600160a01b038116156115be576000816001600160a01b03166399248ea76040518163ffffffff1660e01b815260040160206040518083038186803b1580156110b957600080fd5b505afa1580156110cd573d6000803e3d6000fd5b505050506040513d601f19601f820116820180604052508101906110f1919061237e565b60e0840151604051631652e7b760e01b81529192506001600160a01b03841691631652e7b7916111239160040161286d565b60606040518083038186803b15801561113b57600080fd5b505afa92505050801561116b575060408051601f3d908101601f1916820190925261116891810190612660565b60015b6113ff573d808015611199576040519150601f19603f3d011682016040523d82523d6000602084013e61119e565b606091505b506000806000856001600160a01b031663f11b81888860e001516040518263ffffffff1660e01b81526004016111d4919061286d565b60606040518083038186803b1580156111ec57600080fd5b505afa158015611200573d6000803e3d6000fd5b505050506040513d601f19601f82011682018060405250810190611224919061260d565b92506001600160801b031692506001600160801b03169250604051806101200160405280848152602001838152602001828152602001876001600160a01b031663919cd40f6040518163ffffffff1660e01b815260040160206040518083038186803b15801561129357600080fd5b505afa1580156112a7573d6000803e3d6000fd5b505050506040513d601f19601f820116820180604052508101906112cb9190612648565b81526020018860e001516001600160a01b03168152602001866001600160a01b03168152602001876001600160a01b03168152602001866001600160a01b031663313ce5676040518163ffffffff1660e01b815260040160206040518083038186803b15801561133a57600080fd5b505afa15801561134e573d6000803e3d6000fd5b505050506040513d601f19601f82011682018060405250810190611372919061268d565b60ff168152602001876001600160a01b031663aaf5eb686040518163ffffffff1660e01b815260040160206040518083038186803b1580156113b357600080fd5b505afa1580156113c7573d6000803e3d6000fd5b505050506040513d601f19601f820116820180604052508101906113eb919061268d565b60ff1690526020890152506115bc92505050565b604051806101200160405280838152602001828152602001848152602001866001600160a01b031663919cd40f6040518163ffffffff1660e01b815260040160206040518083038186803b15801561145657600080fd5b505afa15801561146a573d6000803e3d6000fd5b505050506040513d601f19601f8201168201806040525081019061148e9190612648565b81526020018760e001516001600160a01b03168152602001856001600160a01b03168152602001866001600160a01b03168152602001856001600160a01b031663313ce5676040518163ffffffff1660e01b815260040160206040518083038186803b1580156114fd57600080fd5b505afa158015611511573d6000803e3d6000fd5b505050506040513d601f19601f82011682018060405250810190611535919061268d565b60ff168152602001866001600160a01b031663aaf5eb686040518163ffffffff1660e01b815260040160206040518083038186803b15801561157657600080fd5b505afa15801561158a573d6000803e3d6000fd5b505050506040513d601f19601f820116820180604052508101906115ae919061268d565b60ff16905260208801525050505b505b505b8061010001516001600160a01b03166375d264136040518163ffffffff1660e01b815260040160206040518083038186803b1580156115fe57600080fd5b505afa92505050801561162e575060408051601f3d908101601f1916820190925261162b9181019061237e565b60015b611668573d80801561165c576040519150601f19603f3d011682016040523d82523d6000602084013e611661565b606091505b5050611bbd565b6001600160a01b03811615611bbb576000816001600160a01b03166399248ea76040518163ffffffff1660e01b815260040160206040518083038186803b1580156116b257600080fd5b505afa1580156116c6573d6000803e3d6000fd5b505050506040513d601f19601f820116820180604052508101906116ea919061237e565b610100840151604051631652e7b760e01b81529192506001600160a01b03841691631652e7b79161171d9160040161286d565b60606040518083038186803b15801561173557600080fd5b505afa925050508015611765575060408051601f3d908101601f1916820190925261176291810190612660565b60015b6119fb573d808015611793576040519150601f19603f3d011682016040523d82523d6000602084013e611798565b606091505b506000806000856001600160a01b031663f11b81888861010001516040518263ffffffff1660e01b81526004016117cf919061286d565b60606040518083038186803b1580156117e757600080fd5b505afa1580156117fb573d6000803e3d6000fd5b505050506040513d601f19601f8201168201806040525081019061181f919061260d565b92506001600160801b031692506001600160801b03169250604051806101200160405280848152602001838152602001828152602001876001600160a01b031663919cd40f6040518163ffffffff1660e01b815260040160206040518083038186803b15801561188e57600080fd5b505afa1580156118a2573d6000803e3d6000fd5b505050506040513d601f19601f820116820180604052508101906118c69190612648565b81526020018861010001516001600160a01b03168152602001866001600160a01b03168152602001876001600160a01b03168152602001866001600160a01b031663313ce5676040518163ffffffff1660e01b815260040160206040518083038186803b15801561193657600080fd5b505afa15801561194a573d6000803e3d6000fd5b505050506040513d601f19601f8201168201806040525081019061196e919061268d565b60ff168152602001876001600160a01b031663aaf5eb686040518163ffffffff1660e01b815260040160206040518083038186803b1580156119af57600080fd5b505afa1580156119c3573d6000803e3d6000fd5b505050506040513d601f19601f820116820180604052508101906119e7919061268d565b60ff169052606089015250611bb992505050565b604051806101200160405280838152602001828152602001848152602001866001600160a01b031663919cd40f6040518163ffffffff1660e01b815260040160206040518083038186803b158015611a5257600080fd5b505afa158015611a66573d6000803e3d6000fd5b505050506040513d601f19601f82011682018060405250810190611a8a9190612648565b81526020018761010001516001600160a01b03168152602001856001600160a01b03168152602001866001600160a01b03168152602001856001600160a01b031663313ce5676040518163ffffffff1660e01b815260040160206040518083038186803b158015611afa57600080fd5b505afa158015611b0e573d6000803e3d6000fd5b505050506040513d601f19601f82011682018060405250810190611b32919061268d565b60ff168152602001866001600160a01b031663aaf5eb686040518163ffffffff1660e01b815260040160206040518083038186803b158015611b7357600080fd5b505afa158015611b87573d6000803e3d6000fd5b505050506040513d601f19601f82011682018060405250810190611bab919061268d565b60ff16905260608801525050505b505b505b8061012001516001600160a01b03166375d264136040518163ffffffff1660e01b815260040160206040518083038186803b158015611bfb57600080fd5b505afa925050508015611c2b575060408051601f3d908101601f19168201909252611c289181019061237e565b60015b611c65573d808015611c59576040519150601f19603f3d011682016040523d82523d6000602084013e611c5e565b606091505b50506121ba565b6001600160a01b038116156121b8576000816001600160a01b03166399248ea76040518163ffffffff1660e01b815260040160206040518083038186803b158015611caf57600080fd5b505afa158015611cc3573d6000803e3d6000fd5b505050506040513d601f19601f82011682018060405250810190611ce7919061237e565b610120840151604051631652e7b760e01b81529192506001600160a01b03841691631652e7b791611d1a9160040161286d565b60606040518083038186803b158015611d3257600080fd5b505afa925050508015611d62575060408051601f3d908101601f19168201909252611d5f91810190612660565b60015b611ff8573d808015611d90576040519150601f19603f3d011682016040523d82523d6000602084013e611d95565b606091505b506000806000856001600160a01b031663f11b81888861012001516040518263ffffffff1660e01b8152600401611dcc919061286d565b60606040518083038186803b158015611de457600080fd5b505afa158015611df8573d6000803e3d6000fd5b505050506040513d601f19601f82011682018060405250810190611e1c919061260d565b92506001600160801b031692506001600160801b03169250604051806101200160405280848152602001838152602001828152602001876001600160a01b031663919cd40f6040518163ffffffff1660e01b815260040160206040518083038186803b158015611e8b57600080fd5b505afa158015611e9f573d6000803e3d6000fd5b505050506040513d601f19601f82011682018060405250810190611ec39190612648565b81526020018861012001516001600160a01b03168152602001866001600160a01b03168152602001876001600160a01b03168152602001866001600160a01b031663313ce5676040518163ffffffff1660e01b815260040160206040518083038186803b158015611f3357600080fd5b505afa158015611f47573d6000803e3d6000fd5b505050506040513d601f19601f82011682018060405250810190611f6b919061268d565b60ff168152602001876001600160a01b031663aaf5eb686040518163ffffffff1660e01b815260040160206040518083038186803b158015611fac57600080fd5b505afa158015611fc0573d6000803e3d6000fd5b505050506040513d601f19601f82011682018060405250810190611fe4919061268d565b60ff1690526040890152506121b692505050565b604051806101200160405280838152602001828152602001848152602001866001600160a01b031663919cd40f6040518163ffffffff1660e01b815260040160206040518083038186803b15801561204f57600080fd5b505afa158015612063573d6000803e3d6000fd5b505050506040513d601f19601f820116820180604052508101906120879190612648565b81526020018761012001516001600160a01b03168152602001856001600160a01b03168152602001866001600160a01b03168152602001856001600160a01b031663313ce5676040518163ffffffff1660e01b815260040160206040518083038186803b1580156120f757600080fd5b505afa15801561210b573d6000803e3d6000fd5b505050506040513d601f19601f8201168201806040525081019061212f919061268d565b60ff168152602001866001600160a01b031663aaf5eb686040518163ffffffff1660e01b815260040160206040518083038186803b15801561217057600080fd5b505afa158015612184573d6000803e3d6000fd5b505050506040513d601f19601f820116820180604052508101906121a8919061268d565b60ff16905260408801525050505b505b505b505080806121c790612951565b915050610e6e565b5095945050505050565b604051806080016040528060006001600160a01b031681526020016121fc61221b565b815260200161220961221b565b815260200161221661221b565b905290565b6040805160c081018252600080825260208201819052918101829052606081018290526080810182905260a081019190915290565b604051806080016040528060006001600160a01b03168152602001612273612289565b8152602001612280612289565b81526020016122165b6040805161012081018252600080825260208201819052918101829052606081018290526080810182905260a0810182905260c0810182905260e0810182905261010081019190915290565b80516122e08161298e565b919050565b805180151581146122e057600080fd5b600060208284031215612306578081fd5b6040516020810181811067ffffffffffffffff8211171561232957612329612978565b6040529151825250919050565b80516001600160801b03811681146122e057600080fd5b805164ffffffffff811681146122e057600080fd5b80516122e0816129a6565b805160ff811681146122e057600080fd5b60006020828403121561238f578081fd5b81516100d18161298e565b600060208083850312156123ac578182fd5b825167ffffffffffffffff808211156123c3578384fd5b818501915085601f8301126123d6578384fd5b8151818111156123e8576123e8612978565b83810291506123f8848301612927565b8181528481019084860184860187018a1015612412578788fd5b8795505b83861015612440578051945061242b8561298e565b84835260019590950194918601918601612416565b5098975050505050505050565b6000806040838503121561245f578081fd5b823561246a8161298e565b9150602083013561247a816129a6565b809150509250929050565b600080600060608486031215612499578081fd5b83356124a48161298e565b925060208401356124b4816129a6565b915060408401356124c48161298e565b809150509250925092565b60006102208083850312156124e2578182fd5b6124eb81612927565b90506124f784846122f5565b815261250560208401612336565b602082015261251660408401612336565b604082015261252760608401612336565b606082015261253860808401612336565b608082015261254960a08401612336565b60a082015261255a60c0840161234d565b60c082015261256b60e084016122d5565b60e082015261010061257e8185016122d5565b908201526101206125908482016122d5565b908201526101406125a28482016122d5565b908201526101606125b484820161236d565b908201526101806125c6848201612362565b908201526101a083810151908201526101c06125e38185016122e5565b908201526101e06125f58482016122e5565b90820152610200928301519281019290925250919050565b600080600060608486031215612621578283fd5b61262a84612336565b925061263860208501612336565b9150604084015190509250925092565b600060208284031215612659578081fd5b5051919050565b600080600060608486031215612674578081fd5b8351925060208401519150604084015190509250925092565b60006020828403121561269e578081fd5b6100d18261236d565b6000815180845260208085019450808401835b8381101561271d57815180516001600160a01b03168852838101516126e1858a018261279d565b5060408101516126f56101408a018261279d565b506060015161270861026089018261279d565b506103809690960195908201906001016126ba565b509495945050505050565b6000815180845260208085019450808401835b8381101561271d57815180516001600160a01b0316885283810151612762858a0182612819565b50604081015161277560e08a0182612819565b50606001516127886101a0890182612819565b5061026096909601959082019060010161273b565b80518252602081015160208301526040810151604083015260608101516060830152608081015160018060a01b0380821660808501528060a08401511660a08501528060c08401511660c0850152505060e08101516127ff60e0840182612866565b506101008082015161281382850182612866565b50505050565b8051825260208101516020830152604081015160018060a01b038082166040850152806060840151166060850152806080840151166080850152505060ff60a08201511660a08301525050565b60ff169052565b6001600160a01b0391909116815260200190565b6001600160a01b0392831681529116602082015260400190565b6001600160a01b0392909216825267ffffffffffffffff16602082015260400190565b6000602082526100d160208301846126a7565b6000604082526128e460408301856126a7565b82810360208401526128f68185612728565b95945050505050565b6000602082526100d16020830184612728565b67ffffffffffffffff91909116815260200190565b60405181810167ffffffffffffffff8111828210171561294957612949612978565b604052919050565b600060001982141561297157634e487b7160e01b81526011600452602481fd5b5060010190565b634e487b7160e01b600052604160045260246000fd5b6001600160a01b03811681146129a357600080fd5b50565b67ffffffffffffffff811681146129a357600080fdfea26469706673582212208f7651ae6220ef7f870608cb586c8fae5792fe4d142f8f7e4b216597eb99b53264736f6c63430008000033",
  "linkReferences": {},
  "deployedLinkReferences": {}
}