{
  "_format": "hh-sol-artifact-1",
  "contractName": "UiIncentiveDataProviderV2",
  "sourceName": "contracts/misc/UiIncentiveDataProviderV2.sol",
  "abi": [
    {
      "inputs": [],
      "stateMutability": "nonpayable",
      "type": "constructor"
    },
    {
      "inputs": [
        {
          "internalType": "contract ILendingPoolAddressesProvider",
          "name": "provider",
          "type": "address"
        },
        {
          "internalType": "address",
          "name": "user",
          "type": "address"
        }
      ],
      "name": "getFullReservesIncentiveData",
      "outputs": [
        {
          "components": [
            {
              "internalType": "address",
              "name": "underlyingAsset",
              "type": "address"
            },
            {
              "components": [
                {
                  "internalType": "uint256",
                  "name": "emissionPerSecond",
                  "type": "uint256"
                },
                {
                  "internalType": "uint256",
                  "name": "incentivesLastUpdateTimestamp",
                  "type": "uint256"
                },
                {
                  "internalType": "uint256",
                  "name": "tokenIncentivesIndex",
                  "type": "uint256"
                },
                {
                  "internalType": "uint256",
                  "name": "emissionEndTimestamp",
                  "type": "uint256"
                },
                {
                  "internalType": "address",
                  "name": "tokenAddress",
                  "type": "address"
                },
                {
                  "internalType": "address",
                  "name": "rewardTokenAddress",
                  "type": "address"
                },
                {
                  "internalType": "address",
                  "name": "incentiveControllerAddress",
                  "type": "address"
                },
                {
                  "internalType": "uint8",
                  "name": "rewardTokenDecimals",
                  "type": "uint8"
                },
                {
                  "internalType": "uint8",
                  "name": "precision",
                  "type": "uint8"
                }
              ],
              "internalType": "struct IUiIncentiveDataProviderV2.IncentiveData",
              "name": "aIncentiveData",
              "type": "tuple"
            },
            {
              "components": [
                {
                  "internalType": "uint256",
                  "name": "emissionPerSecond",
                  "type": "uint256"
                },
                {
                  "internalType": "uint256",
                  "name": "incentivesLastUpdateTimestamp",
                  "type": "uint256"
                },
                {
                  "internalType": "uint256",
                  "name": "tokenIncentivesIndex",
                  "type": "uint256"
                },
                {
                  "internalType": "uint256",
                  "name": "emissionEndTimestamp",
                  "type": "uint256"
                },
                {
                  "internalType": "address",
                  "name": "tokenAddress",
                  "type": "address"
                },
                {
                  "internalType": "address",
                  "name": "rewardTokenAddress",
                  "type": "address"
                },
                {
                  "internalType": "address",
                  "name": "incentiveControllerAddress",
                  "type": "address"
                },
                {
                  "internalType": "uint8",
                  "name": "rewardTokenDecimals",
                  "type": "uint8"
                },
                {
                  "internalType": "uint8",
                  "name": "precision",
                  "type": "uint8"
                }
              ],
              "internalType": "struct IUiIncentiveDataProviderV2.IncentiveData",
              "name": "vIncentiveData",
              "type": "tuple"
            },
            {
              "components": [
                {
                  "internalType": "uint256",
                  "name": "emissionPerSecond",
                  "type": "uint256"
                },
                {
                  "internalType": "uint256",
                  "name": "incentivesLastUpdateTimestamp",
                  "type": "uint256"
                },
                {
                  "internalType": "uint256",
                  "name": "tokenIncentivesIndex",
                  "type": "uint256"
                },
                {
                  "internalType": "uint256",
                  "name": "emissionEndTimestamp",
                  "type": "uint256"
                },
                {
                  "internalType": "address",
                  "name": "tokenAddress",
                  "type": "address"
                },
                {
                  "internalType": "address",
                  "name": "rewardTokenAddress",
                  "type": "address"
                },
                {
                  "internalType": "address",
                  "name": "incentiveControllerAddress",
                  "type": "address"
                },
                {
                  "internalType": "uint8",
                  "name": "rewardTokenDecimals",
                  "type": "uint8"
                },
                {
                  "internalType": "uint8",
                  "name": "precision",
                  "type": "uint8"
                }
              ],
              "internalType": "struct IUiIncentiveDataProviderV2.IncentiveData",
              "name": "sIncentiveData",
              "type": "tuple"
            }
          ],
          "internalType": "struct IUiIncentiveDataProviderV2.AggregatedReserveIncentiveData[]",
          "name": "",
          "type": "tuple[]"
        },
        {
          "components": [
            {
              "internalType": "address",
              "name": "underlyingAsset",
              "type": "address"
            },
            {
              "components": [
                {
                  "internalType": "uint256",
                  "name": "tokenincentivesUserIndex",
                  "type": "uint256"
                },
                {
                  "internalType": "uint256",
                  "name": "userUnclaimedRewards",
                  "type": "uint256"
                },
                {
                  "internalType": "address",
                  "name": "tokenAddress",
                  "type": "address"
                },
                {
                  "internalType": "address",
                  "name": "rewardTokenAddress",
                  "type": "address"
                },
                {
                  "internalType": "address",
                  "name": "incentiveControllerAddress",
                  "type": "address"
                },
                {
                  "internalType": "uint8",
                  "name": "rewardTokenDecimals",
                  "type": "uint8"
                }
              ],
              "internalType": "struct IUiIncentiveDataProviderV2.UserIncentiveData",
              "name": "aTokenIncentivesUserData",
              "type": "tuple"
            },
            {
              "components": [
                {
                  "internalType": "uint256",
                  "name": "tokenincentivesUserIndex",
                  "type": "uint256"
                },
                {
                  "internalType": "uint256",
                  "name": "userUnclaimedRewards",
                  "type": "uint256"
                },
                {
                  "internalType": "address",
                  "name": "tokenAddress",
                  "type": "address"
                },
                {
                  "internalType": "address",
                  "name": "rewardTokenAddress",
                  "type": "address"
                },
                {
                  "internalType": "address",
                  "name": "incentiveControllerAddress",
                  "type": "address"
                },
                {
                  "internalType": "uint8",
                  "name": "rewardTokenDecimals",
                  "type": "uint8"
                }
              ],
              "internalType": "struct IUiIncentiveDataProviderV2.UserIncentiveData",
              "name": "vTokenIncentivesUserData",
              "type": "tuple"
            },
            {
              "components": [
                {
                  "internalType": "uint256",
                  "name": "tokenincentivesUserIndex",
                  "type": "uint256"
                },
                {
                  "internalType": "uint256",
                  "name": "userUnclaimedRewards",
                  "type": "uint256"
                },
                {
                  "internalType": "address",
                  "name": "tokenAddress",
                  "type": "address"
                },
                {
                  "internalType": "address",
                  "name": "rewardTokenAddress",
                  "type": "address"
                },
                {
                  "internalType": "address",
                  "name": "incentiveControllerAddress",
                  "type": "address"
                },
                {
                  "internalType": "uint8",
                  "name": "rewardTokenDecimals",
                  "type": "uint8"
                }
              ],
              "internalType": "struct IUiIncentiveDataProviderV2.UserIncentiveData",
              "name": "sTokenIncentivesUserData",
              "type": "tuple"
            }
          ],
          "internalType": "struct IUiIncentiveDataProviderV2.UserReserveIncentiveData[]",
          "name": "",
          "type": "tuple[]"
        }
      ],
      "stateMutability": "view",
      "type": "function"
    },
    {
      "inputs": [
        {
          "internalType": "contract ILendingPoolAddressesProvider",
          "name": "provider",
          "type": "address"
        }
      ],
      "name": "getReservesIncentivesData",
      "outputs": [
        {
          "components": [
            {
              "internalType": "address",
              "name": "underlyingAsset",
              "type": "address"
            },
            {
              "components": [
                {
                  "internalType": "uint256",
                  "name": "emissionPerSecond",
                  "type": "uint256"
                },
                {
                  "internalType": "uint256",
                  "name": "incentivesLastUpdateTimestamp",
                  "type": "uint256"
                },
                {
                  "internalType": "uint256",
                  "name": "tokenIncentivesIndex",
                  "type": "uint256"
                },
                {
                  "internalType": "uint256",
                  "name": "emissionEndTimestamp",
                  "type": "uint256"
                },
                {
                  "internalType": "address",
                  "name": "tokenAddress",
                  "type": "address"
                },
                {
                  "internalType": "address",
                  "name": "rewardTokenAddress",
                  "type": "address"
                },
                {
                  "internalType": "address",
                  "name": "incentiveControllerAddress",
                  "type": "address"
                },
                {
                  "internalType": "uint8",
                  "name": "rewardTokenDecimals",
                  "type": "uint8"
                },
                {
                  "internalType": "uint8",
                  "name": "precision",
                  "type": "uint8"
                }
              ],
              "internalType": "struct IUiIncentiveDataProviderV2.IncentiveData",
              "name": "aIncentiveData",
              "type": "tuple"
            },
            {
              "components": [
                {
                  "internalType": "uint256",
                  "name": "emissionPerSecond",
                  "type": "uint256"
                },
                {
                  "internalType": "uint256",
                  "name": "incentivesLastUpdateTimestamp",
                  "type": "uint256"
                },
                {
                  "internalType": "uint256",
                  "name": "tokenIncentivesIndex",
                  "type": "uint256"
                },
                {
                  "internalType": "uint256",
                  "name": "emissionEndTimestamp",
                  "type": "uint256"
                },
                {
                  "internalType": "address",
                  "name": "tokenAddress",
                  "type": "address"
                },
                {
                  "internalType": "address",
                  "name": "rewardTokenAddress",
                  "type": "address"
                },
                {
                  "internalType": "address",
                  "name": "incentiveControllerAddress",
                  "type": "address"
                },
                {
                  "internalType": "uint8",
                  "name": "rewardTokenDecimals",
                  "type": "uint8"
                },
                {
                  "internalType": "uint8",
                  "name": "precision",
                  "type": "uint8"
                }
              ],
              "internalType": "struct IUiIncentiveDataProviderV2.IncentiveData",
              "name": "vIncentiveData",
              "type": "tuple"
            },
            {
              "components": [
                {
                  "internalType": "uint256",
                  "name": "emissionPerSecond",
                  "type": "uint256"
                },
                {
                  "internalType": "uint256",
                  "name": "incentivesLastUpdateTimestamp",
                  "type": "uint256"
                },
                {
                  "internalType": "uint256",
                  "name": "tokenIncentivesIndex",
                  "type": "uint256"
                },
                {
                  "internalType": "uint256",
                  "name": "emissionEndTimestamp",
                  "type": "uint256"
                },
                {
                  "internalType": "address",
                  "name": "tokenAddress",
                  "type": "address"
                },
                {
                  "internalType": "address",
                  "name": "rewardTokenAddress",
                  "type": "address"
                },
                {
                  "internalType": "address",
                  "name": "incentiveControllerAddress",
                  "type": "address"
                },
                {
                  "internalType": "uint8",
                  "name": "rewardTokenDecimals",
                  "type": "uint8"
                },
                {
                  "internalType": "uint8",
                  "name": "precision",
                  "type": "uint8"
                }
              ],
              "internalType": "struct IUiIncentiveDataProviderV2.IncentiveData",
              "name": "sIncentiveData",
              "type": "tuple"
            }
          ],
          "internalType": "struct IUiIncentiveDataProviderV2.AggregatedReserveIncentiveData[]",
          "name": "",
          "type": "tuple[]"
        }
      ],
      "stateMutability": "view",
      "type": "function"
    },
    {
      "inputs": [
        {
          "internalType": "contract ILendingPoolAddressesProvider",
          "name": "provider",
          "type": "address"
        },
        {
          "internalType": "address",
          "name": "user",
          "type": "address"
        }
      ],
      "name": "getUserReservesIncentivesData",
      "outputs": [
        {
          "components": [
            {
              "internalType": "address",
              "name": "underlyingAsset",
              "type": "address"
            },
            {
              "components": [
                {
                  "internalType": "uint256",
                  "name": "tokenincentivesUserIndex",
                  "type": "uint256"
                },
                {
                  "internalType": "uint256",
                  "name": "userUnclaimedRewards",
                  "type": "uint256"
                },
                {
                  "internalType": "address",
                  "name": "tokenAddress",
                  "type": "address"
                },
                {
                  "internalType": "address",
                  "name": "rewardTokenAddress",
                  "type": "address"
                },
                {
                  "internalType": "address",
                  "name": "incentiveControllerAddress",
                  "type": "address"
                },
                {
                  "internalType": "uint8",
                  "name": "rewardTokenDecimals",
                  "type": "uint8"
                }
              ],
              "internalType": "struct IUiIncentiveDataProviderV2.UserIncentiveData",
              "name": "aTokenIncentivesUserData",
              "type": "tuple"
            },
            {
              "components": [
                {
                  "internalType": "uint256",
                  "name": "tokenincentivesUserIndex",
                  "type": "uint256"
                },
                {
                  "internalType": "uint256",
                  "name": "userUnclaimedRewards",
                  "type": "uint256"
                },
                {
                  "internalType": "address",
                  "name": "tokenAddress",
                  "type": "address"
                },
                {
                  "internalType": "address",
                  "name": "rewardTokenAddress",
                  "type": "address"
                },
                {
                  "internalType": "address",
                  "name": "incentiveControllerAddress",
                  "type": "address"
                },
                {
                  "internalType": "uint8",
                  "name": "rewardTokenDecimals",
                  "type": "uint8"
                }
              ],
              "internalType": "struct IUiIncentiveDataProviderV2.UserIncentiveData",
              "name": "vTokenIncentivesUserData",
              "type": "tuple"
            },
            {
              "components": [
                {
                  "internalType": "uint256",
                  "name": "tokenincentivesUserIndex",
                  "type": "uint256"
                },
                {
                  "internalType": "uint256",
                  "name": "userUnclaimedRewards",
                  "type": "uint256"
                },
                {
                  "internalType": "address",
                  "name": "tokenAddress",
                  "type": "address"
                },
                {
                  "internalType": "address",
                  "name": "rewardTokenAddress",
                  "type": "address"
                },
                {
                  "internalType": "address",
                  "name": "incentiveControllerAddress",
                  "type": "address"
                },
                {
                  "internalType": "uint8",
                  "name": "rewardTokenDecimals",
                  "type": "uint8"
                }
              ],
              "internalType": "struct IUiIncentiveDataProviderV2.UserIncentiveData",
              "name": "sTokenIncentivesUserData",
              "type": "tuple"
            }
          ],
          "internalType": "struct IUiIncentiveDataProviderV2.UserReserveIncentiveData[]",
          "name": "",
          "type": "tuple[]"
        }
      ],
      "stateMutability": "view",
      "type": "function"
    }
  ],
  "bytecode": "0x608060405234801561001057600080fd5b5061287b806100206000396000f3fe608060405234801561001057600080fd5b50600436106100415760003560e01c80634763753614610046578063799bdcf514610070578063976fafc514610090575b600080fd5b6100596100543660046123bc565b6100b0565b604051610067929190612785565b60405180910390f35b61008361007e3660046123bc565b6100d1565b60405161006791906127b3565b6100a361009e3660046123a0565b6100e4565b6040516100679190612772565b6060806100bc846100f7565b6100c68585611582565b915091509250929050565b60606100dd8383611582565b9392505050565b60606100ef826100f7565b90505b919050565b60606000826001600160a01b0316630261bf8b6040518163ffffffff1660e01b815260040160206040518083038186803b15801561013457600080fd5b505afa158015610148573d6000803e3d6000fd5b505050506040513d601f19601f8201168201806040525081019061016c91906122d1565b90506000816001600160a01b031663d1946dbc6040518163ffffffff1660e01b815260040160006040518083038186803b1580156101a957600080fd5b505afa1580156101bd573d6000803e3d6000fd5b505050506040513d6000823e601f3d908101601f191682016040526101e591908101906122ed565b90506000815167ffffffffffffffff81111561021157634e487b7160e01b600052604160045260246000fd5b60405190808252806020026020018201604052801561024a57816020015b61023761214c565b81526020019060019003908161022f5790505b50905060005b825181101561157957600082828151811061027b57634e487b7160e01b600052603260045260246000fd5b602002602001015190508382815181106102a557634e487b7160e01b600052603260045260246000fd5b602002602001015181600001906001600160a01b031690816001600160a01b0316815250506000856001600160a01b03166335ea6a758685815181106102fb57634e487b7160e01b600052603260045260246000fd5b60200260200101516040518263ffffffff1660e01b815260040161031f9190612744565b6101806040518083038186803b15801561033857600080fd5b505afa15801561034c573d6000803e3d6000fd5b505050506040513d601f19601f8201168201806040525081019061037091906123f4565b90508060e001516001600160a01b03166375d264136040518163ffffffff1660e01b815260040160206040518083038186803b1580156103af57600080fd5b505afa9250505080156103df575060408051601f3d908101601f191682019092526103dc918101906122d1565b60015b610419573d80801561040d576040519150601f19603f3d011682016040523d82523d6000602084013e610412565b606091505b505061096a565b6001600160a01b03811615610968576000816001600160a01b03166399248ea76040518163ffffffff1660e01b815260040160206040518083038186803b15801561046357600080fd5b505afa158015610477573d6000803e3d6000fd5b505050506040513d601f19601f8201168201806040525081019061049b91906122d1565b60e0840151604051631652e7b760e01b81529192506001600160a01b03841691631652e7b7916104cd91600401612744565b60606040518083038186803b1580156104e557600080fd5b505afa925050508015610515575060408051601f3d908101601f1916820190925261051291810190612537565b60015b6107a9573d808015610543576040519150601f19603f3d011682016040523d82523d6000602084013e610548565b606091505b506000806000856001600160a01b031663f11b81888860e001516040518263ffffffff1660e01b815260040161057e9190612744565b60606040518083038186803b15801561059657600080fd5b505afa1580156105aa573d6000803e3d6000fd5b505050506040513d601f19601f820116820180604052508101906105ce91906124e4565b92506001600160801b031692506001600160801b03169250604051806101200160405280848152602001838152602001828152602001876001600160a01b031663919cd40f6040518163ffffffff1660e01b815260040160206040518083038186803b15801561063d57600080fd5b505afa158015610651573d6000803e3d6000fd5b505050506040513d601f19601f82011682018060405250810190610675919061251f565b81526020018860e001516001600160a01b03168152602001866001600160a01b03168152602001876001600160a01b03168152602001866001600160a01b031663313ce5676040518163ffffffff1660e01b815260040160206040518083038186803b1580156106e457600080fd5b505afa1580156106f8573d6000803e3d6000fd5b505050506040513d601f19601f8201168201806040525081019061071c9190612564565b60ff168152602001876001600160a01b031663aaf5eb686040518163ffffffff1660e01b815260040160206040518083038186803b15801561075d57600080fd5b505afa158015610771573d6000803e3d6000fd5b505050506040513d601f19601f820116820180604052508101906107959190612564565b60ff16905260208901525061096692505050565b604051806101200160405280838152602001828152602001848152602001866001600160a01b031663919cd40f6040518163ffffffff1660e01b815260040160206040518083038186803b15801561080057600080fd5b505afa158015610814573d6000803e3d6000fd5b505050506040513d601f19601f82011682018060405250810190610838919061251f565b81526020018760e001516001600160a01b03168152602001856001600160a01b03168152602001866001600160a01b03168152602001856001600160a01b031663313ce5676040518163ffffffff1660e01b815260040160206040518083038186803b1580156108a757600080fd5b505afa1580156108bb573d6000803e3d6000fd5b505050506040513d601f19601f820116820180604052508101906108df9190612564565b60ff168152602001866001600160a01b031663aaf5eb686040518163ffffffff1660e01b815260040160206040518083038186803b15801561092057600080fd5b505afa158015610934573d6000803e3d6000fd5b505050506040513d601f19601f820116820180604052508101906109589190612564565b60ff16905260208801525050505b505b505b8061010001516001600160a01b03166375d264136040518163ffffffff1660e01b815260040160206040518083038186803b1580156109a857600080fd5b505afa9250505080156109d8575060408051601f3d908101601f191682019092526109d5918101906122d1565b60015b610a12573d808015610a06576040519150601f19603f3d011682016040523d82523d6000602084013e610a0b565b606091505b5050610f67565b6001600160a01b03811615610f65576000816001600160a01b03166399248ea76040518163ffffffff1660e01b815260040160206040518083038186803b158015610a5c57600080fd5b505afa158015610a70573d6000803e3d6000fd5b505050506040513d601f19601f82011682018060405250810190610a9491906122d1565b610100840151604051631652e7b760e01b81529192506001600160a01b03841691631652e7b791610ac791600401612744565b60606040518083038186803b158015610adf57600080fd5b505afa925050508015610b0f575060408051601f3d908101601f19168201909252610b0c91810190612537565b60015b610da5573d808015610b3d576040519150601f19603f3d011682016040523d82523d6000602084013e610b42565b606091505b506000806000856001600160a01b031663f11b81888861010001516040518263ffffffff1660e01b8152600401610b799190612744565b60606040518083038186803b158015610b9157600080fd5b505afa158015610ba5573d6000803e3d6000fd5b505050506040513d601f19601f82011682018060405250810190610bc991906124e4565b92506001600160801b031692506001600160801b03169250604051806101200160405280848152602001838152602001828152602001876001600160a01b031663919cd40f6040518163ffffffff1660e01b815260040160206040518083038186803b158015610c3857600080fd5b505afa158015610c4c573d6000803e3d6000fd5b505050506040513d601f19601f82011682018060405250810190610c70919061251f565b81526020018861010001516001600160a01b03168152602001866001600160a01b03168152602001876001600160a01b03168152602001866001600160a01b031663313ce5676040518163ffffffff1660e01b815260040160206040518083038186803b158015610ce057600080fd5b505afa158015610cf4573d6000803e3d6000fd5b505050506040513d601f19601f82011682018060405250810190610d189190612564565b60ff168152602001876001600160a01b031663aaf5eb686040518163ffffffff1660e01b815260040160206040518083038186803b158015610d5957600080fd5b505afa158015610d6d573d6000803e3d6000fd5b505050506040513d601f19601f82011682018060405250810190610d919190612564565b60ff169052606089015250610f6392505050565b604051806101200160405280838152602001828152602001848152602001866001600160a01b031663919cd40f6040518163ffffffff1660e01b815260040160206040518083038186803b158015610dfc57600080fd5b505afa158015610e10573d6000803e3d6000fd5b505050506040513d601f19601f82011682018060405250810190610e34919061251f565b81526020018761010001516001600160a01b03168152602001856001600160a01b03168152602001866001600160a01b03168152602001856001600160a01b031663313ce5676040518163ffffffff1660e01b815260040160206040518083038186803b158015610ea457600080fd5b505afa158015610eb8573d6000803e3d6000fd5b505050506040513d601f19601f82011682018060405250810190610edc9190612564565b60ff168152602001866001600160a01b031663aaf5eb686040518163ffffffff1660e01b815260040160206040518083038186803b158015610f1d57600080fd5b505afa158015610f31573d6000803e3d6000fd5b505050506040513d601f19601f82011682018060405250810190610f559190612564565b60ff16905260608801525050505b505b505b8061012001516001600160a01b03166375d264136040518163ffffffff1660e01b815260040160206040518083038186803b158015610fa557600080fd5b505afa925050508015610fd5575060408051601f3d908101601f19168201909252610fd2918101906122d1565b60015b61100f573d808015611003576040519150601f19603f3d011682016040523d82523d6000602084013e611008565b606091505b5050611564565b6001600160a01b03811615611562576000816001600160a01b03166399248ea76040518163ffffffff1660e01b815260040160206040518083038186803b15801561105957600080fd5b505afa15801561106d573d6000803e3d6000fd5b505050506040513d601f19601f8201168201806040525081019061109191906122d1565b610120840151604051631652e7b760e01b81529192506001600160a01b03841691631652e7b7916110c491600401612744565b60606040518083038186803b1580156110dc57600080fd5b505afa92505050801561110c575060408051601f3d908101601f1916820190925261110991810190612537565b60015b6113a2573d80801561113a576040519150601f19603f3d011682016040523d82523d6000602084013e61113f565b606091505b506000806000856001600160a01b031663f11b81888861012001516040518263ffffffff1660e01b81526004016111769190612744565b60606040518083038186803b15801561118e57600080fd5b505afa1580156111a2573d6000803e3d6000fd5b505050506040513d601f19601f820116820180604052508101906111c691906124e4565b92506001600160801b031692506001600160801b03169250604051806101200160405280848152602001838152602001828152602001876001600160a01b031663919cd40f6040518163ffffffff1660e01b815260040160206040518083038186803b15801561123557600080fd5b505afa158015611249573d6000803e3d6000fd5b505050506040513d601f19601f8201168201806040525081019061126d919061251f565b81526020018861012001516001600160a01b03168152602001866001600160a01b03168152602001876001600160a01b03168152602001866001600160a01b031663313ce5676040518163ffffffff1660e01b815260040160206040518083038186803b1580156112dd57600080fd5b505afa1580156112f1573d6000803e3d6000fd5b505050506040513d601f19601f820116820180604052508101906113159190612564565b60ff168152602001876001600160a01b031663aaf5eb686040518163ffffffff1660e01b815260040160206040518083038186803b15801561135657600080fd5b505afa15801561136a573d6000803e3d6000fd5b505050506040513d601f19601f8201168201806040525081019061138e9190612564565b60ff16905260408901525061156092505050565b604051806101200160405280838152602001828152602001848152602001866001600160a01b031663919cd40f6040518163ffffffff1660e01b815260040160206040518083038186803b1580156113f957600080fd5b505afa15801561140d573d6000803e3d6000fd5b505050506040513d601f19601f82011682018060405250810190611431919061251f565b81526020018761012001516001600160a01b03168152602001856001600160a01b03168152602001866001600160a01b03168152602001856001600160a01b031663313ce5676040518163ffffffff1660e01b815260040160206040518083038186803b1580156114a157600080fd5b505afa1580156114b5573d6000803e3d6000fd5b505050506040513d601f19601f820116820180604052508101906114d99190612564565b60ff168152602001866001600160a01b031663aaf5eb686040518163ffffffff1660e01b815260040160206040518083038186803b15801561151a57600080fd5b505afa15801561152e573d6000803e3d6000fd5b505050506040513d601f19601f820116820180604052508101906115529190612564565b60ff16905260408801525050505b505b505b50508080611571906127f0565b915050610250565b50949350505050565b60606000836001600160a01b0316630261bf8b6040518163ffffffff1660e01b815260040160206040518083038186803b1580156115bf57600080fd5b505afa1580156115d3573d6000803e3d6000fd5b505050506040513d601f19601f820116820180604052508101906115f791906122d1565b90506000816001600160a01b031663d1946dbc6040518163ffffffff1660e01b815260040160006040518083038186803b15801561163457600080fd5b505afa158015611648573d6000803e3d6000fd5b505050506040513d6000823e601f3d908101601f1916820160405261167091908101906122ed565b905060006001600160a01b03851661168957600061168c565b81515b67ffffffffffffffff8111156116b257634e487b7160e01b600052604160045260246000fd5b6040519080825280602002602001820160405280156116eb57816020015b6116d861218e565b8152602001906001900390816116d05790505b50905060005b8251811015612142576000846001600160a01b03166335ea6a7585848151811061172b57634e487b7160e01b600052603260045260246000fd5b60200260200101516040518263ffffffff1660e01b815260040161174f9190612744565b6101806040518083038186803b15801561176857600080fd5b505afa15801561177c573d6000803e3d6000fd5b505050506040513d601f19601f820116820180604052508101906117a091906123f4565b90508382815181106117c257634e487b7160e01b600052603260045260246000fd5b60200260200101518383815181106117ea57634e487b7160e01b600052603260045260246000fd5b60209081029190910101516001600160a01b03909116905261180a6121c7565b8160e001516001600160a01b03166375d264136040518163ffffffff1660e01b815260040160206040518083038186803b15801561184757600080fd5b505afa925050508015611877575060408051601f3d908101601f19168201909252611874918101906122d1565b60015b6118b1573d8080156118a5576040519150601f19603f3d011682016040523d82523d6000602084013e6118aa565b606091505b5050611ade565b6001600160a01b03811615611adc576000816001600160a01b03166399248ea76040518163ffffffff1660e01b815260040160206040518083038186803b1580156118fb57600080fd5b505afa15801561190f573d6000803e3d6000fd5b505050506040513d601f19601f8201168201806040525081019061193391906122d1565b60e0850151604051630cdcfb9360e21b81529192506001600160a01b03841691633373ee4c91611968918e9190600401612758565b60206040518083038186803b15801561198057600080fd5b505afa158015611994573d6000803e3d6000fd5b505050506040513d601f19601f820116820180604052508101906119b8919061251f565b8352604051630cc7d40f60e11b81526001600160a01b0383169063198fa81e906119e6908d90600401612744565b60206040518083038186803b1580156119fe57600080fd5b505afa158015611a12573d6000803e3d6000fd5b505050506040513d601f19601f82011682018060405250810190611a36919061251f565b60208085019190915260e08501516001600160a01b03908116604080870191909152838216606087018190529185166080870152805163313ce56760e01b81529051919263313ce56792600480840193829003018186803b158015611a9a57600080fd5b505afa158015611aae573d6000803e3d6000fd5b505050506040513d601f19601f82011682018060405250810190611ad29190612564565b60ff1660a0840152505b505b80848481518110611aff57634e487b7160e01b600052603260045260246000fd5b602002602001015160200181905250611b166121c7565b8261012001516001600160a01b03166375d264136040518163ffffffff1660e01b815260040160206040518083038186803b158015611b5457600080fd5b505afa925050508015611b84575060408051601f3d908101601f19168201909252611b81918101906122d1565b60015b611bbe573d808015611bb2576040519150601f19603f3d011682016040523d82523d6000602084013e611bb7565b606091505b5050611ded565b6001600160a01b03811615611deb576000816001600160a01b03166399248ea76040518163ffffffff1660e01b815260040160206040518083038186803b158015611c0857600080fd5b505afa158015611c1c573d6000803e3d6000fd5b505050506040513d601f19601f82011682018060405250810190611c4091906122d1565b610120860151604051630cdcfb9360e21b81529192506001600160a01b03841691633373ee4c91611c76918f9190600401612758565b60206040518083038186803b158015611c8e57600080fd5b505afa158015611ca2573d6000803e3d6000fd5b505050506040513d601f19601f82011682018060405250810190611cc6919061251f565b8352604051630cc7d40f60e11b81526001600160a01b0383169063198fa81e90611cf4908e90600401612744565b60206040518083038186803b158015611d0c57600080fd5b505afa158015611d20573d6000803e3d6000fd5b505050506040513d601f19601f82011682018060405250810190611d44919061251f565b6020808501919091526101208601516001600160a01b03908116604080870191909152838216606087018190529185166080870152805163313ce56760e01b81529051919263313ce56792600480840193829003018186803b158015611da957600080fd5b505afa158015611dbd573d6000803e3d6000fd5b505050506040513d601f19601f82011682018060405250810190611de19190612564565b60ff1660a0840152505b505b80858581518110611e0e57634e487b7160e01b600052603260045260246000fd5b602002602001015160400181905250611e256121c7565b8361010001516001600160a01b03166375d264136040518163ffffffff1660e01b815260040160206040518083038186803b158015611e6357600080fd5b505afa925050508015611e93575060408051601f3d908101601f19168201909252611e90918101906122d1565b60015b611ecd573d808015611ec1576040519150601f19603f3d011682016040523d82523d6000602084013e611ec6565b606091505b50506120fb565b6001600160a01b038116156120f9576000816001600160a01b03166399248ea76040518163ffffffff1660e01b815260040160206040518083038186803b158015611f1757600080fd5b505afa158015611f2b573d6000803e3d6000fd5b505050506040513d601f19601f82011682018060405250810190611f4f91906122d1565b9050816001600160a01b0316633373ee4c8d8861010001516040518363ffffffff1660e01b8152600401611f84929190612758565b60206040518083038186803b158015611f9c57600080fd5b505afa158015611fb0573d6000803e3d6000fd5b505050506040513d601f19601f82011682018060405250810190611fd4919061251f565b8352604051630cc7d40f60e11b81526001600160a01b0383169063198fa81e90612002908f90600401612744565b60206040518083038186803b15801561201a57600080fd5b505afa15801561202e573d6000803e3d6000fd5b505050506040513d601f19601f82011682018060405250810190612052919061251f565b6020808501919091526101008701516001600160a01b03908116604080870191909152838216606087018190529185166080870152805163313ce56760e01b81529051919263313ce56792600480840193829003018186803b1580156120b757600080fd5b505afa1580156120cb573d6000803e3d6000fd5b505050506040513d601f19601f820116820180604052508101906120ef9190612564565b60ff1660a0840152505b505b8086868151811061211c57634e487b7160e01b600052603260045260246000fd5b60200260200101516060018190525050505050808061213a906127f0565b9150506116f1565b5095945050505050565b604051806080016040528060006001600160a01b0316815260200161216f6121fc565b815260200161217c6121fc565b81526020016121896121fc565b905290565b604051806080016040528060006001600160a01b031681526020016121b16121c7565b81526020016121be6121c7565b81526020016121895b6040805160c081018252600080825260208201819052918101829052606081018290526080810182905260a081019190915290565b6040805161012081018252600080825260208201819052918101829052606081018290526080810182905260a0810182905260c0810182905260e0810182905261010081019190915290565b80516100f28161282d565b600060208284031215612264578081fd5b6040516020810181811067ffffffffffffffff8211171561228757612287612817565b6040529151825250919050565b80516001600160801b03811681146100f257600080fd5b805164ffffffffff811681146100f257600080fd5b805160ff811681146100f257600080fd5b6000602082840312156122e2578081fd5b81516100dd8161282d565b600060208083850312156122ff578182fd5b825167ffffffffffffffff80821115612316578384fd5b818501915085601f830112612329578384fd5b81518181111561233b5761233b612817565b838102915061234b8483016127c6565b8181528481019084860184860187018a1015612365578788fd5b8795505b83861015612393578051945061237e8561282d565b84835260019590950194918601918601612369565b5098975050505050505050565b6000602082840312156123b1578081fd5b81356100dd8161282d565b600080604083850312156123ce578081fd5b82356123d98161282d565b915060208301356123e98161282d565b809150509250929050565b6000610180808385031215612407578182fd5b612410816127c6565b905061241c8484612253565b815261242a60208401612294565b602082015261243b60408401612294565b604082015261244c60608401612294565b606082015261245d60808401612294565b608082015261246e60a08401612294565b60a082015261247f60c084016122ab565b60c082015261249060e08401612248565b60e08201526101006124a3818501612248565b908201526101206124b5848201612248565b908201526101406124c7848201612248565b908201526101606124d98482016122c0565b908201529392505050565b6000806000606084860312156124f8578081fd5b61250184612294565b925061250f60208501612294565b9150604084015190509250925092565b600060208284031215612530578081fd5b5051919050565b60008060006060848603121561254b578283fd5b8351925060208401519150604084015190509250925092565b600060208284031215612575578081fd5b6100dd826122c0565b6000815180845260208085019450808401835b838110156125f457815180516001600160a01b03168852838101516125b8858a0182612674565b5060408101516125cc6101408a0182612674565b50606001516125df610260890182612674565b50610380969096019590820190600101612591565b509495945050505050565b6000815180845260208085019450808401835b838110156125f457815180516001600160a01b0316885283810151612639858a01826126f0565b50604081015161264c60e08a01826126f0565b506060015161265f6101a08901826126f0565b50610260969096019590820190600101612612565b80518252602081015160208301526040810151604083015260608101516060830152608081015160018060a01b0380821660808501528060a08401511660a08501528060c08401511660c0850152505060e08101516126d660e084018261273d565b50610100808201516126ea8285018261273d565b50505050565b8051825260208101516020830152604081015160018060a01b038082166040850152806060840151166060850152806080840151166080850152505060ff60a08201511660a08301525050565b60ff169052565b6001600160a01b0391909116815260200190565b6001600160a01b0392831681529116602082015260400190565b6000602082526100dd602083018461257e565b600060408252612798604083018561257e565b82810360208401526127aa81856125ff565b95945050505050565b6000602082526100dd60208301846125ff565b60405181810167ffffffffffffffff811182821017156127e8576127e8612817565b604052919050565b600060001982141561281057634e487b7160e01b81526011600452602481fd5b5060010190565b634e487b7160e01b600052604160045260246000fd5b6001600160a01b038116811461284257600080fd5b5056fea2646970667358221220f21c108b06541c8d48aa6972294a877afb71e4c72d5382222310e540f83deb1c64736f6c63430008000033",
  "linkReferences": {},
  "deployedLinkReferences": {}
}