{
  "_format": "hh-sol-artifact-1",
  "contractName": "FlashLiquidationAdapter",
  "sourceName": "contracts/adapters/FlashLiquidationAdapter.sol",
  "abi": [
    {
      "inputs": [
        {
          "internalType": "contract ILendingPoolAddressesProvider",
          "name": "addressesProvider",
          "type": "address"
        },
        {
          "internalType": "contract IUniswapV2Router02",
          "name": "uniswapRouter",
          "type": "address"
        },
        {
          "internalType": "address",
          "name": "wethAddress",
          "type": "address"
        }
      ],
      "stateMutability": "nonpayable",
      "type": "constructor"
    },
    {
      "anonymous": false,
      "inputs": [
        {
          "indexed": true,
          "internalType": "address",
          "name": "previousOwner",
          "type": "address"
        },
        {
          "indexed": true,
          "internalType": "address",
          "name": "newOwner",
          "type": "address"
        }
      ],
      "name": "OwnershipTransferred",
      "type": "event"
    },
    {
      "anonymous": false,
      "inputs": [
        {
          "indexed": false,
          "internalType": "address",
          "name": "fromAsset",
          "type": "address"
        },
        {
          "indexed": false,
          "internalType": "address",
          "name": "toAsset",
          "type": "address"
        },
        {
          "indexed": false,
          "internalType": "uint256",
          "name": "fromAmount",
          "type": "uint256"
        },
        {
          "indexed": false,
          "internalType": "uint256",
          "name": "receivedAmount",
          "type": "uint256"
        }
      ],
      "name": "Swapped",
      "type": "event"
    },
    {
      "inputs": [],
      "name": "ADDRESSES_PROVIDER",
      "outputs": [
        {
          "internalType": "contract ILendingPoolAddressesProvider",
          "name": "",
          "type": "address"
        }
      ],
      "stateMutability": "view",
      "type": "function"
    },
    {
      "inputs": [],
      "name": "FLASHLOAN_PREMIUM_TOTAL",
      "outputs": [
        {
          "internalType": "uint256",
          "name": "",
          "type": "uint256"
        }
      ],
      "stateMutability": "view",
      "type": "function"
    },
    {
      "inputs": [],
      "name": "LENDING_POOL",
      "outputs": [
        {
          "internalType": "contract ILendingPool",
          "name": "",
          "type": "address"
        }
      ],
      "stateMutability": "view",
      "type": "function"
    },
    {
      "inputs": [],
      "name": "MAX_SLIPPAGE_PERCENT",
      "outputs": [
        {
          "internalType": "uint256",
          "name": "",
          "type": "uint256"
        }
      ],
      "stateMutability": "view",
      "type": "function"
    },
    {
      "inputs": [],
      "name": "ORACLE",
      "outputs": [
        {
          "internalType": "contract IPriceOracleGetter",
          "name": "",
          "type": "address"
        }
      ],
      "stateMutability": "view",
      "type": "function"
    },
    {
      "inputs": [],
      "name": "UNISWAP_ROUTER",
      "outputs": [
        {
          "internalType": "contract IUniswapV2Router02",
          "name": "",
          "type": "address"
        }
      ],
      "stateMutability": "view",
      "type": "function"
    },
    {
      "inputs": [],
      "name": "USD_ADDRESS",
      "outputs": [
        {
          "internalType": "address",
          "name": "",
          "type": "address"
        }
      ],
      "stateMutability": "view",
      "type": "function"
    },
    {
      "inputs": [],
      "name": "WETH_ADDRESS",
      "outputs": [
        {
          "internalType": "address",
          "name": "",
          "type": "address"
        }
      ],
      "stateMutability": "view",
      "type": "function"
    },
    {
      "inputs": [
        {
          "internalType": "address[]",
          "name": "assets",
          "type": "address[]"
        },
        {
          "internalType": "uint256[]",
          "name": "amounts",
          "type": "uint256[]"
        },
        {
          "internalType": "uint256[]",
          "name": "premiums",
          "type": "uint256[]"
        },
        {
          "internalType": "address",
          "name": "initiator",
          "type": "address"
        },
        {
          "internalType": "bytes",
          "name": "params",
          "type": "bytes"
        }
      ],
      "name": "executeOperation",
      "outputs": [
        {
          "internalType": "bool",
          "name": "",
          "type": "bool"
        }
      ],
      "stateMutability": "nonpayable",
      "type": "function"
    },
    {
      "inputs": [
        {
          "internalType": "uint256",
          "name": "amountOut",
          "type": "uint256"
        },
        {
          "internalType": "address",
          "name": "reserveIn",
          "type": "address"
        },
        {
          "internalType": "address",
          "name": "reserveOut",
          "type": "address"
        }
      ],
      "name": "getAmountsIn",
      "outputs": [
        {
          "internalType": "uint256",
          "name": "",
          "type": "uint256"
        },
        {
          "internalType": "uint256",
          "name": "",
          "type": "uint256"
        },
        {
          "internalType": "uint256",
          "name": "",
          "type": "uint256"
        },
        {
          "internalType": "uint256",
          "name": "",
          "type": "uint256"
        },
        {
          "internalType": "address[]",
          "name": "",
          "type": "address[]"
        }
      ],
      "stateMutability": "view",
      "type": "function"
    },
    {
      "inputs": [
        {
          "internalType": "uint256",
          "name": "amountIn",
          "type": "uint256"
        },
        {
          "internalType": "address",
          "name": "reserveIn",
          "type": "address"
        },
        {
          "internalType": "address",
          "name": "reserveOut",
          "type": "address"
        }
      ],
      "name": "getAmountsOut",
      "outputs": [
        {
          "internalType": "uint256",
          "name": "",
          "type": "uint256"
        },
        {
          "internalType": "uint256",
          "name": "",
          "type": "uint256"
        },
        {
          "internalType": "uint256",
          "name": "",
          "type": "uint256"
        },
        {
          "internalType": "uint256",
          "name": "",
          "type": "uint256"
        },
        {
          "internalType": "address[]",
          "name": "",
          "type": "address[]"
        }
      ],
      "stateMutability": "view",
      "type": "function"
    },
    {
      "inputs": [],
      "name": "owner",
      "outputs": [
        {
          "internalType": "address",
          "name": "",
          "type": "address"
        }
      ],
      "stateMutability": "view",
      "type": "function"
    },
    {
      "inputs": [],
      "name": "renounceOwnership",
      "outputs": [],
      "stateMutability": "nonpayable",
      "type": "function"
    },
    {
      "inputs": [
        {
          "internalType": "contract IERC20",
          "name": "token",
          "type": "address"
        }
      ],
      "name": "rescueTokens",
      "outputs": [],
      "stateMutability": "nonpayable",
      "type": "function"
    },
    {
      "inputs": [
        {
          "internalType": "address",
          "name": "newOwner",
          "type": "address"
        }
      ],
      "name": "transferOwnership",
      "outputs": [],
      "stateMutability": "nonpayable",
      "type": "function"
    }
  ],
  "bytecode": "0x6101206040523480156200001257600080fd5b5060405162002d7f38038062002d7f8339810160408190526200003591620001fd565b82828282806001600160a01b03166080816001600160a01b031660601b81525050806001600160a01b0316630261bf8b6040518163ffffffff1660e01b815260040160206040518083038186803b1580156200009057600080fd5b505afa158015620000a5573d6000803e3d6000fd5b505050506040513d601f19601f82011682018060405250810190620000cb9190620001d7565b60601b6001600160601b03191660a052506000620000e8620001d3565b600080546001600160a01b0319166001600160a01b0383169081178255604051929350917f8be0079c531659141344cd1fd0a4f28419497f9722a3daafe3b4186f6b6457e0908290a350826001600160a01b031663fca513a86040518163ffffffff1660e01b815260040160206040518083038186803b1580156200016c57600080fd5b505afa15801562000181573d6000803e3d6000fd5b505050506040513d601f19601f82011682018060405250810190620001a79190620001d7565b6001600160601b0319606091821b811660e05292811b8316610100521b1660c052506200026992505050565b3390565b600060208284031215620001e9578081fd5b8151620001f68162000250565b9392505050565b60008060006060848603121562000212578182fd5b83516200021f8162000250565b6020850151909350620002328162000250565b6040850151909250620002458162000250565b809150509250925092565b6001600160a01b03811681146200026657600080fd5b50565b60805160601c60a05160601c60c05160601c60e05160601c6101005160601c612a3d620003426000396000818161064d0152818161100a015281816110fe0152818161169b0152818161173d0152818161198d01528181611e190152611f0a015260008181610384015261206401526000818161033101528181610ea801528181610ee501528181610f630152818161182701528181611cb701528181611cf40152611d72015260008181610441015281816105d4015281816108ef015281816109820152610bc2015260006103550152612a3d6000f3fe608060405234801561001057600080fd5b50600436106100f45760003560e01c80638da5cb5b11610097578063baf7fa9911610066578063baf7fa9914610199578063cdf58cd6146101bd578063d8264920146101d0578063f2fde38b146101d8576100f4565b80638da5cb5b14610161578063920f5c84146101695780639d1211bf14610189578063b4dcfc7714610191576100f4565b8063074b2e43116100d3578063074b2e431461013457806332e4b2861461014957806338013f0214610151578063715018a614610159576100f4565b8062ae3bf8146100f9578063040141e51461010e5780630542975c1461012c575b600080fd5b61010c61010736600461228b565b6101eb565b005b61011661032f565b604051610123919061259b565b60405180910390f35b610116610353565b61013c610377565b60405161012391906127a5565b61013c61037c565b610116610382565b61010c6103a6565b610116610425565b61017c61017736600461230d565b610434565b6040516101239190612625565b6101166105ba565b6101166105d2565b6101ac6101a73660046124f6565b6105f6565b60405161012395949392919061280b565b6101ac6101cb3660046124f6565b610636565b61011661064b565b61010c6101e636600461228b565b61066f565b6101f3610725565b6000546001600160a01b039081169116146102295760405162461bcd60e51b815260040161022090612743565b60405180910390fd5b806001600160a01b031663a9059cbb610240610425565b6040516370a0823160e01b81526001600160a01b038516906370a082319061026c90309060040161259b565b60206040518083038186803b15801561028457600080fd5b505afa158015610298573d6000803e3d6000fd5b505050506040513d601f19601f820116820180604052508101906102bc91906124de565b6040518363ffffffff1660e01b81526004016102d992919061260c565b602060405180830381600087803b1580156102f357600080fd5b505af1158015610307573d6000803e3d6000fd5b505050506040513d601f19601f8201168201806040525081019061032b91906124c4565b5050565b7f000000000000000000000000000000000000000000000000000000000000000081565b7f000000000000000000000000000000000000000000000000000000000000000081565b600981565b610bb881565b7f000000000000000000000000000000000000000000000000000000000000000081565b6103ae610725565b6000546001600160a01b039081169116146103db5760405162461bcd60e51b815260040161022090612743565b600080546040516001600160a01b03909116907f8be0079c531659141344cd1fd0a4f28419497f9722a3daafe3b4186f6b6457e0908390a3600080546001600160a01b0319169055565b6000546001600160a01b031690565b6000336001600160a01b037f0000000000000000000000000000000000000000000000000000000000000000161461047e5760405162461bcd60e51b815260040161022090612683565b60006104bf84848080601f01602080910402602001604051908101604052809392919081815260200183838082843760009201919091525061072992505050565b905060018a14801561051b575080602001516001600160a01b03168b8b60008181106104fb57634e487b7160e01b600052603260045260246000fd5b9050602002016020810190610510919061228b565b6001600160a01b0316145b6105375760405162461bcd60e51b815260040161022090612778565b6105a9816000015182602001518360400151846060015185608001518e8e600081811061057457634e487b7160e01b600052603260045260246000fd5b905060200201358d8d600081811061059c57634e487b7160e01b600052603260045260246000fd5b905060200201358c610791565b5060019a9950505050505050505050565b7310f7fc1f91ba351f9c629c5947ad69bd03c05b9681565b7f000000000000000000000000000000000000000000000000000000000000000081565b6000806000806060600061060b88888b610cd8565b8051602082015160408301516060840151608090940151929d919c509a509198509650945050505050565b6000806000806060600061060b88888b611394565b7f000000000000000000000000000000000000000000000000000000000000000081565b610677610725565b6000546001600160a01b039081169116146106a45760405162461bcd60e51b815260040161022090612743565b6001600160a01b0381166106ca5760405162461bcd60e51b8152600401610220906126ba565b600080546040516001600160a01b03808516939216917f8be0079c531659141344cd1fd0a4f28419497f9722a3daafe3b4186f6b6457e091a3600080546001600160a01b0319166001600160a01b0392909216919091179055565b3390565b610731612190565b60008060008060008680602001905181019061074d91906122a7565b6040805160a0810182526001600160a01b0396871681529486166020860152929094169183019190915260608201529015156080820152955050505050505b919050565b6107996121be565b6040516370a0823160e01b81526001600160a01b038a16906370a08231906107c590309060040161259b565b60206040518083038186803b1580156107dd57600080fd5b505afa1580156107f1573d6000803e3d6000fd5b505050506040513d601f19601f8201168201806040525081019061081591906124de565b60408201526001600160a01b03898116908916146108bc576040516370a0823160e01b81526001600160a01b038916906370a082319061085990309060040161259b565b60206040518083038186803b15801561087157600080fd5b505afa158015610885573d6000803e3d6000fd5b505050506040513d601f19601f820116820180604052508101906108a991906124de565b8082526108b690856115b0565b60e08201525b6108c684846115c5565b608082015260405163095ea7b360e01b81526001600160a01b0389169063095ea7b390610919907f0000000000000000000000000000000000000000000000000000000000000000908a9060040161260c565b602060405180830381600087803b15801561093357600080fd5b505af1158015610947573d6000803e3d6000fd5b505050506040513d601f19601f8201168201806040525081019061096b91906124c4565b5060405162a718a960e01b81526001600160a01b037f0000000000000000000000000000000000000000000000000000000000000000169062a718a9906109bf908c908c908c908c906000906004016125af565b600060405180830381600087803b1580156109d957600080fd5b505af11580156109ed573d6000803e3d6000fd5b50506040516370a0823160e01b8152600092506001600160a01b038c1691506370a0823190610a2090309060040161259b565b60206040518083038186803b158015610a3857600080fd5b505afa158015610a4c573d6000803e3d6000fd5b505050506040513d601f19601f82011682018060405250810190610a7091906124de565b9050610a898260400151826115b090919063ffffffff16565b60608301526001600160a01b038a8116908a1614610b84576040516370a0823160e01b81526000906001600160a01b038b16906370a0823190610ad090309060040161259b565b60206040518083038186803b158015610ae857600080fd5b505afa158015610afc573d6000803e3d6000fd5b505050506040513d601f19601f82011682018060405250810190610b2091906124de565b9050610b398360e00151826115b090919063ffffffff16565b6020840181905260608401516080850151610b64928e928e929091610b5e91906115b0565b8b6115d1565b60a084018190526060840151610b79916115b0565b60c084015250610b99565b6060820151610b9390856115b0565b60c08301525b608082015160405163095ea7b360e01b81526001600160a01b038b169163095ea7b391610bea917f00000000000000000000000000000000000000000000000000000000000000009160040161260c565b602060405180830381600087803b158015610c0457600080fd5b505af1158015610c18573d6000803e3d6000fd5b505050506040513d601f19601f82011682018060405250810190610c3c91906124c4565b5060c082015115610ccc5760c082015160405163a9059cbb60e01b81526001600160a01b038c169163a9059cbb91610c7891879160040161260c565b602060405180830381600087803b158015610c9257600080fd5b505af1158015610ca6573d6000803e3d6000fd5b505050506040513d601f19601f82011682018060405250810190610cca91906124c4565b505b50505050505050505050565b610ce0612203565b6000610d03610cfc612710610cf6866009611af6565b90611b02565b84906115b0565b9050836001600160a01b0316856001600160a01b03161415610de3576000610d2a86611b0e565b60408051600180825281830190925291925060009190602080830190803683370190505090508681600081518110610d7257634e487b7160e01b600052603260045260246000fd5b6001600160a01b039092166020928302919091018201526040805160a08101909152848152908101610db087610cf687670de0b6b3a7640000611af6565b8152602001610dc0898886611b8a565b8152602001610dd0898686611b8a565b815260200182815250935050505061138d565b6040805160028082526060820183526000926020830190803683370190505090508581600081518110610e2657634e487b7160e01b600052603260045260246000fd5b60200260200101906001600160a01b031690816001600160a01b0316815250508481600181518110610e6857634e487b7160e01b600052603260045260246000fd5b6001600160a01b039290921660209283029190910182015260408051600380825260808201909252606092839260009291820184803683370190505090507f00000000000000000000000000000000000000000000000000000000000000006001600160a01b0316896001600160a01b031614158015610f1a57507f00000000000000000000000000000000000000000000000000000000000000006001600160a01b0316886001600160a01b031614155b156110c2578881600081518110610f4157634e487b7160e01b600052603260045260246000fd5b60200260200101906001600160a01b031690816001600160a01b0316815250507f000000000000000000000000000000000000000000000000000000000000000081600181518110610fa357634e487b7160e01b600052603260045260246000fd5b60200260200101906001600160a01b031690816001600160a01b0316815250508781600281518110610fe557634e487b7160e01b600052603260045260246000fd5b6001600160a01b03928316602091820292909201015260405163d06ca61f60e01b81527f00000000000000000000000000000000000000000000000000000000000000009091169063d06ca61f9061104390889085906004016127ae565b60006040518083038186803b15801561105b57600080fd5b505afa92505050801561109057506040513d6000823e601f3d908101601f1916820160405261108d919081019061240a565b60015b6110ba576040805160038082526080820190925290602082016060803683370190505091506110bd565b91505b6110e4565b6040805160038082526080820190925290602082016060803683370190505091505b60405163d06ca61f60e01b81526000906001600160a01b037f0000000000000000000000000000000000000000000000000000000000000000169063d06ca61f9061113590899089906004016127ae565b60006040518083038186803b15801561114d57600080fd5b505afa92505050801561118257506040513d6000823e601f3d908101601f1916820160405261117f919081019061240a565b60015b6111d6576040805160028082526060820183529091602083019080368337019050509350826002815181106111c757634e487b7160e01b600052603260045260246000fd5b6020026020010151905061128c565b809450846001815181106111fa57634e487b7160e01b600052603260045260246000fd5b60200260200101518460028151811061122357634e487b7160e01b600052603260045260246000fd5b60200260200101511161125e578460018151811061125157634e487b7160e01b600052603260045260246000fd5b6020026020010151611288565b8360028151811061127f57634e487b7160e01b600052603260045260246000fd5b60200260200101515b9150505b60006112978b611b0e565b905060006112a48b611b0e565b905060006112e66112c06112b985600a6128bf565b8690611af6565b610cf66112ce85600a6128bf565b6112e08d670de0b6b3a7640000611af6565b90611af6565b90506040518060a0016040528085815260200182815260200161130a8f8e87611b8a565b815260200161131a8e8786611b8a565b81526020018515611361578860018151811061134657634e487b7160e01b600052603260045260246000fd5b6020026020010151861461135a578661135c565b895b61137f565b60408051600280825260608201835290916020830190803683375050505b905299505050505050505050505b9392505050565b61139c612203565b826001600160a01b0316846001600160a01b031614156114865760006113d36113cc612710610cf6866009611af6565b84906115c5565b905060006113e086611b0e565b6040805160018082528183019092529192506000919060208083019080368337019050509050868160008151811061142857634e487b7160e01b600052603260045260246000fd5b6001600160a01b039092166020928302919091018201526040805160a0810190915284815290810161146685610cf689670de0b6b3a7640000611af6565b8152602001611476898686611b8a565b8152602001610dd0898886611b8a565b600080611494868686611beb565b9150915060006115166114df612710610cf66009876000815181106114c957634e487b7160e01b600052603260045260246000fd5b6020026020010151611af690919063ffffffff16565b8460008151811061150057634e487b7160e01b600052603260045260246000fd5b60200260200101516115c590919063ffffffff16565b9050600061152388611b0e565b9050600061153088611b0e565b905060006115656115456112b984600a6128bf565b610cf661155386600a6128bf565b6112e08c670de0b6b3a7640000611af6565b90506040518060a001604052808581526020018281526020016115898c8787611b8a565b81526020016115998b8b86611b8a565b815260200195909552509298975050505050505050565b60006115bc82846129ac565b90505b92915050565b60006115bc8284612841565b6000806115dd87611b0e565b905060006115ea87611b0e565b905060006115f78961204a565b905060006116048961204a565b90506000611656611619612710610bb86115c5565b61165061163161162a88600a6128bf565b8790611af6565b610cf66116496116428b600a6128bf565b8890611af6565b8d90611af6565b906120e9565b90508089106116775760405162461bcd60e51b815260040161022090612700565b60405163095ea7b360e01b81526001600160a01b038c169063095ea7b3906116c6907f00000000000000000000000000000000000000000000000000000000000000009060009060040161260c565b602060405180830381600087803b1580156116e057600080fd5b505af11580156116f4573d6000803e3d6000fd5b505050506040513d601f19601f8201168201806040525081019061171891906124c4565b5060405163095ea7b360e01b81526001600160a01b038c169063095ea7b390611767907f0000000000000000000000000000000000000000000000000000000000000000908d9060040161260c565b602060405180830381600087803b15801561178157600080fd5b505af1158015611795573d6000803e3d6000fd5b505050506040513d601f19601f820116820180604052508101906117b991906124c4565b50606087156118ce576040805160038082526080820190925290602082016060803683370190505090508b8160008151811061180557634e487b7160e01b600052603260045260246000fd5b60200260200101906001600160a01b031690816001600160a01b0316815250507f00000000000000000000000000000000000000000000000000000000000000008160018151811061186757634e487b7160e01b600052603260045260246000fd5b60200260200101906001600160a01b031690816001600160a01b0316815250508a816002815181106118a957634e487b7160e01b600052603260045260246000fd5b60200260200101906001600160a01b031690816001600160a01b031681525050611973565b60408051600280825260608201835290916020830190803683370190505090508b8160008151811061191057634e487b7160e01b600052603260045260246000fd5b60200260200101906001600160a01b031690816001600160a01b0316815250508a8160018151811061195257634e487b7160e01b600052603260045260246000fd5b60200260200101906001600160a01b031690816001600160a01b0316815250505b604051634401edf760e11b81526000906001600160a01b037f00000000000000000000000000000000000000000000000000000000000000001690638803dbee906119ca908d908f908790309042906004016127cf565b600060405180830381600087803b1580156119e457600080fd5b505af11580156119f8573d6000803e3d6000fd5b505050506040513d6000823e601f3d908101601f19168201604052611a20919081019061240a565b90507fa078c4190abe07940190effc1846be0ccf03ad6007bc9e93f9697d0b460befbb8d8d83600081518110611a6657634e487b7160e01b600052603260045260246000fd5b60200260200101518460018651611a7d91906129ac565b81518110611a9b57634e487b7160e01b600052603260045260246000fd5b6020026020010151604051611ab394939291906125e3565b60405180910390a180600081518110611adc57634e487b7160e01b600052603260045260246000fd5b602002602001015197505050505050505095945050505050565b60006115bc828461298d565b60006115bc8284612859565b6000816001600160a01b031663313ce5676040518163ffffffff1660e01b815260040160206040518083038186803b158015611b4957600080fd5b505afa158015611b5d573d6000803e3d6000fd5b505050506040513d601f19601f82011682018060405250810190611b819190612537565b60ff1692915050565b600080611baa7310f7fc1f91ba351f9c629c5947ad69bd03c05b9661204a565b90506000611bb78661204a565b9050611be1670de0b6b3a7640000610cf6846112e0611bd789600a6128bf565b610cf68b88611af6565b9695505050505050565b604080516002808252606082810190935282916000918160200160208202803683370190505090508581600081518110611c3557634e487b7160e01b600052603260045260246000fd5b60200260200101906001600160a01b031690816001600160a01b0316815250508481600181518110611c7757634e487b7160e01b600052603260045260246000fd5b6001600160a01b039290921660209283029190910182015260408051600380825260808201909252606092839260009291820184803683370190505090507f00000000000000000000000000000000000000000000000000000000000000006001600160a01b0316896001600160a01b031614158015611d2957507f00000000000000000000000000000000000000000000000000000000000000006001600160a01b0316886001600160a01b031614155b15611ed1578881600081518110611d5057634e487b7160e01b600052603260045260246000fd5b60200260200101906001600160a01b031690816001600160a01b0316815250507f000000000000000000000000000000000000000000000000000000000000000081600181518110611db257634e487b7160e01b600052603260045260246000fd5b60200260200101906001600160a01b031690816001600160a01b0316815250508781600281518110611df457634e487b7160e01b600052603260045260246000fd5b6001600160a01b0392831660209182029290920101526040516307c0329d60e21b81527f000000000000000000000000000000000000000000000000000000000000000090911690631f00ca7490611e52908a9085906004016127ae565b60006040518083038186803b158015611e6a57600080fd5b505afa925050508015611e9f57506040513d6000823e601f3d908101601f19168201604052611e9c919081019061240a565b60015b611ec957604080516003808252608082019092529060208201606080368337019050509150611ecc565b91505b611ef3565b6040805160038082526080820190925290602082016060803683370190505091505b6040516307c0329d60e21b81526001600160a01b037f00000000000000000000000000000000000000000000000000000000000000001690631f00ca7490611f41908a9088906004016127ae565b60006040518083038186803b158015611f5957600080fd5b505afa925050508015611f8e57506040513d6000823e601f3d908101601f19168201604052611f8b919081019061240a565b60015b611f9f579094509250612042915050565b80935083600081518110611fc357634e487b7160e01b600052603260045260246000fd5b602002602001015183600081518110611fec57634e487b7160e01b600052603260045260246000fd5b602002602001015110801561202a57508260008151811061201d57634e487b7160e01b600052603260045260246000fd5b6020026020010151600014155b612035578385612038565b82825b9650965050505050505b935093915050565b60405163b3596f0760e01b81526000906001600160a01b037f0000000000000000000000000000000000000000000000000000000000000000169063b3596f079061209990859060040161259b565b60206040518083038186803b1580156120b157600080fd5b505afa1580156120c5573d6000803e3d6000fd5b505050506040513d601f19601f820116820180604052508101906115bf91906124de565b60008215806120f6575081155b15612103575060006115bf565b816121116002612710612859565b61211d906000196129ac565b6121279190612859565b83111560405180604001604052806002815260200161068760f31b815250906121635760405162461bcd60e51b81526004016102209190612630565b50612710612172600282612859565b61217c848661298d565b6121869190612841565b6115bc9190612859565b6040805160a08101825260008082526020820181905291810182905260608101829052608081019190915290565b60405180610100016040528060008152602001600081526020016000815260200160008152602001600081526020016000815260200160008152602001600081525090565b6040518060a0016040528060008152602001600081526020016000815260200160008152602001606081525090565b60008083601f840112612243578081fd5b50813567ffffffffffffffff81111561225a578182fd5b602083019150836020808302850101111561227457600080fd5b9250929050565b8051801515811461078c57600080fd5b60006020828403121561229c578081fd5b813561138d816129ef565b600080600080600060a086880312156122be578081fd5b85516122c9816129ef565b60208701519095506122da816129ef565b60408701519094506122eb816129ef565b606087015190935091506123016080870161227b565b90509295509295909350565b600080600080600080600080600060a08a8c03121561232a578384fd5b893567ffffffffffffffff80821115612341578586fd5b61234d8d838e01612232565b909b50995060208c0135915080821115612365578586fd5b6123718d838e01612232565b909950975060408c0135915080821115612389578586fd5b6123958d838e01612232565b909750955060608c013591506123aa826129ef565b90935060808b013590808211156123bf578384fd5b818c0191508c601f8301126123d2578384fd5b8135818111156123e0578485fd5b8d60208285010111156123f1578485fd5b6020830194508093505050509295985092959850929598565b6000602080838503121561241c578182fd5b825167ffffffffffffffff80821115612433578384fd5b818501915085601f830112612446578384fd5b815181811115612458576124586129d9565b83810260405185828201018181108582111715612477576124776129d9565b604052828152858101935084860182860187018a1015612495578788fd5b8795505b838610156124b7578051855260019590950194938601938601612499565b5098975050505050505050565b6000602082840312156124d5578081fd5b6115bc8261227b565b6000602082840312156124ef578081fd5b5051919050565b60008060006060848603121561250a578283fd5b83359250602084013561251c816129ef565b9150604084013561252c816129ef565b809150509250925092565b600060208284031215612548578081fd5b815160ff8116811461138d578182fd5b6000815180845260208085019450808401835b838110156125905781516001600160a01b03168752958201959082019060010161256b565b509495945050505050565b6001600160a01b0391909116815260200190565b6001600160a01b03958616815293851660208501529190931660408301526060820192909252901515608082015260a00190565b6001600160a01b0394851681529290931660208301526040820152606081019190915260800190565b6001600160a01b03929092168252602082015260400190565b901515815260200190565b6000602080835283518082850152825b8181101561265c57858101830151858201604001528201612640565b8181111561266d5783604083870101525b50601f01601f1916929092016040019392505050565b6020808252601b908201527f43414c4c45525f4d5553545f42455f4c454e44494e475f504f4f4c0000000000604082015260600190565b60208082526026908201527f4f776e61626c653a206e6577206f776e657220697320746865207a65726f206160408201526564647265737360d01b606082015260800190565b60208082526023908201527f6d6178416d6f756e74546f5377617020657863656564206d617820736c69707060408201526261676560e81b606082015260800190565b6020808252818101527f4f776e61626c653a2063616c6c6572206973206e6f7420746865206f776e6572604082015260600190565b602080825260139082015272494e434f4e53495354454e545f504152414d5360681b604082015260600190565b90815260200190565b6000838252604060208301526127c76040830184612558565b949350505050565b600086825285602083015260a060408301526127ee60a0830186612558565b6001600160a01b0394909416606083015250608001529392505050565b600086825285602083015284604083015283606083015260a0608083015261283660a0830184612558565b979650505050505050565b60008219821115612854576128546129c3565b500190565b60008261287457634e487b7160e01b81526012600452602481fd5b500490565b80825b600180861161288b57506128b6565b81870482111561289d5761289d6129c3565b808616156128aa57918102915b9490941c93800261287c565b94509492505050565b60006115bc60001984846000826128d85750600161138d565b816128e55750600061138d565b81600181146128fb576002811461290557612932565b600191505061138d565b60ff841115612916576129166129c3565b6001841b91508482111561292c5761292c6129c3565b5061138d565b5060208310610133831016604e8410600b8410161715612965575081810a83811115612960576129606129c3565b61138d565b6129728484846001612879565b808604821115612984576129846129c3565b02949350505050565b60008160001904831182151516156129a7576129a76129c3565b500290565b6000828210156129be576129be6129c3565b500390565b634e487b7160e01b600052601160045260246000fd5b634e487b7160e01b600052604160045260246000fd5b6001600160a01b0381168114612a0457600080fd5b5056fea2646970667358221220ca214bb5519e4b9025385eb95b0217901c521a51ab15d3201156bd8ecb975b8864736f6c63430008000033",
  "linkReferences": {},
  "deployedLinkReferences": {}
}