{
  "_format": "hh-sol-artifact-1",
  "contractName": "Errors",
  "sourceName": "contracts/protocol/libraries/helpers/Errors.sol",
  "abi": [
    {
      "inputs": [],
      "name": "BORROW_ALLOWANCE_NOT_ENOUGH",
      "outputs": [
        {
          "internalType": "string",
          "name": "",
          "type": "string"
        }
      ],
      "stateMutability": "view",
      "type": "function"
    },
    {
      "inputs": [],
      "name": "CALLER_NOT_POOL_ADMIN",
      "outputs": [
        {
          "internalType": "string",
          "name": "",
          "type": "string"
        }
      ],
      "stateMutability": "view",
      "type": "function"
    },
    {
      "inputs": [],
      "name": "CT_CALLER_MUST_BE_LENDING_POOL",
      "outputs": [
        {
          "internalType": "string",
          "name": "",
          "type": "string"
        }
      ],
      "stateMutability": "view",
      "type": "function"
    },
    {
      "inputs": [],
      "name": "CT_CANNOT_GIVE_ALLOWANCE_TO_HIMSELF",
      "outputs": [
        {
          "internalType": "string",
          "name": "",
          "type": "string"
        }
      ],
      "stateMutability": "view",
      "type": "function"
    },
    {
      "inputs": [],
      "name": "CT_INVALID_BURN_AMOUNT",
      "outputs": [
        {
          "internalType": "string",
          "name": "",
          "type": "string"
        }
      ],
      "stateMutability": "view",
      "type": "function"
    },
    {
      "inputs": [],
      "name": "CT_INVALID_MINT_AMOUNT",
      "outputs": [
        {
          "internalType": "string",
          "name": "",
          "type": "string"
        }
      ],
      "stateMutability": "view",
      "type": "function"
    },
    {
      "inputs": [],
      "name": "CT_TRANSFER_AMOUNT_NOT_GT_0",
      "outputs": [
        {
          "internalType": "string",
          "name": "",
          "type": "string"
        }
      ],
      "stateMutability": "view",
      "type": "function"
    },
    {
      "inputs": [],
      "name": "LPAPR_INVALID_ADDRESSES_PROVIDER_ID",
      "outputs": [
        {
          "internalType": "string",
          "name": "",
          "type": "string"
        }
      ],
      "stateMutability": "view",
      "type": "function"
    },
    {
      "inputs": [],
      "name": "LPAPR_PROVIDER_NOT_REGISTERED",
      "outputs": [
        {
          "internalType": "string",
          "name": "",
          "type": "string"
        }
      ],
      "stateMutability": "view",
      "type": "function"
    },
    {
      "inputs": [],
      "name": "LPCM_COLLATERAL_CANNOT_BE_LIQUIDATED",
      "outputs": [
        {
          "internalType": "string",
          "name": "",
          "type": "string"
        }
      ],
      "stateMutability": "view",
      "type": "function"
    },
    {
      "inputs": [],
      "name": "LPCM_HEALTH_FACTOR_NOT_BELOW_THRESHOLD",
      "outputs": [
        {
          "internalType": "string",
          "name": "",
          "type": "string"
        }
      ],
      "stateMutability": "view",
      "type": "function"
    },
    {
      "inputs": [],
      "name": "LPCM_NOT_ENOUGH_LIQUIDITY_TO_LIQUIDATE",
      "outputs": [
        {
          "internalType": "string",
          "name": "",
          "type": "string"
        }
      ],
      "stateMutability": "view",
      "type": "function"
    },
    {
      "inputs": [],
      "name": "LPCM_NO_ERRORS",
      "outputs": [
        {
          "internalType": "string",
          "name": "",
          "type": "string"
        }
      ],
      "stateMutability": "view",
      "type": "function"
    },
    {
      "inputs": [],
      "name": "LPCM_SPECIFIED_CURRENCY_NOT_BORROWED_BY_USER",
      "outputs": [
        {
          "internalType": "string",
          "name": "",
          "type": "string"
        }
      ],
      "stateMutability": "view",
      "type": "function"
    },
    {
      "inputs": [],
      "name": "LPC_CALLER_NOT_EMERGENCY_ADMIN",
      "outputs": [
        {
          "internalType": "string",
          "name": "",
          "type": "string"
        }
      ],
      "stateMutability": "view",
      "type": "function"
    },
    {
      "inputs": [],
      "name": "LPC_INVALID_ADDRESSES_PROVIDER_ID",
      "outputs": [
        {
          "internalType": "string",
          "name": "",
          "type": "string"
        }
      ],
      "stateMutability": "view",
      "type": "function"
    },
    {
      "inputs": [],
      "name": "LPC_INVALID_ATOKEN_POOL_ADDRESS",
      "outputs": [
        {
          "internalType": "string",
          "name": "",
          "type": "string"
        }
      ],
      "stateMutability": "view",
      "type": "function"
    },
    {
      "inputs": [],
      "name": "LPC_INVALID_CONFIGURATION",
      "outputs": [
        {
          "internalType": "string",
          "name": "",
          "type": "string"
        }
      ],
      "stateMutability": "view",
      "type": "function"
    },
    {
      "inputs": [],
      "name": "LPC_INVALID_STABLE_DEBT_TOKEN_POOL_ADDRESS",
      "outputs": [
        {
          "internalType": "string",
          "name": "",
          "type": "string"
        }
      ],
      "stateMutability": "view",
      "type": "function"
    },
    {
      "inputs": [],
      "name": "LPC_INVALID_STABLE_DEBT_TOKEN_UNDERLYING_ADDRESS",
      "outputs": [
        {
          "internalType": "string",
          "name": "",
          "type": "string"
        }
      ],
      "stateMutability": "view",
      "type": "function"
    },
    {
      "inputs": [],
      "name": "LPC_INVALID_VARIABLE_DEBT_TOKEN_POOL_ADDRESS",
      "outputs": [
        {
          "internalType": "string",
          "name": "",
          "type": "string"
        }
      ],
      "stateMutability": "view",
      "type": "function"
    },
    {
      "inputs": [],
      "name": "LPC_INVALID_VARIABLE_DEBT_TOKEN_UNDERLYING_ADDRESS",
      "outputs": [
        {
          "internalType": "string",
          "name": "",
          "type": "string"
        }
      ],
      "stateMutability": "view",
      "type": "function"
    },
    {
      "inputs": [],
      "name": "LPC_RESERVE_LIQUIDITY_NOT_0",
      "outputs": [
        {
          "internalType": "string",
          "name": "",
          "type": "string"
        }
      ],
      "stateMutability": "view",
      "type": "function"
    },
    {
      "inputs": [],
      "name": "LP_CALLER_MUST_BE_AN_ATOKEN",
      "outputs": [
        {
          "internalType": "string",
          "name": "",
          "type": "string"
        }
      ],
      "stateMutability": "view",
      "type": "function"
    },
    {
      "inputs": [],
      "name": "LP_CALLER_NOT_LENDING_POOL_CONFIGURATOR",
      "outputs": [
        {
          "internalType": "string",
          "name": "",
          "type": "string"
        }
      ],
      "stateMutability": "view",
      "type": "function"
    },
    {
      "inputs": [],
      "name": "LP_FAILED_COLLATERAL_SWAP",
      "outputs": [
        {
          "internalType": "string",
          "name": "",
          "type": "string"
        }
      ],
      "stateMutability": "view",
      "type": "function"
    },
    {
      "inputs": [],
      "name": "LP_FAILED_REPAY_WITH_COLLATERAL",
      "outputs": [
        {
          "internalType": "string",
          "name": "",
          "type": "string"
        }
      ],
      "stateMutability": "view",
      "type": "function"
    },
    {
      "inputs": [],
      "name": "LP_INCONSISTENT_FLASHLOAN_PARAMS",
      "outputs": [
        {
          "internalType": "string",
          "name": "",
          "type": "string"
        }
      ],
      "stateMutability": "view",
      "type": "function"
    },
    {
      "inputs": [],
      "name": "LP_INCONSISTENT_PARAMS_LENGTH",
      "outputs": [
        {
          "internalType": "string",
          "name": "",
          "type": "string"
        }
      ],
      "stateMutability": "view",
      "type": "function"
    },
    {
      "inputs": [],
      "name": "LP_INCONSISTENT_PROTOCOL_ACTUAL_BALANCE",
      "outputs": [
        {
          "internalType": "string",
          "name": "",
          "type": "string"
        }
      ],
      "stateMutability": "view",
      "type": "function"
    },
    {
      "inputs": [],
      "name": "LP_INTEREST_RATE_REBALANCE_CONDITIONS_NOT_MET",
      "outputs": [
        {
          "internalType": "string",
          "name": "",
          "type": "string"
        }
      ],
      "stateMutability": "view",
      "type": "function"
    },
    {
      "inputs": [],
      "name": "LP_INVALID_EQUAL_ASSETS_TO_SWAP",
      "outputs": [
        {
          "internalType": "string",
          "name": "",
          "type": "string"
        }
      ],
      "stateMutability": "view",
      "type": "function"
    },
    {
      "inputs": [],
      "name": "LP_INVALID_FLASHLOAN_MODE",
      "outputs": [
        {
          "internalType": "string",
          "name": "",
          "type": "string"
        }
      ],
      "stateMutability": "view",
      "type": "function"
    },
    {
      "inputs": [],
      "name": "LP_INVALID_FLASH_LOAN_EXECUTOR_RETURN",
      "outputs": [
        {
          "internalType": "string",
          "name": "",
          "type": "string"
        }
      ],
      "stateMutability": "view",
      "type": "function"
    },
    {
      "inputs": [],
      "name": "LP_IS_PAUSED",
      "outputs": [
        {
          "internalType": "string",
          "name": "",
          "type": "string"
        }
      ],
      "stateMutability": "view",
      "type": "function"
    },
    {
      "inputs": [],
      "name": "LP_LIQUIDATION_CALL_FAILED",
      "outputs": [
        {
          "internalType": "string",
          "name": "",
          "type": "string"
        }
      ],
      "stateMutability": "view",
      "type": "function"
    },
    {
      "inputs": [],
      "name": "LP_NOT_CONTRACT",
      "outputs": [
        {
          "internalType": "string",
          "name": "",
          "type": "string"
        }
      ],
      "stateMutability": "view",
      "type": "function"
    },
    {
      "inputs": [],
      "name": "LP_NOT_ENOUGH_LIQUIDITY_TO_BORROW",
      "outputs": [
        {
          "internalType": "string",
          "name": "",
          "type": "string"
        }
      ],
      "stateMutability": "view",
      "type": "function"
    },
    {
      "inputs": [],
      "name": "LP_NOT_ENOUGH_STABLE_BORROW_BALANCE",
      "outputs": [
        {
          "internalType": "string",
          "name": "",
          "type": "string"
        }
      ],
      "stateMutability": "view",
      "type": "function"
    },
    {
      "inputs": [],
      "name": "LP_NO_MORE_RESERVES_ALLOWED",
      "outputs": [
        {
          "internalType": "string",
          "name": "",
          "type": "string"
        }
      ],
      "stateMutability": "view",
      "type": "function"
    },
    {
      "inputs": [],
      "name": "LP_REENTRANCY_NOT_ALLOWED",
      "outputs": [
        {
          "internalType": "string",
          "name": "",
          "type": "string"
        }
      ],
      "stateMutability": "view",
      "type": "function"
    },
    {
      "inputs": [],
      "name": "LP_REQUESTED_AMOUNT_TOO_SMALL",
      "outputs": [
        {
          "internalType": "string",
          "name": "",
          "type": "string"
        }
      ],
      "stateMutability": "view",
      "type": "function"
    },
    {
      "inputs": [],
      "name": "MATH_ADDITION_OVERFLOW",
      "outputs": [
        {
          "internalType": "string",
          "name": "",
          "type": "string"
        }
      ],
      "stateMutability": "view",
      "type": "function"
    },
    {
      "inputs": [],
      "name": "MATH_DIVISION_BY_ZERO",
      "outputs": [
        {
          "internalType": "string",
          "name": "",
          "type": "string"
        }
      ],
      "stateMutability": "view",
      "type": "function"
    },
    {
      "inputs": [],
      "name": "MATH_MULTIPLICATION_OVERFLOW",
      "outputs": [
        {
          "internalType": "string",
          "name": "",
          "type": "string"
        }
      ],
      "stateMutability": "view",
      "type": "function"
    },
    {
      "inputs": [],
      "name": "RC_INVALID_DECIMALS",
      "outputs": [
        {
          "internalType": "string",
          "name": "",
          "type": "string"
        }
      ],
      "stateMutability": "view",
      "type": "function"
    },
    {
      "inputs": [],
      "name": "RC_INVALID_LIQ_BONUS",
      "outputs": [
        {
          "internalType": "string",
          "name": "",
          "type": "string"
        }
      ],
      "stateMutability": "view",
      "type": "function"
    },
    {
      "inputs": [],
      "name": "RC_INVALID_LIQ_THRESHOLD",
      "outputs": [
        {
          "internalType": "string",
          "name": "",
          "type": "string"
        }
      ],
      "stateMutability": "view",
      "type": "function"
    },
    {
      "inputs": [],
      "name": "RC_INVALID_LTV",
      "outputs": [
        {
          "internalType": "string",
          "name": "",
          "type": "string"
        }
      ],
      "stateMutability": "view",
      "type": "function"
    },
    {
      "inputs": [],
      "name": "RC_INVALID_RESERVE_FACTOR",
      "outputs": [
        {
          "internalType": "string",
          "name": "",
          "type": "string"
        }
      ],
      "stateMutability": "view",
      "type": "function"
    },
    {
      "inputs": [],
      "name": "RL_LIQUIDITY_INDEX_OVERFLOW",
      "outputs": [
        {
          "internalType": "string",
          "name": "",
          "type": "string"
        }
      ],
      "stateMutability": "view",
      "type": "function"
    },
    {
      "inputs": [],
      "name": "RL_LIQUIDITY_RATE_OVERFLOW",
      "outputs": [
        {
          "internalType": "string",
          "name": "",
          "type": "string"
        }
      ],
      "stateMutability": "view",
      "type": "function"
    },
    {
      "inputs": [],
      "name": "RL_RESERVE_ALREADY_INITIALIZED",
      "outputs": [
        {
          "internalType": "string",
          "name": "",
          "type": "string"
        }
      ],
      "stateMutability": "view",
      "type": "function"
    },
    {
      "inputs": [],
      "name": "RL_STABLE_BORROW_RATE_OVERFLOW",
      "outputs": [
        {
          "internalType": "string",
          "name": "",
          "type": "string"
        }
      ],
      "stateMutability": "view",
      "type": "function"
    },
    {
      "inputs": [],
      "name": "RL_VARIABLE_BORROW_INDEX_OVERFLOW",
      "outputs": [
        {
          "internalType": "string",
          "name": "",
          "type": "string"
        }
      ],
      "stateMutability": "view",
      "type": "function"
    },
    {
      "inputs": [],
      "name": "RL_VARIABLE_BORROW_RATE_OVERFLOW",
      "outputs": [
        {
          "internalType": "string",
          "name": "",
          "type": "string"
        }
      ],
      "stateMutability": "view",
      "type": "function"
    },
    {
      "inputs": [],
      "name": "SDT_BURN_EXCEEDS_BALANCE",
      "outputs": [
        {
          "internalType": "string",
          "name": "",
          "type": "string"
        }
      ],
      "stateMutability": "view",
      "type": "function"
    },
    {
      "inputs": [],
      "name": "SDT_STABLE_DEBT_OVERFLOW",
      "outputs": [
        {
          "internalType": "string",
          "name": "",
          "type": "string"
        }
      ],
      "stateMutability": "view",
      "type": "function"
    },
    {
      "inputs": [],
      "name": "UL_INVALID_INDEX",
      "outputs": [
        {
          "internalType": "string",
          "name": "",
          "type": "string"
        }
      ],
      "stateMutability": "view",
      "type": "function"
    },
    {
      "inputs": [],
      "name": "VL_AMOUNT_BIGGER_THAN_MAX_LOAN_SIZE_STABLE",
      "outputs": [
        {
          "internalType": "string",
          "name": "",
          "type": "string"
        }
      ],
      "stateMutability": "view",
      "type": "function"
    },
    {
      "inputs": [],
      "name": "VL_BORROWING_NOT_ENABLED",
      "outputs": [
        {
          "internalType": "string",
          "name": "",
          "type": "string"
        }
      ],
      "stateMutability": "view",
      "type": "function"
    },
    {
      "inputs": [],
      "name": "VL_COLLATERAL_BALANCE_IS_0",
      "outputs": [
        {
          "internalType": "string",
          "name": "",
          "type": "string"
        }
      ],
      "stateMutability": "view",
      "type": "function"
    },
    {
      "inputs": [],
      "name": "VL_COLLATERAL_CANNOT_COVER_NEW_BORROW",
      "outputs": [
        {
          "internalType": "string",
          "name": "",
          "type": "string"
        }
      ],
      "stateMutability": "view",
      "type": "function"
    },
    {
      "inputs": [],
      "name": "VL_COLLATERAL_SAME_AS_BORROWING_CURRENCY",
      "outputs": [
        {
          "internalType": "string",
          "name": "",
          "type": "string"
        }
      ],
      "stateMutability": "view",
      "type": "function"
    },
    {
      "inputs": [],
      "name": "VL_CURRENT_AVAILABLE_LIQUIDITY_NOT_ENOUGH",
      "outputs": [
        {
          "internalType": "string",
          "name": "",
          "type": "string"
        }
      ],
      "stateMutability": "view",
      "type": "function"
    },
    {
      "inputs": [],
      "name": "VL_DEPOSIT_ALREADY_IN_USE",
      "outputs": [
        {
          "internalType": "string",
          "name": "",
          "type": "string"
        }
      ],
      "stateMutability": "view",
      "type": "function"
    },
    {
      "inputs": [],
      "name": "VL_HEALTH_FACTOR_LOWER_THAN_LIQUIDATION_THRESHOLD",
      "outputs": [
        {
          "internalType": "string",
          "name": "",
          "type": "string"
        }
      ],
      "stateMutability": "view",
      "type": "function"
    },
    {
      "inputs": [],
      "name": "VL_INCONSISTENT_FLASHLOAN_PARAMS",
      "outputs": [
        {
          "internalType": "string",
          "name": "",
          "type": "string"
        }
      ],
      "stateMutability": "view",
      "type": "function"
    },
    {
      "inputs": [],
      "name": "VL_INVALID_AMOUNT",
      "outputs": [
        {
          "internalType": "string",
          "name": "",
          "type": "string"
        }
      ],
      "stateMutability": "view",
      "type": "function"
    },
    {
      "inputs": [],
      "name": "VL_INVALID_INTEREST_RATE_MODE_SELECTED",
      "outputs": [
        {
          "internalType": "string",
          "name": "",
          "type": "string"
        }
      ],
      "stateMutability": "view",
      "type": "function"
    },
    {
      "inputs": [],
      "name": "VL_NOT_ENOUGH_AVAILABLE_USER_BALANCE",
      "outputs": [
        {
          "internalType": "string",
          "name": "",
          "type": "string"
        }
      ],
      "stateMutability": "view",
      "type": "function"
    },
    {
      "inputs": [],
      "name": "VL_NO_ACTIVE_RESERVE",
      "outputs": [
        {
          "internalType": "string",
          "name": "",
          "type": "string"
        }
      ],
      "stateMutability": "view",
      "type": "function"
    },
    {
      "inputs": [],
      "name": "VL_NO_DEBT_OF_SELECTED_TYPE",
      "outputs": [
        {
          "internalType": "string",
          "name": "",
          "type": "string"
        }
      ],
      "stateMutability": "view",
      "type": "function"
    },
    {
      "inputs": [],
      "name": "VL_NO_EXPLICIT_AMOUNT_TO_REPAY_ON_BEHALF",
      "outputs": [
        {
          "internalType": "string",
          "name": "",
          "type": "string"
        }
      ],
      "stateMutability": "view",
      "type": "function"
    },
    {
      "inputs": [],
      "name": "VL_NO_STABLE_RATE_LOAN_IN_RESERVE",
      "outputs": [
        {
          "internalType": "string",
          "name": "",
          "type": "string"
        }
      ],
      "stateMutability": "view",
      "type": "function"
    },
    {
      "inputs": [],
      "name": "VL_NO_VARIABLE_RATE_LOAN_IN_RESERVE",
      "outputs": [
        {
          "internalType": "string",
          "name": "",
          "type": "string"
        }
      ],
      "stateMutability": "view",
      "type": "function"
    },
    {
      "inputs": [],
      "name": "VL_RESERVE_FROZEN",
      "outputs": [
        {
          "internalType": "string",
          "name": "",
          "type": "string"
        }
      ],
      "stateMutability": "view",
      "type": "function"
    },
    {
      "inputs": [],
      "name": "VL_STABLE_BORROWING_NOT_ENABLED",
      "outputs": [
        {
          "internalType": "string",
          "name": "",
          "type": "string"
        }
      ],
      "stateMutability": "view",
      "type": "function"
    },
    {
      "inputs": [],
      "name": "VL_TRANSFER_NOT_ALLOWED",
      "outputs": [
        {
          "internalType": "string",
          "name": "",
          "type": "string"
        }
      ],
      "stateMutability": "view",
      "type": "function"
    },
    {
      "inputs": [],
      "name": "VL_UNDERLYING_BALANCE_NOT_GREATER_THAN_0",
      "outputs": [
        {
          "internalType": "string",
          "name": "",
          "type": "string"
        }
      ],
      "stateMutability": "view",
      "type": "function"
    }
  ],
  "bytecode": "0x61110561003a600b82828239805160001a60731461002d57634e487b7160e01b600052600060045260246000fd5b30600052607381538281f3fe730000000000000000000000000000000000000000301460806040526004361061048a5760003560e01c80636ba4271f11610261578063cdad445a11610150578063e2c16d69116100cd578063f11c672011610091578063f11c6720146106fd578063f3d9cc1114610705578063f902735d1461070d578063fb681def14610715578063fe75fd261461071d5761048a565b8063e2c16d69146106d5578063e6632748146106dd578063e7bf91b3146106e5578063eca85d3a146106ed578063f0473259146106f55761048a565b8063d7510e0c11610114578063d7510e0c146106ad578063d7b079aa146106b5578063daf23547146106bd578063e0d7dfd7146106c5578063e29425dc146106cd5761048a565b8063cdad445a14610685578063d3e370ee1461068d578063d44e8e8814610695578063d57bb9641461069d578063d6f681b6146106a55761048a565b8063a39ed4ff116101de578063b89652cd116101a2578063b89652cd1461065d578063bd013f5b14610665578063c09e26181461066d578063c2d628df14610675578063cc5fc44c1461067d5761048a565b8063a39ed4ff14610635578063a84402411461063d578063ac75323614610645578063b36a2cf31461064d578063b72e40c7146106555761048a565b80637865a627116102255780637865a6271461060d578063871938a81461061557806391a9fb181461061d5780639be4f03a14610625578063a2fbc8ad1461062d5761048a565b80636ba4271f146105e55780636d422aa1146105ed578063708b8dd3146105f557806371a629da146105fd57806376f19030146106055761048a565b80633aa786a81161037d5780634a529f91116102fa578063614cf6a1116102be578063614cf6a1146105bd578063637a5a12146105c55780636422b257146105cd57806365344799146105d55780636ab5e615146105dd5761048a565b80634a529f91146105955780634fe4f1ab1461059d57806355bab12c146105a55780635a9786d4146105ad5780635e869ff1146105b55761048a565b80634349e3d8116103415780634349e3d81461056d578063449420041461057557806344dc4f701461057d57806347d25300146105855780634927c63a1461058d5761048a565b80633aa786a8146105455780633b5d25aa1461054d5780633f5d6ec814610555578063407374a41461055d57806341b40ba5146105655761048a565b806322a6f08e1161040b578063333e8ea8116103cf578063333e8ea81461051d57806335a9d21d1461052557806336565ab11461052d5780633872b0ad14610535578063390f34ba1461053d5761048a565b806322a6f08e146104f55780632ace698a146104fd5780632b34c349146105055780632b9c57f61461050d5780632ea347b0146105155761048a565b80631291a38b116104525780631291a38b146104cd578063179476c5146104d55780631befa78d146104dd5780631ea7c604146104e55780631ec68b1d146104ed5761048a565b806302454ad31461048f578063029d2344146104ad57806306f355ad146104b55780630b8fd588146104bd5780630f5ee482146104c5575b600080fd5b610497610725565b6040516104a4919061107c565b60405180910390f35b610497610743565b610497610761565b61049761077f565b61049761079d565b6104976107bb565b6104976107d9565b6104976107f6565b610497610814565b610497610832565b610497610850565b61049761086e565b61049761088c565b6104976108aa565b6104976108c8565b6104976108e6565b610497610904565b610497610922565b61049761093f565b61049761095d565b61049761097b565b610497610999565b6104976109b6565b6104976109d4565b6104976109f2565b610497610a10565b610497610a2e565b610497610a4c565b610497610a6a565b610497610a88565b610497610aa6565b610497610ac4565b610497610ae2565b610497610b00565b610497610b1e565b610497610b3c565b610497610b5a565b610497610b78565b610497610b96565b610497610bb4565b610497610bd2565b610497610bf0565b610497610c0e565b610497610c2b565b610497610c49565b610497610c67565b610497610c84565b610497610ca1565b610497610cbf565b610497610cdd565b610497610cfb565b610497610d19565b610497610d36565b610497610d54565b610497610d72565b610497610d90565b610497610dae565b610497610dcc565b610497610dea565b610497610e08565b610497610e26565b610497610e44565b610497610e62565b610497610e80565b610497610e9e565b610497610ebc565b610497610ed9565b610497610ef7565b610497610f15565b610497610f33565b610497610f51565b610497610f6f565b610497610f8d565b610497610fab565b610497610fc9565b610497610fe7565b610497611005565b610497611022565b610497611040565b61049761105e565b60405180604001604052806002815260200161373760f01b81525081565b60405180604001604052806002815260200161068760f31b81525081565b60405180604001604052806002815260200161033360f41b81525081565b60405180604001604052806002815260200161191b60f11b81525081565b60405180604001604052806002815260200161343960f01b81525081565b604051806040016040528060028152602001611a9b60f11b81525081565b604051806040016040528060018152602001600d60fa1b81525081565b60405180604001604052806002815260200161038360f41b81525081565b604051806040016040528060028152602001611a1b60f11b81525081565b60405180604001604052806002815260200161031360f41b81525081565b604051806040016040528060028152602001610c8d60f21b81525081565b60405180604001604052806002815260200161313160f01b81525081565b60405180604001604052806002815260200161064760f31b81525081565b6040518060400160405280600281526020016106a760f31b81525081565b604051806040016040528060028152602001610d4d60f21b81525081565b604051806040016040528060028152602001611b9960f11b81525081565b60405180604001604052806002815260200161313960f01b81525081565b604051806040016040528060018152602001603760f81b81525081565b60405180604001604052806002815260200161333960f01b81525081565b60405180604001604052806002815260200161323560f01b81525081565b604051806040016040528060028152602001610c4d60f21b81525081565b604051806040016040528060018152602001600760fb1b81525081565b60405180604001604052806002815260200161037360f41b81525081565b60405180604001604052806002815260200161343360f01b81525081565b60405180604001604052806002815260200161066760f31b81525081565b60405180604001604052806002815260200161035360f41b81525081565b604051806040016040528060028152602001611a9960f11b81525081565b60405180604001604052806002815260200161323160f01b81525081565b60405180604001604052806002815260200161373560f01b81525081565b60405180604001604052806002815260200161189960f11b81525081565b60405180604001604052806002815260200161323360f01b81525081565b60405180604001604052806002815260200161353160f01b81525081565b60405180604001604052806002815260200161036360f41b81525081565b60405180604001604052806002815260200161034360f41b81525081565b60405180604001604052806002815260200161363960f01b81525081565b60405180604001604052806002815260200161363760f01b81525081565b6040518060400160405280600281526020016106e760f31b81525081565b60405180604001604052806002815260200161313760f01b81525081565b604051806040016040528060028152602001610ccd60f21b81525081565b60405180604001604052806002815260200161062760f31b81525081565b60405180604001604052806002815260200161323960f01b81525081565b60405180604001604052806002815260200161353560f01b81525081565b604051806040016040528060018152602001603960f81b81525081565b604051806040016040528060028152602001610d0d60f21b81525081565b60405180604001604052806002815260200161363560f01b81525081565b604051806040016040528060018152602001601960f91b81525081565b604051806040016040528060018152602001603160f81b81525081565b60405180604001604052806002815260200161313560f01b81525081565b60405180604001604052806002815260200161373160f01b81525081565b60405180604001604052806002815260200161333160f01b81525081565b60405180604001604052806002815260200161313360f01b81525081565b604051806040016040528060018152602001603560f81b81525081565b60405180604001604052806002815260200161333360f01b81525081565b60405180604001604052806002815260200161323760f01b81525081565b604051806040016040528060028152602001610dcd60f21b81525081565b60405180604001604052806002815260200161191960f11b81525081565b6040518060400160405280600281526020016106c760f31b81525081565b60405180604001604052806002815260200161333760f01b81525081565b60405180604001604052806002815260200161363160f01b81525081565b60405180604001604052806002815260200161343560f01b81525081565b60405180604001604052806002815260200161373960f01b81525081565b604051806040016040528060028152602001611b9b60f11b81525081565b604051806040016040528060028152602001611b1b60f11b81525081565b604051806040016040528060028152602001610d8d60f21b81525081565b60405180604001604052806002815260200161343160f01b81525081565b604051806040016040528060018152602001603360f81b81525081565b60405180604001604052806002815260200161373360f01b81525081565b60405180604001604052806002815260200161189b60f11b81525081565b60405180604001604052806002815260200161199b60f11b81525081565b60405180604001604052806002815260200161032360f41b81525081565b60405180604001604052806002815260200161353960f01b81525081565b60405180604001604052806002815260200161353760f01b81525081565b60405180604001604052806002815260200161343760f01b81525081565b60405180604001604052806002815260200161363360f01b81525081565b60405180604001604052806002815260200161333560f01b81525081565b60405180604001604052806002815260200161353360f01b81525081565b604051806040016040528060018152602001601b60f91b81525081565b604051806040016040528060028152602001611b1960f11b81525081565b604051806040016040528060028152602001611a1960f11b81525081565b60405180604001604052806002815260200161199960f11b81525081565b6000602080835283518082850152825b818110156110a85785810183015185820160400152820161108c565b818111156110b95783604083870101525b50601f01601f191692909201604001939250505056fea26469706673582212206323201a48f814e2e1fba6edfc85277111ff97f8dc158817987c5b113e4d4e6764736f6c63430008000033",
  "linkReferences": {},
  "deployedLinkReferences": {}
}