{
  "_format": "hh-sol-artifact-1",
  "contractName": "SelfdestructTransfer",
  "sourceName": "contracts/mocks/attacks/SefldestructTransfer.sol",
  "abi": [
    {
      "inputs": [
        {
          "internalType": "address payable",
          "name": "to",
          "type": "address"
        }
      ],
      "name": "destroyAndTransfer",
      "outputs": [],
      "stateMutability": "payable",
      "type": "function"
    }
  ],
  "bytecode": "0x6080604052348015600f57600080fd5b5060a08061001e6000396000f3fe608060405260043610601c5760003560e01c8063785e07b3146021575b600080fd5b6030602c366004603e565b6032565b005b806001600160a01b0316ff5b600060208284031215604e578081fd5b81356001600160a01b03811681146063578182fd5b939250505056fea2646970667358221220d11ddc455323d7e56239b853207ebce6dd20954c6abf8f53ce5330b9b12ebd7964736f6c63430008000033",
  "linkReferences": {},
  "deployedLinkReferences": {}
}