{
  "_format": "hh-sol-artifact-1",
  "contractName": "MockUniswapV2Router02",
  "sourceName": "contracts/mocks/swap/MockUniswapV2Router02.sol",
  "abi": [
    {
      "inputs": [
        {
          "internalType": "uint256",
          "name": "amountOut",
          "type": "uint256"
        },
        {
          "internalType": "address[]",
          "name": "path",
          "type": "address[]"
        }
      ],
      "name": "getAmountsIn",
      "outputs": [
        {
          "internalType": "uint256[]",
          "name": "",
          "type": "uint256[]"
        }
      ],
      "stateMutability": "view",
      "type": "function"
    },
    {
      "inputs": [
        {
          "internalType": "uint256",
          "name": "amountIn",
          "type": "uint256"
        },
        {
          "internalType": "address[]",
          "name": "path",
          "type": "address[]"
        }
      ],
      "name": "getAmountsOut",
      "outputs": [
        {
          "internalType": "uint256[]",
          "name": "",
          "type": "uint256[]"
        }
      ],
      "stateMutability": "view",
      "type": "function"
    },
    {
      "inputs": [
        {
          "internalType": "uint256",
          "name": "amountOut",
          "type": "uint256"
        },
        {
          "internalType": "address",
          "name": "reserveIn",
          "type": "address"
        },
        {
          "internalType": "address",
          "name": "reserveOut",
          "type": "address"
        },
        {
          "internalType": "uint256",
          "name": "amountIn",
          "type": "uint256"
        }
      ],
      "name": "setAmountIn",
      "outputs": [],
      "stateMutability": "nonpayable",
      "type": "function"
    },
    {
      "inputs": [
        {
          "internalType": "uint256",
          "name": "amountIn",
          "type": "uint256"
        },
        {
          "internalType": "address",
          "name": "reserveIn",
          "type": "address"
        },
        {
          "internalType": "address",
          "name": "reserveOut",
          "type": "address"
        },
        {
          "internalType": "uint256",
          "name": "amountOut",
          "type": "uint256"
        }
      ],
      "name": "setAmountOut",
      "outputs": [],
      "stateMutability": "nonpayable",
      "type": "function"
    },
    {
      "inputs": [
        {
          "internalType": "address",
          "name": "reserve",
          "type": "address"
        },
        {
          "internalType": "uint256",
          "name": "amount",
          "type": "uint256"
        }
      ],
      "name": "setAmountToReturn",
      "outputs": [],
      "stateMutability": "nonpayable",
      "type": "function"
    },
    {
      "inputs": [
        {
          "internalType": "address",
          "name": "reserve",
          "type": "address"
        },
        {
          "internalType": "uint256",
          "name": "amount",
          "type": "uint256"
        }
      ],
      "name": "setAmountToSwap",
      "outputs": [],
      "stateMutability": "nonpayable",
      "type": "function"
    },
    {
      "inputs": [
        {
          "internalType": "uint256",
          "name": "value",
          "type": "uint256"
        }
      ],
      "name": "setDefaultMockValue",
      "outputs": [],
      "stateMutability": "nonpayable",
      "type": "function"
    },
    {
      "inputs": [
        {
          "internalType": "uint256",
          "name": "amountIn",
          "type": "uint256"
        },
        {
          "internalType": "uint256",
          "name": "",
          "type": "uint256"
        },
        {
          "internalType": "address[]",
          "name": "path",
          "type": "address[]"
        },
        {
          "internalType": "address",
          "name": "to",
          "type": "address"
        },
        {
          "internalType": "uint256",
          "name": "",
          "type": "uint256"
        }
      ],
      "name": "swapExactTokensForTokens",
      "outputs": [
        {
          "internalType": "uint256[]",
          "name": "amounts",
          "type": "uint256[]"
        }
      ],
      "stateMutability": "nonpayable",
      "type": "function"
    },
    {
      "inputs": [
        {
          "internalType": "uint256",
          "name": "amountOut",
          "type": "uint256"
        },
        {
          "internalType": "uint256",
          "name": "",
          "type": "uint256"
        },
        {
          "internalType": "address[]",
          "name": "path",
          "type": "address[]"
        },
        {
          "internalType": "address",
          "name": "to",
          "type": "address"
        },
        {
          "internalType": "uint256",
          "name": "",
          "type": "uint256"
        }
      ],
      "name": "swapTokensForExactTokens",
      "outputs": [
        {
          "internalType": "uint256[]",
          "name": "amounts",
          "type": "uint256[]"
        }
      ],
      "stateMutability": "nonpayable",
      "type": "function"
    }
  ],
  "bytecode": "0x608060405234801561001057600080fd5b50611094806100206000396000f3fe608060405234801561001057600080fd5b50600436106100935760003560e01c80638803dbee116100665780638803dbee146100fc5780639da239491461010f578063d06ca61f14610122578063ee92b85914610135578063fcaf206c1461014857610093565b80631f00ca741461009857806338ed1739146100c15780635186725f146100d45780635fdcafc8146100e9575b600080fd5b6100ab6100a6366004610f1c565b61015b565b6040516100b89190611011565b60405180910390f35b6100ab6100cf366004610f66565b6103ac565b6100e76100e2366004610e78565b610794565b005b6100e76100f7366004610ed9565b6107b0565b6100ab61010a366004610f66565b6107e4565b6100e761011d366004610ed9565b610b5f565b6100ab610130366004610f1c565b610b93565b6100e7610143366004610ec1565b610dd1565b6100e7610156366004610e78565b610dd6565b606060008267ffffffffffffffff81111561018657634e487b7160e01b600052604160045260246000fd5b6040519080825280602002602001820160405280156101af578160200160208202803683370190505b509050600060026000868660008181106101d957634e487b7160e01b600052603260045260246000fd5b90506020020160208101906101ee9190610e57565b6001600160a01b03166001600160a01b0316815260200190815260200160002060008686600181811061023157634e487b7160e01b600052603260045260246000fd5b90506020020160208101906102469190610e57565b6001600160a01b03166001600160a01b03168152602001908152602001600020600087815260200190815260200160002054116102855760045461034a565b60026000858560008181106102aa57634e487b7160e01b600052603260045260246000fd5b90506020020160208101906102bf9190610e57565b6001600160a01b03166001600160a01b0316815260200190815260200160002060008585600181811061030257634e487b7160e01b600052603260045260246000fd5b90506020020160208101906103179190610e57565b6001600160a01b03166001600160a01b031681526020019081526020016000206000868152602001908152602001600020545b8160008151811061036b57634e487b7160e01b600052603260045260246000fd5b602002602001018181525050848160018151811061039957634e487b7160e01b600052603260045260246000fd5b6020908102919091010152949350505050565b6060848460008181106103cf57634e487b7160e01b600052603260045260246000fd5b90506020020160208101906103e49190610e57565b6001600160a01b03166323b872dd33308a6040518463ffffffff1660e01b815260040161041393929190610fd4565b602060405180830381600087803b15801561042d57600080fd5b505af1158015610441573d6000803e3d6000fd5b505050506040513d601f19601f820116820180604052508101906104659190610ea1565b508484600181811061048757634e487b7160e01b600052603260045260246000fd5b905060200201602081019061049c9190610e57565b6001600160a01b031663a0712d68600080888860008181106104ce57634e487b7160e01b600052603260045260246000fd5b90506020020160208101906104e39190610e57565b6001600160a01b03166001600160a01b03168152602001908152602001600020546040518263ffffffff1660e01b81526004016105209190611055565b602060405180830381600087803b15801561053a57600080fd5b505af115801561054e573d6000803e3d6000fd5b505050506040513d601f19601f820116820180604052508101906105729190610ea1565b508484600181811061059457634e487b7160e01b600052603260045260246000fd5b90506020020160208101906105a99190610e57565b6001600160a01b031663a9059cbb84600080898960008181106105dc57634e487b7160e01b600052603260045260246000fd5b90506020020160208101906105f19190610e57565b6001600160a01b03166001600160a01b03168152602001908152602001600020546040518363ffffffff1660e01b815260040161062f929190610ff8565b602060405180830381600087803b15801561064957600080fd5b505af115801561065d573d6000803e3d6000fd5b505050506040513d601f19601f820116820180604052508101906106819190610ea1565b508367ffffffffffffffff8111156106a957634e487b7160e01b600052604160045260246000fd5b6040519080825280602002602001820160405280156106d2578160200160208202803683370190505b50905086816000815181106106f757634e487b7160e01b600052603260045260246000fd5b6020026020010181815250506000808686600081811061072757634e487b7160e01b600052603260045260246000fd5b905060200201602081019061073c9190610e57565b6001600160a01b03166001600160a01b03168152602001908152602001600020548160018151811061077e57634e487b7160e01b600052603260045260246000fd5b6020026020010181815250509695505050505050565b6001600160a01b03909116600090815260208190526040902055565b6001600160a01b03928316600090815260036020908152604080832094909516825292835283812094815293909152912055565b60608484600081811061080757634e487b7160e01b600052603260045260246000fd5b905060200201602081019061081c9190610e57565b6001600160a01b03166323b872dd3330600160008a8a600081811061085157634e487b7160e01b600052603260045260246000fd5b90506020020160208101906108669190610e57565b6001600160a01b03166001600160a01b03168152602001908152602001600020546040518463ffffffff1660e01b81526004016108a593929190610fd4565b602060405180830381600087803b1580156108bf57600080fd5b505af11580156108d3573d6000803e3d6000fd5b505050506040513d601f19601f820116820180604052508101906108f79190610ea1565b508484600181811061091957634e487b7160e01b600052603260045260246000fd5b905060200201602081019061092e9190610e57565b6001600160a01b031663a0712d68886040518263ffffffff1660e01b81526004016109599190611055565b602060405180830381600087803b15801561097357600080fd5b505af1158015610987573d6000803e3d6000fd5b505050506040513d601f19601f820116820180604052508101906109ab9190610ea1565b50848460018181106109cd57634e487b7160e01b600052603260045260246000fd5b90506020020160208101906109e29190610e57565b6001600160a01b031663a9059cbb84896040518363ffffffff1660e01b8152600401610a0f929190610ff8565b602060405180830381600087803b158015610a2957600080fd5b505af1158015610a3d573d6000803e3d6000fd5b505050506040513d601f19601f82011682018060405250810190610a619190610ea1565b508367ffffffffffffffff811115610a8957634e487b7160e01b600052604160045260246000fd5b604051908082528060200260200182016040528015610ab2578160200160208202803683370190505b5090506001600086866000818110610ada57634e487b7160e01b600052603260045260246000fd5b9050602002016020810190610aef9190610e57565b6001600160a01b03166001600160a01b031681526020019081526020016000205481600081518110610b3157634e487b7160e01b600052603260045260246000fd5b602002602001018181525050868160018151811061077e57634e487b7160e01b600052603260045260246000fd5b6001600160a01b03928316600090815260026020908152604080832094909516825292835283812094815293909152912055565b606060008267ffffffffffffffff811115610bbe57634e487b7160e01b600052604160045260246000fd5b604051908082528060200260200182016040528015610be7578160200160208202803683370190505b5090508481600081518110610c0c57634e487b7160e01b600052603260045260246000fd5b60200260200101818152505060006003600086866000818110610c3f57634e487b7160e01b600052603260045260246000fd5b9050602002016020810190610c549190610e57565b6001600160a01b03166001600160a01b03168152602001908152602001600020600086866001818110610c9757634e487b7160e01b600052603260045260246000fd5b9050602002016020810190610cac9190610e57565b6001600160a01b03166001600160a01b0316815260200190815260200160002060008781526020019081526020016000205411610ceb57600454610db0565b6003600085856000818110610d1057634e487b7160e01b600052603260045260246000fd5b9050602002016020810190610d259190610e57565b6001600160a01b03166001600160a01b03168152602001908152602001600020600085856001818110610d6857634e487b7160e01b600052603260045260246000fd5b9050602002016020810190610d7d9190610e57565b6001600160a01b03166001600160a01b031681526020019081526020016000206000868152602001908152602001600020545b8160018151811061039957634e487b7160e01b600052603260045260246000fd5b600455565b6001600160a01b03909116600090815260016020526040902055565b80356001600160a01b0381168114610e0957600080fd5b919050565b60008083601f840112610e1f578182fd5b50813567ffffffffffffffff811115610e36578182fd5b6020830191508360208083028501011115610e5057600080fd5b9250929050565b600060208284031215610e68578081fd5b610e7182610df2565b9392505050565b60008060408385031215610e8a578081fd5b610e9383610df2565b946020939093013593505050565b600060208284031215610eb2578081fd5b81518015158114610e71578182fd5b600060208284031215610ed2578081fd5b5035919050565b60008060008060808587031215610eee578182fd5b84359350610efe60208601610df2565b9250610f0c60408601610df2565b9396929550929360600135925050565b600080600060408486031215610f30578283fd5b83359250602084013567ffffffffffffffff811115610f4d578283fd5b610f5986828701610e0e565b9497909650939450505050565b60008060008060008060a08789031215610f7e578182fd5b8635955060208701359450604087013567ffffffffffffffff811115610fa2578283fd5b610fae89828a01610e0e565b9095509350610fc1905060608801610df2565b9150608087013590509295509295509295565b6001600160a01b039384168152919092166020820152604081019190915260600190565b6001600160a01b03929092168252602082015260400190565b6020808252825182820181905260009190848201906040850190845b818110156110495783518352928401929184019160010161102d565b50909695505050505050565b9081526020019056fea2646970667358221220f60b31502adfb2a339350950c27d62b60c7039df52c5917dff710ec00da95b0a64736f6c63430008000033",
  "linkReferences": {},
  "deployedLinkReferences": {}
}