{
  "_format": "hh-sol-artifact-1",
  "contractName": "MockAToken",
  "sourceName": "contracts/mocks/upgradeability/MockAToken.sol",
  "abi": [
    {
      "anonymous": false,
      "inputs": [
        {
          "indexed": true,
          "internalType": "address",
          "name": "owner",
          "type": "address"
        },
        {
          "indexed": true,
          "internalType": "address",
          "name": "spender",
          "type": "address"
        },
        {
          "indexed": false,
          "internalType": "uint256",
          "name": "value",
          "type": "uint256"
        }
      ],
      "name": "Approval",
      "type": "event"
    },
    {
      "anonymous": false,
      "inputs": [
        {
          "indexed": true,
          "internalType": "address",
          "name": "from",
          "type": "address"
        },
        {
          "indexed": true,
          "internalType": "address",
          "name": "to",
          "type": "address"
        },
        {
          "indexed": false,
          "internalType": "uint256",
          "name": "value",
          "type": "uint256"
        },
        {
          "indexed": false,
          "internalType": "uint256",
          "name": "index",
          "type": "uint256"
        }
      ],
      "name": "BalanceTransfer",
      "type": "event"
    },
    {
      "anonymous": false,
      "inputs": [
        {
          "indexed": true,
          "internalType": "address",
          "name": "from",
          "type": "address"
        },
        {
          "indexed": true,
          "internalType": "address",
          "name": "target",
          "type": "address"
        },
        {
          "indexed": false,
          "internalType": "uint256",
          "name": "value",
          "type": "uint256"
        },
        {
          "indexed": false,
          "internalType": "uint256",
          "name": "index",
          "type": "uint256"
        }
      ],
      "name": "Burn",
      "type": "event"
    },
    {
      "anonymous": false,
      "inputs": [
        {
          "indexed": true,
          "internalType": "address",
          "name": "underlyingAsset",
          "type": "address"
        },
        {
          "indexed": true,
          "internalType": "address",
          "name": "pool",
          "type": "address"
        },
        {
          "indexed": false,
          "internalType": "address",
          "name": "treasury",
          "type": "address"
        },
        {
          "indexed": false,
          "internalType": "address",
          "name": "incentivesController",
          "type": "address"
        },
        {
          "indexed": false,
          "internalType": "uint8",
          "name": "aTokenDecimals",
          "type": "uint8"
        },
        {
          "indexed": false,
          "internalType": "string",
          "name": "aTokenName",
          "type": "string"
        },
        {
          "indexed": false,
          "internalType": "string",
          "name": "aTokenSymbol",
          "type": "string"
        },
        {
          "indexed": false,
          "internalType": "bytes",
          "name": "params",
          "type": "bytes"
        }
      ],
      "name": "Initialized",
      "type": "event"
    },
    {
      "anonymous": false,
      "inputs": [
        {
          "indexed": true,
          "internalType": "address",
          "name": "from",
          "type": "address"
        },
        {
          "indexed": false,
          "internalType": "uint256",
          "name": "value",
          "type": "uint256"
        },
        {
          "indexed": false,
          "internalType": "uint256",
          "name": "index",
          "type": "uint256"
        }
      ],
      "name": "Mint",
      "type": "event"
    },
    {
      "anonymous": false,
      "inputs": [
        {
          "indexed": true,
          "internalType": "address",
          "name": "from",
          "type": "address"
        },
        {
          "indexed": true,
          "internalType": "address",
          "name": "to",
          "type": "address"
        },
        {
          "indexed": false,
          "internalType": "uint256",
          "name": "value",
          "type": "uint256"
        }
      ],
      "name": "Transfer",
      "type": "event"
    },
    {
      "inputs": [],
      "name": "ATOKEN_REVISION",
      "outputs": [
        {
          "internalType": "uint256",
          "name": "",
          "type": "uint256"
        }
      ],
      "stateMutability": "view",
      "type": "function"
    },
    {
      "inputs": [],
      "name": "DOMAIN_SEPARATOR",
      "outputs": [
        {
          "internalType": "bytes32",
          "name": "",
          "type": "bytes32"
        }
      ],
      "stateMutability": "view",
      "type": "function"
    },
    {
      "inputs": [],
      "name": "EIP712_REVISION",
      "outputs": [
        {
          "internalType": "bytes",
          "name": "",
          "type": "bytes"
        }
      ],
      "stateMutability": "view",
      "type": "function"
    },
    {
      "inputs": [],
      "name": "PERMIT_TYPEHASH",
      "outputs": [
        {
          "internalType": "bytes32",
          "name": "",
          "type": "bytes32"
        }
      ],
      "stateMutability": "view",
      "type": "function"
    },
    {
      "inputs": [],
      "name": "POOL",
      "outputs": [
        {
          "internalType": "contract ILendingPool",
          "name": "",
          "type": "address"
        }
      ],
      "stateMutability": "view",
      "type": "function"
    },
    {
      "inputs": [],
      "name": "RESERVE_TREASURY_ADDRESS",
      "outputs": [
        {
          "internalType": "address",
          "name": "",
          "type": "address"
        }
      ],
      "stateMutability": "view",
      "type": "function"
    },
    {
      "inputs": [],
      "name": "UNDERLYING_ASSET_ADDRESS",
      "outputs": [
        {
          "internalType": "address",
          "name": "",
          "type": "address"
        }
      ],
      "stateMutability": "view",
      "type": "function"
    },
    {
      "inputs": [
        {
          "internalType": "address",
          "name": "",
          "type": "address"
        }
      ],
      "name": "_nonces",
      "outputs": [
        {
          "internalType": "uint256",
          "name": "",
          "type": "uint256"
        }
      ],
      "stateMutability": "view",
      "type": "function"
    },
    {
      "inputs": [
        {
          "internalType": "address",
          "name": "owner",
          "type": "address"
        },
        {
          "internalType": "address",
          "name": "spender",
          "type": "address"
        }
      ],
      "name": "allowance",
      "outputs": [
        {
          "internalType": "uint256",
          "name": "",
          "type": "uint256"
        }
      ],
      "stateMutability": "view",
      "type": "function"
    },
    {
      "inputs": [
        {
          "internalType": "address",
          "name": "spender",
          "type": "address"
        },
        {
          "internalType": "uint256",
          "name": "amount",
          "type": "uint256"
        }
      ],
      "name": "approve",
      "outputs": [
        {
          "internalType": "bool",
          "name": "",
          "type": "bool"
        }
      ],
      "stateMutability": "nonpayable",
      "type": "function"
    },
    {
      "inputs": [
        {
          "internalType": "address",
          "name": "user",
          "type": "address"
        }
      ],
      "name": "balanceOf",
      "outputs": [
        {
          "internalType": "uint256",
          "name": "",
          "type": "uint256"
        }
      ],
      "stateMutability": "view",
      "type": "function"
    },
    {
      "inputs": [
        {
          "internalType": "address",
          "name": "user",
          "type": "address"
        },
        {
          "internalType": "address",
          "name": "receiverOfUnderlying",
          "type": "address"
        },
        {
          "internalType": "uint256",
          "name": "amount",
          "type": "uint256"
        },
        {
          "internalType": "uint256",
          "name": "index",
          "type": "uint256"
        }
      ],
      "name": "burn",
      "outputs": [],
      "stateMutability": "nonpayable",
      "type": "function"
    },
    {
      "inputs": [],
      "name": "decimals",
      "outputs": [
        {
          "internalType": "uint8",
          "name": "",
          "type": "uint8"
        }
      ],
      "stateMutability": "view",
      "type": "function"
    },
    {
      "inputs": [
        {
          "internalType": "address",
          "name": "spender",
          "type": "address"
        },
        {
          "internalType": "uint256",
          "name": "subtractedValue",
          "type": "uint256"
        }
      ],
      "name": "decreaseAllowance",
      "outputs": [
        {
          "internalType": "bool",
          "name": "",
          "type": "bool"
        }
      ],
      "stateMutability": "nonpayable",
      "type": "function"
    },
    {
      "inputs": [],
      "name": "getIncentivesController",
      "outputs": [
        {
          "internalType": "contract IAaveIncentivesController",
          "name": "",
          "type": "address"
        }
      ],
      "stateMutability": "view",
      "type": "function"
    },
    {
      "inputs": [
        {
          "internalType": "address",
          "name": "user",
          "type": "address"
        }
      ],
      "name": "getScaledUserBalanceAndSupply",
      "outputs": [
        {
          "internalType": "uint256",
          "name": "",
          "type": "uint256"
        },
        {
          "internalType": "uint256",
          "name": "",
          "type": "uint256"
        }
      ],
      "stateMutability": "view",
      "type": "function"
    },
    {
      "inputs": [
        {
          "internalType": "address",
          "name": "user",
          "type": "address"
        },
        {
          "internalType": "uint256",
          "name": "amount",
          "type": "uint256"
        }
      ],
      "name": "handleRepayment",
      "outputs": [],
      "stateMutability": "nonpayable",
      "type": "function"
    },
    {
      "inputs": [
        {
          "internalType": "address",
          "name": "spender",
          "type": "address"
        },
        {
          "internalType": "uint256",
          "name": "addedValue",
          "type": "uint256"
        }
      ],
      "name": "increaseAllowance",
      "outputs": [
        {
          "internalType": "bool",
          "name": "",
          "type": "bool"
        }
      ],
      "stateMutability": "nonpayable",
      "type": "function"
    },
    {
      "inputs": [
        {
          "internalType": "contract ILendingPool",
          "name": "pool",
          "type": "address"
        },
        {
          "components": [
            {
              "internalType": "address",
              "name": "treasury",
              "type": "address"
            },
            {
              "internalType": "address",
              "name": "underlyingAsset",
              "type": "address"
            },
            {
              "internalType": "uint64",
              "name": "trancheId",
              "type": "uint64"
            }
          ],
          "internalType": "struct IInitializableAToken.InitializeTreasuryVars",
          "name": "vars",
          "type": "tuple"
        },
        {
          "internalType": "contract IAaveIncentivesController",
          "name": "incentivesController",
          "type": "address"
        },
        {
          "internalType": "uint8",
          "name": "aTokenDecimals",
          "type": "uint8"
        },
        {
          "internalType": "string",
          "name": "aTokenName",
          "type": "string"
        },
        {
          "internalType": "string",
          "name": "aTokenSymbol",
          "type": "string"
        },
        {
          "internalType": "bytes",
          "name": "params",
          "type": "bytes"
        }
      ],
      "name": "initialize",
      "outputs": [],
      "stateMutability": "nonpayable",
      "type": "function"
    },
    {
      "inputs": [
        {
          "internalType": "address",
          "name": "user",
          "type": "address"
        },
        {
          "internalType": "uint256",
          "name": "amount",
          "type": "uint256"
        },
        {
          "internalType": "uint256",
          "name": "index",
          "type": "uint256"
        }
      ],
      "name": "mint",
      "outputs": [
        {
          "internalType": "bool",
          "name": "",
          "type": "bool"
        }
      ],
      "stateMutability": "nonpayable",
      "type": "function"
    },
    {
      "inputs": [
        {
          "internalType": "uint256",
          "name": "amount",
          "type": "uint256"
        },
        {
          "internalType": "uint256",
          "name": "index",
          "type": "uint256"
        }
      ],
      "name": "mintToTreasury",
      "outputs": [],
      "stateMutability": "nonpayable",
      "type": "function"
    },
    {
      "inputs": [],
      "name": "name",
      "outputs": [
        {
          "internalType": "string",
          "name": "",
          "type": "string"
        }
      ],
      "stateMutability": "view",
      "type": "function"
    },
    {
      "inputs": [
        {
          "internalType": "address",
          "name": "owner",
          "type": "address"
        },
        {
          "internalType": "address",
          "name": "spender",
          "type": "address"
        },
        {
          "internalType": "uint256",
          "name": "value",
          "type": "uint256"
        },
        {
          "internalType": "uint256",
          "name": "deadline",
          "type": "uint256"
        },
        {
          "internalType": "uint8",
          "name": "v",
          "type": "uint8"
        },
        {
          "internalType": "bytes32",
          "name": "r",
          "type": "bytes32"
        },
        {
          "internalType": "bytes32",
          "name": "s",
          "type": "bytes32"
        }
      ],
      "name": "permit",
      "outputs": [],
      "stateMutability": "nonpayable",
      "type": "function"
    },
    {
      "inputs": [
        {
          "internalType": "address",
          "name": "user",
          "type": "address"
        }
      ],
      "name": "scaledBalanceOf",
      "outputs": [
        {
          "internalType": "uint256",
          "name": "",
          "type": "uint256"
        }
      ],
      "stateMutability": "view",
      "type": "function"
    },
    {
      "inputs": [],
      "name": "scaledTotalSupply",
      "outputs": [
        {
          "internalType": "uint256",
          "name": "",
          "type": "uint256"
        }
      ],
      "stateMutability": "view",
      "type": "function"
    },
    {
      "inputs": [],
      "name": "symbol",
      "outputs": [
        {
          "internalType": "string",
          "name": "",
          "type": "string"
        }
      ],
      "stateMutability": "view",
      "type": "function"
    },
    {
      "inputs": [],
      "name": "totalSupply",
      "outputs": [
        {
          "internalType": "uint256",
          "name": "",
          "type": "uint256"
        }
      ],
      "stateMutability": "view",
      "type": "function"
    },
    {
      "inputs": [
        {
          "internalType": "address",
          "name": "recipient",
          "type": "address"
        },
        {
          "internalType": "uint256",
          "name": "amount",
          "type": "uint256"
        }
      ],
      "name": "transfer",
      "outputs": [
        {
          "internalType": "bool",
          "name": "",
          "type": "bool"
        }
      ],
      "stateMutability": "nonpayable",
      "type": "function"
    },
    {
      "inputs": [
        {
          "internalType": "address",
          "name": "sender",
          "type": "address"
        },
        {
          "internalType": "address",
          "name": "recipient",
          "type": "address"
        },
        {
          "internalType": "uint256",
          "name": "amount",
          "type": "uint256"
        }
      ],
      "name": "transferFrom",
      "outputs": [
        {
          "internalType": "bool",
          "name": "",
          "type": "bool"
        }
      ],
      "stateMutability": "nonpayable",
      "type": "function"
    },
    {
      "inputs": [
        {
          "internalType": "address",
          "name": "from",
          "type": "address"
        },
        {
          "internalType": "address",
          "name": "to",
          "type": "address"
        },
        {
          "internalType": "uint256",
          "name": "value",
          "type": "uint256"
        }
      ],
      "name": "transferOnLiquidation",
      "outputs": [],
      "stateMutability": "nonpayable",
      "type": "function"
    },
    {
      "inputs": [
        {
          "internalType": "address",
          "name": "target",
          "type": "address"
        },
        {
          "internalType": "uint256",
          "name": "amount",
          "type": "uint256"
        }
      ],
      "name": "transferUnderlyingTo",
      "outputs": [
        {
          "internalType": "uint256",
          "name": "",
          "type": "uint256"
        }
      ],
      "stateMutability": "nonpayable",
      "type": "function"
    }
  ],
  "bytecode": "0x6080604052600080553480156200001557600080fd5b50604080518082018252600b8082526a105513d2d15397d253541360aa1b60208084018281528551808701909652928552840152815191929160009162000060916037919062000094565b5081516200007690603890602085019062000094565b506039805460ff191660ff9290921691909117905550620001779050565b828054620000a2906200013a565b90600052602060002090601f016020900481019282620000c6576000855562000111565b82601f10620000e157805160ff191683800117855562000111565b8280016001018555821562000111579182015b8281111562000111578251825591602001919060010190620000f4565b506200011f92915062000123565b5090565b5b808211156200011f576000815560010162000124565b6002810460018216806200014f57607f821691505b602082108114156200017157634e487b7160e01b600052602260045260246000fd5b50919050565b61282980620001876000396000f3fe608060405234801561001057600080fd5b50600436106101e55760003560e01c806375d264131161010f578063b16a19de116100a2578063d505accf11610071578063d505accf146103b6578063d7020d0a146103c9578063dd62ed3e146103dc578063f866c319146103ef576101e5565b8063b16a19de14610380578063b1bf962d14610388578063b9844d8d14610390578063cf75e14e146103a3576101e5565b806395d89b41116100de57806395d89b411461034a578063a457c2d714610352578063a9059cbb14610365578063ae16733514610378576101e5565b806375d2641314610312578063781603761461031a5780637df5bd3b1461032257806388dd91a114610337576101e5565b806323b872dd11610187578063395093511161015657806339509351146102c45780634efecaa5146102d757806370a08231146102ea5780637535d246146102fd576101e5565b806323b872dd1461028c57806330adf81f1461029f578063313ce567146102a75780633644e515146102bc576101e5565b80630bd7ad3b116101c35780630bd7ad3b14610249578063156e29f61461025e57806318160ddd146102715780631da24f3e14610279576101e5565b806306fdde03146101ea578063095ea7b3146102085780630afbcdc914610228575b600080fd5b6101f2610402565b6040516101ff919061230a565b60405180910390f35b61021b610216366004611e92565b610495565b6040516101ff9190612278565b61023b610236366004611d4c565b6104b3565b6040516101ff929190612625565b6102516104d0565b6040516101ff9190612283565b61021b61026c366004611ebd565b6104d5565b61025161061e565b610251610287366004611d4c565b6106e1565b61021b61029a366004611da0565b6106f4565b6102516107b4565b6102af6107d8565b6040516101ff9190612633565b6102516107e1565b61021b6102d2366004611e92565b6107e7565b6102516102e5366004611e92565b610835565b6102516102f8366004611d4c565b6108ad565b61030561095b565b6040516101ff919061214b565b61030561096a565b6101f2610979565b61033561033036600461208d565b610996565b005b610335610345366004611e92565b610a9a565b6101f2610af6565b61021b610360366004611e92565b610b05565b61021b610373366004611e92565b610b6d565b610305610bca565b610305610bd9565b610251610be8565b61025161039e366004611d4c565b610bf2565b6103356103b1366004611f11565b610c04565b6103356103c4366004611e25565b610ee0565b6103356103d7366004611de0565b611078565b6102516103ea366004611d68565b6111c6565b6103356103fd366004611da0565b6111f1565b606060378054610411906126db565b80601f016020809104026020016040519081016040528092919081815260200182805461043d906126db565b801561048a5780601f1061045f5761010080835404028352916020019161048a565b820191906000526020600020905b81548152906001019060200180831161046d57829003601f168201915b505050505090505b90565b60006104a96104a2611294565b8484611298565b5060015b92915050565b6000806104bf8361133f565b6104c761135a565b91509150915091565b600181565b603c546000906001600160a01b03166104ec611294565b6001600160a01b03161460405180604001604052806002815260200161323960f01b815250906105385760405162461bcd60e51b815260040161052f919061230a565b60405180910390fd5b5060006105448561133f565b905060006105528585611360565b6040805180820190915260028152611a9b60f11b60208201529091508161058c5760405162461bcd60e51b815260040161052f919061230a565b50610597868261143e565b856001600160a01b031660006001600160a01b03166000805160206127af833981519152876040516105c99190612283565b60405180910390a3856001600160a01b03167f4c209b5fc8ad50758f13e2e1088ba56a560dff690a1c6fef26394f4c03821c4f868660405161060c929190612625565b60405180910390a25015949350505050565b60008061062961135a565b90508061063a576000915050610492565b603c54603e54604051632bc9433f60e21b81526106db926001600160a01b039081169263af250cfc9261068492821691600160a01b900467ffffffffffffffff1690600401612207565b60206040518083038186803b15801561069c57600080fd5b505afa1580156106b0573d6000803e3d6000fd5b505050506040513d601f19601f820116820180604052508101906106d49190612075565b8290611545565b91505090565b60006106ec8261133f565b90505b919050565b6000610701848484611607565b6107718461070d611294565b61076c85604051806060016040528060288152602001612787602891396001600160a01b038a1660009081526035602052604081209061074b611294565b6001600160a01b031681526020810191909152604001600020549190611614565b611298565b826001600160a01b0316846001600160a01b03166000805160206127af833981519152846040516107a29190612283565b60405180910390a35060019392505050565b7f6e71edae12b1b97f4d1f60370fef10105fa2faae0126114a169c64845d6126c981565b60395460ff1690565b603b5481565b60006104a96107f4611294565b8461076c8560356000610805611294565b6001600160a01b03908116825260208083019390935260409182016000908120918c168152925290205490611640565b603c546000906001600160a01b031661084c611294565b6001600160a01b03161460405180604001604052806002815260200161323960f01b8152509061088f5760405162461bcd60e51b815260040161052f919061230a565b50603e546108a7906001600160a01b0316848461164c565b50919050565b603c54603e54604051632bc9433f60e21b81526000926106ec926001600160a01b039182169263af250cfc926108fc9290811691600160a01b90910467ffffffffffffffff1690600401612207565b60206040518083038186803b15801561091457600080fd5b505afa158015610928573d6000803e3d6000fd5b505050506040513d601f19601f8201168201806040525081019061094c9190612075565b6109558461133f565b90611545565b603c546001600160a01b031690565b60006109746116a2565b905090565b604051806040016040528060018152602001603160f81b81525081565b603c546001600160a01b03166109aa611294565b6001600160a01b03161460405180604001604052806002815260200161323960f01b815250906109ed5760405162461bcd60e51b815260040161052f919061230a565b50816109f857610a96565b603d546001600160a01b0316610a1781610a128585611360565b61143e565b806001600160a01b031660006001600160a01b03166000805160206127af83398151915285604051610a499190612283565b60405180910390a3806001600160a01b03167f4c209b5fc8ad50758f13e2e1088ba56a560dff690a1c6fef26394f4c03821c4f8484604051610a8c929190612625565b60405180910390a2505b5050565b603c546001600160a01b0316610aae611294565b6001600160a01b03161460405180604001604052806002815260200161323960f01b81525090610af15760405162461bcd60e51b815260040161052f919061230a565b505050565b606060388054610411906126db565b60006104a9610b12611294565b8461076c856040518060600160405280602581526020016127cf6025913960356000610b3c611294565b6001600160a01b03908116825260208083019390935260409182016000908120918d16815292529020549190611614565b6000610b81610b7a611294565b8484611607565b826001600160a01b0316610b93611294565b6001600160a01b03166000805160206127af83398151915284604051610bb99190612283565b60405180910390a350600192915050565b603d546001600160a01b031690565b603e546001600160a01b031690565b600061097461135a565b603a6020526000908152604090205481565b6000610c0e6116b1565b60015490915060ff1680610c255750610c256116b6565b80610c31575060005481115b610c4d5760405162461bcd60e51b815260040161052f90612402565b60015460ff16158015610c6c576001805460ff19168117905560008290555b60405146907f8b73c3c69bb8fe3d512ecc4cf759cc79239f7b179b0ffacaa9a75d522b39400f90610ca0908b908b90612104565b60408051918290038220828201825260018352603160f81b6020938401529051610cf193927fc89efdaa54c0f20c7adf612882df0950f5a951637e0307cdcb4c672f298b8bc69186913091016122c0565b60408051601f198184030181528282528051602091820120603b55601f8b01819004810283018101909152898252610d4491908b908b90819084018382808284376000920191909152506116bc92505050565b610d8387878080601f0160208091040260200160405190810160405280939291908181526020018383808284376000920191909152506116cf92505050565b610d8c8a6116e2565b8c603c60006101000a8154816001600160a01b0302191690836001600160a01b031602179055508b60000151603d60006101000a8154816001600160a01b0302191690836001600160a01b031602179055508b60200151603e60006101000a8154816001600160a01b0302191690836001600160a01b031602179055508a603f60006101000a8154816001600160a01b0302191690836001600160a01b031602179055508b60400151603e60146101000a81548167ffffffffffffffff021916908367ffffffffffffffff1602179055508c6001600160a01b03168c602001516001600160a01b03167fb19e051f8af41150ccccb3fc2c2d8d15f4a4cf434f32a559ba75fe73d6eea20b8e600001518e8e8e8e8e8e8e8e604051610eb89998979695949392919061215f565b60405180910390a3508015610ed2576001805460ff191690555b505050505050505050505050565b6001600160a01b038716610f065760405162461bcd60e51b815260040161052f9061247c565b83421115610f265760405162461bcd60e51b815260040161052f90612450565b6001600160a01b0387166000908152603a6020908152604080832054603b549151909392610f80917f6e71edae12b1b97f4d1f60370fef10105fa2faae0126114a169c64845d6126c9918d918d918d9189918e910161228c565b60405160208183030381529060405280519060200120604051602001610fa7929190612130565b60405160208183030381529060405280519060200120905060018186868660405160008152602001604052604051610fe294939291906122ec565b6020604051602081039080840390855afa158015611004573d6000803e3d6000fd5b505050602060405103516001600160a01b0316896001600160a01b03161461103e5760405162461bcd60e51b815260040161052f906123d7565b611049826001611640565b6001600160a01b038a166000908152603a602052604090205561106d898989611298565b505050505050505050565b603c546001600160a01b031661108c611294565b6001600160a01b03161460405180604001604052806002815260200161323960f01b815250906110cf5760405162461bcd60e51b815260040161052f919061230a565b5060006110dc8383611360565b60408051808201909152600281526106a760f31b6020820152909150816111165760405162461bcd60e51b815260040161052f919061230a565b5061112185826116f8565b603e54611138906001600160a01b0316858561164c565b60006001600160a01b0316856001600160a01b03166000805160206127af8339815191528560405161116a9190612283565b60405180910390a3836001600160a01b0316856001600160a01b03167f5d624aa9c148153ab3446c1b154f660ee7701e549fe9b62dab7171b1c80e6fa285856040516111b7929190612625565b60405180910390a35050505050565b6001600160a01b03918216600090815260356020908152604080832093909416825291909152205490565b603c546001600160a01b0316611205611294565b6001600160a01b03161460405180604001604052806002815260200161323960f01b815250906112485760405162461bcd60e51b815260040161052f919061230a565b50611256838383600061177d565b816001600160a01b0316836001600160a01b03166000805160206127af833981519152836040516112879190612283565b60405180910390a3505050565b3390565b6001600160a01b0383166112be5760405162461bcd60e51b815260040161052f90612529565b6001600160a01b0382166112e45760405162461bcd60e51b815260040161052f90612360565b6001600160a01b0380841660008181526035602090815260408083209487168084529490915290819020849055517f8c5be1e5ebec7d5bd14f71427d1e84f3dd0314c0f7b2291e5b200ac8c7c3b92590611287908590612283565b6001600160a01b031660009081526034602052604090205490565b60365490565b604080518082019091526002815261035360f41b60208201526000908261139a5760405162461bcd60e51b815260040161052f919061230a565b5060006113a8600284612659565b90506b033b2e3c9fd0803ce80000006113c382600019612698565b6113cd9190612659565b84111560405180604001604052806002815260200161068760f31b815250906114095760405162461bcd60e51b815260040161052f919061230a565b5082816114226b033b2e3c9fd0803ce800000087612679565b61142c9190612641565b6114369190612659565b949350505050565b6001600160a01b0382166114645760405162461bcd60e51b815260040161052f906125ee565b61147060008383610af1565b60365461147d8183611640565b6036556001600160a01b0383166000908152603460205260409020546114a38184611640565b6001600160a01b0385166000908152603460205260408120919091556114c76116a2565b6001600160a01b03161461153f576114dd6116a2565b6001600160a01b03166331873e2e8584846040518463ffffffff1660e01b815260040161150c939291906121e6565b600060405180830381600087803b15801561152657600080fd5b505af115801561153a573d6000803e3d6000fd5b505050505b50505050565b6000821580611552575081155b1561155f575060006104ad565b8161157760026b033b2e3c9fd0803ce8000000612659565b61158390600019612698565b61158d9190612659565b83111560405180604001604052806002815260200161068760f31b815250906115c95760405162461bcd60e51b815260040161052f919061230a565b506b033b2e3c9fd0803ce80000006115e2600282612659565b6115ec8486612679565b6115f69190612641565b6116009190612659565b9392505050565b610af1838383600161177d565b600081848411156116385760405162461bcd60e51b815260040161052f919061230a565b505050900390565b60006116008284612641565b610af18363a9059cbb60e01b848460405160240161166b9291906121cd565b60408051601f198184030181529190526020810180516001600160e01b03166001600160e01b031990931692909217909152611930565b603f546001600160a01b031690565b600290565b303b1590565b8051610a96906037906020840190611c50565b8051610a96906038906020840190611c50565b6039805460ff191660ff92909216919091179055565b6001600160a01b03821661171e5760405162461bcd60e51b815260040161052f906124a3565b61172a82600083610af1565b6036546117378183611a14565b6036556001600160a01b03831660009081526034602090815260409182902054825160608101909352602280845290926114a39286929061273f90830139839190611614565b603e54603c54604051632bc9433f60e21b81526001600160a01b0380841693921691600091839163af250cfc916117cb918791600160a01b90910467ffffffffffffffff1690600401612207565b60206040518083038186803b1580156117e357600080fd5b505afa1580156117f7573d6000803e3d6000fd5b505050506040513d601f19601f8201168201806040525081019061181b9190612075565b9050600061182c826109558a61133f565b9050600061183d836109558a61133f565b9050611853898961184e8a87611360565b611a20565b85156118d857603e5460405163560e7e6360e01b81526001600160a01b0386169163560e7e63916118a5918991600160a01b90910467ffffffffffffffff16908e908e908e908a908a9060040161222a565b600060405180830381600087803b1580156118bf57600080fd5b505af11580156118d3573d6000803e3d6000fd5b505050505b876001600160a01b0316896001600160a01b03167f4beccb90f994c31aced7a23b5611020728a23d8ec5cddd1a3e9d97b96fda8666898660405161191d929190612625565b60405180910390a3505050505050505050565b611942826001600160a01b0316611c1f565b61195e5760405162461bcd60e51b815260040161052f906125b7565b600080836001600160a01b0316836040516119799190612114565b6000604051808303816000865af19150503d80600081146119b6576040519150601f19603f3d011682016040523d82523d6000602084013e6119bb565b606091505b5091509150816119dd5760405162461bcd60e51b815260040161052f906123a2565b80511561153f57808060200190518101906119f89190611ef1565b61153f5760405162461bcd60e51b815260040161052f9061256d565b60006116008284612698565b6001600160a01b038316611a465760405162461bcd60e51b815260040161052f906124e4565b6001600160a01b038216611a6c5760405162461bcd60e51b815260040161052f9061231d565b611a77838383610af1565b600060346000856001600160a01b03166001600160a01b03168152602001908152602001600020549050611ac68260405180606001604052806026815260200161276160269139839190611614565b6001600160a01b038086166000908152603460205260408082209390935590851681522054611af58184611640565b6001600160a01b038516600090815260346020526040812091909155611b196116a2565b6001600160a01b031614611c1857603654611b326116a2565b6001600160a01b03166331873e2e8783866040518463ffffffff1660e01b8152600401611b61939291906121e6565b600060405180830381600087803b158015611b7b57600080fd5b505af1158015611b8f573d6000803e3d6000fd5b50505050846001600160a01b0316866001600160a01b031614611c1657611bb46116a2565b6001600160a01b03166331873e2e8683856040518463ffffffff1660e01b8152600401611be3939291906121e6565b600060405180830381600087803b158015611bfd57600080fd5b505af1158015611c11573d6000803e3d6000fd5b505050505b505b5050505050565b600080826001600160a01b0316803b806020016040519081016040528181526000908060200190933c511192915050565b828054611c5c906126db565b90600052602060002090601f016020900481019282611c7e5760008555611cc4565b82601f10611c9757805160ff1916838001178555611cc4565b82800160010185558215611cc4579182015b82811115611cc4578251825591602001919060010190611ca9565b50611cd0929150611cd4565b5090565b5b80821115611cd05760008155600101611cd5565b60008083601f840112611cfa578182fd5b50813567ffffffffffffffff811115611d11578182fd5b602083019150836020828501011115611d2957600080fd5b9250929050565b80356106ef81612726565b803560ff811681146106ef57600080fd5b600060208284031215611d5d578081fd5b813561160081612726565b60008060408385031215611d7a578081fd5b8235611d8581612726565b91506020830135611d9581612726565b809150509250929050565b600080600060608486031215611db4578081fd5b8335611dbf81612726565b92506020840135611dcf81612726565b929592945050506040919091013590565b60008060008060808587031215611df5578081fd5b8435611e0081612726565b93506020850135611e1081612726565b93969395505050506040820135916060013590565b600080600080600080600060e0888a031215611e3f578283fd5b8735611e4a81612726565b96506020880135611e5a81612726565b95506040880135945060608801359350611e7660808901611d3b565b925060a0880135915060c0880135905092959891949750929550565b60008060408385031215611ea4578182fd5b8235611eaf81612726565b946020939093013593505050565b600080600060608486031215611ed1578283fd5b8335611edc81612726565b95602085013595506040909401359392505050565b600060208284031215611f02578081fd5b81518015158114611600578182fd5b6000806000806000806000806000806101208b8d031215611f30578283fd5b611f3a8b35612726565b8a35995060608b8d03601f19011215611f51578283fd5b60405167ffffffffffffffff8160608301108160608401111715611f8357634e487b7160e01b85526041600452602485fd5b60608201604052611f9760208e0135612726565b60208d01358252611fab60408e0135612726565b60408d0135602083015260608d01358181168114611fc7578586fd5b80604084015250819a50611fdd60808e01611d30565b9950611feb60a08e01611d3b565b98508060c08e01351115611ffd578485fd5b61200d8e60c08f01358f01611ce9565b9250809850508196508060e08e01351115612026578485fd5b6120368e60e08f01358f01611ce9565b90965094506101008d013591508082111561204f578384fd5b5061205c8d828e01611ce9565b915080935050809150509295989b9194979a5092959850565b600060208284031215612086578081fd5b5051919050565b6000806040838503121561209f578182fd5b50508035926020909101359150565b60008284528282602086013780602084860101526020601f19601f85011685010190509392505050565b600081518084526120f08160208601602086016126af565b601f01601f19169290920160200192915050565b6000828483379101908152919050565b600082516121268184602087016126af565b9190910192915050565b61190160f01b81526002810192909252602282015260420190565b6001600160a01b0391909116815260200190565b6001600160a01b038a811682528916602082015260ff8816604082015260c060608201819052600090612195908301888a6120ae565b82810360808401526121a88187896120ae565b905082810360a08401526121bd8185876120ae565b9c9b505050505050505050505050565b6001600160a01b03929092168252602082015260400190565b6001600160a01b039390931683526020830191909152604082015260600190565b6001600160a01b0392909216825267ffffffffffffffff16602082015260400190565b6001600160a01b03978816815267ffffffffffffffff9690961660208701529386166040860152919094166060840152608083019390935260a082019290925260c081019190915260e00190565b901515815260200190565b90815260200190565b9586526001600160a01b0394851660208701529290931660408501526060840152608083019190915260a082015260c00190565b9485526020850193909352604084019190915260608301526001600160a01b0316608082015260a00190565b93845260ff9290921660208401526040830152606082015260800190565b60006020825261160060208301846120d8565b60208082526023908201527f45524332303a207472616e7366657220746f20746865207a65726f206164647260408201526265737360e81b606082015260800190565b60208082526022908201527f45524332303a20617070726f766520746f20746865207a65726f206164647265604082015261737360f01b606082015260800190565b6020808252818101527f5361666545524332303a206c6f772d6c6576656c2063616c6c206661696c6564604082015260600190565b602080825260119082015270494e56414c49445f5349474e415455524560781b604082015260600190565b6020808252602e908201527f436f6e747261637420696e7374616e63652068617320616c726561647920626560408201526d195b881a5b9a5d1a585b1a5e995960921b606082015260800190565b60208082526012908201527124a72b20a624a22fa2ac2824a920aa24a7a760711b604082015260600190565b6020808252600d908201526c24a72b20a624a22fa7aba722a960991b604082015260600190565b60208082526021908201527f45524332303a206275726e2066726f6d20746865207a65726f206164647265736040820152607360f81b606082015260800190565b60208082526025908201527f45524332303a207472616e736665722066726f6d20746865207a65726f206164604082015264647265737360d81b606082015260800190565b60208082526024908201527f45524332303a20617070726f76652066726f6d20746865207a65726f206164646040820152637265737360e01b606082015260800190565b6020808252602a908201527f5361666545524332303a204552433230206f7065726174696f6e20646964206e6040820152691bdd081cdd58d8d9595960b21b606082015260800190565b6020808252601f908201527f5361666545524332303a2063616c6c20746f206e6f6e2d636f6e747261637400604082015260600190565b6020808252601f908201527f45524332303a206d696e7420746f20746865207a65726f206164647265737300604082015260600190565b918252602082015260400190565b60ff91909116815260200190565b6000821982111561265457612654612710565b500190565b60008261267457634e487b7160e01b81526012600452602481fd5b500490565b600081600019048311821515161561269357612693612710565b500290565b6000828210156126aa576126aa612710565b500390565b60005b838110156126ca5781810151838201526020016126b2565b8381111561153f5750506000910152565b6002810460018216806126ef57607f821691505b602082108114156108a757634e487b7160e01b600052602260045260246000fd5b634e487b7160e01b600052601160045260246000fd5b6001600160a01b038116811461273b57600080fd5b5056fe45524332303a206275726e20616d6f756e7420657863656564732062616c616e636545524332303a207472616e7366657220616d6f756e7420657863656564732062616c616e636545524332303a207472616e7366657220616d6f756e74206578636565647320616c6c6f77616e6365ddf252ad1be2c89b69c2b068fc378daa952ba7f163c4a11628f55a4df523b3ef45524332303a2064656372656173656420616c6c6f77616e63652062656c6f77207a65726fa26469706673582212200fd02958fc7f600bdc724d8c121d0064627854416a7530dcc7824f33a5da743364736f6c63430008000033",
  "linkReferences": {},
  "deployedLinkReferences": {}
}