{
  "_format": "hh-sol-artifact-1",
  "contractName": "MockAToken",
  "sourceName": "contracts/mocks/upgradeability/MockAToken.sol",
  "abi": [
    {
      "anonymous": false,
      "inputs": [
        {
          "indexed": true,
          "internalType": "address",
          "name": "owner",
          "type": "address"
        },
        {
          "indexed": true,
          "internalType": "address",
          "name": "spender",
          "type": "address"
        },
        {
          "indexed": false,
          "internalType": "uint256",
          "name": "value",
          "type": "uint256"
        }
      ],
      "name": "Approval",
      "type": "event"
    },
    {
      "anonymous": false,
      "inputs": [
        {
          "indexed": true,
          "internalType": "address",
          "name": "from",
          "type": "address"
        },
        {
          "indexed": true,
          "internalType": "address",
          "name": "to",
          "type": "address"
        },
        {
          "indexed": false,
          "internalType": "uint256",
          "name": "value",
          "type": "uint256"
        },
        {
          "indexed": false,
          "internalType": "uint256",
          "name": "index",
          "type": "uint256"
        }
      ],
      "name": "BalanceTransfer",
      "type": "event"
    },
    {
      "anonymous": false,
      "inputs": [
        {
          "indexed": true,
          "internalType": "address",
          "name": "from",
          "type": "address"
        },
        {
          "indexed": true,
          "internalType": "address",
          "name": "target",
          "type": "address"
        },
        {
          "indexed": false,
          "internalType": "uint256",
          "name": "value",
          "type": "uint256"
        },
        {
          "indexed": false,
          "internalType": "uint256",
          "name": "index",
          "type": "uint256"
        }
      ],
      "name": "Burn",
      "type": "event"
    },
    {
      "anonymous": false,
      "inputs": [
        {
          "indexed": true,
          "internalType": "address",
          "name": "underlyingAsset",
          "type": "address"
        },
        {
          "indexed": true,
          "internalType": "address",
          "name": "pool",
          "type": "address"
        },
        {
          "indexed": false,
          "internalType": "address",
          "name": "treasury",
          "type": "address"
        },
        {
          "indexed": false,
          "internalType": "address",
          "name": "incentivesController",
          "type": "address"
        },
        {
          "indexed": false,
          "internalType": "uint8",
          "name": "aTokenDecimals",
          "type": "uint8"
        },
        {
          "indexed": false,
          "internalType": "string",
          "name": "aTokenName",
          "type": "string"
        },
        {
          "indexed": false,
          "internalType": "string",
          "name": "aTokenSymbol",
          "type": "string"
        },
        {
          "indexed": false,
          "internalType": "bytes",
          "name": "params",
          "type": "bytes"
        }
      ],
      "name": "Initialized",
      "type": "event"
    },
    {
      "anonymous": false,
      "inputs": [
        {
          "indexed": true,
          "internalType": "address",
          "name": "from",
          "type": "address"
        },
        {
          "indexed": false,
          "internalType": "uint256",
          "name": "value",
          "type": "uint256"
        },
        {
          "indexed": false,
          "internalType": "uint256",
          "name": "index",
          "type": "uint256"
        }
      ],
      "name": "Mint",
      "type": "event"
    },
    {
      "anonymous": false,
      "inputs": [
        {
          "indexed": true,
          "internalType": "address",
          "name": "from",
          "type": "address"
        },
        {
          "indexed": true,
          "internalType": "address",
          "name": "to",
          "type": "address"
        },
        {
          "indexed": false,
          "internalType": "uint256",
          "name": "value",
          "type": "uint256"
        }
      ],
      "name": "Transfer",
      "type": "event"
    },
    {
      "anonymous": false,
      "inputs": [
        {
          "indexed": true,
          "internalType": "address",
          "name": "newAddress",
          "type": "address"
        }
      ],
      "name": "TreasuryChanged",
      "type": "event"
    },
    {
      "anonymous": false,
      "inputs": [
        {
          "indexed": true,
          "internalType": "address",
          "name": "newAddress",
          "type": "address"
        }
      ],
      "name": "VMEXTreasuryChanged",
      "type": "event"
    },
    {
      "inputs": [],
      "name": "ATOKEN_REVISION",
      "outputs": [
        {
          "internalType": "uint256",
          "name": "",
          "type": "uint256"
        }
      ],
      "stateMutability": "view",
      "type": "function"
    },
    {
      "inputs": [],
      "name": "DOMAIN_SEPARATOR",
      "outputs": [
        {
          "internalType": "bytes32",
          "name": "",
          "type": "bytes32"
        }
      ],
      "stateMutability": "view",
      "type": "function"
    },
    {
      "inputs": [],
      "name": "EIP712_REVISION",
      "outputs": [
        {
          "internalType": "bytes",
          "name": "",
          "type": "bytes"
        }
      ],
      "stateMutability": "view",
      "type": "function"
    },
    {
      "inputs": [],
      "name": "PERMIT_TYPEHASH",
      "outputs": [
        {
          "internalType": "bytes32",
          "name": "",
          "type": "bytes32"
        }
      ],
      "stateMutability": "view",
      "type": "function"
    },
    {
      "inputs": [],
      "name": "POOL",
      "outputs": [
        {
          "internalType": "contract ILendingPool",
          "name": "",
          "type": "address"
        }
      ],
      "stateMutability": "view",
      "type": "function"
    },
    {
      "inputs": [],
      "name": "RESERVE_TREASURY_ADDRESS",
      "outputs": [
        {
          "internalType": "address",
          "name": "",
          "type": "address"
        }
      ],
      "stateMutability": "view",
      "type": "function"
    },
    {
      "inputs": [],
      "name": "UNDERLYING_ASSET_ADDRESS",
      "outputs": [
        {
          "internalType": "address",
          "name": "",
          "type": "address"
        }
      ],
      "stateMutability": "view",
      "type": "function"
    },
    {
      "inputs": [
        {
          "internalType": "address",
          "name": "",
          "type": "address"
        }
      ],
      "name": "_nonces",
      "outputs": [
        {
          "internalType": "uint256",
          "name": "",
          "type": "uint256"
        }
      ],
      "stateMutability": "view",
      "type": "function"
    },
    {
      "inputs": [
        {
          "internalType": "address",
          "name": "owner",
          "type": "address"
        },
        {
          "internalType": "address",
          "name": "spender",
          "type": "address"
        }
      ],
      "name": "allowance",
      "outputs": [
        {
          "internalType": "uint256",
          "name": "",
          "type": "uint256"
        }
      ],
      "stateMutability": "view",
      "type": "function"
    },
    {
      "inputs": [
        {
          "internalType": "address",
          "name": "spender",
          "type": "address"
        },
        {
          "internalType": "uint256",
          "name": "amount",
          "type": "uint256"
        }
      ],
      "name": "approve",
      "outputs": [
        {
          "internalType": "bool",
          "name": "",
          "type": "bool"
        }
      ],
      "stateMutability": "nonpayable",
      "type": "function"
    },
    {
      "inputs": [
        {
          "internalType": "address",
          "name": "user",
          "type": "address"
        }
      ],
      "name": "balanceOf",
      "outputs": [
        {
          "internalType": "uint256",
          "name": "",
          "type": "uint256"
        }
      ],
      "stateMutability": "view",
      "type": "function"
    },
    {
      "inputs": [
        {
          "internalType": "address",
          "name": "user",
          "type": "address"
        },
        {
          "internalType": "address",
          "name": "receiverOfUnderlying",
          "type": "address"
        },
        {
          "internalType": "uint256",
          "name": "amount",
          "type": "uint256"
        },
        {
          "internalType": "uint256",
          "name": "index",
          "type": "uint256"
        }
      ],
      "name": "burn",
      "outputs": [],
      "stateMutability": "nonpayable",
      "type": "function"
    },
    {
      "inputs": [],
      "name": "decimals",
      "outputs": [
        {
          "internalType": "uint8",
          "name": "",
          "type": "uint8"
        }
      ],
      "stateMutability": "view",
      "type": "function"
    },
    {
      "inputs": [
        {
          "internalType": "address",
          "name": "spender",
          "type": "address"
        },
        {
          "internalType": "uint256",
          "name": "subtractedValue",
          "type": "uint256"
        }
      ],
      "name": "decreaseAllowance",
      "outputs": [
        {
          "internalType": "bool",
          "name": "",
          "type": "bool"
        }
      ],
      "stateMutability": "nonpayable",
      "type": "function"
    },
    {
      "inputs": [],
      "name": "getIncentivesController",
      "outputs": [
        {
          "internalType": "contract IAaveIncentivesController",
          "name": "",
          "type": "address"
        }
      ],
      "stateMutability": "view",
      "type": "function"
    },
    {
      "inputs": [
        {
          "internalType": "address",
          "name": "user",
          "type": "address"
        }
      ],
      "name": "getScaledUserBalanceAndSupply",
      "outputs": [
        {
          "internalType": "uint256",
          "name": "",
          "type": "uint256"
        },
        {
          "internalType": "uint256",
          "name": "",
          "type": "uint256"
        }
      ],
      "stateMutability": "view",
      "type": "function"
    },
    {
      "inputs": [],
      "name": "getStrategy",
      "outputs": [
        {
          "internalType": "address",
          "name": "",
          "type": "address"
        }
      ],
      "stateMutability": "view",
      "type": "function"
    },
    {
      "inputs": [
        {
          "internalType": "address",
          "name": "user",
          "type": "address"
        },
        {
          "internalType": "uint256",
          "name": "amount",
          "type": "uint256"
        }
      ],
      "name": "handleRepayment",
      "outputs": [],
      "stateMutability": "nonpayable",
      "type": "function"
    },
    {
      "inputs": [
        {
          "internalType": "address",
          "name": "spender",
          "type": "address"
        },
        {
          "internalType": "uint256",
          "name": "addedValue",
          "type": "uint256"
        }
      ],
      "name": "increaseAllowance",
      "outputs": [
        {
          "internalType": "bool",
          "name": "",
          "type": "bool"
        }
      ],
      "stateMutability": "nonpayable",
      "type": "function"
    },
    {
      "inputs": [
        {
          "internalType": "contract ILendingPool",
          "name": "pool",
          "type": "address"
        },
        {
          "components": [
            {
              "internalType": "address",
              "name": "lendingPoolConfigurator",
              "type": "address"
            },
            {
              "internalType": "address",
              "name": "treasury",
              "type": "address"
            },
            {
              "internalType": "address",
              "name": "VMEXTreasury",
              "type": "address"
            },
            {
              "internalType": "address",
              "name": "underlyingAsset",
              "type": "address"
            },
            {
              "internalType": "uint64",
              "name": "trancheId",
              "type": "uint64"
            }
          ],
          "internalType": "struct IInitializableAToken.InitializeTreasuryVars",
          "name": "vars",
          "type": "tuple"
        },
        {
          "internalType": "contract IAaveIncentivesController",
          "name": "incentivesController",
          "type": "address"
        },
        {
          "internalType": "uint8",
          "name": "aTokenDecimals",
          "type": "uint8"
        },
        {
          "internalType": "string",
          "name": "aTokenName",
          "type": "string"
        },
        {
          "internalType": "string",
          "name": "aTokenSymbol",
          "type": "string"
        },
        {
          "internalType": "bytes",
          "name": "params",
          "type": "bytes"
        }
      ],
      "name": "initialize",
      "outputs": [],
      "stateMutability": "nonpayable",
      "type": "function"
    },
    {
      "inputs": [],
      "name": "minSupplyQuotient",
      "outputs": [
        {
          "internalType": "uint256",
          "name": "",
          "type": "uint256"
        }
      ],
      "stateMutability": "view",
      "type": "function"
    },
    {
      "inputs": [
        {
          "internalType": "address",
          "name": "user",
          "type": "address"
        },
        {
          "internalType": "uint256",
          "name": "amount",
          "type": "uint256"
        },
        {
          "internalType": "uint256",
          "name": "index",
          "type": "uint256"
        }
      ],
      "name": "mint",
      "outputs": [
        {
          "internalType": "bool",
          "name": "",
          "type": "bool"
        }
      ],
      "stateMutability": "nonpayable",
      "type": "function"
    },
    {
      "inputs": [
        {
          "internalType": "uint256",
          "name": "amount",
          "type": "uint256"
        },
        {
          "internalType": "uint256",
          "name": "index",
          "type": "uint256"
        }
      ],
      "name": "mintToTreasury",
      "outputs": [],
      "stateMutability": "nonpayable",
      "type": "function"
    },
    {
      "inputs": [
        {
          "internalType": "uint256",
          "name": "amount",
          "type": "uint256"
        },
        {
          "internalType": "uint256",
          "name": "index",
          "type": "uint256"
        }
      ],
      "name": "mintToVMEXTreasury",
      "outputs": [],
      "stateMutability": "nonpayable",
      "type": "function"
    },
    {
      "inputs": [],
      "name": "name",
      "outputs": [
        {
          "internalType": "string",
          "name": "",
          "type": "string"
        }
      ],
      "stateMutability": "view",
      "type": "function"
    },
    {
      "inputs": [
        {
          "internalType": "address",
          "name": "owner",
          "type": "address"
        },
        {
          "internalType": "address",
          "name": "spender",
          "type": "address"
        },
        {
          "internalType": "uint256",
          "name": "value",
          "type": "uint256"
        },
        {
          "internalType": "uint256",
          "name": "deadline",
          "type": "uint256"
        },
        {
          "internalType": "uint8",
          "name": "v",
          "type": "uint8"
        },
        {
          "internalType": "bytes32",
          "name": "r",
          "type": "bytes32"
        },
        {
          "internalType": "bytes32",
          "name": "s",
          "type": "bytes32"
        }
      ],
      "name": "permit",
      "outputs": [],
      "stateMutability": "nonpayable",
      "type": "function"
    },
    {
      "inputs": [
        {
          "internalType": "address",
          "name": "user",
          "type": "address"
        }
      ],
      "name": "scaledBalanceOf",
      "outputs": [
        {
          "internalType": "uint256",
          "name": "",
          "type": "uint256"
        }
      ],
      "stateMutability": "view",
      "type": "function"
    },
    {
      "inputs": [],
      "name": "scaledTotalSupply",
      "outputs": [
        {
          "internalType": "uint256",
          "name": "",
          "type": "uint256"
        }
      ],
      "stateMutability": "view",
      "type": "function"
    },
    {
      "inputs": [
        {
          "internalType": "address",
          "name": "strategy",
          "type": "address"
        }
      ],
      "name": "setAndApproveStrategy",
      "outputs": [],
      "stateMutability": "nonpayable",
      "type": "function"
    },
    {
      "inputs": [
        {
          "internalType": "address",
          "name": "newTreasury",
          "type": "address"
        }
      ],
      "name": "setTreasury",
      "outputs": [],
      "stateMutability": "nonpayable",
      "type": "function"
    },
    {
      "inputs": [
        {
          "internalType": "address",
          "name": "newTreasury",
          "type": "address"
        }
      ],
      "name": "setVMEXTreasury",
      "outputs": [],
      "stateMutability": "nonpayable",
      "type": "function"
    },
    {
      "inputs": [],
      "name": "symbol",
      "outputs": [
        {
          "internalType": "string",
          "name": "",
          "type": "string"
        }
      ],
      "stateMutability": "view",
      "type": "function"
    },
    {
      "inputs": [],
      "name": "targetSupplyQuotient",
      "outputs": [
        {
          "internalType": "uint256",
          "name": "",
          "type": "uint256"
        }
      ],
      "stateMutability": "view",
      "type": "function"
    },
    {
      "inputs": [],
      "name": "totalSupply",
      "outputs": [
        {
          "internalType": "uint256",
          "name": "",
          "type": "uint256"
        }
      ],
      "stateMutability": "view",
      "type": "function"
    },
    {
      "inputs": [
        {
          "internalType": "address",
          "name": "recipient",
          "type": "address"
        },
        {
          "internalType": "uint256",
          "name": "amount",
          "type": "uint256"
        }
      ],
      "name": "transfer",
      "outputs": [
        {
          "internalType": "bool",
          "name": "",
          "type": "bool"
        }
      ],
      "stateMutability": "nonpayable",
      "type": "function"
    },
    {
      "inputs": [
        {
          "internalType": "address",
          "name": "sender",
          "type": "address"
        },
        {
          "internalType": "address",
          "name": "recipient",
          "type": "address"
        },
        {
          "internalType": "uint256",
          "name": "amount",
          "type": "uint256"
        }
      ],
      "name": "transferFrom",
      "outputs": [
        {
          "internalType": "bool",
          "name": "",
          "type": "bool"
        }
      ],
      "stateMutability": "nonpayable",
      "type": "function"
    },
    {
      "inputs": [
        {
          "internalType": "address",
          "name": "from",
          "type": "address"
        },
        {
          "internalType": "address",
          "name": "to",
          "type": "address"
        },
        {
          "internalType": "uint256",
          "name": "value",
          "type": "uint256"
        }
      ],
      "name": "transferOnLiquidation",
      "outputs": [],
      "stateMutability": "nonpayable",
      "type": "function"
    },
    {
      "inputs": [
        {
          "internalType": "address",
          "name": "target",
          "type": "address"
        },
        {
          "internalType": "uint256",
          "name": "amount",
          "type": "uint256"
        }
      ],
      "name": "transferUnderlyingTo",
      "outputs": [
        {
          "internalType": "uint256",
          "name": "",
          "type": "uint256"
        }
      ],
      "stateMutability": "nonpayable",
      "type": "function"
    },
    {
      "inputs": [
        {
          "internalType": "uint256",
          "name": "amount",
          "type": "uint256"
        }
      ],
      "name": "withdrawFromStrategy",
      "outputs": [],
      "stateMutability": "nonpayable",
      "type": "function"
    }
  ],
  "bytecode": "0x6080604052600080553480156200001557600080fd5b50604080518082018252600b8082526a105513d2d15397d253541360aa1b60208084018281528551808701909652928552840152815191929160009162000060916037919062000094565b5081516200007690603890602085019062000094565b506039805460ff191660ff9290921691909117905550620001779050565b828054620000a2906200013a565b90600052602060002090601f016020900481019282620000c6576000855562000111565b82601f10620000e157805160ff191683800117855562000111565b8280016001018555821562000111579182015b8281111562000111578251825591602001919060010190620000f4565b506200011f92915062000123565b5090565b5b808211156200011f576000815560010162000124565b6002810460018216806200014f57607f821691505b602082108114156200017157634e487b7160e01b600052602260045260246000fd5b50919050565b612ed780620001876000396000f3fe608060405234801561001057600080fd5b506004361061023d5760003560e01c80637535d2461161013b578063ae167335116100b8578063d7020d0a1161007c578063d7020d0a14610472578063dd62ed3e14610485578063e2f024aa14610498578063f0f44260146104ab578063f866c319146104be5761023d565b8063ae16733514610434578063b16a19de1461043c578063b1bf962d14610444578063b9844d8d1461044c578063d505accf1461045f5761023d565b806395d89b41116100ff57806395d89b41146103e05780639be2a50c146103e8578063a457c2d7146103fb578063a9059cbb1461040e578063ad79802a146104215761023d565b80637535d246146103a257806375d26413146103aa57806378160376146103b25780637df5bd3b146103ba57806388dd91a1146103cd5761023d565b806323b872dd116101c9578063395093511161018d578063395093511461034e57806348b193351461036157806349ad75b5146103745780634efecaa51461037c57806370a082311461038f5761023d565b806323b872dd1461030e5780632f3e94ff1461032157806330adf81f14610329578063313ce567146103315780633644e515146103465761023d565b80630bd7ad3b116102105780630bd7ad3b146102b6578063156e29f6146102cb57806316942285146102de57806318160ddd146102f35780631da24f3e146102fb5761023d565b806306fdde031461024257806307da060314610260578063095ea7b3146102755780630afbcdc914610295575b600080fd5b61024a6104d1565b6040516102579190612962565b60405180910390f35b610268610564565b6040516102579190612789565b6102886102833660046124ac565b610573565b60405161025791906128d0565b6102a86102a3366004612366565b610591565b604051610257929190612cd3565b6102be6105ae565b60405161025791906128db565b6102886102d93660046124d7565b6105b3565b6102f16102ec36600461252b565b6106fc565b005b6102be610a2e565b6102be610309366004612366565b610af1565b61028861031c3660046123ba565b610b04565b6102be610bc4565b6102be610bc9565b610339610bed565b6040516102579190612ce1565b6102be610bf6565b61028861035c3660046124ac565b610bfc565b6102f161036f36600461269b565b610c4a565b6102be610d07565b6102be61038a3660046124ac565b610d0c565b6102be61039d366004612366565b610d84565b610268610e32565b610268610e41565b61024a610e50565b6102f16103c83660046126cb565b610e6d565b6102f16103db3660046124ac565b610f71565b61024a610fcd565b6102f16103f6366004612366565b610fdc565b6102886104093660046124ac565b6110ee565b61028861041c3660046124ac565b611156565b6102f161042f366004612366565b6111b3565b610268611255565b610268611264565b6102be611273565b6102be61045a366004612366565b61127d565b6102f161046d36600461243f565b61128f565b6102f16104803660046123fa565b611427565b6102be610493366004612382565b6115e9565b6102f16104a63660046126cb565b611614565b6102f16104b9366004612366565b611690565b6102f16104cc3660046123ba565b611732565b6060603780546104e090612d89565b80601f016020809104026020016040519081016040528092919081815260200182805461050c90612d89565b80156105595780601f1061052e57610100808354040283529160200191610559565b820191906000526020600020905b81548152906001019060200180831161053c57829003601f168201915b505050505090505b90565b6041546001600160a01b031690565b60006105876105806117d5565b84846117d9565b5060015b92915050565b60008061059d83611880565b6105a561189b565b91509150915091565b600181565b603c546000906001600160a01b03166105ca6117d5565b6001600160a01b03161460405180604001604052806002815260200161323960f01b815250906106165760405162461bcd60e51b815260040161060d9190612962565b60405180910390fd5b50600061062285611880565b9050600061063085856118a1565b6040805180820190915260028152611a9b60f11b60208201529091508161066a5760405162461bcd60e51b815260040161060d9190612962565b50610675868261197f565b856001600160a01b031660006001600160a01b0316600080516020612e5d833981519152876040516106a791906128db565b60405180910390a3856001600160a01b03167f4c209b5fc8ad50758f13e2e1088ba56a560dff690a1c6fef26394f4c03821c4f86866040516106ea929190612cd3565b60405180910390a25015949350505050565b6000610706611a86565b60015490915060ff168061071d575061071d611a8b565b80610729575060005481115b6107455760405162461bcd60e51b815260040161060d90612a5a565b60015460ff16158015610764576001805460ff19168117905560008290555b60405146907f8b73c3c69bb8fe3d512ecc4cf759cc79239f7b179b0ffacaa9a75d522b39400f90610798908b908b90612742565b60408051918290038220828201825260018352603160f81b60209384015290516107e993927fc89efdaa54c0f20c7adf612882df0950f5a951637e0307cdcb4c672f298b8bc6918691309101612918565b60408051601f198184030181528282528051602091820120603b55601f8b0181900481028301810190915289825261083c91908b908b9081908401838280828437600092019190915250611a9192505050565b61087b87878080601f016020809104026020016040519081016040528093929190818152602001838380828437600092019190915250611aa492505050565b6108848a611ab7565b8c603c60006101000a8154816001600160a01b0302191690836001600160a01b031602179055508b60000151603d60006101000a8154816001600160a01b0302191690836001600160a01b031602179055508b60200151603e60006101000a8154816001600160a01b0302191690836001600160a01b031602179055508b60400151603f60006101000a8154816001600160a01b0302191690836001600160a01b031602179055508b60600151604060006101000a8154816001600160a01b0302191690836001600160a01b031602179055508a604260006101000a8154816001600160a01b0302191690836001600160a01b031602179055508b60800151604060146101000a81548167ffffffffffffffff021916908367ffffffffffffffff1602179055508c6001600160a01b03168c606001516001600160a01b03167fb19e051f8af41150ccccb3fc2c2d8d15f4a4cf434f32a559ba75fe73d6eea20b8e602001518e8e8e8e8e8e8e8e604051610a06999897969594939291906127b7565b60405180910390a3508015610a20576001805460ff191690555b505050505050505050505050565b600080610a3961189b565b905080610a4a576000915050610561565b603c54604080549051632bc9433f60e21b8152610aeb926001600160a01b039081169263af250cfc92610a9492821691600160a01b900467ffffffffffffffff169060040161285f565b60206040518083038186803b158015610aac57600080fd5b505afa158015610ac0573d6000803e3d6000fd5b505050506040513d601f19601f82011682018060405250810190610ae491906126b3565b8290611acd565b91505090565b6000610afc82611880565b90505b919050565b6000610b11848484611b8f565b610b8184610b1d6117d5565b610b7c85604051806060016040528060288152602001612e35602891396001600160a01b038a16600090815260356020526040812090610b5b6117d5565b6001600160a01b031681526020810191909152604001600020549190611b9c565b6117d9565b826001600160a01b0316846001600160a01b0316600080516020612e5d83398151915284604051610bb291906128db565b60405180910390a35060019392505050565b600a81565b7f6e71edae12b1b97f4d1f60370fef10105fa2faae0126114a169c64845d6126c981565b60395460ff1690565b603b5481565b6000610587610c096117d5565b84610b7c8560356000610c1a6117d5565b6001600160a01b03908116825260208083019390935260409182016000908120918c168152925290205490611bc8565b603c546001600160a01b0316610c5e6117d5565b6001600160a01b03161460405180604001604052806002815260200161323960f01b81525090610ca15760405162461bcd60e51b815260040161060d9190612962565b50604154604051632e1a7d4d60e01b81526001600160a01b0390911690632e1a7d4d90610cd29084906004016128db565b600060405180830381600087803b158015610cec57600080fd5b505af1158015610d00573d6000803e3d6000fd5b5050505050565b601481565b603c546000906001600160a01b0316610d236117d5565b6001600160a01b03161460405180604001604052806002815260200161323960f01b81525090610d665760405162461bcd60e51b815260040161060d9190612962565b50604054610d7e906001600160a01b03168484611bd4565b50919050565b603c54604080549051632bc9433f60e21b8152600092610afc926001600160a01b039182169263af250cfc92610dd39290811691600160a01b90910467ffffffffffffffff169060040161285f565b60206040518083038186803b158015610deb57600080fd5b505afa158015610dff573d6000803e3d6000fd5b505050506040513d601f19601f82011682018060405250810190610e2391906126b3565b610e2c84611880565b90611acd565b603c546001600160a01b031690565b6000610e4b611c2a565b905090565b604051806040016040528060018152602001603160f81b81525081565b603c546001600160a01b0316610e816117d5565b6001600160a01b03161460405180604001604052806002815260200161323960f01b81525090610ec45760405162461bcd60e51b815260040161060d9190612962565b5081610ecf57610f6d565b603e546001600160a01b0316610eee81610ee985856118a1565b61197f565b806001600160a01b031660006001600160a01b0316600080516020612e5d83398151915285604051610f2091906128db565b60405180910390a3806001600160a01b03167f4c209b5fc8ad50758f13e2e1088ba56a560dff690a1c6fef26394f4c03821c4f8484604051610f63929190612cd3565b60405180910390a2505b5050565b603c546001600160a01b0316610f856117d5565b6001600160a01b03161460405180604001604052806002815260200161323960f01b81525090610fc85760405162461bcd60e51b815260040161060d9190612962565b505050565b6060603880546104e090612d89565b603c546001600160a01b0316610ff06117d5565b6001600160a01b03161460405180604001604052806002815260200161323960f01b815250906110335760405162461bcd60e51b815260040161060d9190612962565b50604180546001600160a01b0319166001600160a01b0383811691909117909155604080549051636eb1769f60e11b815291169060001990829063dd62ed3e90611083903090879060040161279d565b60206040518083038186803b15801561109b57600080fd5b505afa1580156110af573d6000803e3d6000fd5b505050506040513d601f19601f820116820180604052508101906110d391906126b3565b14610f6d57610f6d6001600160a01b03821683600019611c39565b60006105876110fb6117d5565b84610b7c85604051806060016040528060258152602001612e7d60259139603560006111256117d5565b6001600160a01b03908116825260208083019390935260409182016000908120918d16815292529020549190611b9c565b600061116a6111636117d5565b8484611b8f565b826001600160a01b031661117c6117d5565b6001600160a01b0316600080516020612e5d833981519152846040516111a291906128db565b60405180910390a350600192915050565b603d546001600160a01b03166111c76117d5565b6001600160a01b03161460405180604001604052806002815260200161323760f01b8152509061120a5760405162461bcd60e51b815260040161060d9190612962565b50603f80546001600160a01b0319166001600160a01b0383169081179091556040517f718196ac79d4f9d19ba78508c2beed39ab2aac0ae1cdb86a67d627983082d82590600090a250565b603e546001600160a01b031690565b6040546001600160a01b031690565b6000610e4b61189b565b603a6020526000908152604090205481565b6001600160a01b0387166112b55760405162461bcd60e51b815260040161060d90612ad4565b834211156112d55760405162461bcd60e51b815260040161060d90612aa8565b6001600160a01b0387166000908152603a6020908152604080832054603b54915190939261132f917f6e71edae12b1b97f4d1f60370fef10105fa2faae0126114a169c64845d6126c9918d918d918d9189918e91016128e4565b6040516020818303038152906040528051906020012060405160200161135692919061276e565b604051602081830303815290604052805190602001209050600181868686604051600081526020016040526040516113919493929190612944565b6020604051602081039080840390855afa1580156113b3573d6000803e3d6000fd5b505050602060405103516001600160a01b0316896001600160a01b0316146113ed5760405162461bcd60e51b815260040161060d90612a2f565b6113f8826001611bc8565b6001600160a01b038a166000908152603a602052604090205561141c8989896117d9565b505050505050505050565b603c546001600160a01b031661143b6117d5565b6001600160a01b03161460405180604001604052806002815260200161323960f01b8152509061147e5760405162461bcd60e51b815260040161060d9190612962565b50600061148b83836118a1565b60408051808201909152600281526106a760f31b6020820152909150816114c55760405162461bcd60e51b815260040161060d9190612962565b506114d08582611cfc565b6041546001600160a01b03161561154457604154604051632e1a7d4d60e01b81526001600160a01b0390911690632e1a7d4d906115119086906004016128db565b600060405180830381600087803b15801561152b57600080fd5b505af115801561153f573d6000803e3d6000fd5b505050505b60405461155b906001600160a01b03168585611bd4565b60006001600160a01b0316856001600160a01b0316600080516020612e5d8339815191528560405161158d91906128db565b60405180910390a3836001600160a01b0316856001600160a01b03167f5d624aa9c148153ab3446c1b154f660ee7701e549fe9b62dab7171b1c80e6fa285856040516115da929190612cd3565b60405180910390a35050505050565b6001600160a01b03918216600090815260356020908152604080832093909416825291909152205490565b603c546001600160a01b03166116286117d5565b6001600160a01b03161460405180604001604052806002815260200161323960f01b8152509061166b5760405162461bcd60e51b815260040161060d9190612962565b508161167657610f6d565b603f546001600160a01b0316610eee81610ee985856118a1565b603d546001600160a01b03166116a46117d5565b6001600160a01b03161460405180604001604052806002815260200161323760f01b815250906116e75760405162461bcd60e51b815260040161060d9190612962565b50603e80546001600160a01b0319166001600160a01b0383169081179091556040517fc714d22a2f08b695f81e7c707058db484aa5b4d6b4c9fd64beb10fe85832f60890600090a250565b603c546001600160a01b03166117466117d5565b6001600160a01b03161460405180604001604052806002815260200161323960f01b815250906117895760405162461bcd60e51b815260040161060d9190612962565b506117978383836000611d81565b816001600160a01b0316836001600160a01b0316600080516020612e5d833981519152836040516117c891906128db565b60405180910390a3505050565b3390565b6001600160a01b0383166117ff5760405162461bcd60e51b815260040161060d90612b81565b6001600160a01b0382166118255760405162461bcd60e51b815260040161060d906129b8565b6001600160a01b0380841660008181526035602090815260408083209487168084529490915290819020849055517f8c5be1e5ebec7d5bd14f71427d1e84f3dd0314c0f7b2291e5b200ac8c7c3b925906117c89085906128db565b6001600160a01b031660009081526034602052604090205490565b60365490565b604080518082019091526002815261035360f41b6020820152600090826118db5760405162461bcd60e51b815260040161060d9190612962565b5060006118e9600284612d07565b90506b033b2e3c9fd0803ce800000061190482600019612d46565b61190e9190612d07565b84111560405180604001604052806002815260200161068760f31b8152509061194a5760405162461bcd60e51b815260040161060d9190612962565b5082816119636b033b2e3c9fd0803ce800000087612d27565b61196d9190612cef565b6119779190612d07565b949350505050565b6001600160a01b0382166119a55760405162461bcd60e51b815260040161060d90612c9c565b6119b160008383610fc8565b6036546119be8183611bc8565b6036556001600160a01b0383166000908152603460205260409020546119e48184611bc8565b6001600160a01b038516600090815260346020526040812091909155611a08611c2a565b6001600160a01b031614611a8057611a1e611c2a565b6001600160a01b03166331873e2e8584846040518463ffffffff1660e01b8152600401611a4d9392919061283e565b600060405180830381600087803b158015611a6757600080fd5b505af1158015611a7b573d6000803e3d6000fd5b505050505b50505050565b600290565b303b1590565b8051610f6d906037906020840190612252565b8051610f6d906038906020840190612252565b6039805460ff191660ff92909216919091179055565b6000821580611ada575081155b15611ae75750600061058b565b81611aff60026b033b2e3c9fd0803ce8000000612d07565b611b0b90600019612d46565b611b159190612d07565b83111560405180604001604052806002815260200161068760f31b81525090611b515760405162461bcd60e51b815260040161060d9190612962565b506b033b2e3c9fd0803ce8000000611b6a600282612d07565b611b748486612d27565b611b7e9190612cef565b611b889190612d07565b9392505050565b610fc88383836001611d81565b60008184841115611bc05760405162461bcd60e51b815260040161060d9190612962565b505050900390565b6000611b888284612cef565b610fc88363a9059cbb60e01b8484604051602401611bf3929190612825565b60408051601f198184030181529190526020810180516001600160e01b03166001600160e01b031990931692909217909152611f33565b6042546001600160a01b031690565b801580611cc15750604051636eb1769f60e11b81526001600160a01b0384169063dd62ed3e90611c6f903090869060040161279d565b60206040518083038186803b158015611c8757600080fd5b505afa158015611c9b573d6000803e3d6000fd5b505050506040513d601f19601f82011682018060405250810190611cbf91906126b3565b155b611cdd5760405162461bcd60e51b815260040161060d90612c0f565b610fc88363095ea7b360e01b8484604051602401611bf3929190612825565b6001600160a01b038216611d225760405162461bcd60e51b815260040161060d90612afb565b611d2e82600083610fc8565b603654611d3b8183612017565b6036556001600160a01b03831660009081526034602090815260409182902054825160608101909352602280845290926119e492869290612ded90830139839190611b9c565b60408054603c549151632bc9433f60e21b81526001600160a01b03808316931691600091839163af250cfc91611dce918791600160a01b90910467ffffffffffffffff169060040161285f565b60206040518083038186803b158015611de657600080fd5b505afa158015611dfa573d6000803e3d6000fd5b505050506040513d601f19601f82011682018060405250810190611e1e91906126b3565b90506000611e2f82610e2c8a611880565b90506000611e4083610e2c8a611880565b9050611e568989611e518a876118a1565b612023565b8515611edb5760408054905163560e7e6360e01b81526001600160a01b0386169163560e7e6391611ea8918991600160a01b90910467ffffffffffffffff16908e908e908e908a908a90600401612882565b600060405180830381600087803b158015611ec257600080fd5b505af1158015611ed6573d6000803e3d6000fd5b505050505b876001600160a01b0316896001600160a01b03167f4beccb90f994c31aced7a23b5611020728a23d8ec5cddd1a3e9d97b96fda86668986604051611f20929190612cd3565b60405180910390a3505050505050505050565b611f45826001600160a01b0316612221565b611f615760405162461bcd60e51b815260040161060d90612c65565b600080836001600160a01b031683604051611f7c9190612752565b6000604051808303816000865af19150503d8060008114611fb9576040519150601f19603f3d011682016040523d82523d6000602084013e611fbe565b606091505b509150915081611fe05760405162461bcd60e51b815260040161060d906129fa565b805115611a805780806020019051810190611ffb919061250b565b611a805760405162461bcd60e51b815260040161060d90612bc5565b6000611b888284612d46565b6001600160a01b0383166120495760405162461bcd60e51b815260040161060d90612b3c565b6001600160a01b03821661206f5760405162461bcd60e51b815260040161060d90612975565b61207a838383610fc8565b600060346000856001600160a01b03166001600160a01b031681526020019081526020016000205490506120c982604051806060016040528060268152602001612e0f60269139839190611b9c565b6001600160a01b0380861660009081526034602052604080822093909355908516815220546120f88184611bc8565b6001600160a01b03851660009081526034602052604081209190915561211c611c2a565b6001600160a01b031614610d0057603654612135611c2a565b6001600160a01b03166331873e2e8783866040518463ffffffff1660e01b81526004016121649392919061283e565b600060405180830381600087803b15801561217e57600080fd5b505af1158015612192573d6000803e3d6000fd5b50505050846001600160a01b0316866001600160a01b031614612219576121b7611c2a565b6001600160a01b03166331873e2e8683856040518463ffffffff1660e01b81526004016121e69392919061283e565b600060405180830381600087803b15801561220057600080fd5b505af1158015612214573d6000803e3d6000fd5b505050505b505050505050565b600080826001600160a01b0316803b806020016040519081016040528181526000908060200190933c511192915050565b82805461225e90612d89565b90600052602060002090601f01602090048101928261228057600085556122c6565b82601f1061229957805160ff19168380011785556122c6565b828001600101855582156122c6579182015b828111156122c65782518255916020019190600101906122ab565b506122d29291506122d6565b5090565b5b808211156122d257600081556001016122d7565b8035610aff81612dd4565b60008083601f840112612307578182fd5b50813567ffffffffffffffff81111561231e578182fd5b60208301915083602082850101111561233657600080fd5b9250929050565b803567ffffffffffffffff81168114610aff57600080fd5b803560ff81168114610aff57600080fd5b600060208284031215612377578081fd5b8135611b8881612dd4565b60008060408385031215612394578081fd5b823561239f81612dd4565b915060208301356123af81612dd4565b809150509250929050565b6000806000606084860312156123ce578081fd5b83356123d981612dd4565b925060208401356123e981612dd4565b929592945050506040919091013590565b6000806000806080858703121561240f578081fd5b843561241a81612dd4565b9350602085013561242a81612dd4565b93969395505050506040820135916060013590565b600080600080600080600060e0888a031215612459578283fd5b873561246481612dd4565b9650602088013561247481612dd4565b9550604088013594506060880135935061249060808901612355565b925060a0880135915060c0880135905092959891949750929550565b600080604083850312156124be578182fd5b82356124c981612dd4565b946020939093013593505050565b6000806000606084860312156124eb578283fd5b83356124f681612dd4565b95602085013595506040909401359392505050565b60006020828403121561251c578081fd5b81518015158114611b88578182fd5b6000806000806000806000806000806101608b8d03121561254a578384fd5b6125548b35612dd4565b8a35995060a08b8d03601f1901121561256b578384fd5b60405167ffffffffffffffff8160a08301108160a0840111171561259d57634e487b7160e01b86526041600452602486fd5b60a0820160405260208d01356125b281612dd4565b82526125c060408e016122eb565b60208301526125d160608e016122eb565b60408301526125e260808e016122eb565b60608301526125f360a08e0161233d565b6080830152819a5061260760c08e016122eb565b995061261560e08e01612355565b98506101008d013591508082111561262b578586fd5b6126378e838f016122f6565b90985096506101208d0135915080821115612650578586fd5b61265c8e838f016122f6565b90965094506101408d0135915080821115612675578384fd5b506126828d828e016122f6565b915080935050809150509295989b9194979a5092959850565b6000602082840312156126ac578081fd5b5035919050565b6000602082840312156126c4578081fd5b5051919050565b600080604083850312156126dd578182fd5b50508035926020909101359150565b60008284528282602086013780602084860101526020601f19601f85011685010190509392505050565b6000815180845261272e816020860160208601612d5d565b601f01601f19169290920160200192915050565b6000828483379101908152919050565b60008251612764818460208701612d5d565b9190910192915050565b61190160f01b81526002810192909252602282015260420190565b6001600160a01b0391909116815260200190565b6001600160a01b0392831681529116602082015260400190565b6001600160a01b038a811682528916602082015260ff8816604082015260c0606082018190526000906127ed908301888a6126ec565b82810360808401526128008187896126ec565b905082810360a08401526128158185876126ec565b9c9b505050505050505050505050565b6001600160a01b03929092168252602082015260400190565b6001600160a01b039390931683526020830191909152604082015260600190565b6001600160a01b0392909216825267ffffffffffffffff16602082015260400190565b6001600160a01b03978816815267ffffffffffffffff9690961660208701529386166040860152919094166060840152608083019390935260a082019290925260c081019190915260e00190565b901515815260200190565b90815260200190565b9586526001600160a01b0394851660208701529290931660408501526060840152608083019190915260a082015260c00190565b9485526020850193909352604084019190915260608301526001600160a01b0316608082015260a00190565b93845260ff9290921660208401526040830152606082015260800190565b600060208252611b886020830184612716565b60208082526023908201527f45524332303a207472616e7366657220746f20746865207a65726f206164647260408201526265737360e81b606082015260800190565b60208082526022908201527f45524332303a20617070726f766520746f20746865207a65726f206164647265604082015261737360f01b606082015260800190565b6020808252818101527f5361666545524332303a206c6f772d6c6576656c2063616c6c206661696c6564604082015260600190565b602080825260119082015270494e56414c49445f5349474e415455524560781b604082015260600190565b6020808252602e908201527f436f6e747261637420696e7374616e63652068617320616c726561647920626560408201526d195b881a5b9a5d1a585b1a5e995960921b606082015260800190565b60208082526012908201527124a72b20a624a22fa2ac2824a920aa24a7a760711b604082015260600190565b6020808252600d908201526c24a72b20a624a22fa7aba722a960991b604082015260600190565b60208082526021908201527f45524332303a206275726e2066726f6d20746865207a65726f206164647265736040820152607360f81b606082015260800190565b60208082526025908201527f45524332303a207472616e736665722066726f6d20746865207a65726f206164604082015264647265737360d81b606082015260800190565b60208082526024908201527f45524332303a20617070726f76652066726f6d20746865207a65726f206164646040820152637265737360e01b606082015260800190565b6020808252602a908201527f5361666545524332303a204552433230206f7065726174696f6e20646964206e6040820152691bdd081cdd58d8d9595960b21b606082015260800190565b60208082526036908201527f5361666545524332303a20617070726f76652066726f6d206e6f6e2d7a65726f60408201527520746f206e6f6e2d7a65726f20616c6c6f77616e636560501b606082015260800190565b6020808252601f908201527f5361666545524332303a2063616c6c20746f206e6f6e2d636f6e747261637400604082015260600190565b6020808252601f908201527f45524332303a206d696e7420746f20746865207a65726f206164647265737300604082015260600190565b918252602082015260400190565b60ff91909116815260200190565b60008219821115612d0257612d02612dbe565b500190565b600082612d2257634e487b7160e01b81526012600452602481fd5b500490565b6000816000190483118215151615612d4157612d41612dbe565b500290565b600082821015612d5857612d58612dbe565b500390565b60005b83811015612d78578181015183820152602001612d60565b83811115611a805750506000910152565b600281046001821680612d9d57607f821691505b60208210811415610d7e57634e487b7160e01b600052602260045260246000fd5b634e487b7160e01b600052601160045260246000fd5b6001600160a01b0381168114612de957600080fd5b5056fe45524332303a206275726e20616d6f756e7420657863656564732062616c616e636545524332303a207472616e7366657220616d6f756e7420657863656564732062616c616e636545524332303a207472616e7366657220616d6f756e74206578636565647320616c6c6f77616e6365ddf252ad1be2c89b69c2b068fc378daa952ba7f163c4a11628f55a4df523b3ef45524332303a2064656372656173656420616c6c6f77616e63652062656c6f77207a65726fa2646970667358221220956ac4a8cf9f48d672a985a545b0883ff97c8b0f63e870359733b9d8897ff69164736f6c63430008000033",
  "linkReferences": {},
  "deployedLinkReferences": {}
}