{
  "_format": "hh-sol-artifact-1",
  "contractName": "CurveWrapper",
  "sourceName": "contracts/oracles/CurveWrapper.sol",
  "abi": [
    {
      "inputs": [
        {
          "internalType": "address",
          "name": "addressProvider",
          "type": "address"
        },
        {
          "internalType": "address",
          "name": "fallbackOracle",
          "type": "address"
        },
        {
          "internalType": "address",
          "name": "baseCurrency",
          "type": "address"
        },
        {
          "internalType": "uint256",
          "name": "baseCurrencyUnit",
          "type": "uint256"
        }
      ],
      "stateMutability": "nonpayable",
      "type": "constructor"
    },
    {
      "anonymous": false,
      "inputs": [
        {
          "indexed": true,
          "internalType": "address",
          "name": "asset",
          "type": "address"
        },
        {
          "indexed": true,
          "internalType": "address",
          "name": "source",
          "type": "address"
        }
      ],
      "name": "AssetSourceUpdated",
      "type": "event"
    },
    {
      "anonymous": false,
      "inputs": [
        {
          "indexed": true,
          "internalType": "address",
          "name": "baseCurrency",
          "type": "address"
        },
        {
          "indexed": false,
          "internalType": "uint256",
          "name": "baseCurrencyUnit",
          "type": "uint256"
        }
      ],
      "name": "BaseCurrencySet",
      "type": "event"
    },
    {
      "anonymous": false,
      "inputs": [
        {
          "indexed": true,
          "internalType": "address",
          "name": "fallbackOracle",
          "type": "address"
        }
      ],
      "name": "FallbackOracleUpdated",
      "type": "event"
    },
    {
      "anonymous": false,
      "inputs": [
        {
          "indexed": true,
          "internalType": "address",
          "name": "previousOwner",
          "type": "address"
        },
        {
          "indexed": true,
          "internalType": "address",
          "name": "newOwner",
          "type": "address"
        }
      ],
      "name": "OwnershipTransferred",
      "type": "event"
    },
    {
      "inputs": [],
      "name": "BASE_CURRENCY",
      "outputs": [
        {
          "internalType": "address",
          "name": "",
          "type": "address"
        }
      ],
      "stateMutability": "view",
      "type": "function"
    },
    {
      "inputs": [],
      "name": "BASE_CURRENCY_UNIT",
      "outputs": [
        {
          "internalType": "uint256",
          "name": "",
          "type": "uint256"
        }
      ],
      "stateMutability": "view",
      "type": "function"
    },
    {
      "inputs": [
        {
          "internalType": "address",
          "name": "asset",
          "type": "address"
        }
      ],
      "name": "getAssetPrice",
      "outputs": [
        {
          "internalType": "uint256",
          "name": "",
          "type": "uint256"
        }
      ],
      "stateMutability": "view",
      "type": "function"
    },
    {
      "inputs": [
        {
          "internalType": "address[]",
          "name": "assets",
          "type": "address[]"
        }
      ],
      "name": "getAssetsPrices",
      "outputs": [
        {
          "internalType": "uint256[]",
          "name": "",
          "type": "uint256[]"
        }
      ],
      "stateMutability": "view",
      "type": "function"
    },
    {
      "inputs": [],
      "name": "getFallbackOracle",
      "outputs": [
        {
          "internalType": "address",
          "name": "",
          "type": "address"
        }
      ],
      "stateMutability": "view",
      "type": "function"
    },
    {
      "inputs": [],
      "name": "owner",
      "outputs": [
        {
          "internalType": "address",
          "name": "",
          "type": "address"
        }
      ],
      "stateMutability": "view",
      "type": "function"
    },
    {
      "inputs": [],
      "name": "renounceOwnership",
      "outputs": [],
      "stateMutability": "nonpayable",
      "type": "function"
    },
    {
      "inputs": [
        {
          "internalType": "address",
          "name": "addressProvider",
          "type": "address"
        }
      ],
      "name": "setAddressProvider",
      "outputs": [],
      "stateMutability": "nonpayable",
      "type": "function"
    },
    {
      "inputs": [
        {
          "internalType": "address",
          "name": "fallbackOracle",
          "type": "address"
        }
      ],
      "name": "setFallbackOracle",
      "outputs": [],
      "stateMutability": "nonpayable",
      "type": "function"
    },
    {
      "inputs": [
        {
          "internalType": "address",
          "name": "newOwner",
          "type": "address"
        }
      ],
      "name": "transferOwnership",
      "outputs": [],
      "stateMutability": "nonpayable",
      "type": "function"
    }
  ],
  "bytecode": "0x60c060405234801561001057600080fd5b50604051610ef9380380610ef983398101604081905261002f916102c9565b6000610039610110565b600080546001600160a01b0319166001600160a01b0383169081178255604051929350917f8be0079c531659141344cd1fd0a4f28419497f9722a3daafe3b4186f6b6457e0908290a350600180546001600160a01b0319166001600160a01b0386161790556100a783610114565b6001600160601b0319606083901b1660805260a08190526100c661015e565b816001600160a01b03167fe27c4c1372396a3d15a9922f74f9dfc7c72b1ad6d63868470787249c356454c1826040516100ff9190610313565b60405180910390a25050505061031c565b3390565b600280546001600160a01b0319166001600160a01b0383169081179091556040517fce7a780d33665b1ea097af5f155e3821b809ecbaa839d3b33aa83ba28168cefb90600090a250565b7fc3f53dcdaf6e9f09b7534871d74adb7c316f2d5e2ccd5623414aced1da2f9f4480546001600160a01b031990811673d51a44d3fae010294c616388b506acda1bfaae461790915560037f62b955e340611b83592f98955871459fff5f39282c44606ee6f2a2140af6f8c9557f86294d2e5afad0c29f0ad45ecbdae58ca55370c9282ca6d63287a852438095c58054821673dac17f958d2ee523a2206206994597c13d831ec71790557f7cc2dda6f7cda3893cb4cc6a15536ad333b3750e1237f0ab29e1ee723e18c48580548216732260fac5e5542a773aa44fbcfedf7c193bc2c59917905560026000527f9c27ce241c3dafb8cb782a62efcbeb7218d69c5c4ad7786243964e439da8b65b6020527faa4623dc8891093a66bf7581d4882714e260fda60112ebb8ff4d6a8dbdcf3289805490911673c02aaa39b223fe8d0a0e5c4f27ead9083c756cc2179055565b80516001600160a01b03811681146102c457600080fd5b919050565b600080600080608085870312156102de578384fd5b6102e7856102ad565b93506102f5602086016102ad565b9250610303604086016102ad565b6060959095015193969295505050565b90815260200190565b60805160601c60a051610ba76103526000396000818161028d01526103dc0152600081816103a1015261078b0152610ba76000f3fe608060405234801561001057600080fd5b506004361061009e5760003560e01c80638da5cb5b116100665780638da5cb5b146101065780639d23d9f21461010e578063b3596f071461012e578063e19f470014610141578063f2fde38b146101495761009e565b8063170aee73146100a35780631a5fa2e3146100b85780636210308c146100cb578063715018a6146100e95780638c89b64f146100f1575b600080fd5b6100b66100b13660046108b1565b61015c565b005b6100b66100c63660046108b1565b6101a6565b6100d36101fd565b6040516100e091906109b1565b60405180910390f35b6100b661020c565b6100f961028b565b6040516100e09190610b2c565b6100d36102af565b61012161011c3660046108f0565b6102be565b6040516100e091906109f1565b6100f961013c3660046108b1565b61039d565b6100d3610789565b6100b66101573660046108b1565b6107ad565b610164610863565b6000546001600160a01b0390811691161461019a5760405162461bcd60e51b815260040161019190610ac0565b60405180910390fd5b6101a381610867565b50565b6101ae610863565b6000546001600160a01b039081169116146101db5760405162461bcd60e51b815260040161019190610ac0565b600180546001600160a01b0319166001600160a01b0392909216919091179055565b6002546001600160a01b031690565b610214610863565b6000546001600160a01b039081169116146102415760405162461bcd60e51b815260040161019190610ac0565b600080546040516001600160a01b03909116907f8be0079c531659141344cd1fd0a4f28419497f9722a3daafe3b4186f6b6457e0908390a3600080546001600160a01b0319169055565b7f000000000000000000000000000000000000000000000000000000000000000081565b6000546001600160a01b031690565b606060008267ffffffffffffffff8111156102e957634e487b7160e01b600052604160045260246000fd5b604051908082528060200260200182016040528015610312578160200160208202803683370190505b50905060005b838110156103955761035885858381811061034357634e487b7160e01b600052603260045260246000fd5b905060200201602081019061013c91906108b1565b82828151811061037857634e487b7160e01b600052603260045260246000fd5b60209081029190910101528061038d81610b35565b915050610318565b509392505050565b60007f00000000000000000000000000000000000000000000000000000000000000006001600160a01b0316826001600160a01b0316141561040057507f0000000000000000000000000000000000000000000000000000000000000000610784565b6001600160a01b03808316600090815260036020908152604080832054909316808352600490915291812054908167ffffffffffffffff81111561045457634e487b7160e01b600052604160045260246000fd5b60405190808252806020026020018201604052801561047d578160200160208202803683370190505b5090506000600160009054906101000a90046001600160a01b03166001600160a01b031663f139dc816040518163ffffffff1660e01b815260040160206040518083038186803b1580156104d057600080fd5b505afa1580156104e4573d6000803e3d6000fd5b505050506040513d601f19601f8201168201806040525081019061050891906108d4565b905060005b8381101561065a576001600160a01b03808616600090815260056020908152604080832085845290915290205416806105585760405162461bcd60e51b815260040161019190610af5565b60405163b3596f0760e01b81526001600160a01b0384169063b3596f07906105849084906004016109b1565b60206040518083038186803b15801561059c57600080fd5b505afa1580156105b0573d6000803e3d6000fd5b505050506040513d601f19601f820116820180604052508101906105d4919061095f565b8483815181106105f457634e487b7160e01b600052603260045260246000fd5b602002602001018181525050600084838151811061062257634e487b7160e01b600052603260045260246000fd5b6020026020010151116106475760405162461bcd60e51b815260040161019190610a4a565b508061065281610b35565b91505061050d565b506001546040805163ba61fe3160e01b815290516000926001600160a01b03169163ba61fe31916004808301926020929190829003018186803b1580156106a057600080fd5b505afa1580156106b4573d6000803e3d6000fd5b505050506040513d601f19601f820116820180604052508101906106d891906108d4565b90506000816001600160a01b0316636dcb6a3287866040518363ffffffff1660e01b815260040161070a9291906109c5565b60206040518083038186803b15801561072257600080fd5b505afa158015610736573d6000803e3d6000fd5b505050506040513d601f19601f8201168201806040525081019061075a919061095f565b90506000811161077c5760405162461bcd60e51b815260040161019190610a7f565b955050505050505b919050565b7f000000000000000000000000000000000000000000000000000000000000000081565b6107b5610863565b6000546001600160a01b039081169116146107e25760405162461bcd60e51b815260040161019190610ac0565b6001600160a01b0381166108085760405162461bcd60e51b815260040161019190610a04565b600080546040516001600160a01b03808516939216917f8be0079c531659141344cd1fd0a4f28419497f9722a3daafe3b4186f6b6457e091a3600080546001600160a01b0319166001600160a01b0392909216919091179055565b3390565b600280546001600160a01b0319166001600160a01b0383169081179091556040517fce7a780d33665b1ea097af5f155e3821b809ecbaa839d3b33aa83ba28168cefb90600090a250565b6000602082840312156108c2578081fd5b81356108cd81610b5c565b9392505050565b6000602082840312156108e5578081fd5b81516108cd81610b5c565b60008060208385031215610902578081fd5b823567ffffffffffffffff80821115610919578283fd5b818501915085601f83011261092c578283fd5b81358181111561093a578384fd5b866020808302850101111561094d578384fd5b60209290920196919550909350505050565b600060208284031215610970578081fd5b5051919050565b6000815180845260208085019450808401835b838110156109a65781518752958201959082019060010161098a565b509495945050505050565b6001600160a01b0391909116815260200190565b6001600160a01b03831681526040602082018190526000906109e990830184610977565b949350505050565b6000602082526108cd6020830184610977565b60208082526026908201527f4f776e61626c653a206e6577206f776e657220697320746865207a65726f206160408201526564647265737360d01b606082015260800190565b6020808252818101527f61617665206f7261636c6520656e636f756e746572656420616e206572726f72604082015260600190565b60208082526021908201527f4375727665206f7261636c6520656e636f756e746572656420616e206572726f6040820152603960f91b606082015260800190565b6020808252818101527f4f776e61626c653a2063616c6c6572206973206e6f7420746865206f776e6572604082015260600190565b60208082526018908201527f756e6465726c79696e6720746f6b656e206973206e756c6c0000000000000000604082015260600190565b90815260200190565b6000600019821415610b5557634e487b7160e01b81526011600452602481fd5b5060010190565b6001600160a01b03811681146101a357600080fdfea2646970667358221220c1802a679d40e23a18b9793704ff82c534e517ee8f0c3302544365c964fef57764736f6c63430008000033",
  "linkReferences": {},
  "deployedLinkReferences": {}
}