{
  "_format": "hh-sol-artifact-1",
  "contractName": "ConvexOracle",
  "sourceName": "contracts/oracles/ConvexOracle.sol",
  "abi": [
    {
      "inputs": [
        {
          "internalType": "address",
          "name": "curve_pool",
          "type": "address"
        },
        {
          "internalType": "uint256[]",
          "name": "prices",
          "type": "uint256[]"
        },
        {
          "internalType": "uint16",
          "name": "pid",
          "type": "uint16"
        },
        {
          "internalType": "address",
          "name": "convex_lp",
          "type": "address"
        },
        {
          "internalType": "address",
          "name": "curve_lp",
          "type": "address"
        }
      ],
      "name": "get_convex_price",
      "outputs": [
        {
          "internalType": "uint256",
          "name": "",
          "type": "uint256"
        }
      ],
      "stateMutability": "view",
      "type": "function"
    }
  ],
  "bytecode": "0x608060405234801561001057600080fd5b5061043d806100206000396000f3fe608060405234801561001057600080fd5b506004361061002b5760003560e01c80632a417cc714610030575b600080fd5b61004361003e366004610230565b610059565b604051610050919061039d565b60405180910390f35b600080546040516336e5b51960e11b815282916001600160a01b031690636dcb6a329061008c908a908a90600401610347565b60206040518083038186803b1580156100a457600080fd5b505afa1580156100b8573d6000803e3d6000fd5b505050506040513d601f19601f820116820180604052508101906100dc919061032f565b90506000836001600160a01b03166318160ddd6040518163ffffffff1660e01b815260040160206040518083038186803b15801561011957600080fd5b505afa15801561012d573d6000803e3d6000fd5b505050506040513d601f19601f82011682018060405250810190610151919061032f565b90506000856001600160a01b03166318160ddd6040518163ffffffff1660e01b815260040160206040518083038186803b15801561018e57600080fd5b505afa1580156101a2573d6000803e3d6000fd5b505050506040513d601f19601f820116820180604052508101906101c6919061032f565b905060006101d58484846101e3565b9a9950505050505050505050565b6000816101f084866103c6565b6101fa91906103a6565b949350505050565b80356001600160a01b038116811461021957600080fd5b919050565b803561ffff8116811461021957600080fd5b600080600080600060a08688031215610247578081fd5b61025086610202565b945060208087013567ffffffffffffffff8082111561026d578384fd5b818901915089601f830112610280578384fd5b813581811115610292576102926103f1565b838102604051858282010181811085821117156102b1576102b16103f1565b604052828152858101935084860182860187018e10156102cf578788fd5b8795505b838610156102f15780358552600195909501949386019386016102d3565b508099505050505050506103076040870161021e565b925061031560608701610202565b915061032360808701610202565b90509295509295909350565b600060208284031215610340578081fd5b5051919050565b6001600160a01b038316815260406020808301829052835191830182905260009184820191906060850190845b8181101561039057845183529383019391830191600101610374565b5090979650505050505050565b90815260200190565b6000826103c157634e487b7160e01b81526012600452602481fd5b500490565b60008160001904831182151516156103ec57634e487b7160e01b81526011600452602481fd5b500290565b634e487b7160e01b600052604160045260246000fdfea26469706673582212202e3e0b6c89136007030eb6618895cbc4c79fdacf4b12c105223531438b8a759e64736f6c63430008000033",
  "linkReferences": {},
  "deployedLinkReferences": {}
}