{
  "_format": "hh-sol-artifact-1",
  "contractName": "getTokenReserveData",
  "sourceName": "contracts/analytics/queries/getTokenReserveData.sol",
  "abi": [
    {
      "inputs": [
        {
          "internalType": "address",
          "name": "pool",
          "type": "address"
        },
        {
          "internalType": "uint8",
          "name": "tranche",
          "type": "uint8"
        }
      ],
      "stateMutability": "nonpayable",
      "type": "constructor"
    },
    {
      "inputs": [],
      "name": "getType",
      "outputs": [
        {
          "components": [
            {
              "internalType": "string",
              "name": "symbol",
              "type": "string"
            },
            {
              "components": [
                {
                  "components": [
                    {
                      "internalType": "uint256",
                      "name": "data",
                      "type": "uint256"
                    }
                  ],
                  "internalType": "struct DataTypes.ReserveConfigurationMap",
                  "name": "configuration",
                  "type": "tuple"
                },
                {
                  "internalType": "uint128",
                  "name": "liquidityIndex",
                  "type": "uint128"
                },
                {
                  "internalType": "uint128",
                  "name": "variableBorrowIndex",
                  "type": "uint128"
                },
                {
                  "internalType": "uint128",
                  "name": "currentLiquidityRate",
                  "type": "uint128"
                },
                {
                  "internalType": "uint128",
                  "name": "currentVariableBorrowRate",
                  "type": "uint128"
                },
                {
                  "internalType": "uint128",
                  "name": "currentStableBorrowRate",
                  "type": "uint128"
                },
                {
                  "internalType": "uint40",
                  "name": "lastUpdateTimestamp",
                  "type": "uint40"
                },
                {
                  "internalType": "address",
                  "name": "aTokenAddress",
                  "type": "address"
                },
                {
                  "internalType": "address",
                  "name": "stableDebtTokenAddress",
                  "type": "address"
                },
                {
                  "internalType": "address",
                  "name": "variableDebtTokenAddress",
                  "type": "address"
                },
                {
                  "internalType": "address",
                  "name": "interestRateStrategyAddress",
                  "type": "address"
                },
                {
                  "internalType": "uint8",
                  "name": "id",
                  "type": "uint8"
                },
                {
                  "internalType": "uint8",
                  "name": "trancheId",
                  "type": "uint8"
                },
                {
                  "internalType": "uint8",
                  "name": "trancheRisk",
                  "type": "uint8"
                },
                {
                  "internalType": "bool",
                  "name": "canBeCollateral",
                  "type": "bool"
                },
                {
                  "internalType": "uint256",
                  "name": "collateralCap",
                  "type": "uint256"
                },
                {
                  "internalType": "bool",
                  "name": "hasStrategy",
                  "type": "bool"
                },
                {
                  "internalType": "bool",
                  "name": "usingGovernanceSetInterestRate",
                  "type": "bool"
                },
                {
                  "internalType": "uint256",
                  "name": "governanceSetInterestRate",
                  "type": "uint256"
                }
              ],
              "internalType": "struct DataTypes.ReserveData",
              "name": "reserveData",
              "type": "tuple"
            },
            {
              "components": [
                {
                  "internalType": "uint8",
                  "name": "collateralRisk",
                  "type": "uint8"
                },
                {
                  "internalType": "bool",
                  "name": "isAllowedCollateralInHigherTranches",
                  "type": "bool"
                },
                {
                  "internalType": "enum DataTypes.ReserveAssetType",
                  "name": "assetType",
                  "type": "uint8"
                }
              ],
              "internalType": "struct DataTypes.AssetData",
              "name": "assetData",
              "type": "tuple"
            }
          ],
          "internalType": "struct TokenData[22]",
          "name": "",
          "type": "tuple[22]"
        }
      ],
      "stateMutability": "view",
      "type": "function"
    }
  ],
  "bytecode": "0x60806040523480156200001157600080fd5b5060405162000fc938038062000fc9833981016040819052620000349162000a55565b60006200004d83836200007d60201b620000591760201c565b905060008160405160200162000064919062000e9e565b6040516020818303038152906040529050805181602001f35b6200008762000819565b60006200009e6200033260201b620002d81760201c565b90506000620000b76200058f60201b620005331760201c565b90506000856001600160a01b0316630261bf8b6040518163ffffffff1660e01b815260040160206040518083038186803b158015620000f557600080fd5b505afa1580156200010a573d6000803e3d6000fd5b505050506040513d601f19601f8201168201806040525081019062000130919062000a31565b90506200013c62000819565b60005b60168160ff161015620003275760006040518060600160405280868460ff16601681106200017d57634e487b7160e01b600052603260045260246000fd5b60200201518152602001856001600160a01b0316633629e3cd898660ff1660168110620001ba57634e487b7160e01b600052603260045260246000fd5b60200201518c6040518363ffffffff1660e01b8152600401620001df92919062000e82565b6102606040518083038186803b158015620001f957600080fd5b505afa1580156200020e573d6000803e3d6000fd5b505050506040513d601f19601f8201168201806040525081019062000234919062000ae8565b8152602001856001600160a01b0316631652e7b7898660ff16601681106200026c57634e487b7160e01b600052603260045260246000fd5b60200201516040518263ffffffff1660e01b81526004016200028f919062000e6e565b60606040518083038186803b158015620002a857600080fd5b505afa158015620002bd573d6000803e3d6000fd5b505050506040513d601f19601f82011682018060405250810190620002e3919062000a8c565b90529050808360ff8416601681106200030c57634e487b7160e01b600052603260045260246000fd5b602002015250806200031e8162000f9b565b9150506200013f565b509695505050505050565b6200033c6200084a565b50604080516102c081018252737fc66500c84a76ad7e9c93437bfc5ac33e2ddae98152730d8775f648430679a709e98d2b0cb6250d2887ef6020820152734fabb145d64652a948d72533023f6e7a623c7c5391810191909152736b175474e89094c44da98b954eedeac495271d0f606082015273f629cbd94d3791c9250152bd8dfbdf380e2a3b9c608082015273dd974d5c2e2928dea5f71b9825b8b646686bd20060a082015273514910771af9ca656af840dff83e8264ecf986ca60c0820152730f5d2fb29fb7d3cfee444a200298f468908cc94260e0820152739f8f72aa9304c8b593d555f12ef6589cc3a579a261010082015273408e41876cccdc0f92210600ef50372656052a3861012082015273c011a73ee8576fb46f5e1c5751ca3b9fe0af2a6f6101408201527357ab1ec28d129707052df4df418d58a2d46d5f516101608201526e085d4780b73119b644ae5ecd22b376610180820152731f9840a85d5af5bf1d1762f925bdaddc4201f9846101a082015273a0b86991c6218b36c1d19d4a2e9eb0ce3606eb486101c082015273dac17f958d2ee523a2206206994597c13d831ec76101e0820152732260fac5e5542a773aa44fbcfedf7c193bc2c59961020082015273c02aaa39b223fe8d0a0e5c4f27ead9083c756cc2610220820152730bc529c00c6401aef6d220be8c6ea1667f6ad93e61024082015273e41d2489571d322189246dafa5ebde1f4699f498610260820152738798249c2e607446efb7ad49ec89dd1865ff427261028082015273c4ad29ba4b3c580e6d59105fff484999997675ff6102a082015290565b6200059962000869565b50604080516103008101825260046102c08201818152634141564560e01b6102e084015282528251808401845260038082526210905560ea1b602083810191909152808501929092528451808601865283815263109554d160e21b8184015284860152845180860186528181526244414960e81b818401526060850152845180860186528181526222a72560e91b81840152608085015284518086018652818152624b4e4360e81b8184015260a085015284518086018652838152634c494e4b60e01b8184015260c085015284518086018652838152634d414e4160e01b8184015260e0850152845180860186528181526226a5a960e91b8184015261010085015284518086018652818152622922a760e91b8184015261012085015284518086018652818152620a69cb60eb1b81840152610140850152845180860186528381526314d554d160e21b818401526101608501528451808601865283815263151554d160e21b818401526101808501528451808601865281815262554e4960e81b818401526101a085015284518086018652838152635553444360e01b818401526101c085015284518086018652838152631554d11560e21b818401526101e085015284518086018652838152635742544360e01b8184015261020085015284518086018652928352630ae8aa8960e31b83830152610220840192909252835180850185528281526259464960e81b8183015261024084015283518085018552918252620b4a4b60eb1b8282015261026083019190915282518084018452600681526578535553484960d01b818301526102808301528251808401909352600a8352696372763363727970746f60b01b908301526102a081019190915290565b604051806102c001604052806016905b6200083362000892565b815260200190600190039081620008295790505090565b604051806102c001604052806016906020820280368337509192915050565b604051806102c001604052806016905b6060815260200190600190039081620008795790505090565b604051806060016040528060608152602001620008ae620008c2565b8152602001620008bd62000967565b905290565b604051806102600160405280620008d862000988565b815260006020820181905260408201819052606082018190526080820181905260a0820181905260c0820181905260e08201819052610100820181905261012082018190526101408201819052610160820181905261018082018190526101a082018190526101c082018190526101e08201819052610200820181905261022082018190526102409091015290565b604080516060810182526000808252602082018190529091820190620008bd565b6040518060200160405280600081525090565b80516001600160a01b0381168114620009b357600080fd5b919050565b80518015158114620009b357600080fd5b600060208284031215620009db578081fd5b620009e7602062000f63565b9151825250919050565b80516001600160801b0381168114620009b357600080fd5b805164ffffffffff81168114620009b357600080fd5b805160ff81168114620009b357600080fd5b60006020828403121562000a43578081fd5b62000a4e826200099b565b9392505050565b6000806040838503121562000a68578081fd5b62000a73836200099b565b915062000a836020840162000a1f565b90509250929050565b60006060828403121562000a9e578081fd5b62000aaa606062000f63565b62000ab58362000a1f565b815262000ac560208401620009b8565b602082015260408301516002811062000adc578283fd5b60408201529392505050565b600061026080838503121562000afc578182fd5b62000b078162000f63565b905062000b158484620009c9565b815262000b2560208401620009f1565b602082015262000b3860408401620009f1565b604082015262000b4b60608401620009f1565b606082015262000b5e60808401620009f1565b608082015262000b7160a08401620009f1565b60a082015262000b8460c0840162000a09565b60c082015262000b9760e084016200099b565b60e082015261010062000bac8185016200099b565b9082015261012062000bc08482016200099b565b9082015261014062000bd48482016200099b565b9082015261016062000be884820162000a1f565b9082015261018062000bfc84820162000a1f565b908201526101a062000c1084820162000a1f565b908201526101c062000c24848201620009b8565b908201526101e0838101519082015261020062000c43818501620009b8565b9082015261022062000c57848201620009b8565b90820152610240928301519281019290925250919050565b6001600160a01b03169052565b15159052565b60ff815116825260208101511515602083015260408101516002811062000cb957634e487b7160e01b600052602160045260246000fd5b806040840152505050565b519052565b62000cd682825162000cc4565b602081015162000cea602084018262000e4f565b50604081015162000cff604084018262000e4f565b50606081015162000d14606084018262000e4f565b50608081015162000d29608084018262000e4f565b5060a081015162000d3e60a084018262000e4f565b5060c081015162000d5360c084018262000e5c565b5060e081015162000d6860e084018262000c6f565b506101008082015162000d7e8285018262000c6f565b50506101208082015162000d958285018262000c6f565b50506101408082015162000dac8285018262000c6f565b50506101608082015162000dc38285018262000e67565b50506101808082015162000dda8285018262000e67565b50506101a08082015162000df18285018262000e67565b50506101c08082015162000e088285018262000c7c565b50506101e081810151908301526102008082015162000e2a8285018262000c7c565b50506102208082015162000e418285018262000c7c565b505061024090810151910152565b6001600160801b03169052565b64ffffffffff169052565b60ff169052565b6001600160a01b0391909116815260200190565b6001600160a01b0392909216825260ff16602082015260400190565b60208082526000906102e083820181850186855b601681101562000f5657601f198089850301855282518051878652805180898801528a5b8181101562000ef5578281018b015188820161030001528a0162000ed6565b8181111562000f08578b610300838a0101525b5089830151915062000f1d8a88018362000cc9565b6040830151925062000f3461028088018462000c82565b96890196601f0190921694909401610300019350509085019060010162000eb2565b5090979650505050505050565b6040518181016001600160401b038111828210171562000f9357634e487b7160e01b600052604160045260246000fd5b604052919050565b600060ff821660ff81141562000fbf57634e487b7160e01b82526011600452602482fd5b6001019291505056fe",
  "deployedBytecode": "0x608060405234801561001057600080fd5b506004361061002b5760003560e01c806315dae03e14610030575b600080fd5b61003861004e565b6040516100459190610da3565b60405180910390f35b6100566107bb565b90565b6100616107bb565b600061006b6102d8565b90506000610077610533565b90506000856001600160a01b0316630261bf8b6040518163ffffffff1660e01b815260040160206040518083038186803b1580156100b457600080fd5b505afa1580156100c8573d6000803e3d6000fd5b505050506040513d601f19601f820116820180604052508101906100ec91906109c0565b90506100f66107bb565b60005b60168160ff1610156102cd5760006040518060600160405280868460ff166016811061013557634e487b7160e01b600052603260045260246000fd5b60200201518152602001856001600160a01b0316633629e3cd898660ff166016811061017157634e487b7160e01b600052603260045260246000fd5b60200201518c6040518363ffffffff1660e01b8152600401610194929190610d87565b6102606040518083038186803b1580156101ad57600080fd5b505afa1580156101c1573d6000803e3d6000fd5b505050506040513d601f19601f820116820180604052508101906101e59190610a35565b8152602001856001600160a01b0316631652e7b7898660ff166016811061021c57634e487b7160e01b600052603260045260246000fd5b60200201516040518263ffffffff1660e01b815260040161023d9190610d73565b60606040518083038186803b15801561025557600080fd5b505afa158015610269573d6000803e3d6000fd5b505050506040513d601f19601f8201168201806040525081019061028d91906109e1565b90529050808360ff8416601681106102b557634e487b7160e01b600052603260045260246000fd5b602002015250806102c581610e97565b9150506100f9565b509695505050505050565b6102e06107e9565b50604080516102c081018252737fc66500c84a76ad7e9c93437bfc5ac33e2ddae98152730d8775f648430679a709e98d2b0cb6250d2887ef6020820152734fabb145d64652a948d72533023f6e7a623c7c5391810191909152736b175474e89094c44da98b954eedeac495271d0f606082015273f629cbd94d3791c9250152bd8dfbdf380e2a3b9c608082015273dd974d5c2e2928dea5f71b9825b8b646686bd20060a082015273514910771af9ca656af840dff83e8264ecf986ca60c0820152730f5d2fb29fb7d3cfee444a200298f468908cc94260e0820152739f8f72aa9304c8b593d555f12ef6589cc3a579a261010082015273408e41876cccdc0f92210600ef50372656052a3861012082015273c011a73ee8576fb46f5e1c5751ca3b9fe0af2a6f6101408201527357ab1ec28d129707052df4df418d58a2d46d5f516101608201526e085d4780b73119b644ae5ecd22b376610180820152731f9840a85d5af5bf1d1762f925bdaddc4201f9846101a082015273a0b86991c6218b36c1d19d4a2e9eb0ce3606eb486101c082015273dac17f958d2ee523a2206206994597c13d831ec76101e0820152732260fac5e5542a773aa44fbcfedf7c193bc2c59961020082015273c02aaa39b223fe8d0a0e5c4f27ead9083c756cc2610220820152730bc529c00c6401aef6d220be8c6ea1667f6ad93e61024082015273e41d2489571d322189246dafa5ebde1f4699f498610260820152738798249c2e607446efb7ad49ec89dd1865ff427261028082015273c4ad29ba4b3c580e6d59105fff484999997675ff6102a082015290565b61053b610808565b50604080516103008101825260046102c08201818152634141564560e01b6102e084015282528251808401845260038082526210905560ea1b602083810191909152808501929092528451808601865283815263109554d160e21b8184015284860152845180860186528181526244414960e81b818401526060850152845180860186528181526222a72560e91b81840152608085015284518086018652818152624b4e4360e81b8184015260a085015284518086018652838152634c494e4b60e01b8184015260c085015284518086018652838152634d414e4160e01b8184015260e0850152845180860186528181526226a5a960e91b8184015261010085015284518086018652818152622922a760e91b8184015261012085015284518086018652818152620a69cb60eb1b81840152610140850152845180860186528381526314d554d160e21b818401526101608501528451808601865283815263151554d160e21b818401526101808501528451808601865281815262554e4960e81b818401526101a085015284518086018652838152635553444360e01b818401526101c085015284518086018652838152631554d11560e21b818401526101e085015284518086018652838152635742544360e01b8184015261020085015284518086018652928352630ae8aa8960e31b83830152610220840192909252835180850185528281526259464960e81b8183015261024084015283518085018552918252620b4a4b60eb1b8282015261026083019190915282518084018452600681526578535553484960d01b818301526102808301528251808401909352600a8352696372763363727970746f60b01b908301526102a081019190915290565b604051806102c001604052806016905b6107d3610830565b8152602001906001900390816107cb5790505090565b604051806102c001604052806016906020820280368337509192915050565b604051806102c001604052806016905b60608152602001906001900390816108185790505090565b60405180606001604052806060815260200161084a61085c565b81526020016108576108ff565b905290565b60405180610260016040528061087061091f565b815260006020820181905260408201819052606082018190526080820181905260a0820181905260c0820181905260e08201819052610100820181905261012082018190526101408201819052610160820181905261018082018190526101a082018190526101c082018190526101e08201819052610200820181905261022082018190526102409091015290565b604080516060810182526000808252602082018190529091820190610857565b6040518060200160405280600081525090565b80516001600160a01b038116811461094957600080fd5b919050565b8051801515811461094957600080fd5b60006020828403121561096f578081fd5b6109796020610e5f565b9151825250919050565b80516001600160801b038116811461094957600080fd5b805164ffffffffff8116811461094957600080fd5b805160ff8116811461094957600080fd5b6000602082840312156109d1578081fd5b6109da82610932565b9392505050565b6000606082840312156109f2578081fd5b6109fc6060610e5f565b610a05836109af565b8152610a136020840161094e565b6020820152604083015160028110610a29578283fd5b60408201529392505050565b6000610260808385031215610a48578182fd5b610a5181610e5f565b9050610a5d848461095e565b8152610a6b60208401610983565b6020820152610a7c60408401610983565b6040820152610a8d60608401610983565b6060820152610a9e60808401610983565b6080820152610aaf60a08401610983565b60a0820152610ac060c0840161099a565b60c0820152610ad160e08401610932565b60e0820152610100610ae4818501610932565b90820152610120610af6848201610932565b90820152610140610b08848201610932565b90820152610160610b1a8482016109af565b90820152610180610b2c8482016109af565b908201526101a0610b3e8482016109af565b908201526101c0610b5084820161094e565b908201526101e08381015190820152610200610b6d81850161094e565b90820152610220610b7f84820161094e565b90820152610240928301519281019290925250919050565b6001600160a01b03169052565b15159052565b60ff8151168252602081015115156020830152604081015160028110610be057634e487b7160e01b600052602160045260246000fd5b806040840152505050565b519052565b610bfb828251610beb565b6020810151610c0d6020840182610d54565b506040810151610c206040840182610d54565b506060810151610c336060840182610d54565b506080810151610c466080840182610d54565b5060a0810151610c5960a0840182610d54565b5060c0810151610c6c60c0840182610d61565b5060e0810151610c7f60e0840182610b97565b5061010080820151610c9382850182610b97565b505061012080820151610ca882850182610b97565b505061014080820151610cbd82850182610b97565b505061016080820151610cd282850182610d6c565b505061018080820151610ce782850182610d6c565b50506101a080820151610cfc82850182610d6c565b50506101c080820151610d1182850182610ba4565b50506101e0818101519083015261020080820151610d3182850182610ba4565b505061022080820151610d4682850182610ba4565b505061024090810151910152565b6001600160801b03169052565b64ffffffffff169052565b60ff169052565b6001600160a01b0391909116815260200190565b6001600160a01b0392909216825260ff16602082015260400190565b60208082526000906102e083820181850186855b6016811015610e5257601f198089850301855282518051878652805180898801528a5b81811015610df7578281018b015188820161030001528a01610dda565b81811115610e09578b610300838a0101525b50898301519150610e1c8a880183610bf0565b60408301519250610e31610280880184610baa565b96890196601f01909216949094016103000193505090850190600101610db7565b5090979650505050505050565b60405181810167ffffffffffffffff81118282101715610e8f57634e487b7160e01b600052604160045260246000fd5b604052919050565b600060ff821660ff811415610eba57634e487b7160e01b82526011600452602482fd5b6001019291505056fea2646970667358221220fc0fa94a4c30fb58df61fa4d4d27c2f8fb7aff4db6f0f7d6d6b3c7221c12386c64736f6c63430008000033",
  "linkReferences": {},
  "deployedLinkReferences": {}
}