{
  "_format": "hh-sol-artifact-1",
  "contractName": "LendingPoolAddressesProviderRegistry",
  "sourceName": "contracts/protocol/configuration/LendingPoolAddressesProviderRegistry.sol",
  "abi": [
    {
      "anonymous": false,
      "inputs": [
        {
          "indexed": true,
          "internalType": "address",
          "name": "newAddress",
          "type": "address"
        }
      ],
      "name": "AddressesProviderRegistered",
      "type": "event"
    },
    {
      "anonymous": false,
      "inputs": [
        {
          "indexed": true,
          "internalType": "address",
          "name": "newAddress",
          "type": "address"
        }
      ],
      "name": "AddressesProviderUnregistered",
      "type": "event"
    },
    {
      "anonymous": false,
      "inputs": [
        {
          "indexed": true,
          "internalType": "address",
          "name": "previousOwner",
          "type": "address"
        },
        {
          "indexed": true,
          "internalType": "address",
          "name": "newOwner",
          "type": "address"
        }
      ],
      "name": "OwnershipTransferred",
      "type": "event"
    },
    {
      "inputs": [
        {
          "internalType": "address",
          "name": "addressesProvider",
          "type": "address"
        }
      ],
      "name": "getAddressesProviderIdByAddress",
      "outputs": [
        {
          "internalType": "uint256",
          "name": "",
          "type": "uint256"
        }
      ],
      "stateMutability": "view",
      "type": "function"
    },
    {
      "inputs": [],
      "name": "getAddressesProvidersList",
      "outputs": [
        {
          "internalType": "address[]",
          "name": "",
          "type": "address[]"
        }
      ],
      "stateMutability": "view",
      "type": "function"
    },
    {
      "inputs": [],
      "name": "owner",
      "outputs": [
        {
          "internalType": "address",
          "name": "",
          "type": "address"
        }
      ],
      "stateMutability": "view",
      "type": "function"
    },
    {
      "inputs": [
        {
          "internalType": "address",
          "name": "provider",
          "type": "address"
        },
        {
          "internalType": "uint256",
          "name": "id",
          "type": "uint256"
        }
      ],
      "name": "registerAddressesProvider",
      "outputs": [],
      "stateMutability": "nonpayable",
      "type": "function"
    },
    {
      "inputs": [],
      "name": "renounceOwnership",
      "outputs": [],
      "stateMutability": "nonpayable",
      "type": "function"
    },
    {
      "inputs": [
        {
          "internalType": "address",
          "name": "newOwner",
          "type": "address"
        }
      ],
      "name": "transferOwnership",
      "outputs": [],
      "stateMutability": "nonpayable",
      "type": "function"
    },
    {
      "inputs": [
        {
          "internalType": "address",
          "name": "provider",
          "type": "address"
        }
      ],
      "name": "unregisterAddressesProvider",
      "outputs": [],
      "stateMutability": "nonpayable",
      "type": "function"
    }
  ],
  "bytecode": "0x608060405234801561001057600080fd5b50600061001b61006a565b600080546001600160a01b0319166001600160a01b0383169081178255604051929350917f8be0079c531659141344cd1fd0a4f28419497f9722a3daafe3b4186f6b6457e0908290a35061006e565b3390565b6108808061007d6000396000f3fe608060405234801561001057600080fd5b506004361061007d5760003560e01c80638da5cb5b1161005b5780638da5cb5b146100bd578063d0267be7146100d2578063d258191e146100f2578063f2fde38b146101055761007d565b80630de2670714610082578063365ccbbf14610097578063715018a6146100b5575b600080fd5b6100956100903660046106a1565b610118565b005b61009f6101fd565b6040516100ac91906106ff565b60405180910390f35b61009561039c565b6100c561041b565b6040516100ac91906106eb565b6100e56100e03660046106a1565b61042a565b6040516100ac919061081a565b6100956101003660046106c2565b610449565b6100956101133660046106a1565b610512565b6101206105c8565b6000546001600160a01b039081169116146101565760405162461bcd60e51b815260040161014d906107e5565b60405180910390fd5b600060016000836001600160a01b03166001600160a01b03168152602001908152602001600020541160405180604001604052806002815260200161343160f01b815250906101b85760405162461bcd60e51b815260040161014d919061074c565b506001600160a01b038116600081815260016020526040808220829055517f851e5971c053e6b76e3a1e0b8ffa81430df738007fad86e195c409a757faccd29190a250565b60606000600280548060200260200160405190810160405280929190818152602001828054801561025757602002820191906000526020600020905b81546001600160a01b03168152600190910190602001808311610239575b5050505050905060008151905060008167ffffffffffffffff81111561028d57634e487b7160e01b600052604160045260246000fd5b6040519080825280602002602001820160405280156102b6578160200160208202803683370190505b50905060005b82811015610394576000600160008684815181106102ea57634e487b7160e01b600052603260045260246000fd5b60200260200101516001600160a01b03166001600160a01b031681526020019081526020016000205411156103825783818151811061033957634e487b7160e01b600052603260045260246000fd5b602002602001015182828151811061036157634e487b7160e01b600052603260045260246000fd5b60200260200101906001600160a01b031690816001600160a01b0316815250505b8061038c81610823565b9150506102bc565b509250505090565b6103a46105c8565b6000546001600160a01b039081169116146103d15760405162461bcd60e51b815260040161014d906107e5565b600080546040516001600160a01b03909116907f8be0079c531659141344cd1fd0a4f28419497f9722a3daafe3b4186f6b6457e0908390a3600080546001600160a01b0319169055565b6000546001600160a01b031690565b6001600160a01b0381166000908152600160205260409020545b919050565b6104516105c8565b6000546001600160a01b0390811691161461047e5760405162461bcd60e51b815260040161014d906107e5565b6040805180820190915260028152611b9960f11b6020820152816104b55760405162461bcd60e51b815260040161014d919061074c565b506001600160a01b03821660009081526001602052604090208190556104da826105cc565b6040516001600160a01b038316907f2db38786c10176b033a1608361716b0ca992e3af55dc05b6dc710969790beeda90600090a25050565b61051a6105c8565b6000546001600160a01b039081169116146105475760405162461bcd60e51b815260040161014d906107e5565b6001600160a01b03811661056d5760405162461bcd60e51b815260040161014d9061079f565b600080546040516001600160a01b03808516939216917f8be0079c531659141344cd1fd0a4f28419497f9722a3daafe3b4186f6b6457e091a3600080546001600160a01b0319166001600160a01b0392909216919091179055565b3390565b60025460005b8181101561063957826001600160a01b03166002828154811061060557634e487b7160e01b600052603260045260246000fd5b6000918252602090912001546001600160a01b03161415610627575050610687565b8061063181610823565b9150506105d2565b5050600280546001810182556000919091527f405787fa12a823e0f2b7631cc41b3ba8828b3321ca811111fa75cd3aa3bb5ace0180546001600160a01b0319166001600160a01b0383161790555b50565b80356001600160a01b038116811461044457600080fd5b6000602082840312156106b2578081fd5b6106bb8261068a565b9392505050565b600080604083850312156106d4578081fd5b6106dd8361068a565b946020939093013593505050565b6001600160a01b0391909116815260200190565b6020808252825182820181905260009190848201906040850190845b818110156107405783516001600160a01b03168352928401929184019160010161071b565b50909695505050505050565b6000602080835283518082850152825b818110156107785785810183015185820160400152820161075c565b818111156107895783604083870101525b50601f01601f1916929092016040019392505050565b60208082526026908201527f4f776e61626c653a206e6577206f776e657220697320746865207a65726f206160408201526564647265737360d01b606082015260800190565b6020808252818101527f4f776e61626c653a2063616c6c6572206973206e6f7420746865206f776e6572604082015260600190565b90815260200190565b600060001982141561084357634e487b7160e01b81526011600452602481fd5b506001019056fea2646970667358221220857027342e77b628513fd7620eb58b1f9e606268a03fea42e29dffaa45e2919164736f6c63430008000033",
  "linkReferences": {},
  "deployedLinkReferences": {}
}