{
  "_format": "hh-sol-artifact-1",
  "contractName": "UiPoolDataProviderV2V3",
  "sourceName": "contracts/misc/UiPoolDataProviderV2V3.sol",
  "abi": [
    {
      "inputs": [
        {
          "internalType": "contract IChainlinkAggregator",
          "name": "_networkBaseTokenPriceInUsdProxyAggregator",
          "type": "address"
        },
        {
          "internalType": "contract IChainlinkAggregator",
          "name": "_marketReferenceCurrencyPriceInUsdProxyAggregator",
          "type": "address"
        }
      ],
      "stateMutability": "nonpayable",
      "type": "constructor"
    },
    {
      "inputs": [],
      "name": "ETH_CURRENCY_UNIT",
      "outputs": [
        {
          "internalType": "uint256",
          "name": "",
          "type": "uint256"
        }
      ],
      "stateMutability": "view",
      "type": "function"
    },
    {
      "inputs": [],
      "name": "MKRAddress",
      "outputs": [
        {
          "internalType": "address",
          "name": "",
          "type": "address"
        }
      ],
      "stateMutability": "view",
      "type": "function"
    },
    {
      "inputs": [
        {
          "internalType": "bytes32",
          "name": "_bytes32",
          "type": "bytes32"
        }
      ],
      "name": "bytes32ToString",
      "outputs": [
        {
          "internalType": "string",
          "name": "",
          "type": "string"
        }
      ],
      "stateMutability": "pure",
      "type": "function"
    },
    {
      "inputs": [
        {
          "internalType": "contract ILendingPoolAddressesProvider",
          "name": "provider",
          "type": "address"
        }
      ],
      "name": "getReservesData",
      "outputs": [
        {
          "components": [
            {
              "internalType": "address",
              "name": "underlyingAsset",
              "type": "address"
            },
            {
              "internalType": "string",
              "name": "name",
              "type": "string"
            },
            {
              "internalType": "string",
              "name": "symbol",
              "type": "string"
            },
            {
              "internalType": "uint256",
              "name": "decimals",
              "type": "uint256"
            },
            {
              "internalType": "uint256",
              "name": "baseLTVasCollateral",
              "type": "uint256"
            },
            {
              "internalType": "uint256",
              "name": "reserveLiquidationThreshold",
              "type": "uint256"
            },
            {
              "internalType": "uint256",
              "name": "reserveLiquidationBonus",
              "type": "uint256"
            },
            {
              "internalType": "uint256",
              "name": "reserveFactor",
              "type": "uint256"
            },
            {
              "internalType": "bool",
              "name": "usageAsCollateralEnabled",
              "type": "bool"
            },
            {
              "internalType": "bool",
              "name": "borrowingEnabled",
              "type": "bool"
            },
            {
              "internalType": "bool",
              "name": "stableBorrowRateEnabled",
              "type": "bool"
            },
            {
              "internalType": "bool",
              "name": "isActive",
              "type": "bool"
            },
            {
              "internalType": "bool",
              "name": "isFrozen",
              "type": "bool"
            },
            {
              "internalType": "uint128",
              "name": "liquidityIndex",
              "type": "uint128"
            },
            {
              "internalType": "uint128",
              "name": "variableBorrowIndex",
              "type": "uint128"
            },
            {
              "internalType": "uint128",
              "name": "liquidityRate",
              "type": "uint128"
            },
            {
              "internalType": "uint128",
              "name": "variableBorrowRate",
              "type": "uint128"
            },
            {
              "internalType": "uint128",
              "name": "stableBorrowRate",
              "type": "uint128"
            },
            {
              "internalType": "uint40",
              "name": "lastUpdateTimestamp",
              "type": "uint40"
            },
            {
              "internalType": "address",
              "name": "aTokenAddress",
              "type": "address"
            },
            {
              "internalType": "address",
              "name": "stableDebtTokenAddress",
              "type": "address"
            },
            {
              "internalType": "address",
              "name": "variableDebtTokenAddress",
              "type": "address"
            },
            {
              "internalType": "address",
              "name": "interestRateStrategyAddress",
              "type": "address"
            },
            {
              "internalType": "uint256",
              "name": "availableLiquidity",
              "type": "uint256"
            },
            {
              "internalType": "uint256",
              "name": "totalPrincipalStableDebt",
              "type": "uint256"
            },
            {
              "internalType": "uint256",
              "name": "averageStableRate",
              "type": "uint256"
            },
            {
              "internalType": "uint256",
              "name": "stableDebtLastUpdateTimestamp",
              "type": "uint256"
            },
            {
              "internalType": "uint256",
              "name": "totalScaledVariableDebt",
              "type": "uint256"
            },
            {
              "internalType": "uint256",
              "name": "priceInMarketReferenceCurrency",
              "type": "uint256"
            },
            {
              "internalType": "uint256",
              "name": "variableRateSlope1",
              "type": "uint256"
            },
            {
              "internalType": "uint256",
              "name": "variableRateSlope2",
              "type": "uint256"
            },
            {
              "internalType": "uint256",
              "name": "stableRateSlope1",
              "type": "uint256"
            },
            {
              "internalType": "uint256",
              "name": "stableRateSlope2",
              "type": "uint256"
            },
            {
              "internalType": "bool",
              "name": "isPaused",
              "type": "bool"
            },
            {
              "internalType": "uint128",
              "name": "accruedToTreasury",
              "type": "uint128"
            },
            {
              "internalType": "uint128",
              "name": "unbacked",
              "type": "uint128"
            },
            {
              "internalType": "uint128",
              "name": "isolationModeTotalDebt",
              "type": "uint128"
            },
            {
              "internalType": "uint256",
              "name": "debtCeiling",
              "type": "uint256"
            },
            {
              "internalType": "uint256",
              "name": "debtCeilingDecimals",
              "type": "uint256"
            },
            {
              "internalType": "uint8",
              "name": "eModeCategoryId",
              "type": "uint8"
            },
            {
              "internalType": "uint256",
              "name": "borrowCap",
              "type": "uint256"
            },
            {
              "internalType": "uint256",
              "name": "supplyCap",
              "type": "uint256"
            },
            {
              "internalType": "uint16",
              "name": "eModeLtv",
              "type": "uint16"
            },
            {
              "internalType": "uint16",
              "name": "eModeLiquidationThreshold",
              "type": "uint16"
            },
            {
              "internalType": "uint16",
              "name": "eModeLiquidationBonus",
              "type": "uint16"
            },
            {
              "internalType": "address",
              "name": "eModePriceSource",
              "type": "address"
            },
            {
              "internalType": "string",
              "name": "eModeLabel",
              "type": "string"
            },
            {
              "internalType": "bool",
              "name": "borrowableInIsolation",
              "type": "bool"
            }
          ],
          "internalType": "struct IUiPoolDataProviderV3.AggregatedReserveData[]",
          "name": "",
          "type": "tuple[]"
        },
        {
          "components": [
            {
              "internalType": "uint256",
              "name": "marketReferenceCurrencyUnit",
              "type": "uint256"
            },
            {
              "internalType": "int256",
              "name": "marketReferenceCurrencyPriceInUsd",
              "type": "int256"
            },
            {
              "internalType": "int256",
              "name": "networkBaseTokenPriceInUsd",
              "type": "int256"
            },
            {
              "internalType": "uint8",
              "name": "networkBaseTokenPriceDecimals",
              "type": "uint8"
            }
          ],
          "internalType": "struct IUiPoolDataProviderV3.BaseCurrencyInfo",
          "name": "",
          "type": "tuple"
        }
      ],
      "stateMutability": "view",
      "type": "function"
    },
    {
      "inputs": [
        {
          "internalType": "contract ILendingPoolAddressesProvider",
          "name": "provider",
          "type": "address"
        }
      ],
      "name": "getReservesList",
      "outputs": [
        {
          "internalType": "address[]",
          "name": "",
          "type": "address[]"
        }
      ],
      "stateMutability": "view",
      "type": "function"
    },
    {
      "inputs": [
        {
          "internalType": "contract ILendingPoolAddressesProvider",
          "name": "provider",
          "type": "address"
        },
        {
          "internalType": "address",
          "name": "user",
          "type": "address"
        }
      ],
      "name": "getUserReservesData",
      "outputs": [
        {
          "components": [
            {
              "internalType": "address",
              "name": "underlyingAsset",
              "type": "address"
            },
            {
              "internalType": "uint256",
              "name": "scaledATokenBalance",
              "type": "uint256"
            },
            {
              "internalType": "bool",
              "name": "usageAsCollateralEnabledOnUser",
              "type": "bool"
            },
            {
              "internalType": "uint256",
              "name": "stableBorrowRate",
              "type": "uint256"
            },
            {
              "internalType": "uint256",
              "name": "scaledVariableDebt",
              "type": "uint256"
            },
            {
              "internalType": "uint256",
              "name": "principalStableDebt",
              "type": "uint256"
            },
            {
              "internalType": "uint256",
              "name": "stableBorrowLastUpdateTimestamp",
              "type": "uint256"
            }
          ],
          "internalType": "struct IUiPoolDataProviderV3.UserReserveData[]",
          "name": "",
          "type": "tuple[]"
        },
        {
          "internalType": "uint8",
          "name": "",
          "type": "uint8"
        }
      ],
      "stateMutability": "view",
      "type": "function"
    },
    {
      "inputs": [],
      "name": "marketReferenceCurrencyPriceInUsdProxyAggregator",
      "outputs": [
        {
          "internalType": "contract IChainlinkAggregator",
          "name": "",
          "type": "address"
        }
      ],
      "stateMutability": "view",
      "type": "function"
    },
    {
      "inputs": [],
      "name": "networkBaseTokenPriceInUsdProxyAggregator",
      "outputs": [
        {
          "internalType": "contract IChainlinkAggregator",
          "name": "",
          "type": "address"
        }
      ],
      "stateMutability": "view",
      "type": "function"
    }
  ],
  "bytecode": "0x60c06040523480156200001157600080fd5b506040516200263d3803806200263d833981016040819052620000349162000070565b6001600160601b0319606092831b8116608052911b1660a052620000a7565b80516001600160a01b03811681146200006b57600080fd5b919050565b6000806040838503121562000083578182fd5b6200008e8362000053565b91506200009e6020840162000053565b90509250929050565b60805160601c60a05160601c61254e620000ef60003960008181610b1d0152818161147701526115350152600081816101600152818161128e0152611328015261254e6000f3fe608060405234801561001057600080fd5b50600436106100885760003560e01c80639201de551161005b5780639201de55146101015780639dd9e2ce14610121578063d22cf68a14610129578063ec489c211461013157610088565b80630496f53a1461008d5780633c1740ed146100ab57806351974cc0146100c0578063586c1442146100e1575b600080fd5b610095610152565b6040516100a291906123ff565b60405180910390f35b6100b361015e565b6040516100a29190611f5a565b6100d36100ce366004611c86565b610182565b6040516100a292919061235b565b6100f46100ef366004611c6a565b610898565b6040516100a29190611f6e565b61011461010f366004611c3a565b61098d565b6040516100a291906123ec565b6100b3610b03565b6100b3610b1b565b61014461013f366004611c6a565b610b3f565b6040516100a2929190611fbb565b670de0b6b3a764000081565b7f000000000000000000000000000000000000000000000000000000000000000081565b6060600080846001600160a01b0316630261bf8b6040518163ffffffff1660e01b815260040160206040518083038186803b1580156101c057600080fd5b505afa1580156101d4573d6000803e3d6000fd5b505050506040513d601f19601f820116820180604052508101906101f89190611b64565b90506000816001600160a01b031663d1946dbc6040518163ffffffff1660e01b815260040160006040518083038186803b15801561023557600080fd5b505afa158015610249573d6000803e3d6000fd5b505050506040513d6000823e601f3d908101601f191682016040526102719190810190611b87565b90506000826001600160a01b0316634417a583876040518263ffffffff1660e01b81526004016102a19190611f5a565b60206040518083038186803b1580156102b957600080fd5b505afa1580156102cd573d6000803e3d6000fd5b505050506040513d601f19601f820116820180604052508101906102f19190611e3e565b905060006001600160a01b03871661030a57600061030d565b82515b67ffffffffffffffff81111561033357634e487b7160e01b600052604160045260246000fd5b60405190808252806020026020018201604052801561036c57816020015b6103596118e2565b8152602001906001900390816103515790505b50905060005b8351811015610889576000856001600160a01b03166335ea6a758684815181106103ac57634e487b7160e01b600052603260045260246000fd5b60200260200101516040518263ffffffff1660e01b81526004016103d09190611f5a565b6101806040518083038186803b1580156103e957600080fd5b505afa1580156103fd573d6000803e3d6000fd5b505050506040513d601f19601f820116820180604052508101906104219190611d4e565b905084828151811061044357634e487b7160e01b600052603260045260246000fd5b602002602001015183838151811061046b57634e487b7160e01b600052603260045260246000fd5b60209081029190910101516001600160a01b03918216905260e0820151604051630ed1279f60e11b8152911690631da24f3e906104ac908c90600401611f5a565b60206040518083038186803b1580156104c457600080fd5b505afa1580156104d8573d6000803e3d6000fd5b505050506040513d601f19601f820116820180604052508101906104fc9190611c52565b83838151811061051c57634e487b7160e01b600052603260045260246000fd5b602090810291909101810151015261053484836115e8565b83838151811061055457634e487b7160e01b600052603260045260246000fd5b60209081029190910101519015156040909101526105728483611657565b15610876578061012001516001600160a01b0316631da24f3e8a6040518263ffffffff1660e01b81526004016105a89190611f5a565b60206040518083038186803b1580156105c057600080fd5b505afa1580156105d4573d6000803e3d6000fd5b505050506040513d601f19601f820116820180604052508101906105f89190611c52565b83838151811061061857634e487b7160e01b600052603260045260246000fd5b602002602001015160800181815250508061010001516001600160a01b031663c634dfaa8a6040518263ffffffff1660e01b81526004016106599190611f5a565b60206040518083038186803b15801561067157600080fd5b505afa158015610685573d6000803e3d6000fd5b505050506040513d601f19601f820116820180604052508101906106a99190611c52565b8383815181106106c957634e487b7160e01b600052603260045260246000fd5b602002602001015160a00181815250508282815181106106f957634e487b7160e01b600052603260045260246000fd5b602002602001015160a00151600014610876578061010001516001600160a01b031663e78c9b3b8a6040518263ffffffff1660e01b815260040161073d9190611f5a565b60206040518083038186803b15801561075557600080fd5b505afa158015610769573d6000803e3d6000fd5b505050506040513d601f19601f8201168201806040525081019061078d9190611c52565b8383815181106107ad57634e487b7160e01b600052603260045260246000fd5b602002602001015160600181815250508061010001516001600160a01b03166379ce6b8c8a6040518263ffffffff1660e01b81526004016107ee9190611f5a565b60206040518083038186803b15801561080657600080fd5b505afa15801561081a573d6000803e3d6000fd5b505050506040513d601f19601f8201168201806040525081019061083e9190611e97565b64ffffffffff1683838151811061086557634e487b7160e01b600052603260045260246000fd5b602002602001015160c00181815250505b508061088181612499565b915050610372565b50976000975095505050505050565b60606000826001600160a01b0316630261bf8b6040518163ffffffff1660e01b815260040160206040518083038186803b1580156108d557600080fd5b505afa1580156108e9573d6000803e3d6000fd5b505050506040513d601f19601f8201168201806040525081019061090d9190611b64565b9050806001600160a01b031663d1946dbc6040518163ffffffff1660e01b815260040160006040518083038186803b15801561094857600080fd5b505afa15801561095c573d6000803e3d6000fd5b505050506040513d6000823e601f3d908101601f191682016040526109849190810190611b87565b9150505b919050565b606060005b60208160ff161080156109d45750828160ff16602081106109c357634e487b7160e01b600052603260045260246000fd5b1a60f81b6001600160f81b03191615155b156109eb57806109e3816124b4565b915050610992565b60008160ff1667ffffffffffffffff811115610a1757634e487b7160e01b600052604160045260246000fd5b6040519080825280601f01601f191660200182016040528015610a41576020820181803683370190505b509050600091505b60208260ff16108015610a8b5750838260ff1660208110610a7a57634e487b7160e01b600052603260045260246000fd5b1a60f81b6001600160f81b03191615155b1561098457838260ff1660208110610ab357634e487b7160e01b600052603260045260246000fd5b1a60f81b818360ff1681518110610ada57634e487b7160e01b600052603260045260246000fd5b60200101906001600160f81b031916908160001a90535081610afb816124b4565b925050610a49565b739f8f72aa9304c8b593d555f12ef6589cc3a579a281565b7f000000000000000000000000000000000000000000000000000000000000000081565b6060610b4961192a565b6000836001600160a01b031663fca513a86040518163ffffffff1660e01b815260040160206040518083038186803b158015610b8457600080fd5b505afa158015610b98573d6000803e3d6000fd5b505050506040513d601f19601f82011682018060405250810190610bbc9190611b64565b90506000846001600160a01b0316630261bf8b6040518163ffffffff1660e01b815260040160206040518083038186803b158015610bf957600080fd5b505afa158015610c0d573d6000803e3d6000fd5b505050506040513d601f19601f82011682018060405250810190610c319190611b64565b90506000816001600160a01b031663d1946dbc6040518163ffffffff1660e01b815260040160006040518083038186803b158015610c6e57600080fd5b505afa158015610c82573d6000803e3d6000fd5b505050506040513d6000823e601f3d908101601f19168201604052610caa9190810190611b87565b90506000815167ffffffffffffffff811115610cd657634e487b7160e01b600052604160045260246000fd5b604051908082528060200260200182016040528015610d0f57816020015b610cfc611955565b815260200190600190039081610cf45790505b50905060005b8251811015611283576000828281518110610d4057634e487b7160e01b600052603260045260246000fd5b60200260200101519050838281518110610d6a57634e487b7160e01b600052603260045260246000fd5b60209081029190910101516001600160a01b039081168083526040516335ea6a7560e01b81526000928816916335ea6a7591610da99190600401611f5a565b6101806040518083038186803b158015610dc257600080fd5b505afa158015610dd6573d6000803e3d6000fd5b505050506040513d601f19601f82011682018060405250810190610dfa9190611d4e565b60208101516001600160801b039081166101a085015260408083015182166101c0860152606083015182166101e08601526080830151821661020086015260a083015190911661022085015260c082015164ffffffffff1661024085015260e08201516001600160a01b03908116610260860152610100830151811661028086015261012083015181166102a086015261014083015181166102c08601528451915163b3596f0760e01b815292935089169163b3596f0791610ebe91600401611f5a565b60206040518083038186803b158015610ed657600080fd5b505afa158015610eea573d6000803e3d6000fd5b505050506040513d601f19601f82011682018060405250810190610f0e9190611c52565b61038083015281516102608301516040516370a0823160e01b81526001600160a01b03909216916370a0823191610f4791600401611f5a565b60206040518083038186803b158015610f5f57600080fd5b505afa158015610f73573d6000803e3d6000fd5b505050506040513d601f19601f82011682018060405250810190610f979190611c52565b826102e00181815250508161028001516001600160a01b031663797743386040518163ffffffff1660e01b815260040160806040518083038186803b158015610fdf57600080fd5b505afa158015610ff3573d6000803e3d6000fd5b505050506040513d601f19601f820116820180604052508101906110179190611e59565b64ffffffffff16610340860152610320850152506103008301526102a08201516040805163b1bf962d60e01b815290516001600160a01b039092169163b1bf962d91600480820192602092909190829003018186803b15801561107957600080fd5b505afa15801561108d573d6000803e3d6000fd5b505050506040513d601f19601f820116820180604052508101906110b19190611c52565b61036083015281516001600160a01b0316739f8f72aa9304c8b593d555f12ef6589cc3a579a2141561116a57600082600001516001600160a01b03166395d89b416040518163ffffffff1660e01b815260040160206040518083038186803b15801561111c57600080fd5b505afa158015611130573d6000803e3d6000fd5b505050506040513d601f19601f820116820180604052508101906111549190611c52565b905061115f8161098d565b6040840152506111e9565b81600001516001600160a01b03166395d89b416040518163ffffffff1660e01b815260040160006040518083038186803b1580156111a757600080fd5b505afa1580156111bb573d6000803e3d6000fd5b505050506040513d6000823e601f3d908101601f191682016040526111e39190810190611cbe565b60408301525b80516111f4906116a2565b60e0870152606086015260c085015260a084015260808301528051611218906116cd565b1515610140860152151561012085015215156101808401521515610160830152608082015115156101008301526102c082015161125490611709565b6104008601526103e08501526103c08401526103a090920191909152508061127b81612499565b915050610d15565b5061128c61192a565b7f00000000000000000000000000000000000000000000000000000000000000006001600160a01b03166350d25bcd6040518163ffffffff1660e01b815260040160206040518083038186803b1580156112e557600080fd5b505afa1580156112f9573d6000803e3d6000fd5b505050506040513d601f19601f8201168201806040525081019061131d9190611c52565b8160400181815250507f00000000000000000000000000000000000000000000000000000000000000006001600160a01b031663313ce5676040518163ffffffff1660e01b815260040160206040518083038186803b15801561137f57600080fd5b505afa158015611393573d6000803e3d6000fd5b505050506040513d601f19601f820116820180604052508101906113b79190611eb1565b60ff16606082015260408051638c89b64f60e01b815290516001600160a01b03871691638c89b64f916004808301926020929190829003018186803b1580156113ff57600080fd5b505afa92505050801561142f575060408051601f3d908101601f1916820190925261142c91810190611c52565b60015b611511573d80801561145d576040519150601f19603f3d011682016040523d82523d6000602084013e611462565b606091505b50670de0b6b3a76400008260000181815250507f00000000000000000000000000000000000000000000000000000000000000006001600160a01b03166350d25bcd6040518163ffffffff1660e01b815260040160206040518083038186803b1580156114ce57600080fd5b505afa1580156114e2573d6000803e3d6000fd5b505050506040513d601f19601f820116820180604052508101906115069190611c52565b6020830152506115db565b80670de0b6b3a764000014156115ce57670de0b6b3a76400008260000181815250507f00000000000000000000000000000000000000000000000000000000000000006001600160a01b03166350d25bcd6040518163ffffffff1660e01b815260040160206040518083038186803b15801561158c57600080fd5b505afa1580156115a0573d6000803e3d6000fd5b505050506040513d601f19601f820116820180604052508101906115c49190611c52565b60208301526115d9565b808252602082018190525b505b9095509350505050915091565b60006080821060405180604001604052806002815260200161373760f01b815250906116305760405162461bcd60e51b815260040161162791906123ec565b60405180910390fd5b5061163c82600261244a565b611647906001612432565b925190921c600116151592915050565b60006080821060405180604001604052806002815260200161373760f01b815250906116965760405162461bcd60e51b815260040161162791906123ec565b5061164782600261244a565b5161ffff80821692601083901c821692602081901c831692603082901c60ff169260409290921c1690565b51670100000000000000811615159167020000000000000082161515916704000000000000008116151591670800000000000000909116151590565b600080600080846001600160a01b0316637b832f586040518163ffffffff1660e01b815260040160206040518083038186803b15801561174857600080fd5b505afa15801561175c573d6000803e3d6000fd5b505050506040513d601f19601f820116820180604052508101906117809190611c52565b856001600160a01b03166365614f816040518163ffffffff1660e01b815260040160206040518083038186803b1580156117b957600080fd5b505afa1580156117cd573d6000803e3d6000fd5b505050506040513d601f19601f820116820180604052508101906117f19190611c52565b866001600160a01b0316630bdf953f6040518163ffffffff1660e01b815260040160206040518083038186803b15801561182a57600080fd5b505afa15801561183e573d6000803e3d6000fd5b505050506040513d601f19601f820116820180604052508101906118629190611c52565b876001600160a01b031663ccab01a36040518163ffffffff1660e01b815260040160206040518083038186803b15801561189b57600080fd5b505afa1580156118af573d6000803e3d6000fd5b505050506040513d601f19601f820116820180604052508101906118d39190611c52565b93509350935093509193509193565b6040518060e0016040528060006001600160a01b0316815260200160008152602001600015158152602001600081526020016000815260200160008152602001600081525090565b6040518060800160405280600081526020016000815260200160008152602001600060ff1681525090565b604080516106008101825260008082526060602083018190529282018390528282018190526080820181905260a0820181905260c0820181905260e08201819052610100820181905261012082018190526101408201819052610160820181905261018082018190526101a082018190526101c082018190526101e08201819052610200820181905261022082018190526102408201819052610260820181905261028082018190526102a082018190526102c082018190526102e08201819052610300820181905261032082018190526103408201819052610360820181905261038082018190526103a082018190526103c082018190526103e08201819052610400820181905261042082018190526104408201819052610460820181905261048082018190526104a082018190526104c082018190526104e08201819052610500820181905261052082018190526105408201819052610560820181905261058082018190526105a082018190526105c08201929092526105e081019190915290565b805161098881612500565b600060208284031215611af7578081fd5b6040516020810181811067ffffffffffffffff82111715611b1a57611b1a6124ea565b6040529151825250919050565b80516001600160801b038116811461098857600080fd5b805164ffffffffff8116811461098857600080fd5b805160ff8116811461098857600080fd5b600060208284031215611b75578081fd5b8151611b8081612500565b9392505050565b60006020808385031215611b99578182fd5b825167ffffffffffffffff80821115611bb0578384fd5b818501915085601f830112611bc3578384fd5b815181811115611bd557611bd56124ea565b8381029150611be5848301612408565b8181528481019084860184860187018a1015611bff578788fd5b8795505b83861015611c2d5780519450611c1885612500565b84835260019590950194918601918601611c03565b5098975050505050505050565b600060208284031215611c4b578081fd5b5035919050565b600060208284031215611c63578081fd5b5051919050565b600060208284031215611c7b578081fd5b8135611b8081612500565b60008060408385031215611c98578081fd5b8235611ca381612500565b91506020830135611cb381612500565b809150509250929050565b600060208284031215611ccf578081fd5b815167ffffffffffffffff80821115611ce6578283fd5b818401915084601f830112611cf9578283fd5b815181811115611d0b57611d0b6124ea565b611d1e601f8201601f1916602001612408565b9150808252856020828501011115611d34578384fd5b611d45816020840160208601612469565b50949350505050565b6000610180808385031215611d61578182fd5b611d6a81612408565b9050611d768484611ae6565b8152611d8460208401611b27565b6020820152611d9560408401611b27565b6040820152611da660608401611b27565b6060820152611db760808401611b27565b6080820152611dc860a08401611b27565b60a0820152611dd960c08401611b3e565b60c0820152611dea60e08401611adb565b60e0820152610100611dfd818501611adb565b90820152610120611e0f848201611adb565b90820152610140611e21848201611adb565b90820152610160611e33848201611b53565b908201529392505050565b600060208284031215611e4f578081fd5b611b808383611ae6565b60008060008060808587031215611e6e578182fd5b845193506020850151925060408501519150611e8c60608601611b3e565b905092959194509250565b600060208284031215611ea8578081fd5b611b8082611b3e565b600060208284031215611ec2578081fd5b611b8082611b53565b6001600160a01b03169052565b15159052565b60008151808452611ef6816020860160208601612469565b601f01601f19169290920160200192915050565b80518252602081015160208301526040810151604083015260ff60608201511660608301525050565b6001600160801b03169052565b61ffff169052565b64ffffffffff169052565b60ff169052565b6001600160a01b0391909116815260200190565b6020808252825182820181905260009190848201906040850190845b81811015611faf5783516001600160a01b031683529284019291840191600101611f8a565b50909695505050505050565b60a080825283518282018190526000919060c09081850190602080820287018401818a01875b8481101561233d5760bf198a84030186528151610600612002858351611ecb565b85820151818787015261201782870182611ede565b915050604080830151868303828801526120318382611ede565b9250505060608083015181870152506080808301518187015250898201518a860152888201518986015260e08083015181870152506101008083015161207982880182611ed8565b50506101208083015161208e82880182611ed8565b5050610140808301516120a382880182611ed8565b5050610160808301516120b882880182611ed8565b5050610180808301516120cd82880182611ed8565b50506101a0808301516120e282880182611f33565b50506101c0808301516120f782880182611f33565b50506101e08083015161210c82880182611f33565b50506102008083015161212182880182611f33565b50506102208083015161213682880182611f33565b50506102408083015161214b82880182611f48565b50506102608083015161216082880182611ecb565b50506102808083015161217582880182611ecb565b50506102a08083015161218a82880182611ecb565b50506102c08083015161219f82880182611ecb565b50506102e08281015190860152610300808301519086015261032080830151908601526103408083015190860152610360808301519086015261038080830151908601526103a080830151908601526103c080830151908601526103e0808301519086015261040080830151908601526104208083015161222282880182611ed8565b50506104408083015161223782880182611f33565b50506104608083015161224c82880182611f33565b50506104808083015161226182880182611f33565b50506104a082810151908601526104c080830151908601526104e08083015161228c82880182611f53565b505061050082810151908601526105208083015190860152610540808301516122b782880182611f40565b5050610560808301516122cc82880182611f40565b5050610580808301516122e182880182611f40565b50506105a0808301516122f682880182611ecb565b50506105c080830151868303828801526123108382611ede565b925050506105e080830151925061232981870184611ed8565b509685019693505090830190600101611fe1565b50508096505061234f81880189611f0a565b50505050509392505050565b6040808252835182820181905260009190606090818501906020808901865b838110156123db57815180516001600160a01b0316865283810151848701528781015115158887015286810151878701526080808201519087015260a0808201519087015260c0908101519086015260e0909401939082019060010161237a565b505082955061234f81880189611f53565b600060208252611b806020830184611ede565b90815260200190565b60405181810167ffffffffffffffff8111828210171561242a5761242a6124ea565b604052919050565b60008219821115612445576124456124d4565b500190565b6000816000190483118215151615612464576124646124d4565b500290565b60005b8381101561248457818101518382015260200161246c565b83811115612493576000848401525b50505050565b60006000198214156124ad576124ad6124d4565b5060010190565b600060ff821660ff8114156124cb576124cb6124d4565b60010192915050565b634e487b7160e01b600052601160045260246000fd5b634e487b7160e01b600052604160045260246000fd5b6001600160a01b038116811461251557600080fd5b5056fea26469706673582212201daf7ba47fd9682c9013e97232fbc7845fd3cc6e73dafd15109217533661655b64736f6c63430008000033",
  "linkReferences": {},
  "deployedLinkReferences": {}
}