{
  "_format": "hh-sol-artifact-1",
  "contractName": "UiIncentiveDataProviderV2V3",
  "sourceName": "contracts/misc/UiIncentiveDataProviderV2V3.sol",
  "abi": [
    {
      "inputs": [],
      "stateMutability": "nonpayable",
      "type": "constructor"
    },
    {
      "inputs": [],
      "name": "MKRAddress",
      "outputs": [
        {
          "internalType": "address",
          "name": "",
          "type": "address"
        }
      ],
      "stateMutability": "view",
      "type": "function"
    },
    {
      "inputs": [
        {
          "internalType": "bytes32",
          "name": "_bytes32",
          "type": "bytes32"
        }
      ],
      "name": "bytes32ToString",
      "outputs": [
        {
          "internalType": "string",
          "name": "",
          "type": "string"
        }
      ],
      "stateMutability": "pure",
      "type": "function"
    },
    {
      "inputs": [
        {
          "internalType": "contract ILendingPoolAddressesProvider",
          "name": "provider",
          "type": "address"
        },
        {
          "internalType": "uint64",
          "name": "trancheId",
          "type": "uint64"
        },
        {
          "internalType": "address",
          "name": "user",
          "type": "address"
        }
      ],
      "name": "getFullReservesIncentiveData",
      "outputs": [
        {
          "components": [
            {
              "internalType": "address",
              "name": "underlyingAsset",
              "type": "address"
            },
            {
              "components": [
                {
                  "internalType": "address",
                  "name": "tokenAddress",
                  "type": "address"
                },
                {
                  "internalType": "address",
                  "name": "incentiveControllerAddress",
                  "type": "address"
                },
                {
                  "components": [
                    {
                      "internalType": "string",
                      "name": "rewardTokenSymbol",
                      "type": "string"
                    },
                    {
                      "internalType": "address",
                      "name": "rewardTokenAddress",
                      "type": "address"
                    },
                    {
                      "internalType": "address",
                      "name": "rewardOracleAddress",
                      "type": "address"
                    },
                    {
                      "internalType": "uint256",
                      "name": "emissionPerSecond",
                      "type": "uint256"
                    },
                    {
                      "internalType": "uint256",
                      "name": "incentivesLastUpdateTimestamp",
                      "type": "uint256"
                    },
                    {
                      "internalType": "uint256",
                      "name": "tokenIncentivesIndex",
                      "type": "uint256"
                    },
                    {
                      "internalType": "uint256",
                      "name": "emissionEndTimestamp",
                      "type": "uint256"
                    },
                    {
                      "internalType": "int256",
                      "name": "rewardPriceFeed",
                      "type": "int256"
                    },
                    {
                      "internalType": "uint8",
                      "name": "rewardTokenDecimals",
                      "type": "uint8"
                    },
                    {
                      "internalType": "uint8",
                      "name": "precision",
                      "type": "uint8"
                    },
                    {
                      "internalType": "uint8",
                      "name": "priceFeedDecimals",
                      "type": "uint8"
                    }
                  ],
                  "internalType": "struct IUiIncentiveDataProviderV3.RewardInfo[]",
                  "name": "rewardsTokenInformation",
                  "type": "tuple[]"
                }
              ],
              "internalType": "struct IUiIncentiveDataProviderV3.IncentiveData",
              "name": "aIncentiveData",
              "type": "tuple"
            },
            {
              "components": [
                {
                  "internalType": "address",
                  "name": "tokenAddress",
                  "type": "address"
                },
                {
                  "internalType": "address",
                  "name": "incentiveControllerAddress",
                  "type": "address"
                },
                {
                  "components": [
                    {
                      "internalType": "string",
                      "name": "rewardTokenSymbol",
                      "type": "string"
                    },
                    {
                      "internalType": "address",
                      "name": "rewardTokenAddress",
                      "type": "address"
                    },
                    {
                      "internalType": "address",
                      "name": "rewardOracleAddress",
                      "type": "address"
                    },
                    {
                      "internalType": "uint256",
                      "name": "emissionPerSecond",
                      "type": "uint256"
                    },
                    {
                      "internalType": "uint256",
                      "name": "incentivesLastUpdateTimestamp",
                      "type": "uint256"
                    },
                    {
                      "internalType": "uint256",
                      "name": "tokenIncentivesIndex",
                      "type": "uint256"
                    },
                    {
                      "internalType": "uint256",
                      "name": "emissionEndTimestamp",
                      "type": "uint256"
                    },
                    {
                      "internalType": "int256",
                      "name": "rewardPriceFeed",
                      "type": "int256"
                    },
                    {
                      "internalType": "uint8",
                      "name": "rewardTokenDecimals",
                      "type": "uint8"
                    },
                    {
                      "internalType": "uint8",
                      "name": "precision",
                      "type": "uint8"
                    },
                    {
                      "internalType": "uint8",
                      "name": "priceFeedDecimals",
                      "type": "uint8"
                    }
                  ],
                  "internalType": "struct IUiIncentiveDataProviderV3.RewardInfo[]",
                  "name": "rewardsTokenInformation",
                  "type": "tuple[]"
                }
              ],
              "internalType": "struct IUiIncentiveDataProviderV3.IncentiveData",
              "name": "vIncentiveData",
              "type": "tuple"
            },
            {
              "components": [
                {
                  "internalType": "address",
                  "name": "tokenAddress",
                  "type": "address"
                },
                {
                  "internalType": "address",
                  "name": "incentiveControllerAddress",
                  "type": "address"
                },
                {
                  "components": [
                    {
                      "internalType": "string",
                      "name": "rewardTokenSymbol",
                      "type": "string"
                    },
                    {
                      "internalType": "address",
                      "name": "rewardTokenAddress",
                      "type": "address"
                    },
                    {
                      "internalType": "address",
                      "name": "rewardOracleAddress",
                      "type": "address"
                    },
                    {
                      "internalType": "uint256",
                      "name": "emissionPerSecond",
                      "type": "uint256"
                    },
                    {
                      "internalType": "uint256",
                      "name": "incentivesLastUpdateTimestamp",
                      "type": "uint256"
                    },
                    {
                      "internalType": "uint256",
                      "name": "tokenIncentivesIndex",
                      "type": "uint256"
                    },
                    {
                      "internalType": "uint256",
                      "name": "emissionEndTimestamp",
                      "type": "uint256"
                    },
                    {
                      "internalType": "int256",
                      "name": "rewardPriceFeed",
                      "type": "int256"
                    },
                    {
                      "internalType": "uint8",
                      "name": "rewardTokenDecimals",
                      "type": "uint8"
                    },
                    {
                      "internalType": "uint8",
                      "name": "precision",
                      "type": "uint8"
                    },
                    {
                      "internalType": "uint8",
                      "name": "priceFeedDecimals",
                      "type": "uint8"
                    }
                  ],
                  "internalType": "struct IUiIncentiveDataProviderV3.RewardInfo[]",
                  "name": "rewardsTokenInformation",
                  "type": "tuple[]"
                }
              ],
              "internalType": "struct IUiIncentiveDataProviderV3.IncentiveData",
              "name": "sIncentiveData",
              "type": "tuple"
            }
          ],
          "internalType": "struct IUiIncentiveDataProviderV3.AggregatedReserveIncentiveData[]",
          "name": "",
          "type": "tuple[]"
        },
        {
          "components": [
            {
              "internalType": "address",
              "name": "underlyingAsset",
              "type": "address"
            },
            {
              "components": [
                {
                  "internalType": "address",
                  "name": "tokenAddress",
                  "type": "address"
                },
                {
                  "internalType": "address",
                  "name": "incentiveControllerAddress",
                  "type": "address"
                },
                {
                  "components": [
                    {
                      "internalType": "string",
                      "name": "rewardTokenSymbol",
                      "type": "string"
                    },
                    {
                      "internalType": "address",
                      "name": "rewardOracleAddress",
                      "type": "address"
                    },
                    {
                      "internalType": "address",
                      "name": "rewardTokenAddress",
                      "type": "address"
                    },
                    {
                      "internalType": "uint256",
                      "name": "userUnclaimedRewards",
                      "type": "uint256"
                    },
                    {
                      "internalType": "uint256",
                      "name": "tokenIncentivesUserIndex",
                      "type": "uint256"
                    },
                    {
                      "internalType": "int256",
                      "name": "rewardPriceFeed",
                      "type": "int256"
                    },
                    {
                      "internalType": "uint8",
                      "name": "priceFeedDecimals",
                      "type": "uint8"
                    },
                    {
                      "internalType": "uint8",
                      "name": "rewardTokenDecimals",
                      "type": "uint8"
                    }
                  ],
                  "internalType": "struct IUiIncentiveDataProviderV3.UserRewardInfo[]",
                  "name": "userRewardsInformation",
                  "type": "tuple[]"
                }
              ],
              "internalType": "struct IUiIncentiveDataProviderV3.UserIncentiveData",
              "name": "aTokenIncentivesUserData",
              "type": "tuple"
            },
            {
              "components": [
                {
                  "internalType": "address",
                  "name": "tokenAddress",
                  "type": "address"
                },
                {
                  "internalType": "address",
                  "name": "incentiveControllerAddress",
                  "type": "address"
                },
                {
                  "components": [
                    {
                      "internalType": "string",
                      "name": "rewardTokenSymbol",
                      "type": "string"
                    },
                    {
                      "internalType": "address",
                      "name": "rewardOracleAddress",
                      "type": "address"
                    },
                    {
                      "internalType": "address",
                      "name": "rewardTokenAddress",
                      "type": "address"
                    },
                    {
                      "internalType": "uint256",
                      "name": "userUnclaimedRewards",
                      "type": "uint256"
                    },
                    {
                      "internalType": "uint256",
                      "name": "tokenIncentivesUserIndex",
                      "type": "uint256"
                    },
                    {
                      "internalType": "int256",
                      "name": "rewardPriceFeed",
                      "type": "int256"
                    },
                    {
                      "internalType": "uint8",
                      "name": "priceFeedDecimals",
                      "type": "uint8"
                    },
                    {
                      "internalType": "uint8",
                      "name": "rewardTokenDecimals",
                      "type": "uint8"
                    }
                  ],
                  "internalType": "struct IUiIncentiveDataProviderV3.UserRewardInfo[]",
                  "name": "userRewardsInformation",
                  "type": "tuple[]"
                }
              ],
              "internalType": "struct IUiIncentiveDataProviderV3.UserIncentiveData",
              "name": "vTokenIncentivesUserData",
              "type": "tuple"
            },
            {
              "components": [
                {
                  "internalType": "address",
                  "name": "tokenAddress",
                  "type": "address"
                },
                {
                  "internalType": "address",
                  "name": "incentiveControllerAddress",
                  "type": "address"
                },
                {
                  "components": [
                    {
                      "internalType": "string",
                      "name": "rewardTokenSymbol",
                      "type": "string"
                    },
                    {
                      "internalType": "address",
                      "name": "rewardOracleAddress",
                      "type": "address"
                    },
                    {
                      "internalType": "address",
                      "name": "rewardTokenAddress",
                      "type": "address"
                    },
                    {
                      "internalType": "uint256",
                      "name": "userUnclaimedRewards",
                      "type": "uint256"
                    },
                    {
                      "internalType": "uint256",
                      "name": "tokenIncentivesUserIndex",
                      "type": "uint256"
                    },
                    {
                      "internalType": "int256",
                      "name": "rewardPriceFeed",
                      "type": "int256"
                    },
                    {
                      "internalType": "uint8",
                      "name": "priceFeedDecimals",
                      "type": "uint8"
                    },
                    {
                      "internalType": "uint8",
                      "name": "rewardTokenDecimals",
                      "type": "uint8"
                    }
                  ],
                  "internalType": "struct IUiIncentiveDataProviderV3.UserRewardInfo[]",
                  "name": "userRewardsInformation",
                  "type": "tuple[]"
                }
              ],
              "internalType": "struct IUiIncentiveDataProviderV3.UserIncentiveData",
              "name": "sTokenIncentivesUserData",
              "type": "tuple"
            }
          ],
          "internalType": "struct IUiIncentiveDataProviderV3.UserReserveIncentiveData[]",
          "name": "",
          "type": "tuple[]"
        }
      ],
      "stateMutability": "view",
      "type": "function"
    },
    {
      "inputs": [
        {
          "internalType": "contract ILendingPoolAddressesProvider",
          "name": "provider",
          "type": "address"
        },
        {
          "internalType": "uint64",
          "name": "trancheId",
          "type": "uint64"
        }
      ],
      "name": "getReservesIncentivesData",
      "outputs": [
        {
          "components": [
            {
              "internalType": "address",
              "name": "underlyingAsset",
              "type": "address"
            },
            {
              "components": [
                {
                  "internalType": "address",
                  "name": "tokenAddress",
                  "type": "address"
                },
                {
                  "internalType": "address",
                  "name": "incentiveControllerAddress",
                  "type": "address"
                },
                {
                  "components": [
                    {
                      "internalType": "string",
                      "name": "rewardTokenSymbol",
                      "type": "string"
                    },
                    {
                      "internalType": "address",
                      "name": "rewardTokenAddress",
                      "type": "address"
                    },
                    {
                      "internalType": "address",
                      "name": "rewardOracleAddress",
                      "type": "address"
                    },
                    {
                      "internalType": "uint256",
                      "name": "emissionPerSecond",
                      "type": "uint256"
                    },
                    {
                      "internalType": "uint256",
                      "name": "incentivesLastUpdateTimestamp",
                      "type": "uint256"
                    },
                    {
                      "internalType": "uint256",
                      "name": "tokenIncentivesIndex",
                      "type": "uint256"
                    },
                    {
                      "internalType": "uint256",
                      "name": "emissionEndTimestamp",
                      "type": "uint256"
                    },
                    {
                      "internalType": "int256",
                      "name": "rewardPriceFeed",
                      "type": "int256"
                    },
                    {
                      "internalType": "uint8",
                      "name": "rewardTokenDecimals",
                      "type": "uint8"
                    },
                    {
                      "internalType": "uint8",
                      "name": "precision",
                      "type": "uint8"
                    },
                    {
                      "internalType": "uint8",
                      "name": "priceFeedDecimals",
                      "type": "uint8"
                    }
                  ],
                  "internalType": "struct IUiIncentiveDataProviderV3.RewardInfo[]",
                  "name": "rewardsTokenInformation",
                  "type": "tuple[]"
                }
              ],
              "internalType": "struct IUiIncentiveDataProviderV3.IncentiveData",
              "name": "aIncentiveData",
              "type": "tuple"
            },
            {
              "components": [
                {
                  "internalType": "address",
                  "name": "tokenAddress",
                  "type": "address"
                },
                {
                  "internalType": "address",
                  "name": "incentiveControllerAddress",
                  "type": "address"
                },
                {
                  "components": [
                    {
                      "internalType": "string",
                      "name": "rewardTokenSymbol",
                      "type": "string"
                    },
                    {
                      "internalType": "address",
                      "name": "rewardTokenAddress",
                      "type": "address"
                    },
                    {
                      "internalType": "address",
                      "name": "rewardOracleAddress",
                      "type": "address"
                    },
                    {
                      "internalType": "uint256",
                      "name": "emissionPerSecond",
                      "type": "uint256"
                    },
                    {
                      "internalType": "uint256",
                      "name": "incentivesLastUpdateTimestamp",
                      "type": "uint256"
                    },
                    {
                      "internalType": "uint256",
                      "name": "tokenIncentivesIndex",
                      "type": "uint256"
                    },
                    {
                      "internalType": "uint256",
                      "name": "emissionEndTimestamp",
                      "type": "uint256"
                    },
                    {
                      "internalType": "int256",
                      "name": "rewardPriceFeed",
                      "type": "int256"
                    },
                    {
                      "internalType": "uint8",
                      "name": "rewardTokenDecimals",
                      "type": "uint8"
                    },
                    {
                      "internalType": "uint8",
                      "name": "precision",
                      "type": "uint8"
                    },
                    {
                      "internalType": "uint8",
                      "name": "priceFeedDecimals",
                      "type": "uint8"
                    }
                  ],
                  "internalType": "struct IUiIncentiveDataProviderV3.RewardInfo[]",
                  "name": "rewardsTokenInformation",
                  "type": "tuple[]"
                }
              ],
              "internalType": "struct IUiIncentiveDataProviderV3.IncentiveData",
              "name": "vIncentiveData",
              "type": "tuple"
            },
            {
              "components": [
                {
                  "internalType": "address",
                  "name": "tokenAddress",
                  "type": "address"
                },
                {
                  "internalType": "address",
                  "name": "incentiveControllerAddress",
                  "type": "address"
                },
                {
                  "components": [
                    {
                      "internalType": "string",
                      "name": "rewardTokenSymbol",
                      "type": "string"
                    },
                    {
                      "internalType": "address",
                      "name": "rewardTokenAddress",
                      "type": "address"
                    },
                    {
                      "internalType": "address",
                      "name": "rewardOracleAddress",
                      "type": "address"
                    },
                    {
                      "internalType": "uint256",
                      "name": "emissionPerSecond",
                      "type": "uint256"
                    },
                    {
                      "internalType": "uint256",
                      "name": "incentivesLastUpdateTimestamp",
                      "type": "uint256"
                    },
                    {
                      "internalType": "uint256",
                      "name": "tokenIncentivesIndex",
                      "type": "uint256"
                    },
                    {
                      "internalType": "uint256",
                      "name": "emissionEndTimestamp",
                      "type": "uint256"
                    },
                    {
                      "internalType": "int256",
                      "name": "rewardPriceFeed",
                      "type": "int256"
                    },
                    {
                      "internalType": "uint8",
                      "name": "rewardTokenDecimals",
                      "type": "uint8"
                    },
                    {
                      "internalType": "uint8",
                      "name": "precision",
                      "type": "uint8"
                    },
                    {
                      "internalType": "uint8",
                      "name": "priceFeedDecimals",
                      "type": "uint8"
                    }
                  ],
                  "internalType": "struct IUiIncentiveDataProviderV3.RewardInfo[]",
                  "name": "rewardsTokenInformation",
                  "type": "tuple[]"
                }
              ],
              "internalType": "struct IUiIncentiveDataProviderV3.IncentiveData",
              "name": "sIncentiveData",
              "type": "tuple"
            }
          ],
          "internalType": "struct IUiIncentiveDataProviderV3.AggregatedReserveIncentiveData[]",
          "name": "",
          "type": "tuple[]"
        }
      ],
      "stateMutability": "view",
      "type": "function"
    },
    {
      "inputs": [
        {
          "internalType": "address",
          "name": "rewardToken",
          "type": "address"
        }
      ],
      "name": "getSymbol",
      "outputs": [
        {
          "internalType": "string",
          "name": "",
          "type": "string"
        }
      ],
      "stateMutability": "view",
      "type": "function"
    },
    {
      "inputs": [
        {
          "internalType": "contract ILendingPoolAddressesProvider",
          "name": "provider",
          "type": "address"
        },
        {
          "internalType": "uint64",
          "name": "trancheId",
          "type": "uint64"
        },
        {
          "internalType": "address",
          "name": "user",
          "type": "address"
        }
      ],
      "name": "getUserReservesIncentivesData",
      "outputs": [
        {
          "components": [
            {
              "internalType": "address",
              "name": "underlyingAsset",
              "type": "address"
            },
            {
              "components": [
                {
                  "internalType": "address",
                  "name": "tokenAddress",
                  "type": "address"
                },
                {
                  "internalType": "address",
                  "name": "incentiveControllerAddress",
                  "type": "address"
                },
                {
                  "components": [
                    {
                      "internalType": "string",
                      "name": "rewardTokenSymbol",
                      "type": "string"
                    },
                    {
                      "internalType": "address",
                      "name": "rewardOracleAddress",
                      "type": "address"
                    },
                    {
                      "internalType": "address",
                      "name": "rewardTokenAddress",
                      "type": "address"
                    },
                    {
                      "internalType": "uint256",
                      "name": "userUnclaimedRewards",
                      "type": "uint256"
                    },
                    {
                      "internalType": "uint256",
                      "name": "tokenIncentivesUserIndex",
                      "type": "uint256"
                    },
                    {
                      "internalType": "int256",
                      "name": "rewardPriceFeed",
                      "type": "int256"
                    },
                    {
                      "internalType": "uint8",
                      "name": "priceFeedDecimals",
                      "type": "uint8"
                    },
                    {
                      "internalType": "uint8",
                      "name": "rewardTokenDecimals",
                      "type": "uint8"
                    }
                  ],
                  "internalType": "struct IUiIncentiveDataProviderV3.UserRewardInfo[]",
                  "name": "userRewardsInformation",
                  "type": "tuple[]"
                }
              ],
              "internalType": "struct IUiIncentiveDataProviderV3.UserIncentiveData",
              "name": "aTokenIncentivesUserData",
              "type": "tuple"
            },
            {
              "components": [
                {
                  "internalType": "address",
                  "name": "tokenAddress",
                  "type": "address"
                },
                {
                  "internalType": "address",
                  "name": "incentiveControllerAddress",
                  "type": "address"
                },
                {
                  "components": [
                    {
                      "internalType": "string",
                      "name": "rewardTokenSymbol",
                      "type": "string"
                    },
                    {
                      "internalType": "address",
                      "name": "rewardOracleAddress",
                      "type": "address"
                    },
                    {
                      "internalType": "address",
                      "name": "rewardTokenAddress",
                      "type": "address"
                    },
                    {
                      "internalType": "uint256",
                      "name": "userUnclaimedRewards",
                      "type": "uint256"
                    },
                    {
                      "internalType": "uint256",
                      "name": "tokenIncentivesUserIndex",
                      "type": "uint256"
                    },
                    {
                      "internalType": "int256",
                      "name": "rewardPriceFeed",
                      "type": "int256"
                    },
                    {
                      "internalType": "uint8",
                      "name": "priceFeedDecimals",
                      "type": "uint8"
                    },
                    {
                      "internalType": "uint8",
                      "name": "rewardTokenDecimals",
                      "type": "uint8"
                    }
                  ],
                  "internalType": "struct IUiIncentiveDataProviderV3.UserRewardInfo[]",
                  "name": "userRewardsInformation",
                  "type": "tuple[]"
                }
              ],
              "internalType": "struct IUiIncentiveDataProviderV3.UserIncentiveData",
              "name": "vTokenIncentivesUserData",
              "type": "tuple"
            },
            {
              "components": [
                {
                  "internalType": "address",
                  "name": "tokenAddress",
                  "type": "address"
                },
                {
                  "internalType": "address",
                  "name": "incentiveControllerAddress",
                  "type": "address"
                },
                {
                  "components": [
                    {
                      "internalType": "string",
                      "name": "rewardTokenSymbol",
                      "type": "string"
                    },
                    {
                      "internalType": "address",
                      "name": "rewardOracleAddress",
                      "type": "address"
                    },
                    {
                      "internalType": "address",
                      "name": "rewardTokenAddress",
                      "type": "address"
                    },
                    {
                      "internalType": "uint256",
                      "name": "userUnclaimedRewards",
                      "type": "uint256"
                    },
                    {
                      "internalType": "uint256",
                      "name": "tokenIncentivesUserIndex",
                      "type": "uint256"
                    },
                    {
                      "internalType": "int256",
                      "name": "rewardPriceFeed",
                      "type": "int256"
                    },
                    {
                      "internalType": "uint8",
                      "name": "priceFeedDecimals",
                      "type": "uint8"
                    },
                    {
                      "internalType": "uint8",
                      "name": "rewardTokenDecimals",
                      "type": "uint8"
                    }
                  ],
                  "internalType": "struct IUiIncentiveDataProviderV3.UserRewardInfo[]",
                  "name": "userRewardsInformation",
                  "type": "tuple[]"
                }
              ],
              "internalType": "struct IUiIncentiveDataProviderV3.UserIncentiveData",
              "name": "sTokenIncentivesUserData",
              "type": "tuple"
            }
          ],
          "internalType": "struct IUiIncentiveDataProviderV3.UserReserveIncentiveData[]",
          "name": "",
          "type": "tuple[]"
        }
      ],
      "stateMutability": "view",
      "type": "function"
    }
  ],
  "bytecode": "0x608060405234801561001057600080fd5b5061358c806100206000396000f3fe608060405234801561001057600080fd5b50600436106100625760003560e01c80631bb0b0cf146100675780636c317376146100905780639201de55146100b05780639dd9e2ce146100d0578063c8db54af146100e5578063c9b2e52214610106575b600080fd5b61007a610075366004612d63565b610119565b604051610087919061342f565b60405180910390f35b6100a361009e366004612d2b565b61012e565b60405161008791906133ee565b6100c36100be366004612cfb565b610141565b6040516100879190613442565b6100d86102bf565b604051610087919061339e565b6100f86100f3366004612d63565b6102d7565b604051610087929190613401565b6100c3610114366004612c11565b6102fb565b6060610126848484610424565b949350505050565b606061013a838361123f565b9392505050565b606060005b60208160ff161080156101885750828160ff166020811061017757634e487b7160e01b600052603260045260246000fd5b1a60f81b6001600160f81b03191615155b1561019f5780610197816134dd565b915050610146565b60008160ff166001600160401b038111156101ca57634e487b7160e01b600052604160045260246000fd5b6040519080825280601f01601f1916602001820160405280156101f4576020820181803683370190505b509050600091505b60208260ff1610801561023e5750838260ff166020811061022d57634e487b7160e01b600052603260045260246000fd5b1a60f81b6001600160f81b03191615155b156102b657838260ff166020811061026657634e487b7160e01b600052603260045260246000fd5b1a60f81b818360ff168151811061028d57634e487b7160e01b600052603260045260246000fd5b60200101906001600160f81b031916908160001a905350816102ae816134dd565b9250506101fc565b9150505b919050565b739f8f72aa9304c8b593d555f12ef6589cc3a579a281565b6060806102e4858561123f565b6102ef868686610424565b91509150935093915050565b60606001600160a01b038216739f8f72aa9304c8b593d555f12ef6589cc3a579a214156103a8576000826001600160a01b03166395d89b416040518163ffffffff1660e01b815260040160206040518083038186803b15801561035d57600080fd5b505afa158015610371573d6000803e3d6000fd5b505050506040513d601f19601f820116820180604052508101906103959190612d13565b90506103a081610141565b9150506102ba565b816001600160a01b03166395d89b416040518163ffffffff1660e01b815260040160006040518083038186803b1580156103e157600080fd5b505afa1580156103f5573d6000803e3d6000fd5b505050506040513d6000823e601f3d908101601f1916820160405261041d9190810190612dad565b90506102ba565b60606000846001600160a01b0316630261bf8b6040518163ffffffff1660e01b815260040160206040518083038186803b15801561046157600080fd5b505afa158015610475573d6000803e3d6000fd5b505050506040513d601f19601f820116820180604052508101906104999190612c2d565b90506000816001600160a01b03166313f9cf37866040518263ffffffff1660e01b81526004016104c99190613455565b60006040518083038186803b1580156104e157600080fd5b505afa1580156104f5573d6000803e3d6000fd5b505050506040513d6000823e601f3d908101601f1916820160405261051d9190810190612c49565b905060006001600160a01b038516610536576000610539565b81515b6001600160401b0381111561055e57634e487b7160e01b600052604160045260246000fd5b60405190808252806020026020018201604052801561059757816020015b610584612a3b565b81526020019060019003908161057c5790505b50905060005b8251811015611234576000846001600160a01b0316637ba497fe8584815181106105d757634e487b7160e01b600052603260045260246000fd5b60200260200101518a6040518363ffffffff1660e01b81526004016105fd9291906133cc565b6102206040518083038186803b15801561061657600080fd5b505afa15801561062a573d6000803e3d6000fd5b505050506040513d601f19601f8201168201806040525081019061064e9190612e3c565b9050876001600160401b03168161018001516001600160401b03161461068457634e487b7160e01b600052600160045260246000fd5b8382815181106106a457634e487b7160e01b600052603260045260246000fd5b60200260200101518383815181106106cc57634e487b7160e01b600052603260045260246000fd5b6020026020010151600001906001600160a01b031690816001600160a01b0316815250508060e001516001600160a01b03166375d264136040518163ffffffff1660e01b815260040160206040518083038186803b15801561072d57600080fd5b505afa92505050801561075d575060408051601f3d908101601f1916820190925261075a91810190612c2d565b60015b610797573d80801561078b576040519150601f19603f3d011682016040523d82523d6000602084013e610790565b606091505b5050610aa9565b6001600160a01b03811615610aa757604080516001808252818301909252600091816020015b6107c5612a7d565b8152602001906001900390816107bd5790505090506000826001600160a01b03166399248ea76040518163ffffffff1660e01b815260040160206040518083038186803b15801561081557600080fd5b505afa158015610829573d6000803e3d6000fd5b505050506040513d601f19601f8201168201806040525081019061084d9190612c2d565b9050604051806101000160405280610864836102fb565b815260200160006001600160a01b03168152602001826001600160a01b03168152602001846001600160a01b031663198fa81e8d6040518263ffffffff1660e01b81526004016108b4919061339e565b60206040518083038186803b1580156108cc57600080fd5b505afa1580156108e0573d6000803e3d6000fd5b505050506040513d601f19601f820116820180604052508101906109049190612d13565b8152602001846001600160a01b0316633373ee4c8d8860e001516040518363ffffffff1660e01b815260040161093b9291906133b2565b60206040518083038186803b15801561095357600080fd5b505afa158015610967573d6000803e3d6000fd5b505050506040513d601f19601f8201168201806040525081019061098b9190612d13565b815260200160008152602001600060ff168152602001826001600160a01b031663313ce5676040518163ffffffff1660e01b815260040160206040518083038186803b1580156109da57600080fd5b505afa1580156109ee573d6000803e3d6000fd5b505050506040513d601f19601f82011682018060405250810190610a129190612fe2565b60ff1681525082600081518110610a3957634e487b7160e01b600052603260045260246000fd5b602002602001018190525060405180606001604052808560e001516001600160a01b03168152602001846001600160a01b0316815260200183815250868681518110610a9557634e487b7160e01b600052603260045260246000fd5b60200260200101516020018190525050505b505b8061012001516001600160a01b03166375d264136040518163ffffffff1660e01b815260040160206040518083038186803b158015610ae757600080fd5b505afa925050508015610b17575060408051601f3d908101601f19168201909252610b1491810190612c2d565b60015b610b51573d808015610b45576040519150601f19603f3d011682016040523d82523d6000602084013e610b4a565b606091505b5050610e65565b6001600160a01b03811615610e6357604080516001808252818301909252600091816020015b610b7f612a7d565b815260200190600190039081610b775790505090506000826001600160a01b03166399248ea76040518163ffffffff1660e01b815260040160206040518083038186803b158015610bcf57600080fd5b505afa158015610be3573d6000803e3d6000fd5b505050506040513d601f19601f82011682018060405250810190610c079190612c2d565b9050604051806101000160405280610c1e836102fb565b815260200160006001600160a01b03168152602001826001600160a01b03168152602001846001600160a01b031663198fa81e8d6040518263ffffffff1660e01b8152600401610c6e919061339e565b60206040518083038186803b158015610c8657600080fd5b505afa158015610c9a573d6000803e3d6000fd5b505050506040513d601f19601f82011682018060405250810190610cbe9190612d13565b8152602001846001600160a01b0316633373ee4c8d8861012001516040518363ffffffff1660e01b8152600401610cf69291906133b2565b60206040518083038186803b158015610d0e57600080fd5b505afa158015610d22573d6000803e3d6000fd5b505050506040513d601f19601f82011682018060405250810190610d469190612d13565b815260200160008152602001600060ff168152602001826001600160a01b031663313ce5676040518163ffffffff1660e01b815260040160206040518083038186803b158015610d9557600080fd5b505afa158015610da9573d6000803e3d6000fd5b505050506040513d601f19601f82011682018060405250810190610dcd9190612fe2565b60ff1681525082600081518110610df457634e487b7160e01b600052603260045260246000fd5b602002602001018190525060405180606001604052808561012001516001600160a01b03168152602001846001600160a01b0316815260200183815250868681518110610e5157634e487b7160e01b600052603260045260246000fd5b60200260200101516040018190525050505b505b8061010001516001600160a01b03166375d264136040518163ffffffff1660e01b815260040160206040518083038186803b158015610ea357600080fd5b505afa925050508015610ed3575060408051601f3d908101601f19168201909252610ed091810190612c2d565b60015b610f0d573d808015610f01576040519150601f19603f3d011682016040523d82523d6000602084013e610f06565b606091505b5050611221565b6001600160a01b0381161561121f57604080516001808252818301909252600091816020015b610f3b612a7d565b815260200190600190039081610f335790505090506000826001600160a01b03166399248ea76040518163ffffffff1660e01b815260040160206040518083038186803b158015610f8b57600080fd5b505afa158015610f9f573d6000803e3d6000fd5b505050506040513d601f19601f82011682018060405250810190610fc39190612c2d565b9050604051806101000160405280610fda836102fb565b815260200160006001600160a01b03168152602001826001600160a01b03168152602001846001600160a01b031663198fa81e8d6040518263ffffffff1660e01b815260040161102a919061339e565b60206040518083038186803b15801561104257600080fd5b505afa158015611056573d6000803e3d6000fd5b505050506040513d601f19601f8201168201806040525081019061107a9190612d13565b8152602001846001600160a01b0316633373ee4c8d8861010001516040518363ffffffff1660e01b81526004016110b29291906133b2565b60206040518083038186803b1580156110ca57600080fd5b505afa1580156110de573d6000803e3d6000fd5b505050506040513d601f19601f820116820180604052508101906111029190612d13565b815260200160008152602001600060ff168152602001826001600160a01b031663313ce5676040518163ffffffff1660e01b815260040160206040518083038186803b15801561115157600080fd5b505afa158015611165573d6000803e3d6000fd5b505050506040513d601f19601f820116820180604052508101906111899190612fe2565b60ff16815250826000815181106111b057634e487b7160e01b600052603260045260246000fd5b602002602001018190525060405180606001604052808561010001516001600160a01b03168152602001846001600160a01b031681526020018381525086868151811061120d57634e487b7160e01b600052603260045260246000fd5b60200260200101516060018190525050505b505b508061122c816134c2565b91505061059d565b509695505050505050565b60606000836001600160a01b0316630261bf8b6040518163ffffffff1660e01b815260040160206040518083038186803b15801561127c57600080fd5b505afa158015611290573d6000803e3d6000fd5b505050506040513d601f19601f820116820180604052508101906112b49190612c2d565b90506000816001600160a01b03166313f9cf37856040518263ffffffff1660e01b81526004016112e49190613455565b60006040518083038186803b1580156112fc57600080fd5b505afa158015611310573d6000803e3d6000fd5b505050506040513d6000823e601f3d908101601f191682016040526113389190810190612c49565b9050600081516001600160401b0381111561136357634e487b7160e01b600052604160045260246000fd5b60405190808252806020026020018201604052801561139c57816020015b611389612a3b565b8152602001906001900390816113815790505b50905060005b8251811015612a315760008282815181106113cd57634e487b7160e01b600052603260045260246000fd5b602002602001015190508382815181106113f757634e487b7160e01b600052603260045260246000fd5b602002602001015181600001906001600160a01b031690816001600160a01b0316815250506000856001600160a01b0316637ba497fe86858151811061144d57634e487b7160e01b600052603260045260246000fd5b60200260200101518a6040518363ffffffff1660e01b81526004016114739291906133cc565b6102206040518083038186803b15801561148c57600080fd5b505afa1580156114a0573d6000803e3d6000fd5b505050506040513d601f19601f820116820180604052508101906114c49190612e3c565b9050876001600160401b03168161018001516001600160401b0316146114fa57634e487b7160e01b600052600160045260246000fd5b8060e001516001600160a01b03166375d264136040518163ffffffff1660e01b815260040160206040518083038186803b15801561153757600080fd5b505afa925050508015611567575060408051601f3d908101601f1916820190925261156491810190612c2d565b60015b6115a1573d808015611595576040519150601f19603f3d011682016040523d82523d6000602084013e61159a565b606091505b5050611c02565b604080516001808252818301909252600091816020015b6115c0612ada565b8152602001906001900390816115b85790505090506001600160a01b03821615611bff576000826001600160a01b03166399248ea76040518163ffffffff1660e01b815260040160206040518083038186803b15801561161f57600080fd5b505afa158015611633573d6000803e3d6000fd5b505050506040513d601f19601f820116820180604052508101906116579190612c2d565b60e0850151604051631652e7b760e01b81529192506001600160a01b03851691631652e7b7916116899160040161339e565b60606040518083038186803b1580156116a157600080fd5b505afa9250505080156116d1575060408051601f3d908101601f191682019092526116ce91810190612fb5565b60015b6119d2573d8080156116ff576040519150601f19603f3d011682016040523d82523d6000602084013e611704565b606091505b506000806000866001600160a01b031663f11b81888960e001516040518263ffffffff1660e01b815260040161173a919061339e565b60606040518083038186803b15801561175257600080fd5b505afa158015611766573d6000803e3d6000fd5b505050506040513d601f19601f8201168201806040525081019061178a9190612f7a565b92506001600160801b031692506001600160801b031692506040518061016001604052806117b7876102fb565b8152602001866001600160a01b0316815260200160006001600160a01b03168152602001848152602001838152602001828152602001886001600160a01b031663919cd40f6040518163ffffffff1660e01b815260040160206040518083038186803b15801561182657600080fd5b505afa15801561183a573d6000803e3d6000fd5b505050506040513d601f19601f8201168201806040525081019061185e9190612d13565b815260200160008152602001866001600160a01b031663313ce5676040518163ffffffff1660e01b815260040160206040518083038186803b1580156118a357600080fd5b505afa1580156118b7573d6000803e3d6000fd5b505050506040513d601f19601f820116820180604052508101906118db9190612fe2565b60ff168152602001886001600160a01b031663aaf5eb686040518163ffffffff1660e01b815260040160206040518083038186803b15801561191c57600080fd5b505afa158015611930573d6000803e3d6000fd5b505050506040513d601f19601f820116820180604052508101906119549190612fe2565b60ff168152602001600060ff168152508660008151811061198557634e487b7160e01b600052603260045260246000fd5b602002602001018190525060405180606001604052808960e001516001600160a01b03168152602001886001600160a01b0316815260200187815250896020018190525050505050611bfd565b6040518061016001604052806119e7866102fb565b8152602001856001600160a01b0316815260200160006001600160a01b03168152602001838152602001828152602001848152602001876001600160a01b031663919cd40f6040518163ffffffff1660e01b815260040160206040518083038186803b158015611a5657600080fd5b505afa158015611a6a573d6000803e3d6000fd5b505050506040513d601f19601f82011682018060405250810190611a8e9190612d13565b815260200160008152602001856001600160a01b031663313ce5676040518163ffffffff1660e01b815260040160206040518083038186803b158015611ad357600080fd5b505afa158015611ae7573d6000803e3d6000fd5b505050506040513d601f19601f82011682018060405250810190611b0b9190612fe2565b60ff168152602001876001600160a01b031663aaf5eb686040518163ffffffff1660e01b815260040160206040518083038186803b158015611b4c57600080fd5b505afa158015611b60573d6000803e3d6000fd5b505050506040513d601f19601f82011682018060405250810190611b849190612fe2565b60ff168152602001600060ff1681525085600081518110611bb557634e487b7160e01b600052603260045260246000fd5b602002602001018190525060405180606001604052808860e001516001600160a01b03168152602001876001600160a01b031681526020018681525088602001819052505050505b505b50505b8061010001516001600160a01b03166375d264136040518163ffffffff1660e01b815260040160206040518083038186803b158015611c4057600080fd5b505afa925050508015611c70575060408051601f3d908101601f19168201909252611c6d91810190612c2d565b60015b611caa573d808015611c9e576040519150601f19603f3d011682016040523d82523d6000602084013e611ca3565b606091505b505061230f565b604080516001808252818301909252600091816020015b611cc9612ada565b815260200190600190039081611cc15790505090506001600160a01b0382161561230c576000826001600160a01b03166399248ea76040518163ffffffff1660e01b815260040160206040518083038186803b158015611d2857600080fd5b505afa158015611d3c573d6000803e3d6000fd5b505050506040513d601f19601f82011682018060405250810190611d609190612c2d565b610100850151604051631652e7b760e01b81529192506001600160a01b03851691631652e7b791611d939160040161339e565b60606040518083038186803b158015611dab57600080fd5b505afa925050508015611ddb575060408051601f3d908101601f19168201909252611dd891810190612fb5565b60015b6120de573d808015611e09576040519150601f19603f3d011682016040523d82523d6000602084013e611e0e565b606091505b506000806000866001600160a01b031663f11b81888961010001516040518263ffffffff1660e01b8152600401611e45919061339e565b60606040518083038186803b158015611e5d57600080fd5b505afa158015611e71573d6000803e3d6000fd5b505050506040513d601f19601f82011682018060405250810190611e959190612f7a565b92506001600160801b031692506001600160801b03169250604051806101600160405280611ec2876102fb565b8152602001866001600160a01b0316815260200160006001600160a01b03168152602001848152602001838152602001828152602001886001600160a01b031663919cd40f6040518163ffffffff1660e01b815260040160206040518083038186803b158015611f3157600080fd5b505afa158015611f45573d6000803e3d6000fd5b505050506040513d601f19601f82011682018060405250810190611f699190612d13565b815260200160008152602001866001600160a01b031663313ce5676040518163ffffffff1660e01b815260040160206040518083038186803b158015611fae57600080fd5b505afa158015611fc2573d6000803e3d6000fd5b505050506040513d601f19601f82011682018060405250810190611fe69190612fe2565b60ff168152602001886001600160a01b031663aaf5eb686040518163ffffffff1660e01b815260040160206040518083038186803b15801561202757600080fd5b505afa15801561203b573d6000803e3d6000fd5b505050506040513d601f19601f8201168201806040525081019061205f9190612fe2565b60ff168152602001600060ff168152508660008151811061209057634e487b7160e01b600052603260045260246000fd5b602002602001018190525060405180606001604052808961010001516001600160a01b03168152602001886001600160a01b031681526020018781525089606001819052505050505061230a565b6040518061016001604052806120f3866102fb565b8152602001856001600160a01b0316815260200160006001600160a01b03168152602001838152602001828152602001848152602001876001600160a01b031663919cd40f6040518163ffffffff1660e01b815260040160206040518083038186803b15801561216257600080fd5b505afa158015612176573d6000803e3d6000fd5b505050506040513d601f19601f8201168201806040525081019061219a9190612d13565b815260200160008152602001856001600160a01b031663313ce5676040518163ffffffff1660e01b815260040160206040518083038186803b1580156121df57600080fd5b505afa1580156121f3573d6000803e3d6000fd5b505050506040513d601f19601f820116820180604052508101906122179190612fe2565b60ff168152602001876001600160a01b031663aaf5eb686040518163ffffffff1660e01b815260040160206040518083038186803b15801561225857600080fd5b505afa15801561226c573d6000803e3d6000fd5b505050506040513d601f19601f820116820180604052508101906122909190612fe2565b60ff168152602001600060ff16815250856000815181106122c157634e487b7160e01b600052603260045260246000fd5b602002602001018190525060405180606001604052808861010001516001600160a01b03168152602001876001600160a01b031681526020018681525088606001819052505050505b505b50505b8061012001516001600160a01b03166375d264136040518163ffffffff1660e01b815260040160206040518083038186803b15801561234d57600080fd5b505afa92505050801561237d575060408051601f3d908101601f1916820190925261237a91810190612c2d565b60015b6123b7573d8080156123ab576040519150601f19603f3d011682016040523d82523d6000602084013e6123b0565b606091505b5050612a1c565b604080516001808252818301909252600091816020015b6123d6612ada565b8152602001906001900390816123ce5790505090506001600160a01b03821615612a19576000826001600160a01b03166399248ea76040518163ffffffff1660e01b815260040160206040518083038186803b15801561243557600080fd5b505afa158015612449573d6000803e3d6000fd5b505050506040513d601f19601f8201168201806040525081019061246d9190612c2d565b610120850151604051631652e7b760e01b81529192506001600160a01b03851691631652e7b7916124a09160040161339e565b60606040518083038186803b1580156124b857600080fd5b505afa9250505080156124e8575060408051601f3d908101601f191682019092526124e591810190612fb5565b60015b6127eb573d808015612516576040519150601f19603f3d011682016040523d82523d6000602084013e61251b565b606091505b506000806000866001600160a01b031663f11b81888961012001516040518263ffffffff1660e01b8152600401612552919061339e565b60606040518083038186803b15801561256a57600080fd5b505afa15801561257e573d6000803e3d6000fd5b505050506040513d601f19601f820116820180604052508101906125a29190612f7a565b92506001600160801b031692506001600160801b031692506040518061016001604052806125cf876102fb565b8152602001866001600160a01b0316815260200160006001600160a01b03168152602001848152602001838152602001828152602001886001600160a01b031663919cd40f6040518163ffffffff1660e01b815260040160206040518083038186803b15801561263e57600080fd5b505afa158015612652573d6000803e3d6000fd5b505050506040513d601f19601f820116820180604052508101906126769190612d13565b815260200160008152602001866001600160a01b031663313ce5676040518163ffffffff1660e01b815260040160206040518083038186803b1580156126bb57600080fd5b505afa1580156126cf573d6000803e3d6000fd5b505050506040513d601f19601f820116820180604052508101906126f39190612fe2565b60ff168152602001886001600160a01b031663aaf5eb686040518163ffffffff1660e01b815260040160206040518083038186803b15801561273457600080fd5b505afa158015612748573d6000803e3d6000fd5b505050506040513d601f19601f8201168201806040525081019061276c9190612fe2565b60ff168152602001600060ff168152508660008151811061279d57634e487b7160e01b600052603260045260246000fd5b602002602001018190525060405180606001604052808961012001516001600160a01b03168152602001886001600160a01b0316815260200187815250896040018190525050505050612a17565b604051806101600160405280612800866102fb565b8152602001856001600160a01b0316815260200160006001600160a01b03168152602001838152602001828152602001848152602001876001600160a01b031663919cd40f6040518163ffffffff1660e01b815260040160206040518083038186803b15801561286f57600080fd5b505afa158015612883573d6000803e3d6000fd5b505050506040513d601f19601f820116820180604052508101906128a79190612d13565b815260200160008152602001856001600160a01b031663313ce5676040518163ffffffff1660e01b815260040160206040518083038186803b1580156128ec57600080fd5b505afa158015612900573d6000803e3d6000fd5b505050506040513d601f19601f820116820180604052508101906129249190612fe2565b60ff168152602001876001600160a01b031663aaf5eb686040518163ffffffff1660e01b815260040160206040518083038186803b15801561296557600080fd5b505afa158015612979573d6000803e3d6000fd5b505050506040513d601f19601f8201168201806040525081019061299d9190612fe2565b60ff168152602001600060ff16815250856000815181106129ce57634e487b7160e01b600052603260045260246000fd5b602002602001018190525060405180606001604052808861012001516001600160a01b03168152602001876001600160a01b031681526020018681525088604001819052505050505b505b50505b50508080612a29906134c2565b9150506113a2565b5095945050505050565b604051806080016040528060006001600160a01b03168152602001612a5e612b4f565b8152602001612a6b612b4f565b8152602001612a78612b4f565b905290565b6040518061010001604052806060815260200160006001600160a01b0316815260200160006001600160a01b03168152602001600081526020016000815260200160008152602001600060ff168152602001600060ff1681525090565b6040518061016001604052806060815260200160006001600160a01b0316815260200160006001600160a01b031681526020016000815260200160008152602001600081526020016000815260200160008152602001600060ff168152602001600060ff168152602001600060ff1681525090565b6040805160608082018352600080835260208301529181019190915290565b80516102ba81613529565b805180151581146102ba57600080fd5b600060208284031215612b9a578081fd5b604051602081018181106001600160401b0382111715612bbc57612bbc613513565b6040529151825250919050565b80516001600160801b03811681146102ba57600080fd5b805164ffffffffff811681146102ba57600080fd5b80516102ba81613541565b805160ff811681146102ba57600080fd5b600060208284031215612c22578081fd5b813561013a81613529565b600060208284031215612c3e578081fd5b815161013a81613529565b60006020808385031215612c5b578182fd5b82516001600160401b0380821115612c71578384fd5b818501915085601f830112612c84578384fd5b815181811115612c9657612c96613513565b8381029150612ca6848301613469565b8181528481019084860184860187018a1015612cc0578788fd5b8795505b83861015612cee5780519450612cd985613529565b84835260019590950194918601918601612cc4565b5098975050505050505050565b600060208284031215612d0c578081fd5b5035919050565b600060208284031215612d24578081fd5b5051919050565b60008060408385031215612d3d578081fd5b8235612d4881613529565b91506020830135612d5881613541565b809150509250929050565b600080600060608486031215612d77578081fd5b8335612d8281613529565b92506020840135612d9281613541565b91506040840135612da281613529565b809150509250925092565b600060208284031215612dbe578081fd5b81516001600160401b0380821115612dd4578283fd5b818401915084601f830112612de7578283fd5b815181811115612df957612df9613513565b612e0c601f8201601f1916602001613469565b9150808252856020828501011115612e22578384fd5b612e33816020840160208601613492565b50949350505050565b6000610220808385031215612e4f578182fd5b612e5881613469565b9050612e648484612b89565b8152612e7260208401612bc9565b6020820152612e8360408401612bc9565b6040820152612e9460608401612bc9565b6060820152612ea560808401612bc9565b6080820152612eb660a08401612bc9565b60a0820152612ec760c08401612be0565b60c0820152612ed860e08401612b6e565b60e0820152610100612eeb818501612b6e565b90820152610120612efd848201612b6e565b90820152610140612f0f848201612b6e565b90820152610160612f21848201612c00565b90820152610180612f33848201612bf5565b908201526101a083810151908201526101c0612f50818501612b79565b908201526101e0612f62848201612b79565b90820152610200928301519281019290925250919050565b600080600060608486031215612f8e578081fd5b612f9784612bc9565b9250612fa560208501612bc9565b9150604084015190509250925092565b600080600060608486031215612fc9578081fd5b8351925060208401519150604084015190509250925092565b600060208284031215612ff3578081fd5b61013a82612c00565b6001600160a01b03169052565b6000815180845260208085018081965082840281019150828601855b858110156130a6578284038952815180516001600160a01b031685528581015160808787018190529061305a8288018261317c565b91505060408083015187830382890152613074838261317c565b9250505060608083015192508682038188015250613092818361317c565b9a87019a9550505090840190600101613025565b5091979650505050505050565b6000815180845260208085018081965082840281019150828601855b858110156130a6578284038952815180516001600160a01b0316855285810151608087870181905290613104828801826132a5565b9150506040808301518783038289015261311e83826132a5565b925050506060808301519250868203818801525061313c81836132a5565b9a87019a95505050908401906001016130cf565b60008151808452613168816020860160208601613492565b601f01601f19169290920160200192915050565b80516001600160a01b0390811683526020808301519091168184015260408083015160608286018190528151868201819052600094919360809390929190820190848901908084028a018601885b8281101561329657607f198c8303018452845161016081518185526131f182860182613150565b9150508782015161320489860182612ffc565b50888201516132158a860182612ffc565b50818b0151848c0152898201518a85015260a0808301519085015260c0808301519085015260e080830151908501526101008083015161325782870182613397565b50506101208083015161326c82870182613397565b5050610140918201519161328285820184613397565b5095870195948701949250506001016131ca565b509a9950505050505050505050565b6000606080840160018060a01b0380855116865260208181870151168188015260408087015185828a015284815180875260809650868b019150868582028c01018584019350895b8281101561338757607f198d83030184528451610100815181855261331482860182613150565b915050898983015116898501528782015161333189860182612ffc565b50818c0151848d01528a8201518b85015260a0808301519085015260c08083015161335e82870182613397565b505060e0918201519161337385820184613397565b5095880195948801949250506001016132ed565b509b9a5050505050505050505050565b60ff169052565b6001600160a01b0391909116815260200190565b6001600160a01b0392831681529116602082015260400190565b6001600160a01b039290921682526001600160401b0316602082015260400190565b60006020825261013a6020830184613009565b6000604082526134146040830185613009565b828103602084015261342681856130b3565b95945050505050565b60006020825261013a60208301846130b3565b60006020825261013a6020830184613150565b6001600160401b0391909116815260200190565b6040518181016001600160401b038111828210171561348a5761348a613513565b604052919050565b60005b838110156134ad578181015183820152602001613495565b838111156134bc576000848401525b50505050565b60006000198214156134d6576134d66134fd565b5060010190565b600060ff821660ff8114156134f4576134f46134fd565b60010192915050565b634e487b7160e01b600052601160045260246000fd5b634e487b7160e01b600052604160045260246000fd5b6001600160a01b038116811461353e57600080fd5b50565b6001600160401b038116811461353e57600080fdfea2646970667358221220b2332e38233a8ab6f3be2d8146250a3add1f3e021be0bcbf8e69eadbd6c8b9c064736f6c63430008000033",
  "linkReferences": {},
  "deployedLinkReferences": {}
}