{
  "_format": "hh-sol-artifact-1",
  "contractName": "UiIncentiveDataProviderV2V3",
  "sourceName": "contracts/misc/UiIncentiveDataProviderV2V3.sol",
  "abi": [
    {
      "inputs": [],
      "stateMutability": "nonpayable",
      "type": "constructor"
    },
    {
      "inputs": [],
      "name": "MKRAddress",
      "outputs": [
        {
          "internalType": "address",
          "name": "",
          "type": "address"
        }
      ],
      "stateMutability": "view",
      "type": "function"
    },
    {
      "inputs": [
        {
          "internalType": "bytes32",
          "name": "_bytes32",
          "type": "bytes32"
        }
      ],
      "name": "bytes32ToString",
      "outputs": [
        {
          "internalType": "string",
          "name": "",
          "type": "string"
        }
      ],
      "stateMutability": "pure",
      "type": "function"
    },
    {
      "inputs": [
        {
          "internalType": "contract ILendingPoolAddressesProvider",
          "name": "provider",
          "type": "address"
        },
        {
          "internalType": "address",
          "name": "user",
          "type": "address"
        }
      ],
      "name": "getFullReservesIncentiveData",
      "outputs": [
        {
          "components": [
            {
              "internalType": "address",
              "name": "underlyingAsset",
              "type": "address"
            },
            {
              "components": [
                {
                  "internalType": "address",
                  "name": "tokenAddress",
                  "type": "address"
                },
                {
                  "internalType": "address",
                  "name": "incentiveControllerAddress",
                  "type": "address"
                },
                {
                  "components": [
                    {
                      "internalType": "string",
                      "name": "rewardTokenSymbol",
                      "type": "string"
                    },
                    {
                      "internalType": "address",
                      "name": "rewardTokenAddress",
                      "type": "address"
                    },
                    {
                      "internalType": "address",
                      "name": "rewardOracleAddress",
                      "type": "address"
                    },
                    {
                      "internalType": "uint256",
                      "name": "emissionPerSecond",
                      "type": "uint256"
                    },
                    {
                      "internalType": "uint256",
                      "name": "incentivesLastUpdateTimestamp",
                      "type": "uint256"
                    },
                    {
                      "internalType": "uint256",
                      "name": "tokenIncentivesIndex",
                      "type": "uint256"
                    },
                    {
                      "internalType": "uint256",
                      "name": "emissionEndTimestamp",
                      "type": "uint256"
                    },
                    {
                      "internalType": "int256",
                      "name": "rewardPriceFeed",
                      "type": "int256"
                    },
                    {
                      "internalType": "uint8",
                      "name": "rewardTokenDecimals",
                      "type": "uint8"
                    },
                    {
                      "internalType": "uint8",
                      "name": "precision",
                      "type": "uint8"
                    },
                    {
                      "internalType": "uint8",
                      "name": "priceFeedDecimals",
                      "type": "uint8"
                    }
                  ],
                  "internalType": "struct IUiIncentiveDataProviderV3.RewardInfo[]",
                  "name": "rewardsTokenInformation",
                  "type": "tuple[]"
                }
              ],
              "internalType": "struct IUiIncentiveDataProviderV3.IncentiveData",
              "name": "aIncentiveData",
              "type": "tuple"
            },
            {
              "components": [
                {
                  "internalType": "address",
                  "name": "tokenAddress",
                  "type": "address"
                },
                {
                  "internalType": "address",
                  "name": "incentiveControllerAddress",
                  "type": "address"
                },
                {
                  "components": [
                    {
                      "internalType": "string",
                      "name": "rewardTokenSymbol",
                      "type": "string"
                    },
                    {
                      "internalType": "address",
                      "name": "rewardTokenAddress",
                      "type": "address"
                    },
                    {
                      "internalType": "address",
                      "name": "rewardOracleAddress",
                      "type": "address"
                    },
                    {
                      "internalType": "uint256",
                      "name": "emissionPerSecond",
                      "type": "uint256"
                    },
                    {
                      "internalType": "uint256",
                      "name": "incentivesLastUpdateTimestamp",
                      "type": "uint256"
                    },
                    {
                      "internalType": "uint256",
                      "name": "tokenIncentivesIndex",
                      "type": "uint256"
                    },
                    {
                      "internalType": "uint256",
                      "name": "emissionEndTimestamp",
                      "type": "uint256"
                    },
                    {
                      "internalType": "int256",
                      "name": "rewardPriceFeed",
                      "type": "int256"
                    },
                    {
                      "internalType": "uint8",
                      "name": "rewardTokenDecimals",
                      "type": "uint8"
                    },
                    {
                      "internalType": "uint8",
                      "name": "precision",
                      "type": "uint8"
                    },
                    {
                      "internalType": "uint8",
                      "name": "priceFeedDecimals",
                      "type": "uint8"
                    }
                  ],
                  "internalType": "struct IUiIncentiveDataProviderV3.RewardInfo[]",
                  "name": "rewardsTokenInformation",
                  "type": "tuple[]"
                }
              ],
              "internalType": "struct IUiIncentiveDataProviderV3.IncentiveData",
              "name": "vIncentiveData",
              "type": "tuple"
            },
            {
              "components": [
                {
                  "internalType": "address",
                  "name": "tokenAddress",
                  "type": "address"
                },
                {
                  "internalType": "address",
                  "name": "incentiveControllerAddress",
                  "type": "address"
                },
                {
                  "components": [
                    {
                      "internalType": "string",
                      "name": "rewardTokenSymbol",
                      "type": "string"
                    },
                    {
                      "internalType": "address",
                      "name": "rewardTokenAddress",
                      "type": "address"
                    },
                    {
                      "internalType": "address",
                      "name": "rewardOracleAddress",
                      "type": "address"
                    },
                    {
                      "internalType": "uint256",
                      "name": "emissionPerSecond",
                      "type": "uint256"
                    },
                    {
                      "internalType": "uint256",
                      "name": "incentivesLastUpdateTimestamp",
                      "type": "uint256"
                    },
                    {
                      "internalType": "uint256",
                      "name": "tokenIncentivesIndex",
                      "type": "uint256"
                    },
                    {
                      "internalType": "uint256",
                      "name": "emissionEndTimestamp",
                      "type": "uint256"
                    },
                    {
                      "internalType": "int256",
                      "name": "rewardPriceFeed",
                      "type": "int256"
                    },
                    {
                      "internalType": "uint8",
                      "name": "rewardTokenDecimals",
                      "type": "uint8"
                    },
                    {
                      "internalType": "uint8",
                      "name": "precision",
                      "type": "uint8"
                    },
                    {
                      "internalType": "uint8",
                      "name": "priceFeedDecimals",
                      "type": "uint8"
                    }
                  ],
                  "internalType": "struct IUiIncentiveDataProviderV3.RewardInfo[]",
                  "name": "rewardsTokenInformation",
                  "type": "tuple[]"
                }
              ],
              "internalType": "struct IUiIncentiveDataProviderV3.IncentiveData",
              "name": "sIncentiveData",
              "type": "tuple"
            }
          ],
          "internalType": "struct IUiIncentiveDataProviderV3.AggregatedReserveIncentiveData[]",
          "name": "",
          "type": "tuple[]"
        },
        {
          "components": [
            {
              "internalType": "address",
              "name": "underlyingAsset",
              "type": "address"
            },
            {
              "components": [
                {
                  "internalType": "address",
                  "name": "tokenAddress",
                  "type": "address"
                },
                {
                  "internalType": "address",
                  "name": "incentiveControllerAddress",
                  "type": "address"
                },
                {
                  "components": [
                    {
                      "internalType": "string",
                      "name": "rewardTokenSymbol",
                      "type": "string"
                    },
                    {
                      "internalType": "address",
                      "name": "rewardOracleAddress",
                      "type": "address"
                    },
                    {
                      "internalType": "address",
                      "name": "rewardTokenAddress",
                      "type": "address"
                    },
                    {
                      "internalType": "uint256",
                      "name": "userUnclaimedRewards",
                      "type": "uint256"
                    },
                    {
                      "internalType": "uint256",
                      "name": "tokenIncentivesUserIndex",
                      "type": "uint256"
                    },
                    {
                      "internalType": "int256",
                      "name": "rewardPriceFeed",
                      "type": "int256"
                    },
                    {
                      "internalType": "uint8",
                      "name": "priceFeedDecimals",
                      "type": "uint8"
                    },
                    {
                      "internalType": "uint8",
                      "name": "rewardTokenDecimals",
                      "type": "uint8"
                    }
                  ],
                  "internalType": "struct IUiIncentiveDataProviderV3.UserRewardInfo[]",
                  "name": "userRewardsInformation",
                  "type": "tuple[]"
                }
              ],
              "internalType": "struct IUiIncentiveDataProviderV3.UserIncentiveData",
              "name": "aTokenIncentivesUserData",
              "type": "tuple"
            },
            {
              "components": [
                {
                  "internalType": "address",
                  "name": "tokenAddress",
                  "type": "address"
                },
                {
                  "internalType": "address",
                  "name": "incentiveControllerAddress",
                  "type": "address"
                },
                {
                  "components": [
                    {
                      "internalType": "string",
                      "name": "rewardTokenSymbol",
                      "type": "string"
                    },
                    {
                      "internalType": "address",
                      "name": "rewardOracleAddress",
                      "type": "address"
                    },
                    {
                      "internalType": "address",
                      "name": "rewardTokenAddress",
                      "type": "address"
                    },
                    {
                      "internalType": "uint256",
                      "name": "userUnclaimedRewards",
                      "type": "uint256"
                    },
                    {
                      "internalType": "uint256",
                      "name": "tokenIncentivesUserIndex",
                      "type": "uint256"
                    },
                    {
                      "internalType": "int256",
                      "name": "rewardPriceFeed",
                      "type": "int256"
                    },
                    {
                      "internalType": "uint8",
                      "name": "priceFeedDecimals",
                      "type": "uint8"
                    },
                    {
                      "internalType": "uint8",
                      "name": "rewardTokenDecimals",
                      "type": "uint8"
                    }
                  ],
                  "internalType": "struct IUiIncentiveDataProviderV3.UserRewardInfo[]",
                  "name": "userRewardsInformation",
                  "type": "tuple[]"
                }
              ],
              "internalType": "struct IUiIncentiveDataProviderV3.UserIncentiveData",
              "name": "vTokenIncentivesUserData",
              "type": "tuple"
            },
            {
              "components": [
                {
                  "internalType": "address",
                  "name": "tokenAddress",
                  "type": "address"
                },
                {
                  "internalType": "address",
                  "name": "incentiveControllerAddress",
                  "type": "address"
                },
                {
                  "components": [
                    {
                      "internalType": "string",
                      "name": "rewardTokenSymbol",
                      "type": "string"
                    },
                    {
                      "internalType": "address",
                      "name": "rewardOracleAddress",
                      "type": "address"
                    },
                    {
                      "internalType": "address",
                      "name": "rewardTokenAddress",
                      "type": "address"
                    },
                    {
                      "internalType": "uint256",
                      "name": "userUnclaimedRewards",
                      "type": "uint256"
                    },
                    {
                      "internalType": "uint256",
                      "name": "tokenIncentivesUserIndex",
                      "type": "uint256"
                    },
                    {
                      "internalType": "int256",
                      "name": "rewardPriceFeed",
                      "type": "int256"
                    },
                    {
                      "internalType": "uint8",
                      "name": "priceFeedDecimals",
                      "type": "uint8"
                    },
                    {
                      "internalType": "uint8",
                      "name": "rewardTokenDecimals",
                      "type": "uint8"
                    }
                  ],
                  "internalType": "struct IUiIncentiveDataProviderV3.UserRewardInfo[]",
                  "name": "userRewardsInformation",
                  "type": "tuple[]"
                }
              ],
              "internalType": "struct IUiIncentiveDataProviderV3.UserIncentiveData",
              "name": "sTokenIncentivesUserData",
              "type": "tuple"
            }
          ],
          "internalType": "struct IUiIncentiveDataProviderV3.UserReserveIncentiveData[]",
          "name": "",
          "type": "tuple[]"
        }
      ],
      "stateMutability": "view",
      "type": "function"
    },
    {
      "inputs": [
        {
          "internalType": "contract ILendingPoolAddressesProvider",
          "name": "provider",
          "type": "address"
        }
      ],
      "name": "getReservesIncentivesData",
      "outputs": [
        {
          "components": [
            {
              "internalType": "address",
              "name": "underlyingAsset",
              "type": "address"
            },
            {
              "components": [
                {
                  "internalType": "address",
                  "name": "tokenAddress",
                  "type": "address"
                },
                {
                  "internalType": "address",
                  "name": "incentiveControllerAddress",
                  "type": "address"
                },
                {
                  "components": [
                    {
                      "internalType": "string",
                      "name": "rewardTokenSymbol",
                      "type": "string"
                    },
                    {
                      "internalType": "address",
                      "name": "rewardTokenAddress",
                      "type": "address"
                    },
                    {
                      "internalType": "address",
                      "name": "rewardOracleAddress",
                      "type": "address"
                    },
                    {
                      "internalType": "uint256",
                      "name": "emissionPerSecond",
                      "type": "uint256"
                    },
                    {
                      "internalType": "uint256",
                      "name": "incentivesLastUpdateTimestamp",
                      "type": "uint256"
                    },
                    {
                      "internalType": "uint256",
                      "name": "tokenIncentivesIndex",
                      "type": "uint256"
                    },
                    {
                      "internalType": "uint256",
                      "name": "emissionEndTimestamp",
                      "type": "uint256"
                    },
                    {
                      "internalType": "int256",
                      "name": "rewardPriceFeed",
                      "type": "int256"
                    },
                    {
                      "internalType": "uint8",
                      "name": "rewardTokenDecimals",
                      "type": "uint8"
                    },
                    {
                      "internalType": "uint8",
                      "name": "precision",
                      "type": "uint8"
                    },
                    {
                      "internalType": "uint8",
                      "name": "priceFeedDecimals",
                      "type": "uint8"
                    }
                  ],
                  "internalType": "struct IUiIncentiveDataProviderV3.RewardInfo[]",
                  "name": "rewardsTokenInformation",
                  "type": "tuple[]"
                }
              ],
              "internalType": "struct IUiIncentiveDataProviderV3.IncentiveData",
              "name": "aIncentiveData",
              "type": "tuple"
            },
            {
              "components": [
                {
                  "internalType": "address",
                  "name": "tokenAddress",
                  "type": "address"
                },
                {
                  "internalType": "address",
                  "name": "incentiveControllerAddress",
                  "type": "address"
                },
                {
                  "components": [
                    {
                      "internalType": "string",
                      "name": "rewardTokenSymbol",
                      "type": "string"
                    },
                    {
                      "internalType": "address",
                      "name": "rewardTokenAddress",
                      "type": "address"
                    },
                    {
                      "internalType": "address",
                      "name": "rewardOracleAddress",
                      "type": "address"
                    },
                    {
                      "internalType": "uint256",
                      "name": "emissionPerSecond",
                      "type": "uint256"
                    },
                    {
                      "internalType": "uint256",
                      "name": "incentivesLastUpdateTimestamp",
                      "type": "uint256"
                    },
                    {
                      "internalType": "uint256",
                      "name": "tokenIncentivesIndex",
                      "type": "uint256"
                    },
                    {
                      "internalType": "uint256",
                      "name": "emissionEndTimestamp",
                      "type": "uint256"
                    },
                    {
                      "internalType": "int256",
                      "name": "rewardPriceFeed",
                      "type": "int256"
                    },
                    {
                      "internalType": "uint8",
                      "name": "rewardTokenDecimals",
                      "type": "uint8"
                    },
                    {
                      "internalType": "uint8",
                      "name": "precision",
                      "type": "uint8"
                    },
                    {
                      "internalType": "uint8",
                      "name": "priceFeedDecimals",
                      "type": "uint8"
                    }
                  ],
                  "internalType": "struct IUiIncentiveDataProviderV3.RewardInfo[]",
                  "name": "rewardsTokenInformation",
                  "type": "tuple[]"
                }
              ],
              "internalType": "struct IUiIncentiveDataProviderV3.IncentiveData",
              "name": "vIncentiveData",
              "type": "tuple"
            },
            {
              "components": [
                {
                  "internalType": "address",
                  "name": "tokenAddress",
                  "type": "address"
                },
                {
                  "internalType": "address",
                  "name": "incentiveControllerAddress",
                  "type": "address"
                },
                {
                  "components": [
                    {
                      "internalType": "string",
                      "name": "rewardTokenSymbol",
                      "type": "string"
                    },
                    {
                      "internalType": "address",
                      "name": "rewardTokenAddress",
                      "type": "address"
                    },
                    {
                      "internalType": "address",
                      "name": "rewardOracleAddress",
                      "type": "address"
                    },
                    {
                      "internalType": "uint256",
                      "name": "emissionPerSecond",
                      "type": "uint256"
                    },
                    {
                      "internalType": "uint256",
                      "name": "incentivesLastUpdateTimestamp",
                      "type": "uint256"
                    },
                    {
                      "internalType": "uint256",
                      "name": "tokenIncentivesIndex",
                      "type": "uint256"
                    },
                    {
                      "internalType": "uint256",
                      "name": "emissionEndTimestamp",
                      "type": "uint256"
                    },
                    {
                      "internalType": "int256",
                      "name": "rewardPriceFeed",
                      "type": "int256"
                    },
                    {
                      "internalType": "uint8",
                      "name": "rewardTokenDecimals",
                      "type": "uint8"
                    },
                    {
                      "internalType": "uint8",
                      "name": "precision",
                      "type": "uint8"
                    },
                    {
                      "internalType": "uint8",
                      "name": "priceFeedDecimals",
                      "type": "uint8"
                    }
                  ],
                  "internalType": "struct IUiIncentiveDataProviderV3.RewardInfo[]",
                  "name": "rewardsTokenInformation",
                  "type": "tuple[]"
                }
              ],
              "internalType": "struct IUiIncentiveDataProviderV3.IncentiveData",
              "name": "sIncentiveData",
              "type": "tuple"
            }
          ],
          "internalType": "struct IUiIncentiveDataProviderV3.AggregatedReserveIncentiveData[]",
          "name": "",
          "type": "tuple[]"
        }
      ],
      "stateMutability": "view",
      "type": "function"
    },
    {
      "inputs": [
        {
          "internalType": "address",
          "name": "rewardToken",
          "type": "address"
        }
      ],
      "name": "getSymbol",
      "outputs": [
        {
          "internalType": "string",
          "name": "",
          "type": "string"
        }
      ],
      "stateMutability": "view",
      "type": "function"
    },
    {
      "inputs": [
        {
          "internalType": "contract ILendingPoolAddressesProvider",
          "name": "provider",
          "type": "address"
        },
        {
          "internalType": "address",
          "name": "user",
          "type": "address"
        }
      ],
      "name": "getUserReservesIncentivesData",
      "outputs": [
        {
          "components": [
            {
              "internalType": "address",
              "name": "underlyingAsset",
              "type": "address"
            },
            {
              "components": [
                {
                  "internalType": "address",
                  "name": "tokenAddress",
                  "type": "address"
                },
                {
                  "internalType": "address",
                  "name": "incentiveControllerAddress",
                  "type": "address"
                },
                {
                  "components": [
                    {
                      "internalType": "string",
                      "name": "rewardTokenSymbol",
                      "type": "string"
                    },
                    {
                      "internalType": "address",
                      "name": "rewardOracleAddress",
                      "type": "address"
                    },
                    {
                      "internalType": "address",
                      "name": "rewardTokenAddress",
                      "type": "address"
                    },
                    {
                      "internalType": "uint256",
                      "name": "userUnclaimedRewards",
                      "type": "uint256"
                    },
                    {
                      "internalType": "uint256",
                      "name": "tokenIncentivesUserIndex",
                      "type": "uint256"
                    },
                    {
                      "internalType": "int256",
                      "name": "rewardPriceFeed",
                      "type": "int256"
                    },
                    {
                      "internalType": "uint8",
                      "name": "priceFeedDecimals",
                      "type": "uint8"
                    },
                    {
                      "internalType": "uint8",
                      "name": "rewardTokenDecimals",
                      "type": "uint8"
                    }
                  ],
                  "internalType": "struct IUiIncentiveDataProviderV3.UserRewardInfo[]",
                  "name": "userRewardsInformation",
                  "type": "tuple[]"
                }
              ],
              "internalType": "struct IUiIncentiveDataProviderV3.UserIncentiveData",
              "name": "aTokenIncentivesUserData",
              "type": "tuple"
            },
            {
              "components": [
                {
                  "internalType": "address",
                  "name": "tokenAddress",
                  "type": "address"
                },
                {
                  "internalType": "address",
                  "name": "incentiveControllerAddress",
                  "type": "address"
                },
                {
                  "components": [
                    {
                      "internalType": "string",
                      "name": "rewardTokenSymbol",
                      "type": "string"
                    },
                    {
                      "internalType": "address",
                      "name": "rewardOracleAddress",
                      "type": "address"
                    },
                    {
                      "internalType": "address",
                      "name": "rewardTokenAddress",
                      "type": "address"
                    },
                    {
                      "internalType": "uint256",
                      "name": "userUnclaimedRewards",
                      "type": "uint256"
                    },
                    {
                      "internalType": "uint256",
                      "name": "tokenIncentivesUserIndex",
                      "type": "uint256"
                    },
                    {
                      "internalType": "int256",
                      "name": "rewardPriceFeed",
                      "type": "int256"
                    },
                    {
                      "internalType": "uint8",
                      "name": "priceFeedDecimals",
                      "type": "uint8"
                    },
                    {
                      "internalType": "uint8",
                      "name": "rewardTokenDecimals",
                      "type": "uint8"
                    }
                  ],
                  "internalType": "struct IUiIncentiveDataProviderV3.UserRewardInfo[]",
                  "name": "userRewardsInformation",
                  "type": "tuple[]"
                }
              ],
              "internalType": "struct IUiIncentiveDataProviderV3.UserIncentiveData",
              "name": "vTokenIncentivesUserData",
              "type": "tuple"
            },
            {
              "components": [
                {
                  "internalType": "address",
                  "name": "tokenAddress",
                  "type": "address"
                },
                {
                  "internalType": "address",
                  "name": "incentiveControllerAddress",
                  "type": "address"
                },
                {
                  "components": [
                    {
                      "internalType": "string",
                      "name": "rewardTokenSymbol",
                      "type": "string"
                    },
                    {
                      "internalType": "address",
                      "name": "rewardOracleAddress",
                      "type": "address"
                    },
                    {
                      "internalType": "address",
                      "name": "rewardTokenAddress",
                      "type": "address"
                    },
                    {
                      "internalType": "uint256",
                      "name": "userUnclaimedRewards",
                      "type": "uint256"
                    },
                    {
                      "internalType": "uint256",
                      "name": "tokenIncentivesUserIndex",
                      "type": "uint256"
                    },
                    {
                      "internalType": "int256",
                      "name": "rewardPriceFeed",
                      "type": "int256"
                    },
                    {
                      "internalType": "uint8",
                      "name": "priceFeedDecimals",
                      "type": "uint8"
                    },
                    {
                      "internalType": "uint8",
                      "name": "rewardTokenDecimals",
                      "type": "uint8"
                    }
                  ],
                  "internalType": "struct IUiIncentiveDataProviderV3.UserRewardInfo[]",
                  "name": "userRewardsInformation",
                  "type": "tuple[]"
                }
              ],
              "internalType": "struct IUiIncentiveDataProviderV3.UserIncentiveData",
              "name": "sTokenIncentivesUserData",
              "type": "tuple"
            }
          ],
          "internalType": "struct IUiIncentiveDataProviderV3.UserReserveIncentiveData[]",
          "name": "",
          "type": "tuple[]"
        }
      ],
      "stateMutability": "view",
      "type": "function"
    }
  ],
  "bytecode": "0x608060405234801561001057600080fd5b506134b5806100206000396000f3fe608060405234801561001057600080fd5b50600436106100625760003560e01c80634763753614610067578063799bdcf5146100915780639201de55146100b1578063976fafc5146100d15780639dd9e2ce146100f1578063c9b2e52214610106575b600080fd5b61007a610075366004612cf0565b610119565b604051610088929190613332565b60405180910390f35b6100a461009f366004612cf0565b61013a565b6040516100889190613360565b6100c46100bf366004612cc0565b61014d565b6040516100889190613373565b6100e46100df366004612bd5565b6102cc565b604051610088919061331f565b6100f96102dd565b60405161008891906132d5565b6100c4610114366004612bd5565b6102f5565b6060806101258461041e565b61012f8585611c04565b915091509250929050565b60606101468383611c04565b9392505050565b606060005b60208160ff161080156101945750828160ff166020811061018357634e487b7160e01b600052603260045260246000fd5b1a60f81b6001600160f81b03191615155b156101ab57806101a3816133fb565b915050610152565b60008160ff1667ffffffffffffffff8111156101d757634e487b7160e01b600052604160045260246000fd5b6040519080825280601f01601f191660200182016040528015610201576020820181803683370190505b509050600091505b60208260ff1610801561024b5750838260ff166020811061023a57634e487b7160e01b600052603260045260246000fd5b1a60f81b6001600160f81b03191615155b156102c357838260ff166020811061027357634e487b7160e01b600052603260045260246000fd5b1a60f81b818360ff168151811061029a57634e487b7160e01b600052603260045260246000fd5b60200101906001600160f81b031916908160001a905350816102bb816133fb565b925050610209565b9150505b919050565b60606102d78261041e565b92915050565b739f8f72aa9304c8b593d555f12ef6589cc3a579a281565b60606001600160a01b038216739f8f72aa9304c8b593d555f12ef6589cc3a579a214156103a2576000826001600160a01b03166395d89b416040518163ffffffff1660e01b815260040160206040518083038186803b15801561035757600080fd5b505afa15801561036b573d6000803e3d6000fd5b505050506040513d601f19601f8201168201806040525081019061038f9190612cd8565b905061039a8161014d565b9150506102c7565b816001600160a01b03166395d89b416040518163ffffffff1660e01b815260040160006040518083038186803b1580156103db57600080fd5b505afa1580156103ef573d6000803e3d6000fd5b505050506040513d6000823e601f3d908101601f191682016040526104179190810190612d28565b90506102c7565b60606000826001600160a01b0316630261bf8b6040518163ffffffff1660e01b815260040160206040518083038186803b15801561045b57600080fd5b505afa15801561046f573d6000803e3d6000fd5b505050506040513d601f19601f820116820180604052508101906104939190612bf1565b90506000816001600160a01b031663d1946dbc6040518163ffffffff1660e01b815260040160006040518083038186803b1580156104d057600080fd5b505afa1580156104e4573d6000803e3d6000fd5b505050506040513d6000823e601f3d908101601f1916820160405261050c9190810190612c0d565b90506000815167ffffffffffffffff81111561053857634e487b7160e01b600052604160045260246000fd5b60405190808252806020026020018201604052801561057157816020015b61055e612a19565b8152602001906001900390816105565790505b50905060005b8251811015611bfb5760008282815181106105a257634e487b7160e01b600052603260045260246000fd5b602002602001015190508382815181106105cc57634e487b7160e01b600052603260045260246000fd5b60209081029190910101516001600160a01b0316815260006105ef60038461341b565b90506000866001600160a01b0316633629e3cd87868151811061062257634e487b7160e01b600052603260045260246000fd5b6020026020010151846040518363ffffffff1660e01b8152600401610648929190613303565b6101a06040518083038186803b15801561066157600080fd5b505afa158015610675573d6000803e3d6000fd5b505050506040513d601f19601f820116820180604052508101906106999190612daf565b90508160ff1681610180015160ff16146106c357634e487b7160e01b600052600160045260246000fd5b8060e001516001600160a01b03166375d264136040518163ffffffff1660e01b815260040160206040518083038186803b15801561070057600080fd5b505afa925050508015610730575060408051601f3d908101601f1916820190925261072d91810190612bf1565b60015b61076a573d80801561075e576040519150601f19603f3d011682016040523d82523d6000602084013e610763565b606091505b5050610dcb565b604080516001808252818301909252600091816020015b610789612a5b565b8152602001906001900390816107815790505090506001600160a01b03821615610dc8576000826001600160a01b03166399248ea76040518163ffffffff1660e01b815260040160206040518083038186803b1580156107e857600080fd5b505afa1580156107fc573d6000803e3d6000fd5b505050506040513d601f19601f820116820180604052508101906108209190612bf1565b60e0850151604051631652e7b760e01b81529192506001600160a01b03851691631652e7b791610852916004016132d5565b60606040518083038186803b15801561086a57600080fd5b505afa92505050801561089a575060408051601f3d908101601f1916820190925261089791810190612eec565b60015b610b9b573d8080156108c8576040519150601f19603f3d011682016040523d82523d6000602084013e6108cd565b606091505b506000806000866001600160a01b031663f11b81888960e001516040518263ffffffff1660e01b815260040161090391906132d5565b60606040518083038186803b15801561091b57600080fd5b505afa15801561092f573d6000803e3d6000fd5b505050506040513d601f19601f820116820180604052508101906109539190612eb1565b92506001600160801b031692506001600160801b03169250604051806101600160405280610980876102f5565b8152602001866001600160a01b0316815260200160006001600160a01b03168152602001848152602001838152602001828152602001886001600160a01b031663919cd40f6040518163ffffffff1660e01b815260040160206040518083038186803b1580156109ef57600080fd5b505afa158015610a03573d6000803e3d6000fd5b505050506040513d601f19601f82011682018060405250810190610a279190612cd8565b815260200160008152602001866001600160a01b031663313ce5676040518163ffffffff1660e01b815260040160206040518083038186803b158015610a6c57600080fd5b505afa158015610a80573d6000803e3d6000fd5b505050506040513d601f19601f82011682018060405250810190610aa49190612f19565b60ff168152602001886001600160a01b031663aaf5eb686040518163ffffffff1660e01b815260040160206040518083038186803b158015610ae557600080fd5b505afa158015610af9573d6000803e3d6000fd5b505050506040513d601f19601f82011682018060405250810190610b1d9190612f19565b60ff168152602001600060ff1681525086600081518110610b4e57634e487b7160e01b600052603260045260246000fd5b602002602001018190525060405180606001604052808960e001516001600160a01b03168152602001886001600160a01b03168152602001878152508a6020018190525050505050610dc6565b604051806101600160405280610bb0866102f5565b8152602001856001600160a01b0316815260200160006001600160a01b03168152602001838152602001828152602001848152602001876001600160a01b031663919cd40f6040518163ffffffff1660e01b815260040160206040518083038186803b158015610c1f57600080fd5b505afa158015610c33573d6000803e3d6000fd5b505050506040513d601f19601f82011682018060405250810190610c579190612cd8565b815260200160008152602001856001600160a01b031663313ce5676040518163ffffffff1660e01b815260040160206040518083038186803b158015610c9c57600080fd5b505afa158015610cb0573d6000803e3d6000fd5b505050506040513d601f19601f82011682018060405250810190610cd49190612f19565b60ff168152602001876001600160a01b031663aaf5eb686040518163ffffffff1660e01b815260040160206040518083038186803b158015610d1557600080fd5b505afa158015610d29573d6000803e3d6000fd5b505050506040513d601f19601f82011682018060405250810190610d4d9190612f19565b60ff168152602001600060ff1681525085600081518110610d7e57634e487b7160e01b600052603260045260246000fd5b602002602001018190525060405180606001604052808860e001516001600160a01b03168152602001876001600160a01b031681526020018681525089602001819052505050505b505b50505b8061010001516001600160a01b03166375d264136040518163ffffffff1660e01b815260040160206040518083038186803b158015610e0957600080fd5b505afa925050508015610e39575060408051601f3d908101601f19168201909252610e3691810190612bf1565b60015b610e73573d808015610e67576040519150601f19603f3d011682016040523d82523d6000602084013e610e6c565b606091505b50506114d8565b604080516001808252818301909252600091816020015b610e92612a5b565b815260200190600190039081610e8a5790505090506001600160a01b038216156114d5576000826001600160a01b03166399248ea76040518163ffffffff1660e01b815260040160206040518083038186803b158015610ef157600080fd5b505afa158015610f05573d6000803e3d6000fd5b505050506040513d601f19601f82011682018060405250810190610f299190612bf1565b610100850151604051631652e7b760e01b81529192506001600160a01b03851691631652e7b791610f5c916004016132d5565b60606040518083038186803b158015610f7457600080fd5b505afa925050508015610fa4575060408051601f3d908101601f19168201909252610fa191810190612eec565b60015b6112a7573d808015610fd2576040519150601f19603f3d011682016040523d82523d6000602084013e610fd7565b606091505b506000806000866001600160a01b031663f11b81888961010001516040518263ffffffff1660e01b815260040161100e91906132d5565b60606040518083038186803b15801561102657600080fd5b505afa15801561103a573d6000803e3d6000fd5b505050506040513d601f19601f8201168201806040525081019061105e9190612eb1565b92506001600160801b031692506001600160801b0316925060405180610160016040528061108b876102f5565b8152602001866001600160a01b0316815260200160006001600160a01b03168152602001848152602001838152602001828152602001886001600160a01b031663919cd40f6040518163ffffffff1660e01b815260040160206040518083038186803b1580156110fa57600080fd5b505afa15801561110e573d6000803e3d6000fd5b505050506040513d601f19601f820116820180604052508101906111329190612cd8565b815260200160008152602001866001600160a01b031663313ce5676040518163ffffffff1660e01b815260040160206040518083038186803b15801561117757600080fd5b505afa15801561118b573d6000803e3d6000fd5b505050506040513d601f19601f820116820180604052508101906111af9190612f19565b60ff168152602001886001600160a01b031663aaf5eb686040518163ffffffff1660e01b815260040160206040518083038186803b1580156111f057600080fd5b505afa158015611204573d6000803e3d6000fd5b505050506040513d601f19601f820116820180604052508101906112289190612f19565b60ff168152602001600060ff168152508660008151811061125957634e487b7160e01b600052603260045260246000fd5b602002602001018190525060405180606001604052808961010001516001600160a01b03168152602001886001600160a01b03168152602001878152508a60600181905250505050506114d3565b6040518061016001604052806112bc866102f5565b8152602001856001600160a01b0316815260200160006001600160a01b03168152602001838152602001828152602001848152602001876001600160a01b031663919cd40f6040518163ffffffff1660e01b815260040160206040518083038186803b15801561132b57600080fd5b505afa15801561133f573d6000803e3d6000fd5b505050506040513d601f19601f820116820180604052508101906113639190612cd8565b815260200160008152602001856001600160a01b031663313ce5676040518163ffffffff1660e01b815260040160206040518083038186803b1580156113a857600080fd5b505afa1580156113bc573d6000803e3d6000fd5b505050506040513d601f19601f820116820180604052508101906113e09190612f19565b60ff168152602001876001600160a01b031663aaf5eb686040518163ffffffff1660e01b815260040160206040518083038186803b15801561142157600080fd5b505afa158015611435573d6000803e3d6000fd5b505050506040513d601f19601f820116820180604052508101906114599190612f19565b60ff168152602001600060ff168152508560008151811061148a57634e487b7160e01b600052603260045260246000fd5b602002602001018190525060405180606001604052808861010001516001600160a01b03168152602001876001600160a01b031681526020018681525089606001819052505050505b505b50505b8061012001516001600160a01b03166375d264136040518163ffffffff1660e01b815260040160206040518083038186803b15801561151657600080fd5b505afa925050508015611546575060408051601f3d908101601f1916820190925261154391810190612bf1565b60015b611580573d808015611574576040519150601f19603f3d011682016040523d82523d6000602084013e611579565b606091505b5050611be5565b604080516001808252818301909252600091816020015b61159f612a5b565b8152602001906001900390816115975790505090506001600160a01b03821615611be2576000826001600160a01b03166399248ea76040518163ffffffff1660e01b815260040160206040518083038186803b1580156115fe57600080fd5b505afa158015611612573d6000803e3d6000fd5b505050506040513d601f19601f820116820180604052508101906116369190612bf1565b610120850151604051631652e7b760e01b81529192506001600160a01b03851691631652e7b791611669916004016132d5565b60606040518083038186803b15801561168157600080fd5b505afa9250505080156116b1575060408051601f3d908101601f191682019092526116ae91810190612eec565b60015b6119b4573d8080156116df576040519150601f19603f3d011682016040523d82523d6000602084013e6116e4565b606091505b506000806000866001600160a01b031663f11b81888961012001516040518263ffffffff1660e01b815260040161171b91906132d5565b60606040518083038186803b15801561173357600080fd5b505afa158015611747573d6000803e3d6000fd5b505050506040513d601f19601f8201168201806040525081019061176b9190612eb1565b92506001600160801b031692506001600160801b03169250604051806101600160405280611798876102f5565b8152602001866001600160a01b0316815260200160006001600160a01b03168152602001848152602001838152602001828152602001886001600160a01b031663919cd40f6040518163ffffffff1660e01b815260040160206040518083038186803b15801561180757600080fd5b505afa15801561181b573d6000803e3d6000fd5b505050506040513d601f19601f8201168201806040525081019061183f9190612cd8565b815260200160008152602001866001600160a01b031663313ce5676040518163ffffffff1660e01b815260040160206040518083038186803b15801561188457600080fd5b505afa158015611898573d6000803e3d6000fd5b505050506040513d601f19601f820116820180604052508101906118bc9190612f19565b60ff168152602001886001600160a01b031663aaf5eb686040518163ffffffff1660e01b815260040160206040518083038186803b1580156118fd57600080fd5b505afa158015611911573d6000803e3d6000fd5b505050506040513d601f19601f820116820180604052508101906119359190612f19565b60ff168152602001600060ff168152508660008151811061196657634e487b7160e01b600052603260045260246000fd5b602002602001018190525060405180606001604052808961012001516001600160a01b03168152602001886001600160a01b03168152602001878152508a6040018190525050505050611be0565b6040518061016001604052806119c9866102f5565b8152602001856001600160a01b0316815260200160006001600160a01b03168152602001838152602001828152602001848152602001876001600160a01b031663919cd40f6040518163ffffffff1660e01b815260040160206040518083038186803b158015611a3857600080fd5b505afa158015611a4c573d6000803e3d6000fd5b505050506040513d601f19601f82011682018060405250810190611a709190612cd8565b815260200160008152602001856001600160a01b031663313ce5676040518163ffffffff1660e01b815260040160206040518083038186803b158015611ab557600080fd5b505afa158015611ac9573d6000803e3d6000fd5b505050506040513d601f19601f82011682018060405250810190611aed9190612f19565b60ff168152602001876001600160a01b031663aaf5eb686040518163ffffffff1660e01b815260040160206040518083038186803b158015611b2e57600080fd5b505afa158015611b42573d6000803e3d6000fd5b505050506040513d601f19601f82011682018060405250810190611b669190612f19565b60ff168152602001600060ff1681525085600081518110611b9757634e487b7160e01b600052603260045260246000fd5b602002602001018190525060405180606001604052808861012001516001600160a01b03168152602001876001600160a01b031681526020018681525089604001819052505050505b505b50505b5050508080611bf3906133e0565b915050610577565b50949350505050565b60606000836001600160a01b0316630261bf8b6040518163ffffffff1660e01b815260040160206040518083038186803b158015611c4157600080fd5b505afa158015611c55573d6000803e3d6000fd5b505050506040513d601f19601f82011682018060405250810190611c799190612bf1565b90506000816001600160a01b031663d1946dbc6040518163ffffffff1660e01b815260040160006040518083038186803b158015611cb657600080fd5b505afa158015611cca573d6000803e3d6000fd5b505050506040513d6000823e601f3d908101601f19168201604052611cf29190810190612c0d565b905060006001600160a01b038516611d0b576000611d0e565b81515b67ffffffffffffffff811115611d3457634e487b7160e01b600052604160045260246000fd5b604051908082528060200260200182016040528015611d6d57816020015b611d5a612a19565b815260200190600190039081611d525790505b50905060005b8251811015612a0f576000611d8960038361341b565b90506000856001600160a01b0316633629e3cd868581518110611dbc57634e487b7160e01b600052603260045260246000fd5b6020026020010151846040518363ffffffff1660e01b8152600401611de2929190613303565b6101a06040518083038186803b158015611dfb57600080fd5b505afa158015611e0f573d6000803e3d6000fd5b505050506040513d601f19601f82011682018060405250810190611e339190612daf565b90508160ff1681610180015160ff1614611e5d57634e487b7160e01b600052600160045260246000fd5b848381518110611e7d57634e487b7160e01b600052603260045260246000fd5b6020026020010151848481518110611ea557634e487b7160e01b600052603260045260246000fd5b6020026020010151600001906001600160a01b031690816001600160a01b0316815250508060e001516001600160a01b03166375d264136040518163ffffffff1660e01b815260040160206040518083038186803b158015611f0657600080fd5b505afa925050508015611f36575060408051601f3d908101601f19168201909252611f3391810190612bf1565b60015b611f70573d808015611f64576040519150601f19603f3d011682016040523d82523d6000602084013e611f69565b606091505b5050612282565b6001600160a01b0381161561228057604080516001808252818301909252600091816020015b611f9e612ad0565b815260200190600190039081611f965790505090506000826001600160a01b03166399248ea76040518163ffffffff1660e01b815260040160206040518083038186803b158015611fee57600080fd5b505afa158015612002573d6000803e3d6000fd5b505050506040513d601f19601f820116820180604052508101906120269190612bf1565b905060405180610100016040528061203d836102f5565b815260200160006001600160a01b03168152602001826001600160a01b03168152602001846001600160a01b031663198fa81e8e6040518263ffffffff1660e01b815260040161208d91906132d5565b60206040518083038186803b1580156120a557600080fd5b505afa1580156120b9573d6000803e3d6000fd5b505050506040513d601f19601f820116820180604052508101906120dd9190612cd8565b8152602001846001600160a01b0316633373ee4c8e8860e001516040518363ffffffff1660e01b81526004016121149291906132e9565b60206040518083038186803b15801561212c57600080fd5b505afa158015612140573d6000803e3d6000fd5b505050506040513d601f19601f820116820180604052508101906121649190612cd8565b815260200160008152602001600060ff168152602001826001600160a01b031663313ce5676040518163ffffffff1660e01b815260040160206040518083038186803b1580156121b357600080fd5b505afa1580156121c7573d6000803e3d6000fd5b505050506040513d601f19601f820116820180604052508101906121eb9190612f19565b60ff168152508260008151811061221257634e487b7160e01b600052603260045260246000fd5b602002602001018190525060405180606001604052808560e001516001600160a01b03168152602001846001600160a01b031681526020018381525087878151811061226e57634e487b7160e01b600052603260045260246000fd5b60200260200101516020018190525050505b505b8061012001516001600160a01b03166375d264136040518163ffffffff1660e01b815260040160206040518083038186803b1580156122c057600080fd5b505afa9250505080156122f0575060408051601f3d908101601f191682019092526122ed91810190612bf1565b60015b61232a573d80801561231e576040519150601f19603f3d011682016040523d82523d6000602084013e612323565b606091505b505061263e565b6001600160a01b0381161561263c57604080516001808252818301909252600091816020015b612358612ad0565b8152602001906001900390816123505790505090506000826001600160a01b03166399248ea76040518163ffffffff1660e01b815260040160206040518083038186803b1580156123a857600080fd5b505afa1580156123bc573d6000803e3d6000fd5b505050506040513d601f19601f820116820180604052508101906123e09190612bf1565b90506040518061010001604052806123f7836102f5565b815260200160006001600160a01b03168152602001826001600160a01b03168152602001846001600160a01b031663198fa81e8e6040518263ffffffff1660e01b815260040161244791906132d5565b60206040518083038186803b15801561245f57600080fd5b505afa158015612473573d6000803e3d6000fd5b505050506040513d601f19601f820116820180604052508101906124979190612cd8565b8152602001846001600160a01b0316633373ee4c8e8861012001516040518363ffffffff1660e01b81526004016124cf9291906132e9565b60206040518083038186803b1580156124e757600080fd5b505afa1580156124fb573d6000803e3d6000fd5b505050506040513d601f19601f8201168201806040525081019061251f9190612cd8565b815260200160008152602001600060ff168152602001826001600160a01b031663313ce5676040518163ffffffff1660e01b815260040160206040518083038186803b15801561256e57600080fd5b505afa158015612582573d6000803e3d6000fd5b505050506040513d601f19601f820116820180604052508101906125a69190612f19565b60ff16815250826000815181106125cd57634e487b7160e01b600052603260045260246000fd5b602002602001018190525060405180606001604052808561012001516001600160a01b03168152602001846001600160a01b031681526020018381525087878151811061262a57634e487b7160e01b600052603260045260246000fd5b60200260200101516040018190525050505b505b8061010001516001600160a01b03166375d264136040518163ffffffff1660e01b815260040160206040518083038186803b15801561267c57600080fd5b505afa9250505080156126ac575060408051601f3d908101601f191682019092526126a991810190612bf1565b60015b6126e6573d8080156126da576040519150601f19603f3d011682016040523d82523d6000602084013e6126df565b606091505b50506129fa565b6001600160a01b038116156129f857604080516001808252818301909252600091816020015b612714612ad0565b81526020019060019003908161270c5790505090506000826001600160a01b03166399248ea76040518163ffffffff1660e01b815260040160206040518083038186803b15801561276457600080fd5b505afa158015612778573d6000803e3d6000fd5b505050506040513d601f19601f8201168201806040525081019061279c9190612bf1565b90506040518061010001604052806127b3836102f5565b815260200160006001600160a01b03168152602001826001600160a01b03168152602001846001600160a01b031663198fa81e8e6040518263ffffffff1660e01b815260040161280391906132d5565b60206040518083038186803b15801561281b57600080fd5b505afa15801561282f573d6000803e3d6000fd5b505050506040513d601f19601f820116820180604052508101906128539190612cd8565b8152602001846001600160a01b0316633373ee4c8e8861010001516040518363ffffffff1660e01b815260040161288b9291906132e9565b60206040518083038186803b1580156128a357600080fd5b505afa1580156128b7573d6000803e3d6000fd5b505050506040513d601f19601f820116820180604052508101906128db9190612cd8565b815260200160008152602001600060ff168152602001826001600160a01b031663313ce5676040518163ffffffff1660e01b815260040160206040518083038186803b15801561292a57600080fd5b505afa15801561293e573d6000803e3d6000fd5b505050506040513d601f19601f820116820180604052508101906129629190612f19565b60ff168152508260008151811061298957634e487b7160e01b600052603260045260246000fd5b602002602001018190525060405180606001604052808561010001516001600160a01b03168152602001846001600160a01b03168152602001838152508787815181106129e657634e487b7160e01b600052603260045260246000fd5b60200260200101516060018190525050505b505b50508080612a07906133e0565b915050611d73565b5095945050505050565b604051806080016040528060006001600160a01b03168152602001612a3c612b2d565b8152602001612a49612b2d565b8152602001612a56612b2d565b905290565b6040518061016001604052806060815260200160006001600160a01b0316815260200160006001600160a01b031681526020016000815260200160008152602001600081526020016000815260200160008152602001600060ff168152602001600060ff168152602001600060ff1681525090565b6040518061010001604052806060815260200160006001600160a01b0316815260200160006001600160a01b03168152602001600081526020016000815260200160008152602001600060ff168152602001600060ff1681525090565b6040805160608082018352600080835260208301529181019190915290565b80516102c781613467565b600060208284031215612b68578081fd5b6040516020810181811067ffffffffffffffff82111715612b8b57612b8b613451565b6040529151825250919050565b80516001600160801b03811681146102c757600080fd5b805164ffffffffff811681146102c757600080fd5b805160ff811681146102c757600080fd5b600060208284031215612be6578081fd5b813561014681613467565b600060208284031215612c02578081fd5b815161014681613467565b60006020808385031215612c1f578182fd5b825167ffffffffffffffff80821115612c36578384fd5b818501915085601f830112612c49578384fd5b815181811115612c5b57612c5b613451565b8381029150612c6b848301613386565b8181528481019084860184860187018a1015612c85578788fd5b8795505b83861015612cb35780519450612c9e85613467565b84835260019590950194918601918601612c89565b5098975050505050505050565b600060208284031215612cd1578081fd5b5035919050565b600060208284031215612ce9578081fd5b5051919050565b60008060408385031215612d02578081fd5b8235612d0d81613467565b91506020830135612d1d81613467565b809150509250929050565b600060208284031215612d39578081fd5b815167ffffffffffffffff80821115612d50578283fd5b818401915084601f830112612d63578283fd5b815181811115612d7557612d75613451565b612d88601f8201601f1916602001613386565b9150808252856020828501011115612d9e578384fd5b611bfb8160208401602086016133b0565b60006101a0808385031215612dc2578182fd5b612dcb81613386565b9050612dd78484612b57565b8152612de560208401612b98565b6020820152612df660408401612b98565b6040820152612e0760608401612b98565b6060820152612e1860808401612b98565b6080820152612e2960a08401612b98565b60a0820152612e3a60c08401612baf565b60c0820152612e4b60e08401612b4c565b60e0820152610100612e5e818501612b4c565b90820152610120612e70848201612b4c565b90820152610140612e82848201612b4c565b90820152610160612e94848201612bc4565b90820152610180612ea6848201612bc4565b908201529392505050565b600080600060608486031215612ec5578081fd5b612ece84612b98565b9250612edc60208501612b98565b9150604084015190509250925092565b600080600060608486031215612f00578081fd5b8351925060208401519150604084015190509250925092565b600060208284031215612f2a578081fd5b61014682612bc4565b6001600160a01b03169052565b6000815180845260208085018081965082840281019150828601855b85811015612fdd578284038952815180516001600160a01b0316855285810151608087870181905290612f91828801826130b3565b91505060408083015187830382890152612fab83826130b3565b9250505060608083015192508682038188015250612fc981836130b3565b9a87019a9550505090840190600101612f5c565b5091979650505050505050565b6000815180845260208085018081965082840281019150828601855b85811015612fdd578284038952815180516001600160a01b031685528581015160808787018190529061303b828801826131dc565b9150506040808301518783038289015261305583826131dc565b925050506060808301519250868203818801525061307381836131dc565b9a87019a9550505090840190600101613006565b6000815180845261309f8160208601602086016133b0565b601f01601f19169290920160200192915050565b80516001600160a01b0390811683526020808301519091168184015260408083015160608286018190528151868201819052600094919360809390929190820190848901908084028a018601885b828110156131cd57607f198c83030184528451610160815181855261312882860182613087565b9150508782015161313b89860182612f33565b508882015161314c8a860182612f33565b50818b0151848c0152898201518a85015260a0808301519085015260c0808301519085015260e080830151908501526101008083015161318e828701826132ce565b5050610120808301516131a3828701826132ce565b505061014091820151916131b9858201846132ce565b509587019594870194925050600101613101565b509a9950505050505050505050565b6000606080840160018060a01b0380855116865260208181870151168188015260408087015185828a015284815180875260809650868b019150868582028c01018584019350895b828110156132be57607f198d83030184528451610100815181855261324b82860182613087565b915050898983015116898501528782015161326889860182612f33565b50818c0151848d01528a8201518b85015260a0808301519085015260c080830151613295828701826132ce565b505060e091820151916132aa858201846132ce565b509588019594880194925050600101613224565b509b9a5050505050505050505050565b60ff169052565b6001600160a01b0391909116815260200190565b6001600160a01b0392831681529116602082015260400190565b6001600160a01b0392909216825260ff16602082015260400190565b6000602082526101466020830184612f40565b6000604082526133456040830185612f40565b82810360208401526133578185612fea565b95945050505050565b6000602082526101466020830184612fea565b6000602082526101466020830184613087565b60405181810167ffffffffffffffff811182821017156133a8576133a8613451565b604052919050565b60005b838110156133cb5781810151838201526020016133b3565b838111156133da576000848401525b50505050565b60006000198214156133f4576133f461343b565b5060010190565b600060ff821660ff8114156134125761341261343b565b60010192915050565b60008261343657634e487b7160e01b81526012600452602481fd5b500690565b634e487b7160e01b600052601160045260246000fd5b634e487b7160e01b600052604160045260246000fd5b6001600160a01b038116811461347c57600080fd5b5056fea2646970667358221220311cd447167565b3b3fceb7f879d1e47eea529624e9b2969f13d7d778a6ce9cb64736f6c63430008000033",
  "linkReferences": {},
  "deployedLinkReferences": {}
}