{
  "_format": "hh-sol-artifact-1",
  "contractName": "UiIncentiveDataProviderV2V3",
  "sourceName": "contracts/misc/UiIncentiveDataProviderV2V3.sol",
  "abi": [
    {
      "inputs": [],
      "stateMutability": "nonpayable",
      "type": "constructor"
    },
    {
      "inputs": [],
      "name": "MKRAddress",
      "outputs": [
        {
          "internalType": "address",
          "name": "",
          "type": "address"
        }
      ],
      "stateMutability": "view",
      "type": "function"
    },
    {
      "inputs": [
        {
          "internalType": "bytes32",
          "name": "_bytes32",
          "type": "bytes32"
        }
      ],
      "name": "bytes32ToString",
      "outputs": [
        {
          "internalType": "string",
          "name": "",
          "type": "string"
        }
      ],
      "stateMutability": "pure",
      "type": "function"
    },
    {
      "inputs": [
        {
          "internalType": "contract ILendingPoolAddressesProvider",
          "name": "provider",
          "type": "address"
        },
        {
          "internalType": "address",
          "name": "user",
          "type": "address"
        }
      ],
      "name": "getFullReservesIncentiveData",
      "outputs": [
        {
          "components": [
            {
              "internalType": "address",
              "name": "underlyingAsset",
              "type": "address"
            },
            {
              "components": [
                {
                  "internalType": "address",
                  "name": "tokenAddress",
                  "type": "address"
                },
                {
                  "internalType": "address",
                  "name": "incentiveControllerAddress",
                  "type": "address"
                },
                {
                  "components": [
                    {
                      "internalType": "string",
                      "name": "rewardTokenSymbol",
                      "type": "string"
                    },
                    {
                      "internalType": "address",
                      "name": "rewardTokenAddress",
                      "type": "address"
                    },
                    {
                      "internalType": "address",
                      "name": "rewardOracleAddress",
                      "type": "address"
                    },
                    {
                      "internalType": "uint256",
                      "name": "emissionPerSecond",
                      "type": "uint256"
                    },
                    {
                      "internalType": "uint256",
                      "name": "incentivesLastUpdateTimestamp",
                      "type": "uint256"
                    },
                    {
                      "internalType": "uint256",
                      "name": "tokenIncentivesIndex",
                      "type": "uint256"
                    },
                    {
                      "internalType": "uint256",
                      "name": "emissionEndTimestamp",
                      "type": "uint256"
                    },
                    {
                      "internalType": "int256",
                      "name": "rewardPriceFeed",
                      "type": "int256"
                    },
                    {
                      "internalType": "uint8",
                      "name": "rewardTokenDecimals",
                      "type": "uint8"
                    },
                    {
                      "internalType": "uint8",
                      "name": "precision",
                      "type": "uint8"
                    },
                    {
                      "internalType": "uint8",
                      "name": "priceFeedDecimals",
                      "type": "uint8"
                    }
                  ],
                  "internalType": "struct IUiIncentiveDataProviderV3.RewardInfo[]",
                  "name": "rewardsTokenInformation",
                  "type": "tuple[]"
                }
              ],
              "internalType": "struct IUiIncentiveDataProviderV3.IncentiveData",
              "name": "aIncentiveData",
              "type": "tuple"
            },
            {
              "components": [
                {
                  "internalType": "address",
                  "name": "tokenAddress",
                  "type": "address"
                },
                {
                  "internalType": "address",
                  "name": "incentiveControllerAddress",
                  "type": "address"
                },
                {
                  "components": [
                    {
                      "internalType": "string",
                      "name": "rewardTokenSymbol",
                      "type": "string"
                    },
                    {
                      "internalType": "address",
                      "name": "rewardTokenAddress",
                      "type": "address"
                    },
                    {
                      "internalType": "address",
                      "name": "rewardOracleAddress",
                      "type": "address"
                    },
                    {
                      "internalType": "uint256",
                      "name": "emissionPerSecond",
                      "type": "uint256"
                    },
                    {
                      "internalType": "uint256",
                      "name": "incentivesLastUpdateTimestamp",
                      "type": "uint256"
                    },
                    {
                      "internalType": "uint256",
                      "name": "tokenIncentivesIndex",
                      "type": "uint256"
                    },
                    {
                      "internalType": "uint256",
                      "name": "emissionEndTimestamp",
                      "type": "uint256"
                    },
                    {
                      "internalType": "int256",
                      "name": "rewardPriceFeed",
                      "type": "int256"
                    },
                    {
                      "internalType": "uint8",
                      "name": "rewardTokenDecimals",
                      "type": "uint8"
                    },
                    {
                      "internalType": "uint8",
                      "name": "precision",
                      "type": "uint8"
                    },
                    {
                      "internalType": "uint8",
                      "name": "priceFeedDecimals",
                      "type": "uint8"
                    }
                  ],
                  "internalType": "struct IUiIncentiveDataProviderV3.RewardInfo[]",
                  "name": "rewardsTokenInformation",
                  "type": "tuple[]"
                }
              ],
              "internalType": "struct IUiIncentiveDataProviderV3.IncentiveData",
              "name": "vIncentiveData",
              "type": "tuple"
            },
            {
              "components": [
                {
                  "internalType": "address",
                  "name": "tokenAddress",
                  "type": "address"
                },
                {
                  "internalType": "address",
                  "name": "incentiveControllerAddress",
                  "type": "address"
                },
                {
                  "components": [
                    {
                      "internalType": "string",
                      "name": "rewardTokenSymbol",
                      "type": "string"
                    },
                    {
                      "internalType": "address",
                      "name": "rewardTokenAddress",
                      "type": "address"
                    },
                    {
                      "internalType": "address",
                      "name": "rewardOracleAddress",
                      "type": "address"
                    },
                    {
                      "internalType": "uint256",
                      "name": "emissionPerSecond",
                      "type": "uint256"
                    },
                    {
                      "internalType": "uint256",
                      "name": "incentivesLastUpdateTimestamp",
                      "type": "uint256"
                    },
                    {
                      "internalType": "uint256",
                      "name": "tokenIncentivesIndex",
                      "type": "uint256"
                    },
                    {
                      "internalType": "uint256",
                      "name": "emissionEndTimestamp",
                      "type": "uint256"
                    },
                    {
                      "internalType": "int256",
                      "name": "rewardPriceFeed",
                      "type": "int256"
                    },
                    {
                      "internalType": "uint8",
                      "name": "rewardTokenDecimals",
                      "type": "uint8"
                    },
                    {
                      "internalType": "uint8",
                      "name": "precision",
                      "type": "uint8"
                    },
                    {
                      "internalType": "uint8",
                      "name": "priceFeedDecimals",
                      "type": "uint8"
                    }
                  ],
                  "internalType": "struct IUiIncentiveDataProviderV3.RewardInfo[]",
                  "name": "rewardsTokenInformation",
                  "type": "tuple[]"
                }
              ],
              "internalType": "struct IUiIncentiveDataProviderV3.IncentiveData",
              "name": "sIncentiveData",
              "type": "tuple"
            }
          ],
          "internalType": "struct IUiIncentiveDataProviderV3.AggregatedReserveIncentiveData[]",
          "name": "",
          "type": "tuple[]"
        },
        {
          "components": [
            {
              "internalType": "address",
              "name": "underlyingAsset",
              "type": "address"
            },
            {
              "components": [
                {
                  "internalType": "address",
                  "name": "tokenAddress",
                  "type": "address"
                },
                {
                  "internalType": "address",
                  "name": "incentiveControllerAddress",
                  "type": "address"
                },
                {
                  "components": [
                    {
                      "internalType": "string",
                      "name": "rewardTokenSymbol",
                      "type": "string"
                    },
                    {
                      "internalType": "address",
                      "name": "rewardOracleAddress",
                      "type": "address"
                    },
                    {
                      "internalType": "address",
                      "name": "rewardTokenAddress",
                      "type": "address"
                    },
                    {
                      "internalType": "uint256",
                      "name": "userUnclaimedRewards",
                      "type": "uint256"
                    },
                    {
                      "internalType": "uint256",
                      "name": "tokenIncentivesUserIndex",
                      "type": "uint256"
                    },
                    {
                      "internalType": "int256",
                      "name": "rewardPriceFeed",
                      "type": "int256"
                    },
                    {
                      "internalType": "uint8",
                      "name": "priceFeedDecimals",
                      "type": "uint8"
                    },
                    {
                      "internalType": "uint8",
                      "name": "rewardTokenDecimals",
                      "type": "uint8"
                    }
                  ],
                  "internalType": "struct IUiIncentiveDataProviderV3.UserRewardInfo[]",
                  "name": "userRewardsInformation",
                  "type": "tuple[]"
                }
              ],
              "internalType": "struct IUiIncentiveDataProviderV3.UserIncentiveData",
              "name": "aTokenIncentivesUserData",
              "type": "tuple"
            },
            {
              "components": [
                {
                  "internalType": "address",
                  "name": "tokenAddress",
                  "type": "address"
                },
                {
                  "internalType": "address",
                  "name": "incentiveControllerAddress",
                  "type": "address"
                },
                {
                  "components": [
                    {
                      "internalType": "string",
                      "name": "rewardTokenSymbol",
                      "type": "string"
                    },
                    {
                      "internalType": "address",
                      "name": "rewardOracleAddress",
                      "type": "address"
                    },
                    {
                      "internalType": "address",
                      "name": "rewardTokenAddress",
                      "type": "address"
                    },
                    {
                      "internalType": "uint256",
                      "name": "userUnclaimedRewards",
                      "type": "uint256"
                    },
                    {
                      "internalType": "uint256",
                      "name": "tokenIncentivesUserIndex",
                      "type": "uint256"
                    },
                    {
                      "internalType": "int256",
                      "name": "rewardPriceFeed",
                      "type": "int256"
                    },
                    {
                      "internalType": "uint8",
                      "name": "priceFeedDecimals",
                      "type": "uint8"
                    },
                    {
                      "internalType": "uint8",
                      "name": "rewardTokenDecimals",
                      "type": "uint8"
                    }
                  ],
                  "internalType": "struct IUiIncentiveDataProviderV3.UserRewardInfo[]",
                  "name": "userRewardsInformation",
                  "type": "tuple[]"
                }
              ],
              "internalType": "struct IUiIncentiveDataProviderV3.UserIncentiveData",
              "name": "vTokenIncentivesUserData",
              "type": "tuple"
            },
            {
              "components": [
                {
                  "internalType": "address",
                  "name": "tokenAddress",
                  "type": "address"
                },
                {
                  "internalType": "address",
                  "name": "incentiveControllerAddress",
                  "type": "address"
                },
                {
                  "components": [
                    {
                      "internalType": "string",
                      "name": "rewardTokenSymbol",
                      "type": "string"
                    },
                    {
                      "internalType": "address",
                      "name": "rewardOracleAddress",
                      "type": "address"
                    },
                    {
                      "internalType": "address",
                      "name": "rewardTokenAddress",
                      "type": "address"
                    },
                    {
                      "internalType": "uint256",
                      "name": "userUnclaimedRewards",
                      "type": "uint256"
                    },
                    {
                      "internalType": "uint256",
                      "name": "tokenIncentivesUserIndex",
                      "type": "uint256"
                    },
                    {
                      "internalType": "int256",
                      "name": "rewardPriceFeed",
                      "type": "int256"
                    },
                    {
                      "internalType": "uint8",
                      "name": "priceFeedDecimals",
                      "type": "uint8"
                    },
                    {
                      "internalType": "uint8",
                      "name": "rewardTokenDecimals",
                      "type": "uint8"
                    }
                  ],
                  "internalType": "struct IUiIncentiveDataProviderV3.UserRewardInfo[]",
                  "name": "userRewardsInformation",
                  "type": "tuple[]"
                }
              ],
              "internalType": "struct IUiIncentiveDataProviderV3.UserIncentiveData",
              "name": "sTokenIncentivesUserData",
              "type": "tuple"
            }
          ],
          "internalType": "struct IUiIncentiveDataProviderV3.UserReserveIncentiveData[]",
          "name": "",
          "type": "tuple[]"
        }
      ],
      "stateMutability": "view",
      "type": "function"
    },
    {
      "inputs": [
        {
          "internalType": "contract ILendingPoolAddressesProvider",
          "name": "provider",
          "type": "address"
        }
      ],
      "name": "getReservesIncentivesData",
      "outputs": [
        {
          "components": [
            {
              "internalType": "address",
              "name": "underlyingAsset",
              "type": "address"
            },
            {
              "components": [
                {
                  "internalType": "address",
                  "name": "tokenAddress",
                  "type": "address"
                },
                {
                  "internalType": "address",
                  "name": "incentiveControllerAddress",
                  "type": "address"
                },
                {
                  "components": [
                    {
                      "internalType": "string",
                      "name": "rewardTokenSymbol",
                      "type": "string"
                    },
                    {
                      "internalType": "address",
                      "name": "rewardTokenAddress",
                      "type": "address"
                    },
                    {
                      "internalType": "address",
                      "name": "rewardOracleAddress",
                      "type": "address"
                    },
                    {
                      "internalType": "uint256",
                      "name": "emissionPerSecond",
                      "type": "uint256"
                    },
                    {
                      "internalType": "uint256",
                      "name": "incentivesLastUpdateTimestamp",
                      "type": "uint256"
                    },
                    {
                      "internalType": "uint256",
                      "name": "tokenIncentivesIndex",
                      "type": "uint256"
                    },
                    {
                      "internalType": "uint256",
                      "name": "emissionEndTimestamp",
                      "type": "uint256"
                    },
                    {
                      "internalType": "int256",
                      "name": "rewardPriceFeed",
                      "type": "int256"
                    },
                    {
                      "internalType": "uint8",
                      "name": "rewardTokenDecimals",
                      "type": "uint8"
                    },
                    {
                      "internalType": "uint8",
                      "name": "precision",
                      "type": "uint8"
                    },
                    {
                      "internalType": "uint8",
                      "name": "priceFeedDecimals",
                      "type": "uint8"
                    }
                  ],
                  "internalType": "struct IUiIncentiveDataProviderV3.RewardInfo[]",
                  "name": "rewardsTokenInformation",
                  "type": "tuple[]"
                }
              ],
              "internalType": "struct IUiIncentiveDataProviderV3.IncentiveData",
              "name": "aIncentiveData",
              "type": "tuple"
            },
            {
              "components": [
                {
                  "internalType": "address",
                  "name": "tokenAddress",
                  "type": "address"
                },
                {
                  "internalType": "address",
                  "name": "incentiveControllerAddress",
                  "type": "address"
                },
                {
                  "components": [
                    {
                      "internalType": "string",
                      "name": "rewardTokenSymbol",
                      "type": "string"
                    },
                    {
                      "internalType": "address",
                      "name": "rewardTokenAddress",
                      "type": "address"
                    },
                    {
                      "internalType": "address",
                      "name": "rewardOracleAddress",
                      "type": "address"
                    },
                    {
                      "internalType": "uint256",
                      "name": "emissionPerSecond",
                      "type": "uint256"
                    },
                    {
                      "internalType": "uint256",
                      "name": "incentivesLastUpdateTimestamp",
                      "type": "uint256"
                    },
                    {
                      "internalType": "uint256",
                      "name": "tokenIncentivesIndex",
                      "type": "uint256"
                    },
                    {
                      "internalType": "uint256",
                      "name": "emissionEndTimestamp",
                      "type": "uint256"
                    },
                    {
                      "internalType": "int256",
                      "name": "rewardPriceFeed",
                      "type": "int256"
                    },
                    {
                      "internalType": "uint8",
                      "name": "rewardTokenDecimals",
                      "type": "uint8"
                    },
                    {
                      "internalType": "uint8",
                      "name": "precision",
                      "type": "uint8"
                    },
                    {
                      "internalType": "uint8",
                      "name": "priceFeedDecimals",
                      "type": "uint8"
                    }
                  ],
                  "internalType": "struct IUiIncentiveDataProviderV3.RewardInfo[]",
                  "name": "rewardsTokenInformation",
                  "type": "tuple[]"
                }
              ],
              "internalType": "struct IUiIncentiveDataProviderV3.IncentiveData",
              "name": "vIncentiveData",
              "type": "tuple"
            },
            {
              "components": [
                {
                  "internalType": "address",
                  "name": "tokenAddress",
                  "type": "address"
                },
                {
                  "internalType": "address",
                  "name": "incentiveControllerAddress",
                  "type": "address"
                },
                {
                  "components": [
                    {
                      "internalType": "string",
                      "name": "rewardTokenSymbol",
                      "type": "string"
                    },
                    {
                      "internalType": "address",
                      "name": "rewardTokenAddress",
                      "type": "address"
                    },
                    {
                      "internalType": "address",
                      "name": "rewardOracleAddress",
                      "type": "address"
                    },
                    {
                      "internalType": "uint256",
                      "name": "emissionPerSecond",
                      "type": "uint256"
                    },
                    {
                      "internalType": "uint256",
                      "name": "incentivesLastUpdateTimestamp",
                      "type": "uint256"
                    },
                    {
                      "internalType": "uint256",
                      "name": "tokenIncentivesIndex",
                      "type": "uint256"
                    },
                    {
                      "internalType": "uint256",
                      "name": "emissionEndTimestamp",
                      "type": "uint256"
                    },
                    {
                      "internalType": "int256",
                      "name": "rewardPriceFeed",
                      "type": "int256"
                    },
                    {
                      "internalType": "uint8",
                      "name": "rewardTokenDecimals",
                      "type": "uint8"
                    },
                    {
                      "internalType": "uint8",
                      "name": "precision",
                      "type": "uint8"
                    },
                    {
                      "internalType": "uint8",
                      "name": "priceFeedDecimals",
                      "type": "uint8"
                    }
                  ],
                  "internalType": "struct IUiIncentiveDataProviderV3.RewardInfo[]",
                  "name": "rewardsTokenInformation",
                  "type": "tuple[]"
                }
              ],
              "internalType": "struct IUiIncentiveDataProviderV3.IncentiveData",
              "name": "sIncentiveData",
              "type": "tuple"
            }
          ],
          "internalType": "struct IUiIncentiveDataProviderV3.AggregatedReserveIncentiveData[]",
          "name": "",
          "type": "tuple[]"
        }
      ],
      "stateMutability": "view",
      "type": "function"
    },
    {
      "inputs": [
        {
          "internalType": "address",
          "name": "rewardToken",
          "type": "address"
        }
      ],
      "name": "getSymbol",
      "outputs": [
        {
          "internalType": "string",
          "name": "",
          "type": "string"
        }
      ],
      "stateMutability": "view",
      "type": "function"
    },
    {
      "inputs": [
        {
          "internalType": "contract ILendingPoolAddressesProvider",
          "name": "provider",
          "type": "address"
        },
        {
          "internalType": "address",
          "name": "user",
          "type": "address"
        }
      ],
      "name": "getUserReservesIncentivesData",
      "outputs": [
        {
          "components": [
            {
              "internalType": "address",
              "name": "underlyingAsset",
              "type": "address"
            },
            {
              "components": [
                {
                  "internalType": "address",
                  "name": "tokenAddress",
                  "type": "address"
                },
                {
                  "internalType": "address",
                  "name": "incentiveControllerAddress",
                  "type": "address"
                },
                {
                  "components": [
                    {
                      "internalType": "string",
                      "name": "rewardTokenSymbol",
                      "type": "string"
                    },
                    {
                      "internalType": "address",
                      "name": "rewardOracleAddress",
                      "type": "address"
                    },
                    {
                      "internalType": "address",
                      "name": "rewardTokenAddress",
                      "type": "address"
                    },
                    {
                      "internalType": "uint256",
                      "name": "userUnclaimedRewards",
                      "type": "uint256"
                    },
                    {
                      "internalType": "uint256",
                      "name": "tokenIncentivesUserIndex",
                      "type": "uint256"
                    },
                    {
                      "internalType": "int256",
                      "name": "rewardPriceFeed",
                      "type": "int256"
                    },
                    {
                      "internalType": "uint8",
                      "name": "priceFeedDecimals",
                      "type": "uint8"
                    },
                    {
                      "internalType": "uint8",
                      "name": "rewardTokenDecimals",
                      "type": "uint8"
                    }
                  ],
                  "internalType": "struct IUiIncentiveDataProviderV3.UserRewardInfo[]",
                  "name": "userRewardsInformation",
                  "type": "tuple[]"
                }
              ],
              "internalType": "struct IUiIncentiveDataProviderV3.UserIncentiveData",
              "name": "aTokenIncentivesUserData",
              "type": "tuple"
            },
            {
              "components": [
                {
                  "internalType": "address",
                  "name": "tokenAddress",
                  "type": "address"
                },
                {
                  "internalType": "address",
                  "name": "incentiveControllerAddress",
                  "type": "address"
                },
                {
                  "components": [
                    {
                      "internalType": "string",
                      "name": "rewardTokenSymbol",
                      "type": "string"
                    },
                    {
                      "internalType": "address",
                      "name": "rewardOracleAddress",
                      "type": "address"
                    },
                    {
                      "internalType": "address",
                      "name": "rewardTokenAddress",
                      "type": "address"
                    },
                    {
                      "internalType": "uint256",
                      "name": "userUnclaimedRewards",
                      "type": "uint256"
                    },
                    {
                      "internalType": "uint256",
                      "name": "tokenIncentivesUserIndex",
                      "type": "uint256"
                    },
                    {
                      "internalType": "int256",
                      "name": "rewardPriceFeed",
                      "type": "int256"
                    },
                    {
                      "internalType": "uint8",
                      "name": "priceFeedDecimals",
                      "type": "uint8"
                    },
                    {
                      "internalType": "uint8",
                      "name": "rewardTokenDecimals",
                      "type": "uint8"
                    }
                  ],
                  "internalType": "struct IUiIncentiveDataProviderV3.UserRewardInfo[]",
                  "name": "userRewardsInformation",
                  "type": "tuple[]"
                }
              ],
              "internalType": "struct IUiIncentiveDataProviderV3.UserIncentiveData",
              "name": "vTokenIncentivesUserData",
              "type": "tuple"
            },
            {
              "components": [
                {
                  "internalType": "address",
                  "name": "tokenAddress",
                  "type": "address"
                },
                {
                  "internalType": "address",
                  "name": "incentiveControllerAddress",
                  "type": "address"
                },
                {
                  "components": [
                    {
                      "internalType": "string",
                      "name": "rewardTokenSymbol",
                      "type": "string"
                    },
                    {
                      "internalType": "address",
                      "name": "rewardOracleAddress",
                      "type": "address"
                    },
                    {
                      "internalType": "address",
                      "name": "rewardTokenAddress",
                      "type": "address"
                    },
                    {
                      "internalType": "uint256",
                      "name": "userUnclaimedRewards",
                      "type": "uint256"
                    },
                    {
                      "internalType": "uint256",
                      "name": "tokenIncentivesUserIndex",
                      "type": "uint256"
                    },
                    {
                      "internalType": "int256",
                      "name": "rewardPriceFeed",
                      "type": "int256"
                    },
                    {
                      "internalType": "uint8",
                      "name": "priceFeedDecimals",
                      "type": "uint8"
                    },
                    {
                      "internalType": "uint8",
                      "name": "rewardTokenDecimals",
                      "type": "uint8"
                    }
                  ],
                  "internalType": "struct IUiIncentiveDataProviderV3.UserRewardInfo[]",
                  "name": "userRewardsInformation",
                  "type": "tuple[]"
                }
              ],
              "internalType": "struct IUiIncentiveDataProviderV3.UserIncentiveData",
              "name": "sTokenIncentivesUserData",
              "type": "tuple"
            }
          ],
          "internalType": "struct IUiIncentiveDataProviderV3.UserReserveIncentiveData[]",
          "name": "",
          "type": "tuple[]"
        }
      ],
      "stateMutability": "view",
      "type": "function"
    }
  ],
  "bytecode": "0x608060405234801561001057600080fd5b50613401806100206000396000f3fe608060405234801561001057600080fd5b50600436106100625760003560e01c80634763753614610067578063799bdcf5146100915780639201de55146100b1578063976fafc5146100d15780639dd9e2ce146100f1578063c9b2e52214610106575b600080fd5b61007a610075366004612c8a565b610119565b60405161008892919061329e565b60405180910390f35b6100a461009f366004612c8a565b61013a565b60405161008891906132cc565b6100c46100bf366004612c5a565b61014d565b60405161008891906132df565b6100e46100df366004612b6f565b6102cc565b604051610088919061328b565b6100f96102dd565b604051610088919061325d565b6100c4610114366004612b6f565b6102f5565b6060806101258461041e565b61012f8585611bd9565b915091509250929050565b60606101468383611bd9565b9392505050565b606060005b60208160ff161080156101945750828160ff166020811061018357634e487b7160e01b600052603260045260246000fd5b1a60f81b6001600160f81b03191615155b156101ab57806101a381613367565b915050610152565b60008160ff1667ffffffffffffffff8111156101d757634e487b7160e01b600052604160045260246000fd5b6040519080825280601f01601f191660200182016040528015610201576020820181803683370190505b509050600091505b60208260ff1610801561024b5750838260ff166020811061023a57634e487b7160e01b600052603260045260246000fd5b1a60f81b6001600160f81b03191615155b156102c357838260ff166020811061027357634e487b7160e01b600052603260045260246000fd5b1a60f81b818360ff168151811061029a57634e487b7160e01b600052603260045260246000fd5b60200101906001600160f81b031916908160001a905350816102bb81613367565b925050610209565b9150505b919050565b60606102d78261041e565b92915050565b739f8f72aa9304c8b593d555f12ef6589cc3a579a281565b60606001600160a01b038216739f8f72aa9304c8b593d555f12ef6589cc3a579a214156103a2576000826001600160a01b03166395d89b416040518163ffffffff1660e01b815260040160206040518083038186803b15801561035757600080fd5b505afa15801561036b573d6000803e3d6000fd5b505050506040513d601f19601f8201168201806040525081019061038f9190612c72565b905061039a8161014d565b9150506102c7565b816001600160a01b03166395d89b416040518163ffffffff1660e01b815260040160006040518083038186803b1580156103db57600080fd5b505afa1580156103ef573d6000803e3d6000fd5b505050506040513d6000823e601f3d908101601f191682016040526104179190810190612cc2565b90506102c7565b60606000826001600160a01b0316630261bf8b6040518163ffffffff1660e01b815260040160206040518083038186803b15801561045b57600080fd5b505afa15801561046f573d6000803e3d6000fd5b505050506040513d601f19601f820116820180604052508101906104939190612b8b565b90506000816001600160a01b031663d1946dbc6040518163ffffffff1660e01b815260040160006040518083038186803b1580156104d057600080fd5b505afa1580156104e4573d6000803e3d6000fd5b505050506040513d6000823e601f3d908101601f1916820160405261050c9190810190612ba7565b90506000815167ffffffffffffffff81111561053857634e487b7160e01b600052604160045260246000fd5b60405190808252806020026020018201604052801561057157816020015b61055e6129b3565b8152602001906001900390816105565790505b50905060005b8251811015611bd05760008282815181106105a257634e487b7160e01b600052603260045260246000fd5b602002602001015190508382815181106105cc57634e487b7160e01b600052603260045260246000fd5b602002602001015181600001906001600160a01b031690816001600160a01b0316815250506000856001600160a01b03166335ea6a7586858151811061062257634e487b7160e01b600052603260045260246000fd5b60200260200101516040518263ffffffff1660e01b8152600401610646919061325d565b6101806040518083038186803b15801561065f57600080fd5b505afa158015610673573d6000803e3d6000fd5b505050506040513d601f19601f820116820180604052508101906106979190612d49565b90508060e001516001600160a01b03166375d264136040518163ffffffff1660e01b815260040160206040518083038186803b1580156106d657600080fd5b505afa925050508015610706575060408051601f3d908101601f1916820190925261070391810190612b8b565b60015b610740573d808015610734576040519150601f19603f3d011682016040523d82523d6000602084013e610739565b606091505b5050610da1565b604080516001808252818301909252600091816020015b61075f6129f5565b8152602001906001900390816107575790505090506001600160a01b03821615610d9e576000826001600160a01b03166399248ea76040518163ffffffff1660e01b815260040160206040518083038186803b1580156107be57600080fd5b505afa1580156107d2573d6000803e3d6000fd5b505050506040513d601f19601f820116820180604052508101906107f69190612b8b565b60e0850151604051631652e7b760e01b81529192506001600160a01b03851691631652e7b7916108289160040161325d565b60606040518083038186803b15801561084057600080fd5b505afa925050508015610870575060408051601f3d908101601f1916820190925261086d91810190612e74565b60015b610b71573d80801561089e576040519150601f19603f3d011682016040523d82523d6000602084013e6108a3565b606091505b506000806000866001600160a01b031663f11b81888960e001516040518263ffffffff1660e01b81526004016108d9919061325d565b60606040518083038186803b1580156108f157600080fd5b505afa158015610905573d6000803e3d6000fd5b505050506040513d601f19601f820116820180604052508101906109299190612e39565b92506001600160801b031692506001600160801b03169250604051806101600160405280610956876102f5565b8152602001866001600160a01b0316815260200160006001600160a01b03168152602001848152602001838152602001828152602001886001600160a01b031663919cd40f6040518163ffffffff1660e01b815260040160206040518083038186803b1580156109c557600080fd5b505afa1580156109d9573d6000803e3d6000fd5b505050506040513d601f19601f820116820180604052508101906109fd9190612c72565b815260200160008152602001866001600160a01b031663313ce5676040518163ffffffff1660e01b815260040160206040518083038186803b158015610a4257600080fd5b505afa158015610a56573d6000803e3d6000fd5b505050506040513d601f19601f82011682018060405250810190610a7a9190612ea1565b60ff168152602001886001600160a01b031663aaf5eb686040518163ffffffff1660e01b815260040160206040518083038186803b158015610abb57600080fd5b505afa158015610acf573d6000803e3d6000fd5b505050506040513d601f19601f82011682018060405250810190610af39190612ea1565b60ff168152602001600060ff1681525086600081518110610b2457634e487b7160e01b600052603260045260246000fd5b602002602001018190525060405180606001604052808960e001516001600160a01b03168152602001886001600160a01b0316815260200187815250896020018190525050505050610d9c565b604051806101600160405280610b86866102f5565b8152602001856001600160a01b0316815260200160006001600160a01b03168152602001838152602001828152602001848152602001876001600160a01b031663919cd40f6040518163ffffffff1660e01b815260040160206040518083038186803b158015610bf557600080fd5b505afa158015610c09573d6000803e3d6000fd5b505050506040513d601f19601f82011682018060405250810190610c2d9190612c72565b815260200160008152602001856001600160a01b031663313ce5676040518163ffffffff1660e01b815260040160206040518083038186803b158015610c7257600080fd5b505afa158015610c86573d6000803e3d6000fd5b505050506040513d601f19601f82011682018060405250810190610caa9190612ea1565b60ff168152602001876001600160a01b031663aaf5eb686040518163ffffffff1660e01b815260040160206040518083038186803b158015610ceb57600080fd5b505afa158015610cff573d6000803e3d6000fd5b505050506040513d601f19601f82011682018060405250810190610d239190612ea1565b60ff168152602001600060ff1681525085600081518110610d5457634e487b7160e01b600052603260045260246000fd5b602002602001018190525060405180606001604052808860e001516001600160a01b03168152602001876001600160a01b031681526020018681525088602001819052505050505b505b50505b8061010001516001600160a01b03166375d264136040518163ffffffff1660e01b815260040160206040518083038186803b158015610ddf57600080fd5b505afa925050508015610e0f575060408051601f3d908101601f19168201909252610e0c91810190612b8b565b60015b610e49573d808015610e3d576040519150601f19603f3d011682016040523d82523d6000602084013e610e42565b606091505b50506114ae565b604080516001808252818301909252600091816020015b610e686129f5565b815260200190600190039081610e605790505090506001600160a01b038216156114ab576000826001600160a01b03166399248ea76040518163ffffffff1660e01b815260040160206040518083038186803b158015610ec757600080fd5b505afa158015610edb573d6000803e3d6000fd5b505050506040513d601f19601f82011682018060405250810190610eff9190612b8b565b610100850151604051631652e7b760e01b81529192506001600160a01b03851691631652e7b791610f329160040161325d565b60606040518083038186803b158015610f4a57600080fd5b505afa925050508015610f7a575060408051601f3d908101601f19168201909252610f7791810190612e74565b60015b61127d573d808015610fa8576040519150601f19603f3d011682016040523d82523d6000602084013e610fad565b606091505b506000806000866001600160a01b031663f11b81888961010001516040518263ffffffff1660e01b8152600401610fe4919061325d565b60606040518083038186803b158015610ffc57600080fd5b505afa158015611010573d6000803e3d6000fd5b505050506040513d601f19601f820116820180604052508101906110349190612e39565b92506001600160801b031692506001600160801b03169250604051806101600160405280611061876102f5565b8152602001866001600160a01b0316815260200160006001600160a01b03168152602001848152602001838152602001828152602001886001600160a01b031663919cd40f6040518163ffffffff1660e01b815260040160206040518083038186803b1580156110d057600080fd5b505afa1580156110e4573d6000803e3d6000fd5b505050506040513d601f19601f820116820180604052508101906111089190612c72565b815260200160008152602001866001600160a01b031663313ce5676040518163ffffffff1660e01b815260040160206040518083038186803b15801561114d57600080fd5b505afa158015611161573d6000803e3d6000fd5b505050506040513d601f19601f820116820180604052508101906111859190612ea1565b60ff168152602001886001600160a01b031663aaf5eb686040518163ffffffff1660e01b815260040160206040518083038186803b1580156111c657600080fd5b505afa1580156111da573d6000803e3d6000fd5b505050506040513d601f19601f820116820180604052508101906111fe9190612ea1565b60ff168152602001600060ff168152508660008151811061122f57634e487b7160e01b600052603260045260246000fd5b602002602001018190525060405180606001604052808961010001516001600160a01b03168152602001886001600160a01b03168152602001878152508960600181905250505050506114a9565b604051806101600160405280611292866102f5565b8152602001856001600160a01b0316815260200160006001600160a01b03168152602001838152602001828152602001848152602001876001600160a01b031663919cd40f6040518163ffffffff1660e01b815260040160206040518083038186803b15801561130157600080fd5b505afa158015611315573d6000803e3d6000fd5b505050506040513d601f19601f820116820180604052508101906113399190612c72565b815260200160008152602001856001600160a01b031663313ce5676040518163ffffffff1660e01b815260040160206040518083038186803b15801561137e57600080fd5b505afa158015611392573d6000803e3d6000fd5b505050506040513d601f19601f820116820180604052508101906113b69190612ea1565b60ff168152602001876001600160a01b031663aaf5eb686040518163ffffffff1660e01b815260040160206040518083038186803b1580156113f757600080fd5b505afa15801561140b573d6000803e3d6000fd5b505050506040513d601f19601f8201168201806040525081019061142f9190612ea1565b60ff168152602001600060ff168152508560008151811061146057634e487b7160e01b600052603260045260246000fd5b602002602001018190525060405180606001604052808861010001516001600160a01b03168152602001876001600160a01b031681526020018681525088606001819052505050505b505b50505b8061012001516001600160a01b03166375d264136040518163ffffffff1660e01b815260040160206040518083038186803b1580156114ec57600080fd5b505afa92505050801561151c575060408051601f3d908101601f1916820190925261151991810190612b8b565b60015b611556573d80801561154a576040519150601f19603f3d011682016040523d82523d6000602084013e61154f565b606091505b5050611bbb565b604080516001808252818301909252600091816020015b6115756129f5565b81526020019060019003908161156d5790505090506001600160a01b03821615611bb8576000826001600160a01b03166399248ea76040518163ffffffff1660e01b815260040160206040518083038186803b1580156115d457600080fd5b505afa1580156115e8573d6000803e3d6000fd5b505050506040513d601f19601f8201168201806040525081019061160c9190612b8b565b610120850151604051631652e7b760e01b81529192506001600160a01b03851691631652e7b79161163f9160040161325d565b60606040518083038186803b15801561165757600080fd5b505afa925050508015611687575060408051601f3d908101601f1916820190925261168491810190612e74565b60015b61198a573d8080156116b5576040519150601f19603f3d011682016040523d82523d6000602084013e6116ba565b606091505b506000806000866001600160a01b031663f11b81888961012001516040518263ffffffff1660e01b81526004016116f1919061325d565b60606040518083038186803b15801561170957600080fd5b505afa15801561171d573d6000803e3d6000fd5b505050506040513d601f19601f820116820180604052508101906117419190612e39565b92506001600160801b031692506001600160801b0316925060405180610160016040528061176e876102f5565b8152602001866001600160a01b0316815260200160006001600160a01b03168152602001848152602001838152602001828152602001886001600160a01b031663919cd40f6040518163ffffffff1660e01b815260040160206040518083038186803b1580156117dd57600080fd5b505afa1580156117f1573d6000803e3d6000fd5b505050506040513d601f19601f820116820180604052508101906118159190612c72565b815260200160008152602001866001600160a01b031663313ce5676040518163ffffffff1660e01b815260040160206040518083038186803b15801561185a57600080fd5b505afa15801561186e573d6000803e3d6000fd5b505050506040513d601f19601f820116820180604052508101906118929190612ea1565b60ff168152602001886001600160a01b031663aaf5eb686040518163ffffffff1660e01b815260040160206040518083038186803b1580156118d357600080fd5b505afa1580156118e7573d6000803e3d6000fd5b505050506040513d601f19601f8201168201806040525081019061190b9190612ea1565b60ff168152602001600060ff168152508660008151811061193c57634e487b7160e01b600052603260045260246000fd5b602002602001018190525060405180606001604052808961012001516001600160a01b03168152602001886001600160a01b0316815260200187815250896040018190525050505050611bb6565b60405180610160016040528061199f866102f5565b8152602001856001600160a01b0316815260200160006001600160a01b03168152602001838152602001828152602001848152602001876001600160a01b031663919cd40f6040518163ffffffff1660e01b815260040160206040518083038186803b158015611a0e57600080fd5b505afa158015611a22573d6000803e3d6000fd5b505050506040513d601f19601f82011682018060405250810190611a469190612c72565b815260200160008152602001856001600160a01b031663313ce5676040518163ffffffff1660e01b815260040160206040518083038186803b158015611a8b57600080fd5b505afa158015611a9f573d6000803e3d6000fd5b505050506040513d601f19601f82011682018060405250810190611ac39190612ea1565b60ff168152602001876001600160a01b031663aaf5eb686040518163ffffffff1660e01b815260040160206040518083038186803b158015611b0457600080fd5b505afa158015611b18573d6000803e3d6000fd5b505050506040513d601f19601f82011682018060405250810190611b3c9190612ea1565b60ff168152602001600060ff1681525085600081518110611b6d57634e487b7160e01b600052603260045260246000fd5b602002602001018190525060405180606001604052808861012001516001600160a01b03168152602001876001600160a01b031681526020018681525088604001819052505050505b505b50505b50508080611bc89061334c565b915050610577565b50949350505050565b60606000836001600160a01b0316630261bf8b6040518163ffffffff1660e01b815260040160206040518083038186803b158015611c1657600080fd5b505afa158015611c2a573d6000803e3d6000fd5b505050506040513d601f19601f82011682018060405250810190611c4e9190612b8b565b90506000816001600160a01b031663d1946dbc6040518163ffffffff1660e01b815260040160006040518083038186803b158015611c8b57600080fd5b505afa158015611c9f573d6000803e3d6000fd5b505050506040513d6000823e601f3d908101601f19168201604052611cc79190810190612ba7565b905060006001600160a01b038516611ce0576000611ce3565b81515b67ffffffffffffffff811115611d0957634e487b7160e01b600052604160045260246000fd5b604051908082528060200260200182016040528015611d4257816020015b611d2f6129b3565b815260200190600190039081611d275790505b50905060005b82518110156129a9576000846001600160a01b03166335ea6a75858481518110611d8257634e487b7160e01b600052603260045260246000fd5b60200260200101516040518263ffffffff1660e01b8152600401611da6919061325d565b6101806040518083038186803b158015611dbf57600080fd5b505afa158015611dd3573d6000803e3d6000fd5b505050506040513d601f19601f82011682018060405250810190611df79190612d49565b9050838281518110611e1957634e487b7160e01b600052603260045260246000fd5b6020026020010151838381518110611e4157634e487b7160e01b600052603260045260246000fd5b6020026020010151600001906001600160a01b031690816001600160a01b0316815250508060e001516001600160a01b03166375d264136040518163ffffffff1660e01b815260040160206040518083038186803b158015611ea257600080fd5b505afa925050508015611ed2575060408051601f3d908101601f19168201909252611ecf91810190612b8b565b60015b611f0c573d808015611f00576040519150601f19603f3d011682016040523d82523d6000602084013e611f05565b606091505b505061221e565b6001600160a01b0381161561221c57604080516001808252818301909252600091816020015b611f3a612a6a565b815260200190600190039081611f325790505090506000826001600160a01b03166399248ea76040518163ffffffff1660e01b815260040160206040518083038186803b158015611f8a57600080fd5b505afa158015611f9e573d6000803e3d6000fd5b505050506040513d601f19601f82011682018060405250810190611fc29190612b8b565b9050604051806101000160405280611fd9836102f5565b815260200160006001600160a01b03168152602001826001600160a01b03168152602001846001600160a01b031663198fa81e8d6040518263ffffffff1660e01b8152600401612029919061325d565b60206040518083038186803b15801561204157600080fd5b505afa158015612055573d6000803e3d6000fd5b505050506040513d601f19601f820116820180604052508101906120799190612c72565b8152602001846001600160a01b0316633373ee4c8d8860e001516040518363ffffffff1660e01b81526004016120b0929190613271565b60206040518083038186803b1580156120c857600080fd5b505afa1580156120dc573d6000803e3d6000fd5b505050506040513d601f19601f820116820180604052508101906121009190612c72565b815260200160008152602001600060ff168152602001826001600160a01b031663313ce5676040518163ffffffff1660e01b815260040160206040518083038186803b15801561214f57600080fd5b505afa158015612163573d6000803e3d6000fd5b505050506040513d601f19601f820116820180604052508101906121879190612ea1565b60ff16815250826000815181106121ae57634e487b7160e01b600052603260045260246000fd5b602002602001018190525060405180606001604052808560e001516001600160a01b03168152602001846001600160a01b031681526020018381525086868151811061220a57634e487b7160e01b600052603260045260246000fd5b60200260200101516020018190525050505b505b8061012001516001600160a01b03166375d264136040518163ffffffff1660e01b815260040160206040518083038186803b15801561225c57600080fd5b505afa92505050801561228c575060408051601f3d908101601f1916820190925261228991810190612b8b565b60015b6122c6573d8080156122ba576040519150601f19603f3d011682016040523d82523d6000602084013e6122bf565b606091505b50506125da565b6001600160a01b038116156125d857604080516001808252818301909252600091816020015b6122f4612a6a565b8152602001906001900390816122ec5790505090506000826001600160a01b03166399248ea76040518163ffffffff1660e01b815260040160206040518083038186803b15801561234457600080fd5b505afa158015612358573d6000803e3d6000fd5b505050506040513d601f19601f8201168201806040525081019061237c9190612b8b565b9050604051806101000160405280612393836102f5565b815260200160006001600160a01b03168152602001826001600160a01b03168152602001846001600160a01b031663198fa81e8d6040518263ffffffff1660e01b81526004016123e3919061325d565b60206040518083038186803b1580156123fb57600080fd5b505afa15801561240f573d6000803e3d6000fd5b505050506040513d601f19601f820116820180604052508101906124339190612c72565b8152602001846001600160a01b0316633373ee4c8d8861012001516040518363ffffffff1660e01b815260040161246b929190613271565b60206040518083038186803b15801561248357600080fd5b505afa158015612497573d6000803e3d6000fd5b505050506040513d601f19601f820116820180604052508101906124bb9190612c72565b815260200160008152602001600060ff168152602001826001600160a01b031663313ce5676040518163ffffffff1660e01b815260040160206040518083038186803b15801561250a57600080fd5b505afa15801561251e573d6000803e3d6000fd5b505050506040513d601f19601f820116820180604052508101906125429190612ea1565b60ff168152508260008151811061256957634e487b7160e01b600052603260045260246000fd5b602002602001018190525060405180606001604052808561012001516001600160a01b03168152602001846001600160a01b03168152602001838152508686815181106125c657634e487b7160e01b600052603260045260246000fd5b60200260200101516040018190525050505b505b8061010001516001600160a01b03166375d264136040518163ffffffff1660e01b815260040160206040518083038186803b15801561261857600080fd5b505afa925050508015612648575060408051601f3d908101601f1916820190925261264591810190612b8b565b60015b612682573d808015612676576040519150601f19603f3d011682016040523d82523d6000602084013e61267b565b606091505b5050612996565b6001600160a01b0381161561299457604080516001808252818301909252600091816020015b6126b0612a6a565b8152602001906001900390816126a85790505090506000826001600160a01b03166399248ea76040518163ffffffff1660e01b815260040160206040518083038186803b15801561270057600080fd5b505afa158015612714573d6000803e3d6000fd5b505050506040513d601f19601f820116820180604052508101906127389190612b8b565b905060405180610100016040528061274f836102f5565b815260200160006001600160a01b03168152602001826001600160a01b03168152602001846001600160a01b031663198fa81e8d6040518263ffffffff1660e01b815260040161279f919061325d565b60206040518083038186803b1580156127b757600080fd5b505afa1580156127cb573d6000803e3d6000fd5b505050506040513d601f19601f820116820180604052508101906127ef9190612c72565b8152602001846001600160a01b0316633373ee4c8d8861010001516040518363ffffffff1660e01b8152600401612827929190613271565b60206040518083038186803b15801561283f57600080fd5b505afa158015612853573d6000803e3d6000fd5b505050506040513d601f19601f820116820180604052508101906128779190612c72565b815260200160008152602001600060ff168152602001826001600160a01b031663313ce5676040518163ffffffff1660e01b815260040160206040518083038186803b1580156128c657600080fd5b505afa1580156128da573d6000803e3d6000fd5b505050506040513d601f19601f820116820180604052508101906128fe9190612ea1565b60ff168152508260008151811061292557634e487b7160e01b600052603260045260246000fd5b602002602001018190525060405180606001604052808561010001516001600160a01b03168152602001846001600160a01b031681526020018381525086868151811061298257634e487b7160e01b600052603260045260246000fd5b60200260200101516060018190525050505b505b50806129a18161334c565b915050611d48565b5095945050505050565b604051806080016040528060006001600160a01b031681526020016129d6612ac7565b81526020016129e3612ac7565b81526020016129f0612ac7565b905290565b6040518061016001604052806060815260200160006001600160a01b0316815260200160006001600160a01b031681526020016000815260200160008152602001600081526020016000815260200160008152602001600060ff168152602001600060ff168152602001600060ff1681525090565b6040518061010001604052806060815260200160006001600160a01b0316815260200160006001600160a01b03168152602001600081526020016000815260200160008152602001600060ff168152602001600060ff1681525090565b6040805160608082018352600080835260208301529181019190915290565b80516102c7816133b3565b600060208284031215612b02578081fd5b6040516020810181811067ffffffffffffffff82111715612b2557612b2561339d565b6040529151825250919050565b80516001600160801b03811681146102c757600080fd5b805164ffffffffff811681146102c757600080fd5b805160ff811681146102c757600080fd5b600060208284031215612b80578081fd5b8135610146816133b3565b600060208284031215612b9c578081fd5b8151610146816133b3565b60006020808385031215612bb9578182fd5b825167ffffffffffffffff80821115612bd0578384fd5b818501915085601f830112612be3578384fd5b815181811115612bf557612bf561339d565b8381029150612c058483016132f2565b8181528481019084860184860187018a1015612c1f578788fd5b8795505b83861015612c4d5780519450612c38856133b3565b84835260019590950194918601918601612c23565b5098975050505050505050565b600060208284031215612c6b578081fd5b5035919050565b600060208284031215612c83578081fd5b5051919050565b60008060408385031215612c9c578081fd5b8235612ca7816133b3565b91506020830135612cb7816133b3565b809150509250929050565b600060208284031215612cd3578081fd5b815167ffffffffffffffff80821115612cea578283fd5b818401915084601f830112612cfd578283fd5b815181811115612d0f57612d0f61339d565b612d22601f8201601f19166020016132f2565b9150808252856020828501011115612d38578384fd5b611bd081602084016020860161331c565b6000610180808385031215612d5c578182fd5b612d65816132f2565b9050612d718484612af1565b8152612d7f60208401612b32565b6020820152612d9060408401612b32565b6040820152612da160608401612b32565b6060820152612db260808401612b32565b6080820152612dc360a08401612b32565b60a0820152612dd460c08401612b49565b60c0820152612de560e08401612ae6565b60e0820152610100612df8818501612ae6565b90820152610120612e0a848201612ae6565b90820152610140612e1c848201612ae6565b90820152610160612e2e848201612b5e565b908201529392505050565b600080600060608486031215612e4d578081fd5b612e5684612b32565b9250612e6460208501612b32565b9150604084015190509250925092565b600080600060608486031215612e88578081fd5b8351925060208401519150604084015190509250925092565b600060208284031215612eb2578081fd5b61014682612b5e565b6001600160a01b03169052565b6000815180845260208085018081965082840281019150828601855b85811015612f65578284038952815180516001600160a01b0316855285810151608087870181905290612f198288018261303b565b91505060408083015187830382890152612f33838261303b565b9250505060608083015192508682038188015250612f51818361303b565b9a87019a9550505090840190600101612ee4565b5091979650505050505050565b6000815180845260208085018081965082840281019150828601855b85811015612f65578284038952815180516001600160a01b0316855285810151608087870181905290612fc382880182613164565b91505060408083015187830382890152612fdd8382613164565b9250505060608083015192508682038188015250612ffb8183613164565b9a87019a9550505090840190600101612f8e565b6000815180845261302781602086016020860161331c565b601f01601f19169290920160200192915050565b80516001600160a01b0390811683526020808301519091168184015260408083015160608286018190528151868201819052600094919360809390929190820190848901908084028a018601885b8281101561315557607f198c8303018452845161016081518185526130b08286018261300f565b915050878201516130c389860182612ebb565b50888201516130d48a860182612ebb565b50818b0151848c0152898201518a85015260a0808301519085015260c0808301519085015260e080830151908501526101008083015161311682870182613256565b50506101208083015161312b82870182613256565b5050610140918201519161314185820184613256565b509587019594870194925050600101613089565b509a9950505050505050505050565b6000606080840160018060a01b0380855116865260208181870151168188015260408087015185828a015284815180875260809650868b019150868582028c01018584019350895b8281101561324657607f198d8303018452845161010081518185526131d38286018261300f565b91505089898301511689850152878201516131f089860182612ebb565b50818c0151848d01528a8201518b85015260a0808301519085015260c08083015161321d82870182613256565b505060e0918201519161323285820184613256565b5095880195948801949250506001016131ac565b509b9a5050505050505050505050565b60ff169052565b6001600160a01b0391909116815260200190565b6001600160a01b0392831681529116602082015260400190565b6000602082526101466020830184612ec8565b6000604082526132b16040830185612ec8565b82810360208401526132c38185612f72565b95945050505050565b6000602082526101466020830184612f72565b600060208252610146602083018461300f565b60405181810167ffffffffffffffff811182821017156133145761331461339d565b604052919050565b60005b8381101561333757818101518382015260200161331f565b83811115613346576000848401525b50505050565b600060001982141561336057613360613387565b5060010190565b600060ff821660ff81141561337e5761337e613387565b60010192915050565b634e487b7160e01b600052601160045260246000fd5b634e487b7160e01b600052604160045260246000fd5b6001600160a01b03811681146133c857600080fd5b5056fea26469706673582212209098b1722a8f1a8ac88ba5663e1f38ddaa75af0e6080107e3a41b6df14a5dc4064736f6c63430008000033",
  "linkReferences": {},
  "deployedLinkReferences": {}
}