{
  "_format": "hh-sol-artifact-1",
  "contractName": "WalletBalanceProvider",
  "sourceName": "contracts/misc/WalletBalanceProvider.sol",
  "abi": [
    {
      "inputs": [
        {
          "internalType": "address",
          "name": "user",
          "type": "address"
        },
        {
          "internalType": "address",
          "name": "token",
          "type": "address"
        }
      ],
      "name": "balanceOf",
      "outputs": [
        {
          "internalType": "uint256",
          "name": "",
          "type": "uint256"
        }
      ],
      "stateMutability": "view",
      "type": "function"
    },
    {
      "inputs": [
        {
          "internalType": "address[]",
          "name": "users",
          "type": "address[]"
        },
        {
          "internalType": "address[]",
          "name": "tokens",
          "type": "address[]"
        }
      ],
      "name": "batchBalanceOf",
      "outputs": [
        {
          "internalType": "uint256[]",
          "name": "",
          "type": "uint256[]"
        }
      ],
      "stateMutability": "view",
      "type": "function"
    },
    {
      "inputs": [
        {
          "internalType": "address",
          "name": "provider",
          "type": "address"
        },
        {
          "internalType": "address",
          "name": "user",
          "type": "address"
        },
        {
          "internalType": "uint64",
          "name": "trancheId",
          "type": "uint64"
        }
      ],
      "name": "getUserWalletBalances",
      "outputs": [
        {
          "internalType": "address[]",
          "name": "",
          "type": "address[]"
        },
        {
          "internalType": "uint256[]",
          "name": "",
          "type": "uint256[]"
        }
      ],
      "stateMutability": "view",
      "type": "function"
    },
    {
      "stateMutability": "payable",
      "type": "receive"
    }
  ],
  "bytecode": "0x608060405234801561001057600080fd5b50610cca806100206000396000f3fe6080604052600436106100385760003560e01c8063b59b28ef14610072578063f7888aec146100a8578063fc8958e1146100d55761006d565b3661006d5761004633610103565b61006b5760405162461bcd60e51b815260040161006290610b9a565b60405180910390fd5b005b600080fd5b34801561007e57600080fd5b5061009261008d36600461091a565b610134565b60405161009f9190610b60565b60405180910390f35b3480156100b457600080fd5b506100c86100c336600461088c565b610285565b60405161009f9190610bb6565b3480156100e157600080fd5b506100f56100f03660046108c4565b610375565b60405161009f929190610b00565b600080826001600160a01b0316803b806020016040519081016040528181526000908060200190933c511192915050565b606060006101428386610c16565b67ffffffffffffffff81111561016857634e487b7160e01b600052604160045260246000fd5b604051908082528060200260200182016040528015610191578160200160208202803683370190505b50905060005b8581101561027b5760005b84811015610268576102178888848181106101cd57634e487b7160e01b600052603260045260246000fd5b90506020020160208101906101e2919061084d565b87878481811061020257634e487b7160e01b600052603260045260246000fd5b90506020020160208101906100c3919061084d565b83826102238886610c16565b61022d9190610bfe565b8151811061024b57634e487b7160e01b600052603260045260246000fd5b60209081029190910101528061026081610c35565b9150506101a2565b508061027381610c35565b915050610197565b5095945050505050565b60006001600160a01b03821673eeeeeeeeeeeeeeeeeeeeeeeeeeeeeeeeeeeeeeee14156102bd57506001600160a01b0382163161036f565b6102cf826001600160a01b0316610103565b15610357576040516370a0823160e01b81526001600160a01b038316906370a0823190610300908690600401610ac9565b60206040518083038186803b15801561031857600080fd5b505afa15801561032c573d6000803e3d6000fd5b505050506040513d601f19601f820116820180604052508101906103509190610a77565b905061036f565b60405162461bcd60e51b815260040161006290610b73565b92915050565b6060806000856001600160a01b0316630261bf8b6040518163ffffffff1660e01b815260040160206040518083038186803b1580156103b357600080fd5b505afa1580156103c7573d6000803e3d6000fd5b505050506040513d601f19601f820116820180604052508101906103eb9190610870565b90506000816001600160a01b03166313f9cf37866040518263ffffffff1660e01b815260040161041b9190610bbf565b60006040518083038186803b15801561043357600080fd5b505afa158015610447573d6000803e3d6000fd5b505050506040513d6000823e601f3d908101601f1916820160405261046f9190810190610983565b90506000815160016104819190610bfe565b67ffffffffffffffff8111156104a757634e487b7160e01b600052604160045260246000fd5b6040519080825280602002602001820160405280156104d0578160200160208202803683370190505b50905060005b8251811015610551578281815181106104ff57634e487b7160e01b600052603260045260246000fd5b602002602001015182828151811061052757634e487b7160e01b600052603260045260246000fd5b6001600160a01b03909216602092830291909101909101528061054981610c35565b9150506104d6565b5073eeeeeeeeeeeeeeeeeeeeeeeeeeeeeeeeeeeeeeee8183518151811061058857634e487b7160e01b600052603260045260246000fd5b60200260200101906001600160a01b031690816001600160a01b0316815250506000815167ffffffffffffffff8111156105d257634e487b7160e01b600052604160045260246000fd5b6040519080825280602002602001820160405280156105fb578160200160208202803683370190505b50905060005b835181101561076f576000856001600160a01b031663064db86585848151811061063b57634e487b7160e01b600052603260045260246000fd5b60200260200101518b6040518363ffffffff1660e01b8152600401610661929190610add565b60206040518083038186803b15801561067957600080fd5b505afa15801561068d573d6000803e3d6000fd5b505050506040513d601f19601f820116820180604052508101906106b19190610a36565b905060006106be826107c8565b5050509050806106fd5760008484815181106106ea57634e487b7160e01b600052603260045260246000fd5b602002602001018181525050505061075d565b61072e8b86858151811061072157634e487b7160e01b600052603260045260246000fd5b6020026020010151610285565b84848151811061074e57634e487b7160e01b600052603260045260246000fd5b60200260200101818152505050505b8061076781610c35565b915050610601565b5061078e8873eeeeeeeeeeeeeeeeeeeeeeeeeeeeeeeeeeeeeeee610285565b818451815181106107af57634e487b7160e01b600052603260045260246000fd5b6020908102919091010152909890975095505050505050565b51670100000000000000811615159167020000000000000082161515916704000000000000008116151591670800000000000000909116151590565b60008083601f840112610815578081fd5b50813567ffffffffffffffff81111561082c578182fd5b602083019150836020808302850101111561084657600080fd5b9250929050565b60006020828403121561085e578081fd5b813561086981610c7c565b9392505050565b600060208284031215610881578081fd5b815161086981610c7c565b6000806040838503121561089e578081fd5b82356108a981610c7c565b915060208301356108b981610c7c565b809150509250929050565b6000806000606084860312156108d8578081fd5b83356108e381610c7c565b925060208401356108f381610c7c565b9150604084013567ffffffffffffffff8116811461090f578182fd5b809150509250925092565b6000806000806040858703121561092f578081fd5b843567ffffffffffffffff80821115610946578283fd5b61095288838901610804565b9096509450602087013591508082111561096a578283fd5b5061097787828801610804565b95989497509550505050565b60006020808385031215610995578182fd5b825167ffffffffffffffff808211156109ac578384fd5b818501915085601f8301126109bf578384fd5b8151818111156109d1576109d1610c66565b83810291506109e1848301610bd4565b8181528481019084860184860187018a10156109fb578788fd5b8795505b83861015610a295780519450610a1485610c7c565b848352600195909501949186019186016109ff565b5098975050505050505050565b600060208284031215610a47578081fd5b6040516020810181811067ffffffffffffffff82111715610a6a57610a6a610c66565b6040529151825250919050565b600060208284031215610a88578081fd5b5051919050565b6000815180845260208085019450808401835b83811015610abe57815187529582019590820190600101610aa2565b509495945050505050565b6001600160a01b0391909116815260200190565b6001600160a01b0392909216825267ffffffffffffffff16602082015260400190565b604080825283519082018190526000906020906060840190828701845b82811015610b425781516001600160a01b031684529284019290840190600101610b1d565b50505083810382850152610b568186610a8f565b9695505050505050565b6000602082526108696020830184610a8f565b6020808252600d908201526c24a72b20a624a22faa27a5a2a760991b604082015260600190565b602080825260029082015261191960f11b604082015260600190565b90815260200190565b67ffffffffffffffff91909116815260200190565b60405181810167ffffffffffffffff81118282101715610bf657610bf6610c66565b604052919050565b60008219821115610c1157610c11610c50565b500190565b6000816000190483118215151615610c3057610c30610c50565b500290565b6000600019821415610c4957610c49610c50565b5060010190565b634e487b7160e01b600052601160045260246000fd5b634e487b7160e01b600052604160045260246000fd5b6001600160a01b0381168114610c9157600080fd5b5056fea2646970667358221220793c918219627fda6bff15cd2588694fe026173deb15e079b9e1fb817ade0b7b64736f6c63430008000033",
  "linkReferences": {},
  "deployedLinkReferences": {}
}